{
  "address": "0xe1d2d368c910d1E562564Aa751a8F88ebed19AB8",
  "abi": [
    {
      "inputs": [],
      "stateMutability": "nonpayable",
      "type": "constructor"
    },
    {
      "anonymous": false,
      "inputs": [
        {
          "indexed": false,
          "internalType": "uint8",
          "name": "version",
          "type": "uint8"
        }
      ],
      "name": "Initialized",
      "type": "event"
    },
    {
      "anonymous": false,
      "inputs": [
        {
          "indexed": true,
          "internalType": "bytes32",
          "name": "role",
          "type": "bytes32"
        },
        {
          "indexed": true,
          "internalType": "bytes32",
          "name": "previousAdminRole",
          "type": "bytes32"
        },
        {
          "indexed": true,
          "internalType": "bytes32",
          "name": "newAdminRole",
          "type": "bytes32"
        }
      ],
      "name": "RoleAdminChanged",
      "type": "event"
    },
    {
      "anonymous": false,
      "inputs": [
        {
          "indexed": true,
          "internalType": "bytes32",
          "name": "role",
          "type": "bytes32"
        },
        {
          "indexed": true,
          "internalType": "address",
          "name": "account",
          "type": "address"
        },
        {
          "indexed": true,
          "internalType": "address",
          "name": "sender",
          "type": "address"
        }
      ],
      "name": "RoleGranted",
      "type": "event"
    },
    {
      "anonymous": false,
      "inputs": [
        {
          "indexed": true,
          "internalType": "bytes32",
          "name": "role",
          "type": "bytes32"
        },
        {
          "indexed": true,
          "internalType": "address",
          "name": "account",
          "type": "address"
        },
        {
          "indexed": true,
          "internalType": "address",
          "name": "sender",
          "type": "address"
        }
      ],
      "name": "RoleRevoked",
      "type": "event"
    },
    {
      "inputs": [],
      "name": "DEFAULT_ADMIN_ROLE",
      "outputs": [
        {
          "internalType": "bytes32",
          "name": "",
          "type": "bytes32"
        }
      ],
      "stateMutability": "view",
      "type": "function"
    },
    {
      "inputs": [
        {
          "internalType": "bytes32",
          "name": "role",
          "type": "bytes32"
        }
      ],
      "name": "getRoleAdmin",
      "outputs": [
        {
          "internalType": "bytes32",
          "name": "",
          "type": "bytes32"
        }
      ],
      "stateMutability": "view",
      "type": "function"
    },
    {
      "inputs": [
        {
          "internalType": "bytes32",
          "name": "role",
          "type": "bytes32"
        },
        {
          "internalType": "uint256",
          "name": "index",
          "type": "uint256"
        }
      ],
      "name": "getRoleMember",
      "outputs": [
        {
          "internalType": "address",
          "name": "",
          "type": "address"
        }
      ],
      "stateMutability": "view",
      "type": "function"
    },
    {
      "inputs": [
        {
          "internalType": "bytes32",
          "name": "role",
          "type": "bytes32"
        }
      ],
      "name": "getRoleMemberCount",
      "outputs": [
        {
          "internalType": "uint256",
          "name": "",
          "type": "uint256"
        }
      ],
      "stateMutability": "view",
      "type": "function"
    },
    {
      "inputs": [
        {
          "internalType": "bytes32",
          "name": "role",
          "type": "bytes32"
        },
        {
          "internalType": "address",
          "name": "account",
          "type": "address"
        }
      ],
      "name": "grantRole",
      "outputs": [],
      "stateMutability": "nonpayable",
      "type": "function"
    },
    {
      "inputs": [
        {
          "internalType": "bytes32",
          "name": "role",
          "type": "bytes32"
        },
        {
          "internalType": "address",
          "name": "account",
          "type": "address"
        }
      ],
      "name": "hasRole",
      "outputs": [
        {
          "internalType": "bool",
          "name": "",
          "type": "bool"
        }
      ],
      "stateMutability": "view",
      "type": "function"
    },
    {
      "inputs": [],
      "name": "initialize",
      "outputs": [],
      "stateMutability": "nonpayable",
      "type": "function"
    },
    {
      "inputs": [
        {
          "internalType": "address",
          "name": "pool",
          "type": "address"
        },
        {
          "internalType": "address[]",
          "name": "targets",
          "type": "address[]"
        },
        {
          "internalType": "uint256[]",
          "name": "values",
          "type": "uint256[]"
        },
        {
          "internalType": "bytes[]",
          "name": "callDatas",
          "type": "bytes[]"
        },
        {
          "internalType": "string",
          "name": "description",
          "type": "string"
        },
        {
          "internalType": "string",
          "name": "metaHash",
          "type": "string"
        }
      ],
      "name": "proposeCustomTx",
      "outputs": [
        {
          "internalType": "uint256",
          "name": "proposalId",
          "type": "uint256"
        }
      ],
      "stateMutability": "nonpayable",
      "type": "function"
    },
    {
      "inputs": [
        {
          "internalType": "address",
          "name": "pool",
          "type": "address"
        },
        {
          "components": [
            {
              "internalType": "uint256",
              "name": "proposalThreshold",
              "type": "uint256"
            },
            {
              "internalType": "uint256",
              "name": "quorumThreshold",
              "type": "uint256"
            },
            {
              "internalType": "uint256",
              "name": "decisionThreshold",
              "type": "uint256"
            },
            {
              "internalType": "uint256",
              "name": "votingDuration",
              "type": "uint256"
            },
            {
              "internalType": "uint256",
              "name": "transferValueForDelay",
              "type": "uint256"
            },
            {
              "internalType": "uint256[4]",
              "name": "executionDelays",
              "type": "uint256[4]"
            },
            {
              "internalType": "uint256",
              "name": "votingStartDelay",
              "type": "uint256"
            }
          ],
          "internalType": "struct IGovernanceSettings.NewGovernanceSettings",
          "name": "settings",
          "type": "tuple"
        },
        {
          "internalType": "string",
          "name": "description",
          "type": "string"
        },
        {
          "internalType": "string",
          "name": "metaHash",
          "type": "string"
        }
      ],
      "name": "proposeGovernanceSettings",
      "outputs": [
        {
          "internalType": "uint256",
          "name": "proposalId",
          "type": "uint256"
        }
      ],
      "stateMutability": "nonpayable",
      "type": "function"
    },
    {
      "inputs": [
        {
          "internalType": "address",
          "name": "pool",
          "type": "address"
        },
        {
          "components": [
            {
              "internalType": "uint256",
              "name": "proposalThreshold",
              "type": "uint256"
            },
            {
              "internalType": "uint256",
              "name": "quorumThreshold",
              "type": "uint256"
            },
            {
              "internalType": "uint256",
              "name": "decisionThreshold",
              "type": "uint256"
            },
            {
              "internalType": "uint256",
              "name": "votingDuration",
              "type": "uint256"
            },
            {
              "internalType": "uint256",
              "name": "transferValueForDelay",
              "type": "uint256"
            },
            {
              "internalType": "uint256[4]",
              "name": "executionDelays",
              "type": "uint256[4]"
            },
            {
              "internalType": "uint256",
              "name": "votingStartDelay",
              "type": "uint256"
            }
          ],
          "internalType": "struct IGovernanceSettings.NewGovernanceSettings",
          "name": "settings",
          "type": "tuple"
        },
        {
          "internalType": "address[]",
          "name": "secretary",
          "type": "address[]"
        },
        {
          "internalType": "address[]",
          "name": "executor",
          "type": "address[]"
        },
        {
          "internalType": "string",
          "name": "description",
          "type": "string"
        },
        {
          "internalType": "string",
          "name": "metaHash",
          "type": "string"
        }
      ],
      "name": "proposeGovernanceSettingsWithRoles",
      "outputs": [
        {
          "internalType": "uint256",
          "name": "proposalId",
          "type": "uint256"
        }
      ],
      "stateMutability": "nonpayable",
      "type": "function"
    },
    {
      "inputs": [
        {
          "internalType": "address",
          "name": "pool",
          "type": "address"
        },
        {
          "internalType": "address",
          "name": "token",
          "type": "address"
        },
        {
          "components": [
            {
              "internalType": "uint256",
              "name": "price",
              "type": "uint256"
            },
            {
              "internalType": "uint256",
              "name": "hardcap",
              "type": "uint256"
            },
            {
              "internalType": "uint256",
              "name": "softcap",
              "type": "uint256"
            },
            {
              "internalType": "uint256",
              "name": "minPurchase",
              "type": "uint256"
            },
            {
              "internalType": "uint256",
              "name": "maxPurchase",
              "type": "uint256"
            },
            {
              "internalType": "uint256",
              "name": "duration",
              "type": "uint256"
            },
            {
              "components": [
                {
                  "internalType": "uint256",
                  "name": "vestedShare",
                  "type": "uint256"
                },
                {
                  "internalType": "uint256",
                  "name": "cliff",
                  "type": "uint256"
                },
                {
                  "internalType": "uint256",
                  "name": "cliffShare",
                  "type": "uint256"
                },
                {
                  "internalType": "uint256",
                  "name": "spans",
                  "type": "uint256"
                },
                {
                  "internalType": "uint256",
                  "name": "spanDuration",
                  "type": "uint256"
                },
                {
                  "internalType": "uint256",
                  "name": "spanShare",
                  "type": "uint256"
                },
                {
                  "internalType": "uint256",
                  "name": "claimTVL",
                  "type": "uint256"
                },
                {
                  "internalType": "address[]",
                  "name": "resolvers",
                  "type": "address[]"
                }
              ],
              "internalType": "struct IVesting.VestingParams",
              "name": "vestingParams",
              "type": "tuple"
            },
            {
              "internalType": "address[]",
              "name": "userWhitelist",
              "type": "address[]"
            },
            {
              "internalType": "address",
              "name": "unitOfAccount",
              "type": "address"
            },
            {
              "internalType": "uint256",
              "name": "lockupDuration",
              "type": "uint256"
            },
            {
              "internalType": "uint256",
              "name": "lockupTVL",
              "type": "uint256"
            }
          ],
          "internalType": "struct ITGE.TGEInfo",
          "name": "tgeInfo",
          "type": "tuple"
        },
        {
          "components": [
            {
              "internalType": "enum IToken.TokenType",
              "name": "tokenType",
              "type": "uint8"
            },
            {
              "internalType": "string",
              "name": "name",
              "type": "string"
            },
            {
              "internalType": "string",
              "name": "symbol",
              "type": "string"
            },
            {
              "internalType": "string",
              "name": "description",
              "type": "string"
            },
            {
              "internalType": "uint256",
              "name": "cap",
              "type": "uint256"
            },
            {
              "internalType": "uint8",
              "name": "decimals",
              "type": "uint8"
            }
          ],
          "internalType": "struct IToken.TokenInfo",
          "name": "tokenInfo",
          "type": "tuple"
        },
        {
          "internalType": "string",
          "name": "metadataURI",
          "type": "string"
        },
        {
          "internalType": "string",
          "name": "description",
          "type": "string"
        },
        {
          "internalType": "string",
          "name": "metaHash",
          "type": "string"
        }
      ],
      "name": "proposeTGE",
      "outputs": [
        {
          "internalType": "uint256",
          "name": "proposalId",
          "type": "uint256"
        }
      ],
      "stateMutability": "nonpayable",
      "type": "function"
    },
    {
      "inputs": [
        {
          "internalType": "address",
          "name": "pool",
          "type": "address"
        },
        {
          "internalType": "address",
          "name": "token",
          "type": "address"
        },
        {
          "internalType": "uint256",
          "name": "tokenId",
          "type": "uint256"
        },
        {
          "internalType": "string",
          "name": "tokenIdMetadataURI",
          "type": "string"
        },
        {
          "components": [
            {
              "internalType": "uint256",
              "name": "price",
              "type": "uint256"
            },
            {
              "internalType": "uint256",
              "name": "hardcap",
              "type": "uint256"
            },
            {
              "internalType": "uint256",
              "name": "softcap",
              "type": "uint256"
            },
            {
              "internalType": "uint256",
              "name": "minPurchase",
              "type": "uint256"
            },
            {
              "internalType": "uint256",
              "name": "maxPurchase",
              "type": "uint256"
            },
            {
              "internalType": "uint256",
              "name": "duration",
              "type": "uint256"
            },
            {
              "components": [
                {
                  "internalType": "uint256",
                  "name": "vestedShare",
                  "type": "uint256"
                },
                {
                  "internalType": "uint256",
                  "name": "cliff",
                  "type": "uint256"
                },
                {
                  "internalType": "uint256",
                  "name": "cliffShare",
                  "type": "uint256"
                },
                {
                  "internalType": "uint256",
                  "name": "spans",
                  "type": "uint256"
                },
                {
                  "internalType": "uint256",
                  "name": "spanDuration",
                  "type": "uint256"
                },
                {
                  "internalType": "uint256",
                  "name": "spanShare",
                  "type": "uint256"
                },
                {
                  "internalType": "uint256",
                  "name": "claimTVL",
                  "type": "uint256"
                },
                {
                  "internalType": "address[]",
                  "name": "resolvers",
                  "type": "address[]"
                }
              ],
              "internalType": "struct IVesting.VestingParams",
              "name": "vestingParams",
              "type": "tuple"
            },
            {
              "internalType": "address[]",
              "name": "userWhitelist",
              "type": "address[]"
            },
            {
              "internalType": "address",
              "name": "unitOfAccount",
              "type": "address"
            },
            {
              "internalType": "uint256",
              "name": "lockupDuration",
              "type": "uint256"
            },
            {
              "internalType": "uint256",
              "name": "lockupTVL",
              "type": "uint256"
            }
          ],
          "internalType": "struct ITGE.TGEInfo",
          "name": "tgeInfo",
          "type": "tuple"
        },
        {
          "components": [
            {
              "internalType": "enum IToken.TokenType",
              "name": "tokenType",
              "type": "uint8"
            },
            {
              "internalType": "string",
              "name": "name",
              "type": "string"
            },
            {
              "internalType": "string",
              "name": "symbol",
              "type": "string"
            },
            {
              "internalType": "string",
              "name": "description",
              "type": "string"
            },
            {
              "internalType": "uint256",
              "name": "cap",
              "type": "uint256"
            },
            {
              "internalType": "uint8",
              "name": "decimals",
              "type": "uint8"
            }
          ],
          "internalType": "struct IToken.TokenInfo",
          "name": "tokenInfo",
          "type": "tuple"
        },
        {
          "internalType": "string",
          "name": "metadataURI",
          "type": "string"
        },
        {
          "internalType": "string",
          "name": "description",
          "type": "string"
        },
        {
          "internalType": "string",
          "name": "metaHash",
          "type": "string"
        }
      ],
      "name": "proposeTGEERC1155",
      "outputs": [
        {
          "internalType": "uint256",
          "name": "proposalId",
          "type": "uint256"
        }
      ],
      "stateMutability": "nonpayable",
      "type": "function"
    },
    {
      "inputs": [
        {
          "internalType": "address",
          "name": "pool",
          "type": "address"
        },
        {
          "internalType": "address",
          "name": "asset",
          "type": "address"
        },
        {
          "internalType": "address[]",
          "name": "recipients",
          "type": "address[]"
        },
        {
          "internalType": "uint256[]",
          "name": "amounts",
          "type": "uint256[]"
        },
        {
          "internalType": "string",
          "name": "description",
          "type": "string"
        },
        {
          "internalType": "string",
          "name": "metaHash",
          "type": "string"
        }
      ],
      "name": "proposeTransfer",
      "outputs": [
        {
          "internalType": "uint256",
          "name": "proposalId",
          "type": "uint256"
        }
      ],
      "stateMutability": "nonpayable",
      "type": "function"
    },
    {
      "inputs": [
        {
          "internalType": "bytes32",
          "name": "role",
          "type": "bytes32"
        },
        {
          "internalType": "address",
          "name": "account",
          "type": "address"
        }
      ],
      "name": "renounceRole",
      "outputs": [],
      "stateMutability": "nonpayable",
      "type": "function"
    },
    {
      "inputs": [
        {
          "internalType": "bytes32",
          "name": "role",
          "type": "bytes32"
        },
        {
          "internalType": "address",
          "name": "account",
          "type": "address"
        }
      ],
      "name": "revokeRole",
      "outputs": [],
      "stateMutability": "nonpayable",
      "type": "function"
    },
    {
      "inputs": [],
      "name": "service",
      "outputs": [
        {
          "internalType": "contract IService",
          "name": "",
          "type": "address"
        }
      ],
      "stateMutability": "view",
      "type": "function"
    },
    {
      "inputs": [
        {
          "internalType": "address",
          "name": "service_",
          "type": "address"
        }
      ],
      "name": "setService",
      "outputs": [],
      "stateMutability": "nonpayable",
      "type": "function"
    },
    {
      "inputs": [
        {
          "internalType": "bytes4",
          "name": "interfaceId",
          "type": "bytes4"
        }
      ],
      "name": "supportsInterface",
      "outputs": [
        {
          "internalType": "bool",
          "name": "",
          "type": "bool"
        }
      ],
      "stateMutability": "view",
      "type": "function"
    }
  ],
  "transactionHash": "0x345a30a95401710dc86750991ba5e9791bb43a9e176612092b82bdac724d5523",
  "args": [],
  "numDeployments": 1,
  "solcInputHash": "0762d4eb531d05dc95fd5d895d7fecc0",
  "bytecode": "0x60806040523480156200001157600080fd5b506200001c62000022565b620000e4565b600054610100900460ff16156200008f5760405162461bcd60e51b815260206004820152602760248201527f496e697469616c697a61626c653a20636f6e747261637420697320696e697469604482015266616c697a696e6760c81b606482015260840160405180910390fd5b60005460ff9081161015620000e2576000805460ff191660ff9081179091556040519081527f7f26b83ff96e1f2b6a682f133852f6798a09c465da95921460cefb38474024989060200160405180910390a15b565b6137d080620000f46000396000f3fe608060405234801561001057600080fd5b50600436106101165760003560e01c80639010d07c116100a2578063b9222f6d11610071578063b9222f6d14610249578063bf8bdac11461025c578063ca15c8731461026f578063d547741f14610282578063d598d4c91461029557600080fd5b80639010d07c146101f057806391d148541461021b578063a217fddf1461022e578063a7eecd9a1461023657600080fd5b806336568abe116100e957806336568abe1461019c57806338a5947e146101af5780634c70d35e146101c25780637a1de7b8146101d55780638129fc1c146101e857600080fd5b806301ffc9a71461011b57806304dc7c0114610143578063248a9ca3146101645780632f2ff15d14610187575b600080fd5b61012e6101293660046124dc565b6102a8565b60405190151581526020015b60405180910390f35b61015661015136600461297c565b6102d3565b60405190815260200161013a565b610156610172366004612a9d565b60009081526065602052604090206001015490565b61019a610195366004612ab6565b6109c9565b005b61019a6101aa366004612ab6565b6109f3565b6101566101bd366004612b8d565b610a71565b6101566101d0366004612d4e565b610d99565b6101566101e3366004612e14565b611183565b61019a6117a6565b6102036101fe366004612f06565b6118ba565b6040516001600160a01b03909116815260200161013a565b61012e610229366004612ab6565b6118d9565b610156600081565b610156610244366004612f28565b611904565b610156610257366004612fb2565b611bd6565b61019a61026a36600461302c565b611f50565b61015661027d366004612a9d565b611f7e565b61019a610290366004612ab6565b611f95565b60c954610203906001600160a01b031681565b60006001600160e01b03198216635a05180f60e01b14806102cd57506102cd82611fba565b92915050565b6000806001600160a01b038a161580610351575060405163599fbc6560e11b81526001600160a01b038b811660048301528c169063b33f78ca90602401602060405180830381865afa15801561032d573d6000803e3d6000fd5b505050506040513d601f19601f820116820180604052508101906103519190613049565b6040518060400160405280601381526020017257524f4e475f544f4b454e5f4144445245535360681b815250906103a45760405162461bcd60e51b815260040161039b91906130bb565b60405180910390fd5b506001600160a01b038a16158061042457506040516001623549c760e21b03198152600481018a90526001600160a01b038b169063ff2ad8e490602401602060405180830381865afa1580156103fe573d6000803e3d6000fd5b505050506040513d601f19601f8201168201806040525081019061042291906130ce565b155b8061050a575060006040516365a6887f60e11b8152600481018b90526001600160a01b038c169063cb4d10fe90602401602060405180830381865afa158015610471573d6000803e3d6000fd5b505050506040513d601f19601f8201168201806040525081019061049591906130fd565b6001600160a01b031663c19d93fb6040518163ffffffff1660e01b8152600401602060405180830381865afa1580156104d2573d6000803e3d6000fd5b505050506040513d601f19601f820116820180604052508101906104f6919061311a565b6002811115610507576105076130e7565b14155b604051806040016040528060118152602001704143544956455f5447455f45584953545360781b815250906105525760405162461bcd60e51b815260040161039b91906130bb565b506001600160a01b038a16156106b75788158015906105d557506040516314c5238f60e01b8152600481018a90526001600160a01b038b16906314c5238f90602401602060405180830381865afa1580156105b1573d6000803e3d6000fd5b505050506040513d601f19601f820116820180604052508101906105d59190613049565b156106b7576040516001623549c760e21b03198152600481018a90526001600160a01b038b169063ff2ad8e490602401602060405180830381865afa158015610622573d6000803e3d6000fd5b505050506040513d601f19601f8201168201806040525081019061064691906130ce565b60808701526040516356f9f5e360e11b8152600481018a90526001600160a01b038b169063adf3ebc690602401602060405180830381865afa158015610690573d6000803e3d6000fd5b505050506040513d601f19601f820116820180604052508101906106b491906130ce565b90505b60c95460808701518751604051632a38b4af60e01b81526001600160a01b0390931692632a38b4af926106f1928c9287919060040161329e565b60006040518083038186803b15801561070957600080fd5b505afa15801561071d573d6000803e3d6000fd5b50600092506001915061072d9050565b604051908082528060200260200182016040528015610756578160200160208202803683370190505b50905060c960009054906101000a90046001600160a01b03166001600160a01b031663102c5c016040518163ffffffff1660e01b8152600401602060405180830381865afa1580156107ac573d6000803e3d6000fd5b505050506040513d601f19601f820116820180604052508101906107d091906130fd565b816000815181106107e3576107e36132cc565b6001600160a01b039290921660209283029190910190910152604080516001808252818301909252600091816020016020820280368337019050509050600081600081518110610835576108356132cc565b6020908102919091010152604080516001808252818301909252600091816020015b60608152602001906001900390816108575750506040519091506324e2af2b60e01b90610892908f908f908f908f908f908f9060240161335f565b604051602081830303815290604052906001600160e01b0319166020820180516001600160e01b038381831617835250505050816000815181106108d8576108d86132cc565b602002602001018190525060008e6001600160a01b031663f7ec6f103360066040518060c0016040528089815260200188815260200187815260200160008152602001600081526020016000815250604051806060016040528060026003811115610945576109456130e7565b81526020018e81526020018d8152506040518563ffffffff1660e01b815260040161097394939291906134fc565b6020604051808303816000875af1158015610992573d6000803e3d6000fd5b505050506040513d601f19601f820116820180604052508101906109b691906130ce565b9f9e505050505050505050505050505050565b6000828152606560205260409020600101546109e481611fef565b6109ee8383611ff9565b505050565b6001600160a01b0381163314610a635760405162461bcd60e51b815260206004820152602f60248201527f416363657373436f6e74726f6c3a2063616e206f6e6c792072656e6f756e636560448201526e103937b632b9903337b91039b2b63360891b606482015260840161039b565b610a6d828261201b565b5050565b604051633157293f60e01b8152600260048201526000906001600160a01b03881690633157293f90602401602060405180830381865afa158015610ab9573d6000803e3d6000fd5b505050506040513d601f19601f82011682018060405250810190610add9190613049565b156040518060600160405280602a8152602001613771602a913990610b155760405162461bcd60e51b815260040161039b91906130bb565b506040516323fb0ead60e21b81526001600160a01b03881690638fec3ab490610b429089906004016135a7565b60006040518083038186803b158015610b5a57600080fd5b505afa158015610b6e573d6000803e3d6000fd5b506000925060019150610b7e9050565b604051908082528060200260200182016040528015610ba7578160200160208202803683370190505b5090508781600081518110610bbe57610bbe6132cc565b6001600160a01b039290921660209283029190910190910152604080516001808252818301909252600091816020016020820280368337019050509050600081600081518110610c1057610c106132cc565b6020908102919091010152604080516001808252818301909252600091816020015b6060815260200190600190039081610c325750506040519091506396a7244160e01b90610c67908b908b908b906024016135b6565b604051602081830303815290604052906001600160e01b0319166020820180516001600160e01b03838183161783525050505081600081518110610cad57610cad6132cc565b602002602001018190525060008a6001600160a01b031663f7ec6f103360026040518060c00160405280898152602001888152602001878152602001600081526020016000815260200160008152506040518060600160405280600380811115610d1957610d196130e7565b81526020018d81526020018c8152506040518563ffffffff1660e01b8152600401610d4794939291906134fc565b6020604051808303816000875af1158015610d66573d6000803e3d6000fd5b505050506040513d601f19601f82011682018060405250810190610d8a91906130ce565b9b9a5050505050505050505050565b600086600160c960009054906101000a90046001600160a01b03166001600160a01b0316637b1039996040518163ffffffff1660e01b8152600401602060405180830381865afa158015610df1573d6000803e3d6000fd5b505050506040513d601f19601f82011682018060405250810190610e1591906130fd565b604051630db9619f60e31b81526001600160a01b0384811660048301529190911690636dcb0cf890602401602060405180830381865afa158015610e5d573d6000803e3d6000fd5b505050506040513d601f19601f82011682018060405250810190610e8191906135f7565b6004811115610e9257610e926130e7565b14604051806040016040528060088152602001671393d517d413d3d360c21b81525090610ed25760405162461bcd60e51b815260040161039b91906130bb565b5085518751148015610ee5575084518751145b6040518060400160405280600d81526020016c494e56414c49445f56414c554560981b81525090610f295760405162461bcd60e51b815260040161039b91906130bb565b5060005b87518110156110a25760c95460408051637b10399960e01b815290516000926001600160a01b031691637b1039999160048083019260209291908290030181865afa158015610f80573d6000803e3d6000fd5b505050506040513d601f19601f82011682018060405250810190610fa491906130fd565b6001600160a01b0316636dcb0cf88a8481518110610fc457610fc46132cc565b60200260200101516040518263ffffffff1660e01b8152600401610ff791906001600160a01b0391909116815260200190565b602060405180830381865afa158015611014573d6000803e3d6000fd5b505050506040513d601f19601f8201168201806040525081019061103891906135f7565b6004811115611049576110496130e7565b146040518060400160405280600e81526020016d1253959053125117d5105491d15560921b8152509061108f5760405162461bcd60e51b815260040161039b91906130bb565b508061109a8161362e565b915050610f2d565b506000886001600160a01b031663f7ec6f103360046040518060c001604052808d81526020018c81526020018b815260200160008152602001600081526020016000815250604051806060016040528060016003811115611105576111056130e7565b81526020018b81526020018a8152506040518563ffffffff1660e01b815260040161113394939291906134fc565b6020604051808303816000875af1158015611152573d6000803e3d6000fd5b505050506040513d601f19601f8201168201806040525081019061117691906130ce565b9998505050505050505050565b6000806001600160a01b0388161580611201575060405163599fbc6560e11b81526001600160a01b0389811660048301528a169063b33f78ca90602401602060405180830381865afa1580156111dd573d6000803e3d6000fd5b505050506040513d601f19601f820116820180604052508101906112019190613049565b6040518060400160405280601381526020017257524f4e475f544f4b454e5f4144445245535360681b8152509061124b5760405162461bcd60e51b815260040161039b91906130bb565b50600186516002811115611261576112616130e7565b0361133a57876001600160a01b031663355274ea6040518163ffffffff1660e01b8152600401602060405180830381865afa1580156112a4573d6000803e3d6000fd5b505050506040513d601f19601f820116820180604052508101906112c891906130ce565b866080018181525050876001600160a01b031663585fe4d56040518163ffffffff1660e01b8152600401602060405180830381865afa15801561130f573d6000803e3d6000fd5b505050506040513d601f19601f8201168201806040525081019061133391906130ce565b905061149a565b60028651600281111561134f5761134f6130e7565b0361149a576001600160a01b0388161561149a57876001600160a01b031663d04d79b56040518163ffffffff1660e01b8152600401602060405180830381865afa1580156113a1573d6000803e3d6000fd5b505050506040513d601f19601f820116820180604052508101906113c59190613049565b1561149a57876001600160a01b031663355274ea6040518163ffffffff1660e01b8152600401602060405180830381865afa158015611408573d6000803e3d6000fd5b505050506040513d601f19601f8201168201806040525081019061142c91906130ce565b866080018181525050876001600160a01b031663585fe4d56040518163ffffffff1660e01b8152600401602060405180830381865afa158015611473573d6000803e3d6000fd5b505050506040513d601f19601f8201168201806040525081019061149791906130ce565b90505b60c95460808701518751604051632a38b4af60e01b81526001600160a01b0390931692632a38b4af926114d4928c9287919060040161329e565b60006040518083038186803b1580156114ec57600080fd5b505afa158015611500573d6000803e3d6000fd5b5060009250600191506115109050565b604051908082528060200260200182016040528015611539578160200160208202803683370190505b50905060c960009054906101000a90046001600160a01b03166001600160a01b031663102c5c016040518163ffffffff1660e01b8152600401602060405180830381865afa15801561158f573d6000803e3d6000fd5b505050506040513d601f19601f820116820180604052508101906115b391906130fd565b816000815181106115c6576115c66132cc565b6001600160a01b039290921660209283029190910190910152604080516001808252818301909252600091816020016020820280368337019050509050600081600081518110611618576116186132cc565b6020908102919091010152604080516001808252818301909252600091816020015b606081526020019060019003908161163a575050604051909150630fa1820960e31b90611671908d908d908d908d90602401613647565b604051602081830303815290604052906001600160e01b0319166020820180516001600160e01b038381831617835250505050816000815181106116b7576116b76132cc565b602002602001018190525060008c6001600160a01b031663f7ec6f103360016040518060c0016040528089815260200188815260200187815260200160008152602001600081526020016000815250604051806060016040528060026003811115611724576117246130e7565b81526020018e81526020018d8152506040518563ffffffff1660e01b815260040161175294939291906134fc565b6020604051808303816000875af1158015611771573d6000803e3d6000fd5b505050506040513d601f19601f8201168201806040525081019061179591906130ce565b9d9c50505050505050505050505050565b600054610100900460ff16158080156117c65750600054600160ff909116105b806117e05750303b1580156117e0575060005460ff166001145b6118435760405162461bcd60e51b815260206004820152602e60248201527f496e697469616c697a61626c653a20636f6e747261637420697320616c72656160448201526d191e481a5b9a5d1a585b1a5e995960921b606482015260840161039b565b6000805460ff191660011790558015611866576000805461ff0019166101001790555b611871600033611ff9565b80156118b7576000805461ff0019169055604051600181527f7f26b83ff96e1f2b6a682f133852f6798a09c465da95921460cefb38474024989060200160405180910390a15b50565b60008281526097602052604081206118d2908361203d565b9392505050565b60009182526065602090815260408084206001600160a01b0393909316845291905290205460ff1690565b604051633157293f60e01b8152600260048201526000906001600160a01b03861690633157293f90602401602060405180830381865afa15801561194c573d6000803e3d6000fd5b505050506040513d601f19601f820116820180604052508101906119709190613049565b156040518060600160405280602a8152602001613771602a9139906119a85760405162461bcd60e51b815260040161039b91906130bb565b506040516323fb0ead60e21b81526001600160a01b03861690638fec3ab4906119d59087906004016135a7565b60006040518083038186803b1580156119ed57600080fd5b505afa158015611a01573d6000803e3d6000fd5b506000925060019150611a119050565b604051908082528060200260200182016040528015611a3a578160200160208202803683370190505b5090508581600081518110611a5157611a516132cc565b6001600160a01b039290921660209283029190910190910152604080516001808252818301909252600091816020016020820280368337019050509050600081600081518110611aa357611aa36132cc565b6020908102919091010152604080516001808252818301909252600091816020015b6060815260200190600190039081611ac5575050604051909150639198c39360e01b90611af69089906024016135a7565b604051602081830303815290604052906001600160e01b0319166020820180516001600160e01b03838183161783525050505081600081518110611b3c57611b3c6132cc565b60200260200101819052506000886001600160a01b031663f7ec6f103360026040518060c00160405280898152602001888152602001878152602001600081526020016000815260200160008152506040518060600160405280600380811115611ba857611ba86130e7565b81526020018d81526020018c8152506040518563ffffffff1660e01b815260040161113394939291906134fc565b6000808551118015611be9575083518551145b6040518060400160405280600d81526020016c494e56414c49445f56414c554560981b81525090611c2d5760405162461bcd60e51b815260040161039b91906130bb565b50600085516001600160401b03811115611c4957611c4961252b565b604051908082528060200260200182016040528015611c72578160200160208202803683370190505b509050600086516001600160401b03811115611c9057611c9061252b565b604051908082528060200260200182016040528015611cb9578160200160208202803683370190505b509050600087516001600160401b03811115611cd757611cd761252b565b604051908082528060200260200182016040528015611d0a57816020015b6060815260200190600190039081611cf55790505b50905060005b8851811015611eed576001600160a01b038a16611ddd57888181518110611d3957611d396132cc565b6020026020010151848281518110611d5357611d536132cc565b60200260200101906001600160a01b031690816001600160a01b03168152505060405180602001604052806000815250828281518110611d9557611d956132cc565b6020026020010181905250878181518110611db257611db26132cc565b6020026020010151838281518110611dcc57611dcc6132cc565b602002602001018181525050611edb565b89848281518110611df057611df06132cc565b60200260200101906001600160a01b031690816001600160a01b03168152505063a9059cbb60e01b898281518110611e2a57611e2a6132cc565b6020026020010151898381518110611e4457611e446132cc565b60209081029190910101516040516001600160a01b0390921660248301526044820152606401604051602081830303815290604052906001600160e01b0319166020820180516001600160e01b038381831617835250505050828281518110611eaf57611eaf6132cc565b60200260200101819052506000838281518110611ece57611ece6132cc565b6020026020010181815250505b80611ee58161362e565b915050611d10565b5060008a6001600160a01b031663f7ec6f103360006040518060c0016040528089815260200188815260200187815260200160008152602001600081526020016000815250604051806060016040528060016003811115610d1957610d196130e7565b6000611f5b81611fef565b5060c980546001600160a01b0319166001600160a01b0392909216919091179055565b60008181526097602052604081206102cd90612049565b600082815260656020526040902060010154611fb081611fef565b6109ee838361201b565b60006001600160e01b03198216637965db0b60e01b14806102cd57506301ffc9a760e01b6001600160e01b03198316146102cd565b6118b78133612053565b61200382826120ac565b60008281526097602052604090206109ee9082612132565b6120258282612147565b60008281526097602052604090206109ee90826121ae565b60006118d283836121c3565b60006102cd825490565b61205d82826118d9565b610a6d5761206a816121ed565b6120758360206121ff565b604051602001612086929190613691565b60408051601f198184030181529082905262461bcd60e51b825261039b916004016130bb565b6120b682826118d9565b610a6d5760008281526065602090815260408083206001600160a01b03851684529091529020805460ff191660011790556120ee3390565b6001600160a01b0316816001600160a01b0316837f2f8788117e7eff1d82e926ec794901d17c78024a50270940304540a733656f0d60405160405180910390a45050565b60006118d2836001600160a01b03841661239a565b61215182826118d9565b15610a6d5760008281526065602090815260408083206001600160a01b0385168085529252808320805460ff1916905551339285917ff6391f5c32d9c69d2a47ea670b442974b53935d1edc7fd64eb21e047a839171b9190a45050565b60006118d2836001600160a01b0384166123e9565b60008260000182815481106121da576121da6132cc565b9060005260206000200154905092915050565b60606102cd6001600160a01b03831660145b6060600061220e836002613706565b61221990600261371d565b6001600160401b038111156122305761223061252b565b6040519080825280601f01601f19166020018201604052801561225a576020820181803683370190505b509050600360fc1b81600081518110612275576122756132cc565b60200101906001600160f81b031916908160001a905350600f60fb1b816001815181106122a4576122a46132cc565b60200101906001600160f81b031916908160001a90535060006122c8846002613706565b6122d390600161371d565b90505b600181111561234b576f181899199a1a9b1b9c1cb0b131b232b360811b85600f1660108110612307576123076132cc565b1a60f81b82828151811061231d5761231d6132cc565b60200101906001600160f81b031916908160001a90535060049490941c9361234481613730565b90506122d6565b5083156118d25760405162461bcd60e51b815260206004820181905260248201527f537472696e67733a20686578206c656e67746820696e73756666696369656e74604482015260640161039b565b60008181526001830160205260408120546123e1575081546001818101845560008481526020808220909301849055845484825282860190935260409020919091556102cd565b5060006102cd565b600081815260018301602052604081205480156124d257600061240d600183613747565b855490915060009061242190600190613747565b9050818114612486576000866000018281548110612441576124416132cc565b9060005260206000200154905080876000018481548110612464576124646132cc565b6000918252602080832090910192909255918252600188019052604090208390555b85548690806124975761249761375a565b6001900381819060005260206000200160009055905585600101600086815260200190815260200160002060009055600193505050506102cd565b60009150506102cd565b6000602082840312156124ee57600080fd5b81356001600160e01b0319811681146118d257600080fd5b6001600160a01b03811681146118b757600080fd5b803561252681612506565b919050565b634e487b7160e01b600052604160045260246000fd5b60405161010081016001600160401b03811182821017156125645761256461252b565b60405290565b60405161016081016001600160401b03811182821017156125645761256461252b565b60405160c081016001600160401b03811182821017156125645761256461252b565b60405160e081016001600160401b03811182821017156125645761256461252b565b604051608081016001600160401b03811182821017156125645761256461252b565b604051601f8201601f191681016001600160401b038111828210171561261b5761261b61252b565b604052919050565b60006001600160401b0383111561263c5761263c61252b565b61264f601f8401601f19166020016125f3565b905082815283838301111561266357600080fd5b828260208301376000602084830101529392505050565b600082601f83011261268b57600080fd5b6118d283833560208501612623565b60006001600160401b038211156126b3576126b361252b565b5060051b60200190565b600082601f8301126126ce57600080fd5b813560206126e36126de8361269a565b6125f3565b82815260059290921b8401810191818101908684111561270257600080fd5b8286015b8481101561272657803561271981612506565b8352918301918301612706565b509695505050505050565b6000610100828403121561274457600080fd5b61274c612541565b9050813581526020820135602082015260408201356040820152606082013560608201526080820135608082015260a082013560a082015260c082013560c082015260e08201356001600160401b038111156127a757600080fd5b6127b3848285016126bd565b60e08301525092915050565b600061016082840312156127d257600080fd5b6127da61256a565b9050813581526020820135602082015260408201356040820152606082013560608201526080820135608082015260a082013560a082015260c08201356001600160401b038082111561282c57600080fd5b61283885838601612731565b60c084015260e084013591508082111561285157600080fd5b5061285e848285016126bd565b60e08301525061010061287281840161251b565b9082015261012082810135908201526101409182013591810191909152919050565b600381106118b757600080fd5b803561252681612894565b803560ff8116811461252657600080fd5b600060c082840312156128cf57600080fd5b6128d761258d565b90506128e2826128a1565b815260208201356001600160401b03808211156128fe57600080fd5b61290a8583860161267a565b6020840152604084013591508082111561292357600080fd5b61292f8583860161267a565b6040840152606084013591508082111561294857600080fd5b506129558482850161267a565b6060830152506080820135608082015261297160a083016128ac565b60a082015292915050565b60008060008060008060008060006101208a8c03121561299b57600080fd5b6129a48a61251b565b98506129b260208b0161251b565b975060408a0135965060608a01356001600160401b03808211156129d557600080fd5b6129e18d838e0161267a565b975060808c01359150808211156129f757600080fd5b612a038d838e016127bf565b965060a08c0135915080821115612a1957600080fd5b612a258d838e016128bd565b955060c08c0135915080821115612a3b57600080fd5b612a478d838e0161267a565b945060e08c0135915080821115612a5d57600080fd5b612a698d838e0161267a565b93506101008c0135915080821115612a8057600080fd5b50612a8d8c828d0161267a565b9150509295985092959850929598565b600060208284031215612aaf57600080fd5b5035919050565b60008060408385031215612ac957600080fd5b823591506020830135612adb81612506565b809150509250929050565b60006101408284031215612af957600080fd5b612b016125af565b905081358152602080830135818301526040830135604083015260608301356060830152608083013560808301528360bf840112612b3e57600080fd5b612b466125d1565b80610120850186811115612b5957600080fd5b60a086015b81811015612b755780358452928401928401612b5e565b508160a0860152803560c08601525050505092915050565b6000806000806000806101e08789031215612ba757600080fd5b612bb08761251b565b9550612bbf8860208901612ae6565b94506101608701356001600160401b0380821115612bdc57600080fd5b612be88a838b016126bd565b9550610180890135915080821115612bff57600080fd5b612c0b8a838b016126bd565b94506101a0890135915080821115612c2257600080fd5b612c2e8a838b0161267a565b93506101c0890135915080821115612c4557600080fd5b50612c5289828a0161267a565b9150509295509295509295565b600082601f830112612c7057600080fd5b81356020612c806126de8361269a565b82815260059290921b84018101918181019086841115612c9f57600080fd5b8286015b848110156127265780358352918301918301612ca3565b600082601f830112612ccb57600080fd5b81356020612cdb6126de8361269a565b82815260059290921b84018101918181019086841115612cfa57600080fd5b8286015b848110156127265780356001600160401b03811115612d1d5760008081fd5b8701603f81018913612d2f5760008081fd5b612d40898683013560408401612623565b845250918301918301612cfe565b60008060008060008060c08789031215612d6757600080fd5b612d708761251b565b955060208701356001600160401b0380821115612d8c57600080fd5b612d988a838b016126bd565b96506040890135915080821115612dae57600080fd5b612dba8a838b01612c5f565b95506060890135915080821115612dd057600080fd5b612ddc8a838b01612cba565b94506080890135915080821115612df257600080fd5b612dfe8a838b0161267a565b935060a0890135915080821115612c4557600080fd5b600080600080600080600060e0888a031215612e2f57600080fd5b612e388861251b565b9650612e466020890161251b565b955060408801356001600160401b0380821115612e6257600080fd5b612e6e8b838c016127bf565b965060608a0135915080821115612e8457600080fd5b612e908b838c016128bd565b955060808a0135915080821115612ea657600080fd5b612eb28b838c0161267a565b945060a08a0135915080821115612ec857600080fd5b612ed48b838c0161267a565b935060c08a0135915080821115612eea57600080fd5b50612ef78a828b0161267a565b91505092959891949750929550565b60008060408385031215612f1957600080fd5b50508035926020909101359150565b6000806000806101a08587031215612f3f57600080fd5b8435612f4a81612506565b9350612f598660208701612ae6565b92506101608501356001600160401b0380821115612f7657600080fd5b612f828883890161267a565b9350610180870135915080821115612f9957600080fd5b50612fa68782880161267a565b91505092959194509250565b60008060008060008060c08789031215612fcb57600080fd5b612fd48761251b565b9550612fe26020880161251b565b945060408701356001600160401b0380821115612ffe57600080fd5b61300a8a838b016126bd565b9550606089013591508082111561302057600080fd5b612ddc8a838b01612c5f565b60006020828403121561303e57600080fd5b81356118d281612506565b60006020828403121561305b57600080fd5b815180151581146118d257600080fd5b60005b8381101561308657818101518382015260200161306e565b50506000910152565b600081518084526130a781602086016020860161306b565b601f01601f19169290920160200192915050565b6020815260006118d2602083018461308f565b6000602082840312156130e057600080fd5b5051919050565b634e487b7160e01b600052602160045260246000fd5b60006020828403121561310f57600080fd5b81516118d281612506565b60006020828403121561312c57600080fd5b81516118d281612894565b600081518084526020808501945080840160005b838110156131705781516001600160a01b03168752958201959082019060010161314b565b509495945050505050565b6000610100825184526020830151602085015260408301516040850152606083015160608501526080830151608085015260a083015160a085015260c083015160c085015260e08301518160e08601526131d782860182613137565b95945050505050565b6000610160825184526020830151602085015260408301516040850152606083015160608501526080830151608085015260a083015160a085015260c08301518160c08601526132328286018261317b565b91505060e083015184820360e086015261324c8282613137565b9150506101008084015161326a828701826001600160a01b03169052565b505061012083810151908501526101409283015192909301919091525090565b6003811061329a5761329a6130e7565b9052565b6080815260006132b160808301876131e0565b90508460208301528360408301526131d7606083018461328a565b634e487b7160e01b600052603260045260246000fd5b6132ed82825161328a565b6000602082015160c0602085015261330860c085018261308f565b905060408301518482036040860152613321828261308f565b9150506060830151848203606086015261333b828261308f565b9150506080830151608085015260ff60a08401511660a08501528091505092915050565b60018060a01b038716815285602082015260c06040820152600061338660c083018761308f565b828103606084015261339881876131e0565b905082810360808401526133ac81866132e2565b905082810360a0840152611176818561308f565b600081518084526020808501808196508360051b8101915082860160005b858110156134085782840389526133f684835161308f565b988501989350908401906001016133de565b5091979650505050505050565b6000815160c0845261342a60c0850182613137565b60208481015186830387830152805180845290820193509091600091908301905b8083101561346b578451825293830193600192909201919083019061344b565b5060408601519350868103604088015261348581856133c0565b9350505050606083015160608501526080830151608085015260a083015160a08501528091505092915050565b60008151600481106134c6576134c66130e7565b808452506020820151606060208501526134e3606085018261308f565b9050604083015184820360408601526131d7828261308f565b60018060a01b03851681528360208201526080604082015260006135236080830185613415565b828103606084015261353581856134b2565b979650505050505050565b805182526020808201518184015260408201516040840152606082015160608401526080820151608084015260a082015160a0840160005b600481101561359557825182529183019190830190600101613578565b5050505060c001516101209190910152565b61014081016102cd8284613540565b60006101806135c58387613540565b806101408401526135d881840186613137565b90508281036101608401526135ed8185613137565b9695505050505050565b60006020828403121561360957600080fd5b8151600581106118d257600080fd5b634e487b7160e01b600052601160045260246000fd5b60006001820161364057613640613618565b5060010190565b6001600160a01b038516815260806020820181905260009061366b908301866131e0565b828103604084015261367d81866132e2565b90508281036060840152613535818561308f565b7f416363657373436f6e74726f6c3a206163636f756e74200000000000000000008152600083516136c981601785016020880161306b565b7001034b99036b4b9b9b4b733903937b6329607d1b60179184019182015283516136fa81602884016020880161306b565b01602801949350505050565b80820281158282048414176102cd576102cd613618565b808201808211156102cd576102cd613618565b60008161373f5761373f613618565b506000190190565b818103818111156102cd576102cd613618565b634e487b7160e01b600052603160045260246000fdfe4143544956455f474f5645524e414e43455f53455454494e47535f50524f504f53414c5f455849535453a264697066735822122074def55bd8165ddff38ba44ae519b837c427ee0f08c91881953b1edf9845107164736f6c63430008110033",
  "devdoc": {
    "details": "It is a supporting part of the protocol that takes user input arguments and constructs OZ Governor-compatible structures describing the transactions to be executed upon successful voting on the proposal. It does not store user input, but only passes it on in a transformed format to the specified pool contract.",
    "kind": "dev",
    "methods": {
      "constructor": {
        "custom:oz-upgrades-unsafe-allow": "constructor",
        "details": "This contract uses OpenZeppelin upgrades and has no need for a constructor function. The constructor is replaced with an initializer function. This method disables the initializer feature of the OpenZeppelin upgrades plugin, preventing the initializer methods from being misused."
      },
      "getRoleAdmin(bytes32)": {
        "details": "Returns the admin role that controls `role`. See {grantRole} and {revokeRole}. To change a role's admin, use {_setRoleAdmin}."
      },
      "getRoleMember(bytes32,uint256)": {
        "details": "Returns one of the accounts that have `role`. `index` must be a value between 0 and {getRoleMemberCount}, non-inclusive. Role bearers are not sorted in any particular way, and their ordering may change at any point. WARNING: When using {getRoleMember} and {getRoleMemberCount}, make sure you perform all queries on the same block. See the following https://forum.openzeppelin.com/t/iterating-over-elements-on-enumerableset-in-openzeppelin-contracts/2296[forum post] for more information."
      },
      "getRoleMemberCount(bytes32)": {
        "details": "Returns the number of accounts that have `role`. Can be used together with {getRoleMember} to enumerate all bearers of a role."
      },
      "grantRole(bytes32,address)": {
        "details": "Grants `role` to `account`. If `account` had not been already granted `role`, emits a {RoleGranted} event. Requirements: - the caller must have ``role``'s admin role. May emit a {RoleGranted} event."
      },
      "hasRole(bytes32,address)": {
        "details": "Returns `true` if `account` has been granted `role`."
      },
      "initialize()": {
        "details": "This method replaces the constructor for upgradeable contracts."
      },
      "proposeCustomTx(address,address[],uint256[],bytes[],string,string)": {
        "details": "This tool can be useful for creating a transaction with arbitrary parameters and putting it to a vote for execution on behalf of the pool.",
        "params": {
          "callDatas": "Raw calldatas.",
          "description": "Proposal description.",
          "metaHash": "Hash value of proposal metadata.",
          "pool": "The address of the pool on behalf of which this proposal will be launched.",
          "targets": "Transfer recipients.",
          "values": "Transfer amounts for payable."
        },
        "returns": {
          "proposalId": "The ID of the created proposal."
        }
      },
      "proposeGovernanceSettings(address,(uint256,uint256,uint256,uint256,uint256,uint256[4],uint256),string,string)": {
        "details": "The main parameter should be a structure of type NewGovernanceSettings, which includes the Governance Threshold, Decision Threshold, Proposal Threshold, and execution delay lists for proposals.",
        "params": {
          "description": "Proposal description.",
          "metaHash": "Hash value of proposal metadata.",
          "pool": "The address of the pool on behalf of which this proposal will be launched and for which the Governance settings will be changed.",
          "settings": "New governance settings."
        },
        "returns": {
          "proposalId": "The ID of the created proposal."
        }
      },
      "proposeGovernanceSettingsWithRoles(address,(uint256,uint256,uint256,uint256,uint256,uint256[4],uint256),address[],address[],string,string)": {
        "details": "The main parameter should be a structure of type NewGovernanceSettings, which includes the Governance Threshold, Decision Threshold, Proposal Threshold, execution delay lists for proposals, as well as two sets of addresses: one for the new list of secretaries and another for the new list of executors.",
        "params": {
          "description": "Proposal description.",
          "executor": "Add a new address to the pool's executor list.",
          "metaHash": "Hash value of the proposal metadata.",
          "pool": "The address of the pool on behalf of which this proposal will be launched and for which the Governance settings will be changed.",
          "secretary": "Add a new address to the pool's secretary list.",
          "settings": "New governance settings."
        },
        "returns": {
          "proposalId": "The ID of the created proposal."
        }
      },
      "proposeTGE(address,address,(uint256,uint256,uint256,uint256,uint256,uint256,(uint256,uint256,uint256,uint256,uint256,uint256,uint256,address[]),address[],address,uint256,uint256),(uint8,string,string,string,uint256,uint8),string,string,string)": {
        "details": "Proposal to launch a new token generation event (TGE). It can only be created if the maximum supply threshold value for an existing token has not been reached or if a new token is being created, in which case a new token contract will be deployed simultaneously with the TGE contract.",
        "params": {
          "description": "Proposal description.",
          "metaHash": "Hash value of proposal metadata.",
          "metadataURI": "TGE metadata URI.",
          "pool": "The address of the pool on behalf of which this proposal will be launched and for which the TGE event will be launched.",
          "tgeInfo": "TGE parameters.",
          "tokenInfo": "Token parameters."
        },
        "returns": {
          "proposalId": "The ID of the created proposal."
        }
      },
      "proposeTGEERC1155(address,address,uint256,string,(uint256,uint256,uint256,uint256,uint256,uint256,(uint256,uint256,uint256,uint256,uint256,uint256,uint256,address[]),address[],address,uint256,uint256),(uint8,string,string,string,uint256,uint8),string,string,string)": {
        "details": "Proposal to launch a new token generation event (TGE) for ERC1155 preference tokens.",
        "params": {
          "description": "Proposal description.",
          "metaHash": "Hash value of proposal metadata.",
          "metadataURI": "TGE metadata URI.",
          "tgeInfo": "TGE parameters.",
          "tokenId": "Token ID.",
          "tokenIdMetadataURI": "Token ID metadata URI.",
          "tokenInfo": "Token parameters."
        },
        "returns": {
          "proposalId": "The ID of the created proposal."
        }
      },
      "proposeTransfer(address,address,address[],uint256[],string,string)": {
        "details": "This function prepares a proposal from the list of recipients and corresponding amounts and submits it to the pool for a vote to transfer those amounts to the specified recipients. The asset type is specified as a separate argument, which is the same for all recipients.",
        "params": {
          "amounts": "Transfer amounts.",
          "asset": "Asset to transfer (address(0) for ETH transfers).",
          "description": "Proposal description.",
          "metaHash": "Hash value of proposal metadata.",
          "pool": "The address of the pool on behalf of which this proposal will be launched and from whose balance the values will be transferred.",
          "recipients": "Transfer recipients."
        },
        "returns": {
          "proposalId": "The ID of the created proposal."
        }
      },
      "renounceRole(bytes32,address)": {
        "details": "Revokes `role` from the calling account. Roles are often managed via {grantRole} and {revokeRole}: this function's purpose is to provide a mechanism for accounts to lose their privileges if they are compromised (such as when a trusted device is misplaced). If the calling account had been revoked `role`, emits a {RoleRevoked} event. Requirements: - the caller must be `account`. May emit a {RoleRevoked} event."
      },
      "revokeRole(bytes32,address)": {
        "details": "Revokes `role` from `account`. If `account` had been granted `role`, emits a {RoleRevoked} event. Requirements: - the caller must have ``role``'s admin role. May emit a {RoleRevoked} event."
      },
      "setService(address)": {
        "details": "Stores a new address of the Service contract in the memory of this contract.",
        "params": {
          "service_": "The new address of the Service contract."
        }
      },
      "supportsInterface(bytes4)": {
        "details": "See {IERC165-supportsInterface}."
      }
    },
    "stateVariables": {
      "service": {
        "details": "The address of the Service contract."
      }
    },
    "title": "Custom Proposal Contract",
    "version": 1
  },
  "userdoc": {
    "kind": "user",
    "methods": {
      "constructor": {
        "notice": "Contract constructor."
      },
      "initialize()": {
        "notice": "Contract initializer"
      },
      "proposeCustomTx(address,address[],uint256[],bytes[],string,string)": {
        "notice": "Creating a custom proposal."
      },
      "proposeGovernanceSettings(address,(uint256,uint256,uint256,uint256,uint256,uint256[4],uint256),string,string)": {
        "notice": "Proposal to replace Governance settings. One of the two methods to change voting parameters."
      },
      "proposeGovernanceSettingsWithRoles(address,(uint256,uint256,uint256,uint256,uint256,uint256[4],uint256),address[],address[],string,string)": {
        "notice": "Proposal to replace Governance settings and change the pool's list of secretaries and executors. One of the two methods to change voting parameters. The only way for a DAO to modify the lists of secretaries and executors."
      },
      "proposeTGE(address,address,(uint256,uint256,uint256,uint256,uint256,uint256,(uint256,uint256,uint256,uint256,uint256,uint256,uint256,address[]),address[],address,uint256,uint256),(uint8,string,string,string,uint256,uint8),string,string,string)": {
        "notice": "This proposal is launched when there is a need to issue additional tokens (both Governance and Preference) for an existing pool. In other words, the issuance of tokens for any DAO is possible only through the creation of such a proposal."
      },
      "proposeTGEERC1155(address,address,uint256,string,(uint256,uint256,uint256,uint256,uint256,uint256,(uint256,uint256,uint256,uint256,uint256,uint256,uint256,address[]),address[],address,uint256,uint256),(uint8,string,string,string,uint256,uint8),string,string,string)": {
        "notice": "This proposal is launched when there is a need to issue ERC1155 Preference tokens, additional collections, and token units in existing collections for an existing ERC1155 token. In other words, the issuance of tokens of this format for any DAO is possible only through the creation of such a proposal."
      },
      "proposeTransfer(address,address,address[],uint256[],string,string)": {
        "notice": "This proposal is the only way to withdraw funds from the pool account."
      }
    },
    "notice": "This contract is designed for constructing proposals from user input. The methods generate calldata from the input arguments and pass it to the specified pool as a proposal.",
    "version": 1
  },
  "storageLayout": {
    "storage": [
      {
        "astId": 1184,
        "contract": "contracts/CustomProposal.sol:CustomProposal",
        "label": "_initialized",
        "offset": 0,
        "slot": "0",
        "type": "t_uint8"
      },
      {
        "astId": 1187,
        "contract": "contracts/CustomProposal.sol:CustomProposal",
        "label": "_initializing",
        "offset": 1,
        "slot": "0",
        "type": "t_bool"
      },
      {
        "astId": 5634,
        "contract": "contracts/CustomProposal.sol:CustomProposal",
        "label": "__gap",
        "offset": 0,
        "slot": "1",
        "type": "t_array(t_uint256)50_storage"
      },
      {
        "astId": 6579,
        "contract": "contracts/CustomProposal.sol:CustomProposal",
        "label": "__gap",
        "offset": 0,
        "slot": "51",
        "type": "t_array(t_uint256)50_storage"
      },
      {
        "astId": 184,
        "contract": "contracts/CustomProposal.sol:CustomProposal",
        "label": "_roles",
        "offset": 0,
        "slot": "101",
        "type": "t_mapping(t_bytes32,t_struct(RoleData)179_storage)"
      },
      {
        "astId": 479,
        "contract": "contracts/CustomProposal.sol:CustomProposal",
        "label": "__gap",
        "offset": 0,
        "slot": "102",
        "type": "t_array(t_uint256)49_storage"
      },
      {
        "astId": 33,
        "contract": "contracts/CustomProposal.sol:CustomProposal",
        "label": "_roleMembers",
        "offset": 0,
        "slot": "151",
        "type": "t_mapping(t_bytes32,t_struct(AddressSet)9324_storage)"
      },
      {
        "astId": 143,
        "contract": "contracts/CustomProposal.sol:CustomProposal",
        "label": "__gap",
        "offset": 0,
        "slot": "152",
        "type": "t_array(t_uint256)49_storage"
      },
      {
        "astId": 10483,
        "contract": "contracts/CustomProposal.sol:CustomProposal",
        "label": "service",
        "offset": 0,
        "slot": "201",
        "type": "t_contract(IService)22074"
      }
    ],
    "types": {
      "t_address": {
        "encoding": "inplace",
        "label": "address",
        "numberOfBytes": "20"
      },
      "t_array(t_bytes32)dyn_storage": {
        "base": "t_bytes32",
        "encoding": "dynamic_array",
        "label": "bytes32[]",
        "numberOfBytes": "32"
      },
      "t_array(t_uint256)49_storage": {
        "base": "t_uint256",
        "encoding": "inplace",
        "label": "uint256[49]",
        "numberOfBytes": "1568"
      },
      "t_array(t_uint256)50_storage": {
        "base": "t_uint256",
        "encoding": "inplace",
        "label": "uint256[50]",
        "numberOfBytes": "1600"
      },
      "t_bool": {
        "encoding": "inplace",
        "label": "bool",
        "numberOfBytes": "1"
      },
      "t_bytes32": {
        "encoding": "inplace",
        "label": "bytes32",
        "numberOfBytes": "32"
      },
      "t_contract(IService)22074": {
        "encoding": "inplace",
        "label": "contract IService",
        "numberOfBytes": "20"
      },
      "t_mapping(t_address,t_bool)": {
        "encoding": "mapping",
        "key": "t_address",
        "label": "mapping(address => bool)",
        "numberOfBytes": "32",
        "value": "t_bool"
      },
      "t_mapping(t_bytes32,t_struct(AddressSet)9324_storage)": {
        "encoding": "mapping",
        "key": "t_bytes32",
        "label": "mapping(bytes32 => struct EnumerableSetUpgradeable.AddressSet)",
        "numberOfBytes": "32",
        "value": "t_struct(AddressSet)9324_storage"
      },
      "t_mapping(t_bytes32,t_struct(RoleData)179_storage)": {
        "encoding": "mapping",
        "key": "t_bytes32",
        "label": "mapping(bytes32 => struct AccessControlUpgradeable.RoleData)",
        "numberOfBytes": "32",
        "value": "t_struct(RoleData)179_storage"
      },
      "t_mapping(t_bytes32,t_uint256)": {
        "encoding": "mapping",
        "key": "t_bytes32",
        "label": "mapping(bytes32 => uint256)",
        "numberOfBytes": "32",
        "value": "t_uint256"
      },
      "t_struct(AddressSet)9324_storage": {
        "encoding": "inplace",
        "label": "struct EnumerableSetUpgradeable.AddressSet",
        "members": [
          {
            "astId": 9323,
            "contract": "contracts/CustomProposal.sol:CustomProposal",
            "label": "_inner",
            "offset": 0,
            "slot": "0",
            "type": "t_struct(Set)9009_storage"
          }
        ],
        "numberOfBytes": "64"
      },
      "t_struct(RoleData)179_storage": {
        "encoding": "inplace",
        "label": "struct AccessControlUpgradeable.RoleData",
        "members": [
          {
            "astId": 176,
            "contract": "contracts/CustomProposal.sol:CustomProposal",
            "label": "members",
            "offset": 0,
            "slot": "0",
            "type": "t_mapping(t_address,t_bool)"
          },
          {
            "astId": 178,
            "contract": "contracts/CustomProposal.sol:CustomProposal",
            "label": "adminRole",
            "offset": 0,
            "slot": "1",
            "type": "t_bytes32"
          }
        ],
        "numberOfBytes": "64"
      },
      "t_struct(Set)9009_storage": {
        "encoding": "inplace",
        "label": "struct EnumerableSetUpgradeable.Set",
        "members": [
          {
            "astId": 9004,
            "contract": "contracts/CustomProposal.sol:CustomProposal",
            "label": "_values",
            "offset": 0,
            "slot": "0",
            "type": "t_array(t_bytes32)dyn_storage"
          },
          {
            "astId": 9008,
            "contract": "contracts/CustomProposal.sol:CustomProposal",
            "label": "_indexes",
            "offset": 0,
            "slot": "1",
            "type": "t_mapping(t_bytes32,t_uint256)"
          }
        ],
        "numberOfBytes": "64"
      },
      "t_uint256": {
        "encoding": "inplace",
        "label": "uint256",
        "numberOfBytes": "32"
      },
      "t_uint8": {
        "encoding": "inplace",
        "label": "uint8",
        "numberOfBytes": "1"
      }
    }
  }
}