{
  "address": "0x1B1a71D0dD6264f1137bF2AD66871321923997B3",
  "abi": [
    {
      "inputs": [],
      "stateMutability": "nonpayable",
      "type": "constructor"
    },
    {
      "anonymous": false,
      "inputs": [
        {
          "indexed": false,
          "internalType": "uint8",
          "name": "version",
          "type": "uint8"
        }
      ],
      "name": "Initialized",
      "type": "event"
    },
    {
      "anonymous": false,
      "inputs": [
        {
          "indexed": true,
          "internalType": "bytes32",
          "name": "role",
          "type": "bytes32"
        },
        {
          "indexed": true,
          "internalType": "bytes32",
          "name": "previousAdminRole",
          "type": "bytes32"
        },
        {
          "indexed": true,
          "internalType": "bytes32",
          "name": "newAdminRole",
          "type": "bytes32"
        }
      ],
      "name": "RoleAdminChanged",
      "type": "event"
    },
    {
      "anonymous": false,
      "inputs": [
        {
          "indexed": true,
          "internalType": "bytes32",
          "name": "role",
          "type": "bytes32"
        },
        {
          "indexed": true,
          "internalType": "address",
          "name": "account",
          "type": "address"
        },
        {
          "indexed": true,
          "internalType": "address",
          "name": "sender",
          "type": "address"
        }
      ],
      "name": "RoleGranted",
      "type": "event"
    },
    {
      "anonymous": false,
      "inputs": [
        {
          "indexed": true,
          "internalType": "bytes32",
          "name": "role",
          "type": "bytes32"
        },
        {
          "indexed": true,
          "internalType": "address",
          "name": "account",
          "type": "address"
        },
        {
          "indexed": true,
          "internalType": "address",
          "name": "sender",
          "type": "address"
        }
      ],
      "name": "RoleRevoked",
      "type": "event"
    },
    {
      "inputs": [],
      "name": "DEFAULT_ADMIN_ROLE",
      "outputs": [
        {
          "internalType": "bytes32",
          "name": "",
          "type": "bytes32"
        }
      ],
      "stateMutability": "view",
      "type": "function"
    },
    {
      "inputs": [
        {
          "internalType": "bytes32",
          "name": "role",
          "type": "bytes32"
        }
      ],
      "name": "getRoleAdmin",
      "outputs": [
        {
          "internalType": "bytes32",
          "name": "",
          "type": "bytes32"
        }
      ],
      "stateMutability": "view",
      "type": "function"
    },
    {
      "inputs": [
        {
          "internalType": "bytes32",
          "name": "role",
          "type": "bytes32"
        },
        {
          "internalType": "uint256",
          "name": "index",
          "type": "uint256"
        }
      ],
      "name": "getRoleMember",
      "outputs": [
        {
          "internalType": "address",
          "name": "",
          "type": "address"
        }
      ],
      "stateMutability": "view",
      "type": "function"
    },
    {
      "inputs": [
        {
          "internalType": "bytes32",
          "name": "role",
          "type": "bytes32"
        }
      ],
      "name": "getRoleMemberCount",
      "outputs": [
        {
          "internalType": "uint256",
          "name": "",
          "type": "uint256"
        }
      ],
      "stateMutability": "view",
      "type": "function"
    },
    {
      "inputs": [
        {
          "internalType": "bytes32",
          "name": "role",
          "type": "bytes32"
        },
        {
          "internalType": "address",
          "name": "account",
          "type": "address"
        }
      ],
      "name": "grantRole",
      "outputs": [],
      "stateMutability": "nonpayable",
      "type": "function"
    },
    {
      "inputs": [
        {
          "internalType": "bytes32",
          "name": "role",
          "type": "bytes32"
        },
        {
          "internalType": "address",
          "name": "account",
          "type": "address"
        }
      ],
      "name": "hasRole",
      "outputs": [
        {
          "internalType": "bool",
          "name": "",
          "type": "bool"
        }
      ],
      "stateMutability": "view",
      "type": "function"
    },
    {
      "inputs": [],
      "name": "initialize",
      "outputs": [],
      "stateMutability": "nonpayable",
      "type": "function"
    },
    {
      "inputs": [
        {
          "internalType": "address",
          "name": "pool",
          "type": "address"
        },
        {
          "internalType": "address[]",
          "name": "targets",
          "type": "address[]"
        },
        {
          "internalType": "uint256[]",
          "name": "values",
          "type": "uint256[]"
        },
        {
          "internalType": "bytes[]",
          "name": "callDatas",
          "type": "bytes[]"
        },
        {
          "internalType": "string",
          "name": "description",
          "type": "string"
        },
        {
          "internalType": "string",
          "name": "metaHash",
          "type": "string"
        }
      ],
      "name": "proposeCustomTx",
      "outputs": [
        {
          "internalType": "uint256",
          "name": "proposalId",
          "type": "uint256"
        }
      ],
      "stateMutability": "nonpayable",
      "type": "function"
    },
    {
      "inputs": [
        {
          "internalType": "address",
          "name": "pool",
          "type": "address"
        },
        {
          "components": [
            {
              "internalType": "uint256",
              "name": "proposalThreshold",
              "type": "uint256"
            },
            {
              "internalType": "uint256",
              "name": "quorumThreshold",
              "type": "uint256"
            },
            {
              "internalType": "uint256",
              "name": "decisionThreshold",
              "type": "uint256"
            },
            {
              "internalType": "uint256",
              "name": "votingDuration",
              "type": "uint256"
            },
            {
              "internalType": "uint256",
              "name": "transferValueForDelay",
              "type": "uint256"
            },
            {
              "internalType": "uint256[4]",
              "name": "executionDelays",
              "type": "uint256[4]"
            },
            {
              "internalType": "uint256",
              "name": "votingStartDelay",
              "type": "uint256"
            }
          ],
          "internalType": "struct IGovernanceSettings.NewGovernanceSettings",
          "name": "settings",
          "type": "tuple"
        },
        {
          "internalType": "string",
          "name": "description",
          "type": "string"
        },
        {
          "internalType": "string",
          "name": "metaHash",
          "type": "string"
        }
      ],
      "name": "proposeGovernanceSettings",
      "outputs": [
        {
          "internalType": "uint256",
          "name": "proposalId",
          "type": "uint256"
        }
      ],
      "stateMutability": "nonpayable",
      "type": "function"
    },
    {
      "inputs": [
        {
          "internalType": "address",
          "name": "pool",
          "type": "address"
        },
        {
          "components": [
            {
              "internalType": "uint256",
              "name": "proposalThreshold",
              "type": "uint256"
            },
            {
              "internalType": "uint256",
              "name": "quorumThreshold",
              "type": "uint256"
            },
            {
              "internalType": "uint256",
              "name": "decisionThreshold",
              "type": "uint256"
            },
            {
              "internalType": "uint256",
              "name": "votingDuration",
              "type": "uint256"
            },
            {
              "internalType": "uint256",
              "name": "transferValueForDelay",
              "type": "uint256"
            },
            {
              "internalType": "uint256[4]",
              "name": "executionDelays",
              "type": "uint256[4]"
            },
            {
              "internalType": "uint256",
              "name": "votingStartDelay",
              "type": "uint256"
            }
          ],
          "internalType": "struct IGovernanceSettings.NewGovernanceSettings",
          "name": "settings",
          "type": "tuple"
        },
        {
          "internalType": "address[]",
          "name": "secretary",
          "type": "address[]"
        },
        {
          "internalType": "address[]",
          "name": "executor",
          "type": "address[]"
        },
        {
          "internalType": "string",
          "name": "description",
          "type": "string"
        },
        {
          "internalType": "string",
          "name": "metaHash",
          "type": "string"
        }
      ],
      "name": "proposeGovernanceSettingsWithRoles",
      "outputs": [
        {
          "internalType": "uint256",
          "name": "proposalId",
          "type": "uint256"
        }
      ],
      "stateMutability": "nonpayable",
      "type": "function"
    },
    {
      "inputs": [
        {
          "internalType": "address",
          "name": "pool",
          "type": "address"
        },
        {
          "internalType": "address",
          "name": "token",
          "type": "address"
        },
        {
          "components": [
            {
              "internalType": "uint256",
              "name": "price",
              "type": "uint256"
            },
            {
              "internalType": "uint256",
              "name": "hardcap",
              "type": "uint256"
            },
            {
              "internalType": "uint256",
              "name": "softcap",
              "type": "uint256"
            },
            {
              "internalType": "uint256",
              "name": "minPurchase",
              "type": "uint256"
            },
            {
              "internalType": "uint256",
              "name": "maxPurchase",
              "type": "uint256"
            },
            {
              "internalType": "uint256",
              "name": "duration",
              "type": "uint256"
            },
            {
              "components": [
                {
                  "internalType": "uint256",
                  "name": "vestedShare",
                  "type": "uint256"
                },
                {
                  "internalType": "uint256",
                  "name": "cliff",
                  "type": "uint256"
                },
                {
                  "internalType": "uint256",
                  "name": "cliffShare",
                  "type": "uint256"
                },
                {
                  "internalType": "uint256",
                  "name": "spans",
                  "type": "uint256"
                },
                {
                  "internalType": "uint256",
                  "name": "spanDuration",
                  "type": "uint256"
                },
                {
                  "internalType": "uint256",
                  "name": "spanShare",
                  "type": "uint256"
                },
                {
                  "internalType": "uint256",
                  "name": "claimTVL",
                  "type": "uint256"
                },
                {
                  "internalType": "address[]",
                  "name": "resolvers",
                  "type": "address[]"
                }
              ],
              "internalType": "struct IVesting.VestingParams",
              "name": "vestingParams",
              "type": "tuple"
            },
            {
              "internalType": "address[]",
              "name": "userWhitelist",
              "type": "address[]"
            },
            {
              "internalType": "address",
              "name": "unitOfAccount",
              "type": "address"
            },
            {
              "internalType": "uint256",
              "name": "lockupDuration",
              "type": "uint256"
            },
            {
              "internalType": "uint256",
              "name": "lockupTVL",
              "type": "uint256"
            }
          ],
          "internalType": "struct ITGE.TGEInfo",
          "name": "tgeInfo",
          "type": "tuple"
        },
        {
          "components": [
            {
              "internalType": "enum IToken.TokenType",
              "name": "tokenType",
              "type": "uint8"
            },
            {
              "internalType": "string",
              "name": "name",
              "type": "string"
            },
            {
              "internalType": "string",
              "name": "symbol",
              "type": "string"
            },
            {
              "internalType": "string",
              "name": "description",
              "type": "string"
            },
            {
              "internalType": "uint256",
              "name": "cap",
              "type": "uint256"
            },
            {
              "internalType": "uint8",
              "name": "decimals",
              "type": "uint8"
            }
          ],
          "internalType": "struct IToken.TokenInfo",
          "name": "tokenInfo",
          "type": "tuple"
        },
        {
          "internalType": "string",
          "name": "metadataURI",
          "type": "string"
        },
        {
          "internalType": "string",
          "name": "description",
          "type": "string"
        },
        {
          "internalType": "string",
          "name": "metaHash",
          "type": "string"
        }
      ],
      "name": "proposeTGE",
      "outputs": [
        {
          "internalType": "uint256",
          "name": "proposalId",
          "type": "uint256"
        }
      ],
      "stateMutability": "nonpayable",
      "type": "function"
    },
    {
      "inputs": [
        {
          "internalType": "address",
          "name": "pool",
          "type": "address"
        },
        {
          "internalType": "address",
          "name": "token",
          "type": "address"
        },
        {
          "internalType": "uint256",
          "name": "tokenId",
          "type": "uint256"
        },
        {
          "internalType": "string",
          "name": "tokenIdMetadataURI",
          "type": "string"
        },
        {
          "components": [
            {
              "internalType": "uint256",
              "name": "price",
              "type": "uint256"
            },
            {
              "internalType": "uint256",
              "name": "hardcap",
              "type": "uint256"
            },
            {
              "internalType": "uint256",
              "name": "softcap",
              "type": "uint256"
            },
            {
              "internalType": "uint256",
              "name": "minPurchase",
              "type": "uint256"
            },
            {
              "internalType": "uint256",
              "name": "maxPurchase",
              "type": "uint256"
            },
            {
              "internalType": "uint256",
              "name": "duration",
              "type": "uint256"
            },
            {
              "components": [
                {
                  "internalType": "uint256",
                  "name": "vestedShare",
                  "type": "uint256"
                },
                {
                  "internalType": "uint256",
                  "name": "cliff",
                  "type": "uint256"
                },
                {
                  "internalType": "uint256",
                  "name": "cliffShare",
                  "type": "uint256"
                },
                {
                  "internalType": "uint256",
                  "name": "spans",
                  "type": "uint256"
                },
                {
                  "internalType": "uint256",
                  "name": "spanDuration",
                  "type": "uint256"
                },
                {
                  "internalType": "uint256",
                  "name": "spanShare",
                  "type": "uint256"
                },
                {
                  "internalType": "uint256",
                  "name": "claimTVL",
                  "type": "uint256"
                },
                {
                  "internalType": "address[]",
                  "name": "resolvers",
                  "type": "address[]"
                }
              ],
              "internalType": "struct IVesting.VestingParams",
              "name": "vestingParams",
              "type": "tuple"
            },
            {
              "internalType": "address[]",
              "name": "userWhitelist",
              "type": "address[]"
            },
            {
              "internalType": "address",
              "name": "unitOfAccount",
              "type": "address"
            },
            {
              "internalType": "uint256",
              "name": "lockupDuration",
              "type": "uint256"
            },
            {
              "internalType": "uint256",
              "name": "lockupTVL",
              "type": "uint256"
            }
          ],
          "internalType": "struct ITGE.TGEInfo",
          "name": "tgeInfo",
          "type": "tuple"
        },
        {
          "components": [
            {
              "internalType": "enum IToken.TokenType",
              "name": "tokenType",
              "type": "uint8"
            },
            {
              "internalType": "string",
              "name": "name",
              "type": "string"
            },
            {
              "internalType": "string",
              "name": "symbol",
              "type": "string"
            },
            {
              "internalType": "string",
              "name": "description",
              "type": "string"
            },
            {
              "internalType": "uint256",
              "name": "cap",
              "type": "uint256"
            },
            {
              "internalType": "uint8",
              "name": "decimals",
              "type": "uint8"
            }
          ],
          "internalType": "struct IToken.TokenInfo",
          "name": "tokenInfo",
          "type": "tuple"
        },
        {
          "internalType": "string",
          "name": "metadataURI",
          "type": "string"
        },
        {
          "internalType": "string",
          "name": "description",
          "type": "string"
        },
        {
          "internalType": "string",
          "name": "metaHash",
          "type": "string"
        }
      ],
      "name": "proposeTGEERC1155",
      "outputs": [
        {
          "internalType": "uint256",
          "name": "proposalId",
          "type": "uint256"
        }
      ],
      "stateMutability": "nonpayable",
      "type": "function"
    },
    {
      "inputs": [
        {
          "internalType": "address",
          "name": "pool",
          "type": "address"
        },
        {
          "internalType": "address",
          "name": "asset",
          "type": "address"
        },
        {
          "internalType": "address[]",
          "name": "recipients",
          "type": "address[]"
        },
        {
          "internalType": "uint256[]",
          "name": "amounts",
          "type": "uint256[]"
        },
        {
          "internalType": "string",
          "name": "description",
          "type": "string"
        },
        {
          "internalType": "string",
          "name": "metaHash",
          "type": "string"
        }
      ],
      "name": "proposeTransfer",
      "outputs": [
        {
          "internalType": "uint256",
          "name": "proposalId",
          "type": "uint256"
        }
      ],
      "stateMutability": "nonpayable",
      "type": "function"
    },
    {
      "inputs": [
        {
          "internalType": "bytes32",
          "name": "role",
          "type": "bytes32"
        },
        {
          "internalType": "address",
          "name": "account",
          "type": "address"
        }
      ],
      "name": "renounceRole",
      "outputs": [],
      "stateMutability": "nonpayable",
      "type": "function"
    },
    {
      "inputs": [
        {
          "internalType": "bytes32",
          "name": "role",
          "type": "bytes32"
        },
        {
          "internalType": "address",
          "name": "account",
          "type": "address"
        }
      ],
      "name": "revokeRole",
      "outputs": [],
      "stateMutability": "nonpayable",
      "type": "function"
    },
    {
      "inputs": [],
      "name": "service",
      "outputs": [
        {
          "internalType": "contract IService",
          "name": "",
          "type": "address"
        }
      ],
      "stateMutability": "view",
      "type": "function"
    },
    {
      "inputs": [
        {
          "internalType": "address",
          "name": "service_",
          "type": "address"
        }
      ],
      "name": "setService",
      "outputs": [],
      "stateMutability": "nonpayable",
      "type": "function"
    },
    {
      "inputs": [
        {
          "internalType": "bytes4",
          "name": "interfaceId",
          "type": "bytes4"
        }
      ],
      "name": "supportsInterface",
      "outputs": [
        {
          "internalType": "bool",
          "name": "",
          "type": "bool"
        }
      ],
      "stateMutability": "view",
      "type": "function"
    }
  ],
  "transactionHash": "0xd666bd4c0b9ee0f1174bcd248221d1a5a0e87fd80c52409ad6bf3fb45f0077f4",
  "args": [],
  "numDeployments": 1,
  "solcInputHash": "67fc85ef621887c5a1d0a259d5aa2aa7",
  "bytecode": "0x60806040523480156200001157600080fd5b506200001c62000022565b620000e4565b600054610100900460ff16156200008f5760405162461bcd60e51b815260206004820152602760248201527f496e697469616c697a61626c653a20636f6e747261637420697320696e697469604482015266616c697a696e6760c81b606482015260840160405180910390fd5b60005460ff9081161015620000e2576000805460ff191660ff9081179091556040519081527f7f26b83ff96e1f2b6a682f133852f6798a09c465da95921460cefb38474024989060200160405180910390a15b565b6135ef80620000f46000396000f3fe608060405234801561001057600080fd5b50600436106101165760003560e01c80639010d07c116100a2578063b9222f6d11610071578063b9222f6d14610249578063bf8bdac11461025c578063ca15c8731461026f578063d547741f14610282578063d598d4c91461029557600080fd5b80639010d07c146101f057806391d148541461021b578063a217fddf1461022e578063a7eecd9a1461023657600080fd5b806336568abe116100e957806336568abe1461019c57806338a5947e146101af5780634c70d35e146101c25780637a1de7b8146101d55780638129fc1c146101e857600080fd5b806301ffc9a71461011b57806304dc7c0114610143578063248a9ca3146101645780632f2ff15d14610187575b600080fd5b61012e610129366004612324565b6102a8565b60405190151581526020015b60405180910390f35b6101566101513660046127bb565b6102d3565b60405190815260200161013a565b6101566101723660046128dc565b60009081526065602052604090206001015490565b61019a6101953660046128f5565b610811565b005b61019a6101aa3660046128f5565b61083b565b6101566101bd3660046129cc565b6108b9565b6101566101d0366004612b8d565b610be1565b6101566101e3366004612c53565b610fcb565b61019a6115ee565b6102036101fe366004612d45565b611702565b6040516001600160a01b03909116815260200161013a565b61012e6102293660046128f5565b611721565b610156600081565b610156610244366004612d67565b61174c565b610156610257366004612df1565b611a1e565b61019a61026a366004612e6b565b611d98565b61015661027d3660046128dc565b611dc6565b61019a6102903660046128f5565b611ddd565b60c954610203906001600160a01b031681565b60006001600160e01b03198216635a05180f60e01b14806102cd57506102cd82611e02565b92915050565b6000806001600160a01b038a161580610351575060405163599fbc6560e11b81526001600160a01b038b811660048301528c169063b33f78ca90602401602060405180830381865afa15801561032d573d6000803e3d6000fd5b505050506040513d601f19601f820116820180604052508101906103519190612e88565b6040518060400160405280601381526020017257524f4e475f544f4b454e5f4144445245535360681b815250906103a45760405162461bcd60e51b815260040161039b9190612efa565b60405180910390fd5b506001600160a01b038a16156104ff576040516314c5238f60e01b8152600481018a90526001600160a01b038b16906314c5238f90602401602060405180830381865afa1580156103f9573d6000803e3d6000fd5b505050506040513d601f19601f8201168201806040525081019061041d9190612e88565b156104ff576040516001623549c760e21b03198152600481018a90526001600160a01b038b169063ff2ad8e490602401602060405180830381865afa15801561046a573d6000803e3d6000fd5b505050506040513d601f19601f8201168201806040525081019061048e9190612f0d565b60808701526040516356f9f5e360e11b8152600481018a90526001600160a01b038b169063adf3ebc690602401602060405180830381865afa1580156104d8573d6000803e3d6000fd5b505050506040513d601f19601f820116820180604052508101906104fc9190612f0d565b90505b60c95460808701518751604051632a38b4af60e01b81526001600160a01b0390931692632a38b4af92610539928c928791906004016130a3565b60006040518083038186803b15801561055157600080fd5b505afa158015610565573d6000803e3d6000fd5b5060009250600191506105759050565b60405190808252806020026020018201604052801561059e578160200160208202803683370190505b50905060c960009054906101000a90046001600160a01b03166001600160a01b031663102c5c016040518163ffffffff1660e01b8152600401602060405180830381865afa1580156105f4573d6000803e3d6000fd5b505050506040513d601f19601f8201168201806040525081019061061891906130d1565b8160008151811061062b5761062b6130ee565b6001600160a01b03929092166020928302919091019091015260408051600180825281830190925260009181602001602082028036833701905050905060008160008151811061067d5761067d6130ee565b6020908102919091010152604080516001808252818301909252600091816020015b606081526020019060019003908161069f5750506040519091506324e2af2b60e01b906106da908f908f908f908f908f908f90602401613181565b604051602081830303815290604052906001600160e01b0319166020820180516001600160e01b03838183161783525050505081600081518110610720576107206130ee565b602002602001018190525060008e6001600160a01b031663f7ec6f103360066040518060c001604052808981526020018881526020018781526020016000815260200160008152602001600081525060405180606001604052806002600381111561078d5761078d613079565b81526020018e81526020018d8152506040518563ffffffff1660e01b81526004016107bb949392919061331b565b6020604051808303816000875af11580156107da573d6000803e3d6000fd5b505050506040513d601f19601f820116820180604052508101906107fe9190612f0d565b9f9e505050505050505050505050505050565b60008281526065602052604090206001015461082c81611e37565b6108368383611e41565b505050565b6001600160a01b03811633146108ab5760405162461bcd60e51b815260206004820152602f60248201527f416363657373436f6e74726f6c3a2063616e206f6e6c792072656e6f756e636560448201526e103937b632b9903337b91039b2b63360891b606482015260840161039b565b6108b58282611e63565b5050565b604051633157293f60e01b8152600260048201526000906001600160a01b03881690633157293f90602401602060405180830381865afa158015610901573d6000803e3d6000fd5b505050506040513d601f19601f820116820180604052508101906109259190612e88565b156040518060600160405280602a8152602001613590602a91399061095d5760405162461bcd60e51b815260040161039b9190612efa565b506040516323fb0ead60e21b81526001600160a01b03881690638fec3ab49061098a9089906004016133c6565b60006040518083038186803b1580156109a257600080fd5b505afa1580156109b6573d6000803e3d6000fd5b5060009250600191506109c69050565b6040519080825280602002602001820160405280156109ef578160200160208202803683370190505b5090508781600081518110610a0657610a066130ee565b6001600160a01b039290921660209283029190910190910152604080516001808252818301909252600091816020016020820280368337019050509050600081600081518110610a5857610a586130ee565b6020908102919091010152604080516001808252818301909252600091816020015b6060815260200190600190039081610a7a5750506040519091506396a7244160e01b90610aaf908b908b908b906024016133d5565b604051602081830303815290604052906001600160e01b0319166020820180516001600160e01b03838183161783525050505081600081518110610af557610af56130ee565b602002602001018190525060008a6001600160a01b031663f7ec6f103360026040518060c00160405280898152602001888152602001878152602001600081526020016000815260200160008152506040518060600160405280600380811115610b6157610b61613079565b81526020018d81526020018c8152506040518563ffffffff1660e01b8152600401610b8f949392919061331b565b6020604051808303816000875af1158015610bae573d6000803e3d6000fd5b505050506040513d601f19601f82011682018060405250810190610bd29190612f0d565b9b9a5050505050505050505050565b600086600160c960009054906101000a90046001600160a01b03166001600160a01b0316637b1039996040518163ffffffff1660e01b8152600401602060405180830381865afa158015610c39573d6000803e3d6000fd5b505050506040513d601f19601f82011682018060405250810190610c5d91906130d1565b604051630db9619f60e31b81526001600160a01b0384811660048301529190911690636dcb0cf890602401602060405180830381865afa158015610ca5573d6000803e3d6000fd5b505050506040513d601f19601f82011682018060405250810190610cc99190613416565b6004811115610cda57610cda613079565b14604051806040016040528060088152602001671393d517d413d3d360c21b81525090610d1a5760405162461bcd60e51b815260040161039b9190612efa565b5085518751148015610d2d575084518751145b6040518060400160405280600d81526020016c494e56414c49445f56414c554560981b81525090610d715760405162461bcd60e51b815260040161039b9190612efa565b5060005b8751811015610eea5760c95460408051637b10399960e01b815290516000926001600160a01b031691637b1039999160048083019260209291908290030181865afa158015610dc8573d6000803e3d6000fd5b505050506040513d601f19601f82011682018060405250810190610dec91906130d1565b6001600160a01b0316636dcb0cf88a8481518110610e0c57610e0c6130ee565b60200260200101516040518263ffffffff1660e01b8152600401610e3f91906001600160a01b0391909116815260200190565b602060405180830381865afa158015610e5c573d6000803e3d6000fd5b505050506040513d601f19601f82011682018060405250810190610e809190613416565b6004811115610e9157610e91613079565b146040518060400160405280600e81526020016d1253959053125117d5105491d15560921b81525090610ed75760405162461bcd60e51b815260040161039b9190612efa565b5080610ee28161344d565b915050610d75565b506000886001600160a01b031663f7ec6f103360046040518060c001604052808d81526020018c81526020018b815260200160008152602001600081526020016000815250604051806060016040528060016003811115610f4d57610f4d613079565b81526020018b81526020018a8152506040518563ffffffff1660e01b8152600401610f7b949392919061331b565b6020604051808303816000875af1158015610f9a573d6000803e3d6000fd5b505050506040513d601f19601f82011682018060405250810190610fbe9190612f0d565b9998505050505050505050565b6000806001600160a01b0388161580611049575060405163599fbc6560e11b81526001600160a01b0389811660048301528a169063b33f78ca90602401602060405180830381865afa158015611025573d6000803e3d6000fd5b505050506040513d601f19601f820116820180604052508101906110499190612e88565b6040518060400160405280601381526020017257524f4e475f544f4b454e5f4144445245535360681b815250906110935760405162461bcd60e51b815260040161039b9190612efa565b506001865160028111156110a9576110a9613079565b0361118257876001600160a01b031663355274ea6040518163ffffffff1660e01b8152600401602060405180830381865afa1580156110ec573d6000803e3d6000fd5b505050506040513d601f19601f820116820180604052508101906111109190612f0d565b866080018181525050876001600160a01b031663585fe4d56040518163ffffffff1660e01b8152600401602060405180830381865afa158015611157573d6000803e3d6000fd5b505050506040513d601f19601f8201168201806040525081019061117b9190612f0d565b90506112e2565b60028651600281111561119757611197613079565b036112e2576001600160a01b038816156112e257876001600160a01b031663d04d79b56040518163ffffffff1660e01b8152600401602060405180830381865afa1580156111e9573d6000803e3d6000fd5b505050506040513d601f19601f8201168201806040525081019061120d9190612e88565b156112e257876001600160a01b031663355274ea6040518163ffffffff1660e01b8152600401602060405180830381865afa158015611250573d6000803e3d6000fd5b505050506040513d601f19601f820116820180604052508101906112749190612f0d565b866080018181525050876001600160a01b031663585fe4d56040518163ffffffff1660e01b8152600401602060405180830381865afa1580156112bb573d6000803e3d6000fd5b505050506040513d601f19601f820116820180604052508101906112df9190612f0d565b90505b60c95460808701518751604051632a38b4af60e01b81526001600160a01b0390931692632a38b4af9261131c928c928791906004016130a3565b60006040518083038186803b15801561133457600080fd5b505afa158015611348573d6000803e3d6000fd5b5060009250600191506113589050565b604051908082528060200260200182016040528015611381578160200160208202803683370190505b50905060c960009054906101000a90046001600160a01b03166001600160a01b031663102c5c016040518163ffffffff1660e01b8152600401602060405180830381865afa1580156113d7573d6000803e3d6000fd5b505050506040513d601f19601f820116820180604052508101906113fb91906130d1565b8160008151811061140e5761140e6130ee565b6001600160a01b039290921660209283029190910190910152604080516001808252818301909252600091816020016020820280368337019050509050600081600081518110611460576114606130ee565b6020908102919091010152604080516001808252818301909252600091816020015b6060815260200190600190039081611482575050604051909150630fa1820960e31b906114b9908d908d908d908d90602401613466565b604051602081830303815290604052906001600160e01b0319166020820180516001600160e01b038381831617835250505050816000815181106114ff576114ff6130ee565b602002602001018190525060008c6001600160a01b031663f7ec6f103360016040518060c001604052808981526020018881526020018781526020016000815260200160008152602001600081525060405180606001604052806002600381111561156c5761156c613079565b81526020018e81526020018d8152506040518563ffffffff1660e01b815260040161159a949392919061331b565b6020604051808303816000875af11580156115b9573d6000803e3d6000fd5b505050506040513d601f19601f820116820180604052508101906115dd9190612f0d565b9d9c50505050505050505050505050565b600054610100900460ff161580801561160e5750600054600160ff909116105b806116285750303b158015611628575060005460ff166001145b61168b5760405162461bcd60e51b815260206004820152602e60248201527f496e697469616c697a61626c653a20636f6e747261637420697320616c72656160448201526d191e481a5b9a5d1a585b1a5e995960921b606482015260840161039b565b6000805460ff1916600117905580156116ae576000805461ff0019166101001790555b6116b9600033611e41565b80156116ff576000805461ff0019169055604051600181527f7f26b83ff96e1f2b6a682f133852f6798a09c465da95921460cefb38474024989060200160405180910390a15b50565b600082815260976020526040812061171a9083611e85565b9392505050565b60009182526065602090815260408084206001600160a01b0393909316845291905290205460ff1690565b604051633157293f60e01b8152600260048201526000906001600160a01b03861690633157293f90602401602060405180830381865afa158015611794573d6000803e3d6000fd5b505050506040513d601f19601f820116820180604052508101906117b89190612e88565b156040518060600160405280602a8152602001613590602a9139906117f05760405162461bcd60e51b815260040161039b9190612efa565b506040516323fb0ead60e21b81526001600160a01b03861690638fec3ab49061181d9087906004016133c6565b60006040518083038186803b15801561183557600080fd5b505afa158015611849573d6000803e3d6000fd5b5060009250600191506118599050565b604051908082528060200260200182016040528015611882578160200160208202803683370190505b5090508581600081518110611899576118996130ee565b6001600160a01b0392909216602092830291909101909101526040805160018082528183019092526000918160200160208202803683370190505090506000816000815181106118eb576118eb6130ee565b6020908102919091010152604080516001808252818301909252600091816020015b606081526020019060019003908161190d575050604051909150639198c39360e01b9061193e9089906024016133c6565b604051602081830303815290604052906001600160e01b0319166020820180516001600160e01b03838183161783525050505081600081518110611984576119846130ee565b60200260200101819052506000886001600160a01b031663f7ec6f103360026040518060c001604052808981526020018881526020018781526020016000815260200160008152602001600081525060405180606001604052806003808111156119f0576119f0613079565b81526020018d81526020018c8152506040518563ffffffff1660e01b8152600401610f7b949392919061331b565b6000808551118015611a31575083518551145b6040518060400160405280600d81526020016c494e56414c49445f56414c554560981b81525090611a755760405162461bcd60e51b815260040161039b9190612efa565b50600085516001600160401b03811115611a9157611a91612373565b604051908082528060200260200182016040528015611aba578160200160208202803683370190505b509050600086516001600160401b03811115611ad857611ad8612373565b604051908082528060200260200182016040528015611b01578160200160208202803683370190505b509050600087516001600160401b03811115611b1f57611b1f612373565b604051908082528060200260200182016040528015611b5257816020015b6060815260200190600190039081611b3d5790505b50905060005b8851811015611d35576001600160a01b038a16611c2557888181518110611b8157611b816130ee565b6020026020010151848281518110611b9b57611b9b6130ee565b60200260200101906001600160a01b031690816001600160a01b03168152505060405180602001604052806000815250828281518110611bdd57611bdd6130ee565b6020026020010181905250878181518110611bfa57611bfa6130ee565b6020026020010151838281518110611c1457611c146130ee565b602002602001018181525050611d23565b89848281518110611c3857611c386130ee565b60200260200101906001600160a01b031690816001600160a01b03168152505063a9059cbb60e01b898281518110611c7257611c726130ee565b6020026020010151898381518110611c8c57611c8c6130ee565b60209081029190910101516040516001600160a01b0390921660248301526044820152606401604051602081830303815290604052906001600160e01b0319166020820180516001600160e01b038381831617835250505050828281518110611cf757611cf76130ee565b60200260200101819052506000838281518110611d1657611d166130ee565b6020026020010181815250505b80611d2d8161344d565b915050611b58565b5060008a6001600160a01b031663f7ec6f103360006040518060c0016040528089815260200188815260200187815260200160008152602001600081526020016000815250604051806060016040528060016003811115610b6157610b61613079565b6000611da381611e37565b5060c980546001600160a01b0319166001600160a01b0392909216919091179055565b60008181526097602052604081206102cd90611e91565b600082815260656020526040902060010154611df881611e37565b6108368383611e63565b60006001600160e01b03198216637965db0b60e01b14806102cd57506301ffc9a760e01b6001600160e01b03198316146102cd565b6116ff8133611e9b565b611e4b8282611ef4565b60008281526097602052604090206108369082611f7a565b611e6d8282611f8f565b60008281526097602052604090206108369082611ff6565b600061171a838361200b565b60006102cd825490565b611ea58282611721565b6108b557611eb281612035565b611ebd836020612047565b604051602001611ece9291906134b0565b60408051601f198184030181529082905262461bcd60e51b825261039b91600401612efa565b611efe8282611721565b6108b55760008281526065602090815260408083206001600160a01b03851684529091529020805460ff19166001179055611f363390565b6001600160a01b0316816001600160a01b0316837f2f8788117e7eff1d82e926ec794901d17c78024a50270940304540a733656f0d60405160405180910390a45050565b600061171a836001600160a01b0384166121e2565b611f998282611721565b156108b55760008281526065602090815260408083206001600160a01b0385168085529252808320805460ff1916905551339285917ff6391f5c32d9c69d2a47ea670b442974b53935d1edc7fd64eb21e047a839171b9190a45050565b600061171a836001600160a01b038416612231565b6000826000018281548110612022576120226130ee565b9060005260206000200154905092915050565b60606102cd6001600160a01b03831660145b60606000612056836002613525565b61206190600261353c565b6001600160401b0381111561207857612078612373565b6040519080825280601f01601f1916602001820160405280156120a2576020820181803683370190505b509050600360fc1b816000815181106120bd576120bd6130ee565b60200101906001600160f81b031916908160001a905350600f60fb1b816001815181106120ec576120ec6130ee565b60200101906001600160f81b031916908160001a9053506000612110846002613525565b61211b90600161353c565b90505b6001811115612193576f181899199a1a9b1b9c1cb0b131b232b360811b85600f166010811061214f5761214f6130ee565b1a60f81b828281518110612165576121656130ee565b60200101906001600160f81b031916908160001a90535060049490941c9361218c8161354f565b905061211e565b50831561171a5760405162461bcd60e51b815260206004820181905260248201527f537472696e67733a20686578206c656e67746820696e73756666696369656e74604482015260640161039b565b6000818152600183016020526040812054612229575081546001818101845560008481526020808220909301849055845484825282860190935260409020919091556102cd565b5060006102cd565b6000818152600183016020526040812054801561231a576000612255600183613566565b855490915060009061226990600190613566565b90508181146122ce576000866000018281548110612289576122896130ee565b90600052602060002001549050808760000184815481106122ac576122ac6130ee565b6000918252602080832090910192909255918252600188019052604090208390555b85548690806122df576122df613579565b6001900381819060005260206000200160009055905585600101600086815260200190815260200160002060009055600193505050506102cd565b60009150506102cd565b60006020828403121561233657600080fd5b81356001600160e01b03198116811461171a57600080fd5b6001600160a01b03811681146116ff57600080fd5b803561236e8161234e565b919050565b634e487b7160e01b600052604160045260246000fd5b60405161010081016001600160401b03811182821017156123ac576123ac612373565b60405290565b60405161016081016001600160401b03811182821017156123ac576123ac612373565b60405160c081016001600160401b03811182821017156123ac576123ac612373565b60405160e081016001600160401b03811182821017156123ac576123ac612373565b604051608081016001600160401b03811182821017156123ac576123ac612373565b604051601f8201601f191681016001600160401b038111828210171561246357612463612373565b604052919050565b60006001600160401b0383111561248457612484612373565b612497601f8401601f191660200161243b565b90508281528383830111156124ab57600080fd5b828260208301376000602084830101529392505050565b600082601f8301126124d357600080fd5b61171a8383356020850161246b565b60006001600160401b038211156124fb576124fb612373565b5060051b60200190565b600082601f83011261251657600080fd5b8135602061252b612526836124e2565b61243b565b82815260059290921b8401810191818101908684111561254a57600080fd5b8286015b8481101561256e5780356125618161234e565b835291830191830161254e565b509695505050505050565b6000610100828403121561258c57600080fd5b612594612389565b9050813581526020820135602082015260408201356040820152606082013560608201526080820135608082015260a082013560a082015260c082013560c082015260e08201356001600160401b038111156125ef57600080fd5b6125fb84828501612505565b60e08301525092915050565b6000610160828403121561261a57600080fd5b6126226123b2565b9050813581526020820135602082015260408201356040820152606082013560608201526080820135608082015260a082013560a082015260c08201356001600160401b038082111561267457600080fd5b61268085838601612579565b60c084015260e084013591508082111561269957600080fd5b506126a684828501612505565b60e0830152506101006126ba818401612363565b9082015261012082810135908201526101409182013591810191909152919050565b80356003811061236e57600080fd5b803560ff8116811461236e57600080fd5b600060c0828403121561270e57600080fd5b6127166123d5565b9050612721826126dc565b815260208201356001600160401b038082111561273d57600080fd5b612749858386016124c2565b6020840152604084013591508082111561276257600080fd5b61276e858386016124c2565b6040840152606084013591508082111561278757600080fd5b50612794848285016124c2565b606083015250608082013560808201526127b060a083016126eb565b60a082015292915050565b60008060008060008060008060006101208a8c0312156127da57600080fd5b6127e38a612363565b98506127f160208b01612363565b975060408a0135965060608a01356001600160401b038082111561281457600080fd5b6128208d838e016124c2565b975060808c013591508082111561283657600080fd5b6128428d838e01612607565b965060a08c013591508082111561285857600080fd5b6128648d838e016126fc565b955060c08c013591508082111561287a57600080fd5b6128868d838e016124c2565b945060e08c013591508082111561289c57600080fd5b6128a88d838e016124c2565b93506101008c01359150808211156128bf57600080fd5b506128cc8c828d016124c2565b9150509295985092959850929598565b6000602082840312156128ee57600080fd5b5035919050565b6000806040838503121561290857600080fd5b82359150602083013561291a8161234e565b809150509250929050565b6000610140828403121561293857600080fd5b6129406123f7565b905081358152602080830135818301526040830135604083015260608301356060830152608083013560808301528360bf84011261297d57600080fd5b612985612419565b8061012085018681111561299857600080fd5b60a086015b818110156129b4578035845292840192840161299d565b508160a0860152803560c08601525050505092915050565b6000806000806000806101e087890312156129e657600080fd5b6129ef87612363565b95506129fe8860208901612925565b94506101608701356001600160401b0380821115612a1b57600080fd5b612a278a838b01612505565b9550610180890135915080821115612a3e57600080fd5b612a4a8a838b01612505565b94506101a0890135915080821115612a6157600080fd5b612a6d8a838b016124c2565b93506101c0890135915080821115612a8457600080fd5b50612a9189828a016124c2565b9150509295509295509295565b600082601f830112612aaf57600080fd5b81356020612abf612526836124e2565b82815260059290921b84018101918181019086841115612ade57600080fd5b8286015b8481101561256e5780358352918301918301612ae2565b600082601f830112612b0a57600080fd5b81356020612b1a612526836124e2565b82815260059290921b84018101918181019086841115612b3957600080fd5b8286015b8481101561256e5780356001600160401b03811115612b5c5760008081fd5b8701603f81018913612b6e5760008081fd5b612b7f89868301356040840161246b565b845250918301918301612b3d565b60008060008060008060c08789031215612ba657600080fd5b612baf87612363565b955060208701356001600160401b0380821115612bcb57600080fd5b612bd78a838b01612505565b96506040890135915080821115612bed57600080fd5b612bf98a838b01612a9e565b95506060890135915080821115612c0f57600080fd5b612c1b8a838b01612af9565b94506080890135915080821115612c3157600080fd5b612c3d8a838b016124c2565b935060a0890135915080821115612a8457600080fd5b600080600080600080600060e0888a031215612c6e57600080fd5b612c7788612363565b9650612c8560208901612363565b955060408801356001600160401b0380821115612ca157600080fd5b612cad8b838c01612607565b965060608a0135915080821115612cc357600080fd5b612ccf8b838c016126fc565b955060808a0135915080821115612ce557600080fd5b612cf18b838c016124c2565b945060a08a0135915080821115612d0757600080fd5b612d138b838c016124c2565b935060c08a0135915080821115612d2957600080fd5b50612d368a828b016124c2565b91505092959891949750929550565b60008060408385031215612d5857600080fd5b50508035926020909101359150565b6000806000806101a08587031215612d7e57600080fd5b8435612d898161234e565b9350612d988660208701612925565b92506101608501356001600160401b0380821115612db557600080fd5b612dc1888389016124c2565b9350610180870135915080821115612dd857600080fd5b50612de5878288016124c2565b91505092959194509250565b60008060008060008060c08789031215612e0a57600080fd5b612e1387612363565b9550612e2160208801612363565b945060408701356001600160401b0380821115612e3d57600080fd5b612e498a838b01612505565b95506060890135915080821115612e5f57600080fd5b612c1b8a838b01612a9e565b600060208284031215612e7d57600080fd5b813561171a8161234e565b600060208284031215612e9a57600080fd5b8151801515811461171a57600080fd5b60005b83811015612ec5578181015183820152602001612ead565b50506000910152565b60008151808452612ee6816020860160208601612eaa565b601f01601f19169290920160200192915050565b60208152600061171a6020830184612ece565b600060208284031215612f1f57600080fd5b5051919050565b600081518084526020808501945080840160005b83811015612f5f5781516001600160a01b031687529582019590820190600101612f3a565b509495945050505050565b6000610100825184526020830151602085015260408301516040850152606083015160608501526080830151608085015260a083015160a085015260c083015160c085015260e08301518160e0860152612fc682860182612f26565b95945050505050565b6000610160825184526020830151602085015260408301516040850152606083015160608501526080830151608085015260a083015160a085015260c08301518160c086015261302182860182612f6a565b91505060e083015184820360e086015261303b8282612f26565b91505061010080840151613059828701826001600160a01b03169052565b505061012083810151908501526101409283015192909301919091525090565b634e487b7160e01b600052602160045260246000fd5b6003811061309f5761309f613079565b9052565b6080815260006130b66080830187612fcf565b9050846020830152836040830152612fc6606083018461308f565b6000602082840312156130e357600080fd5b815161171a8161234e565b634e487b7160e01b600052603260045260246000fd5b61310f82825161308f565b6000602082015160c0602085015261312a60c0850182612ece565b9050604083015184820360408601526131438282612ece565b9150506060830151848203606086015261315d8282612ece565b9150506080830151608085015260ff60a08401511660a08501528091505092915050565b60018060a01b038716815285602082015260c0604082015260006131a860c0830187612ece565b82810360608401526131ba8187612fcf565b905082810360808401526131ce8186613104565b905082810360a0840152610fbe8185612ece565b6000815180845260208085019450848260051b860182860160005b85811015613227578383038952613215838351612ece565b988501989250908401906001016131fd565b5090979650505050505050565b6000815160c0845261324960c0850182612f26565b60208481015186830387830152805180845290820193509091600091908301905b8083101561328a578451825293830193600192909201919083019061326a565b506040860151935086810360408801526132a481856131e2565b9350505050606083015160608501526080830151608085015260a083015160a08501528091505092915050565b60008151600481106132e5576132e5613079565b808452506020820151606060208501526133026060850182612ece565b905060408301518482036040860152612fc68282612ece565b60018060a01b03851681528360208201526080604082015260006133426080830185613234565b828103606084015261335481856132d1565b979650505050505050565b805182526020808201518184015260408201516040840152606082015160608401526080820151608084015260a082015160a0840160005b60048110156133b457825182529183019190830190600101613397565b5050505060c001516101209190910152565b61014081016102cd828461335f565b60006101806133e4838761335f565b806101408401526133f781840186612f26565b905082810361016084015261340c8185612f26565b9695505050505050565b60006020828403121561342857600080fd5b81516005811061171a57600080fd5b634e487b7160e01b600052601160045260246000fd5b60006001820161345f5761345f613437565b5060010190565b6001600160a01b038516815260806020820181905260009061348a90830186612fcf565b828103604084015261349c8186613104565b905082810360608401526133548185612ece565b7f416363657373436f6e74726f6c3a206163636f756e74200000000000000000008152600083516134e8816017850160208801612eaa565b7001034b99036b4b9b9b4b733903937b6329607d1b6017918401918201528351613519816028840160208801612eaa565b01602801949350505050565b80820281158282048414176102cd576102cd613437565b808201808211156102cd576102cd613437565b60008161355e5761355e613437565b506000190190565b818103818111156102cd576102cd613437565b634e487b7160e01b600052603160045260246000fdfe4143544956455f474f5645524e414e43455f53455454494e47535f50524f504f53414c5f455849535453a264697066735822122059eb540a22ca9eabd77a2e152041a55de3139bb64d88cb2c18cc3da6b521debb64736f6c63430008110033",
  "devdoc": {
    "kind": "dev",
    "methods": {
      "constructor": {
        "custom:oz-upgrades-unsafe-allow": "constructor"
      },
      "getRoleAdmin(bytes32)": {
        "details": "Returns the admin role that controls `role`. See {grantRole} and {revokeRole}. To change a role's admin, use {_setRoleAdmin}."
      },
      "getRoleMember(bytes32,uint256)": {
        "details": "Returns one of the accounts that have `role`. `index` must be a value between 0 and {getRoleMemberCount}, non-inclusive. Role bearers are not sorted in any particular way, and their ordering may change at any point. WARNING: When using {getRoleMember} and {getRoleMemberCount}, make sure you perform all queries on the same block. See the following https://forum.openzeppelin.com/t/iterating-over-elements-on-enumerableset-in-openzeppelin-contracts/2296[forum post] for more information."
      },
      "getRoleMemberCount(bytes32)": {
        "details": "Returns the number of accounts that have `role`. Can be used together with {getRoleMember} to enumerate all bearers of a role."
      },
      "grantRole(bytes32,address)": {
        "details": "Grants `role` to `account`. If `account` had not been already granted `role`, emits a {RoleGranted} event. Requirements: - the caller must have ``role``'s admin role. May emit a {RoleGranted} event."
      },
      "hasRole(bytes32,address)": {
        "details": "Returns `true` if `account` has been granted `role`."
      },
      "initialize()": {
        "details": "Initializer"
      },
      "proposeCustomTx(address,address[],uint256[],bytes[],string,string)": {
        "details": "Propose custom transactions",
        "params": {
          "callDatas": "raw calldatas",
          "description": "Proposal description",
          "metaHash": "Hash value of proposal metadata",
          "targets": "Transfer recipients",
          "values": "Transfer amounts for payable"
        },
        "returns": {
          "proposalId": "Created proposal's ID"
        }
      },
      "proposeGovernanceSettings(address,(uint256,uint256,uint256,uint256,uint256,uint256[4],uint256),string,string)": {
        "params": {
          "description": "Proposal description",
          "metaHash": "Hash value of proposal metadata",
          "settings": "New governance settings"
        },
        "returns": {
          "proposalId": "Created proposal's ID"
        }
      },
      "proposeGovernanceSettingsWithRoles(address,(uint256,uint256,uint256,uint256,uint256,uint256[4],uint256),address[],address[],string,string)": {
        "params": {
          "description": "Proposal description",
          "executor": "add new address to pool Executor list",
          "metaHash": "Hash value of proposal metadata",
          "secretary": "add new address to pool secretary list",
          "settings": "New governance settings"
        },
        "returns": {
          "proposalId": "Created proposal's ID"
        }
      },
      "proposeTGE(address,address,(uint256,uint256,uint256,uint256,uint256,uint256,(uint256,uint256,uint256,uint256,uint256,uint256,uint256,address[]),address[],address,uint256,uint256),(uint8,string,string,string,uint256,uint8),string,string,string)": {
        "details": "Proposal to launch a new token generation event (TGE), can be created only if the maximum supply threshold value for an existing token has not been reached or if a new token is being created, in which case, a new token contract will be deployed simultaneously with the TGE contract.",
        "params": {
          "description": "Proposal description",
          "metaHash": "Hash value of proposal metadata",
          "metadataURI": "TGE metadata URI",
          "tgeInfo": "TGE parameters",
          "tokenInfo": "Token parameters"
        },
        "returns": {
          "proposalId": "Created proposal's ID"
        }
      },
      "proposeTGEERC1155(address,address,uint256,string,(uint256,uint256,uint256,uint256,uint256,uint256,(uint256,uint256,uint256,uint256,uint256,uint256,uint256,address[]),address[],address,uint256,uint256),(uint8,string,string,string,uint256,uint8),string,string,string)": {
        "details": "Proposal to launch a new token generation event (TGE) for ERC1155 preference tokens",
        "params": {
          "description": "Proposal description",
          "metaHash": "Hash value of proposal metadata",
          "metadataURI": "TGE metadata URI",
          "tgeInfo": "TGE parameters",
          "tokenId": "TokenId",
          "tokenIdMetadataURI": "tokenIdMetadataURI",
          "tokenInfo": "Token parameters"
        },
        "returns": {
          "proposalId": "Created proposal's ID"
        }
      },
      "proposeTransfer(address,address,address[],uint256[],string,string)": {
        "details": "Propose transfer of assets",
        "params": {
          "amounts": "Transfer amounts",
          "asset": "Asset to transfer (address(0) for ETH transfers)",
          "description": "Proposal description",
          "metaHash": "Hash value of proposal metadata",
          "recipients": "Transfer recipients"
        },
        "returns": {
          "proposalId": "Created proposal's ID"
        }
      },
      "renounceRole(bytes32,address)": {
        "details": "Revokes `role` from the calling account. Roles are often managed via {grantRole} and {revokeRole}: this function's purpose is to provide a mechanism for accounts to lose their privileges if they are compromised (such as when a trusted device is misplaced). If the calling account had been revoked `role`, emits a {RoleRevoked} event. Requirements: - the caller must be `account`. May emit a {RoleRevoked} event."
      },
      "revokeRole(bytes32,address)": {
        "details": "Revokes `role` from `account`. If `account` had been granted `role`, emits a {RoleRevoked} event. Requirements: - the caller must have ``role``'s admin role. May emit a {RoleRevoked} event."
      },
      "supportsInterface(bytes4)": {
        "details": "See {IERC165-supportsInterface}."
      }
    },
    "stateVariables": {
      "service": {
        "details": "Service address"
      }
    },
    "version": 1
  },
  "userdoc": {
    "kind": "user",
    "methods": {
      "proposeGovernanceSettings(address,(uint256,uint256,uint256,uint256,uint256,uint256[4],uint256),string,string)": {
        "notice": "A proposal that changes the governance settings. First of all, the percentage of the total number of free votes changes, the achievement of which within the framework of voting leads to the achievement of a quorum (the vote will be considered to have taken place, that is, one of the conditions for a positive decision on the propositional is fulfilled). Further, the Decision Threshold can be changed, which is set as a percentage of the sum of the votes \"for\" and \"against\" for a specific proposal, at which the sum of the votes \"for\" ensures a positive decision-making. In addition, a set of delays (measured in blocks) is set, used for certain features of transactions submitted to the proposal. The duration of all subsequent votes is also set (measured in blocks) and the number of Governance tokens required for the address to create a proposal. All parameters are set in one transaction. To change one of the parameters, it is necessary to send the old values of the other settings along with the changed value of one setting."
      },
      "proposeGovernanceSettingsWithRoles(address,(uint256,uint256,uint256,uint256,uint256,uint256[4],uint256),address[],address[],string,string)": {
        "notice": "A proposal that changes the governance settings. First of all, the percentage of the total number of free votes changes, the achievement of which within the framework of voting leads to the achievement of a quorum (the vote will be considered to have taken place, that is, one of the conditions for a positive decision on the propositional is fulfilled). Further, the Decision Threshold can be changed, which is set as a percentage of the sum of the votes \"for\" and \"against\" for a specific proposal, at which the sum of the votes \"for\" ensures a positive decision-making. In addition, a set of delays (measured in blocks) is set, used for certain features of transactions submitted to the proposal. The duration of all subsequent votes is also set (measured in blocks) and the number of Governance tokens required for the address to create a proposal. All parameters are set in one transaction. To change one of the parameters, it is necessary to send the old values of the other settings along with the changed value of one setting. With Secretary and Executor Roles"
      }
    },
    "version": 1
  },
  "storageLayout": {
    "storage": [
      {
        "astId": 1184,
        "contract": "contracts/CustomProposal.sol:CustomProposal",
        "label": "_initialized",
        "offset": 0,
        "slot": "0",
        "type": "t_uint8"
      },
      {
        "astId": 1187,
        "contract": "contracts/CustomProposal.sol:CustomProposal",
        "label": "_initializing",
        "offset": 1,
        "slot": "0",
        "type": "t_bool"
      },
      {
        "astId": 5634,
        "contract": "contracts/CustomProposal.sol:CustomProposal",
        "label": "__gap",
        "offset": 0,
        "slot": "1",
        "type": "t_array(t_uint256)50_storage"
      },
      {
        "astId": 6579,
        "contract": "contracts/CustomProposal.sol:CustomProposal",
        "label": "__gap",
        "offset": 0,
        "slot": "51",
        "type": "t_array(t_uint256)50_storage"
      },
      {
        "astId": 184,
        "contract": "contracts/CustomProposal.sol:CustomProposal",
        "label": "_roles",
        "offset": 0,
        "slot": "101",
        "type": "t_mapping(t_bytes32,t_struct(RoleData)179_storage)"
      },
      {
        "astId": 479,
        "contract": "contracts/CustomProposal.sol:CustomProposal",
        "label": "__gap",
        "offset": 0,
        "slot": "102",
        "type": "t_array(t_uint256)49_storage"
      },
      {
        "astId": 33,
        "contract": "contracts/CustomProposal.sol:CustomProposal",
        "label": "_roleMembers",
        "offset": 0,
        "slot": "151",
        "type": "t_mapping(t_bytes32,t_struct(AddressSet)9324_storage)"
      },
      {
        "astId": 143,
        "contract": "contracts/CustomProposal.sol:CustomProposal",
        "label": "__gap",
        "offset": 0,
        "slot": "152",
        "type": "t_array(t_uint256)49_storage"
      },
      {
        "astId": 10482,
        "contract": "contracts/CustomProposal.sol:CustomProposal",
        "label": "service",
        "offset": 0,
        "slot": "201",
        "type": "t_contract(IService)21719"
      }
    ],
    "types": {
      "t_address": {
        "encoding": "inplace",
        "label": "address",
        "numberOfBytes": "20"
      },
      "t_array(t_bytes32)dyn_storage": {
        "base": "t_bytes32",
        "encoding": "dynamic_array",
        "label": "bytes32[]",
        "numberOfBytes": "32"
      },
      "t_array(t_uint256)49_storage": {
        "base": "t_uint256",
        "encoding": "inplace",
        "label": "uint256[49]",
        "numberOfBytes": "1568"
      },
      "t_array(t_uint256)50_storage": {
        "base": "t_uint256",
        "encoding": "inplace",
        "label": "uint256[50]",
        "numberOfBytes": "1600"
      },
      "t_bool": {
        "encoding": "inplace",
        "label": "bool",
        "numberOfBytes": "1"
      },
      "t_bytes32": {
        "encoding": "inplace",
        "label": "bytes32",
        "numberOfBytes": "32"
      },
      "t_contract(IService)21719": {
        "encoding": "inplace",
        "label": "contract IService",
        "numberOfBytes": "20"
      },
      "t_mapping(t_address,t_bool)": {
        "encoding": "mapping",
        "key": "t_address",
        "label": "mapping(address => bool)",
        "numberOfBytes": "32",
        "value": "t_bool"
      },
      "t_mapping(t_bytes32,t_struct(AddressSet)9324_storage)": {
        "encoding": "mapping",
        "key": "t_bytes32",
        "label": "mapping(bytes32 => struct EnumerableSetUpgradeable.AddressSet)",
        "numberOfBytes": "32",
        "value": "t_struct(AddressSet)9324_storage"
      },
      "t_mapping(t_bytes32,t_struct(RoleData)179_storage)": {
        "encoding": "mapping",
        "key": "t_bytes32",
        "label": "mapping(bytes32 => struct AccessControlUpgradeable.RoleData)",
        "numberOfBytes": "32",
        "value": "t_struct(RoleData)179_storage"
      },
      "t_mapping(t_bytes32,t_uint256)": {
        "encoding": "mapping",
        "key": "t_bytes32",
        "label": "mapping(bytes32 => uint256)",
        "numberOfBytes": "32",
        "value": "t_uint256"
      },
      "t_struct(AddressSet)9324_storage": {
        "encoding": "inplace",
        "label": "struct EnumerableSetUpgradeable.AddressSet",
        "members": [
          {
            "astId": 9323,
            "contract": "contracts/CustomProposal.sol:CustomProposal",
            "label": "_inner",
            "offset": 0,
            "slot": "0",
            "type": "t_struct(Set)9009_storage"
          }
        ],
        "numberOfBytes": "64"
      },
      "t_struct(RoleData)179_storage": {
        "encoding": "inplace",
        "label": "struct AccessControlUpgradeable.RoleData",
        "members": [
          {
            "astId": 176,
            "contract": "contracts/CustomProposal.sol:CustomProposal",
            "label": "members",
            "offset": 0,
            "slot": "0",
            "type": "t_mapping(t_address,t_bool)"
          },
          {
            "astId": 178,
            "contract": "contracts/CustomProposal.sol:CustomProposal",
            "label": "adminRole",
            "offset": 0,
            "slot": "1",
            "type": "t_bytes32"
          }
        ],
        "numberOfBytes": "64"
      },
      "t_struct(Set)9009_storage": {
        "encoding": "inplace",
        "label": "struct EnumerableSetUpgradeable.Set",
        "members": [
          {
            "astId": 9004,
            "contract": "contracts/CustomProposal.sol:CustomProposal",
            "label": "_values",
            "offset": 0,
            "slot": "0",
            "type": "t_array(t_bytes32)dyn_storage"
          },
          {
            "astId": 9008,
            "contract": "contracts/CustomProposal.sol:CustomProposal",
            "label": "_indexes",
            "offset": 0,
            "slot": "1",
            "type": "t_mapping(t_bytes32,t_uint256)"
          }
        ],
        "numberOfBytes": "64"
      },
      "t_uint256": {
        "encoding": "inplace",
        "label": "uint256",
        "numberOfBytes": "32"
      },
      "t_uint8": {
        "encoding": "inplace",
        "label": "uint8",
        "numberOfBytes": "1"
      }
    }
  }
}