{
  "address": "0xF2Cb1D8ea117482d0c826B18Dbe50cAF171eDD07",
  "abi": [
    {
      "inputs": [],
      "stateMutability": "nonpayable",
      "type": "constructor"
    },
    {
      "anonymous": false,
      "inputs": [
        {
          "indexed": false,
          "internalType": "uint256",
          "name": "index",
          "type": "uint256"
        },
        {
          "indexed": false,
          "internalType": "address",
          "name": "poolAddress",
          "type": "address"
        }
      ],
      "name": "CompanyCreated",
      "type": "event"
    },
    {
      "anonymous": false,
      "inputs": [
        {
          "indexed": false,
          "internalType": "uint256",
          "name": "metadataIndex",
          "type": "uint256"
        }
      ],
      "name": "CompanyDeleted",
      "type": "event"
    },
    {
      "anonymous": false,
      "inputs": [
        {
          "indexed": false,
          "internalType": "uint256",
          "name": "jurisdiction",
          "type": "uint256"
        },
        {
          "indexed": false,
          "internalType": "uint256",
          "name": "entityType",
          "type": "uint256"
        },
        {
          "indexed": false,
          "internalType": "uint256",
          "name": "id",
          "type": "uint256"
        },
        {
          "indexed": false,
          "internalType": "uint256",
          "name": "fee",
          "type": "uint256"
        }
      ],
      "name": "CompanyFeeUpdated",
      "type": "event"
    },
    {
      "anonymous": false,
      "inputs": [
        {
          "indexed": false,
          "internalType": "uint256",
          "name": "index",
          "type": "uint256"
        },
        {
          "indexed": false,
          "internalType": "address",
          "name": "addr",
          "type": "address"
        },
        {
          "indexed": false,
          "internalType": "enum IRecordsRegistry.ContractType",
          "name": "contractType",
          "type": "uint8"
        }
      ],
      "name": "ContractRecordAdded",
      "type": "event"
    },
    {
      "anonymous": false,
      "inputs": [
        {
          "indexed": false,
          "internalType": "uint256",
          "name": "index",
          "type": "uint256"
        },
        {
          "indexed": false,
          "internalType": "enum IRecordsRegistry.EventType",
          "name": "eventType",
          "type": "uint8"
        },
        {
          "indexed": false,
          "internalType": "address",
          "name": "pool",
          "type": "address"
        },
        {
          "indexed": false,
          "internalType": "uint256",
          "name": "proposalId",
          "type": "uint256"
        }
      ],
      "name": "EventRecordAdded",
      "type": "event"
    },
    {
      "anonymous": false,
      "inputs": [
        {
          "indexed": false,
          "internalType": "uint8",
          "name": "version",
          "type": "uint8"
        }
      ],
      "name": "Initialized",
      "type": "event"
    },
    {
      "anonymous": false,
      "inputs": [
        {
          "indexed": false,
          "internalType": "address",
          "name": "sender",
          "type": "address"
        },
        {
          "indexed": false,
          "internalType": "address",
          "name": "receiver",
          "type": "address"
        },
        {
          "indexed": false,
          "internalType": "uint256",
          "name": "value",
          "type": "uint256"
        },
        {
          "indexed": false,
          "internalType": "bytes",
          "name": "data",
          "type": "bytes"
        }
      ],
      "name": "Log",
      "type": "event"
    },
    {
      "anonymous": false,
      "inputs": [
        {
          "indexed": false,
          "internalType": "uint256",
          "name": "index",
          "type": "uint256"
        },
        {
          "indexed": false,
          "internalType": "address",
          "name": "pool",
          "type": "address"
        },
        {
          "indexed": false,
          "internalType": "uint256",
          "name": "proposalId",
          "type": "uint256"
        }
      ],
      "name": "ProposalRecordAdded",
      "type": "event"
    },
    {
      "anonymous": false,
      "inputs": [
        {
          "indexed": true,
          "internalType": "bytes32",
          "name": "role",
          "type": "bytes32"
        },
        {
          "indexed": true,
          "internalType": "bytes32",
          "name": "previousAdminRole",
          "type": "bytes32"
        },
        {
          "indexed": true,
          "internalType": "bytes32",
          "name": "newAdminRole",
          "type": "bytes32"
        }
      ],
      "name": "RoleAdminChanged",
      "type": "event"
    },
    {
      "anonymous": false,
      "inputs": [
        {
          "indexed": true,
          "internalType": "bytes32",
          "name": "role",
          "type": "bytes32"
        },
        {
          "indexed": true,
          "internalType": "address",
          "name": "account",
          "type": "address"
        },
        {
          "indexed": true,
          "internalType": "address",
          "name": "sender",
          "type": "address"
        }
      ],
      "name": "RoleGranted",
      "type": "event"
    },
    {
      "anonymous": false,
      "inputs": [
        {
          "indexed": true,
          "internalType": "bytes32",
          "name": "role",
          "type": "bytes32"
        },
        {
          "indexed": true,
          "internalType": "address",
          "name": "account",
          "type": "address"
        },
        {
          "indexed": true,
          "internalType": "address",
          "name": "sender",
          "type": "address"
        }
      ],
      "name": "RoleRevoked",
      "type": "event"
    },
    {
      "inputs": [],
      "name": "COMPANIES_MANAGER_ROLE",
      "outputs": [
        {
          "internalType": "bytes32",
          "name": "",
          "type": "bytes32"
        }
      ],
      "stateMutability": "view",
      "type": "function"
    },
    {
      "inputs": [],
      "name": "DEFAULT_ADMIN_ROLE",
      "outputs": [
        {
          "internalType": "bytes32",
          "name": "",
          "type": "bytes32"
        }
      ],
      "stateMutability": "view",
      "type": "function"
    },
    {
      "inputs": [],
      "name": "WHITELISTED_TOKEN_ROLE",
      "outputs": [
        {
          "internalType": "bytes32",
          "name": "",
          "type": "bytes32"
        }
      ],
      "stateMutability": "view",
      "type": "function"
    },
    {
      "inputs": [
        {
          "internalType": "uint256",
          "name": "index",
          "type": "uint256"
        }
      ],
      "name": "activateCompany",
      "outputs": [],
      "stateMutability": "nonpayable",
      "type": "function"
    },
    {
      "inputs": [
        {
          "internalType": "address",
          "name": "addr",
          "type": "address"
        },
        {
          "internalType": "enum IRecordsRegistry.ContractType",
          "name": "contractType",
          "type": "uint8"
        },
        {
          "internalType": "string",
          "name": "description",
          "type": "string"
        }
      ],
      "name": "addContractRecord",
      "outputs": [
        {
          "internalType": "uint256",
          "name": "index",
          "type": "uint256"
        }
      ],
      "stateMutability": "nonpayable",
      "type": "function"
    },
    {
      "inputs": [
        {
          "internalType": "address",
          "name": "pool",
          "type": "address"
        },
        {
          "internalType": "enum IRecordsRegistry.EventType",
          "name": "eventType",
          "type": "uint8"
        },
        {
          "internalType": "address",
          "name": "eventContract",
          "type": "address"
        },
        {
          "internalType": "uint256",
          "name": "proposalId",
          "type": "uint256"
        },
        {
          "internalType": "string",
          "name": "metaHash",
          "type": "string"
        }
      ],
      "name": "addEventRecord",
      "outputs": [
        {
          "internalType": "uint256",
          "name": "index",
          "type": "uint256"
        }
      ],
      "stateMutability": "nonpayable",
      "type": "function"
    },
    {
      "inputs": [
        {
          "internalType": "address",
          "name": "pool",
          "type": "address"
        },
        {
          "internalType": "uint256",
          "name": "proposalId",
          "type": "uint256"
        }
      ],
      "name": "addProposalRecord",
      "outputs": [
        {
          "internalType": "uint256",
          "name": "index",
          "type": "uint256"
        }
      ],
      "stateMutability": "nonpayable",
      "type": "function"
    },
    {
      "inputs": [
        {
          "internalType": "uint256",
          "name": "",
          "type": "uint256"
        }
      ],
      "name": "companies",
      "outputs": [
        {
          "internalType": "uint256",
          "name": "jurisdiction",
          "type": "uint256"
        },
        {
          "internalType": "uint256",
          "name": "entityType",
          "type": "uint256"
        },
        {
          "internalType": "string",
          "name": "ein",
          "type": "string"
        },
        {
          "internalType": "string",
          "name": "dateOfIncorporation",
          "type": "string"
        },
        {
          "internalType": "uint256",
          "name": "fee",
          "type": "uint256"
        }
      ],
      "stateMutability": "view",
      "type": "function"
    },
    {
      "inputs": [
        {
          "internalType": "uint256",
          "name": "",
          "type": "uint256"
        }
      ],
      "name": "companyAddress",
      "outputs": [
        {
          "internalType": "address",
          "name": "",
          "type": "address"
        }
      ],
      "stateMutability": "view",
      "type": "function"
    },
    {
      "inputs": [
        {
          "internalType": "uint256",
          "name": "jurisdiction",
          "type": "uint256"
        },
        {
          "internalType": "uint256",
          "name": "entityType",
          "type": "uint256"
        }
      ],
      "name": "companyAvailable",
      "outputs": [
        {
          "internalType": "bool",
          "name": "",
          "type": "bool"
        }
      ],
      "stateMutability": "view",
      "type": "function"
    },
    {
      "inputs": [
        {
          "internalType": "bytes32",
          "name": "",
          "type": "bytes32"
        }
      ],
      "name": "companyIndex",
      "outputs": [
        {
          "internalType": "uint256",
          "name": "",
          "type": "uint256"
        }
      ],
      "stateMutability": "view",
      "type": "function"
    },
    {
      "inputs": [
        {
          "internalType": "uint256",
          "name": "",
          "type": "uint256"
        }
      ],
      "name": "contractRecords",
      "outputs": [
        {
          "internalType": "address",
          "name": "addr",
          "type": "address"
        },
        {
          "internalType": "enum IRecordsRegistry.ContractType",
          "name": "contractType",
          "type": "uint8"
        },
        {
          "internalType": "string",
          "name": "description",
          "type": "string"
        }
      ],
      "stateMutability": "view",
      "type": "function"
    },
    {
      "inputs": [],
      "name": "contractRecordsCount",
      "outputs": [
        {
          "internalType": "uint256",
          "name": "",
          "type": "uint256"
        }
      ],
      "stateMutability": "view",
      "type": "function"
    },
    {
      "inputs": [
        {
          "components": [
            {
              "internalType": "uint256",
              "name": "jurisdiction",
              "type": "uint256"
            },
            {
              "internalType": "uint256",
              "name": "entityType",
              "type": "uint256"
            },
            {
              "internalType": "string",
              "name": "ein",
              "type": "string"
            },
            {
              "internalType": "string",
              "name": "dateOfIncorporation",
              "type": "string"
            },
            {
              "internalType": "uint256",
              "name": "fee",
              "type": "uint256"
            }
          ],
          "internalType": "struct ICompaniesRegistry.CompanyInfo",
          "name": "info",
          "type": "tuple"
        }
      ],
      "name": "createCompany",
      "outputs": [],
      "stateMutability": "nonpayable",
      "type": "function"
    },
    {
      "inputs": [
        {
          "internalType": "uint256",
          "name": "jurisdiction",
          "type": "uint256"
        },
        {
          "internalType": "uint256",
          "name": "entityType",
          "type": "uint256"
        },
        {
          "internalType": "uint256",
          "name": "id",
          "type": "uint256"
        }
      ],
      "name": "deleteCompany",
      "outputs": [],
      "stateMutability": "nonpayable",
      "type": "function"
    },
    {
      "inputs": [],
      "name": "eventRecordsCount",
      "outputs": [
        {
          "internalType": "uint256",
          "name": "",
          "type": "uint256"
        }
      ],
      "stateMutability": "view",
      "type": "function"
    },
    {
      "inputs": [
        {
          "internalType": "uint256",
          "name": "",
          "type": "uint256"
        }
      ],
      "name": "events",
      "outputs": [
        {
          "internalType": "enum IRecordsRegistry.EventType",
          "name": "eventType",
          "type": "uint8"
        },
        {
          "internalType": "address",
          "name": "pool",
          "type": "address"
        },
        {
          "internalType": "address",
          "name": "eventContract",
          "type": "address"
        },
        {
          "internalType": "uint256",
          "name": "proposalId",
          "type": "uint256"
        },
        {
          "internalType": "string",
          "name": "metaHash",
          "type": "string"
        }
      ],
      "stateMutability": "view",
      "type": "function"
    },
    {
      "inputs": [
        {
          "internalType": "uint256",
          "name": "jurisdiction",
          "type": "uint256"
        },
        {
          "internalType": "uint256",
          "name": "entityType",
          "type": "uint256"
        }
      ],
      "name": "getAvailableCompanyAddress",
      "outputs": [
        {
          "internalType": "address",
          "name": "",
          "type": "address"
        }
      ],
      "stateMutability": "view",
      "type": "function"
    },
    {
      "inputs": [
        {
          "internalType": "uint256",
          "name": "jurisdiction",
          "type": "uint256"
        },
        {
          "internalType": "uint256",
          "name": "entityType",
          "type": "uint256"
        },
        {
          "internalType": "string",
          "name": "ein",
          "type": "string"
        }
      ],
      "name": "getCompany",
      "outputs": [
        {
          "components": [
            {
              "internalType": "uint256",
              "name": "jurisdiction",
              "type": "uint256"
            },
            {
              "internalType": "uint256",
              "name": "entityType",
              "type": "uint256"
            },
            {
              "internalType": "string",
              "name": "ein",
              "type": "string"
            },
            {
              "internalType": "string",
              "name": "dateOfIncorporation",
              "type": "string"
            },
            {
              "internalType": "uint256",
              "name": "fee",
              "type": "uint256"
            }
          ],
          "internalType": "struct ICompaniesRegistry.CompanyInfo",
          "name": "",
          "type": "tuple"
        }
      ],
      "stateMutability": "view",
      "type": "function"
    },
    {
      "inputs": [
        {
          "internalType": "address",
          "name": "pool",
          "type": "address"
        },
        {
          "internalType": "uint256",
          "name": "proposalId",
          "type": "uint256"
        }
      ],
      "name": "getGlobalProposalId",
      "outputs": [
        {
          "internalType": "uint256",
          "name": "",
          "type": "uint256"
        }
      ],
      "stateMutability": "view",
      "type": "function"
    },
    {
      "inputs": [
        {
          "internalType": "uint256",
          "name": "index",
          "type": "uint256"
        }
      ],
      "name": "getPoolAddressByIndex",
      "outputs": [
        {
          "internalType": "address",
          "name": "",
          "type": "address"
        }
      ],
      "stateMutability": "view",
      "type": "function"
    },
    {
      "inputs": [
        {
          "internalType": "bytes32",
          "name": "role",
          "type": "bytes32"
        }
      ],
      "name": "getRoleAdmin",
      "outputs": [
        {
          "internalType": "bytes32",
          "name": "",
          "type": "bytes32"
        }
      ],
      "stateMutability": "view",
      "type": "function"
    },
    {
      "inputs": [
        {
          "internalType": "bytes32",
          "name": "role",
          "type": "bytes32"
        },
        {
          "internalType": "uint256",
          "name": "index",
          "type": "uint256"
        }
      ],
      "name": "getRoleMember",
      "outputs": [
        {
          "internalType": "address",
          "name": "",
          "type": "address"
        }
      ],
      "stateMutability": "view",
      "type": "function"
    },
    {
      "inputs": [
        {
          "internalType": "bytes32",
          "name": "role",
          "type": "bytes32"
        }
      ],
      "name": "getRoleMemberCount",
      "outputs": [
        {
          "internalType": "uint256",
          "name": "",
          "type": "uint256"
        }
      ],
      "stateMutability": "view",
      "type": "function"
    },
    {
      "inputs": [
        {
          "internalType": "address",
          "name": "",
          "type": "address"
        },
        {
          "internalType": "uint256",
          "name": "",
          "type": "uint256"
        }
      ],
      "name": "globalProposalIds",
      "outputs": [
        {
          "internalType": "uint256",
          "name": "",
          "type": "uint256"
        }
      ],
      "stateMutability": "view",
      "type": "function"
    },
    {
      "inputs": [
        {
          "internalType": "bytes32",
          "name": "role",
          "type": "bytes32"
        },
        {
          "internalType": "address",
          "name": "account",
          "type": "address"
        }
      ],
      "name": "grantRole",
      "outputs": [],
      "stateMutability": "nonpayable",
      "type": "function"
    },
    {
      "inputs": [
        {
          "internalType": "bytes32",
          "name": "role",
          "type": "bytes32"
        },
        {
          "internalType": "address",
          "name": "account",
          "type": "address"
        }
      ],
      "name": "hasRole",
      "outputs": [
        {
          "internalType": "bool",
          "name": "",
          "type": "bool"
        }
      ],
      "stateMutability": "view",
      "type": "function"
    },
    {
      "inputs": [
        {
          "internalType": "address",
          "name": "",
          "type": "address"
        }
      ],
      "name": "indexOfContract",
      "outputs": [
        {
          "internalType": "bool",
          "name": "exists",
          "type": "bool"
        },
        {
          "internalType": "uint160",
          "name": "index",
          "type": "uint160"
        }
      ],
      "stateMutability": "view",
      "type": "function"
    },
    {
      "inputs": [],
      "name": "initialize",
      "outputs": [],
      "stateMutability": "nonpayable",
      "type": "function"
    },
    {
      "inputs": [
        {
          "internalType": "address",
          "name": "token",
          "type": "address"
        }
      ],
      "name": "isTokenWhitelisted",
      "outputs": [
        {
          "internalType": "bool",
          "name": "",
          "type": "bool"
        }
      ],
      "stateMutability": "view",
      "type": "function"
    },
    {
      "inputs": [],
      "name": "lastCompanyIndex",
      "outputs": [
        {
          "internalType": "uint256",
          "name": "",
          "type": "uint256"
        }
      ],
      "stateMutability": "view",
      "type": "function"
    },
    {
      "inputs": [
        {
          "internalType": "uint256",
          "name": "jurisdiction",
          "type": "uint256"
        },
        {
          "internalType": "uint256",
          "name": "entityType",
          "type": "uint256"
        }
      ],
      "name": "lockCompany",
      "outputs": [
        {
          "components": [
            {
              "internalType": "uint256",
              "name": "jurisdiction",
              "type": "uint256"
            },
            {
              "internalType": "uint256",
              "name": "entityType",
              "type": "uint256"
            },
            {
              "internalType": "string",
              "name": "ein",
              "type": "string"
            },
            {
              "internalType": "string",
              "name": "dateOfIncorporation",
              "type": "string"
            },
            {
              "internalType": "uint256",
              "name": "fee",
              "type": "uint256"
            }
          ],
          "internalType": "struct ICompaniesRegistry.CompanyInfo",
          "name": "info",
          "type": "tuple"
        }
      ],
      "stateMutability": "nonpayable",
      "type": "function"
    },
    {
      "inputs": [
        {
          "internalType": "address",
          "name": "sender",
          "type": "address"
        },
        {
          "internalType": "address",
          "name": "receiver",
          "type": "address"
        },
        {
          "internalType": "uint256",
          "name": "value",
          "type": "uint256"
        },
        {
          "internalType": "bytes",
          "name": "data",
          "type": "bytes"
        }
      ],
      "name": "log",
      "outputs": [],
      "stateMutability": "nonpayable",
      "type": "function"
    },
    {
      "inputs": [
        {
          "internalType": "uint256",
          "name": "",
          "type": "uint256"
        }
      ],
      "name": "proposalRecords",
      "outputs": [
        {
          "internalType": "address",
          "name": "pool",
          "type": "address"
        },
        {
          "internalType": "uint256",
          "name": "proposalId",
          "type": "uint256"
        },
        {
          "internalType": "string",
          "name": "description",
          "type": "string"
        }
      ],
      "stateMutability": "view",
      "type": "function"
    },
    {
      "inputs": [],
      "name": "proposalRecordsCount",
      "outputs": [
        {
          "internalType": "uint256",
          "name": "",
          "type": "uint256"
        }
      ],
      "stateMutability": "view",
      "type": "function"
    },
    {
      "inputs": [
        {
          "internalType": "uint256",
          "name": "",
          "type": "uint256"
        },
        {
          "internalType": "uint256",
          "name": "",
          "type": "uint256"
        },
        {
          "internalType": "uint256",
          "name": "",
          "type": "uint256"
        }
      ],
      "name": "queue",
      "outputs": [
        {
          "internalType": "uint256",
          "name": "",
          "type": "uint256"
        }
      ],
      "stateMutability": "view",
      "type": "function"
    },
    {
      "inputs": [
        {
          "internalType": "bytes32",
          "name": "role",
          "type": "bytes32"
        },
        {
          "internalType": "address",
          "name": "account",
          "type": "address"
        }
      ],
      "name": "renounceRole",
      "outputs": [],
      "stateMutability": "nonpayable",
      "type": "function"
    },
    {
      "inputs": [
        {
          "internalType": "bytes32",
          "name": "role",
          "type": "bytes32"
        },
        {
          "internalType": "address",
          "name": "account",
          "type": "address"
        }
      ],
      "name": "revokeRole",
      "outputs": [],
      "stateMutability": "nonpayable",
      "type": "function"
    },
    {
      "inputs": [],
      "name": "service",
      "outputs": [
        {
          "internalType": "address",
          "name": "",
          "type": "address"
        }
      ],
      "stateMutability": "view",
      "type": "function"
    },
    {
      "inputs": [
        {
          "internalType": "address",
          "name": "service_",
          "type": "address"
        }
      ],
      "name": "setService",
      "outputs": [],
      "stateMutability": "nonpayable",
      "type": "function"
    },
    {
      "inputs": [
        {
          "internalType": "bytes4",
          "name": "interfaceId",
          "type": "bytes4"
        }
      ],
      "name": "supportsInterface",
      "outputs": [
        {
          "internalType": "bool",
          "name": "",
          "type": "bool"
        }
      ],
      "stateMutability": "view",
      "type": "function"
    },
    {
      "inputs": [
        {
          "internalType": "address",
          "name": "addr",
          "type": "address"
        }
      ],
      "name": "typeOf",
      "outputs": [
        {
          "internalType": "enum IRecordsRegistry.ContractType",
          "name": "",
          "type": "uint8"
        }
      ],
      "stateMutability": "view",
      "type": "function"
    },
    {
      "inputs": [
        {
          "internalType": "uint256",
          "name": "index",
          "type": "uint256"
        },
        {
          "components": [
            {
              "internalType": "uint256",
              "name": "jurisdiction",
              "type": "uint256"
            },
            {
              "internalType": "uint256",
              "name": "entityType",
              "type": "uint256"
            },
            {
              "internalType": "string",
              "name": "ein",
              "type": "string"
            },
            {
              "internalType": "string",
              "name": "dateOfIncorporation",
              "type": "string"
            },
            {
              "internalType": "uint256",
              "name": "fee",
              "type": "uint256"
            }
          ],
          "internalType": "struct ICompaniesRegistry.CompanyInfo",
          "name": "_info",
          "type": "tuple"
        }
      ],
      "name": "updateCompanyInfo",
      "outputs": [],
      "stateMutability": "nonpayable",
      "type": "function"
    },
    {
      "inputs": [
        {
          "internalType": "address[]",
          "name": "tokens",
          "type": "address[]"
        }
      ],
      "name": "whitelistTokens",
      "outputs": [],
      "stateMutability": "nonpayable",
      "type": "function"
    }
  ],
  "transactionHash": "0xe7bb6289502a52fe2f30a2446810731fa8ca6e2247c977bb15dbba1ee42cc63d",
  "args": [],
  "numDeployments": 3,
  "solcInputHash": "b55455f368efcc60cc70c26cfcced5b1",
  "bytecode": "0x60806040523480156200001157600080fd5b506200001c62000022565b620000e4565b600054610100900460ff16156200008f5760405162461bcd60e51b815260206004820152602760248201527f496e697469616c697a61626c653a20636f6e747261637420697320696e697469604482015266616c697a696e6760c81b606482015260840160405180910390fd5b60005460ff9081161015620000e2576000805460ff191660ff9081179091556040519081527f7f26b83ff96e1f2b6a682f133852f6798a09c465da95921460cefb38474024989060200160405180910390a15b565b613b4d80620000f46000396000f3fe608060405234801561001057600080fd5b50600436106102745760003560e01c80636dcb0cf811610151578063ca15c873116100c3578063e2938db511610087578063e2938db514610679578063e79d59301461068e578063e7fce55f14610697578063eaa2e889146106aa578063ee1019d4146106e0578063f4be9369146106f357600080fd5b8063ca15c8731461061a578063ca197b311461062d578063d247616c14610640578063d547741f14610653578063d598d4c91461066657600080fd5b8063a1aa7bcc11610115578063a1aa7bcc14610590578063a217fddf14610598578063a9757fbd146105a0578063b5af090f146105cb578063bf8bdac1146105de578063bfb68ae7146105f157600080fd5b80636dcb0cf81461053a5780638129fc1c1461055a5780638fc51e41146105625780639010d07c1461056a57806391d148541461057d57600080fd5b8063248a9ca3116101ea5780633c6b770b116101ae5780633c6b770b146104b95780634cb1e9e3146104cc5780634dbb83fd146104df57806351fddf77146104f25780635d9c7cba14610505578063648bbcdf1461052757600080fd5b8063248a9ca3146104445780632813d19d146104675780632f2ff15d1461048b5780633511e9951461049e57806336568abe146104a657600080fd5b8063121f661c1161023c578063121f661c1461034057806317967183146103925780631d5033a6146103d35780631f2c55b0146103fa5780631f8b40051461040f57806323689a0b1461042257600080fd5b806301ffc9a7146102795780630455b403146102a15780630962c8c4146102cf5780630b791430146102fc57806310eca50614610320575b600080fd5b61028c610287366004612c64565b610706565b60405190151581526020015b60405180910390f35b6102c16102af366004612c8e565b60cd6020526000908152604090205481565b604051908152602001610298565b61028c6102dd366004612ca7565b600091825260ca60209081526040808420928452919052902054151590565b61030f61030a366004612c8e565b610731565b604051610298959493929190612d43565b61033361032e366004612dd6565b61080d565b6040516102989190612e28565b61037361034e366004612ea1565b60cf6020526000908152604090205460ff81169061010090046001600160a01b031682565b6040805192151583526001600160a01b03909116602083015201610298565b6103bb6103a0366004612c8e565b600090815260d360205260409020546001600160a01b031690565b6040516001600160a01b039091168152602001610298565b6102c17fa21b4d8440b478c033018a500413e67ca2910a10ce4992fb2dcba26856a32e8981565b61040d610408366004612c8e565b6109de565b005b6102c161041d366004612fb1565b610a2f565b610435610430366004612c8e565b610d07565b60405161029893929190613016565b6102c1610452366004612c8e565b60009081526065602052604090206001015490565b61047a610475366004612c8e565b610dd0565b604051610298959493929190613046565b61040d61049936600461308a565b610f0f565b60ce546102c1565b61040d6104b436600461308a565b610f39565b6102c16104c73660046130ba565b610fb7565b61040d6104da366004613142565b61129a565b61040d6104ed3660046131b6565b611318565b61040d610500366004613235565b6115fd565b610518610513366004612c8e565b61170a565b604051610298939291906132ff565b6103bb610535366004612ca7565b611754565b61054d610548366004612ea1565b61185a565b604051610298919061332e565b61040d6118e8565b60d1546102c1565b6103bb610578366004612ca7565b6119f9565b61028c61058b36600461308a565b611a11565b60d0546102c1565b6102c1600081565b6102c16105ae36600461333c565b60d260209081526000928352604080842090915290825290205481565b61028c6105d9366004612ea1565b611a3c565b61040d6105ec366004612ea1565b611a68565b6103bb6105ff366004612c8e565b60d3602052600090815260409020546001600160a01b031681565b6102c1610628366004612c8e565b611a96565b61040d61063b366004613368565b611aad565b6102c161064e366004613368565b611d32565b61040d61066136600461308a565b611d70565b60c9546103bb906001600160a01b031681565b6102c1600080516020613af883398151915281565b6102c160cc5481565b61040d6106a5366004613394565b611d95565b6102c16106b836600461333c565b6001600160a01b0391909116600090815260d260209081526040808320938352929052205490565b6103336106ee366004612ca7565b612095565b6102c161070136600461333c565b61239b565b60006001600160e01b03198216635a05180f60e01b148061072b575061072b82612549565b92915050565b60d1818154811061074157600080fd5b6000918252602090912060049091020180546001820154600283015460038401805460ff851696506101009094046001600160a01b039081169593169391929161078a906133ce565b80601f01602080910402602001604051908101604052809291908181526020018280546107b6906133ce565b80156108035780601f106107d857610100808354040283529160200191610803565b820191906000526020600020905b8154815290600101906020018083116107e657829003601f168201915b5050505050905085565b61083f6040518060a0016040528060008152602001600081526020016060815260200160608152602001600081525090565b6000858585856040516020016108589493929190613408565b60408051601f198184030181528282528051602091820120600081815260cd835283812054815260cb835283902060a085018452805485526001810154928501929092526002820180549195509192840191906108b4906133ce565b80601f01602080910402602001604051908101604052809291908181526020018280546108e0906133ce565b801561092d5780601f106109025761010080835404028352916020019161092d565b820191906000526020600020905b81548152906001019060200180831161091057829003601f168201915b50505050508152602001600382018054610946906133ce565b80601f0160208091040260200160405190810160405280929190818152602001828054610972906133ce565b80156109bf5780601f10610994576101008083540402835291602001916109bf565b820191906000526020600020905b8154815290600101906020018083116109a257829003601f168201915b505050505081526020016004820154815250509150505b949350505050565b600080516020613af88339815191526109f68161257e565b50600081815260cb602090815260408083208054845260ca83528184206001918201548552835290832080549182018155835291200155565b60c954604080516373bbb97f60e11b815290516000926001600160a01b031633811492849263e77772fe916004808201926020929091908290030181865afa158015610a7f573d6000803e3d6000fd5b505050506040513d601f19601f82011682018060405250810190610aa39190613429565b6001600160a01b0316336001600160a01b03161480610b49575060c960009054906101000a90046001600160a01b03166001600160a01b031663102c5c016040518163ffffffff1660e01b8152600401602060405180830381865afa158015610b10573d6000803e3d6000fd5b505050506040513d601f19601f82011682018060405250810190610b349190613429565b6001600160a01b0316336001600160a01b0316145b90508180610b545750805b6040518060400160405280600b81526020016a4e4f545f5345525649434560a81b81525090610b9f5760405162461bcd60e51b8152600401610b969190613446565b60405180910390fd5b5060ce6040518060600160405280886001600160a01b03168152602001876004811115610bce57610bce612cc9565b815260209081018790528254600181018455600093845292819020825160029094020180546001600160a01b039094166001600160a01b031985168117825591830151929390929183916001600160a81b03191617600160a01b836004811115610c3a57610c3a612cc9565b021790555060408201516001820190610c5390826134bc565b505060ce54610c65915060019061358b565b604080518082018252600181526001600160a01b0383811660208084019182528b8316600090815260cf9091528490209251835491516001600160a81b0319909216901515610100600160a81b031916176101009190921602179055519093507f30ae76c641f7b77628da0dd91b34591e5b1dc7422220e5eb1080af2adfa142ef90610cf69085908990899061359e565b60405180910390a150509392505050565b60d08181548110610d1757600080fd5b60009182526020909120600390910201805460018201546002830180546001600160a01b039093169450909291610d4d906133ce565b80601f0160208091040260200160405190810160405280929190818152602001828054610d79906133ce565b8015610dc65780601f10610d9b57610100808354040283529160200191610dc6565b820191906000526020600020905b815481529060010190602001808311610da957829003601f168201915b5050505050905083565b60cb6020526000908152604090208054600182015460028301805492939192610df8906133ce565b80601f0160208091040260200160405190810160405280929190818152602001828054610e24906133ce565b8015610e715780601f10610e4657610100808354040283529160200191610e71565b820191906000526020600020905b815481529060010190602001808311610e5457829003601f168201915b505050505090806003018054610e86906133ce565b80601f0160208091040260200160405190810160405280929190818152602001828054610eb2906133ce565b8015610eff5780601f10610ed457610100808354040283529160200191610eff565b820191906000526020600020905b815481529060010190602001808311610ee257829003601f168201915b5050505050908060040154905085565b600082815260656020526040902060010154610f2a8161257e565b610f348383612588565b505050565b6001600160a01b0381163314610fa95760405162461bcd60e51b815260206004820152602f60248201527f416363657373436f6e74726f6c3a2063616e206f6e6c792072656e6f756e636560448201526e103937b632b9903337b91039b2b63360891b6064820152608401610b96565b610fb382826125aa565b5050565b60c954604080516373bbb97f60e11b815290516000926001600160a01b031633811492849263e77772fe916004808201926020929091908290030181865afa158015611007573d6000803e3d6000fd5b505050506040513d601f19601f8201168201806040525081019061102b9190613429565b6001600160a01b0316336001600160a01b031614806110d1575060c960009054906101000a90046001600160a01b03166001600160a01b031663102c5c016040518163ffffffff1660e01b8152600401602060405180830381865afa158015611098573d6000803e3d6000fd5b505050506040513d601f19601f820116820180604052508101906110bc9190613429565b6001600160a01b0316336001600160a01b0316145b905081806110dc5750805b6040518060400160405280600b81526020016a4e4f545f5345525649434560a81b8152509061111e5760405162461bcd60e51b8152600401610b969190613446565b5060d16040518060a001604052808a600381111561113e5761113e612cc9565b81526020018b6001600160a01b03168152602001896001600160a01b0316815260200188815260200187878080601f016020809104026020016040519081016040528093929190818152602001838380828437600092018290525093909452505083546001818101865594825260209091208351600490920201805493949093919250839160ff1916908360038111156111da576111da612cc9565b021790555060208201518154610100600160a81b0319166101006001600160a01b039283160217825560408301516001830180546001600160a01b03191691909216179055606082015160028201556080820151600382019061123d90826134bc565b505060d15461124f915060019061358b565b92507fcd6a83e26b7223cb3ee566d6b45eb10629b98ee7442e79f67db857b62247eb4383898b8960405161128694939291906135c1565b60405180910390a150509695505050505050565b60006112a58161257e565b60005b82811015611312576113007fa21b4d8440b478c033018a500413e67ca2910a10ce4992fb2dcba26856a32e898585848181106112e6576112e66135f0565b90506020020160208101906112fb9190612ea1565b612588565b8061130a81613606565b9150506112a8565b50505050565b33301480611330575060c9546001600160a01b031633145b806113c2575060c960009054906101000a90046001600160a01b03166001600160a01b031663102c5c016040518163ffffffff1660e01b8152600401602060405180830381865afa158015611389573d6000803e3d6000fd5b505050506040513d601f19601f820116820180604052508101906113ad9190613429565b6001600160a01b0316336001600160a01b0316145b80611454575060c960009054906101000a90046001600160a01b03166001600160a01b031663895ae2796040518163ffffffff1660e01b8152600401602060405180830381865afa15801561141b573d6000803e3d6000fd5b505050506040513d601f19601f8201168201806040525081019061143f9190613429565b6001600160a01b0316336001600160a01b0316145b806114e6575060c960009054906101000a90046001600160a01b03166001600160a01b03166344c63eec6040518163ffffffff1660e01b8152600401602060405180830381865afa1580156114ad573d6000803e3d6000fd5b505050506040513d601f19601f820116820180604052508101906114d19190613429565b6001600160a01b0316336001600160a01b0316145b8061150a575060016114f73361185a565b600481111561150857611508612cc9565b145b8061152e5750600461151b3361185a565b600481111561152c5761152c612cc9565b145b806115525750600261153f3361185a565b600481111561155057611550612cc9565b145b80611576575060036115633361185a565b600481111561157457611574612cc9565b145b6040518060400160405280600c81526020016b24a72b20a624a22faaa9a2a960a11b815250906115b95760405162461bcd60e51b8152600401610b969190613446565b507f2a5fa6618f4237f1351efabbeccfa9264e91c3c9401e687b0fe6a17d2aac0368848484846040516115ef949392919061361f565b60405180910390a150505050565b600080516020613af88339815191526116158161257e565b604051631796718360e01b8152600481018490526000903090631796718390602401602060405180830381865afa158015611654573d6000803e3d6000fd5b505050506040513d601f19601f820116820180604052508101906116789190613429565b90506116ac8184608001518560000151866020015187604001518860600151604051806020016040528060008152506125cc565b600084815260cb6020908152604091829020855181559085015160018201559084015184919060028201906116e190826134bc565b50606082015160038201906116f690826134bc565b506080820151816004015590505050505050565b60ce818154811061171a57600080fd5b6000918252602090912060029091020180546001820180546001600160a01b0383169450600160a01b90920460ff169291610d4d906133ce565b600082815260ca602090815260408083208484528252808320548151808301909252600a8252694e4f5f434f4d50414e5960b01b92820192909252816117ad5760405162461bcd60e51b8152600401610b969190613446565b50600084815260ca6020908152604080832086845290915281206117d260018461358b565b815481106117e2576117e26135f0565b6000918252602082200154604051631796718360e01b8152600481018290529092503090631796718390602401602060405180830381865afa15801561182c573d6000803e3d6000fd5b505050506040513d601f19601f820116820180604052508101906118509190613429565b9695505050505050565b6001600160a01b03808216600090815260cf6020908152604080832081518083019092525460ff811615158083526101009091049094169181019190915290916118a55760006118e1565b60ce81602001516001600160a01b0316815481106118c5576118c56135f0565b6000918252602090912060029091020154600160a01b900460ff165b9392505050565b600054610100900460ff16158080156119085750600054600160ff909116105b806119225750303b158015611922575060005460ff166001145b6119855760405162461bcd60e51b815260206004820152602e60248201527f496e697469616c697a61626c653a20636f6e747261637420697320616c72656160448201526d191e481a5b9a5d1a585b1a5e995960921b6064820152608401610b96565b6000805460ff1916600117905580156119a8576000805461ff0019166101001790555b6119b06126ff565b80156119f6576000805461ff0019169055604051600181527f7f26b83ff96e1f2b6a682f133852f6798a09c465da95921460cefb38474024989060200160405180910390a15b50565b60008281526097602052604081206118e19083612777565b60009182526065602090815260408084206001600160a01b0393909316845291905290205460ff1690565b600061072b7fa21b4d8440b478c033018a500413e67ca2910a10ce4992fb2dcba26856a32e8983611a11565b6000611a738161257e565b5060c980546001600160a01b0319166001600160a01b0392909216919091179055565b600081815260976020526040812061072b90612783565b600080516020613af8833981519152611ac58161257e565b600084815260ca602090815260408083208684529091528120805484908110611af057611af06135f0565b600091825260208083209091015487835260ca8252604080842088855290925290822054909250611b239060019061358b565b600087815260ca60209081526040808320898452909152902080549192509082908110611b5257611b526135f0565b600091825260208083209091015488835260ca825260408084208985529092529120805486908110611b8657611b866135f0565b600091825260208083209091019290925587815260ca8252604080822088835290925220805480611bb957611bb9613652565b60019003818190600052602060002001600090559055600060cb60008481526020019081526020016000206002018054611bf2906133ce565b80601f0160208091040260200160405190810160405280929190818152602001828054611c1e906133ce565b8015611c6b5780601f10611c4057610100808354040283529160200191611c6b565b820191906000526020600020905b815481529060010190602001808311611c4e57829003601f168201915b505050600086815260cb60205260408120818155600181018290559394509150611c9a90506002830182612c16565b611ca8600383016000612c16565b600482016000905550506000878783604051602001611cc993929190613668565b60408051601f198184030181528282528051602091820120600081815260cd9092529181205591507f2becd600b42eb771bee46672694b5a9e9d0acb6638d9c9a5e39bcc70954b741690611d209088815260200190565b60405180910390a15050505050505050565b60ca6020528260005260406000206020528160005260406000208181548110611d5a57600080fd5b9060005260206000200160009250925050505481565b600082815260656020526040902060010154611d8b8161257e565b610f3483836125aa565b600080516020613af8833981519152611dad8161257e565b813515801590611dca5750611dc56040830183613695565b151590505b8015611de35750611dde6060830183613695565b151590505b8015611df3575060008260200135115b6040518060400160405280600a81526020016956414c55455f5a45524f60b01b81525090611e345760405162461bcd60e51b8152600401610b969190613446565b50600082356020840135611e4b6040860186613695565b604051602001611e5e9493929190613408565b60408051601f198184030181528282528051602091820120600081815260cd835283902054848401909352600b84526a24a72b20a624a22fa2a4a760a91b91840191909152925015611ec35760405162461bcd60e51b8152600401610b969190613446565b50600060cc60008154611ed590613606565b9182905550600083815260cd6020908152604080832084905583835260cb90915290209091508490611f078282613795565b505060c954604051630283b11d60e41b81526000916001600160a01b03169063283b11d090611f3a908890600401613904565b6020604051808303816000875af1158015611f59573d6000803e3d6000fd5b505050506040513d601f19601f82011682018060405250810190611f7d9190613429565b604080518481526001600160a01b03831660208201529192507f101856a493ff171c996b3f5ccb7f358d91bcf5c3e3c6858be43f924132d67656910160405180910390a1600082815260d36020526040902080546001600160a01b0319166001600160a01b038316179055306001600160a01b0316634dbb83fd3330600063e7fce55f60e01b8a6040516024016120149190613904565b60408051601f198184030181529181526020820180516001600160e01b03166001600160e01b03199485161790525160e087901b909216825261205c9493929160040161361f565b600060405180830381600087803b15801561207657600080fd5b505af115801561208a573d6000803e3d6000fd5b505050505050505050565b6120c76040518060a0016040528060008152602001600081526020016060815260200160608152602001600081525090565b60c95460408051808201909152600b81526a4e4f545f5345525649434560a81b6020820152906001600160a01b031633146121155760405162461bcd60e51b8152600401610b969190613446565b50600083815260ca60209081526040808320858452825291829020548251808401909352600a8352694e4f5f434f4d50414e5960b01b9183019190915290816121715760405162461bcd60e51b8152600401610b969190613446565b50600084815260ca60209081526040808320868452909152812061219660018461358b565b815481106121a6576121a66135f0565b600091825260208083209091015487835260ca825260408084208885529092529120805491925090806121db576121db613652565b6001900381819060005260206000200160009055905560cb60008281526020019081526020016000206040518060a00160405290816000820154815260200160018201548152602001600282018054612233906133ce565b80601f016020809104026020016040519081016040528092919081815260200182805461225f906133ce565b80156122ac5780601f10612281576101008083540402835291602001916122ac565b820191906000526020600020905b81548152906001019060200180831161228f57829003601f168201915b505050505081526020016003820180546122c5906133ce565b80601f01602080910402602001604051908101604052809291908181526020018280546122f1906133ce565b801561233e5780601f106123135761010080835404028352916020019161233e565b820191906000526020600020905b81548152906001019060200180831161232157829003601f168201915b505050918352505060049190910154602091820152600083815260cb909152604081208181556001810182905591945061237b6002830182612c16565b612389600383016000612c16565b60048201600090555050505092915050565b60c95460408051808201909152600b81526a4e4f545f5345525649434560a81b60208201526000916001600160a01b031633146123eb5760405162461bcd60e51b8152600401610b969190613446565b50604080516060810182526001600160a01b038581168252602080830186815284519182018552600080835294840191825260d08054600181018255955283517fe89d44c8fd6a9bac8af33ce47f56337617d449bf7ff3956b618c646de829cbcb600390960295860180546001600160a01b03191691909416178355517fe89d44c8fd6a9bac8af33ce47f56337617d449bf7ff3956b618c646de829cbcc85015551919290917fe89d44c8fd6a9bac8af33ce47f56337617d449bf7ff3956b618c646de829cbcd909101906124c090826134bc565b505060d0546124d2915060019061358b565b6001600160a01b038416600090815260d26020908152604080832086845290915290208190559050604080518281526001600160a01b03851660208201529081018390527f275b6fbf6c9e793a28d01c614ff750fb316acacb6c25f06fdb8ac72d9dbabb089060600160405180910390a192915050565b60006001600160e01b03198216637965db0b60e01b148061072b57506301ffc9a760e01b6001600160e01b031983161461072b565b6119f6813361278d565b61259282826127e6565b6000828152609760205260409020610f34908261286c565b6125b48282612881565b6000828152609760205260409020610f3490826128e8565b600080516020613af88339815191526125e48161257e565b876001600160a01b031663165610766040518163ffffffff1660e01b8152600401600060405180830381865afa158015612622573d6000803e3d6000fd5b505050506040513d6000823e601f3d908101601f1916820160405261264a919081019061397c565b5160408051808201909152600b81526a1053149150511657d4d15560aa1b6020820152901561268c5760405162461bcd60e51b8152600401610b969190613446565b506040516301bbd77560e11b81526001600160a01b03891690630377aeea906126c3908a908a908a908a908a908a906004016139e9565b600060405180830381600087803b1580156126dd57600080fd5b505af11580156126f1573d6000803e3d6000fd5b505050505050505050505050565b600054610100900460ff1661276a5760405162461bcd60e51b815260206004820152602b60248201527f496e697469616c697a61626c653a20636f6e7472616374206973206e6f74206960448201526a6e697469616c697a696e6760a81b6064820152608401610b96565b612775600033612588565b565b60006118e183836128fd565b600061072b825490565b6127978282611a11565b610fb3576127a481612927565b6127af836020612939565b6040516020016127c0929190613a41565b60408051601f198184030181529082905262461bcd60e51b8252610b9691600401613446565b6127f08282611a11565b610fb35760008281526065602090815260408083206001600160a01b03851684529091529020805460ff191660011790556128283390565b6001600160a01b0316816001600160a01b0316837f2f8788117e7eff1d82e926ec794901d17c78024a50270940304540a733656f0d60405160405180910390a45050565b60006118e1836001600160a01b038416612ad4565b61288b8282611a11565b15610fb35760008281526065602090815260408083206001600160a01b0385168085529252808320805460ff1916905551339285917ff6391f5c32d9c69d2a47ea670b442974b53935d1edc7fd64eb21e047a839171b9190a45050565b60006118e1836001600160a01b038416612b23565b6000826000018281548110612914576129146135f0565b9060005260206000200154905092915050565b606061072b6001600160a01b03831660145b60606000612948836002613ab6565b612953906002613acd565b6001600160401b0381111561296a5761296a612ebe565b6040519080825280601f01601f191660200182016040528015612994576020820181803683370190505b509050600360fc1b816000815181106129af576129af6135f0565b60200101906001600160f81b031916908160001a905350600f60fb1b816001815181106129de576129de6135f0565b60200101906001600160f81b031916908160001a9053506000612a02846002613ab6565b612a0d906001613acd565b90505b6001811115612a85576f181899199a1a9b1b9c1cb0b131b232b360811b85600f1660108110612a4157612a416135f0565b1a60f81b828281518110612a5757612a576135f0565b60200101906001600160f81b031916908160001a90535060049490941c93612a7e81613ae0565b9050612a10565b5083156118e15760405162461bcd60e51b815260206004820181905260248201527f537472696e67733a20686578206c656e67746820696e73756666696369656e746044820152606401610b96565b6000818152600183016020526040812054612b1b5750815460018181018455600084815260208082209093018490558454848252828601909352604090209190915561072b565b50600061072b565b60008181526001830160205260408120548015612c0c576000612b4760018361358b565b8554909150600090612b5b9060019061358b565b9050818114612bc0576000866000018281548110612b7b57612b7b6135f0565b9060005260206000200154905080876000018481548110612b9e57612b9e6135f0565b6000918252602080832090910192909255918252600188019052604090208390555b8554869080612bd157612bd1613652565b60019003818190600052602060002001600090559055856001016000868152602001908152602001600020600090556001935050505061072b565b600091505061072b565b508054612c22906133ce565b6000825580601f10612c32575050565b601f0160209004906000526020600020908101906119f691905b80821115612c605760008155600101612c4c565b5090565b600060208284031215612c7657600080fd5b81356001600160e01b0319811681146118e157600080fd5b600060208284031215612ca057600080fd5b5035919050565b60008060408385031215612cba57600080fd5b50508035926020909101359150565b634e487b7160e01b600052602160045260246000fd5b60048110612cef57612cef612cc9565b9052565b60005b83811015612d0e578181015183820152602001612cf6565b50506000910152565b60008151808452612d2f816020860160208601612cf3565b601f01601f19169290920160200192915050565b612d4d8187612cdf565b6001600160a01b038581166020830152841660408201526060810183905260a060808201819052600090612d8390830184612d17565b979650505050505050565b60008083601f840112612da057600080fd5b5081356001600160401b03811115612db757600080fd5b602083019150836020828501011115612dcf57600080fd5b9250929050565b60008060008060608587031215612dec57600080fd5b843593506020850135925060408501356001600160401b03811115612e1057600080fd5b612e1c87828801612d8e565b95989497509550505050565b6020815281516020820152602082015160408201526000604083015160a06060840152612e5860c0840182612d17565b90506060840151601f19848303016080850152612e758282612d17565b915050608084015160a08401528091505092915050565b6001600160a01b03811681146119f657600080fd5b600060208284031215612eb357600080fd5b81356118e181612e8c565b634e487b7160e01b600052604160045260246000fd5b60405160a081016001600160401b0381118282101715612ef657612ef6612ebe565b60405290565b604051601f8201601f191681016001600160401b0381118282101715612f2457612f24612ebe565b604052919050565b60006001600160401b03821115612f4557612f45612ebe565b50601f01601f191660200190565b6000612f66612f6184612f2c565b612efc565b9050828152838383011115612f7a57600080fd5b828260208301376000602084830101529392505050565b600082601f830112612fa257600080fd5b6118e183833560208501612f53565b600080600060608486031215612fc657600080fd5b8335612fd181612e8c565b9250602084013560058110612fe557600080fd5b915060408401356001600160401b0381111561300057600080fd5b61300c86828701612f91565b9150509250925092565b60018060a01b038416815282602082015260606040820152600061303d6060830184612d17565b95945050505050565b85815284602082015260a06040820152600061306560a0830186612d17565b82810360608401526130778186612d17565b9150508260808301529695505050505050565b6000806040838503121561309d57600080fd5b8235915060208301356130af81612e8c565b809150509250929050565b60008060008060008060a087890312156130d357600080fd5b86356130de81612e8c565b95506020870135600481106130f257600080fd5b9450604087013561310281612e8c565b93506060870135925060808701356001600160401b0381111561312457600080fd5b61313089828a01612d8e565b979a9699509497509295939492505050565b6000806020838503121561315557600080fd5b82356001600160401b038082111561316c57600080fd5b818501915085601f83011261318057600080fd5b81358181111561318f57600080fd5b8660208260051b85010111156131a457600080fd5b60209290920196919550909350505050565b600080600080608085870312156131cc57600080fd5b84356131d781612e8c565b935060208501356131e781612e8c565b92506040850135915060608501356001600160401b0381111561320957600080fd5b8501601f8101871361321a57600080fd5b61322987823560208401612f53565b91505092959194509250565b6000806040838503121561324857600080fd5b8235915060208301356001600160401b038082111561326657600080fd5b9084019060a0828703121561327a57600080fd5b613282612ed4565b82358152602083013560208201526040830135828111156132a257600080fd5b6132ae88828601612f91565b6040830152506060830135828111156132c657600080fd5b6132d288828601612f91565b606083015250608083013560808201528093505050509250929050565b60058110612cef57612cef612cc9565b6001600160a01b038416815261331860208201846132ef565b60606040820152600061303d6060830184612d17565b6020810161072b82846132ef565b6000806040838503121561334f57600080fd5b823561335a81612e8c565b946020939093013593505050565b60008060006060848603121561337d57600080fd5b505081359360208301359350604090920135919050565b6000602082840312156133a657600080fd5b81356001600160401b038111156133bc57600080fd5b820160a081850312156118e157600080fd5b600181811c908216806133e257607f821691505b60208210810361340257634e487b7160e01b600052602260045260246000fd5b50919050565b84815283602082015281836040830137600091016040019081529392505050565b60006020828403121561343b57600080fd5b81516118e181612e8c565b6020815260006118e16020830184612d17565b601f821115610f3457600081815260208120601f850160051c810160208610156134805750805b601f850160051c820191505b8181101561349f5782815560010161348c565b505050505050565b600019600383901b1c191660019190911b1790565b81516001600160401b038111156134d5576134d5612ebe565b6134e9816134e384546133ce565b84613459565b602080601f83116001811461351857600084156135065750858301515b61351085826134a7565b86555061349f565b600085815260208120601f198616915b8281101561354757888601518255948401946001909101908401613528565b50858210156135655787850151600019600388901b60f8161c191681555b5050505050600190811b01905550565b634e487b7160e01b600052601160045260246000fd5b8181038181111561072b5761072b613575565b8381526001600160a01b0383166020820152606081016109d660408301846132ef565b848152608081016135d56020830186612cdf565b6001600160a01b039390931660408201526060015292915050565b634e487b7160e01b600052603260045260246000fd5b60006001820161361857613618613575565b5060010190565b6001600160a01b038581168252841660208201526040810183905260806060820181905260009061185090830184612d17565b634e487b7160e01b600052603160045260246000fd5b83815282602082015260008251613686816040850160208701612cf3565b91909101604001949350505050565b6000808335601e198436030181126136ac57600080fd5b8301803591506001600160401b038211156136c657600080fd5b602001915036819003821315612dcf57600080fd5b6001600160401b038311156136f2576136f2612ebe565b6137068361370083546133ce565b83613459565b6000601f84116001811461373457600085156137225750838201355b61372c86826134a7565b84555061378e565b600083815260209020601f19861690835b828110156137655786850135825560209485019460019092019101613745565b50868210156137825760001960f88860031b161c19848701351681555b505060018560011b0183555b5050505050565b81358155600160208084013582840155600283016137b66040860186613695565b6001600160401b038111156137cd576137cd612ebe565b6137e1816137db85546133ce565b85613459565b6000601f82116001811461380f57600083156137fd5750838201355b61380784826134a7565b865550613864565b600085815260209020601f19841690835b8281101561383d5786850135825593880193908901908801613820565b508482101561385a5760001960f88660031b161c19848701351681555b50508683881b0185555b505050505050506138786060830183613695565b6138868183600386016136db565b5050608082013560048201555050565b6000808335601e198436030181126138ad57600080fd5b83016020810192503590506001600160401b038111156138cc57600080fd5b803603821315612dcf57600080fd5b81835281816020850137506000828201602090810191909152601f909101601f19169091010190565b60208152813560208201526020820135604082015260006139286040840184613896565b60a0606085015261393d60c0850182846138db565b91505061394d6060850185613896565b848303601f190160808601526139648382846138db565b92505050608084013560a08401528091505092915050565b60006020828403121561398e57600080fd5b81516001600160401b038111156139a457600080fd5b8201601f810184136139b557600080fd5b80516139c3612f6182612f2c565b8181528560208385010111156139d857600080fd5b61303d826020830160208601612cf3565b86815285602082015284604082015260c060608201526000613a0e60c0830186612d17565b8281036080840152613a208186612d17565b905082810360a0840152613a348185612d17565b9998505050505050505050565b7f416363657373436f6e74726f6c3a206163636f756e7420000000000000000000815260008351613a79816017850160208801612cf3565b7001034b99036b4b9b9b4b733903937b6329607d1b6017918401918201528351613aaa816028840160208801612cf3565b01602801949350505050565b808202811582820484141761072b5761072b613575565b8082018082111561072b5761072b613575565b600081613aef57613aef613575565b50600019019056fe0482b95699990ff052aaeda01e4b518e6066bb6d6932719cd6a7bf74a2fb5e81a264697066735822122027e1acef03e5de8961521f55e5101f517e197c206c820f6c611459501ce864b664736f6c63430008110033",
  "devdoc": {
    "details": "The repository of all user and business entities created by the protocol: companies to be implemented, contracts to be deployed, proposals created by shareholders. The main logic of the registry is implemented in contracts that inherit from Registry.",
    "kind": "dev",
    "methods": {
      "addContractRecord(address,uint8,string)": {
        "details": "This method is used by the main Service contract in order to save the data of the contracts it deploys. After the Registry contract receives the address and type of the created contract from the Service contract, it sends back as a response the sequence number/index assigned to the new record.",
        "params": {
          "addr": "Contract address",
          "contractType": "Contract type"
        },
        "returns": {
          "index": "Record index"
        }
      },
      "addEventRecord(address,uint8,address,uint256,string)": {
        "details": "This method is used to register events - specific entities associated with the operational activities of pools and the transfer of various values as a result of the use of ecosystem contracts. Each event also has a metahash string field, which is the identifier of the private description of the event stored on the backend.",
        "params": {
          "eventContract": "Address of the event contract",
          "eventType": "Event type",
          "metaHash": "Hash value of event metadata",
          "pool": "Pool address",
          "proposalId": "Proposal ID"
        },
        "returns": {
          "index": "Record index"
        }
      },
      "addProposalRecord(address,uint256)": {
        "details": "This method accepts data from the Service contract about the created nodes in the pools. If there is an internal index of the proposal in the contract of the pool whose shareholders created the proposal, then as a result of using this method, the proposal is given a global index for the entire ecosystem.",
        "params": {
          "pool": "Pool address",
          "proposalId": "Proposal ID"
        },
        "returns": {
          "index": "Record index"
        }
      },
      "companyAvailable(uint256,uint256)": {
        "details": "This view method is designed to find out whether there is at least one company available for purchase for the jurisdiction and type of organization selected by the user.",
        "params": {
          "entityType": "The digital code of the organization type.",
          "jurisdiction": "The digital code of the jurisdiction."
        },
        "returns": {
          "_0": "\"True\" if at least one company is available"
        }
      },
      "constructor": {
        "custom:oz-upgrades-unsafe-allow": "constructor",
        "details": "This contract uses OpenZeppelin upgrades and has no need for a constructor function. The constructor is replaced with an initializer function. This method disables the initializer feature of the OpenZeppelin upgrades plugin, preventing the initializer methods from being misused."
      },
      "contractRecordsCount()": {
        "returns": {
          "_0": "Contract records count"
        }
      },
      "createCompany((uint256,uint256,string,string,uint256))": {
        "details": "Create company record - A method for creating a new company record, including its legal data and the sale price.",
        "params": {
          "info": "Company Info"
        }
      },
      "deleteCompany(uint256,uint256,uint256)": {
        "details": "This method removes a record from the queue of created companies.",
        "params": {
          "entityType": "The digital code of the organization type.",
          "id": "Queue index.",
          "jurisdiction": "The digital code of the jurisdiction."
        }
      },
      "eventRecordsCount()": {
        "returns": {
          "_0": "Event records count"
        }
      },
      "getAvailableCompanyAddress(uint256,uint256)": {
        "details": "This method allows obtaining the contract address of a company that is available for sale and meets the conditions based on its jurisdiction and entity type.",
        "params": {
          "entityType": "The digital code of the organization type.",
          "jurisdiction": "The digital code of the jurisdiction."
        },
        "returns": {
          "_0": "address The contract pool address."
        }
      },
      "getCompany(uint256,uint256,string)": {
        "details": "This method allows obtaining all the data of a company, including its legal data, that is still available for sale.",
        "params": {
          "ein": "The government registration number.",
          "entityType": "The digital code of the organization type.",
          "jurisdiction": "The digital code of the jurisdiction."
        },
        "returns": {
          "_0": "CompanyInfo The company data."
        }
      },
      "getGlobalProposalId(address,uint256)": {
        "details": "Return global proposal ID",
        "params": {
          "pool": "Pool address",
          "proposalId": "Proposal ID"
        },
        "returns": {
          "_0": "Global proposal ID"
        }
      },
      "getRoleAdmin(bytes32)": {
        "details": "Returns the admin role that controls `role`. See {grantRole} and {revokeRole}. To change a role's admin, use {_setRoleAdmin}."
      },
      "getRoleMember(bytes32,uint256)": {
        "details": "Returns one of the accounts that have `role`. `index` must be a value between 0 and {getRoleMemberCount}, non-inclusive. Role bearers are not sorted in any particular way, and their ordering may change at any point. WARNING: When using {getRoleMember} and {getRoleMemberCount}, make sure you perform all queries on the same block. See the following https://forum.openzeppelin.com/t/iterating-over-elements-on-enumerableset-in-openzeppelin-contracts/2296[forum post] for more information."
      },
      "getRoleMemberCount(bytes32)": {
        "details": "Returns the number of accounts that have `role`. Can be used together with {getRoleMember} to enumerate all bearers of a role."
      },
      "grantRole(bytes32,address)": {
        "details": "Grants `role` to `account`. If `account` had not been already granted `role`, emits a {RoleGranted} event. Requirements: - the caller must have ``role``'s admin role. May emit a {RoleGranted} event."
      },
      "hasRole(bytes32,address)": {
        "details": "Returns `true` if `account` has been granted `role`."
      },
      "initialize()": {
        "details": "This method replaces the constructor for upgradeable contracts."
      },
      "isTokenWhitelisted(address)": {
        "details": "Check if token is whitelisted",
        "params": {
          "token": "Token"
        },
        "returns": {
          "_0": "Is token whitelisted"
        }
      },
      "lockCompany(uint256,uint256)": {
        "details": "Booking the company for the buyer. During the acquisition of a company, this method searches for a free company at the request of the client (jurisdiction and type of organization), if such exist in the companys storage reserve, then the method selects the last of the added companies, extracts its record data and sends it as a response for further work of the Service contract, removes its record from the Registry.",
        "params": {
          "entityType": "   ",
          "jurisdiction": "  "
        },
        "returns": {
          "info": "Company info"
        }
      },
      "proposalRecordsCount()": {
        "returns": {
          "_0": "Proposal records count"
        }
      },
      "renounceRole(bytes32,address)": {
        "details": "Revokes `role` from the calling account. Roles are often managed via {grantRole} and {revokeRole}: this function's purpose is to provide a mechanism for accounts to lose their privileges if they are compromised (such as when a trusted device is misplaced). If the calling account had been revoked `role`, emits a {RoleRevoked} event. Requirements: - the caller must be `account`. May emit a {RoleRevoked} event."
      },
      "revokeRole(bytes32,address)": {
        "details": "Revokes `role` from `account`. If `account` had been granted `role`, emits a {RoleRevoked} event. Requirements: - the caller must have ``role``'s admin role. May emit a {RoleRevoked} event."
      },
      "setService(address)": {
        "details": "This method is executed during deployment and upgrade of the contract to link the main protocol contract with the Registry data storage by storing the address of the Service contract."
      },
      "supportsInterface(bytes4)": {
        "details": "See {IERC165-supportsInterface}."
      },
      "typeOf(address)": {
        "params": {
          "addr": "Address of contract"
        },
        "returns": {
          "_0": "Contract type"
        }
      }
    },
    "stateVariables": {
      "globalProposalIds": {
        "details": "This mapping stores the correspondence between the pool address, the local proposal number, and its global number registered in the registry."
      }
    },
    "title": "Registry Contract",
    "version": 1
  },
  "userdoc": {
    "kind": "user",
    "methods": {
      "COMPANIES_MANAGER_ROLE()": {
        "notice": "Hash code for the COMPANIES_MANAGER role in the OpenZeppelin (OZ) Access Control model."
      },
      "constructor": {
        "notice": "Contract constructor."
      },
      "contractRecordsCount()": {
        "notice": "Returns number of contract records"
      },
      "eventRecordsCount()": {
        "notice": "Returns number of event records"
      },
      "initialize()": {
        "notice": "Contract initializer"
      },
      "lockCompany(uint256,uint256)": {
        "notice": "Lock company record"
      },
      "proposalRecordsCount()": {
        "notice": "Returns number of proposal records"
      },
      "typeOf(address)": {
        "notice": "Returns type of given contract"
      }
    },
    "notice": "This contract serves as a registry to store all events, contracts, and proposals of all pools using global sequential numbering.",
    "version": 1
  },
  "storageLayout": {
    "storage": [
      {
        "astId": 1184,
        "contract": "contracts/Registry.sol:Registry",
        "label": "_initialized",
        "offset": 0,
        "slot": "0",
        "type": "t_uint8"
      },
      {
        "astId": 1187,
        "contract": "contracts/Registry.sol:Registry",
        "label": "_initializing",
        "offset": 1,
        "slot": "0",
        "type": "t_bool"
      },
      {
        "astId": 5634,
        "contract": "contracts/Registry.sol:Registry",
        "label": "__gap",
        "offset": 0,
        "slot": "1",
        "type": "t_array(t_uint256)50_storage"
      },
      {
        "astId": 6579,
        "contract": "contracts/Registry.sol:Registry",
        "label": "__gap",
        "offset": 0,
        "slot": "51",
        "type": "t_array(t_uint256)50_storage"
      },
      {
        "astId": 184,
        "contract": "contracts/Registry.sol:Registry",
        "label": "_roles",
        "offset": 0,
        "slot": "101",
        "type": "t_mapping(t_bytes32,t_struct(RoleData)179_storage)"
      },
      {
        "astId": 479,
        "contract": "contracts/Registry.sol:Registry",
        "label": "__gap",
        "offset": 0,
        "slot": "102",
        "type": "t_array(t_uint256)49_storage"
      },
      {
        "astId": 33,
        "contract": "contracts/Registry.sol:Registry",
        "label": "_roleMembers",
        "offset": 0,
        "slot": "151",
        "type": "t_mapping(t_bytes32,t_struct(AddressSet)9324_storage)"
      },
      {
        "astId": 143,
        "contract": "contracts/Registry.sol:Registry",
        "label": "__gap",
        "offset": 0,
        "slot": "152",
        "type": "t_array(t_uint256)49_storage"
      },
      {
        "astId": 24059,
        "contract": "contracts/Registry.sol:Registry",
        "label": "service",
        "offset": 0,
        "slot": "201",
        "type": "t_address"
      },
      {
        "astId": 23223,
        "contract": "contracts/Registry.sol:Registry",
        "label": "queue",
        "offset": 0,
        "slot": "202",
        "type": "t_mapping(t_uint256,t_mapping(t_uint256,t_array(t_uint256)dyn_storage))"
      },
      {
        "astId": 23229,
        "contract": "contracts/Registry.sol:Registry",
        "label": "companies",
        "offset": 0,
        "slot": "203",
        "type": "t_mapping(t_uint256,t_struct(CompanyInfo)22820_storage)"
      },
      {
        "astId": 23232,
        "contract": "contracts/Registry.sol:Registry",
        "label": "lastCompanyIndex",
        "offset": 0,
        "slot": "204",
        "type": "t_uint256"
      },
      {
        "astId": 23237,
        "contract": "contracts/Registry.sol:Registry",
        "label": "companyIndex",
        "offset": 0,
        "slot": "205",
        "type": "t_mapping(t_bytes32,t_uint256)"
      },
      {
        "astId": 23789,
        "contract": "contracts/Registry.sol:Registry",
        "label": "contractRecords",
        "offset": 0,
        "slot": "206",
        "type": "t_array(t_struct(ContractInfo)22858_storage)dyn_storage"
      },
      {
        "astId": 23800,
        "contract": "contracts/Registry.sol:Registry",
        "label": "indexOfContract",
        "offset": 0,
        "slot": "207",
        "type": "t_mapping(t_address,t_struct(ContractIndex)23794_storage)"
      },
      {
        "astId": 23805,
        "contract": "contracts/Registry.sol:Registry",
        "label": "proposalRecords",
        "offset": 0,
        "slot": "208",
        "type": "t_array(t_struct(ProposalInfo)22865_storage)dyn_storage"
      },
      {
        "astId": 23810,
        "contract": "contracts/Registry.sol:Registry",
        "label": "events",
        "offset": 0,
        "slot": "209",
        "type": "t_array(t_struct(Event)22877_storage)dyn_storage"
      },
      {
        "astId": 13598,
        "contract": "contracts/Registry.sol:Registry",
        "label": "globalProposalIds",
        "offset": 0,
        "slot": "210",
        "type": "t_mapping(t_address,t_mapping(t_uint256,t_uint256))"
      },
      {
        "astId": 13612,
        "contract": "contracts/Registry.sol:Registry",
        "label": "companyAddress",
        "offset": 0,
        "slot": "211",
        "type": "t_mapping(t_uint256,t_address)"
      }
    ],
    "types": {
      "t_address": {
        "encoding": "inplace",
        "label": "address",
        "numberOfBytes": "20"
      },
      "t_array(t_bytes32)dyn_storage": {
        "base": "t_bytes32",
        "encoding": "dynamic_array",
        "label": "bytes32[]",
        "numberOfBytes": "32"
      },
      "t_array(t_struct(ContractInfo)22858_storage)dyn_storage": {
        "base": "t_struct(ContractInfo)22858_storage",
        "encoding": "dynamic_array",
        "label": "struct IRecordsRegistry.ContractInfo[]",
        "numberOfBytes": "32"
      },
      "t_array(t_struct(Event)22877_storage)dyn_storage": {
        "base": "t_struct(Event)22877_storage",
        "encoding": "dynamic_array",
        "label": "struct IRecordsRegistry.Event[]",
        "numberOfBytes": "32"
      },
      "t_array(t_struct(ProposalInfo)22865_storage)dyn_storage": {
        "base": "t_struct(ProposalInfo)22865_storage",
        "encoding": "dynamic_array",
        "label": "struct IRecordsRegistry.ProposalInfo[]",
        "numberOfBytes": "32"
      },
      "t_array(t_uint256)49_storage": {
        "base": "t_uint256",
        "encoding": "inplace",
        "label": "uint256[49]",
        "numberOfBytes": "1568"
      },
      "t_array(t_uint256)50_storage": {
        "base": "t_uint256",
        "encoding": "inplace",
        "label": "uint256[50]",
        "numberOfBytes": "1600"
      },
      "t_array(t_uint256)dyn_storage": {
        "base": "t_uint256",
        "encoding": "dynamic_array",
        "label": "uint256[]",
        "numberOfBytes": "32"
      },
      "t_bool": {
        "encoding": "inplace",
        "label": "bool",
        "numberOfBytes": "1"
      },
      "t_bytes32": {
        "encoding": "inplace",
        "label": "bytes32",
        "numberOfBytes": "32"
      },
      "t_enum(ContractType)22845": {
        "encoding": "inplace",
        "label": "enum IRecordsRegistry.ContractType",
        "numberOfBytes": "1"
      },
      "t_enum(EventType)22850": {
        "encoding": "inplace",
        "label": "enum IRecordsRegistry.EventType",
        "numberOfBytes": "1"
      },
      "t_mapping(t_address,t_bool)": {
        "encoding": "mapping",
        "key": "t_address",
        "label": "mapping(address => bool)",
        "numberOfBytes": "32",
        "value": "t_bool"
      },
      "t_mapping(t_address,t_mapping(t_uint256,t_uint256))": {
        "encoding": "mapping",
        "key": "t_address",
        "label": "mapping(address => mapping(uint256 => uint256))",
        "numberOfBytes": "32",
        "value": "t_mapping(t_uint256,t_uint256)"
      },
      "t_mapping(t_address,t_struct(ContractIndex)23794_storage)": {
        "encoding": "mapping",
        "key": "t_address",
        "label": "mapping(address => struct RecordsRegistry.ContractIndex)",
        "numberOfBytes": "32",
        "value": "t_struct(ContractIndex)23794_storage"
      },
      "t_mapping(t_bytes32,t_struct(AddressSet)9324_storage)": {
        "encoding": "mapping",
        "key": "t_bytes32",
        "label": "mapping(bytes32 => struct EnumerableSetUpgradeable.AddressSet)",
        "numberOfBytes": "32",
        "value": "t_struct(AddressSet)9324_storage"
      },
      "t_mapping(t_bytes32,t_struct(RoleData)179_storage)": {
        "encoding": "mapping",
        "key": "t_bytes32",
        "label": "mapping(bytes32 => struct AccessControlUpgradeable.RoleData)",
        "numberOfBytes": "32",
        "value": "t_struct(RoleData)179_storage"
      },
      "t_mapping(t_bytes32,t_uint256)": {
        "encoding": "mapping",
        "key": "t_bytes32",
        "label": "mapping(bytes32 => uint256)",
        "numberOfBytes": "32",
        "value": "t_uint256"
      },
      "t_mapping(t_uint256,t_address)": {
        "encoding": "mapping",
        "key": "t_uint256",
        "label": "mapping(uint256 => address)",
        "numberOfBytes": "32",
        "value": "t_address"
      },
      "t_mapping(t_uint256,t_array(t_uint256)dyn_storage)": {
        "encoding": "mapping",
        "key": "t_uint256",
        "label": "mapping(uint256 => uint256[])",
        "numberOfBytes": "32",
        "value": "t_array(t_uint256)dyn_storage"
      },
      "t_mapping(t_uint256,t_mapping(t_uint256,t_array(t_uint256)dyn_storage))": {
        "encoding": "mapping",
        "key": "t_uint256",
        "label": "mapping(uint256 => mapping(uint256 => uint256[]))",
        "numberOfBytes": "32",
        "value": "t_mapping(t_uint256,t_array(t_uint256)dyn_storage)"
      },
      "t_mapping(t_uint256,t_struct(CompanyInfo)22820_storage)": {
        "encoding": "mapping",
        "key": "t_uint256",
        "label": "mapping(uint256 => struct ICompaniesRegistry.CompanyInfo)",
        "numberOfBytes": "32",
        "value": "t_struct(CompanyInfo)22820_storage"
      },
      "t_mapping(t_uint256,t_uint256)": {
        "encoding": "mapping",
        "key": "t_uint256",
        "label": "mapping(uint256 => uint256)",
        "numberOfBytes": "32",
        "value": "t_uint256"
      },
      "t_string_storage": {
        "encoding": "bytes",
        "label": "string",
        "numberOfBytes": "32"
      },
      "t_struct(AddressSet)9324_storage": {
        "encoding": "inplace",
        "label": "struct EnumerableSetUpgradeable.AddressSet",
        "members": [
          {
            "astId": 9323,
            "contract": "contracts/Registry.sol:Registry",
            "label": "_inner",
            "offset": 0,
            "slot": "0",
            "type": "t_struct(Set)9009_storage"
          }
        ],
        "numberOfBytes": "64"
      },
      "t_struct(CompanyInfo)22820_storage": {
        "encoding": "inplace",
        "label": "struct ICompaniesRegistry.CompanyInfo",
        "members": [
          {
            "astId": 22811,
            "contract": "contracts/Registry.sol:Registry",
            "label": "jurisdiction",
            "offset": 0,
            "slot": "0",
            "type": "t_uint256"
          },
          {
            "astId": 22813,
            "contract": "contracts/Registry.sol:Registry",
            "label": "entityType",
            "offset": 0,
            "slot": "1",
            "type": "t_uint256"
          },
          {
            "astId": 22815,
            "contract": "contracts/Registry.sol:Registry",
            "label": "ein",
            "offset": 0,
            "slot": "2",
            "type": "t_string_storage"
          },
          {
            "astId": 22817,
            "contract": "contracts/Registry.sol:Registry",
            "label": "dateOfIncorporation",
            "offset": 0,
            "slot": "3",
            "type": "t_string_storage"
          },
          {
            "astId": 22819,
            "contract": "contracts/Registry.sol:Registry",
            "label": "fee",
            "offset": 0,
            "slot": "4",
            "type": "t_uint256"
          }
        ],
        "numberOfBytes": "160"
      },
      "t_struct(ContractIndex)23794_storage": {
        "encoding": "inplace",
        "label": "struct RecordsRegistry.ContractIndex",
        "members": [
          {
            "astId": 23791,
            "contract": "contracts/Registry.sol:Registry",
            "label": "exists",
            "offset": 0,
            "slot": "0",
            "type": "t_bool"
          },
          {
            "astId": 23793,
            "contract": "contracts/Registry.sol:Registry",
            "label": "index",
            "offset": 1,
            "slot": "0",
            "type": "t_uint160"
          }
        ],
        "numberOfBytes": "32"
      },
      "t_struct(ContractInfo)22858_storage": {
        "encoding": "inplace",
        "label": "struct IRecordsRegistry.ContractInfo",
        "members": [
          {
            "astId": 22852,
            "contract": "contracts/Registry.sol:Registry",
            "label": "addr",
            "offset": 0,
            "slot": "0",
            "type": "t_address"
          },
          {
            "astId": 22855,
            "contract": "contracts/Registry.sol:Registry",
            "label": "contractType",
            "offset": 20,
            "slot": "0",
            "type": "t_enum(ContractType)22845"
          },
          {
            "astId": 22857,
            "contract": "contracts/Registry.sol:Registry",
            "label": "description",
            "offset": 0,
            "slot": "1",
            "type": "t_string_storage"
          }
        ],
        "numberOfBytes": "64"
      },
      "t_struct(Event)22877_storage": {
        "encoding": "inplace",
        "label": "struct IRecordsRegistry.Event",
        "members": [
          {
            "astId": 22868,
            "contract": "contracts/Registry.sol:Registry",
            "label": "eventType",
            "offset": 0,
            "slot": "0",
            "type": "t_enum(EventType)22850"
          },
          {
            "astId": 22870,
            "contract": "contracts/Registry.sol:Registry",
            "label": "pool",
            "offset": 1,
            "slot": "0",
            "type": "t_address"
          },
          {
            "astId": 22872,
            "contract": "contracts/Registry.sol:Registry",
            "label": "eventContract",
            "offset": 0,
            "slot": "1",
            "type": "t_address"
          },
          {
            "astId": 22874,
            "contract": "contracts/Registry.sol:Registry",
            "label": "proposalId",
            "offset": 0,
            "slot": "2",
            "type": "t_uint256"
          },
          {
            "astId": 22876,
            "contract": "contracts/Registry.sol:Registry",
            "label": "metaHash",
            "offset": 0,
            "slot": "3",
            "type": "t_string_storage"
          }
        ],
        "numberOfBytes": "128"
      },
      "t_struct(ProposalInfo)22865_storage": {
        "encoding": "inplace",
        "label": "struct IRecordsRegistry.ProposalInfo",
        "members": [
          {
            "astId": 22860,
            "contract": "contracts/Registry.sol:Registry",
            "label": "pool",
            "offset": 0,
            "slot": "0",
            "type": "t_address"
          },
          {
            "astId": 22862,
            "contract": "contracts/Registry.sol:Registry",
            "label": "proposalId",
            "offset": 0,
            "slot": "1",
            "type": "t_uint256"
          },
          {
            "astId": 22864,
            "contract": "contracts/Registry.sol:Registry",
            "label": "description",
            "offset": 0,
            "slot": "2",
            "type": "t_string_storage"
          }
        ],
        "numberOfBytes": "96"
      },
      "t_struct(RoleData)179_storage": {
        "encoding": "inplace",
        "label": "struct AccessControlUpgradeable.RoleData",
        "members": [
          {
            "astId": 176,
            "contract": "contracts/Registry.sol:Registry",
            "label": "members",
            "offset": 0,
            "slot": "0",
            "type": "t_mapping(t_address,t_bool)"
          },
          {
            "astId": 178,
            "contract": "contracts/Registry.sol:Registry",
            "label": "adminRole",
            "offset": 0,
            "slot": "1",
            "type": "t_bytes32"
          }
        ],
        "numberOfBytes": "64"
      },
      "t_struct(Set)9009_storage": {
        "encoding": "inplace",
        "label": "struct EnumerableSetUpgradeable.Set",
        "members": [
          {
            "astId": 9004,
            "contract": "contracts/Registry.sol:Registry",
            "label": "_values",
            "offset": 0,
            "slot": "0",
            "type": "t_array(t_bytes32)dyn_storage"
          },
          {
            "astId": 9008,
            "contract": "contracts/Registry.sol:Registry",
            "label": "_indexes",
            "offset": 0,
            "slot": "1",
            "type": "t_mapping(t_bytes32,t_uint256)"
          }
        ],
        "numberOfBytes": "64"
      },
      "t_uint160": {
        "encoding": "inplace",
        "label": "uint160",
        "numberOfBytes": "20"
      },
      "t_uint256": {
        "encoding": "inplace",
        "label": "uint256",
        "numberOfBytes": "32"
      },
      "t_uint8": {
        "encoding": "inplace",
        "label": "uint8",
        "numberOfBytes": "1"
      }
    }
  }
}