{
  "address": "0xAd917D0C352e66025414eCd2e4df155d9CE3DA0e",
  "abi": [
    {
      "inputs": [],
      "stateMutability": "nonpayable",
      "type": "constructor"
    },
    {
      "anonymous": false,
      "inputs": [
        {
          "indexed": false,
          "internalType": "uint8",
          "name": "version",
          "type": "uint8"
        }
      ],
      "name": "Initialized",
      "type": "event"
    },
    {
      "inputs": [
        {
          "internalType": "address",
          "name": "pool",
          "type": "address"
        },
        {
          "components": [
            {
              "internalType": "enum IToken.TokenType",
              "name": "tokenType",
              "type": "uint8"
            },
            {
              "internalType": "string",
              "name": "name",
              "type": "string"
            },
            {
              "internalType": "string",
              "name": "symbol",
              "type": "string"
            },
            {
              "internalType": "string",
              "name": "description",
              "type": "string"
            },
            {
              "internalType": "uint256",
              "name": "cap",
              "type": "uint256"
            },
            {
              "internalType": "uint8",
              "name": "decimals",
              "type": "uint8"
            }
          ],
          "internalType": "struct IToken.TokenInfo",
          "name": "info",
          "type": "tuple"
        },
        {
          "internalType": "address",
          "name": "primaryTGE",
          "type": "address"
        }
      ],
      "name": "createToken",
      "outputs": [
        {
          "internalType": "address",
          "name": "token",
          "type": "address"
        }
      ],
      "stateMutability": "nonpayable",
      "type": "function"
    },
    {
      "inputs": [
        {
          "internalType": "address",
          "name": "pool",
          "type": "address"
        },
        {
          "components": [
            {
              "internalType": "enum IToken.TokenType",
              "name": "tokenType",
              "type": "uint8"
            },
            {
              "internalType": "string",
              "name": "name",
              "type": "string"
            },
            {
              "internalType": "string",
              "name": "symbol",
              "type": "string"
            },
            {
              "internalType": "string",
              "name": "description",
              "type": "string"
            },
            {
              "internalType": "uint256",
              "name": "cap",
              "type": "uint256"
            },
            {
              "internalType": "uint8",
              "name": "decimals",
              "type": "uint8"
            }
          ],
          "internalType": "struct IToken.TokenInfo",
          "name": "info",
          "type": "tuple"
        },
        {
          "internalType": "address",
          "name": "primaryTGE",
          "type": "address"
        }
      ],
      "name": "createTokenERC1155",
      "outputs": [
        {
          "internalType": "address",
          "name": "token",
          "type": "address"
        }
      ],
      "stateMutability": "nonpayable",
      "type": "function"
    },
    {
      "inputs": [
        {
          "internalType": "contract IService",
          "name": "service_",
          "type": "address"
        }
      ],
      "name": "initialize",
      "outputs": [],
      "stateMutability": "nonpayable",
      "type": "function"
    },
    {
      "inputs": [],
      "name": "service",
      "outputs": [
        {
          "internalType": "contract IService",
          "name": "",
          "type": "address"
        }
      ],
      "stateMutability": "view",
      "type": "function"
    }
  ],
  "transactionHash": "0x45888e17beb9736bb48ee0e19824b952de8bf2e8da3260f0f81f301620582a20",
  "args": [],
  "numDeployments": 1,
  "solcInputHash": "67fc85ef621887c5a1d0a259d5aa2aa7",
  "bytecode": "0x608060405234801561001057600080fd5b5061001961001e565b6100de565b600054610100900460ff161561008a5760405162461bcd60e51b815260206004820152602760248201527f496e697469616c697a61626c653a20636f6e747261637420697320696e697469604482015266616c697a696e6760c81b606482015260840160405180910390fd5b60005460ff90811610156100dc576000805460ff191660ff9081179091556040519081527f7f26b83ff96e1f2b6a682f133852f6798a09c465da95921460cefb38474024989060200160405180910390a15b565b611467806100ed6000396000f3fe60806040523480156200001157600080fd5b5060043610620000525760003560e01c80634effce121462000057578063807157e7146200008a578063c4d66de814620000a1578063d598d4c914620000ba575b600080fd5b6200006e6200006836600462000810565b620000d4565b6040516001600160a01b03909116815260200160405180910390f35b6200006e6200009b36600462000810565b62000473565b620000b8620000b23660046200092b565b620005a0565b005b6000546200006e906201000090046001600160a01b031681565b60008060029054906101000a90046001600160a01b03166001600160a01b031663102c5c016040518163ffffffff1660e01b8152600401602060405180830381865afa15801562000129573d6000803e3d6000fd5b505050506040513d601f19601f820116820180604052508101906200014f919062000952565b6001600160a01b0316336001600160a01b0316146040518060400160405280600f81526020016e4e4f545f5447455f464143544f525960881b81525090620001b55760405162461bcd60e51b8152600401620001ac9190620009ba565b60405180910390fd5b50600060029054906101000a90046001600160a01b03166001600160a01b031663b3b42f4b6040518163ffffffff1660e01b8152600401602060405180830381865afa1580156200020a573d6000803e3d6000fd5b505050506040513d601f19601f8201168201806040525081019062000230919062000952565b6040516200023e90620006d3565b6001600160a01b039091168152604060208201819052600090820152606001604051809103906000f0801580156200027a573d6000803e3d6000fd5b5060005460405163ac5e23c360e01b81529192506001600160a01b038084169263ac5e23c392620002bd92620100009091041690889088908890600401620009e5565b600060405180830381600087803b158015620002d857600080fd5b505af1158015620002ed573d6000803e3d6000fd5b50505050600060029054906101000a90046001600160a01b03166001600160a01b0316637b1039996040518163ffffffff1660e01b8152600401602060405180830381865afa15801562000345573d6000803e3d6000fd5b505050506040513d601f19601f820116820180604052508101906200036b919062000952565b6001600160a01b0316631f8b4005826001846001600160a01b03166330fa738c6040518163ffffffff1660e01b8152600401602060405180830381865afa158015620003bb573d6000803e3d6000fd5b505050506040513d601f19601f82011682018060405250810190620003e1919062000ab5565b6002811115620003f557620003f5620009cf565b146200040357600362000406565b60025b6040518363ffffffff1660e01b81526004016200042592919062000ad5565b6020604051808303816000875af115801562000445573d6000803e3d6000fd5b505050506040513d601f19601f820116820180604052508101906200046b919062000b17565b509392505050565b60008060029054906101000a90046001600160a01b03166001600160a01b031663102c5c016040518163ffffffff1660e01b8152600401602060405180830381865afa158015620004c8573d6000803e3d6000fd5b505050506040513d601f19601f82011682018060405250810190620004ee919062000952565b6001600160a01b0316336001600160a01b0316146040518060400160405280600f81526020016e4e4f545f5447455f464143544f525960881b815250906200054b5760405162461bcd60e51b8152600401620001ac9190620009ba565b50600060029054906101000a90046001600160a01b03166001600160a01b031663ccf5a77c6040518163ffffffff1660e01b8152600401602060405180830381865afa1580156200020a573d6000803e3d6000fd5b600054610100900460ff1615808015620005c15750600054600160ff909116105b80620005dd5750303b158015620005dd575060005460ff166001145b620006425760405162461bcd60e51b815260206004820152602e60248201527f496e697469616c697a61626c653a20636f6e747261637420697320616c72656160448201526d191e481a5b9a5d1a585b1a5e995960921b6064820152608401620001ac565b6000805460ff19166001179055801562000666576000805461ff0019166101001790555b6000805462010000600160b01b031916620100006001600160a01b038516021790558015620006cf576000805461ff0019169055604051600181527f7f26b83ff96e1f2b6a682f133852f6798a09c465da95921460cefb38474024989060200160405180910390a15b5050565b6109008062000b3283390190565b6001600160a01b0381168114620006f757600080fd5b50565b80356200070781620006e1565b919050565b634e487b7160e01b600052604160045260246000fd5b60405160c0810167ffffffffffffffff811182821017156200074857620007486200070c565b60405290565b60038110620006f757600080fd5b803562000707816200074e565b600082601f8301126200077b57600080fd5b813567ffffffffffffffff808211156200079957620007996200070c565b604051601f8301601f19908116603f01168101908282118183101715620007c457620007c46200070c565b81604052838152866020858801011115620007de57600080fd5b836020870160208301376000602085830101528094505050505092915050565b803560ff811681146200070757600080fd5b6000806000606084860312156200082657600080fd5b83356200083381620006e1565b9250602084013567ffffffffffffffff808211156200085157600080fd5b9085019060c082880312156200086657600080fd5b6200087062000722565b6200087b836200075c565b81526020830135828111156200089057600080fd5b6200089e8982860162000769565b602083015250604083013582811115620008b757600080fd5b620008c58982860162000769565b604083015250606083013582811115620008de57600080fd5b620008ec8982860162000769565b606083015250608083013560808201526200090a60a08401620007fe565b60a082015293506200092291505060408501620006fa565b90509250925092565b6000602082840312156200093e57600080fd5b81356200094b81620006e1565b9392505050565b6000602082840312156200096557600080fd5b81516200094b81620006e1565b6000815180845260005b818110156200099a576020818501810151868301820152016200097c565b506000602082860101526020601f19601f83011685010191505092915050565b6020815260006200094b602083018462000972565b634e487b7160e01b600052602160045260246000fd5b6001600160a01b038581168252841660208201526080604082015282516000906003811062000a185762000a18620009cf565b6080830152602084015160c060a084015262000a3961014084018262000972565b90506040850151607f19808584030160c086015262000a59838362000972565b925060608701519150808584030160e08601525062000a79828262000972565b608087015161010086015260a087015160ff166101208601526001600160a01b0386166060860152925062000aac915050565b95945050505050565b60006020828403121562000ac857600080fd5b81516200094b816200074e565b6001600160a01b038316815260006005831062000af65762000af6620009cf565b82602083015260606040830152600060608301526080820190509392505050565b60006020828403121562000b2a57600080fd5b505191905056fe60806040526040516109003803806109008339810160408190526100229161045b565b61002e82826000610035565b5050610585565b61003e83610100565b6040516001600160a01b038416907f1cf3b03a6cf19fa2baba4df148e9dcabedea7f8a5c07840e207e5c089be95d3e90600090a260008251118061007f5750805b156100fb576100f9836001600160a01b0316635c60da1b6040518163ffffffff1660e01b8152600401602060405180830381865afa1580156100c5573d6000803e3d6000fd5b505050506040513d601f19601f820116820180604052508101906100e9919061051b565b836102a360201b6100291760201c565b505b505050565b610113816102cf60201b6100551760201c565b6101725760405162461bcd60e51b815260206004820152602560248201527f455243313936373a206e657720626561636f6e206973206e6f74206120636f6e6044820152641d1c9858dd60da1b60648201526084015b60405180910390fd5b6101e6816001600160a01b0316635c60da1b6040518163ffffffff1660e01b8152600401602060405180830381865afa1580156101b3573d6000803e3d6000fd5b505050506040513d601f19601f820116820180604052508101906101d7919061051b565b6102cf60201b6100551760201c565b61024b5760405162461bcd60e51b815260206004820152603060248201527f455243313936373a20626561636f6e20696d706c656d656e746174696f6e206960448201526f1cc81b9bdd08184818dbdb9d1c9858dd60821b6064820152608401610169565b806102827fa3f0ad74e5423aebfd80d3ef4346578335a9a72aeaee59ff6cb3582b35133d5060001b6102de60201b6100641760201c565b80546001600160a01b0319166001600160a01b039290921691909117905550565b60606102c883836040518060600160405280602781526020016108d9602791396102e1565b9392505050565b6001600160a01b03163b151590565b90565b6060600080856001600160a01b0316856040516102fe9190610536565b600060405180830381855af49150503d8060008114610339576040519150601f19603f3d011682016040523d82523d6000602084013e61033e565b606091505b5090925090506103508683838761035a565b9695505050505050565b606083156103c95782516000036103c2576001600160a01b0385163b6103c25760405162461bcd60e51b815260206004820152601d60248201527f416464726573733a2063616c6c20746f206e6f6e2d636f6e74726163740000006044820152606401610169565b50816103d3565b6103d383836103db565b949350505050565b8151156103eb5781518083602001fd5b8060405162461bcd60e51b81526004016101699190610552565b80516001600160a01b038116811461041c57600080fd5b919050565b634e487b7160e01b600052604160045260246000fd5b60005b8381101561045257818101518382015260200161043a565b50506000910152565b6000806040838503121561046e57600080fd5b61047783610405565b60208401519092506001600160401b038082111561049457600080fd5b818501915085601f8301126104a857600080fd5b8151818111156104ba576104ba610421565b604051601f8201601f19908116603f011681019083821181831017156104e2576104e2610421565b816040528281528860208487010111156104fb57600080fd5b61050c836020830160208801610437565b80955050505050509250929050565b60006020828403121561052d57600080fd5b6102c882610405565b60008251610548818460208701610437565b9190910192915050565b6020815260008251806020840152610571816040850160208701610437565b601f01601f19169190910160400192915050565b610345806105946000396000f3fe60806040523661001357610011610017565b005b6100115b610027610022610067565b610100565b565b606061004e83836040518060600160405280602781526020016102e960279139610124565b9392505050565b6001600160a01b03163b151590565b90565b600061009a7fa3f0ad74e5423aebfd80d3ef4346578335a9a72aeaee59ff6cb3582b35133d50546001600160a01b031690565b6001600160a01b0316635c60da1b6040518163ffffffff1660e01b8152600401602060405180830381865afa1580156100d7573d6000803e3d6000fd5b505050506040513d601f19601f820116820180604052508101906100fb919061024c565b905090565b3660008037600080366000845af43d6000803e80801561011f573d6000f35b3d6000fd5b6060600080856001600160a01b0316856040516101419190610299565b600060405180830381855af49150503d806000811461017c576040519150601f19603f3d011682016040523d82523d6000602084013e610181565b606091505b50915091506101928683838761019c565b9695505050505050565b60608315610210578251600003610209576001600160a01b0385163b6102095760405162461bcd60e51b815260206004820152601d60248201527f416464726573733a2063616c6c20746f206e6f6e2d636f6e747261637400000060448201526064015b60405180910390fd5b508161021a565b61021a8383610222565b949350505050565b8151156102325781518083602001fd5b8060405162461bcd60e51b815260040161020091906102b5565b60006020828403121561025e57600080fd5b81516001600160a01b038116811461004e57600080fd5b60005b83811015610290578181015183820152602001610278565b50506000910152565b600082516102ab818460208701610275565b9190910192915050565b60208152600082518060208401526102d4816040850160208701610275565b601f01601f1916919091016040019291505056fe416464726573733a206c6f772d6c6576656c2064656c65676174652063616c6c206661696c6564a264697066735822122022a6bf5ebbb7518c40e703958b5c8e4d70ca6715c1e1ccf9e9591bfc86e066d164736f6c63430008110033416464726573733a206c6f772d6c6576656c2064656c65676174652063616c6c206661696c6564a2646970667358221220a97f7052cbcbe99eb88dd958531161381c131e52d724d976c17877f21faf28bd64736f6c63430008110033",
  "devdoc": {
    "kind": "dev",
    "methods": {
      "constructor": {
        "custom:oz-upgrades-unsafe-allow": "constructor"
      },
      "createToken(address,(uint8,string,string,string,uint256,uint8),address)": {
        "details": "Create token contract",
        "returns": {
          "token": "Token contract"
        }
      },
      "createTokenERC1155(address,(uint8,string,string,string,uint256,uint8),address)": {
        "details": "Create token contract ERC1155",
        "returns": {
          "token": "Token contract"
        }
      },
      "initialize(address)": {
        "details": "Initializer function, can only be called once",
        "params": {
          "service_": "Service address"
        }
      }
    },
    "version": 1
  },
  "userdoc": {
    "kind": "user",
    "methods": {
      "service()": {
        "notice": "Service contract"
      }
    },
    "version": 1
  },
  "storageLayout": {
    "storage": [
      {
        "astId": 1184,
        "contract": "contracts/TokenFactory.sol:TokenFactory",
        "label": "_initialized",
        "offset": 0,
        "slot": "0",
        "type": "t_uint8"
      },
      {
        "astId": 1187,
        "contract": "contracts/TokenFactory.sol:TokenFactory",
        "label": "_initializing",
        "offset": 1,
        "slot": "0",
        "type": "t_bool"
      },
      {
        "astId": 19334,
        "contract": "contracts/TokenFactory.sol:TokenFactory",
        "label": "service",
        "offset": 2,
        "slot": "0",
        "type": "t_contract(IService)21719"
      }
    ],
    "types": {
      "t_bool": {
        "encoding": "inplace",
        "label": "bool",
        "numberOfBytes": "1"
      },
      "t_contract(IService)21719": {
        "encoding": "inplace",
        "label": "contract IService",
        "numberOfBytes": "20"
      },
      "t_uint8": {
        "encoding": "inplace",
        "label": "uint8",
        "numberOfBytes": "1"
      }
    }
  }
}