{
  "address": "0xd4D41A1aFacC1cb1D9e01cF57662999107579AC7",
  "abi": [
    {
      "inputs": [],
      "stateMutability": "nonpayable",
      "type": "constructor"
    },
    {
      "anonymous": false,
      "inputs": [
        {
          "indexed": true,
          "internalType": "address",
          "name": "owner",
          "type": "address"
        },
        {
          "indexed": true,
          "internalType": "address",
          "name": "spender",
          "type": "address"
        },
        {
          "indexed": false,
          "internalType": "uint256",
          "name": "value",
          "type": "uint256"
        }
      ],
      "name": "Approval",
      "type": "event"
    },
    {
      "anonymous": false,
      "inputs": [
        {
          "indexed": true,
          "internalType": "address",
          "name": "delegator",
          "type": "address"
        },
        {
          "indexed": true,
          "internalType": "address",
          "name": "fromDelegate",
          "type": "address"
        },
        {
          "indexed": true,
          "internalType": "address",
          "name": "toDelegate",
          "type": "address"
        }
      ],
      "name": "DelegateChanged",
      "type": "event"
    },
    {
      "anonymous": false,
      "inputs": [
        {
          "indexed": true,
          "internalType": "address",
          "name": "delegate",
          "type": "address"
        },
        {
          "indexed": false,
          "internalType": "uint256",
          "name": "previousBalance",
          "type": "uint256"
        },
        {
          "indexed": false,
          "internalType": "uint256",
          "name": "newBalance",
          "type": "uint256"
        }
      ],
      "name": "DelegateVotesChanged",
      "type": "event"
    },
    {
      "anonymous": false,
      "inputs": [
        {
          "indexed": false,
          "internalType": "uint8",
          "name": "version",
          "type": "uint8"
        }
      ],
      "name": "Initialized",
      "type": "event"
    },
    {
      "anonymous": false,
      "inputs": [
        {
          "indexed": true,
          "internalType": "address",
          "name": "from",
          "type": "address"
        },
        {
          "indexed": true,
          "internalType": "address",
          "name": "to",
          "type": "address"
        },
        {
          "indexed": false,
          "internalType": "uint256",
          "name": "value",
          "type": "uint256"
        }
      ],
      "name": "Transfer",
      "type": "event"
    },
    {
      "inputs": [],
      "name": "DOMAIN_SEPARATOR",
      "outputs": [
        {
          "internalType": "bytes32",
          "name": "",
          "type": "bytes32"
        }
      ],
      "stateMutability": "view",
      "type": "function"
    },
    {
      "inputs": [
        {
          "internalType": "address",
          "name": "tge",
          "type": "address"
        }
      ],
      "name": "addTGE",
      "outputs": [],
      "stateMutability": "nonpayable",
      "type": "function"
    },
    {
      "inputs": [
        {
          "internalType": "address",
          "name": "owner",
          "type": "address"
        },
        {
          "internalType": "address",
          "name": "spender",
          "type": "address"
        }
      ],
      "name": "allowance",
      "outputs": [
        {
          "internalType": "uint256",
          "name": "",
          "type": "uint256"
        }
      ],
      "stateMutability": "view",
      "type": "function"
    },
    {
      "inputs": [
        {
          "internalType": "address",
          "name": "spender",
          "type": "address"
        },
        {
          "internalType": "uint256",
          "name": "amount",
          "type": "uint256"
        }
      ],
      "name": "approve",
      "outputs": [
        {
          "internalType": "bool",
          "name": "",
          "type": "bool"
        }
      ],
      "stateMutability": "nonpayable",
      "type": "function"
    },
    {
      "inputs": [
        {
          "internalType": "address",
          "name": "account",
          "type": "address"
        }
      ],
      "name": "balanceOf",
      "outputs": [
        {
          "internalType": "uint256",
          "name": "",
          "type": "uint256"
        }
      ],
      "stateMutability": "view",
      "type": "function"
    },
    {
      "inputs": [
        {
          "internalType": "address",
          "name": "from",
          "type": "address"
        },
        {
          "internalType": "uint256",
          "name": "amount",
          "type": "uint256"
        }
      ],
      "name": "burn",
      "outputs": [],
      "stateMutability": "nonpayable",
      "type": "function"
    },
    {
      "inputs": [],
      "name": "cap",
      "outputs": [
        {
          "internalType": "uint256",
          "name": "",
          "type": "uint256"
        }
      ],
      "stateMutability": "view",
      "type": "function"
    },
    {
      "inputs": [
        {
          "internalType": "address",
          "name": "account",
          "type": "address"
        },
        {
          "internalType": "uint32",
          "name": "pos",
          "type": "uint32"
        }
      ],
      "name": "checkpoints",
      "outputs": [
        {
          "components": [
            {
              "internalType": "uint32",
              "name": "fromBlock",
              "type": "uint32"
            },
            {
              "internalType": "uint224",
              "name": "votes",
              "type": "uint224"
            }
          ],
          "internalType": "struct ERC20VotesUpgradeable.Checkpoint",
          "name": "",
          "type": "tuple"
        }
      ],
      "stateMutability": "view",
      "type": "function"
    },
    {
      "inputs": [],
      "name": "decimals",
      "outputs": [
        {
          "internalType": "uint8",
          "name": "",
          "type": "uint8"
        }
      ],
      "stateMutability": "view",
      "type": "function"
    },
    {
      "inputs": [
        {
          "internalType": "address",
          "name": "spender",
          "type": "address"
        },
        {
          "internalType": "uint256",
          "name": "subtractedValue",
          "type": "uint256"
        }
      ],
      "name": "decreaseAllowance",
      "outputs": [
        {
          "internalType": "bool",
          "name": "",
          "type": "bool"
        }
      ],
      "stateMutability": "nonpayable",
      "type": "function"
    },
    {
      "inputs": [
        {
          "internalType": "address",
          "name": "delegatee",
          "type": "address"
        }
      ],
      "name": "delegate",
      "outputs": [],
      "stateMutability": "nonpayable",
      "type": "function"
    },
    {
      "inputs": [
        {
          "internalType": "address",
          "name": "delegatee",
          "type": "address"
        },
        {
          "internalType": "uint256",
          "name": "nonce",
          "type": "uint256"
        },
        {
          "internalType": "uint256",
          "name": "expiry",
          "type": "uint256"
        },
        {
          "internalType": "uint8",
          "name": "v",
          "type": "uint8"
        },
        {
          "internalType": "bytes32",
          "name": "r",
          "type": "bytes32"
        },
        {
          "internalType": "bytes32",
          "name": "s",
          "type": "bytes32"
        }
      ],
      "name": "delegateBySig",
      "outputs": [],
      "stateMutability": "nonpayable",
      "type": "function"
    },
    {
      "inputs": [
        {
          "internalType": "address",
          "name": "account",
          "type": "address"
        }
      ],
      "name": "delegates",
      "outputs": [
        {
          "internalType": "address",
          "name": "",
          "type": "address"
        }
      ],
      "stateMutability": "view",
      "type": "function"
    },
    {
      "inputs": [],
      "name": "description",
      "outputs": [
        {
          "internalType": "string",
          "name": "",
          "type": "string"
        }
      ],
      "stateMutability": "view",
      "type": "function"
    },
    {
      "inputs": [
        {
          "internalType": "uint256",
          "name": "blockNumber",
          "type": "uint256"
        }
      ],
      "name": "getPastTotalSupply",
      "outputs": [
        {
          "internalType": "uint256",
          "name": "",
          "type": "uint256"
        }
      ],
      "stateMutability": "view",
      "type": "function"
    },
    {
      "inputs": [
        {
          "internalType": "address",
          "name": "account",
          "type": "address"
        },
        {
          "internalType": "uint256",
          "name": "blockNumber",
          "type": "uint256"
        }
      ],
      "name": "getPastVotes",
      "outputs": [
        {
          "internalType": "uint256",
          "name": "",
          "type": "uint256"
        }
      ],
      "stateMutability": "view",
      "type": "function"
    },
    {
      "inputs": [],
      "name": "getTGEList",
      "outputs": [
        {
          "internalType": "address[]",
          "name": "",
          "type": "address[]"
        }
      ],
      "stateMutability": "view",
      "type": "function"
    },
    {
      "inputs": [],
      "name": "getTgeWithLockedTokensList",
      "outputs": [
        {
          "internalType": "address[]",
          "name": "",
          "type": "address[]"
        }
      ],
      "stateMutability": "view",
      "type": "function"
    },
    {
      "inputs": [],
      "name": "getTotalProtocolFeeReserved",
      "outputs": [
        {
          "internalType": "uint256",
          "name": "",
          "type": "uint256"
        }
      ],
      "stateMutability": "view",
      "type": "function"
    },
    {
      "inputs": [],
      "name": "getTotalTGEVestedTokens",
      "outputs": [
        {
          "internalType": "uint256",
          "name": "",
          "type": "uint256"
        }
      ],
      "stateMutability": "view",
      "type": "function"
    },
    {
      "inputs": [
        {
          "internalType": "address",
          "name": "account",
          "type": "address"
        }
      ],
      "name": "getVotes",
      "outputs": [
        {
          "internalType": "uint256",
          "name": "",
          "type": "uint256"
        }
      ],
      "stateMutability": "view",
      "type": "function"
    },
    {
      "inputs": [
        {
          "internalType": "address",
          "name": "spender",
          "type": "address"
        },
        {
          "internalType": "uint256",
          "name": "addedValue",
          "type": "uint256"
        }
      ],
      "name": "increaseAllowance",
      "outputs": [
        {
          "internalType": "bool",
          "name": "",
          "type": "bool"
        }
      ],
      "stateMutability": "nonpayable",
      "type": "function"
    },
    {
      "inputs": [
        {
          "internalType": "contract IService",
          "name": "service_",
          "type": "address"
        },
        {
          "internalType": "address",
          "name": "pool_",
          "type": "address"
        },
        {
          "components": [
            {
              "internalType": "enum IToken.TokenType",
              "name": "tokenType",
              "type": "uint8"
            },
            {
              "internalType": "string",
              "name": "name",
              "type": "string"
            },
            {
              "internalType": "string",
              "name": "symbol",
              "type": "string"
            },
            {
              "internalType": "string",
              "name": "description",
              "type": "string"
            },
            {
              "internalType": "uint256",
              "name": "cap",
              "type": "uint256"
            },
            {
              "internalType": "uint8",
              "name": "decimals",
              "type": "uint8"
            }
          ],
          "internalType": "struct IToken.TokenInfo",
          "name": "info",
          "type": "tuple"
        },
        {
          "internalType": "address",
          "name": "primaryTGE_",
          "type": "address"
        }
      ],
      "name": "initialize",
      "outputs": [],
      "stateMutability": "nonpayable",
      "type": "function"
    },
    {
      "inputs": [],
      "name": "isERC1155",
      "outputs": [
        {
          "internalType": "bool",
          "name": "",
          "type": "bool"
        }
      ],
      "stateMutability": "pure",
      "type": "function"
    },
    {
      "inputs": [],
      "name": "isPrimaryTGESuccessful",
      "outputs": [
        {
          "internalType": "bool",
          "name": "",
          "type": "bool"
        }
      ],
      "stateMutability": "view",
      "type": "function"
    },
    {
      "inputs": [],
      "name": "lastTGE",
      "outputs": [
        {
          "internalType": "address",
          "name": "",
          "type": "address"
        }
      ],
      "stateMutability": "view",
      "type": "function"
    },
    {
      "inputs": [
        {
          "internalType": "address",
          "name": "to",
          "type": "address"
        },
        {
          "internalType": "uint256",
          "name": "amount",
          "type": "uint256"
        }
      ],
      "name": "mint",
      "outputs": [],
      "stateMutability": "nonpayable",
      "type": "function"
    },
    {
      "inputs": [],
      "name": "name",
      "outputs": [
        {
          "internalType": "string",
          "name": "",
          "type": "string"
        }
      ],
      "stateMutability": "view",
      "type": "function"
    },
    {
      "inputs": [
        {
          "internalType": "address",
          "name": "owner",
          "type": "address"
        }
      ],
      "name": "nonces",
      "outputs": [
        {
          "internalType": "uint256",
          "name": "",
          "type": "uint256"
        }
      ],
      "stateMutability": "view",
      "type": "function"
    },
    {
      "inputs": [
        {
          "internalType": "address",
          "name": "account",
          "type": "address"
        }
      ],
      "name": "numCheckpoints",
      "outputs": [
        {
          "internalType": "uint32",
          "name": "",
          "type": "uint32"
        }
      ],
      "stateMutability": "view",
      "type": "function"
    },
    {
      "inputs": [
        {
          "internalType": "address",
          "name": "owner",
          "type": "address"
        },
        {
          "internalType": "address",
          "name": "spender",
          "type": "address"
        },
        {
          "internalType": "uint256",
          "name": "value",
          "type": "uint256"
        },
        {
          "internalType": "uint256",
          "name": "deadline",
          "type": "uint256"
        },
        {
          "internalType": "uint8",
          "name": "v",
          "type": "uint8"
        },
        {
          "internalType": "bytes32",
          "name": "r",
          "type": "bytes32"
        },
        {
          "internalType": "bytes32",
          "name": "s",
          "type": "bytes32"
        }
      ],
      "name": "permit",
      "outputs": [],
      "stateMutability": "nonpayable",
      "type": "function"
    },
    {
      "inputs": [],
      "name": "pool",
      "outputs": [
        {
          "internalType": "address",
          "name": "",
          "type": "address"
        }
      ],
      "stateMutability": "view",
      "type": "function"
    },
    {
      "inputs": [],
      "name": "service",
      "outputs": [
        {
          "internalType": "contract IService",
          "name": "",
          "type": "address"
        }
      ],
      "stateMutability": "view",
      "type": "function"
    },
    {
      "inputs": [
        {
          "internalType": "uint256",
          "name": "amount",
          "type": "uint256"
        }
      ],
      "name": "setProtocolFeeReserved",
      "outputs": [],
      "stateMutability": "nonpayable",
      "type": "function"
    },
    {
      "inputs": [
        {
          "internalType": "uint256",
          "name": "amount",
          "type": "uint256"
        }
      ],
      "name": "setTGEVestedTokens",
      "outputs": [],
      "stateMutability": "nonpayable",
      "type": "function"
    },
    {
      "inputs": [],
      "name": "symbol",
      "outputs": [
        {
          "internalType": "string",
          "name": "",
          "type": "string"
        }
      ],
      "stateMutability": "view",
      "type": "function"
    },
    {
      "inputs": [
        {
          "internalType": "uint256",
          "name": "",
          "type": "uint256"
        }
      ],
      "name": "tgeList",
      "outputs": [
        {
          "internalType": "address",
          "name": "",
          "type": "address"
        }
      ],
      "stateMutability": "view",
      "type": "function"
    },
    {
      "inputs": [],
      "name": "tokenType",
      "outputs": [
        {
          "internalType": "enum IToken.TokenType",
          "name": "",
          "type": "uint8"
        }
      ],
      "stateMutability": "view",
      "type": "function"
    },
    {
      "inputs": [],
      "name": "totalSupply",
      "outputs": [
        {
          "internalType": "uint256",
          "name": "",
          "type": "uint256"
        }
      ],
      "stateMutability": "view",
      "type": "function"
    },
    {
      "inputs": [],
      "name": "totalSupplyWithReserves",
      "outputs": [
        {
          "internalType": "uint256",
          "name": "",
          "type": "uint256"
        }
      ],
      "stateMutability": "view",
      "type": "function"
    },
    {
      "inputs": [
        {
          "internalType": "address",
          "name": "to",
          "type": "address"
        },
        {
          "internalType": "uint256",
          "name": "amount",
          "type": "uint256"
        }
      ],
      "name": "transfer",
      "outputs": [
        {
          "internalType": "bool",
          "name": "",
          "type": "bool"
        }
      ],
      "stateMutability": "nonpayable",
      "type": "function"
    },
    {
      "inputs": [
        {
          "internalType": "address",
          "name": "from",
          "type": "address"
        },
        {
          "internalType": "address",
          "name": "to",
          "type": "address"
        },
        {
          "internalType": "uint256",
          "name": "amount",
          "type": "uint256"
        }
      ],
      "name": "transferFrom",
      "outputs": [
        {
          "internalType": "bool",
          "name": "",
          "type": "bool"
        }
      ],
      "stateMutability": "nonpayable",
      "type": "function"
    },
    {
      "inputs": [
        {
          "internalType": "address",
          "name": "account",
          "type": "address"
        }
      ],
      "name": "unlockedBalanceOf",
      "outputs": [
        {
          "internalType": "uint256",
          "name": "",
          "type": "uint256"
        }
      ],
      "stateMutability": "view",
      "type": "function"
    }
  ],
  "transactionHash": "0x679c6d36535bf49c139d969465a9ea4f5ff1d83f47f9d3296be5a12e696823ef",
  "args": [],
  "numDeployments": 2,
  "solcInputHash": "0762d4eb531d05dc95fd5d895d7fecc0",
  "bytecode": "0x60806040523480156200001157600080fd5b506200001c62000022565b620000e4565b600054610100900460ff16156200008f5760405162461bcd60e51b815260206004820152602760248201527f496e697469616c697a61626c653a20636f6e747261637420697320696e697469604482015266616c697a696e6760c81b606482015260840160405180910390fd5b60005460ff9081161015620000e2576000805460ff191660ff9081179091556040519081527f7f26b83ff96e1f2b6a682f133852f6798a09c465da95921460cefb38474024989060200160405180910390a15b565b613c5080620000f46000396000f3fe608060405234801561001057600080fd5b50600436106102685760003560e01c806370a0823111610151578063a457c2d7116100c3578063d48e941f11610087578063d48e941f14610541578063d505accf14610549578063d554934b1461055c578063d598d4c914610565578063dd62ed3e14610579578063f1127ed81461058c57600080fd5b8063a457c2d7146104ed578063a9059cbb14610500578063ac5e23c314610513578063c3cda52014610526578063d04d79b51461053957600080fd5b806384955c881161011557806384955c88146104865780638e539e8c1461049957806395d89b41146104ac5780639ab24eb0146104b45780639cde86f8146104c75780639dc29fac146104da57600080fd5b806370a08231146104265780637284e4161461044f5780637e39be42146104575780637ecebe0014610460578063811d170f1461047357600080fd5b80633644e515116101ea57806340c10f19116101ae57806340c10f19146103aa5780635046f8b8146103bd578063585fe4d5146103d0578063587cde1e146103d85780635c19a95c146103eb5780636fcfff45146103fe57600080fd5b80633644e5151461035f5780633946114c14610367578063395093511461037c5780633a46b1a81461038f5780633eac9998146103a257600080fd5b80631bd0b616116102315780631bd0b6161461030157806323b872dd1461030857806330fa738c1461031b578063313ce5671461033d578063355274ea1461035757600080fd5b80620a04ae1461026d57806306fdde031461028b578063095ea7b3146102a057806316f0115b146102c357806318160ddd146102ef575b600080fd5b6102756105c9565b6040516102829190613410565b60405180910390f35b61029361062c565b60405161028291906134a3565b6102b36102ae3660046134db565b6106b5565b6040519015158152602001610282565b610132546102d7906001600160a01b031681565b6040516001600160a01b039091168152602001610282565b6035545b604051908152602001610282565b60006102b3565b6102b3610316366004613507565b6106cf565b6101325461033090600160a01b900460ff1681565b604051610282919061355e565b6103456107fd565b60405160ff9091168152602001610282565b6102f3610836565b6102f3610846565b61037a610375366004613586565b610850565b005b6102b361038a3660046134db565b610a28565b6102f361039d3660046134db565b610a4a565b6102d7610ac5565b61037a6103b83660046134db565b610b04565b61037a6103cb36600461359f565b610d47565b6102f3610ea2565b6102d76103e636600461359f565b610eca565b61037a6103f936600461359f565b610ee8565b61041161040c36600461359f565b611020565b60405163ffffffff9091168152602001610282565b6102f361043436600461359f565b6001600160a01b031660009081526033602052604090205490565b610293611043565b610138546102f3565b6102f361046e36600461359f565b6110d2565b6102d7610481366004613586565b6110f0565b6102f361049436600461359f565b61111b565b6102f36104a7366004613586565b61125b565b6102936112b8565b6102f36104c236600461359f565b6112c2565b61037a6104d5366004613586565b61134b565b61037a6104e83660046134db565b611479565b6102b36104fb3660046134db565b611686565b6102b361050e3660046134db565b61170c565b61037a6105213660046136b1565b611840565b61037a6105343660046137c9565b611aab565b6102b3611be1565b610275611c83565b61037a610557366004613823565b611ce4565b610136546102f3565b610131546102d7906001600160a01b031681565b6102f3610587366004613891565b611e48565b61059f61059a3660046138ca565b611e73565b60408051825163ffffffff1681526020928301516001600160e01b03169281019290925201610282565b606061013480548060200260200160405190810160405280929190818152602001828054801561062257602002820191906000526020600020905b81546001600160a01b03168152600190910190602001808311610604575b5050505050905090565b60606036805461063b90613901565b80601f016020809104026020016040519081016040528092919081815260200182805461066790613901565b80156106225780601f1061068957610100808354040283529160200191610622565b820191906000526020600020905b81548152906001019060200180831161069757509395945050505050565b6000336106c3818585611ef8565b60019150505b92915050565b6101315460408051637b10399960e01b815290516000926001600160a01b031691637b1039999160048083019260209291908290030181865afa15801561071a573d6000803e3d6000fd5b505050506040513d601f19601f8201168201806040525081019061073e9190613935565b604080516001600160a01b0387811660248301528681166044830152606480830187905283518084039091018152608490920183526020820180516001600160e01b03166323b872dd60e01b1790529151634dbb83fd60e01b81529290911691634dbb83fd916107b8913391309160009190600401613952565b600060405180830381600087803b1580156107d257600080fd5b505af11580156107e6573d6000803e3d6000fd5b505050506107f584848461201c565b949350505050565b6000600161013254600160a01b900460ff16600281111561082057610820613548565b0361082b5750601290565b506101355460ff1690565b600061084160655490565b905090565b6000610841612035565b6101315460408051637b10399960e01b815290516000926004926001600160a01b0390911691637b1039999180850191602091819003860181865afa15801561089d573d6000803e3d6000fd5b505050506040513d601f19601f820116820180604052508101906108c19190613935565b604051630db9619f60e31b81523360048201526001600160a01b039190911690636dcb0cf890602401602060405180830381865afa158015610907573d6000803e3d6000fd5b505050506040513d601f19601f8201168201806040525081019061092b919061398f565b600481111561093c5761093c613548565b1490506000336001600160a01b031661013160009054906101000a90046001600160a01b03166001600160a01b03166344c63eec6040518163ffffffff1660e01b8152600401602060405180830381865afa15801561099f573d6000803e3d6000fd5b505050506040513d601f19601f820116820180604052508101906109c39190613935565b6001600160a01b031614905081806109d85750805b604051806040016040528060078152602001664e4f545f54474560c81b81525090610a1f5760405162461bcd60e51b8152600401610a1691906134a3565b60405180910390fd5b50505061013655565b6000336106c3818585610a3b8383611e48565b610a4591906139c6565b611ef8565b6000438210610a9b5760405162461bcd60e51b815260206004820152601f60248201527f4552433230566f7465733a20626c6f636b206e6f7420796574206d696e6564006044820152606401610a16565b6001600160a01b038316600090815261010060205260409020610abe90836120b0565b9392505050565b610134805460009190610ada906001906139d9565b81548110610aea57610aea6139ec565b6000918252602090912001546001600160a01b0316919050565b6101315460408051637b10399960e01b815290516000926004926001600160a01b0390911691637b1039999180850191602091819003860181865afa158015610b51573d6000803e3d6000fd5b505050506040513d601f19601f82011682018060405250810190610b759190613935565b604051630db9619f60e31b81523360048201526001600160a01b039190911690636dcb0cf890602401602060405180830381865afa158015610bbb573d6000803e3d6000fd5b505050506040513d601f19601f82011682018060405250810190610bdf919061398f565b6004811115610bf057610bf0613548565b1490506000336001600160a01b031661013160009054906101000a90046001600160a01b03166001600160a01b03166344c63eec6040518163ffffffff1660e01b8152600401602060405180830381865afa158015610c53573d6000803e3d6000fd5b505050506040513d601f19601f82011682018060405250810190610c779190613935565b6001600160a01b03161490508180610c8c5750805b604051806040016040528060078152602001664e4f545f54474560c81b81525090610cca5760405162461bcd60e51b8152600401610a1691906134a3565b50600161013254600160a01b900460ff166002811115610cec57610cec613548565b03610d37576001600160a01b038416600090815260336020526040902054158015610d2857506000610d1d85610eca565b6001600160a01b0316145b15610d3757610d3784856121a7565b610d41848461223d565b50505050565b61013160009054906101000a90046001600160a01b03166001600160a01b031663102c5c016040518163ffffffff1660e01b8152600401602060405180830381865afa158015610d9b573d6000803e3d6000fd5b505050506040513d601f19601f82011682018060405250810190610dbf9190613935565b6001600160a01b0316336001600160a01b0316146040518060400160405280600f81526020016e4e4f545f5447455f464143544f525960881b81525090610e195760405162461bcd60e51b8152600401610a1691906134a3565b50610134805460018181019092557fe1c588fe1269da19c317f679b04e226f5e48296f9b2c8351127eb010907c472f0180546001600160a01b039093166001600160a01b03199384168117909155610137805492830181556000527f43dc304bb3613567eca51c4fb9e7f3128bc51bba882a32550e891d6cbd8a0fa19091018054909216179055565b600080610eaf6101385490565b61013654603554610ec091906139c6565b6106c991906139c6565b6001600160a01b03908116600090815260ff60205260409020541690565b61013160009054906101000a90046001600160a01b03166001600160a01b0316637b1039996040518163ffffffff1660e01b8152600401602060405180830381865afa158015610f3c573d6000803e3d6000fd5b505050506040513d601f19601f82011682018060405250810190610f609190613935565b6001600160a01b0316634dbb83fd33306000635c19a95c60e01b86604051602401610f9a91906001600160a01b0391909116815260200190565b60408051601f198184030181529181526020820180516001600160e01b03166001600160e01b03199485161790525160e087901b9092168252610fe294939291600401613952565b600060405180830381600087803b158015610ffc57600080fd5b505af1158015611010573d6000803e3d6000fd5b5050505061101d81612247565b50565b6001600160a01b038116600090815261010060205260408120546106c990612251565b610133805461105190613901565b80601f016020809104026020016040519081016040528092919081815260200182805461107d90613901565b80156110ca5780601f1061109f576101008083540402835291602001916110ca565b820191906000526020600020905b8154815290600101906020018083116110ad57829003601f168201915b505050505081565b6001600160a01b038116600090815260cc60205260408120546106c9565b610134818154811061110157600080fd5b6000918252602090912001546001600160a01b0316905081565b6001600160a01b038116600090815260336020526040812054600061013780548060200260200160405190810160405280929190818152602001828054801561118d57602002820191906000526020600020905b81546001600160a01b0316815260019091019060200180831161116f575b505050505090506000805b8251811015611247578281815181106111b3576111b36139ec565b6020908102919091010151604051632c9aab9b60e11b81526001600160a01b03888116600483015290911690635935573690602401602060405180830381865afa158015611205573d6000803e3d6000fd5b505050506040513d601f19601f820116820180604052508101906112299190613a02565b61123390836139c6565b91508061123f81613a1b565b915050611198565b5061125281846139d9565b95945050505050565b60004382106112ac5760405162461bcd60e51b815260206004820152601f60248201527f4552433230566f7465733a20626c6f636b206e6f7420796574206d696e6564006044820152606401610a16565b6106c9610101836120b0565b60606108416122ba565b6001600160a01b038116600090815261010060205260408120548015611338576001600160a01b0383166000908152610100602052604090206113066001836139d9565b81548110611316576113166139ec565b60009182526020909120015464010000000090046001600160e01b031661133b565b60005b6001600160e01b03169392505050565b6101315460408051637b10399960e01b815290516004926001600160a01b031691637b103999918185019160209190819003860181865afa158015611394573d6000803e3d6000fd5b505050506040513d601f19601f820116820180604052508101906113b89190613935565b604051630db9619f60e31b81523360048201526001600160a01b039190911690636dcb0cf890602401602060405180830381865afa1580156113fe573d6000803e3d6000fd5b505050506040513d601f19601f82011682018060405250810190611422919061398f565b600481111561143357611433613548565b14604051806040016040528060078152602001664e4f545f54474560c81b815250906114725760405162461bcd60e51b8152600401610a1691906134a3565b5061013855565b61013260009054906101000a90046001600160a01b03166001600160a01b0316635c975abb6040518163ffffffff1660e01b8152600401602060405180830381865afa1580156114cd573d6000803e3d6000fd5b505050506040513d601f19601f820116820180604052508101906114f19190613a34565b156040518060400160405280600e81526020016d14d154959250d157d4105554d15160921b815250906115375760405162461bcd60e51b8152600401610a1691906134a3565b506101315460408051637b10399960e01b815290516004926001600160a01b031691637b103999918185019160209190819003860181865afa158015611581573d6000803e3d6000fd5b505050506040513d601f19601f820116820180604052508101906115a59190613935565b604051630db9619f60e31b81523360048201526001600160a01b039190911690636dcb0cf890602401602060405180830381865afa1580156115eb573d6000803e3d6000fd5b505050506040513d601f19601f8201168201806040525081019061160f919061398f565b600481111561162057611620613548565b14806116345750336001600160a01b038316145b6040518060400160405280600c81526020016b24a72b20a624a22faaa9a2a960a11b815250906116775760405162461bcd60e51b8152600401610a1691906134a3565b5061168282826122c9565b5050565b600033816116948286611e48565b9050838110156116f45760405162461bcd60e51b815260206004820152602560248201527f45524332303a2064656372656173656420616c6c6f77616e63652062656c6f77604482015264207a65726f60d81b6064820152608401610a16565b6117018286868403611ef8565b506001949350505050565b6101315460408051637b10399960e01b815290516000926001600160a01b031691637b1039999160048083019260209291908290030181865afa158015611757573d6000803e3d6000fd5b505050506040513d601f19601f8201168201806040525081019061177b9190613935565b6001600160a01b0316634dbb83fd3330600063a9059cbb60e01b88886040516024016117bc9291906001600160a01b03929092168252602082015260400190565b60408051601f198184030181529181526020820180516001600160e01b03166001600160e01b03199485161790525160e087901b909216825261180494939291600401613952565b600060405180830381600087803b15801561181e57600080fd5b505af1158015611832573d6000803e3d6000fd5b50505050610abe83836122d3565b600054610100900460ff16158080156118605750600054600160ff909116105b8061187a5750303b15801561187a575060005460ff166001145b6118dd5760405162461bcd60e51b815260206004820152602e60248201527f496e697469616c697a61626c653a20636f6e747261637420697320616c72656160448201526d191e481a5b9a5d1a585b1a5e995960921b6064820152608401610a16565b6000805460ff191660011790558015611900576000805461ff0019166101001790555b61190d83608001516122e1565b6060830151610133906119209082613aa4565b5060028351600281111561193657611936613548565b0361196b5761194d83602001518460400151612311565b60a0830151610135805460ff191660ff90921691909117905561197d565b61197d83602001518460400151612311565b610134805460018181019092557fe1c588fe1269da19c317f679b04e226f5e48296f9b2c8351127eb010907c472f0180546001600160a01b0385166001600160a01b03199182168117909255610137805493840181556000527f43dc304bb3613567eca51c4fb9e7f3128bc51bba882a32550e891d6cbd8a0fa190920180549092161790558251610132805460ff60a01b1916600160a01b836002811115611a2757611a27613548565b021790555061013180546001600160a01b038088166001600160a01b0319928316179092556101328054928716929091169190911790558015611aa4576000805461ff0019169055604051600181527f7f26b83ff96e1f2b6a682f133852f6798a09c465da95921460cefb38474024989060200160405180910390a15b5050505050565b83421115611afb5760405162461bcd60e51b815260206004820152601d60248201527f4552433230566f7465733a207369676e617475726520657870697265640000006044820152606401610a16565b604080517fe48329057bfd03d55e49b547132e39cffd9c1820ad7b9d4c5307691425d15adf60208201526001600160a01b038816918101919091526060810186905260808101859052600090611b7590611b6d9060a00160405160208183030381529060405280519060200120612342565b858585612390565b9050611b80816123b8565b8614611bce5760405162461bcd60e51b815260206004820152601960248201527f4552433230566f7465733a20696e76616c6964206e6f6e6365000000000000006044820152606401610a16565b611bd881886121a7565b50505050505050565b60006002610134600081548110611bfa57611bfa6139ec565b600091825260209182902001546040805163c19d93fb60e01b815290516001600160a01b039092169263c19d93fb926004808401938290030181865afa158015611c48573d6000803e3d6000fd5b505050506040513d601f19601f82011682018060405250810190611c6c9190613b64565b6002811115611c7d57611c7d613548565b14905090565b6060610137805480602002602001604051908101604052809291908181526020018280548015610622576020028201919060005260206000209081546001600160a01b03168152600190910190602001808311610604575050505050905090565b83421115611d345760405162461bcd60e51b815260206004820152601d60248201527f45524332305065726d69743a206578706972656420646561646c696e650000006044820152606401610a16565b60007f6e71edae12b1b97f4d1f60370fef10105fa2faae0126114a169c64845d6126c9888888611d638c6123b8565b6040805160208101969096526001600160a01b0394851690860152929091166060840152608083015260a082015260c0810186905260e0016040516020818303038152906040528051906020012090506000611dbe82612342565b90506000611dce82878787612390565b9050896001600160a01b0316816001600160a01b031614611e315760405162461bcd60e51b815260206004820152601e60248201527f45524332305065726d69743a20696e76616c6964207369676e617475726500006044820152606401610a16565b611e3c8a8a8a611ef8565b50505050505050505050565b6001600160a01b03918216600090815260346020908152604080832093909416825291909152205490565b60408051808201909152600080825260208201526001600160a01b038316600090815261010060205260409020805463ffffffff8416908110611eb857611eb86139ec565b60009182526020918290206040805180820190915291015463ffffffff8116825264010000000090046001600160e01b0316918101919091529392505050565b6001600160a01b038316611f5a5760405162461bcd60e51b8152602060048201526024808201527f45524332303a20617070726f76652066726f6d20746865207a65726f206164646044820152637265737360e01b6064820152608401610a16565b6001600160a01b038216611fbb5760405162461bcd60e51b815260206004820152602260248201527f45524332303a20617070726f766520746f20746865207a65726f206164647265604482015261737360f01b6064820152608401610a16565b6001600160a01b0383811660008181526034602090815260408083209487168084529482529182902085905590518481527f8c5be1e5ebec7d5bd14f71427d1e84f3dd0314c0f7b2291e5b200ac8c7c3b925910160405180910390a3505050565b60003361202a8582856123e0565b611701858585612454565b60006108417f8b73c3c69bb8fe3d512ecc4cf759cc79239f7b179b0ffacaa9a75d522b39400f61206460985490565b6099546040805160208101859052908101839052606081018290524660808201523060a082015260009060c0016040516020818303038152906040528051906020012090509392505050565b81546000908181600581111561210a5760006120cb846125ef565b6120d590856139d9565b600088815260209020909150869082015463ffffffff1611156120fa57809150612108565b6121058160016139c6565b92505b505b8082101561215757600061211e83836126d7565b600088815260209020909150869082015463ffffffff16111561214357809150612151565b61214e8160016139c6565b92505b5061210a565b80156121915761217a8661216c6001846139d9565b600091825260209091200190565b5464010000000090046001600160e01b0316612194565b60005b6001600160e01b03169695505050505050565b60006121b283610eca565b905060006121d5846001600160a01b031660009081526033602052604090205490565b6001600160a01b03858116600081815260ff602052604080822080546001600160a01b031916898616908117909155905194955093928616927f3134e8a2e6d97e929a7e54011ea5485d7d196dd5f0ba4d4ef95803e8e3fc257f9190a4610d418284836126f2565b6116828282612831565b61101d33826121a7565b600063ffffffff8211156122b65760405162461bcd60e51b815260206004820152602660248201527f53616665436173743a2076616c756520646f65736e27742066697420696e203360448201526532206269747360d01b6064820152608401610a16565b5090565b60606037805461063b90613901565b61168282826128bc565b6000336106c3818585612454565b600054610100900460ff166123085760405162461bcd60e51b8152600401610a1690613b81565b61101d816128d5565b600054610100900460ff166123385760405162461bcd60e51b8152600401610a1690613b81565b6116828282612949565b60006106c961234f612035565b8360405161190160f01b6020820152602281018390526042810182905260009060620160405160208183030381529060405280519060200120905092915050565b60008060006123a187878787612989565b915091506123ae81612a4d565b5095945050505050565b6001600160a01b038116600090815260cc602052604090208054600181018255905b50919050565b60006123ec8484611e48565b90506000198114610d4157818110156124475760405162461bcd60e51b815260206004820152601d60248201527f45524332303a20696e73756666696369656e7420616c6c6f77616e63650000006044820152606401610a16565b610d418484848403611ef8565b61013260009054906101000a90046001600160a01b03166001600160a01b0316635c975abb6040518163ffffffff1660e01b8152600401602060405180830381865afa1580156124a8573d6000803e3d6000fd5b505050506040513d601f19601f820116820180604052508101906124cc9190613a34565b156040518060400160405280600e81526020016d14d154959250d157d4105554d15160921b815250906125125760405162461bcd60e51b8152600401610a1691906134a3565b5061251b612b97565b6125248361111b565b811115604051806040016040528060148152602001734c4f575f554e4c4f434b45445f42414c414e434560601b815250906125725760405162461bcd60e51b8152600401610a1691906134a3565b50600161013254600160a01b900460ff16600281111561259457612594613548565b036125df576001600160a01b0382166000908152603360205260409020541580156125d0575060006125c583610eca565b6001600160a01b0316145b156125df576125df82836121a7565b6125ea838383612d46565b505050565b60008160000361260157506000919050565b6000600161260e84612ef7565b901c6001901b9050600181848161262757612627613bcc565b048201901c9050600181848161263f5761263f613bcc565b048201901c9050600181848161265757612657613bcc565b048201901c9050600181848161266f5761266f613bcc565b048201901c9050600181848161268757612687613bcc565b048201901c9050600181848161269f5761269f613bcc565b048201901c905060018184816126b7576126b7613bcc565b048201901c9050610abe818285816126d1576126d1613bcc565b04612f8b565b60006126e66002848418613be2565b610abe908484166139c6565b816001600160a01b0316836001600160a01b0316141580156127145750600081115b156125ea576001600160a01b038316156127a3576001600160a01b038316600090815261010060205260408120819061275090612fa185612fad565b91509150846001600160a01b03167fdec2bacdd2f05b59de34da9b523dff8be42e5e38e818c82fdb0bae774387a7248383604051612798929190918252602082015260400190565b60405180910390a250505b6001600160a01b038216156125ea576001600160a01b03821660009081526101006020526040812081906127da9061310185612fad565b91509150836001600160a01b03167fdec2bacdd2f05b59de34da9b523dff8be42e5e38e818c82fdb0bae774387a7248383604051612822929190918252602082015260400190565b60405180910390a25050505050565b61283b828261310d565b6035546001600160e01b0310156128ad5760405162461bcd60e51b815260206004820152603060248201527f4552433230566f7465733a20746f74616c20737570706c79207269736b73206f60448201526f766572666c6f77696e6720766f74657360801b6064820152608401610a16565b610d4161010161310183612fad565b6128c68282613181565b610d41610101612fa183612fad565b600054610100900460ff166128fc5760405162461bcd60e51b8152600401610a1690613b81565b600081116129445760405162461bcd60e51b8152602060048201526015602482015274045524332304361707065643a20636170206973203605c1b6044820152606401610a16565b606555565b600054610100900460ff166129705760405162461bcd60e51b8152600401610a1690613b81565b603661297c8382613aa4565b5060376125ea8282613aa4565b6000807f7fffffffffffffffffffffffffffffff5d576e7357a4501ddfe92f46681b20a08311156129c05750600090506003612a44565b6040805160008082526020820180845289905260ff881692820192909252606081018690526080810185905260019060a0016020604051602081039080840390855afa158015612a14573d6000803e3d6000fd5b5050604051601f1901519150506001600160a01b038116612a3d57600060019250925050612a44565b9150600090505b94509492505050565b6000816004811115612a6157612a61613548565b03612a695750565b6001816004811115612a7d57612a7d613548565b03612aca5760405162461bcd60e51b815260206004820152601860248201527f45434453413a20696e76616c6964207369676e617475726500000000000000006044820152606401610a16565b6002816004811115612ade57612ade613548565b03612b2b5760405162461bcd60e51b815260206004820152601f60248201527f45434453413a20696e76616c6964207369676e6174757265206c656e677468006044820152606401610a16565b6003816004811115612b3f57612b3f613548565b0361101d5760405162461bcd60e51b815260206004820152602260248201527f45434453413a20696e76616c6964207369676e6174757265202773272076616c604482015261756560f01b6064820152608401610a16565b6000610137805480602002602001604051908101604052809291908181526020018280548015612bf057602002820191906000526020600020905b81546001600160a01b03168152600190910190602001808311612bd2575b5050505050905060005b815181101561168257818181518110612c1557612c156139ec565b60200260200101516001600160a01b031663df60fa406040518163ffffffff1660e01b8152600401602060405180830381865afa158015612c5a573d6000803e3d6000fd5b505050506040513d601f19601f82011682018060405250810190612c7e9190613a34565b15612d34576101378054612c94906001906139d9565b81548110612ca457612ca46139ec565b60009182526020909120015461013780546001600160a01b039092169183908110612cd157612cd16139ec565b9060005260206000200160006101000a8154816001600160a01b0302191690836001600160a01b03160217905550610137805480612d1157612d11613c04565b600082815260209020810160001990810180546001600160a01b03191690550190555b80612d3e81613a1b565b915050612bfa565b6001600160a01b038316612daa5760405162461bcd60e51b815260206004820152602560248201527f45524332303a207472616e736665722066726f6d20746865207a65726f206164604482015264647265737360d81b6064820152608401610a16565b6001600160a01b038216612e0c5760405162461bcd60e51b815260206004820152602360248201527f45524332303a207472616e7366657220746f20746865207a65726f206164647260448201526265737360e81b6064820152608401610a16565b6001600160a01b03831660009081526033602052604090205481811015612e845760405162461bcd60e51b815260206004820152602660248201527f45524332303a207472616e7366657220616d6f756e7420657863656564732062604482015265616c616e636560d01b6064820152608401610a16565b6001600160a01b0380851660008181526033602052604080822086860390559286168082529083902080548601905591517fddf252ad1be2c89b69c2b068fc378daa952ba7f163c4a11628f55a4df523b3ef90612ee49086815260200190565b60405180910390a3610d418484846132b8565b600080608083901c15612f0c57608092831c92015b604083901c15612f1e57604092831c92015b602083901c15612f3057602092831c92015b601083901c15612f4257601092831c92015b600883901c15612f5457600892831c92015b600483901c15612f6657600492831c92015b600283901c15612f7857600292831c92015b600183901c156106c95760010192915050565b6000818310612f9a5781610abe565b5090919050565b6000610abe82846139d9565b82546000908190818115612ffa57612fca8761216c6001856139d9565b60408051808201909152905463ffffffff8116825264010000000090046001600160e01b0316602082015261300f565b60408051808201909152600080825260208201525b905080602001516001600160e01b0316935061302f84868863ffffffff16565b92506000821180156130475750805163ffffffff1643145b1561308c57613055836132c3565b6130648861216c6001866139d9565b80546001600160e01b03929092166401000000000263ffffffff9092169190911790556130f7565b8660405180604001604052806130a143612251565b63ffffffff1681526020016130b5866132c3565b6001600160e01b0390811690915282546001810184556000938452602093849020835194909301519091166401000000000263ffffffff909316929092179101555b5050935093915050565b6000610abe82846139c6565b613115610836565b8161311f60355490565b61312991906139c6565b11156131775760405162461bcd60e51b815260206004820152601960248201527f45524332304361707065643a20636170206578636565646564000000000000006044820152606401610a16565b611682828261332c565b6001600160a01b0382166131e15760405162461bcd60e51b815260206004820152602160248201527f45524332303a206275726e2066726f6d20746865207a65726f206164647265736044820152607360f81b6064820152608401610a16565b6001600160a01b038216600090815260336020526040902054818110156132555760405162461bcd60e51b815260206004820152602260248201527f45524332303a206275726e20616d6f756e7420657863656564732062616c616e604482015261636560f01b6064820152608401610a16565b6001600160a01b03831660008181526033602090815260408083208686039055603580548790039055518581529192917fddf252ad1be2c89b69c2b068fc378daa952ba7f163c4a11628f55a4df523b3ef910160405180910390a36125ea836000845b6125ea8383836133f5565b60006001600160e01b038211156122b65760405162461bcd60e51b815260206004820152602760248201527f53616665436173743a2076616c756520646f65736e27742066697420696e20326044820152663234206269747360c81b6064820152608401610a16565b6001600160a01b0382166133825760405162461bcd60e51b815260206004820152601f60248201527f45524332303a206d696e7420746f20746865207a65726f2061646472657373006044820152606401610a16565b806035600082825461339491906139c6565b90915550506001600160a01b0382166000818152603360209081526040808320805486019055518481527fddf252ad1be2c89b69c2b068fc378daa952ba7f163c4a11628f55a4df523b3ef910160405180910390a3611682600083836132b8565b6125ea61340184610eca565b61340a84610eca565b836126f2565b6020808252825182820181905260009190848201906040850190845b818110156134515783516001600160a01b03168352928401929184019160010161342c565b50909695505050505050565b6000815180845260005b8181101561348357602081850181015186830182015201613467565b506000602082860101526020601f19601f83011685010191505092915050565b602081526000610abe602083018461345d565b6001600160a01b038116811461101d57600080fd5b80356134d6816134b6565b919050565b600080604083850312156134ee57600080fd5b82356134f9816134b6565b946020939093013593505050565b60008060006060848603121561351c57600080fd5b8335613527816134b6565b92506020840135613537816134b6565b929592945050506040919091013590565b634e487b7160e01b600052602160045260246000fd5b602081016003831061358057634e487b7160e01b600052602160045260246000fd5b91905290565b60006020828403121561359857600080fd5b5035919050565b6000602082840312156135b157600080fd5b8135610abe816134b6565b634e487b7160e01b600052604160045260246000fd5b60405160c0810167ffffffffffffffff811182821017156135f5576135f56135bc565b60405290565b6003811061101d57600080fd5b80356134d6816135fb565b600082601f83011261362457600080fd5b813567ffffffffffffffff8082111561363f5761363f6135bc565b604051601f8301601f19908116603f01168101908282118183101715613667576136676135bc565b8160405283815286602085880101111561368057600080fd5b836020870160208301376000602085830101528094505050505092915050565b803560ff811681146134d657600080fd5b600080600080608085870312156136c757600080fd5b84356136d2816134b6565b935060208501356136e2816134b6565b9250604085013567ffffffffffffffff808211156136ff57600080fd5b9086019060c0828903121561371357600080fd5b61371b6135d2565b61372483613608565b815260208301358281111561373857600080fd5b6137448a828601613613565b60208301525060408301358281111561375c57600080fd5b6137688a828601613613565b60408301525060608301358281111561378057600080fd5b61378c8a828601613613565b606083015250608083013560808201526137a860a084016136a0565b60a082015293506137be915050606086016134cb565b905092959194509250565b60008060008060008060c087890312156137e257600080fd5b86356137ed816134b6565b95506020870135945060408701359350613809606088016136a0565b92506080870135915060a087013590509295509295509295565b600080600080600080600060e0888a03121561383e57600080fd5b8735613849816134b6565b96506020880135613859816134b6565b95506040880135945060608801359350613875608089016136a0565b925060a0880135915060c0880135905092959891949750929550565b600080604083850312156138a457600080fd5b82356138af816134b6565b915060208301356138bf816134b6565b809150509250929050565b600080604083850312156138dd57600080fd5b82356138e8816134b6565b9150602083013563ffffffff811681146138bf57600080fd5b600181811c9082168061391557607f821691505b6020821081036123da57634e487b7160e01b600052602260045260246000fd5b60006020828403121561394757600080fd5b8151610abe816134b6565b6001600160a01b03858116825284166020820152604081018390526080606082018190526000906139859083018461345d565b9695505050505050565b6000602082840312156139a157600080fd5b815160058110610abe57600080fd5b634e487b7160e01b600052601160045260246000fd5b808201808211156106c9576106c96139b0565b818103818111156106c9576106c96139b0565b634e487b7160e01b600052603260045260246000fd5b600060208284031215613a1457600080fd5b5051919050565b600060018201613a2d57613a2d6139b0565b5060010190565b600060208284031215613a4657600080fd5b81518015158114610abe57600080fd5b601f8211156125ea57600081815260208120601f850160051c81016020861015613a7d5750805b601f850160051c820191505b81811015613a9c57828155600101613a89565b505050505050565b815167ffffffffffffffff811115613abe57613abe6135bc565b613ad281613acc8454613901565b84613a56565b602080601f831160018114613b075760008415613aef5750858301515b600019600386901b1c1916600185901b178555613a9c565b600085815260208120601f198616915b82811015613b3657888601518255948401946001909101908401613b17565b5085821015613b545787850151600019600388901b60f8161c191681555b5050505050600190811b01905550565b600060208284031215613b7657600080fd5b8151610abe816135fb565b6020808252602b908201527f496e697469616c697a61626c653a20636f6e7472616374206973206e6f74206960408201526a6e697469616c697a696e6760a81b606082015260800190565b634e487b7160e01b600052601260045260246000fd5b600082613bff57634e487b7160e01b600052601260045260246000fd5b500490565b634e487b7160e01b600052603160045260246000fdfea26469706673582212209c8a1ac333453be7bf215b133e6ca80f2ced1d50abb61c6344f6068b45ed0a1464736f6c63430008110033",
  "devdoc": {
    "details": "An expanded ERC20 contract, based on which tokens of various types are issued. At the moment, the protocol provides for 2 types of tokens: Governance, which must be created simultaneously with the pool, existing for the pool only in the singular and participating in voting, and Preference, which may be several for one pool and which do not participate in voting in any way.",
    "kind": "dev",
    "methods": {
      "DOMAIN_SEPARATOR()": {
        "details": "See {IERC20Permit-DOMAIN_SEPARATOR}."
      },
      "addTGE(address)": {
        "details": "This method adds the TGE contract address to the TGEList of this token.",
        "params": {
          "tge": "The TGE address"
        }
      },
      "allowance(address,address)": {
        "details": "See {IERC20-allowance}."
      },
      "approve(address,uint256)": {
        "details": "See {IERC20-approve}. NOTE: If `amount` is the maximum `uint256`, the allowance is not updated on `transferFrom`. This is semantically equivalent to an infinite approval. Requirements: - `spender` cannot be the zero address."
      },
      "balanceOf(address)": {
        "details": "See {IERC20-balanceOf}."
      },
      "burn(address,uint256)": {
        "details": "Method for burning tokens. It can be called by both the token owner and the TGE contract to burn returned tokens during redeeming.",
        "params": {
          "amount": "The amount of tokens",
          "from": "The address of the account"
        }
      },
      "cap()": {
        "details": "This method returns the maximum allowable token emission.",
        "returns": {
          "_0": "The number of tokens taking into account the Decimals parameter"
        }
      },
      "checkpoints(address,uint32)": {
        "details": "Get the `pos`-th checkpoint for `account`."
      },
      "constructor": {
        "custom:oz-upgrades-unsafe-allow": "constructor",
        "details": "This contract uses OpenZeppelin upgrades and has no need for a constructor function. The constructor is replaced with an initializer function. This method disables the initializer feature of the OpenZeppelin upgrades plugin, preventing the initializer methods from being misused."
      },
      "decimals()": {
        "details": "This method returns the precision level for the fractional parts of this token.",
        "returns": {
          "_0": "Decimals"
        }
      },
      "decreaseAllowance(address,uint256)": {
        "details": "Atomically decreases the allowance granted to `spender` by the caller. This is an alternative to {approve} that can be used as a mitigation for problems described in {IERC20-approve}. Emits an {Approval} event indicating the updated allowance. Requirements: - `spender` cannot be the zero address. - `spender` must have allowance for the caller of at least `subtractedValue`."
      },
      "delegateBySig(address,uint256,uint256,uint8,bytes32,bytes32)": {
        "details": "Delegates votes from signer to `delegatee`"
      },
      "delegates(address)": {
        "details": "Get the address `account` is currently delegating to."
      },
      "getPastTotalSupply(uint256)": {
        "details": "Retrieve the `totalSupply` at the end of `blockNumber`. Note, this value is the sum of all balances. It is but NOT the sum of all the delegated votes! Requirements: - `blockNumber` must have been already mined"
      },
      "getPastVotes(address,uint256)": {
        "details": "Retrieve the number of votes for `account` at the end of `blockNumber`. Requirements: - `blockNumber` must have been already mined"
      },
      "getTGEList()": {
        "details": "This method returns the list of addresses of all TGE contracts ever deployed for this token.",
        "returns": {
          "_0": "array An array of contract addresses"
        }
      },
      "getTgeWithLockedTokensList()": {
        "details": "This method returns the list of addresses of all TGE contracts ever deployed for this token and having active token transfer restrictions.",
        "returns": {
          "_0": "array An array of contract addresses"
        }
      },
      "getTotalProtocolFeeReserved()": {
        "details": "This method returns the accumulated value stored in the contract's memory, which represents the number of token units that are reserved and should be issued and sent as the contract's fee.",
        "returns": {
          "_0": "uint256 The sum of tokens for the fee"
        }
      },
      "getTotalTGEVestedTokens()": {
        "details": "This method returns the accumulated value stored in the contract's memory, which represents the number of token units that are in vesting at the time of the request.",
        "returns": {
          "_0": "uint256 The sum of tokens in vesting"
        }
      },
      "getVotes(address)": {
        "details": "Gets the current votes balance for `account`"
      },
      "increaseAllowance(address,uint256)": {
        "details": "Atomically increases the allowance granted to `spender` by the caller. This is an alternative to {approve} that can be used as a mitigation for problems described in {IERC20-approve}. Emits an {Approval} event indicating the updated allowance. Requirements: - `spender` cannot be the zero address."
      },
      "initialize(address,address,(uint8,string,string,string,uint256,uint8),address)": {
        "details": "Token creation, can only be started once. At the same time, the TGE contract, which sells the created token, is necessarily simultaneously deployed and receives an entry in the Registry. For the Governance token, the Name field for the ERC20 standard is taken from the trademark of the Pool contract to which the deployed token belongs. For Preference tokens, you can set an arbitrary value of the Name field.",
        "params": {
          "info": "The token parameters, including its type, in the form of a structure described in the TokenInfo method",
          "pool_": "The address of the pool contract",
          "primaryTGE_": "The address of the primary TGE for this token",
          "service_": "The address of the Service contract"
        }
      },
      "isPrimaryTGESuccessful()": {
        "details": "This method indicates whether a successful TGE has been conducted for this token. To determine this, it is sufficient to check the first event from the list of all TGEs. If it ended in failure, then this token cannot be considered active for its pool.",
        "returns": {
          "_0": "bool Is any TGE successful"
        }
      },
      "lastTGE()": {
        "details": "This method returns the address of the last conducted TGE for this token. Sorting is based on the starting block of the TGE, not the ending block (i.e., even if an earlier TGE contract is still active and the most recent one by creation time has already ended, the method will still return the address of the most recent contract).",
        "returns": {
          "_0": "address The contract address"
        }
      },
      "mint(address,uint256)": {
        "details": "Minting of new tokens. Only the TGE or Vesting contract can mint tokens, there is no other way to get an additional issue. If the user who is being minted does not have tokens, they are sent to delegation on his behalf.",
        "params": {
          "amount": "The number of tokens being minted",
          "to": "The address of the account for which new token units are being minted"
        }
      },
      "name()": {
        "details": "Returns the name of the token."
      },
      "nonces(address)": {
        "details": "See {IERC20Permit-nonces}."
      },
      "numCheckpoints(address)": {
        "details": "Get number of checkpoints for `account`."
      },
      "permit(address,address,uint256,uint256,uint8,bytes32,bytes32)": {
        "details": "See {IERC20Permit-permit}."
      },
      "setProtocolFeeReserved(uint256)": {
        "details": "This method modifies the number of token units that are reserved as protocol fee.",
        "params": {
          "amount": "The amount of tokens"
        }
      },
      "setTGEVestedTokens(uint256)": {
        "details": "This method modifies the number of token units that are vested and reserved for claiming by users.",
        "params": {
          "amount": "The amount of tokens"
        }
      },
      "symbol()": {
        "details": "This method returns the short name of the token, its ticker for listing.",
        "returns": {
          "_0": "A string with the name"
        }
      },
      "totalSupply()": {
        "details": "See {IERC20-totalSupply}."
      },
      "totalSupplyWithReserves()": {
        "details": "This method calculates the total supply for the token taking into account the reserved but not yet issued units (for vesting and protocol fee).",
        "returns": {
          "_0": "uint256 The sum of reserved tokens"
        }
      },
      "unlockedBalanceOf(address)": {
        "details": "The given getter returns the total balance of the address that is not locked for transfer, taking into account all the TGEs with which this token was distributed.It is the difference between the actual balance of the account and its locked portion.",
        "params": {
          "account": "The address of the account"
        },
        "returns": {
          "_0": "Unlocked balance of the account"
        }
      }
    },
    "stateVariables": {
      "_decimals": {
        "details": "This parameter is mandatory for all ERC20 tokens and is set to 18 by default. It indicates the precision applied when calculating a particular token. It can also be said that 10 raised to the power of minus decimal is the minimum indivisible amount of the token."
      },
      "description": {
        "details": "Preference token description, allows up to 5000 characters, for others - \"\""
      },
      "pool": {
        "details": "Pool contract address"
      },
      "service": {
        "details": "Service contract address"
      },
      "tgeList": {
        "details": "A list of TGE contract addresses that have been launched to distribute this token. If any of the elements in the list have a \"Successful\" state, it means that the token is valid and used by the pool. If there are no such TGEs, the token can be considered unsuccessful, meaning it is detached from the pool."
      },
      "tgeWithLockedTokensList": {
        "details": "List of all TGEs with locked tokens"
      },
      "tokenType": {
        "details": "Code \"1\" - Governance Token is the main token of the pool, compatible with the ERC20 standard. One such token is equal to one vote. One pool can only have one contract of this type of token. When the primary TGE is launched, dedicated to the distribution of this type of token, the token is only a candidate for the Governance role. In case of a successful TGE, it remains the Governance token of the pool forever. In case of a failed TGE, it carries no weight and voting power for Governance procedures; another token can be appointed in its place through a repeated primary TGE. The cap is set once during the launch of the primary TGE. During each TGE, an additional issuance of Service:ProtocolTokenFee percent of the total volume of tokens distributed during the event takes place and is transferred to the balance of the Service:ProtocolTreasury address.Code \"2\" - Preference Token is an additional pool token, compatible with the ERC20 standard. It does not have voting power. One pool can have multiple independent and non-interacting tokens of this type. In case of a successful TGE, it is recognized by the pool as a Preference token forever. In case of a failed TGE, the pool forgets about such a token, not recognizing it as a Preference token. The cap is set once during the launch of the primary TGE."
      },
      "totalProtocolFeeReserved": {
        "details": "Total amount of tokens reserved for the minting protocol fee"
      },
      "totalVested": {
        "details": "Total Vested tokens for all TGEs"
      }
    },
    "title": "Company (Pool) Token",
    "version": 1
  },
  "userdoc": {
    "kind": "user",
    "methods": {
      "constructor": {
        "notice": "Contract constructor."
      },
      "tgeList(uint256)": {
        "notice": "All TGEs associated with this token"
      },
      "tokenType()": {
        "notice": "Token type code"
      }
    },
    "notice": "Tokens are the primary quantitative characteristic of all entities within the protocol. In addition to their inherent function as a unit of calculation, tokens can also be used as votes and as a unit indicating the degree of participation of an address in an off-chain or on-chain pool project. Tokens of any type can only be issued within the framework of a TGE (Token Generation Event), and by using vesting settings, such a TGE can divide the issuance of purchased or airdropped tokens into stages, as well as temporarily block the ability to transfer them from one address to another.",
    "version": 1
  },
  "storageLayout": {
    "storage": [
      {
        "astId": 1184,
        "contract": "contracts/Token.sol:Token",
        "label": "_initialized",
        "offset": 0,
        "slot": "0",
        "type": "t_uint8"
      },
      {
        "astId": 1187,
        "contract": "contracts/Token.sol:Token",
        "label": "_initializing",
        "offset": 1,
        "slot": "0",
        "type": "t_bool"
      },
      {
        "astId": 5634,
        "contract": "contracts/Token.sol:Token",
        "label": "__gap",
        "offset": 0,
        "slot": "1",
        "type": "t_array(t_uint256)50_storage"
      },
      {
        "astId": 3301,
        "contract": "contracts/Token.sol:Token",
        "label": "_balances",
        "offset": 0,
        "slot": "51",
        "type": "t_mapping(t_address,t_uint256)"
      },
      {
        "astId": 3307,
        "contract": "contracts/Token.sol:Token",
        "label": "_allowances",
        "offset": 0,
        "slot": "52",
        "type": "t_mapping(t_address,t_mapping(t_address,t_uint256))"
      },
      {
        "astId": 3309,
        "contract": "contracts/Token.sol:Token",
        "label": "_totalSupply",
        "offset": 0,
        "slot": "53",
        "type": "t_uint256"
      },
      {
        "astId": 3311,
        "contract": "contracts/Token.sol:Token",
        "label": "_name",
        "offset": 0,
        "slot": "54",
        "type": "t_string_storage"
      },
      {
        "astId": 3313,
        "contract": "contracts/Token.sol:Token",
        "label": "_symbol",
        "offset": 0,
        "slot": "55",
        "type": "t_string_storage"
      },
      {
        "astId": 3893,
        "contract": "contracts/Token.sol:Token",
        "label": "__gap",
        "offset": 0,
        "slot": "56",
        "type": "t_array(t_uint256)45_storage"
      },
      {
        "astId": 3983,
        "contract": "contracts/Token.sol:Token",
        "label": "_cap",
        "offset": 0,
        "slot": "101",
        "type": "t_uint256"
      },
      {
        "astId": 4058,
        "contract": "contracts/Token.sol:Token",
        "label": "__gap",
        "offset": 0,
        "slot": "102",
        "type": "t_array(t_uint256)50_storage"
      },
      {
        "astId": 6395,
        "contract": "contracts/Token.sol:Token",
        "label": "_HASHED_NAME",
        "offset": 0,
        "slot": "152",
        "type": "t_bytes32"
      },
      {
        "astId": 6397,
        "contract": "contracts/Token.sol:Token",
        "label": "_HASHED_VERSION",
        "offset": 0,
        "slot": "153",
        "type": "t_bytes32"
      },
      {
        "astId": 6535,
        "contract": "contracts/Token.sol:Token",
        "label": "__gap",
        "offset": 0,
        "slot": "154",
        "type": "t_array(t_uint256)50_storage"
      },
      {
        "astId": 4827,
        "contract": "contracts/Token.sol:Token",
        "label": "_nonces",
        "offset": 0,
        "slot": "204",
        "type": "t_mapping(t_address,t_struct(Counter)5641_storage)"
      },
      {
        "astId": 4835,
        "contract": "contracts/Token.sol:Token",
        "label": "_PERMIT_TYPEHASH_DEPRECATED_SLOT",
        "offset": 0,
        "slot": "205",
        "type": "t_bytes32"
      },
      {
        "astId": 4991,
        "contract": "contracts/Token.sol:Token",
        "label": "__gap",
        "offset": 0,
        "slot": "206",
        "type": "t_array(t_uint256)49_storage"
      },
      {
        "astId": 4100,
        "contract": "contracts/Token.sol:Token",
        "label": "_delegates",
        "offset": 0,
        "slot": "255",
        "type": "t_mapping(t_address,t_address)"
      },
      {
        "astId": 4106,
        "contract": "contracts/Token.sol:Token",
        "label": "_checkpoints",
        "offset": 0,
        "slot": "256",
        "type": "t_mapping(t_address,t_array(t_struct(Checkpoint)4091_storage)dyn_storage)"
      },
      {
        "astId": 4110,
        "contract": "contracts/Token.sol:Token",
        "label": "_totalSupplyCheckpoints",
        "offset": 0,
        "slot": "257",
        "type": "t_array(t_struct(Checkpoint)4091_storage)dyn_storage"
      },
      {
        "astId": 4775,
        "contract": "contracts/Token.sol:Token",
        "label": "__gap",
        "offset": 0,
        "slot": "258",
        "type": "t_array(t_uint256)47_storage"
      },
      {
        "astId": 17883,
        "contract": "contracts/Token.sol:Token",
        "label": "service",
        "offset": 0,
        "slot": "305",
        "type": "t_contract(IService)22074"
      },
      {
        "astId": 17886,
        "contract": "contracts/Token.sol:Token",
        "label": "pool",
        "offset": 0,
        "slot": "306",
        "type": "t_address"
      },
      {
        "astId": 17890,
        "contract": "contracts/Token.sol:Token",
        "label": "tokenType",
        "offset": 20,
        "slot": "306",
        "type": "t_enum(TokenType)22281"
      },
      {
        "astId": 17893,
        "contract": "contracts/Token.sol:Token",
        "label": "description",
        "offset": 0,
        "slot": "307",
        "type": "t_string_storage"
      },
      {
        "astId": 17897,
        "contract": "contracts/Token.sol:Token",
        "label": "tgeList",
        "offset": 0,
        "slot": "308",
        "type": "t_array(t_address)dyn_storage"
      },
      {
        "astId": 17900,
        "contract": "contracts/Token.sol:Token",
        "label": "_decimals",
        "offset": 0,
        "slot": "309",
        "type": "t_uint8"
      },
      {
        "astId": 17903,
        "contract": "contracts/Token.sol:Token",
        "label": "totalVested",
        "offset": 0,
        "slot": "310",
        "type": "t_uint256"
      },
      {
        "astId": 17907,
        "contract": "contracts/Token.sol:Token",
        "label": "tgeWithLockedTokensList",
        "offset": 0,
        "slot": "311",
        "type": "t_array(t_address)dyn_storage"
      },
      {
        "astId": 17910,
        "contract": "contracts/Token.sol:Token",
        "label": "totalProtocolFeeReserved",
        "offset": 0,
        "slot": "312",
        "type": "t_uint256"
      }
    ],
    "types": {
      "t_address": {
        "encoding": "inplace",
        "label": "address",
        "numberOfBytes": "20"
      },
      "t_array(t_address)dyn_storage": {
        "base": "t_address",
        "encoding": "dynamic_array",
        "label": "address[]",
        "numberOfBytes": "32"
      },
      "t_array(t_struct(Checkpoint)4091_storage)dyn_storage": {
        "base": "t_struct(Checkpoint)4091_storage",
        "encoding": "dynamic_array",
        "label": "struct ERC20VotesUpgradeable.Checkpoint[]",
        "numberOfBytes": "32"
      },
      "t_array(t_uint256)45_storage": {
        "base": "t_uint256",
        "encoding": "inplace",
        "label": "uint256[45]",
        "numberOfBytes": "1440"
      },
      "t_array(t_uint256)47_storage": {
        "base": "t_uint256",
        "encoding": "inplace",
        "label": "uint256[47]",
        "numberOfBytes": "1504"
      },
      "t_array(t_uint256)49_storage": {
        "base": "t_uint256",
        "encoding": "inplace",
        "label": "uint256[49]",
        "numberOfBytes": "1568"
      },
      "t_array(t_uint256)50_storage": {
        "base": "t_uint256",
        "encoding": "inplace",
        "label": "uint256[50]",
        "numberOfBytes": "1600"
      },
      "t_bool": {
        "encoding": "inplace",
        "label": "bool",
        "numberOfBytes": "1"
      },
      "t_bytes32": {
        "encoding": "inplace",
        "label": "bytes32",
        "numberOfBytes": "32"
      },
      "t_contract(IService)22074": {
        "encoding": "inplace",
        "label": "contract IService",
        "numberOfBytes": "20"
      },
      "t_enum(TokenType)22281": {
        "encoding": "inplace",
        "label": "enum IToken.TokenType",
        "numberOfBytes": "1"
      },
      "t_mapping(t_address,t_address)": {
        "encoding": "mapping",
        "key": "t_address",
        "label": "mapping(address => address)",
        "numberOfBytes": "32",
        "value": "t_address"
      },
      "t_mapping(t_address,t_array(t_struct(Checkpoint)4091_storage)dyn_storage)": {
        "encoding": "mapping",
        "key": "t_address",
        "label": "mapping(address => struct ERC20VotesUpgradeable.Checkpoint[])",
        "numberOfBytes": "32",
        "value": "t_array(t_struct(Checkpoint)4091_storage)dyn_storage"
      },
      "t_mapping(t_address,t_mapping(t_address,t_uint256))": {
        "encoding": "mapping",
        "key": "t_address",
        "label": "mapping(address => mapping(address => uint256))",
        "numberOfBytes": "32",
        "value": "t_mapping(t_address,t_uint256)"
      },
      "t_mapping(t_address,t_struct(Counter)5641_storage)": {
        "encoding": "mapping",
        "key": "t_address",
        "label": "mapping(address => struct CountersUpgradeable.Counter)",
        "numberOfBytes": "32",
        "value": "t_struct(Counter)5641_storage"
      },
      "t_mapping(t_address,t_uint256)": {
        "encoding": "mapping",
        "key": "t_address",
        "label": "mapping(address => uint256)",
        "numberOfBytes": "32",
        "value": "t_uint256"
      },
      "t_string_storage": {
        "encoding": "bytes",
        "label": "string",
        "numberOfBytes": "32"
      },
      "t_struct(Checkpoint)4091_storage": {
        "encoding": "inplace",
        "label": "struct ERC20VotesUpgradeable.Checkpoint",
        "members": [
          {
            "astId": 4088,
            "contract": "contracts/Token.sol:Token",
            "label": "fromBlock",
            "offset": 0,
            "slot": "0",
            "type": "t_uint32"
          },
          {
            "astId": 4090,
            "contract": "contracts/Token.sol:Token",
            "label": "votes",
            "offset": 4,
            "slot": "0",
            "type": "t_uint224"
          }
        ],
        "numberOfBytes": "32"
      },
      "t_struct(Counter)5641_storage": {
        "encoding": "inplace",
        "label": "struct CountersUpgradeable.Counter",
        "members": [
          {
            "astId": 5640,
            "contract": "contracts/Token.sol:Token",
            "label": "_value",
            "offset": 0,
            "slot": "0",
            "type": "t_uint256"
          }
        ],
        "numberOfBytes": "32"
      },
      "t_uint224": {
        "encoding": "inplace",
        "label": "uint224",
        "numberOfBytes": "28"
      },
      "t_uint256": {
        "encoding": "inplace",
        "label": "uint256",
        "numberOfBytes": "32"
      },
      "t_uint32": {
        "encoding": "inplace",
        "label": "uint32",
        "numberOfBytes": "4"
      },
      "t_uint8": {
        "encoding": "inplace",
        "label": "uint8",
        "numberOfBytes": "1"
      }
    }
  }
}