{
  "address": "0x1EC173c3A0D51BA2d4fdD9DAAADCD0C118088383",
  "abi": [
    {
      "inputs": [],
      "stateMutability": "nonpayable",
      "type": "constructor"
    },
    {
      "anonymous": false,
      "inputs": [
        {
          "indexed": true,
          "internalType": "address",
          "name": "account",
          "type": "address"
        },
        {
          "indexed": true,
          "internalType": "address",
          "name": "operator",
          "type": "address"
        },
        {
          "indexed": false,
          "internalType": "bool",
          "name": "approved",
          "type": "bool"
        }
      ],
      "name": "ApprovalForAll",
      "type": "event"
    },
    {
      "anonymous": false,
      "inputs": [
        {
          "indexed": false,
          "internalType": "uint8",
          "name": "version",
          "type": "uint8"
        }
      ],
      "name": "Initialized",
      "type": "event"
    },
    {
      "anonymous": false,
      "inputs": [
        {
          "indexed": true,
          "internalType": "address",
          "name": "operator",
          "type": "address"
        },
        {
          "indexed": true,
          "internalType": "address",
          "name": "from",
          "type": "address"
        },
        {
          "indexed": true,
          "internalType": "address",
          "name": "to",
          "type": "address"
        },
        {
          "indexed": false,
          "internalType": "uint256[]",
          "name": "ids",
          "type": "uint256[]"
        },
        {
          "indexed": false,
          "internalType": "uint256[]",
          "name": "values",
          "type": "uint256[]"
        }
      ],
      "name": "TransferBatch",
      "type": "event"
    },
    {
      "anonymous": false,
      "inputs": [
        {
          "indexed": true,
          "internalType": "address",
          "name": "operator",
          "type": "address"
        },
        {
          "indexed": true,
          "internalType": "address",
          "name": "from",
          "type": "address"
        },
        {
          "indexed": true,
          "internalType": "address",
          "name": "to",
          "type": "address"
        },
        {
          "indexed": false,
          "internalType": "uint256",
          "name": "id",
          "type": "uint256"
        },
        {
          "indexed": false,
          "internalType": "uint256",
          "name": "value",
          "type": "uint256"
        }
      ],
      "name": "TransferSingle",
      "type": "event"
    },
    {
      "anonymous": false,
      "inputs": [
        {
          "indexed": false,
          "internalType": "string",
          "name": "value",
          "type": "string"
        },
        {
          "indexed": true,
          "internalType": "uint256",
          "name": "id",
          "type": "uint256"
        }
      ],
      "name": "URI",
      "type": "event"
    },
    {
      "inputs": [
        {
          "internalType": "address",
          "name": "tge",
          "type": "address"
        },
        {
          "internalType": "uint256",
          "name": "tokenId",
          "type": "uint256"
        }
      ],
      "name": "addTGE",
      "outputs": [],
      "stateMutability": "nonpayable",
      "type": "function"
    },
    {
      "inputs": [
        {
          "internalType": "address",
          "name": "account",
          "type": "address"
        },
        {
          "internalType": "uint256",
          "name": "id",
          "type": "uint256"
        }
      ],
      "name": "balanceOf",
      "outputs": [
        {
          "internalType": "uint256",
          "name": "",
          "type": "uint256"
        }
      ],
      "stateMutability": "view",
      "type": "function"
    },
    {
      "inputs": [
        {
          "internalType": "address[]",
          "name": "accounts",
          "type": "address[]"
        },
        {
          "internalType": "uint256[]",
          "name": "ids",
          "type": "uint256[]"
        }
      ],
      "name": "balanceOfBatch",
      "outputs": [
        {
          "internalType": "uint256[]",
          "name": "",
          "type": "uint256[]"
        }
      ],
      "stateMutability": "view",
      "type": "function"
    },
    {
      "inputs": [
        {
          "internalType": "address",
          "name": "from",
          "type": "address"
        },
        {
          "internalType": "uint256",
          "name": "tokenId",
          "type": "uint256"
        },
        {
          "internalType": "uint256",
          "name": "amount",
          "type": "uint256"
        }
      ],
      "name": "burn",
      "outputs": [],
      "stateMutability": "nonpayable",
      "type": "function"
    },
    {
      "inputs": [
        {
          "internalType": "uint256",
          "name": "",
          "type": "uint256"
        }
      ],
      "name": "cap",
      "outputs": [
        {
          "internalType": "uint256",
          "name": "",
          "type": "uint256"
        }
      ],
      "stateMutability": "view",
      "type": "function"
    },
    {
      "inputs": [],
      "name": "decimals",
      "outputs": [
        {
          "internalType": "uint8",
          "name": "",
          "type": "uint8"
        }
      ],
      "stateMutability": "pure",
      "type": "function"
    },
    {
      "inputs": [],
      "name": "description",
      "outputs": [
        {
          "internalType": "string",
          "name": "",
          "type": "string"
        }
      ],
      "stateMutability": "view",
      "type": "function"
    },
    {
      "inputs": [
        {
          "internalType": "uint256",
          "name": "id",
          "type": "uint256"
        }
      ],
      "name": "exists",
      "outputs": [
        {
          "internalType": "bool",
          "name": "",
          "type": "bool"
        }
      ],
      "stateMutability": "view",
      "type": "function"
    },
    {
      "inputs": [
        {
          "internalType": "uint256",
          "name": "tokenId",
          "type": "uint256"
        }
      ],
      "name": "getTGEList",
      "outputs": [
        {
          "internalType": "address[]",
          "name": "",
          "type": "address[]"
        }
      ],
      "stateMutability": "view",
      "type": "function"
    },
    {
      "inputs": [
        {
          "internalType": "uint256",
          "name": "tokenId",
          "type": "uint256"
        }
      ],
      "name": "getTgeWithLockedTokensList",
      "outputs": [
        {
          "internalType": "address[]",
          "name": "",
          "type": "address[]"
        }
      ],
      "stateMutability": "view",
      "type": "function"
    },
    {
      "inputs": [
        {
          "internalType": "uint256",
          "name": "tokenId",
          "type": "uint256"
        }
      ],
      "name": "getTotalProtocolFeeReserved",
      "outputs": [
        {
          "internalType": "uint256",
          "name": "",
          "type": "uint256"
        }
      ],
      "stateMutability": "view",
      "type": "function"
    },
    {
      "inputs": [
        {
          "internalType": "uint256",
          "name": "tokenId",
          "type": "uint256"
        }
      ],
      "name": "getTotalTGEVestedTokens",
      "outputs": [
        {
          "internalType": "uint256",
          "name": "",
          "type": "uint256"
        }
      ],
      "stateMutability": "view",
      "type": "function"
    },
    {
      "inputs": [
        {
          "internalType": "uint256",
          "name": "limit",
          "type": "uint256"
        },
        {
          "internalType": "uint256",
          "name": "offset",
          "type": "uint256"
        }
      ],
      "name": "getURIList",
      "outputs": [
        {
          "internalType": "string[]",
          "name": "",
          "type": "string[]"
        }
      ],
      "stateMutability": "view",
      "type": "function"
    },
    {
      "inputs": [
        {
          "internalType": "contract IService",
          "name": "_service",
          "type": "address"
        },
        {
          "internalType": "address",
          "name": "_pool",
          "type": "address"
        },
        {
          "components": [
            {
              "internalType": "enum IToken.TokenType",
              "name": "tokenType",
              "type": "uint8"
            },
            {
              "internalType": "string",
              "name": "name",
              "type": "string"
            },
            {
              "internalType": "string",
              "name": "symbol",
              "type": "string"
            },
            {
              "internalType": "string",
              "name": "description",
              "type": "string"
            },
            {
              "internalType": "uint256",
              "name": "cap",
              "type": "uint256"
            },
            {
              "internalType": "uint8",
              "name": "decimals",
              "type": "uint8"
            }
          ],
          "internalType": "struct IToken.TokenInfo",
          "name": "_info",
          "type": "tuple"
        },
        {
          "internalType": "address",
          "name": "_primaryTGE",
          "type": "address"
        }
      ],
      "name": "initialize",
      "outputs": [],
      "stateMutability": "nonpayable",
      "type": "function"
    },
    {
      "inputs": [
        {
          "internalType": "address",
          "name": "account",
          "type": "address"
        },
        {
          "internalType": "address",
          "name": "operator",
          "type": "address"
        }
      ],
      "name": "isApprovedForAll",
      "outputs": [
        {
          "internalType": "bool",
          "name": "",
          "type": "bool"
        }
      ],
      "stateMutability": "view",
      "type": "function"
    },
    {
      "inputs": [],
      "name": "isERC1155",
      "outputs": [
        {
          "internalType": "bool",
          "name": "",
          "type": "bool"
        }
      ],
      "stateMutability": "pure",
      "type": "function"
    },
    {
      "inputs": [
        {
          "internalType": "uint256",
          "name": "_tokenId",
          "type": "uint256"
        }
      ],
      "name": "isPrimaryTGESuccessful",
      "outputs": [
        {
          "internalType": "bool",
          "name": "",
          "type": "bool"
        }
      ],
      "stateMutability": "view",
      "type": "function"
    },
    {
      "inputs": [
        {
          "internalType": "uint256",
          "name": "tokenId",
          "type": "uint256"
        }
      ],
      "name": "lastTGE",
      "outputs": [
        {
          "internalType": "address",
          "name": "",
          "type": "address"
        }
      ],
      "stateMutability": "view",
      "type": "function"
    },
    {
      "inputs": [],
      "name": "lastTokenId",
      "outputs": [
        {
          "internalType": "uint256",
          "name": "",
          "type": "uint256"
        }
      ],
      "stateMutability": "view",
      "type": "function"
    },
    {
      "inputs": [
        {
          "internalType": "address",
          "name": "to",
          "type": "address"
        },
        {
          "internalType": "uint256",
          "name": "tokenId",
          "type": "uint256"
        },
        {
          "internalType": "uint256",
          "name": "amount",
          "type": "uint256"
        }
      ],
      "name": "mint",
      "outputs": [],
      "stateMutability": "nonpayable",
      "type": "function"
    },
    {
      "inputs": [],
      "name": "name",
      "outputs": [
        {
          "internalType": "string",
          "name": "",
          "type": "string"
        }
      ],
      "stateMutability": "view",
      "type": "function"
    },
    {
      "inputs": [],
      "name": "pool",
      "outputs": [
        {
          "internalType": "address",
          "name": "",
          "type": "address"
        }
      ],
      "stateMutability": "view",
      "type": "function"
    },
    {
      "inputs": [
        {
          "internalType": "address",
          "name": "from",
          "type": "address"
        },
        {
          "internalType": "address",
          "name": "to",
          "type": "address"
        },
        {
          "internalType": "uint256[]",
          "name": "ids",
          "type": "uint256[]"
        },
        {
          "internalType": "uint256[]",
          "name": "amounts",
          "type": "uint256[]"
        },
        {
          "internalType": "bytes",
          "name": "data",
          "type": "bytes"
        }
      ],
      "name": "safeBatchTransferFrom",
      "outputs": [],
      "stateMutability": "nonpayable",
      "type": "function"
    },
    {
      "inputs": [
        {
          "internalType": "address",
          "name": "from",
          "type": "address"
        },
        {
          "internalType": "address",
          "name": "to",
          "type": "address"
        },
        {
          "internalType": "uint256",
          "name": "id",
          "type": "uint256"
        },
        {
          "internalType": "uint256",
          "name": "amount",
          "type": "uint256"
        },
        {
          "internalType": "bytes",
          "name": "data",
          "type": "bytes"
        }
      ],
      "name": "safeTransferFrom",
      "outputs": [],
      "stateMutability": "nonpayable",
      "type": "function"
    },
    {
      "inputs": [],
      "name": "service",
      "outputs": [
        {
          "internalType": "contract IService",
          "name": "",
          "type": "address"
        }
      ],
      "stateMutability": "view",
      "type": "function"
    },
    {
      "inputs": [
        {
          "internalType": "address",
          "name": "operator",
          "type": "address"
        },
        {
          "internalType": "bool",
          "name": "approved",
          "type": "bool"
        }
      ],
      "name": "setApprovalForAll",
      "outputs": [],
      "stateMutability": "nonpayable",
      "type": "function"
    },
    {
      "inputs": [
        {
          "internalType": "uint256",
          "name": "tokenId",
          "type": "uint256"
        }
      ],
      "name": "setLastTokenId",
      "outputs": [],
      "stateMutability": "nonpayable",
      "type": "function"
    },
    {
      "inputs": [
        {
          "internalType": "uint256",
          "name": "amount",
          "type": "uint256"
        },
        {
          "internalType": "uint256",
          "name": "tokenId",
          "type": "uint256"
        }
      ],
      "name": "setProtocolFeeReserved",
      "outputs": [],
      "stateMutability": "nonpayable",
      "type": "function"
    },
    {
      "inputs": [
        {
          "internalType": "uint256",
          "name": "amount",
          "type": "uint256"
        },
        {
          "internalType": "uint256",
          "name": "tokenId",
          "type": "uint256"
        }
      ],
      "name": "setTGEVestedTokens",
      "outputs": [],
      "stateMutability": "nonpayable",
      "type": "function"
    },
    {
      "inputs": [
        {
          "internalType": "uint256",
          "name": "_tokenId",
          "type": "uint256"
        },
        {
          "internalType": "uint256",
          "name": "_cap",
          "type": "uint256"
        }
      ],
      "name": "setTokenIdCap",
      "outputs": [],
      "stateMutability": "nonpayable",
      "type": "function"
    },
    {
      "inputs": [
        {
          "internalType": "uint256",
          "name": "tokenId",
          "type": "uint256"
        },
        {
          "internalType": "string",
          "name": "tokenURI",
          "type": "string"
        }
      ],
      "name": "setURI",
      "outputs": [],
      "stateMutability": "nonpayable",
      "type": "function"
    },
    {
      "inputs": [
        {
          "internalType": "bytes4",
          "name": "interfaceId",
          "type": "bytes4"
        }
      ],
      "name": "supportsInterface",
      "outputs": [
        {
          "internalType": "bool",
          "name": "",
          "type": "bool"
        }
      ],
      "stateMutability": "view",
      "type": "function"
    },
    {
      "inputs": [],
      "name": "symbol",
      "outputs": [
        {
          "internalType": "string",
          "name": "",
          "type": "string"
        }
      ],
      "stateMutability": "view",
      "type": "function"
    },
    {
      "inputs": [
        {
          "internalType": "uint256",
          "name": "",
          "type": "uint256"
        },
        {
          "internalType": "uint256",
          "name": "",
          "type": "uint256"
        }
      ],
      "name": "tgeList",
      "outputs": [
        {
          "internalType": "address",
          "name": "",
          "type": "address"
        }
      ],
      "stateMutability": "view",
      "type": "function"
    },
    {
      "inputs": [],
      "name": "tokenType",
      "outputs": [
        {
          "internalType": "enum IToken.TokenType",
          "name": "",
          "type": "uint8"
        }
      ],
      "stateMutability": "view",
      "type": "function"
    },
    {
      "inputs": [
        {
          "internalType": "uint256",
          "name": "id",
          "type": "uint256"
        }
      ],
      "name": "totalSupply",
      "outputs": [
        {
          "internalType": "uint256",
          "name": "",
          "type": "uint256"
        }
      ],
      "stateMutability": "view",
      "type": "function"
    },
    {
      "inputs": [
        {
          "internalType": "uint256",
          "name": "tokenId",
          "type": "uint256"
        }
      ],
      "name": "totalSupplyWithReserves",
      "outputs": [
        {
          "internalType": "uint256",
          "name": "",
          "type": "uint256"
        }
      ],
      "stateMutability": "view",
      "type": "function"
    },
    {
      "inputs": [
        {
          "internalType": "address",
          "name": "from",
          "type": "address"
        },
        {
          "internalType": "address",
          "name": "to",
          "type": "address"
        },
        {
          "internalType": "uint256",
          "name": "tokenId",
          "type": "uint256"
        },
        {
          "internalType": "uint256",
          "name": "amount",
          "type": "uint256"
        }
      ],
      "name": "transfer",
      "outputs": [],
      "stateMutability": "nonpayable",
      "type": "function"
    },
    {
      "inputs": [
        {
          "internalType": "address",
          "name": "account",
          "type": "address"
        },
        {
          "internalType": "uint256",
          "name": "tokenId",
          "type": "uint256"
        }
      ],
      "name": "unlockedBalanceOf",
      "outputs": [
        {
          "internalType": "uint256",
          "name": "",
          "type": "uint256"
        }
      ],
      "stateMutability": "view",
      "type": "function"
    },
    {
      "inputs": [
        {
          "internalType": "uint256",
          "name": "tokenId",
          "type": "uint256"
        }
      ],
      "name": "uri",
      "outputs": [
        {
          "internalType": "string",
          "name": "",
          "type": "string"
        }
      ],
      "stateMutability": "view",
      "type": "function"
    }
  ],
  "transactionHash": "0x6fd232dac7de39e1943435a3113f7fb36393caf8bf2387717f09fabeb25cf451",
  "args": [],
  "numDeployments": 2,
  "solcInputHash": "0762d4eb531d05dc95fd5d895d7fecc0",
  "bytecode": "0x60806040523480156200001157600080fd5b506200001c62000022565b620000e4565b600054610100900460ff16156200008f5760405162461bcd60e51b815260206004820152602760248201527f496e697469616c697a61626c653a20636f6e747261637420697320696e697469604482015266616c697a696e6760c81b606482015260840160405180910390fd5b60005460ff9081161015620000e2576000805460ff191660ff9081179091556040519081527f7f26b83ff96e1f2b6a682f133852f6798a09c465da95921460cefb38474024989060200160405180910390a15b565b613d0b80620000f46000396000f3fe608060405234801561001057600080fd5b50600436106102475760003560e01c80634f558e791161013b578063bd85b039116100b8578063e985e9c51161007c578063e985e9c514610569578063f242432a146105a5578063f5298aca146105b8578063f84ddf0b146105cb578063ff2ad8e4146105d457600080fd5b8063bd85b039146104f0578063cb4d10fe14610510578063d3489a9e14610523578063d598d4c914610543578063e81f35fd1461055657600080fd5b80638eeaaed9116100ff5780638eeaaed91461049c57806395d89b41146104af578063a22cb465146104b7578063ac5e23c3146104ca578063adf3ebc6146104dd57600080fd5b80634f558e79146104395780635ac9902a1461045b5780635b67aec61461046e5780637284e41614610481578063862440e21461048957600080fd5b80631d7a63ae116101c9578063313ce5671161018d578063313ce567146103b7578063455dd188146103c6578063468b3b33146103e65780634a2ef42f146103f95780634e1273f41461041957600080fd5b80631d7a63ae1461033d57806328a477bf146103505780632e6907a3146103705780632eb2c2d61461038357806330fa738c1461039657600080fd5b806314c5238f1161021057806314c5238f146102d2578063156e29f6146102e557806316f0115b146102f8578063188ada3d146103235780631bd0b6161461033657600080fd5b8062fdd58e1461024c57806301ffc9a7146102725780630411b2521461029557806306fdde03146102aa5780630e89341c146102bf575b600080fd5b61025f61025a366004612fad565b6105f4565b6040519081526020015b60405180910390f35b610285610280366004612fef565b61068f565b6040519015158152602001610269565b6102a86102a336600461300c565b6106df565b005b6102b26107af565b6040516102699190613098565b6102b26102cd3660046130ab565b61083d565b6102856102e03660046130ab565b6108df565b6102a86102f33660046130c4565b61099d565b60ce5461030b906001600160a01b031681565b6040516001600160a01b039091168152602001610269565b6102a86103313660046130f9565b610b84565b6001610285565b6102a861034b3660046130f9565b610d5c565b61025f61035e3660046130ab565b600090815260d2602052604090205490565b61030b61037e3660046130f9565b610e94565b6102a861039136600461328c565b610ecc565b60ce546103aa90600160a01b900460ff1681565b604051610269919061334f565b60405160008152602001610269565b6103d96103d43660046130ab565b610f11565b6040516102699190613377565b61025f6103f4366004612fad565b610f7c565b61040c6104073660046130f9565b6110bb565b60405161026991906133c4565b61042c610427366004613426565b61120e565b604051610269919061352d565b6102856104473660046130ab565b600090815260976020526040902054151590565b6103d96104693660046130ab565b61132f565b6102a861047c3660046130f9565b611399565b6102b261147d565b6102a8610497366004613540565b61148a565b6102a86104aa366004612fad565b6115bf565b6102b26116f0565b6102a86104c536600461358a565b6116fd565b6102a86104d83660046135ec565b611708565b61025f6104eb3660046130ab565b611947565b61025f6104fe3660046130ab565b60009081526097602052604090205490565b61030b61051e3660046130ab565b611986565b61025f6105313660046130ab565b600090815260d4602052604090205490565b60c95461030b906001600160a01b031681565b6102a86105643660046130ab565b6119cd565b610285610577366004613703565b6001600160a01b03918216600090815260666020908152604080832093909416825291909152205460ff1690565b6102a86105b3366004613731565b611b07565b6102a86105c63660046130c4565b611b4c565b61025f60cd5481565b61025f6105e23660046130ab565b60cc6020526000908152604090205481565b60006001600160a01b0383166106645760405162461bcd60e51b815260206004820152602a60248201527f455243313135353a2061646472657373207a65726f206973206e6f742061207660448201526930b634b21037bbb732b960b11b60648201526084015b60405180910390fd5b5060008181526065602090815260408083206001600160a01b03861684529091529020545b92915050565b60006001600160e01b03198216636cdb3d1360e11b14806106c057506001600160e01b031982166303a24d0760e21b145b8061068957506301ffc9a760e01b6001600160e01b0319831614610689565b60ce60009054906101000a90046001600160a01b03166001600160a01b0316635c975abb6040518163ffffffff1660e01b8152600401602060405180830381865afa158015610732573d6000803e3d6000fd5b505050506040513d601f19601f820116820180604052508101906107569190613799565b156040518060400160405280600e81526020016d14d154959250d157d4105554d15160921b8152509061079c5760405162461bcd60e51b815260040161065b9190613098565b506107a984848484611f19565b50505050565b60cf80546107bc906137b6565b80601f01602080910402602001604051908101604052809291908181526020018280546107e8906137b6565b80156108355780601f1061080a57610100808354040283529160200191610835565b820191906000526020600020905b81548152906001019060200180831161081857829003601f168201915b505050505081565b600081815260cb6020526040902080546060919061085a906137b6565b80601f0160208091040260200160405190810160405280929190818152602001828054610886906137b6565b80156108d35780601f106108a8576101008083540402835291602001916108d3565b820191906000526020600020905b8154815290600101906020018083116108b657829003601f168201915b50505050509050919050565b600060cd548211156108f357506000919050565b600082815260d160205260408120805460029290610913576109136137f0565b600091825260209182902001546040805163c19d93fb60e01b815290516001600160a01b039092169263c19d93fb926004808401938290030181865afa158015610961573d6000803e3d6000fd5b505050506040513d601f19601f820116820180604052508101906109859190613806565b600281111561099657610996613339565b1492915050565b60c95460408051637b10399960e01b815290516000926004926001600160a01b0390911691637b1039999180850191602091819003860181865afa1580156109e9573d6000803e3d6000fd5b505050506040513d601f19601f82011682018060405250810190610a0d9190613823565b604051630db9619f60e31b81523360048201526001600160a01b039190911690636dcb0cf890602401602060405180830381865afa158015610a53573d6000803e3d6000fd5b505050506040513d601f19601f82011682018060405250810190610a779190613840565b6004811115610a8857610a88613339565b1490506000336001600160a01b031660c960009054906101000a90046001600160a01b03166001600160a01b03166344c63eec6040518163ffffffff1660e01b8152600401602060405180830381865afa158015610aea573d6000803e3d6000fd5b505050506040513d601f19601f82011682018060405250810190610b0e9190613823565b6001600160a01b03161490508180610b235750805b604051806040016040528060078152602001664e4f545f54474560c81b81525090610b615760405162461bcd60e51b815260040161065b9190613098565b50610b7d85858560405180602001604052806000815250611ff3565b5050505050565b60c95460408051637b10399960e01b815290516000926004926001600160a01b0390911691637b1039999180850191602091819003860181865afa158015610bd0573d6000803e3d6000fd5b505050506040513d601f19601f82011682018060405250810190610bf49190613823565b604051630db9619f60e31b81523360048201526001600160a01b039190911690636dcb0cf890602401602060405180830381865afa158015610c3a573d6000803e3d6000fd5b505050506040513d601f19601f82011682018060405250810190610c5e9190613840565b6004811115610c6f57610c6f613339565b1490506000336001600160a01b031660c960009054906101000a90046001600160a01b03166001600160a01b03166344c63eec6040518163ffffffff1660e01b8152600401602060405180830381865afa158015610cd1573d6000803e3d6000fd5b505050506040513d601f19601f82011682018060405250810190610cf59190613823565b6001600160a01b03161490508180610d0a5750805b604051806040016040528060078152602001664e4f545f54474560c81b81525090610d485760405162461bcd60e51b815260040161065b9190613098565b505050600090815260d26020526040902055565b60c95460408051637b10399960e01b815290516004926001600160a01b031691637b103999918185019160209190819003860181865afa158015610da4573d6000803e3d6000fd5b505050506040513d601f19601f82011682018060405250810190610dc89190613823565b604051630db9619f60e31b81523360048201526001600160a01b039190911690636dcb0cf890602401602060405180830381865afa158015610e0e573d6000803e3d6000fd5b505050506040513d601f19601f82011682018060405250810190610e329190613840565b6004811115610e4357610e43613339565b14604051806040016040528060078152602001664e4f545f54474560c81b81525090610e825760405162461bcd60e51b815260040161065b9190613098565b50600090815260d46020526040902055565b60d16020528160005260406000208181548110610eb057600080fd5b6000918252602090912001546001600160a01b03169150829050565b6001600160a01b038516331480610ee85750610ee88533610577565b610f045760405162461bcd60e51b815260040161065b90613861565b610b7d8585858585612118565b600081815260d360209081526040918290208054835181840281018401909452808452606093928301828280156108d357602002820191906000526020600020905b81546001600160a01b03168152600190910190602001808311610f535750505050509050919050565b600080610f8984846105f4565b600084815260d36020908152604080832080548251818502810185019093528083529495509293909291830182828015610fec57602002820191906000526020600020905b81546001600160a01b03168152600190910190602001808311610fce575b505050505090506000805b82518110156110a657828181518110611012576110126137f0565b6020908102919091010151604051632c9aab9b60e11b81526001600160a01b03898116600483015290911690635935573690602401602060405180830381865afa158015611064573d6000803e3d6000fd5b505050506040513d601f19601f8201168201806040525081019061108891906138af565b61109290836138de565b91508061109e816138f1565b915050610ff7565b506110b1818461390a565b9695505050505050565b60606000836001600160401b038111156110d7576110d761311b565b60405190808252806020026020018201604052801561110a57816020015b60608152602001906001900390816110f55790505b50905060005b8481108015611121575060cd548111155b156112065760cb600061113483876138de565b61113f9060016138de565b81526020019081526020016000208054611158906137b6565b80601f0160208091040260200160405190810160405280929190818152602001828054611184906137b6565b80156111d15780601f106111a6576101008083540402835291602001916111d1565b820191906000526020600020905b8154815290600101906020018083116111b457829003601f168201915b50505050508282815181106111e8576111e86137f0565b602002602001018190525080806111fe906138f1565b915050611110565b509392505050565b606081518351146112735760405162461bcd60e51b815260206004820152602960248201527f455243313135353a206163636f756e747320616e6420696473206c656e677468604482015268040dad2e6dac2e8c6d60bb1b606482015260840161065b565b600083516001600160401b0381111561128e5761128e61311b565b6040519080825280602002602001820160405280156112b7578160200160208202803683370190505b50905060005b8451811015611206576113028582815181106112db576112db6137f0565b60200260200101518583815181106112f5576112f56137f0565b60200260200101516105f4565b828281518110611314576113146137f0565b6020908102919091010152611328816138f1565b90506112bd565b600081815260d160209081526040918290208054835181840281018401909452808452606093928301828280156108d3576020028201919060005260206000209081546001600160a01b03168152600190910190602001808311610f535750505050509050919050565b60c960009054906101000a90046001600160a01b03166001600160a01b031663102c5c016040518163ffffffff1660e01b8152600401602060405180830381865afa1580156113ec573d6000803e3d6000fd5b505050506040513d601f19601f820116820180604052508101906114109190613823565b6001600160a01b0316336001600160a01b0316146040518060400160405280600f81526020016e4e4f545f5447455f464143544f525960881b8152509061146a5760405162461bcd60e51b815260040161065b9190613098565b50600091825260cc602052604090912055565b60d080546107bc906137b6565b60c95460408051637b10399960e01b815290516004926001600160a01b031691637b103999918185019160209190819003860181865afa1580156114d2573d6000803e3d6000fd5b505050506040513d601f19601f820116820180604052508101906114f69190613823565b604051630db9619f60e31b81523360048201526001600160a01b039190911690636dcb0cf890602401602060405180830381865afa15801561153c573d6000803e3d6000fd5b505050506040513d601f19601f820116820180604052508101906115609190613840565b600481111561157157611571613339565b14604051806040016040528060078152602001664e4f545f54474560c81b815250906115b05760405162461bcd60e51b815260040161065b9190613098565b506115bb8282612306565b5050565b60c960009054906101000a90046001600160a01b03166001600160a01b031663102c5c016040518163ffffffff1660e01b8152600401602060405180830381865afa158015611612573d6000803e3d6000fd5b505050506040513d601f19601f820116820180604052508101906116369190613823565b6001600160a01b0316336001600160a01b0316146040518060400160405280600f81526020016e4e4f545f5447455f464143544f525960881b815250906116905760405162461bcd60e51b815260040161065b9190613098565b50600081815260d1602090815260408083208054600181810183559185528385200180546001600160a01b039097166001600160a01b0319978816811790915594845260d383529083208054918201815583529120018054909216179055565b60ca80546107bc906137b6565b6115bb338383612363565b600054610100900460ff16158080156117285750600054600160ff909116105b806117425750303b158015611742575060005460ff166001145b6117a55760405162461bcd60e51b815260206004820152602e60248201527f496e697469616c697a61626c653a20636f6e747261637420697320616c72656160448201526d191e481a5b9a5d1a585b1a5e995960921b606482015260840161065b565b6000805460ff1916600117905580156117c8576000805461ff0019166101001790555b6117d0612443565b602083015160cf906117e29082613963565b50604083015160ca906117f59082613963565b50606083015160d0906118089082613963565b50600160cd8181557fb41c81a20ee1317ccb9b438d7e5d59d66d5a6ec10e50c28bfec0bae0f14bf52780548084019091557ff9510bb943c9209ab0871567a2d46d96a772bcbda92cf7a34d76c5c26002d8ad0180546001600160a01b0386166001600160a01b031991821681179092559154600090815260d3602090815260408220805495860181558252902090920180549091169091179055825160ce805460ff60a01b1916600160a01b8360028111156118c6576118c6613339565b021790555060c980546001600160a01b038088166001600160a01b03199283161790925560ce8054928716929091169190911790558015610b7d576000805461ff0019169055604051600181527f7f26b83ff96e1f2b6a682f133852f6798a09c465da95921460cefb38474024989060200160405180910390a15050505050565b600081815260d4602090815260408083205460d28352818420546097909352908320548392611975916138de565b61197f91906138de565b9392505050565b600081815260d16020526040812080546119a29060019061390a565b815481106119b2576119b26137f0565b6000918252602090912001546001600160a01b031692915050565b60c95460408051637b10399960e01b815290516004926001600160a01b031691637b103999918185019160209190819003860181865afa158015611a15573d6000803e3d6000fd5b505050506040513d601f19601f82011682018060405250810190611a399190613823565b604051630db9619f60e31b81523360048201526001600160a01b039190911690636dcb0cf890602401602060405180830381865afa158015611a7f573d6000803e3d6000fd5b505050506040513d601f19601f82011682018060405250810190611aa39190613840565b6004811115611ab457611ab4613339565b14604051806040016040528060078152602001664e4f545f54474560c81b81525090611af35760405162461bcd60e51b815260040161065b9190613098565b5060cd54811115611b045760cd8190555b50565b6001600160a01b038516331480611b235750611b238533610577565b611b3f5760405162461bcd60e51b815260040161065b90613861565b610b7d85858585856124b0565b60ce60009054906101000a90046001600160a01b03166001600160a01b0316635c975abb6040518163ffffffff1660e01b8152600401602060405180830381865afa158015611b9f573d6000803e3d6000fd5b505050506040513d601f19601f82011682018060405250810190611bc39190613799565b156040518060400160405280600e81526020016d14d154959250d157d4105554d15160921b81525090611c095760405162461bcd60e51b815260040161065b9190613098565b5060c95460408051637b10399960e01b815290516000926004926001600160a01b0390911691637b1039999180850191602091819003860181865afa158015611c56573d6000803e3d6000fd5b505050506040513d601f19601f82011682018060405250810190611c7a9190613823565b604051630db9619f60e31b81523360048201526001600160a01b039190911690636dcb0cf890602401602060405180830381865afa158015611cc0573d6000803e3d6000fd5b505050506040513d601f19601f82011682018060405250810190611ce49190613840565b6004811115611cf557611cf5613339565b1490506000336001600160a01b031660c960009054906101000a90046001600160a01b03166001600160a01b03166344c63eec6040518163ffffffff1660e01b8152600401602060405180830381865afa158015611d57573d6000803e3d6000fd5b505050506040513d601f19601f82011682018060405250810190611d7b9190613823565b6001600160a01b03161490508180611d905750805b604051806040016040528060078152602001664e4f545f54474560c81b81525090611dce5760405162461bcd60e51b815260040161065b9190613098565b5060c95460408051637b10399960e01b815290516004926001600160a01b031691637b103999918185019160209190819003860181865afa158015611e17573d6000803e3d6000fd5b505050506040513d601f19601f82011682018060405250810190611e3b9190613823565b604051630db9619f60e31b81523360048201526001600160a01b039190911690636dcb0cf890602401602060405180830381865afa158015611e81573d6000803e3d6000fd5b505050506040513d601f19601f82011682018060405250810190611ea59190613840565b6004811115611eb657611eb6613339565b1480611eca5750336001600160a01b038616145b6040518060400160405280600c81526020016b24a72b20a624a22faaa9a2a960a11b81525090611f0d5760405162461bcd60e51b815260040161065b9190613098565b50610b7d8585856125ec565b60ce60009054906101000a90046001600160a01b03166001600160a01b0316635c975abb6040518163ffffffff1660e01b8152600401602060405180830381865afa158015611f6c573d6000803e3d6000fd5b505050506040513d601f19601f82011682018060405250810190611f909190613799565b156040518060400160405280600e81526020016d14d154959250d157d4105554d15160921b81525090611fd65760405162461bcd60e51b815260040161065b9190613098565b506107a984848484604051806020016040528060008152506124b0565b6001600160a01b0384166120535760405162461bcd60e51b815260206004820152602160248201527f455243313135353a206d696e7420746f20746865207a65726f206164647265736044820152607360f81b606482015260840161065b565b33600061205f85612780565b9050600061206c85612780565b905061207d836000898585896127cb565b60008681526065602090815260408083206001600160a01b038b168452909152812080548792906120af9084906138de565b909155505060408051878152602081018790526001600160a01b03808a1692600092918716917fc3d58168c5ae7397731d063d5bbf3d657854427343f4c083240f7aacaa2d0f62910160405180910390a461210f83600089898989612a1f565b50505050505050565b815183511461217a5760405162461bcd60e51b815260206004820152602860248201527f455243313135353a2069647320616e6420616d6f756e7473206c656e677468206044820152670dad2e6dac2e8c6d60c31b606482015260840161065b565b6001600160a01b0384166121a05760405162461bcd60e51b815260040161065b90613a22565b336121af8187878787876127cb565b60005b84518110156122985760008582815181106121cf576121cf6137f0565b6020026020010151905060008583815181106121ed576121ed6137f0565b60209081029190910181015160008481526065835260408082206001600160a01b038e16835290935291909120549091508181101561223e5760405162461bcd60e51b815260040161065b90613a67565b60008381526065602090815260408083206001600160a01b038e8116855292528083208585039055908b1682528120805484929061227d9084906138de565b9250508190555050505080612291906138f1565b90506121b2565b50846001600160a01b0316866001600160a01b0316826001600160a01b03167f4a39dc06d4c0dbc64b70af90fd698a233a518aa5d07e595d983b8c0526c8f7fb87876040516122e8929190613ab1565b60405180910390a46122fe818787878787612b7a565b505050505050565b600082815260cb6020526040902061231e8282613963565b50817f6bb7ff708619ba0610cba295a58592e0451dee2622938c8755667688daf3529b61234a8461083d565b6040516123579190613098565b60405180910390a25050565b816001600160a01b0316836001600160a01b0316036123d65760405162461bcd60e51b815260206004820152602960248201527f455243313135353a2073657474696e6720617070726f76616c20737461747573604482015268103337b91039b2b63360b91b606482015260840161065b565b6001600160a01b03838116600081815260666020908152604080832094871680845294825291829020805460ff191686151590811790915591519182527f17307eab39ab6107e8899845ad3d59bd9653f200f220920489ca2b5937696c31910160405180910390a3505050565b600054610100900460ff166124ae5760405162461bcd60e51b815260206004820152602b60248201527f496e697469616c697a61626c653a20636f6e7472616374206973206e6f74206960448201526a6e697469616c697a696e6760a81b606482015260840161065b565b565b6001600160a01b0384166124d65760405162461bcd60e51b815260040161065b90613a22565b3360006124e285612780565b905060006124ef85612780565b90506124ff8389898585896127cb565b60008681526065602090815260408083206001600160a01b038c168452909152902054858110156125425760405162461bcd60e51b815260040161065b90613a67565b60008781526065602090815260408083206001600160a01b038d8116855292528083208985039055908a168252812080548892906125819084906138de565b909155505060408051888152602081018890526001600160a01b03808b16928c821692918816917fc3d58168c5ae7397731d063d5bbf3d657854427343f4c083240f7aacaa2d0f62910160405180910390a46125e1848a8a8a8a8a612a1f565b505050505050505050565b6001600160a01b03831661264e5760405162461bcd60e51b815260206004820152602360248201527f455243313135353a206275726e2066726f6d20746865207a65726f206164647260448201526265737360e81b606482015260840161065b565b33600061265a84612780565b9050600061266784612780565b9050612687838760008585604051806020016040528060008152506127cb565b60008581526065602090815260408083206001600160a01b038a168452909152902054848110156127065760405162461bcd60e51b8152602060048201526024808201527f455243313135353a206275726e20616d6f756e7420657863656564732062616c604482015263616e636560e01b606482015260840161065b565b60008681526065602090815260408083206001600160a01b038b81168086529184528285208a8703905582518b81529384018a90529092908816917fc3d58168c5ae7397731d063d5bbf3d657854427343f4c083240f7aacaa2d0f62910160405180910390a460408051602081019091526000905261210f565b604080516001808252818301909252606091600091906020808301908036833701905050905082816000815181106127ba576127ba6137f0565b602090810291909101015292915050565b6127d9868686868686612c35565b6001600160a01b038516156122fe5760005b835181101561210f57612816848281518110612809576128096137f0565b6020026020010151612dae565b6128398685838151811061282c5761282c6137f0565b6020026020010151610f7c565b83828151811061284b5761284b6137f0565b60200260200101511115604051806040016040528060148152602001734c4f575f554e4c4f434b45445f42414c414e434560601b815250906128a05760405162461bcd60e51b815260040161065b9190613098565b5060c960009054906101000a90046001600160a01b03166001600160a01b0316637b1039996040518163ffffffff1660e01b8152600401602060405180830381865afa1580156128f4573d6000803e3d6000fd5b505050506040513d601f19601f820116820180604052508101906129189190613823565b6001600160a01b0316634dbb83fd33306000630411b25260e01b8b8b8b8981518110612946576129466137f0565b60200260200101518b8a81518110612960576129606137f0565b60209081029190910101516040516001600160a01b0394851660248201529390921660448401526064830152608482015260a40160408051601f198184030181529181526020820180516001600160e01b03166001600160e01b03199485161790525160e087901b90921682526129dc94939291600401613adf565b600060405180830381600087803b1580156129f657600080fd5b505af1158015612a0a573d6000803e3d6000fd5b5050505080612a18906138f1565b90506127eb565b6001600160a01b0384163b156122fe5760405163f23a6e6160e01b81526001600160a01b0385169063f23a6e6190612a639089908990889088908890600401613b12565b6020604051808303816000875af1925050508015612a9e575060408051601f3d908101601f19168201909252612a9b91810190613b57565b60015b612b4a57612aaa613b74565b806308c379a003612ae35750612abe613b90565b80612ac95750612ae5565b8060405162461bcd60e51b815260040161065b9190613098565b505b60405162461bcd60e51b815260206004820152603460248201527f455243313135353a207472616e7366657220746f206e6f6e2d455243313135356044820152732932b1b2b4bb32b91034b6b83632b6b2b73a32b960611b606482015260840161065b565b6001600160e01b0319811663f23a6e6160e01b1461210f5760405162461bcd60e51b815260040161065b90613c19565b6001600160a01b0384163b156122fe5760405163bc197c8160e01b81526001600160a01b0385169063bc197c8190612bbe9089908990889088908890600401613c61565b6020604051808303816000875af1925050508015612bf9575060408051601f3d908101601f19168201909252612bf691810190613b57565b60015b612c0557612aaa613b74565b6001600160e01b0319811663bc197c8160e01b1461210f5760405162461bcd60e51b815260040161065b90613c19565b6001600160a01b038516612cbc5760005b8351811015612cba57828181518110612c6157612c616137f0565b602002602001015160976000868481518110612c7f57612c7f6137f0565b602002602001015181526020019081526020016000206000828254612ca491906138de565b90915550612cb39050816138f1565b9050612c46565b505b6001600160a01b0384166122fe5760005b835181101561210f576000848281518110612cea57612cea6137f0565b602002602001015190506000848381518110612d0857612d086137f0565b6020026020010151905060006097600084815260200190815260200160002054905081811015612d8b5760405162461bcd60e51b815260206004820152602860248201527f455243313135353a206275726e20616d6f756e74206578636565647320746f74604482015267616c537570706c7960c01b606482015260840161065b565b60009283526097602052604090922091039055612da7816138f1565b9050612ccd565b600081815260d36020908152604080832080548251818502810185019093528083529192909190830182828015612e0e57602002820191906000526020600020905b81546001600160a01b03168152600190910190602001808311612df0575b5050505050905060005b8151811015612f8357818181518110612e3357612e336137f0565b60200260200101516001600160a01b031663df60fa406040518163ffffffff1660e01b8152600401602060405180830381865afa158015612e78573d6000803e3d6000fd5b505050506040513d601f19601f82011682018060405250810190612e9c9190613799565b15612f7157600083815260d3602052604090208054612ebd9060019061390a565b81548110612ecd57612ecd6137f0565b600091825260208083209091015485835260d3909152604090912080546001600160a01b039092169183908110612f0657612f066137f0565b600091825260208083209190910180546001600160a01b0319166001600160a01b03949094169390931790925584815260d390915260409020805480612f4e57612f4e613cbf565b600082815260209020810160001990810180546001600160a01b03191690550190555b80612f7b816138f1565b915050612e18565b505050565b6001600160a01b0381168114611b0457600080fd5b8035612fa881612f88565b919050565b60008060408385031215612fc057600080fd5b8235612fcb81612f88565b946020939093013593505050565b6001600160e01b031981168114611b0457600080fd5b60006020828403121561300157600080fd5b813561197f81612fd9565b6000806000806080858703121561302257600080fd5b843561302d81612f88565b9350602085013561303d81612f88565b93969395505050506040820135916060013590565b6000815180845260005b818110156130785760208185018101518683018201520161305c565b506000602082860101526020601f19601f83011685010191505092915050565b60208152600061197f6020830184613052565b6000602082840312156130bd57600080fd5b5035919050565b6000806000606084860312156130d957600080fd5b83356130e481612f88565b95602085013595506040909401359392505050565b6000806040838503121561310c57600080fd5b50508035926020909101359150565b634e487b7160e01b600052604160045260246000fd5b601f8201601f191681016001600160401b03811182821017156131565761315661311b565b6040525050565b60405160c081016001600160401b038111828210171561317f5761317f61311b565b60405290565b60006001600160401b0382111561319e5761319e61311b565b5060051b60200190565b600082601f8301126131b957600080fd5b813560206131c682613185565b6040516131d38282613131565b83815260059390931b85018201928281019150868411156131f357600080fd5b8286015b8481101561320e57803583529183019183016131f7565b509695505050505050565b600082601f83011261322a57600080fd5b81356001600160401b038111156132435761324361311b565b60405161325a601f8301601f191660200182613131565b81815284602083860101111561326f57600080fd5b816020850160208301376000918101602001919091529392505050565b600080600080600060a086880312156132a457600080fd5b85356132af81612f88565b945060208601356132bf81612f88565b935060408601356001600160401b03808211156132db57600080fd5b6132e789838a016131a8565b945060608801359150808211156132fd57600080fd5b61330989838a016131a8565b9350608088013591508082111561331f57600080fd5b5061332c88828901613219565b9150509295509295909350565b634e487b7160e01b600052602160045260246000fd5b602081016003831061337157634e487b7160e01b600052602160045260246000fd5b91905290565b6020808252825182820181905260009190848201906040850190845b818110156133b85783516001600160a01b031683529284019291840191600101613393565b50909695505050505050565b6000602080830181845280855180835260408601915060408160051b870101925083870160005b8281101561341957603f19888603018452613407858351613052565b945092850192908501906001016133eb565b5092979650505050505050565b6000806040838503121561343957600080fd5b82356001600160401b038082111561345057600080fd5b818501915085601f83011261346457600080fd5b8135602061347182613185565b60405161347e8282613131565b83815260059390931b850182019282810191508984111561349e57600080fd5b948201945b838610156134c55785356134b681612f88565b825294820194908201906134a3565b965050860135925050808211156134db57600080fd5b506134e8858286016131a8565b9150509250929050565b600081518084526020808501945080840160005b8381101561352257815187529582019590820190600101613506565b509495945050505050565b60208152600061197f60208301846134f2565b6000806040838503121561355357600080fd5b8235915060208301356001600160401b0381111561357057600080fd5b6134e885828601613219565b8015158114611b0457600080fd5b6000806040838503121561359d57600080fd5b82356135a881612f88565b915060208301356135b88161357c565b809150509250929050565b60038110611b0457600080fd5b8035612fa8816135c3565b803560ff81168114612fa857600080fd5b6000806000806080858703121561360257600080fd5b843561360d81612f88565b9350602085013561361d81612f88565b925060408501356001600160401b038082111561363957600080fd5b9086019060c0828903121561364d57600080fd5b61365561315d565b61365e836135d0565b815260208301358281111561367257600080fd5b61367e8a828601613219565b60208301525060408301358281111561369657600080fd5b6136a28a828601613219565b6040830152506060830135828111156136ba57600080fd5b6136c68a828601613219565b606083015250608083013560808201526136e260a084016135db565b60a082015293506136f891505060608601612f9d565b905092959194509250565b6000806040838503121561371657600080fd5b823561372181612f88565b915060208301356135b881612f88565b600080600080600060a0868803121561374957600080fd5b853561375481612f88565b9450602086013561376481612f88565b9350604086013592506060860135915060808601356001600160401b0381111561378d57600080fd5b61332c88828901613219565b6000602082840312156137ab57600080fd5b815161197f8161357c565b600181811c908216806137ca57607f821691505b6020821081036137ea57634e487b7160e01b600052602260045260246000fd5b50919050565b634e487b7160e01b600052603260045260246000fd5b60006020828403121561381857600080fd5b815161197f816135c3565b60006020828403121561383557600080fd5b815161197f81612f88565b60006020828403121561385257600080fd5b81516005811061197f57600080fd5b6020808252602e908201527f455243313135353a2063616c6c6572206973206e6f7420746f6b656e206f776e60408201526d195c881bdc88185c1c1c9bdd995960921b606082015260800190565b6000602082840312156138c157600080fd5b5051919050565b634e487b7160e01b600052601160045260246000fd5b80820180821115610689576106896138c8565b600060018201613903576139036138c8565b5060010190565b81810381811115610689576106896138c8565b601f821115612f8357600081815260208120601f850160051c810160208610156139445750805b601f850160051c820191505b818110156122fe57828155600101613950565b81516001600160401b0381111561397c5761397c61311b565b6139908161398a84546137b6565b8461391d565b602080601f8311600181146139c557600084156139ad5750858301515b600019600386901b1c1916600185901b1785556122fe565b600085815260208120601f198616915b828110156139f4578886015182559484019460019091019084016139d5565b5085821015613a125787850151600019600388901b60f8161c191681555b5050505050600190811b01905550565b60208082526025908201527f455243313135353a207472616e7366657220746f20746865207a65726f206164604082015264647265737360d81b606082015260800190565b6020808252602a908201527f455243313135353a20696e73756666696369656e742062616c616e636520666f60408201526939103a3930b739b332b960b11b606082015260800190565b604081526000613ac460408301856134f2565b8281036020840152613ad681856134f2565b95945050505050565b6001600160a01b03858116825284166020820152604081018390526080606082018190526000906110b190830184613052565b6001600160a01b03868116825285166020820152604081018490526060810183905260a060808201819052600090613b4c90830184613052565b979650505050505050565b600060208284031215613b6957600080fd5b815161197f81612fd9565b600060033d1115613b8d5760046000803e5060005160e01c5b90565b600060443d1015613b9e5790565b6040516003193d81016004833e81513d6001600160401b038160248401118184111715613bcd57505050505090565b8285019150815181811115613be55750505050505090565b843d8701016020828501011115613bff5750505050505090565b613c0e60208286010187613131565b509095945050505050565b60208082526028908201527f455243313135353a204552433131353552656365697665722072656a656374656040820152676420746f6b656e7360c01b606082015260800190565b6001600160a01b0386811682528516602082015260a060408201819052600090613c8d908301866134f2565b8281036060840152613c9f81866134f2565b90508281036080840152613cb38185613052565b98975050505050505050565b634e487b7160e01b600052603160045260246000fdfea2646970667358221220401a2c72d8e538788cbc980d37734ad6043dfe0ae6bc0c10973507876200cabb64736f6c63430008110033",
  "devdoc": {
    "details": "An expanded ERC20 contract, based on which tokens of various types are issued. At the moment, the protocol provides for 2 types of tokens: Governance, which must be created simultaneously with the pool, existing for the pool only in the singular and participating in voting, and Preference, which may be several for one pool and which do not participate in voting in any way.",
    "kind": "dev",
    "methods": {
      "addTGE(address,uint256)": {
        "details": "This method adds the TGE contract address to the TGEList of the specified token collection.",
        "params": {
          "tge": "The TGE address.",
          "tokenId": "The token collection of the ERC1155 contract."
        }
      },
      "balanceOf(address,uint256)": {
        "details": "See {IERC1155-balanceOf}. Requirements: - `account` cannot be the zero address."
      },
      "balanceOfBatch(address[],uint256[])": {
        "details": "See {IERC1155-balanceOfBatch}. Requirements: - `accounts` and `ids` must have the same length."
      },
      "burn(address,uint256,uint256)": {
        "details": "Method for burning tokens. It can be called by both token owners and TGE contracts to burn the returned tokens during redeeming.",
        "params": {
          "amount": "The amount of tokens being burned.",
          "from": "The account address.",
          "tokenId": "The token collection of the ERC1155 contract."
        }
      },
      "constructor": {
        "custom:oz-upgrades-unsafe-allow": "constructor",
        "details": "This contract uses OpenZeppelin upgrades and has no need for a constructor function. The constructor is replaced with an initializer function. This method disables the initializer feature of the OpenZeppelin upgrades plugin, preventing the initializer methods from being misused."
      },
      "decimals()": {
        "details": "This method is needed for compatibility with other protocol contracts to optimize algorithms. It always returns 0.",
        "returns": {
          "_0": "uint8 Decimals (always 0)"
        }
      },
      "exists(uint256)": {
        "details": "Indicates whether any token exist with a given id, or not."
      },
      "getTGEList(uint256)": {
        "details": "This method returns the list of addresses of all TGE contracts that have ever been deployed for the specified token collection.",
        "params": {
          "tokenId": "The token collection of the ERC1155 contract."
        },
        "returns": {
          "_0": "array An array of contract addresses."
        }
      },
      "getTgeWithLockedTokensList(uint256)": {
        "details": "This method returns the list of addresses of all TGE contracts that have ever been deployed for the specified token collection and have active transfer restrictions.",
        "params": {
          "tokenId": "The token collection of the ERC1155 contract."
        },
        "returns": {
          "_0": "array An array of contract addresses."
        }
      },
      "getTotalProtocolFeeReserved(uint256)": {
        "details": "This method calculates the total supply for the token, taking into account the reserved but not yet minted token units (for vesting and protocol fee).",
        "params": {
          "tokenId": "The token collection of the ERC1155 contract."
        },
        "returns": {
          "_0": "uint256 The total supply with reserves."
        }
      },
      "getTotalTGEVestedTokens(uint256)": {
        "details": "This method returns the accumulated value stored in the contract's memory, which represents the number of token units from the specified collection that are vested at the time of the request.",
        "params": {
          "tokenId": "The token collection of the ERC1155 contract."
        },
        "returns": {
          "_0": "uint256 The total number of vested tokens."
        }
      },
      "initialize(address,address,(uint8,string,string,string,uint256,uint8),address)": {
        "details": "Token creation, can only be started once. At the same time, the TGE contract, which sells the created token, is necessarily simultaneously deployed and receives an entry in the Registry. For Preference tokens, you can set an arbitrary value of the Name field.",
        "params": {
          "_info": "The parameters of the token, including its type, in the form of a structure described in the TokenInfo method.",
          "_pool": "The address of the pool contract.",
          "_primaryTGE": "The address of the primary TGE for this token.",
          "_service": "The address of the Service contract."
        }
      },
      "isApprovedForAll(address,address)": {
        "details": "See {IERC1155-isApprovedForAll}."
      },
      "isPrimaryTGESuccessful(uint256)": {
        "details": "This method indicates whether a successful TGE has been conducted for the given token collection. It is sufficient to check the first event from the list of all TGEs.",
        "params": {
          "_tokenId": "The token collection of the ERC1155 contract."
        },
        "returns": {
          "_0": "bool Whether any TGE is successful."
        }
      },
      "lastTGE(uint256)": {
        "details": "This method returns the address of the latest TGE contract for the given token collection. Sorting is based on the block of the TGE start, not the end block (i.e., even if an earlier TGE contract is still active while the latest one by creation time has already ended, this method will return the address of the latest contract).",
        "params": {
          "tokenId": "The token collection of the ERC1155 contract."
        },
        "returns": {
          "_0": "address The TGE contract address."
        }
      },
      "mint(address,uint256,uint256)": {
        "details": "Minting of new tokens. Only the TGE or Vesting contract can mint tokens, there is no other way to get an additional issue. If the user who is being minted does not have tokens, they are sent to delegation on his behalf.",
        "params": {
          "amount": "The amount of tokens being minted.",
          "to": "The address of the account for which new token units are being minted.",
          "tokenId": "The token collection of the ERC1155 contract."
        }
      },
      "safeBatchTransferFrom(address,address,uint256[],uint256[],bytes)": {
        "details": "See {IERC1155-safeBatchTransferFrom}."
      },
      "safeTransferFrom(address,address,uint256,uint256,bytes)": {
        "details": "See {IERC1155-safeTransferFrom}."
      },
      "setApprovalForAll(address,bool)": {
        "details": "See {IERC1155-setApprovalForAll}."
      },
      "setProtocolFeeReserved(uint256,uint256)": {
        "details": "This method modifies the number of token units that should be used as protocol fees.",
        "params": {
          "amount": "The amount of tokens.",
          "tokenId": "The token collection of the ERC1155 contract."
        }
      },
      "setTGEVestedTokens(uint256,uint256)": {
        "details": "This method modifies the number of token units that are vested and reserved for claiming by users.",
        "params": {
          "amount": "The amount of tokens.",
          "tokenId": "The token collection of the ERC1155 contract."
        }
      },
      "setTokenIdCap(uint256,uint256)": {
        "details": "This method irreversibly sets the emission cap for each of the created token collections.",
        "params": {
          "_cap": "The maximum emission cap in token units.",
          "_tokenId": "The token collection of the ERC1155 contract."
        }
      },
      "setURI(uint256,string)": {
        "details": "This method sets the metadata URI for each of the token collections.",
        "params": {
          "tokenId": "The token collection of the ERC1155 contract.",
          "tokenURI": "The metadata URI."
        }
      },
      "supportsInterface(bytes4)": {
        "details": "See {IERC165-supportsInterface}."
      },
      "totalSupply(uint256)": {
        "details": "Total amount of tokens in with a given id."
      },
      "totalSupplyWithReserves(uint256)": {
        "details": "This method calculates the total supply for an ERC1155 token collection, taking into account the reserved but not yet minted token units (for vesting and protocol fee).",
        "params": {
          "tokenId": "The token collection of the ERC1155 contract."
        },
        "returns": {
          "_0": "uint256 The total supply of the token collection with reserves."
        }
      },
      "unlockedBalanceOf(address,uint256)": {
        "details": "The given getter returns the total balance of the address that is not locked for transfer, taking into account all the TGEs with which this token collection was distributed.It calculates the difference between the actual balance of the account and its locked portion. The calculation is performed for the specified token collection.",
        "params": {
          "account": "The account address.",
          "tokenId": "The token collection of the ERC1155 contract."
        },
        "returns": {
          "_0": "uint256 The unlocked balance of the account."
        }
      },
      "uri(uint256)": {
        "details": "This getter allows retrieving the stored metadata URI for the specified ERC1155 token collection in the contract.",
        "params": {
          "tokenId": "The token collection of the ERC1155 contract."
        },
        "returns": {
          "_0": "uint256 The metadata URI for the collection."
        }
      }
    },
    "stateVariables": {
      "_tokenURIs": {
        "details": "Mapping storing the URI metadata for each collection of the token"
      },
      "cap": {
        "details": "Mapping storing the maximum caps for each collection of ERC1155 token"
      },
      "description": {
        "details": "Preference token description, allows up to 5000 characters, for others - \"\""
      },
      "lastTokenId": {
        "details": "The identifier (sequential number) of the token collection that was created last"
      },
      "name": {
        "details": "Preference token name"
      },
      "pool": {
        "details": "The address of the pool contract that owns the token"
      },
      "service": {
        "details": "The address of the Service contract"
      },
      "symbol": {
        "details": "The token symbol or ticker for listing"
      },
      "tgeList": {
        "details": "A list of TGE contract addresses that have been launched to distribute collections of this token. The collection ID serves as the key for this mapping."
      },
      "tgeWithLockedTokensList": {
        "details": "Mapping storing lists of TGEs with active token lockups for each collection of this token"
      },
      "tokenType": {
        "details": "In the current version, ERC1155 tokens can only have the code \"2\", which corresponds to the Preference token type."
      },
      "totalProtocolFeeReserved": {
        "details": "Mapping storing the amounts of tokens reserved as protocol fees for each collection of this token"
      },
      "totalVested": {
        "details": "Mapping storing the amounts of tokens in vesting for each collection of this token"
      }
    },
    "title": "Company (Pool) Token",
    "version": 1
  },
  "userdoc": {
    "kind": "user",
    "methods": {
      "constructor": {
        "notice": "Contract constructor."
      },
      "tgeList(uint256,uint256)": {
        "notice": "All TGEs associated with this token"
      },
      "tokenType()": {
        "notice": "The digital code of the token type"
      }
    },
    "version": 1
  },
  "storageLayout": {
    "storage": [
      {
        "astId": 1184,
        "contract": "contracts/TokenERC1155.sol:TokenERC1155",
        "label": "_initialized",
        "offset": 0,
        "slot": "0",
        "type": "t_uint8"
      },
      {
        "astId": 1187,
        "contract": "contracts/TokenERC1155.sol:TokenERC1155",
        "label": "_initializing",
        "offset": 1,
        "slot": "0",
        "type": "t_bool"
      },
      {
        "astId": 5634,
        "contract": "contracts/TokenERC1155.sol:TokenERC1155",
        "label": "__gap",
        "offset": 0,
        "slot": "1",
        "type": "t_array(t_uint256)50_storage"
      },
      {
        "astId": 6579,
        "contract": "contracts/TokenERC1155.sol:TokenERC1155",
        "label": "__gap",
        "offset": 0,
        "slot": "51",
        "type": "t_array(t_uint256)50_storage"
      },
      {
        "astId": 1711,
        "contract": "contracts/TokenERC1155.sol:TokenERC1155",
        "label": "_balances",
        "offset": 0,
        "slot": "101",
        "type": "t_mapping(t_uint256,t_mapping(t_address,t_uint256))"
      },
      {
        "astId": 1717,
        "contract": "contracts/TokenERC1155.sol:TokenERC1155",
        "label": "_operatorApprovals",
        "offset": 0,
        "slot": "102",
        "type": "t_mapping(t_address,t_mapping(t_address,t_bool))"
      },
      {
        "astId": 1719,
        "contract": "contracts/TokenERC1155.sol:TokenERC1155",
        "label": "_uri",
        "offset": 0,
        "slot": "103",
        "type": "t_string_storage"
      },
      {
        "astId": 2926,
        "contract": "contracts/TokenERC1155.sol:TokenERC1155",
        "label": "__gap",
        "offset": 0,
        "slot": "104",
        "type": "t_array(t_uint256)47_storage"
      },
      {
        "astId": 3115,
        "contract": "contracts/TokenERC1155.sol:TokenERC1155",
        "label": "_totalSupply",
        "offset": 0,
        "slot": "151",
        "type": "t_mapping(t_uint256,t_uint256)"
      },
      {
        "astId": 3266,
        "contract": "contracts/TokenERC1155.sol:TokenERC1155",
        "label": "__gap",
        "offset": 0,
        "slot": "152",
        "type": "t_array(t_uint256)49_storage"
      },
      {
        "astId": 18751,
        "contract": "contracts/TokenERC1155.sol:TokenERC1155",
        "label": "service",
        "offset": 0,
        "slot": "201",
        "type": "t_contract(IService)22074"
      },
      {
        "astId": 18754,
        "contract": "contracts/TokenERC1155.sol:TokenERC1155",
        "label": "symbol",
        "offset": 0,
        "slot": "202",
        "type": "t_string_storage"
      },
      {
        "astId": 18759,
        "contract": "contracts/TokenERC1155.sol:TokenERC1155",
        "label": "_tokenURIs",
        "offset": 0,
        "slot": "203",
        "type": "t_mapping(t_uint256,t_string_storage)"
      },
      {
        "astId": 18764,
        "contract": "contracts/TokenERC1155.sol:TokenERC1155",
        "label": "cap",
        "offset": 0,
        "slot": "204",
        "type": "t_mapping(t_uint256,t_uint256)"
      },
      {
        "astId": 18767,
        "contract": "contracts/TokenERC1155.sol:TokenERC1155",
        "label": "lastTokenId",
        "offset": 0,
        "slot": "205",
        "type": "t_uint256"
      },
      {
        "astId": 18770,
        "contract": "contracts/TokenERC1155.sol:TokenERC1155",
        "label": "pool",
        "offset": 0,
        "slot": "206",
        "type": "t_address"
      },
      {
        "astId": 18774,
        "contract": "contracts/TokenERC1155.sol:TokenERC1155",
        "label": "tokenType",
        "offset": 20,
        "slot": "206",
        "type": "t_enum(TokenType)22281"
      },
      {
        "astId": 18777,
        "contract": "contracts/TokenERC1155.sol:TokenERC1155",
        "label": "name",
        "offset": 0,
        "slot": "207",
        "type": "t_string_storage"
      },
      {
        "astId": 18780,
        "contract": "contracts/TokenERC1155.sol:TokenERC1155",
        "label": "description",
        "offset": 0,
        "slot": "208",
        "type": "t_string_storage"
      },
      {
        "astId": 18786,
        "contract": "contracts/TokenERC1155.sol:TokenERC1155",
        "label": "tgeList",
        "offset": 0,
        "slot": "209",
        "type": "t_mapping(t_uint256,t_array(t_address)dyn_storage)"
      },
      {
        "astId": 18791,
        "contract": "contracts/TokenERC1155.sol:TokenERC1155",
        "label": "totalVested",
        "offset": 0,
        "slot": "210",
        "type": "t_mapping(t_uint256,t_uint256)"
      },
      {
        "astId": 18797,
        "contract": "contracts/TokenERC1155.sol:TokenERC1155",
        "label": "tgeWithLockedTokensList",
        "offset": 0,
        "slot": "211",
        "type": "t_mapping(t_uint256,t_array(t_address)dyn_storage)"
      },
      {
        "astId": 18802,
        "contract": "contracts/TokenERC1155.sol:TokenERC1155",
        "label": "totalProtocolFeeReserved",
        "offset": 0,
        "slot": "212",
        "type": "t_mapping(t_uint256,t_uint256)"
      }
    ],
    "types": {
      "t_address": {
        "encoding": "inplace",
        "label": "address",
        "numberOfBytes": "20"
      },
      "t_array(t_address)dyn_storage": {
        "base": "t_address",
        "encoding": "dynamic_array",
        "label": "address[]",
        "numberOfBytes": "32"
      },
      "t_array(t_uint256)47_storage": {
        "base": "t_uint256",
        "encoding": "inplace",
        "label": "uint256[47]",
        "numberOfBytes": "1504"
      },
      "t_array(t_uint256)49_storage": {
        "base": "t_uint256",
        "encoding": "inplace",
        "label": "uint256[49]",
        "numberOfBytes": "1568"
      },
      "t_array(t_uint256)50_storage": {
        "base": "t_uint256",
        "encoding": "inplace",
        "label": "uint256[50]",
        "numberOfBytes": "1600"
      },
      "t_bool": {
        "encoding": "inplace",
        "label": "bool",
        "numberOfBytes": "1"
      },
      "t_contract(IService)22074": {
        "encoding": "inplace",
        "label": "contract IService",
        "numberOfBytes": "20"
      },
      "t_enum(TokenType)22281": {
        "encoding": "inplace",
        "label": "enum IToken.TokenType",
        "numberOfBytes": "1"
      },
      "t_mapping(t_address,t_bool)": {
        "encoding": "mapping",
        "key": "t_address",
        "label": "mapping(address => bool)",
        "numberOfBytes": "32",
        "value": "t_bool"
      },
      "t_mapping(t_address,t_mapping(t_address,t_bool))": {
        "encoding": "mapping",
        "key": "t_address",
        "label": "mapping(address => mapping(address => bool))",
        "numberOfBytes": "32",
        "value": "t_mapping(t_address,t_bool)"
      },
      "t_mapping(t_address,t_uint256)": {
        "encoding": "mapping",
        "key": "t_address",
        "label": "mapping(address => uint256)",
        "numberOfBytes": "32",
        "value": "t_uint256"
      },
      "t_mapping(t_uint256,t_array(t_address)dyn_storage)": {
        "encoding": "mapping",
        "key": "t_uint256",
        "label": "mapping(uint256 => address[])",
        "numberOfBytes": "32",
        "value": "t_array(t_address)dyn_storage"
      },
      "t_mapping(t_uint256,t_mapping(t_address,t_uint256))": {
        "encoding": "mapping",
        "key": "t_uint256",
        "label": "mapping(uint256 => mapping(address => uint256))",
        "numberOfBytes": "32",
        "value": "t_mapping(t_address,t_uint256)"
      },
      "t_mapping(t_uint256,t_string_storage)": {
        "encoding": "mapping",
        "key": "t_uint256",
        "label": "mapping(uint256 => string)",
        "numberOfBytes": "32",
        "value": "t_string_storage"
      },
      "t_mapping(t_uint256,t_uint256)": {
        "encoding": "mapping",
        "key": "t_uint256",
        "label": "mapping(uint256 => uint256)",
        "numberOfBytes": "32",
        "value": "t_uint256"
      },
      "t_string_storage": {
        "encoding": "bytes",
        "label": "string",
        "numberOfBytes": "32"
      },
      "t_uint256": {
        "encoding": "inplace",
        "label": "uint256",
        "numberOfBytes": "32"
      },
      "t_uint8": {
        "encoding": "inplace",
        "label": "uint8",
        "numberOfBytes": "1"
      }
    }
  }
}