{
  "address": "0xC9D2Cd12FF0afda8F401a6304D20D98fd23450d0",
  "abi": [
    {
      "inputs": [],
      "stateMutability": "nonpayable",
      "type": "constructor"
    },
    {
      "anonymous": false,
      "inputs": [
        {
          "indexed": false,
          "internalType": "address",
          "name": "tge",
          "type": "address"
        },
        {
          "indexed": false,
          "internalType": "address",
          "name": "account",
          "type": "address"
        },
        {
          "indexed": false,
          "internalType": "uint256",
          "name": "amount",
          "type": "uint256"
        }
      ],
      "name": "Cancelled",
      "type": "event"
    },
    {
      "anonymous": false,
      "inputs": [
        {
          "indexed": false,
          "internalType": "address",
          "name": "tge",
          "type": "address"
        },
        {
          "indexed": false,
          "internalType": "address",
          "name": "account",
          "type": "address"
        },
        {
          "indexed": false,
          "internalType": "uint256",
          "name": "amount",
          "type": "uint256"
        }
      ],
      "name": "Claimed",
      "type": "event"
    },
    {
      "anonymous": false,
      "inputs": [
        {
          "indexed": false,
          "internalType": "uint8",
          "name": "version",
          "type": "uint8"
        }
      ],
      "name": "Initialized",
      "type": "event"
    },
    {
      "anonymous": false,
      "inputs": [
        {
          "indexed": false,
          "internalType": "address",
          "name": "tge",
          "type": "address"
        },
        {
          "indexed": false,
          "internalType": "address",
          "name": "account",
          "type": "address"
        },
        {
          "indexed": false,
          "internalType": "uint256",
          "name": "amount",
          "type": "uint256"
        }
      ],
      "name": "Recall",
      "type": "event"
    },
    {
      "anonymous": false,
      "inputs": [
        {
          "indexed": false,
          "internalType": "address",
          "name": "tge",
          "type": "address"
        },
        {
          "indexed": false,
          "internalType": "address",
          "name": "account",
          "type": "address"
        },
        {
          "indexed": false,
          "internalType": "uint256",
          "name": "amount",
          "type": "uint256"
        }
      ],
      "name": "Vested",
      "type": "event"
    },
    {
      "inputs": [
        {
          "internalType": "address",
          "name": "tge",
          "type": "address"
        },
        {
          "internalType": "address",
          "name": "account",
          "type": "address"
        }
      ],
      "name": "cancel",
      "outputs": [],
      "stateMutability": "nonpayable",
      "type": "function"
    },
    {
      "inputs": [
        {
          "internalType": "address",
          "name": "tge",
          "type": "address"
        }
      ],
      "name": "claim",
      "outputs": [],
      "stateMutability": "nonpayable",
      "type": "function"
    },
    {
      "inputs": [
        {
          "internalType": "address",
          "name": "",
          "type": "address"
        }
      ],
      "name": "claimTVLReached",
      "outputs": [
        {
          "internalType": "bool",
          "name": "",
          "type": "bool"
        }
      ],
      "stateMutability": "view",
      "type": "function"
    },
    {
      "inputs": [
        {
          "internalType": "address",
          "name": "tge",
          "type": "address"
        },
        {
          "internalType": "address",
          "name": "account",
          "type": "address"
        }
      ],
      "name": "claimableBalanceOf",
      "outputs": [
        {
          "internalType": "uint256",
          "name": "",
          "type": "uint256"
        }
      ],
      "stateMutability": "view",
      "type": "function"
    },
    {
      "inputs": [
        {
          "internalType": "address",
          "name": "",
          "type": "address"
        },
        {
          "internalType": "address",
          "name": "",
          "type": "address"
        }
      ],
      "name": "claimed",
      "outputs": [
        {
          "internalType": "uint256",
          "name": "",
          "type": "uint256"
        }
      ],
      "stateMutability": "view",
      "type": "function"
    },
    {
      "inputs": [
        {
          "internalType": "contract IRegistry",
          "name": "registry_",
          "type": "address"
        }
      ],
      "name": "initialize",
      "outputs": [],
      "stateMutability": "nonpayable",
      "type": "function"
    },
    {
      "inputs": [],
      "name": "registry",
      "outputs": [
        {
          "internalType": "contract IRegistry",
          "name": "",
          "type": "address"
        }
      ],
      "stateMutability": "view",
      "type": "function"
    },
    {
      "inputs": [
        {
          "internalType": "address",
          "name": "",
          "type": "address"
        },
        {
          "internalType": "address",
          "name": "",
          "type": "address"
        }
      ],
      "name": "resolved",
      "outputs": [
        {
          "internalType": "uint256",
          "name": "",
          "type": "uint256"
        }
      ],
      "stateMutability": "view",
      "type": "function"
    },
    {
      "inputs": [
        {
          "internalType": "address",
          "name": "tge",
          "type": "address"
        }
      ],
      "name": "setClaimTVLReached",
      "outputs": [],
      "stateMutability": "nonpayable",
      "type": "function"
    },
    {
      "inputs": [
        {
          "internalType": "address",
          "name": "",
          "type": "address"
        }
      ],
      "name": "totalVested",
      "outputs": [
        {
          "internalType": "uint256",
          "name": "",
          "type": "uint256"
        }
      ],
      "stateMutability": "view",
      "type": "function"
    },
    {
      "inputs": [
        {
          "internalType": "address",
          "name": "tge",
          "type": "address"
        },
        {
          "internalType": "address",
          "name": "account",
          "type": "address"
        }
      ],
      "name": "unlockedBalanceOf",
      "outputs": [
        {
          "internalType": "uint256",
          "name": "",
          "type": "uint256"
        }
      ],
      "stateMutability": "view",
      "type": "function"
    },
    {
      "inputs": [
        {
          "components": [
            {
              "internalType": "uint256",
              "name": "vestedShare",
              "type": "uint256"
            },
            {
              "internalType": "uint256",
              "name": "cliff",
              "type": "uint256"
            },
            {
              "internalType": "uint256",
              "name": "cliffShare",
              "type": "uint256"
            },
            {
              "internalType": "uint256",
              "name": "spans",
              "type": "uint256"
            },
            {
              "internalType": "uint256",
              "name": "spanDuration",
              "type": "uint256"
            },
            {
              "internalType": "uint256",
              "name": "spanShare",
              "type": "uint256"
            },
            {
              "internalType": "uint256",
              "name": "claimTVL",
              "type": "uint256"
            },
            {
              "internalType": "address[]",
              "name": "resolvers",
              "type": "address[]"
            }
          ],
          "internalType": "struct IVesting.VestingParams",
          "name": "params",
          "type": "tuple"
        }
      ],
      "name": "validateParams",
      "outputs": [
        {
          "internalType": "bool",
          "name": "",
          "type": "bool"
        }
      ],
      "stateMutability": "pure",
      "type": "function"
    },
    {
      "inputs": [
        {
          "internalType": "address",
          "name": "to",
          "type": "address"
        },
        {
          "internalType": "uint256",
          "name": "amount",
          "type": "uint256"
        }
      ],
      "name": "vest",
      "outputs": [],
      "stateMutability": "nonpayable",
      "type": "function"
    },
    {
      "inputs": [
        {
          "internalType": "address",
          "name": "",
          "type": "address"
        },
        {
          "internalType": "address",
          "name": "",
          "type": "address"
        }
      ],
      "name": "vested",
      "outputs": [
        {
          "internalType": "uint256",
          "name": "",
          "type": "uint256"
        }
      ],
      "stateMutability": "view",
      "type": "function"
    },
    {
      "inputs": [
        {
          "internalType": "address",
          "name": "tge",
          "type": "address"
        },
        {
          "internalType": "address",
          "name": "account",
          "type": "address"
        }
      ],
      "name": "vestedBalanceOf",
      "outputs": [
        {
          "internalType": "uint256",
          "name": "",
          "type": "uint256"
        }
      ],
      "stateMutability": "view",
      "type": "function"
    },
    {
      "inputs": [
        {
          "internalType": "address",
          "name": "tge",
          "type": "address"
        }
      ],
      "name": "vestingParams",
      "outputs": [
        {
          "components": [
            {
              "internalType": "uint256",
              "name": "vestedShare",
              "type": "uint256"
            },
            {
              "internalType": "uint256",
              "name": "cliff",
              "type": "uint256"
            },
            {
              "internalType": "uint256",
              "name": "cliffShare",
              "type": "uint256"
            },
            {
              "internalType": "uint256",
              "name": "spans",
              "type": "uint256"
            },
            {
              "internalType": "uint256",
              "name": "spanDuration",
              "type": "uint256"
            },
            {
              "internalType": "uint256",
              "name": "spanShare",
              "type": "uint256"
            },
            {
              "internalType": "uint256",
              "name": "claimTVL",
              "type": "uint256"
            },
            {
              "internalType": "address[]",
              "name": "resolvers",
              "type": "address[]"
            }
          ],
          "internalType": "struct IVesting.VestingParams",
          "name": "",
          "type": "tuple"
        }
      ],
      "stateMutability": "view",
      "type": "function"
    }
  ],
  "transactionHash": "0xbc2879001f716dac972c0158abea8be9e1c133f31748b4807671cff7f6d6e2ed",
  "args": [],
  "numDeployments": 1,
  "solcInputHash": "67fc85ef621887c5a1d0a259d5aa2aa7",
  "bytecode": "0x608060405234801561001057600080fd5b5061001961001e565b6100de565b600054610100900460ff161561008a5760405162461bcd60e51b815260206004820152602760248201527f496e697469616c697a61626c653a20636f6e747261637420697320696e697469604482015266616c697a696e6760c81b606482015260840160405180910390fd5b60005460ff90811610156100dc576000805460ff191660ff9081179091556040519081527f7f26b83ff96e1f2b6a682f133852f6798a09c465da95921460cefb38474024989060200160405180910390a15b565b6119e0806100ed6000396000f3fe608060405234801561001057600080fd5b50600436106101005760003560e01c80637b10399911610097578063b13e4a9d11610066578063b13e4a9d1461027d578063c4d66de81461029d578063d01dacd0146102b0578063f7ce305c146102db57600080fd5b80637b103999146101f3578063824c1db5146102245780638d8d10151461023757806392cccc7e1461026a57600080fd5b80632797c6c8116100d35780632797c6c8146101a7578063306f9da9146101ba5780634493ff1c146101cd578063610f8eb0146101e057600080fd5b806309a6d758146101055780630c9cbf0e1461012e5780631e83409a146101675780631ee651121461017c575b600080fd5b61011861011336600461130b565b6102ee565b6040516101259190611328565b60405180910390f35b61015961013c3660046113ce565b600360209081526000928352604080842090915290825290205481565b604051908152602001610125565b61017a61017536600461130b565b6103a6565b005b61015961018a3660046113ce565b600560209081526000928352604080842090915290825290205481565b61017a6101b5366004611407565b610865565b6101596101c83660046113ce565b6109d3565b6101596101db3660046113ce565b610c29565b6101596101ee3660046113ce565b610c77565b60005461020c906201000090046001600160a01b031681565b6040516001600160a01b039091168152602001610125565b61017a6102323660046113ce565b610cb3565b61025a61024536600461130b565b60046020526000908152604090205460ff1681565b6040519015158152602001610125565b61017a61027836600461130b565b610ed4565b61015961028b36600461130b565b60016020526000908152604090205481565b61017a6102ab36600461130b565b61114a565b6101596102be3660046113ce565b600260209081526000928352604080842090915290825290205481565b61025a6102e9366004611555565b611272565b61033660405180610100016040528060008152602001600081526020016000815260200160008152602001600081526020016000815260200160008152602001606081525090565b816001600160a01b0316635a9b0b896040518163ffffffff1660e01b8152600401600060405180830381865afa158015610374573d6000803e3d6000fd5b505050506040513d6000823e601f3d908101601f1916820160405261039c919081019061170c565b60c0015192915050565b60006103b28233610c77565b90506000811160405180604001604052806013815260200172434c41494d5f4e4f545f415641494c41424c4560681b8152509061040b5760405162461bcd60e51b81526004016104029190611808565b60405180910390fd5b506001600160a01b03821660009081526003602090815260408083203384529091528120805483929061043f90849061186c565b90915550506001600160a01b0382166000908152600160205260408120805483929061046c90849061187f565b925050819055506000826001600160a01b031663fc0c546a6040518163ffffffff1660e01b8152600401602060405180830381865afa1580156104b3573d6000803e3d6000fd5b505050506040513d601f19601f820116820180604052508101906104d79190611892565b90506000836001600160a01b03166317d70f7c6040518163ffffffff1660e01b8152600401602060405180830381865afa158015610519573d6000803e3d6000fd5b505050506040513d601f19601f8201168201806040525081019061053d91906118af565b9050836001600160a01b031663b0935dd66040518163ffffffff1660e01b8152600401602060405180830381865afa15801561057d573d6000803e3d6000fd5b505050506040513d601f19601f820116820180604052508101906105a191906118c8565b156106e8576040516328a477bf60e01b8152600481018290526001600160a01b0383169063188ada3d90859083906328a477bf90602401602060405180830381865afa1580156105f5573d6000803e3d6000fd5b505050506040513d601f19601f8201168201806040525081019061061991906118af565b610623919061187f565b836040518363ffffffff1660e01b815260040161064a929190918252602082015260400190565b600060405180830381600087803b15801561066457600080fd5b505af1158015610678573d6000803e3d6000fd5b5050604051630ab714fb60e11b815233600482015260248101849052604481018690526001600160a01b038516925063156e29f69150606401600060405180830381600087803b1580156106cb57600080fd5b505af11580156106df573d6000803e3d6000fd5b50505050610815565b816001600160a01b0316633946114c84846001600160a01b031663d554934b6040518163ffffffff1660e01b8152600401602060405180830381865afa158015610736573d6000803e3d6000fd5b505050506040513d601f19601f8201168201806040525081019061075a91906118af565b610764919061187f565b6040518263ffffffff1660e01b815260040161078291815260200190565b600060405180830381600087803b15801561079c57600080fd5b505af11580156107b0573d6000803e3d6000fd5b50506040516340c10f1960e01b8152336004820152602481018690526001600160a01b03851692506340c10f199150604401600060405180830381600087803b1580156107fc57600080fd5b505af1158015610810573d6000803e3d6000fd5b505050505b604080516001600160a01b03861681523360208201529081018490527ff7a40077ff7a04c7e61f6f26fb13774259ddf1b6bce9ecf26a8276cdd3992683906060015b60405180910390a150505050565b6004600054604051630db9619f60e31b8152336004820152620100009091046001600160a01b031690636dcb0cf890602401602060405180830381865afa1580156108b4573d6000803e3d6000fd5b505050506040513d601f19601f820116820180604052508101906108d89190611900565b60048111156108e9576108e96118ea565b14604051806040016040528060078152602001664e4f545f54474560c81b815250906109285760405162461bcd60e51b81526004016104029190611808565b50336000908152600160205260408120805483929061094890849061186c565b90915550503360009081526002602090815260408083206001600160a01b03861684529091528120805483929061098090849061186c565b9091555050604080513381526001600160a01b03841660208201529081018290527f37e8b3f82c8fff5638a6b4a20e7359964331548e81edec9dcc714a75e12173be906060015b60405180910390a15050565b60006002836001600160a01b031663c19d93fb6040518163ffffffff1660e01b8152600401602060405180830381865afa158015610a15573d6000803e3d6000fd5b505050506040513d601f19601f82011682018060405250810190610a399190611921565b6002811115610a4a57610a4a6118ea565b14610a5757506000610c23565b6000610a62846102ee565b905060008160c00151118015610a9157506001600160a01b03841660009081526004602052604090205460ff16155b15610aa0576000915050610c23565b6000846001600160a01b0316639f05a36d6040518163ffffffff1660e01b8152600401602060405180830381865afa158015610ae0573d6000803e3d6000fd5b505050506040513d601f19601f82011682018060405250810190610b0491906118af565b9050816020015181610b16919061186c565b431015610b2857600092505050610c23565b81608001518260600151610b3c9190611942565b6020830151610b4b908361186c565b610b55919061186c565b431015610bf9576000826080015183602001518343610b74919061187f565b610b7e919061187f565b610b889190611959565b905060008360a0015182610b9c9190611942565b8460400151610bab919061186c565b6001600160a01b038089166000908152600260209081526040808320938b1683529290522054909150620f424090610be4908390611942565b610bee9190611959565b945050505050610c23565b5050506001600160a01b038083166000908152600260209081526040808320938516835292905220545b92915050565b6001600160a01b038083166000818152600360209081526040808320948616808452948252808320549383526002825280832094835293905291822054610c70919061187f565b9392505050565b6001600160a01b038083166000908152600360209081526040808320938516835292905290812054610ca984846109d3565b610c70919061187f565b81336001600160a01b03821614610dd6576000816001600160a01b0316635a9b0b896040518163ffffffff1660e01b8152600401600060405180830381865afa158015610d04573d6000803e3d6000fd5b505050506040513d6000823e601f3d908101601f19168201604052610d2c919081019061170c565b60c0015160e0015190506000805b8251811015610d9057336001600160a01b0316838281518110610d5f57610d5f61197b565b60200260200101516001600160a01b031603610d7e5760019150610d90565b80610d8881611991565b915050610d3a565b5060408051808201909152600c81526b2727aa2fa922a9a7a62b22a960a11b602082015281610dd25760405162461bcd60e51b81526004016104029190611808565b5050505b6000610de28484610c29565b6001600160a01b038086166000908152600260209081526040808320938816835292905290812080549293508392909190610e1e90849061187f565b90915550506001600160a01b03841660009081526001602052604081208054839290610e4b90849061187f565b90915550506001600160a01b03808516600090815260056020908152604080832093871683529290529081208054839290610e8790849061186c565b9091555050604080516001600160a01b038087168252851660208201529081018290527f915fb8c652d6245752cc491b71bd8e87ab6761417f8d2ca353c8055103294c0390606001610857565b60008060029054906101000a90046001600160a01b03166001600160a01b031663d598d4c96040518163ffffffff1660e01b8152600401602060405180830381865afa158015610f28573d6000803e3d6000fd5b505050506040513d601f19601f82011682018060405250810190610f4c9190611892565b9050806001600160a01b03166391d14854826001600160a01b031663c979e8a76040518163ffffffff1660e01b8152600401602060405180830381865afa158015610f9b573d6000803e3d6000fd5b505050506040513d601f19601f82011682018060405250810190610fbf91906118af565b6040516001600160e01b031960e084901b1681526004810191909152336024820152604401602060405180830381865afa158015611001573d6000803e3d6000fd5b505050506040513d601f19601f8201168201806040525081019061102591906118c8565b6040518060400160405280600f81526020016e1393d517d5d2125511531254d51151608a1b8152509061106b5760405162461bcd60e51b81526004016104029190611808565b506002826001600160a01b031663c19d93fb6040518163ffffffff1660e01b8152600401602060405180830381865afa1580156110ac573d6000803e3d6000fd5b505050506040513d601f19601f820116820180604052508101906110d09190611921565b60028111156110e1576110e16118ea565b146040518060400160405280600b81526020016a57524f4e475f535441544560a81b815250906111245760405162461bcd60e51b81526004016104029190611808565b50506001600160a01b03166000908152600460205260409020805460ff19166001179055565b600054610100900460ff161580801561116a5750600054600160ff909116105b806111845750303b158015611184575060005460ff166001145b6111e75760405162461bcd60e51b815260206004820152602e60248201527f496e697469616c697a61626c653a20636f6e747261637420697320616c72656160448201526d191e481a5b9a5d1a585b1a5e995960921b6064820152608401610402565b6000805460ff19166001179055801561120a576000805461ff0019166101001790555b6000805462010000600160b01b031916620100006001600160a01b03851602179055801561126e576000805461ff0019169055604051600181527f7f26b83ff96e1f2b6a682f133852f6798a09c465da95921460cefb3847402498906020016109c7565b5050565b6000620f42408260a00151836060015161128c9190611942565b836040015161129b919061186c565b1115604051806040016040528060168152602001755348415245535f53554d5f455843454544535f4f4e4560501b815250906112ea5760405162461bcd60e51b81526004016104029190611808565b50600192915050565b6001600160a01b038116811461130857600080fd5b50565b60006020828403121561131d57600080fd5b8135610c70816112f3565b6000602080835261012083018451828501528185015160408501526040850151606085015260608501516080850152608085015160a085015260a085015160c085015260c085015160e085015260e0850151610100808187015250818151808452610140870191508483019350600092505b808310156113c35783516001600160a01b0316825292840192600192909201919084019061139a565b509695505050505050565b600080604083850312156113e157600080fd5b82356113ec816112f3565b915060208301356113fc816112f3565b809150509250929050565b6000806040838503121561141a57600080fd5b8235611425816112f3565b946020939093013593505050565b634e487b7160e01b600052604160045260246000fd5b604051610100810167ffffffffffffffff8111828210171561146d5761146d611433565b60405290565b604051610160810167ffffffffffffffff8111828210171561146d5761146d611433565b604051601f8201601f1916810167ffffffffffffffff811182821017156114c0576114c0611433565b604052919050565b600067ffffffffffffffff8211156114e2576114e2611433565b5060051b60200190565b600082601f8301126114fd57600080fd5b8135602061151261150d836114c8565b611497565b82815260059290921b8401810191818101908684111561153157600080fd5b8286015b848110156113c3578035611548816112f3565b8352918301918301611535565b60006020828403121561156757600080fd5b813567ffffffffffffffff8082111561157f57600080fd5b90830190610100828603121561159457600080fd5b61159c611449565b823581526020830135602082015260408301356040820152606083013560608201526080830135608082015260a083013560a082015260c083013560c082015260e0830135828111156115ee57600080fd5b6115fa878286016114ec565b60e08301525095945050505050565b8051611614816112f3565b919050565b600082601f83011261162a57600080fd5b8151602061163a61150d836114c8565b82815260059290921b8401810191818101908684111561165957600080fd5b8286015b848110156113c3578051611670816112f3565b835291830191830161165d565b6000610100828403121561169057600080fd5b611698611449565b9050815181526020820151602082015260408201516040820152606082015160608201526080820151608082015260a082015160a082015260c082015160c082015260e082015167ffffffffffffffff8111156116f457600080fd5b61170084828501611619565b60e08301525092915050565b60006020828403121561171e57600080fd5b815167ffffffffffffffff8082111561173657600080fd5b90830190610160828603121561174b57600080fd5b611753611473565b825181526020830151602082015260408301516040820152606083015160608201526080830151608082015260a083015160a082015260c08301518281111561179b57600080fd5b6117a78782860161167d565b60c08301525060e0830151828111156117bf57600080fd5b6117cb87828601611619565b60e08301525061010091506117e1828401611609565b91810191909152610120828101519082015261014091820151918101919091529392505050565b600060208083528351808285015260005b8181101561183557858101830151858201604001528201611819565b506000604082860101526040601f19601f8301168501019250505092915050565b634e487b7160e01b600052601160045260246000fd5b80820180821115610c2357610c23611856565b81810381811115610c2357610c23611856565b6000602082840312156118a457600080fd5b8151610c70816112f3565b6000602082840312156118c157600080fd5b5051919050565b6000602082840312156118da57600080fd5b81518015158114610c7057600080fd5b634e487b7160e01b600052602160045260246000fd5b60006020828403121561191257600080fd5b815160058110610c7057600080fd5b60006020828403121561193357600080fd5b815160038110610c7057600080fd5b8082028115828204841417610c2357610c23611856565b60008261197657634e487b7160e01b600052601260045260246000fd5b500490565b634e487b7160e01b600052603260045260246000fd5b6000600182016119a3576119a3611856565b506001019056fea264697066735822122020c8b778a34da08ee8d529e3c362b1e1cfb1f3b4ef357515ff59b2895e230d3a64736f6c63430008110033",
  "devdoc": {
    "events": {
      "Cancelled(address,address,uint256)": {
        "details": "Event emitted on vesting cancellation for account by resolver",
        "params": {
          "account": "Account address",
          "amount": "Amount of burnt tokens",
          "tge": "TGE address"
        }
      },
      "Claimed(address,address,uint256)": {
        "details": "Event emitted on token claim.",
        "params": {
          "account": "Claimer address",
          "amount": "Amount of claimed tokens",
          "tge": "TGE address"
        }
      },
      "Recall(address,address,uint256)": {
        "details": "Event emitted on vested tokens recall",
        "params": {
          "account": "User address",
          "amount": "Amount of recalled tokens",
          "tge": "TGE address"
        }
      },
      "Vested(address,address,uint256)": {
        "details": "Event emitted on token vesting.",
        "params": {
          "account": "Claimer address",
          "amount": "Amount of vested tokens",
          "tge": "TGE address"
        }
      }
    },
    "kind": "dev",
    "methods": {
      "cancel(address,address)": {
        "params": {
          "account": "Account address",
          "tge": "TGE address"
        }
      },
      "claim(address)": {
        "params": {
          "tge": "TGE to claim from"
        }
      },
      "claimableBalanceOf(address,address)": {
        "params": {
          "account": "Account address",
          "tge": "TGE address"
        }
      },
      "constructor": {
        "custom:oz-upgrades-unsafe-allow": "constructor"
      },
      "initialize(address)": {
        "params": {
          "registry_": "Protocol registry address"
        }
      },
      "setClaimTVLReached(address)": {
        "params": {
          "tge": "Adddress of the TGE"
        }
      },
      "unlockedBalanceOf(address,address)": {
        "params": {
          "account": "Account address",
          "tge": "TGE address"
        }
      },
      "validateParams((uint256,uint256,uint256,uint256,uint256,uint256,uint256,address[]))": {
        "params": {
          "params": "Vesting params"
        },
        "returns": {
          "_0": "True if params are valid (reverts otherwise)"
        }
      },
      "vest(address,uint256)": {
        "params": {
          "amount": "Amount of tokens to vest",
          "to": "Address to vest tokens to"
        }
      },
      "vestedBalanceOf(address,address)": {
        "params": {
          "account": "Account address",
          "tge": "TGE address"
        }
      },
      "vestingParams(address)": {
        "params": {
          "tge": "TGE address"
        }
      }
    },
    "stateVariables": {
      "claimTVLReached": {
        "details": "Users can claim their tokens only if claim TVL was reached."
      }
    },
    "version": 1
  },
  "userdoc": {
    "kind": "user",
    "methods": {
      "cancel(address,address)": {
        "notice": "Cancels vesting for given account in given tge, burning all remaining tokens (only called by TGE resolver or TGE)"
      },
      "claim(address)": {
        "notice": "Claims unlocked tokens from given TGE"
      },
      "claimTVLReached(address)": {
        "notice": "Mapping of TGE addresses to flags if claim TVL is reached for TGE"
      },
      "claimableBalanceOf(address,address)": {
        "notice": "Gets claimable balance of account in TGE"
      },
      "claimed(address,address)": {
        "notice": "Mapping (tge, account) to amount of already claimed vested tokens to that account in TGE"
      },
      "initialize(address)": {
        "notice": "Contract initializer"
      },
      "registry()": {
        "notice": "Registry contract"
      },
      "resolved(address,address)": {
        "notice": "Mapping (tge, account) to amount of resolved tokens in TGE"
      },
      "setClaimTVLReached(address)": {
        "notice": "Set's claim TVL reached for TGE (only called by manager)"
      },
      "totalVested(address)": {
        "notice": "Mapping of TGE addresses to total amount of tokens vested there"
      },
      "unlockedBalanceOf(address,address)": {
        "notice": "Gets total unlocked balance of account in TGE (including already claimed tokens)"
      },
      "validateParams((uint256,uint256,uint256,uint256,uint256,uint256,uint256,address[]))": {
        "notice": "Validates vesting params for TGE"
      },
      "vest(address,uint256)": {
        "notice": "Vests token to given account (only called by TGE)"
      },
      "vested(address,address)": {
        "notice": "Mapping (tge, account) to amount of tokens vested to that account in TGE"
      },
      "vestedBalanceOf(address,address)": {
        "notice": "Gets remaining vested balance of account in TGE (all unclaimed tokens, even locked)"
      },
      "vestingParams(address)": {
        "notice": "Gets vesting params for TGE"
      }
    },
    "version": 1
  },
  "storageLayout": {
    "storage": [
      {
        "astId": 1184,
        "contract": "contracts/Vesting.sol:Vesting",
        "label": "_initialized",
        "offset": 0,
        "slot": "0",
        "type": "t_uint8"
      },
      {
        "astId": 1187,
        "contract": "contracts/Vesting.sol:Vesting",
        "label": "_initializing",
        "offset": 1,
        "slot": "0",
        "type": "t_bool"
      },
      {
        "astId": 19539,
        "contract": "contracts/Vesting.sol:Vesting",
        "label": "registry",
        "offset": 2,
        "slot": "0",
        "type": "t_contract(IRegistry)22560"
      },
      {
        "astId": 19544,
        "contract": "contracts/Vesting.sol:Vesting",
        "label": "totalVested",
        "offset": 0,
        "slot": "1",
        "type": "t_mapping(t_address,t_uint256)"
      },
      {
        "astId": 19551,
        "contract": "contracts/Vesting.sol:Vesting",
        "label": "vested",
        "offset": 0,
        "slot": "2",
        "type": "t_mapping(t_address,t_mapping(t_address,t_uint256))"
      },
      {
        "astId": 19558,
        "contract": "contracts/Vesting.sol:Vesting",
        "label": "claimed",
        "offset": 0,
        "slot": "3",
        "type": "t_mapping(t_address,t_mapping(t_address,t_uint256))"
      },
      {
        "astId": 19563,
        "contract": "contracts/Vesting.sol:Vesting",
        "label": "claimTVLReached",
        "offset": 0,
        "slot": "4",
        "type": "t_mapping(t_address,t_bool)"
      },
      {
        "astId": 19570,
        "contract": "contracts/Vesting.sol:Vesting",
        "label": "resolved",
        "offset": 0,
        "slot": "5",
        "type": "t_mapping(t_address,t_mapping(t_address,t_uint256))"
      }
    ],
    "types": {
      "t_address": {
        "encoding": "inplace",
        "label": "address",
        "numberOfBytes": "20"
      },
      "t_bool": {
        "encoding": "inplace",
        "label": "bool",
        "numberOfBytes": "1"
      },
      "t_contract(IRegistry)22560": {
        "encoding": "inplace",
        "label": "contract IRegistry",
        "numberOfBytes": "20"
      },
      "t_mapping(t_address,t_bool)": {
        "encoding": "mapping",
        "key": "t_address",
        "label": "mapping(address => bool)",
        "numberOfBytes": "32",
        "value": "t_bool"
      },
      "t_mapping(t_address,t_mapping(t_address,t_uint256))": {
        "encoding": "mapping",
        "key": "t_address",
        "label": "mapping(address => mapping(address => uint256))",
        "numberOfBytes": "32",
        "value": "t_mapping(t_address,t_uint256)"
      },
      "t_mapping(t_address,t_uint256)": {
        "encoding": "mapping",
        "key": "t_address",
        "label": "mapping(address => uint256)",
        "numberOfBytes": "32",
        "value": "t_uint256"
      },
      "t_uint256": {
        "encoding": "inplace",
        "label": "uint256",
        "numberOfBytes": "32"
      },
      "t_uint8": {
        "encoding": "inplace",
        "label": "uint8",
        "numberOfBytes": "1"
      }
    }
  }
}