{
  "address": "0x1C117083c608D412124e2E96bb50050B1779D81e",
  "abi": [
    {
      "inputs": [],
      "stateMutability": "nonpayable",
      "type": "constructor"
    },
    {
      "anonymous": false,
      "inputs": [
        {
          "indexed": false,
          "internalType": "address",
          "name": "tge",
          "type": "address"
        },
        {
          "indexed": false,
          "internalType": "address",
          "name": "account",
          "type": "address"
        },
        {
          "indexed": false,
          "internalType": "uint256",
          "name": "amount",
          "type": "uint256"
        }
      ],
      "name": "Cancelled",
      "type": "event"
    },
    {
      "anonymous": false,
      "inputs": [
        {
          "indexed": false,
          "internalType": "address",
          "name": "tge",
          "type": "address"
        },
        {
          "indexed": false,
          "internalType": "address",
          "name": "account",
          "type": "address"
        },
        {
          "indexed": false,
          "internalType": "uint256",
          "name": "amount",
          "type": "uint256"
        }
      ],
      "name": "Claimed",
      "type": "event"
    },
    {
      "anonymous": false,
      "inputs": [
        {
          "indexed": false,
          "internalType": "uint8",
          "name": "version",
          "type": "uint8"
        }
      ],
      "name": "Initialized",
      "type": "event"
    },
    {
      "anonymous": false,
      "inputs": [
        {
          "indexed": false,
          "internalType": "address",
          "name": "tge",
          "type": "address"
        },
        {
          "indexed": false,
          "internalType": "address",
          "name": "account",
          "type": "address"
        },
        {
          "indexed": false,
          "internalType": "uint256",
          "name": "amount",
          "type": "uint256"
        }
      ],
      "name": "Vested",
      "type": "event"
    },
    {
      "inputs": [
        {
          "internalType": "address",
          "name": "tge",
          "type": "address"
        },
        {
          "internalType": "address",
          "name": "account",
          "type": "address"
        }
      ],
      "name": "cancel",
      "outputs": [],
      "stateMutability": "nonpayable",
      "type": "function"
    },
    {
      "inputs": [
        {
          "internalType": "address",
          "name": "tge",
          "type": "address"
        }
      ],
      "name": "claim",
      "outputs": [],
      "stateMutability": "nonpayable",
      "type": "function"
    },
    {
      "inputs": [
        {
          "internalType": "address",
          "name": "",
          "type": "address"
        }
      ],
      "name": "claimTVLReached",
      "outputs": [
        {
          "internalType": "bool",
          "name": "",
          "type": "bool"
        }
      ],
      "stateMutability": "view",
      "type": "function"
    },
    {
      "inputs": [
        {
          "internalType": "address",
          "name": "tge",
          "type": "address"
        },
        {
          "internalType": "address",
          "name": "account",
          "type": "address"
        }
      ],
      "name": "claimableBalanceOf",
      "outputs": [
        {
          "internalType": "uint256",
          "name": "",
          "type": "uint256"
        }
      ],
      "stateMutability": "view",
      "type": "function"
    },
    {
      "inputs": [
        {
          "internalType": "address",
          "name": "",
          "type": "address"
        },
        {
          "internalType": "address",
          "name": "",
          "type": "address"
        }
      ],
      "name": "claimed",
      "outputs": [
        {
          "internalType": "uint256",
          "name": "",
          "type": "uint256"
        }
      ],
      "stateMutability": "view",
      "type": "function"
    },
    {
      "inputs": [
        {
          "internalType": "contract IRegistry",
          "name": "registry_",
          "type": "address"
        }
      ],
      "name": "initialize",
      "outputs": [],
      "stateMutability": "nonpayable",
      "type": "function"
    },
    {
      "inputs": [],
      "name": "registry",
      "outputs": [
        {
          "internalType": "contract IRegistry",
          "name": "",
          "type": "address"
        }
      ],
      "stateMutability": "view",
      "type": "function"
    },
    {
      "inputs": [
        {
          "internalType": "address",
          "name": "",
          "type": "address"
        },
        {
          "internalType": "address",
          "name": "",
          "type": "address"
        }
      ],
      "name": "resolved",
      "outputs": [
        {
          "internalType": "uint256",
          "name": "",
          "type": "uint256"
        }
      ],
      "stateMutability": "view",
      "type": "function"
    },
    {
      "inputs": [
        {
          "internalType": "address",
          "name": "tge",
          "type": "address"
        }
      ],
      "name": "setClaimTVLReached",
      "outputs": [],
      "stateMutability": "nonpayable",
      "type": "function"
    },
    {
      "inputs": [
        {
          "internalType": "address",
          "name": "",
          "type": "address"
        }
      ],
      "name": "totalVested",
      "outputs": [
        {
          "internalType": "uint256",
          "name": "",
          "type": "uint256"
        }
      ],
      "stateMutability": "view",
      "type": "function"
    },
    {
      "inputs": [
        {
          "internalType": "address",
          "name": "tge",
          "type": "address"
        },
        {
          "internalType": "address",
          "name": "account",
          "type": "address"
        }
      ],
      "name": "unlockedBalanceOf",
      "outputs": [
        {
          "internalType": "uint256",
          "name": "",
          "type": "uint256"
        }
      ],
      "stateMutability": "view",
      "type": "function"
    },
    {
      "inputs": [
        {
          "components": [
            {
              "internalType": "uint256",
              "name": "vestedShare",
              "type": "uint256"
            },
            {
              "internalType": "uint256",
              "name": "cliff",
              "type": "uint256"
            },
            {
              "internalType": "uint256",
              "name": "cliffShare",
              "type": "uint256"
            },
            {
              "internalType": "uint256",
              "name": "spans",
              "type": "uint256"
            },
            {
              "internalType": "uint256",
              "name": "spanDuration",
              "type": "uint256"
            },
            {
              "internalType": "uint256",
              "name": "spanShare",
              "type": "uint256"
            },
            {
              "internalType": "uint256",
              "name": "claimTVL",
              "type": "uint256"
            },
            {
              "internalType": "address[]",
              "name": "resolvers",
              "type": "address[]"
            }
          ],
          "internalType": "struct IVesting.VestingParams",
          "name": "params",
          "type": "tuple"
        }
      ],
      "name": "validateParams",
      "outputs": [
        {
          "internalType": "bool",
          "name": "",
          "type": "bool"
        }
      ],
      "stateMutability": "pure",
      "type": "function"
    },
    {
      "inputs": [
        {
          "internalType": "address",
          "name": "to",
          "type": "address"
        },
        {
          "internalType": "uint256",
          "name": "amount",
          "type": "uint256"
        }
      ],
      "name": "vest",
      "outputs": [],
      "stateMutability": "nonpayable",
      "type": "function"
    },
    {
      "inputs": [
        {
          "internalType": "address",
          "name": "",
          "type": "address"
        },
        {
          "internalType": "address",
          "name": "",
          "type": "address"
        }
      ],
      "name": "vested",
      "outputs": [
        {
          "internalType": "uint256",
          "name": "",
          "type": "uint256"
        }
      ],
      "stateMutability": "view",
      "type": "function"
    },
    {
      "inputs": [
        {
          "internalType": "address",
          "name": "tge",
          "type": "address"
        },
        {
          "internalType": "address",
          "name": "account",
          "type": "address"
        }
      ],
      "name": "vestedBalanceOf",
      "outputs": [
        {
          "internalType": "uint256",
          "name": "",
          "type": "uint256"
        }
      ],
      "stateMutability": "view",
      "type": "function"
    },
    {
      "inputs": [
        {
          "internalType": "address",
          "name": "tge",
          "type": "address"
        }
      ],
      "name": "vestingParams",
      "outputs": [
        {
          "components": [
            {
              "internalType": "uint256",
              "name": "vestedShare",
              "type": "uint256"
            },
            {
              "internalType": "uint256",
              "name": "cliff",
              "type": "uint256"
            },
            {
              "internalType": "uint256",
              "name": "cliffShare",
              "type": "uint256"
            },
            {
              "internalType": "uint256",
              "name": "spans",
              "type": "uint256"
            },
            {
              "internalType": "uint256",
              "name": "spanDuration",
              "type": "uint256"
            },
            {
              "internalType": "uint256",
              "name": "spanShare",
              "type": "uint256"
            },
            {
              "internalType": "uint256",
              "name": "claimTVL",
              "type": "uint256"
            },
            {
              "internalType": "address[]",
              "name": "resolvers",
              "type": "address[]"
            }
          ],
          "internalType": "struct IVesting.VestingParams",
          "name": "",
          "type": "tuple"
        }
      ],
      "stateMutability": "view",
      "type": "function"
    }
  ],
  "transactionHash": "0x9eecdba5a54b180d771f013d7a91052f4ee93dc6e692b82549ad8160a293075c",
  "args": [],
  "numDeployments": 1,
  "solcInputHash": "0762d4eb531d05dc95fd5d895d7fecc0",
  "bytecode": "0x608060405234801561001057600080fd5b5061001961001e565b6100de565b600054610100900460ff161561008a5760405162461bcd60e51b815260206004820152602760248201527f496e697469616c697a61626c653a20636f6e747261637420697320696e697469604482015266616c697a696e6760c81b606482015260840160405180910390fd5b60005460ff90811610156100dc576000805460ff191660ff9081179091556040519081527f7f26b83ff96e1f2b6a682f133852f6798a09c465da95921460cefb38474024989060200160405180910390a15b565b611ba0806100ed6000396000f3fe608060405234801561001057600080fd5b50600436106101005760003560e01c80637b10399911610097578063b13e4a9d11610066578063b13e4a9d1461027d578063c4d66de81461029d578063d01dacd0146102b0578063f7ce305c146102db57600080fd5b80637b103999146101f3578063824c1db5146102245780638d8d10151461023757806392cccc7e1461026a57600080fd5b80632797c6c8116100d35780632797c6c8146101a7578063306f9da9146101ba5780634493ff1c146101cd578063610f8eb0146101e057600080fd5b806309a6d758146101055780630c9cbf0e1461012e5780631e83409a146101675780631ee651121461017c575b600080fd5b610118610113366004611483565b6102ee565b60405161012591906114a0565b60405180910390f35b61015961013c366004611546565b600360209081526000928352604080842090915290825290205481565b604051908152602001610125565b61017a610175366004611483565b6103a6565b005b61015961018a366004611546565b600560209081526000928352604080842090915290825290205481565b61017a6101b536600461157f565b6109dd565b6101596101c8366004611546565b610b4b565b6101596101db366004611546565b610da1565b6101596101ee366004611546565b610def565b60005461020c906201000090046001600160a01b031681565b6040516001600160a01b039091168152602001610125565b61017a610232366004611546565b610e2b565b61025a610245366004611483565b60046020526000908152604090205460ff1681565b6040519015158152602001610125565b61017a610278366004611483565b61104c565b61015961028b366004611483565b60016020526000908152604090205481565b61017a6102ab366004611483565b6112c2565b6101596102be366004611546565b600260209081526000928352604080842090915290825290205481565b61025a6102e93660046116cd565b6113ea565b61033660405180610100016040528060008152602001600081526020016000815260200160008152602001600081526020016000815260200160008152602001606081525090565b816001600160a01b0316635a9b0b896040518163ffffffff1660e01b8152600401600060405180830381865afa158015610374573d6000803e3d6000fd5b505050506040513d6000823e601f3d908101601f1916820160405261039c9190810190611884565b60c0015192915050565b60006103b28233610def565b90506000811160405180604001604052806013815260200172434c41494d5f4e4f545f415641494c41424c4560681b8152509061040b5760405162461bcd60e51b815260040161040291906119c6565b60405180910390fd5b506001600160a01b03821660009081526003602090815260408083203384529091528120805483929061043f9084906119ef565b90915550506001600160a01b0382166000908152600160205260408120805483929061046c908490611a02565b925050819055506000826001600160a01b031663fc0c546a6040518163ffffffff1660e01b8152600401602060405180830381865afa1580156104b3573d6000803e3d6000fd5b505050506040513d601f19601f820116820180604052508101906104d79190611a15565b90506000836001600160a01b03166317d70f7c6040518163ffffffff1660e01b8152600401602060405180830381865afa158015610519573d6000803e3d6000fd5b505050506040513d601f19601f8201168201806040525081019061053d9190611a32565b9050836001600160a01b031663b0935dd66040518163ffffffff1660e01b8152600401602060405180830381865afa15801561057d573d6000803e3d6000fd5b505050506040513d601f19601f820116820180604052508101906105a19190611a4b565b156106e8576040516328a477bf60e01b8152600481018290526001600160a01b0383169063188ada3d90859083906328a477bf90602401602060405180830381865afa1580156105f5573d6000803e3d6000fd5b505050506040513d601f19601f820116820180604052508101906106199190611a32565b6106239190611a02565b836040518363ffffffff1660e01b815260040161064a929190918252602082015260400190565b600060405180830381600087803b15801561066457600080fd5b505af1158015610678573d6000803e3d6000fd5b5050604051630ab714fb60e11b815233600482015260248101849052604481018690526001600160a01b038516925063156e29f69150606401600060405180830381600087803b1580156106cb57600080fd5b505af11580156106df573d6000803e3d6000fd5b50505050610815565b816001600160a01b0316633946114c84846001600160a01b031663d554934b6040518163ffffffff1660e01b8152600401602060405180830381865afa158015610736573d6000803e3d6000fd5b505050506040513d601f19601f8201168201806040525081019061075a9190611a32565b6107649190611a02565b6040518263ffffffff1660e01b815260040161078291815260200190565b600060405180830381600087803b15801561079c57600080fd5b505af11580156107b0573d6000803e3d6000fd5b50506040516340c10f1960e01b8152336004820152602481018690526001600160a01b03851692506340c10f199150604401600060405180830381600087803b1580156107fc57600080fd5b505af1158015610810573d6000803e3d6000fd5b505050505b816001600160a01b031663d598d4c96040518163ffffffff1660e01b8152600401602060405180830381865afa158015610853573d6000803e3d6000fd5b505050506040513d601f19601f820116820180604052508101906108779190611a15565b6001600160a01b0316637b1039996040518163ffffffff1660e01b8152600401602060405180830381865afa1580156108b4573d6000803e3d6000fd5b505050506040513d601f19601f820116820180604052508101906108d89190611a15565b6001600160a01b0316634dbb83fd33306000631e83409a60e01b8960405160240161091291906001600160a01b0391909116815260200190565b60408051601f198184030181529181526020820180516001600160e01b03166001600160e01b03199485161790525160e087901b909216825261095a94939291600401611a6d565b600060405180830381600087803b15801561097457600080fd5b505af1158015610988573d6000803e3d6000fd5b5050604080516001600160a01b03881681523360208201529081018690527ff7a40077ff7a04c7e61f6f26fb13774259ddf1b6bce9ecf26a8276cdd3992683925060600190505b60405180910390a150505050565b6004600054604051630db9619f60e31b8152336004820152620100009091046001600160a01b031690636dcb0cf890602401602060405180830381865afa158015610a2c573d6000803e3d6000fd5b505050506040513d601f19601f82011682018060405250810190610a509190611ac0565b6004811115610a6157610a61611aaa565b14604051806040016040528060078152602001664e4f545f54474560c81b81525090610aa05760405162461bcd60e51b815260040161040291906119c6565b503360009081526001602052604081208054839290610ac09084906119ef565b90915550503360009081526002602090815260408083206001600160a01b038616845290915281208054839290610af89084906119ef565b9091555050604080513381526001600160a01b03841660208201529081018290527f37e8b3f82c8fff5638a6b4a20e7359964331548e81edec9dcc714a75e12173be906060015b60405180910390a15050565b60006002836001600160a01b031663c19d93fb6040518163ffffffff1660e01b8152600401602060405180830381865afa158015610b8d573d6000803e3d6000fd5b505050506040513d601f19601f82011682018060405250810190610bb19190611ae1565b6002811115610bc257610bc2611aaa565b14610bcf57506000610d9b565b6000610bda846102ee565b905060008160c00151118015610c0957506001600160a01b03841660009081526004602052604090205460ff16155b15610c18576000915050610d9b565b6000846001600160a01b0316639f05a36d6040518163ffffffff1660e01b8152600401602060405180830381865afa158015610c58573d6000803e3d6000fd5b505050506040513d601f19601f82011682018060405250810190610c7c9190611a32565b9050816020015181610c8e91906119ef565b431015610ca057600092505050610d9b565b81608001518260600151610cb49190611b02565b6020830151610cc390836119ef565b610ccd91906119ef565b431015610d71576000826080015183602001518343610cec9190611a02565b610cf69190611a02565b610d009190611b19565b905060008360a0015182610d149190611b02565b8460400151610d2391906119ef565b6001600160a01b038089166000908152600260209081526040808320938b1683529290522054909150620f424090610d5c908390611b02565b610d669190611b19565b945050505050610d9b565b5050506001600160a01b038083166000908152600260209081526040808320938516835292905220545b92915050565b6001600160a01b038083166000818152600360209081526040808320948616808452948252808320549383526002825280832094835293905291822054610de89190611a02565b9392505050565b6001600160a01b038083166000908152600360209081526040808320938516835292905290812054610e218484610b4b565b610de89190611a02565b81336001600160a01b03821614610f4e576000816001600160a01b0316635a9b0b896040518163ffffffff1660e01b8152600401600060405180830381865afa158015610e7c573d6000803e3d6000fd5b505050506040513d6000823e601f3d908101601f19168201604052610ea49190810190611884565b60c0015160e0015190506000805b8251811015610f0857336001600160a01b0316838281518110610ed757610ed7611b3b565b60200260200101516001600160a01b031603610ef65760019150610f08565b80610f0081611b51565b915050610eb2565b5060408051808201909152600c81526b2727aa2fa922a9a7a62b22a960a11b602082015281610f4a5760405162461bcd60e51b815260040161040291906119c6565b5050505b6000610f5a8484610da1565b6001600160a01b038086166000908152600260209081526040808320938816835292905290812080549293508392909190610f96908490611a02565b90915550506001600160a01b03841660009081526001602052604081208054839290610fc3908490611a02565b90915550506001600160a01b03808516600090815260056020908152604080832093871683529290529081208054839290610fff9084906119ef565b9091555050604080516001600160a01b038087168252851660208201529081018290527f915fb8c652d6245752cc491b71bd8e87ab6761417f8d2ca353c8055103294c03906060016109cf565b60008060029054906101000a90046001600160a01b03166001600160a01b031663d598d4c96040518163ffffffff1660e01b8152600401602060405180830381865afa1580156110a0573d6000803e3d6000fd5b505050506040513d601f19601f820116820180604052508101906110c49190611a15565b9050806001600160a01b03166391d14854826001600160a01b031663c979e8a76040518163ffffffff1660e01b8152600401602060405180830381865afa158015611113573d6000803e3d6000fd5b505050506040513d601f19601f820116820180604052508101906111379190611a32565b6040516001600160e01b031960e084901b1681526004810191909152336024820152604401602060405180830381865afa158015611179573d6000803e3d6000fd5b505050506040513d601f19601f8201168201806040525081019061119d9190611a4b565b6040518060400160405280600f81526020016e1393d517d5d2125511531254d51151608a1b815250906111e35760405162461bcd60e51b815260040161040291906119c6565b506002826001600160a01b031663c19d93fb6040518163ffffffff1660e01b8152600401602060405180830381865afa158015611224573d6000803e3d6000fd5b505050506040513d601f19601f820116820180604052508101906112489190611ae1565b600281111561125957611259611aaa565b146040518060400160405280600b81526020016a57524f4e475f535441544560a81b8152509061129c5760405162461bcd60e51b815260040161040291906119c6565b50506001600160a01b03166000908152600460205260409020805460ff19166001179055565b600054610100900460ff16158080156112e25750600054600160ff909116105b806112fc5750303b1580156112fc575060005460ff166001145b61135f5760405162461bcd60e51b815260206004820152602e60248201527f496e697469616c697a61626c653a20636f6e747261637420697320616c72656160448201526d191e481a5b9a5d1a585b1a5e995960921b6064820152608401610402565b6000805460ff191660011790558015611382576000805461ff0019166101001790555b6000805462010000600160b01b031916620100006001600160a01b0385160217905580156113e6576000805461ff0019169055604051600181527f7f26b83ff96e1f2b6a682f133852f6798a09c465da95921460cefb384740249890602001610b3f565b5050565b6000620f42408260a0015183606001516114049190611b02565b836040015161141391906119ef565b1115604051806040016040528060168152602001755348415245535f53554d5f455843454544535f4f4e4560501b815250906114625760405162461bcd60e51b815260040161040291906119c6565b50600192915050565b6001600160a01b038116811461148057600080fd5b50565b60006020828403121561149557600080fd5b8135610de88161146b565b6000602080835261012083018451828501528185015160408501526040850151606085015260608501516080850152608085015160a085015260a085015160c085015260c085015160e085015260e0850151610100808187015250818151808452610140870191508483019350600092505b8083101561153b5783516001600160a01b03168252928401926001929092019190840190611512565b509695505050505050565b6000806040838503121561155957600080fd5b82356115648161146b565b915060208301356115748161146b565b809150509250929050565b6000806040838503121561159257600080fd5b823561159d8161146b565b946020939093013593505050565b634e487b7160e01b600052604160045260246000fd5b604051610100810167ffffffffffffffff811182821017156115e5576115e56115ab565b60405290565b604051610160810167ffffffffffffffff811182821017156115e5576115e56115ab565b604051601f8201601f1916810167ffffffffffffffff81118282101715611638576116386115ab565b604052919050565b600067ffffffffffffffff82111561165a5761165a6115ab565b5060051b60200190565b600082601f83011261167557600080fd5b8135602061168a61168583611640565b61160f565b82815260059290921b840181019181810190868411156116a957600080fd5b8286015b8481101561153b5780356116c08161146b565b83529183019183016116ad565b6000602082840312156116df57600080fd5b813567ffffffffffffffff808211156116f757600080fd5b90830190610100828603121561170c57600080fd5b6117146115c1565b823581526020830135602082015260408301356040820152606083013560608201526080830135608082015260a083013560a082015260c083013560c082015260e08301358281111561176657600080fd5b61177287828601611664565b60e08301525095945050505050565b805161178c8161146b565b919050565b600082601f8301126117a257600080fd5b815160206117b261168583611640565b82815260059290921b840181019181810190868411156117d157600080fd5b8286015b8481101561153b5780516117e88161146b565b83529183019183016117d5565b6000610100828403121561180857600080fd5b6118106115c1565b9050815181526020820151602082015260408201516040820152606082015160608201526080820151608082015260a082015160a082015260c082015160c082015260e082015167ffffffffffffffff81111561186c57600080fd5b61187884828501611791565b60e08301525092915050565b60006020828403121561189657600080fd5b815167ffffffffffffffff808211156118ae57600080fd5b9083019061016082860312156118c357600080fd5b6118cb6115eb565b825181526020830151602082015260408301516040820152606083015160608201526080830151608082015260a083015160a082015260c08301518281111561191357600080fd5b61191f878286016117f5565b60c08301525060e08301518281111561193757600080fd5b61194387828601611791565b60e0830152506101009150611959828401611781565b91810191909152610120828101519082015261014091820151918101919091529392505050565b6000815180845260005b818110156119a65760208185018101518683018201520161198a565b506000602082860101526020601f19601f83011685010191505092915050565b602081526000610de86020830184611980565b634e487b7160e01b600052601160045260246000fd5b80820180821115610d9b57610d9b6119d9565b81810381811115610d9b57610d9b6119d9565b600060208284031215611a2757600080fd5b8151610de88161146b565b600060208284031215611a4457600080fd5b5051919050565b600060208284031215611a5d57600080fd5b81518015158114610de857600080fd5b6001600160a01b0385811682528416602082015260408101839052608060608201819052600090611aa090830184611980565b9695505050505050565b634e487b7160e01b600052602160045260246000fd5b600060208284031215611ad257600080fd5b815160058110610de857600080fd5b600060208284031215611af357600080fd5b815160038110610de857600080fd5b8082028115828204841417610d9b57610d9b6119d9565b600082611b3657634e487b7160e01b600052601260045260246000fd5b500490565b634e487b7160e01b600052603260045260246000fd5b600060018201611b6357611b636119d9565b506001019056fea26469706673582212205aa43920d1e5b357f0f643e994561b3b4e5183416e2dc5de3cdd9d03db30735264736f6c63430008110033",
  "devdoc": {
    "details": "The vesting setup is performed by passing a value as one of the fields of the TGEInfo structure called \"vestingParams\", which is a structure of IVesting.VestingParams. This set of settings allows you to specify: - what portion of the tokens will be released and directed to the buyer's wallet within the purchase transaction (using the TGE:purchase method); - what portion of the tokens will be available for claim after the cliff period and the duration of this period; - what percentage of the remaining tokens will be distributed equally over equal time intervals (as well as the number and duration of these intervals). Any of these fields can accept zero values, for example, you can set the distribution of tokens without a cliff period or, conversely, split the receipt of values into two parts (immediately and after some time), without specifying time intervals.For each TGE, a list of Resolvers can be assigned, i.e., addresses that can stop the vesting program for a specific user.  The list of resolvers is immutable for each individual TGE and is set at the time of its launch (it can be stored in the proposal data for creating the TGE beforehand).",
    "events": {
      "Cancelled(address,address,uint256)": {
        "details": "This event is emitted when vesting is canceled for a specific account and TGE.",
        "params": {
          "account": "Account address",
          "amount": "Amount of tokens that will not be distributed to this address due to the cancellation",
          "tge": "TGE contract address"
        }
      },
      "Claimed(address,address,uint256)": {
        "details": "This event is emitted for each token claiming by users.",
        "params": {
          "account": "Account address that requested the token claiming",
          "amount": "Amount of claimed tokens",
          "tge": "TGE contract address"
        }
      },
      "Vested(address,address,uint256)": {
        "details": "This event is emitted when new token units are vested due to token purchase.",
        "params": {
          "account": "Account address",
          "amount": "Amount of tokens vested for the account",
          "tge": "TGE contract address"
        }
      }
    },
    "kind": "dev",
    "methods": {
      "cancel(address,address)": {
        "details": "Calling this method is only possible by the address specified in the resolvers list for the specific TGE, and it leads to resetting the token balance in vesting for the specified address, depriving it of the ability to make successful token claiming within the specified TGE.",
        "params": {
          "account": "Account address",
          "tge": "TGE contract address"
        }
      },
      "claim(address)": {
        "details": "This method is executed with the specified TGE, for which the currently unlocked token volume is calculated. Calling the method results in the issuance and transfer of the entire calculated token volume to the sender's address.",
        "params": {
          "tge": "TGE contract address"
        }
      },
      "claimableBalanceOf(address,address)": {
        "details": "This method takes into account previous claimings made by the account.",
        "params": {
          "account": "Account address",
          "tge": "TGE contract address"
        },
        "returns": {
          "_0": "uin256 Number of claimable token units"
        }
      },
      "constructor": {
        "custom:oz-upgrades-unsafe-allow": "constructor",
        "details": "This contract uses OpenZeppelin upgrades and has no need for a constructor function. The constructor is replaced with an initializer function. This method disables the initializer feature of the OpenZeppelin upgrades plugin, preventing the initializer methods from being misused."
      },
      "initialize(address)": {
        "details": "This method replaces the constructor for upgradeable contracts. Additionally, it sets the address of the Registry contract in the contract's storage.",
        "params": {
          "registry_": "Protocol registry address"
        }
      },
      "setClaimTVLReached(address)": {
        "details": "This method can only be called by the address with the SERVICE_MANAGER role in the Service contract. It is a trusted way to load data into the source of truth about the TVL events achieved by the pool, as specified in the parameters of the vesting program.",
        "params": {
          "tge": "TGE contract address"
        }
      },
      "unlockedBalanceOf(address,address)": {
        "details": "The returned value is the total sum of all quantities after all token unlocks that have occurred for this account within this TGE. In other words, claimed tokens are also part of this response.",
        "params": {
          "account": "Account address",
          "tge": "TGE contract address"
        },
        "returns": {
          "_0": "uint256 Number of unlocked token units"
        }
      },
      "validateParams((uint256,uint256,uint256,uint256,uint256,uint256,uint256,address[]))": {
        "params": {
          "params": "Vesting program parameters"
        },
        "returns": {
          "_0": "bool True if params are valid (reverts otherwise)"
        }
      },
      "vest(address,uint256)": {
        "details": "This method is called only by the TGE contract and results in the creation of a new entry or an increase in the existing value in the vested mapping for the TGE key and the specified account. After this, the account is reserved the ability to mint and receive new token units in case the conditions specified in the vesting program for this TGE are met.",
        "params": {
          "amount": "Amount of tokens to vest",
          "to": "Account address that received the vested tokens"
        }
      },
      "vestedBalanceOf(address,address)": {
        "details": "This method shows both still locked token units and already unlocked units ready for claiming.",
        "params": {
          "account": "Account address",
          "tge": "TGE contract address"
        },
        "returns": {
          "_0": "uint256 Number of token units vested"
        }
      },
      "vestingParams(address)": {
        "params": {
          "tge": "TGE contract address"
        },
        "returns": {
          "_0": "VestingParams Vesting settings"
        }
      }
    },
    "stateVariables": {
      "DENOM": {
        "details": "The constant Service.sol:DENOM is used to work with percentage values of QuorumThreshold and DecisionThreshold thresholds, as well as for calculating the ProtocolTokenFee. In this version, it is equal to 1,000,000, for clarity stored as 100 * 10 ^ 4. 10^4 corresponds to one percent, and 100 * 10^4 corresponds to one hundred percent. The value of 12.3456% will be written as 123,456, and 78.9% as 789,000. This notation allows specifying ratios with an accuracy of up to four decimal places in percentage notation (six decimal places in decimal notation). When working with the CompanyDAO frontend, the application scripts automatically convert the familiar percentage notation into the required format. When using the contracts independently, this feature of value notation should be taken into account."
      },
      "claimTVLReached": {
        "details": "It is one of the two conditions under which users can claim tokens reserved for them under the vesting program."
      },
      "claimed": {
        "details": "This parameter increases every time a successful transaction is made to the Claim method by an address."
      },
      "totalVested": {
        "details": "Claiming tokens does not modify these data; they are used to calculate the amount of tokens that can be claimed by a specific address and to determine the total amount of tokens in vesting for a given account.In the event of vesting cancellation for a specific address in any TGE, the value under the TGE address key is decreased by the full amount of tokens locked in vesting for that address."
      },
      "vested": {
        "details": "The vesting contract does not store tokens, but it contains records of which address is entitled to what amount of tokens for which TGE when the conditions set in the settings are met. This means that minting these tokens only occurs when the owner of the address requests them, prior to that, they are not included in totalSupply or balances. No record in Vesting can affect the vote calculation for Governance."
      }
    },
    "title": "Vesting contract",
    "version": 1
  },
  "userdoc": {
    "kind": "user",
    "methods": {
      "cancel(address,address)": {
        "notice": "Cancels vesting for the specified account and TGE contract addresses."
      },
      "claim(address)": {
        "notice": "Method to issue and transfer unlocked tokens to the transaction sender's address."
      },
      "claimTVLReached(address)": {
        "notice": "Mapping of flags indicating whether the TVL threshold set in the TGE conditions has been reached by the pool."
      },
      "claimableBalanceOf(address,address)": {
        "notice": "This method returns the currently available amount of token units that an account can claim within the specified TGE."
      },
      "claimed(address,address)": {
        "notice": "Mapping that stores the total amount of tokens vested by a specific address for a given TGE."
      },
      "constructor": {
        "notice": "Contract constructor."
      },
      "initialize(address)": {
        "notice": "Contract initializer"
      },
      "registry()": {
        "notice": "Registry contract address"
      },
      "resolved(address,address)": {
        "notice": "Mapping that shows the amount of tokens that will not be transferred to the user during claiming due to the cancellation of vesting by a resolver."
      },
      "setClaimTVLReached(address)": {
        "notice": "Method for recording the occurrence of one of two conditions for token unlocking."
      },
      "totalVested(address)": {
        "notice": "Mapping that stores the total amount of tokens locked in vesting for each conducted TGE."
      },
      "unlockedBalanceOf(address,address)": {
        "notice": "This method returns the number of token units that have been unlocked for a specific account within the vesting program of a particular TGE."
      },
      "validateParams((uint256,uint256,uint256,uint256,uint256,uint256,uint256,address[]))": {
        "notice": "This method validates the vesting program parameters proposed for use in the created TGE contract."
      },
      "vest(address,uint256)": {
        "notice": "Method for increasing the token balance in vesting for a specific TGE contract."
      },
      "vested(address,address)": {
        "notice": "Mapping (tge, account) to amount of tokens vested to that account in TGE"
      },
      "vestedBalanceOf(address,address)": {
        "notice": "This method shows the remaining tokens that are still vested for a given address."
      },
      "vestingParams(address)": {
        "notice": "This method returns the vesting parameters specified for a specific TGE."
      }
    },
    "notice": "The Vesting contract exists in a single instance and helps manage the vesting processes for all successful TGEs.",
    "version": 1
  },
  "storageLayout": {
    "storage": [
      {
        "astId": 1184,
        "contract": "contracts/Vesting.sol:Vesting",
        "label": "_initialized",
        "offset": 0,
        "slot": "0",
        "type": "t_uint8"
      },
      {
        "astId": 1187,
        "contract": "contracts/Vesting.sol:Vesting",
        "label": "_initializing",
        "offset": 1,
        "slot": "0",
        "type": "t_bool"
      },
      {
        "astId": 19882,
        "contract": "contracts/Vesting.sol:Vesting",
        "label": "registry",
        "offset": 2,
        "slot": "0",
        "type": "t_contract(IRegistry)22935"
      },
      {
        "astId": 19887,
        "contract": "contracts/Vesting.sol:Vesting",
        "label": "totalVested",
        "offset": 0,
        "slot": "1",
        "type": "t_mapping(t_address,t_uint256)"
      },
      {
        "astId": 19894,
        "contract": "contracts/Vesting.sol:Vesting",
        "label": "vested",
        "offset": 0,
        "slot": "2",
        "type": "t_mapping(t_address,t_mapping(t_address,t_uint256))"
      },
      {
        "astId": 19901,
        "contract": "contracts/Vesting.sol:Vesting",
        "label": "claimed",
        "offset": 0,
        "slot": "3",
        "type": "t_mapping(t_address,t_mapping(t_address,t_uint256))"
      },
      {
        "astId": 19906,
        "contract": "contracts/Vesting.sol:Vesting",
        "label": "claimTVLReached",
        "offset": 0,
        "slot": "4",
        "type": "t_mapping(t_address,t_bool)"
      },
      {
        "astId": 19913,
        "contract": "contracts/Vesting.sol:Vesting",
        "label": "resolved",
        "offset": 0,
        "slot": "5",
        "type": "t_mapping(t_address,t_mapping(t_address,t_uint256))"
      }
    ],
    "types": {
      "t_address": {
        "encoding": "inplace",
        "label": "address",
        "numberOfBytes": "20"
      },
      "t_bool": {
        "encoding": "inplace",
        "label": "bool",
        "numberOfBytes": "1"
      },
      "t_contract(IRegistry)22935": {
        "encoding": "inplace",
        "label": "contract IRegistry",
        "numberOfBytes": "20"
      },
      "t_mapping(t_address,t_bool)": {
        "encoding": "mapping",
        "key": "t_address",
        "label": "mapping(address => bool)",
        "numberOfBytes": "32",
        "value": "t_bool"
      },
      "t_mapping(t_address,t_mapping(t_address,t_uint256))": {
        "encoding": "mapping",
        "key": "t_address",
        "label": "mapping(address => mapping(address => uint256))",
        "numberOfBytes": "32",
        "value": "t_mapping(t_address,t_uint256)"
      },
      "t_mapping(t_address,t_uint256)": {
        "encoding": "mapping",
        "key": "t_address",
        "label": "mapping(address => uint256)",
        "numberOfBytes": "32",
        "value": "t_uint256"
      },
      "t_uint256": {
        "encoding": "inplace",
        "label": "uint256",
        "numberOfBytes": "32"
      },
      "t_uint8": {
        "encoding": "inplace",
        "label": "uint8",
        "numberOfBytes": "1"
      }
    }
  }
}