{
  "address": "0x05E0b8963776A1594bE21b1a6Fa3959c8c95058c",
  "abi": [
    {
      "inputs": [],
      "stateMutability": "nonpayable",
      "type": "constructor"
    },
    {
      "anonymous": false,
      "inputs": [
        {
          "indexed": false,
          "internalType": "uint8",
          "name": "version",
          "type": "uint8"
        }
      ],
      "name": "Initialized",
      "type": "event"
    },
    {
      "anonymous": false,
      "inputs": [
        {
          "indexed": false,
          "internalType": "address",
          "name": "pool",
          "type": "address"
        },
        {
          "indexed": false,
          "internalType": "uint256",
          "name": "invoiceId",
          "type": "uint256"
        }
      ],
      "name": "InvoiceCanceled",
      "type": "event"
    },
    {
      "anonymous": false,
      "inputs": [
        {
          "indexed": false,
          "internalType": "address",
          "name": "pool",
          "type": "address"
        },
        {
          "indexed": false,
          "internalType": "uint256",
          "name": "invoiceId",
          "type": "uint256"
        }
      ],
      "name": "InvoiceCreated",
      "type": "event"
    },
    {
      "anonymous": false,
      "inputs": [
        {
          "indexed": false,
          "internalType": "address",
          "name": "pool",
          "type": "address"
        },
        {
          "indexed": false,
          "internalType": "uint256",
          "name": "invoiceId",
          "type": "uint256"
        }
      ],
      "name": "InvoicePaid",
      "type": "event"
    },
    {
      "inputs": [
        {
          "internalType": "address",
          "name": "pool",
          "type": "address"
        },
        {
          "internalType": "uint256",
          "name": "invoiceId",
          "type": "uint256"
        }
      ],
      "name": "cancelInvoice",
      "outputs": [],
      "stateMutability": "nonpayable",
      "type": "function"
    },
    {
      "inputs": [
        {
          "internalType": "address",
          "name": "pool",
          "type": "address"
        },
        {
          "components": [
            {
              "internalType": "uint256",
              "name": "amount",
              "type": "uint256"
            },
            {
              "internalType": "address",
              "name": "unitOfAccount",
              "type": "address"
            },
            {
              "internalType": "uint256",
              "name": "expirationBlock",
              "type": "uint256"
            },
            {
              "internalType": "string",
              "name": "description",
              "type": "string"
            },
            {
              "internalType": "address[]",
              "name": "whitelist",
              "type": "address[]"
            }
          ],
          "internalType": "struct IInvoice.InvoiceCore",
          "name": "core",
          "type": "tuple"
        }
      ],
      "name": "createInvoice",
      "outputs": [],
      "stateMutability": "nonpayable",
      "type": "function"
    },
    {
      "inputs": [
        {
          "internalType": "address",
          "name": "",
          "type": "address"
        },
        {
          "internalType": "uint256",
          "name": "",
          "type": "uint256"
        }
      ],
      "name": "eventIndex",
      "outputs": [
        {
          "internalType": "uint256",
          "name": "",
          "type": "uint256"
        }
      ],
      "stateMutability": "view",
      "type": "function"
    },
    {
      "inputs": [
        {
          "internalType": "contract IRegistry",
          "name": "registry_",
          "type": "address"
        }
      ],
      "name": "initialize",
      "outputs": [],
      "stateMutability": "nonpayable",
      "type": "function"
    },
    {
      "inputs": [
        {
          "internalType": "address",
          "name": "pool",
          "type": "address"
        },
        {
          "internalType": "uint256",
          "name": "invoiceId",
          "type": "uint256"
        }
      ],
      "name": "invoiceState",
      "outputs": [
        {
          "internalType": "enum IInvoice.InvoiceState",
          "name": "",
          "type": "uint8"
        }
      ],
      "stateMutability": "view",
      "type": "function"
    },
    {
      "inputs": [
        {
          "internalType": "address",
          "name": "",
          "type": "address"
        },
        {
          "internalType": "uint256",
          "name": "",
          "type": "uint256"
        }
      ],
      "name": "invoices",
      "outputs": [
        {
          "components": [
            {
              "internalType": "uint256",
              "name": "amount",
              "type": "uint256"
            },
            {
              "internalType": "address",
              "name": "unitOfAccount",
              "type": "address"
            },
            {
              "internalType": "uint256",
              "name": "expirationBlock",
              "type": "uint256"
            },
            {
              "internalType": "string",
              "name": "description",
              "type": "string"
            },
            {
              "internalType": "address[]",
              "name": "whitelist",
              "type": "address[]"
            }
          ],
          "internalType": "struct IInvoice.InvoiceCore",
          "name": "core",
          "type": "tuple"
        },
        {
          "internalType": "uint256",
          "name": "invoiceId",
          "type": "uint256"
        },
        {
          "internalType": "address",
          "name": "createdBy",
          "type": "address"
        },
        {
          "internalType": "bool",
          "name": "isPaid",
          "type": "bool"
        },
        {
          "internalType": "bool",
          "name": "isCanceled",
          "type": "bool"
        }
      ],
      "stateMutability": "view",
      "type": "function"
    },
    {
      "inputs": [
        {
          "internalType": "address",
          "name": "pool",
          "type": "address"
        },
        {
          "internalType": "address",
          "name": "account",
          "type": "address"
        }
      ],
      "name": "isValidInvoiceManager",
      "outputs": [
        {
          "internalType": "bool",
          "name": "",
          "type": "bool"
        }
      ],
      "stateMutability": "view",
      "type": "function"
    },
    {
      "inputs": [
        {
          "internalType": "address",
          "name": "",
          "type": "address"
        }
      ],
      "name": "lastInvoiceIdForPool",
      "outputs": [
        {
          "internalType": "uint256",
          "name": "",
          "type": "uint256"
        }
      ],
      "stateMutability": "view",
      "type": "function"
    },
    {
      "inputs": [
        {
          "internalType": "address",
          "name": "pool",
          "type": "address"
        },
        {
          "internalType": "uint256",
          "name": "invoiceId",
          "type": "uint256"
        }
      ],
      "name": "payInvoice",
      "outputs": [],
      "stateMutability": "payable",
      "type": "function"
    },
    {
      "inputs": [],
      "name": "registry",
      "outputs": [
        {
          "internalType": "contract IRegistry",
          "name": "",
          "type": "address"
        }
      ],
      "stateMutability": "view",
      "type": "function"
    },
    {
      "inputs": [
        {
          "internalType": "address",
          "name": "pool",
          "type": "address"
        },
        {
          "internalType": "uint256",
          "name": "invoiceId",
          "type": "uint256"
        }
      ],
      "name": "setInvoiceCanceled",
      "outputs": [],
      "stateMutability": "nonpayable",
      "type": "function"
    },
    {
      "inputs": [
        {
          "internalType": "address",
          "name": "pool",
          "type": "address"
        },
        {
          "internalType": "uint256",
          "name": "invoiceId",
          "type": "uint256"
        }
      ],
      "name": "setInvoicePaid",
      "outputs": [],
      "stateMutability": "nonpayable",
      "type": "function"
    },
    {
      "inputs": [
        {
          "components": [
            {
              "internalType": "uint256",
              "name": "amount",
              "type": "uint256"
            },
            {
              "internalType": "address",
              "name": "unitOfAccount",
              "type": "address"
            },
            {
              "internalType": "uint256",
              "name": "expirationBlock",
              "type": "uint256"
            },
            {
              "internalType": "string",
              "name": "description",
              "type": "string"
            },
            {
              "internalType": "address[]",
              "name": "whitelist",
              "type": "address[]"
            }
          ],
          "internalType": "struct IInvoice.InvoiceCore",
          "name": "core",
          "type": "tuple"
        }
      ],
      "name": "validateInvoiceCore",
      "outputs": [
        {
          "internalType": "bool",
          "name": "",
          "type": "bool"
        }
      ],
      "stateMutability": "view",
      "type": "function"
    }
  ],
  "transactionHash": "0xb95d25996b8eaaafbdd5bff522d84457c1ae41dc4a3d1f99694f10bdcfc4d3d1",
  "args": [],
  "numDeployments": 4,
  "solcInputHash": "e2c1d907b39878c8d1231106f9ed3b24",
  "bytecode": "0x60806040523480156200001157600080fd5b506200001c62000022565b620000e4565b600054610100900460ff16156200008f5760405162461bcd60e51b815260206004820152602760248201527f496e697469616c697a61626c653a20636f6e747261637420697320696e697469604482015266616c697a696e6760c81b606482015260840160405180910390fd5b60005460ff9081161015620000e2576000805460ff191660ff9081179091556040519081527f7f26b83ff96e1f2b6a682f133852f6798a09c465da95921460cefb38474024989060200160405180910390a15b565b6127ec80620000f46000396000f3fe6080604052600436106100c25760003560e01c8063528dd5121161007f578063862b7cbf11610059578063862b7cbf146102395780639ad8ec5714610259578063c4d66de814610291578063de35f20c146102b157600080fd5b8063528dd512146101c15780635c337409146101e15780637b1039991461020157600080fd5b80630dad62fa146100c75780632b9542341461010157806330c6faeb14610131578063365fa35d146101465780633a1de8fc1461016657806341cec40e14610186575b600080fd5b3480156100d357600080fd5b506100e76100e23660046120ec565b6102de565b6040516100f89594939291906121f6565b60405180910390f35b34801561010d57600080fd5b5061012161011c366004612238565b610453565b60405190151581526020016100f8565b61014461013f3660046120ec565b61078b565b005b34801561015257600080fd5b50610121610161366004612449565b610cc9565b34801561017257600080fd5b506101446101813660046120ec565b610e32565b34801561019257600080fd5b506101b36101a136600461247e565b60346020526000908152604090205481565b6040519081526020016100f8565b3480156101cd57600080fd5b506101446101dc3660046124a2565b611043565b3480156101ed57600080fd5b506101446101fc3660046120ec565b6114c5565b34801561020d57600080fd5b50603354610221906001600160a01b031681565b6040516001600160a01b0390911681526020016100f8565b34801561024557600080fd5b506101446102543660046120ec565b6115d0565b34801561026557600080fd5b506101b36102743660046120ec565b603660209081526000928352604080842090915290825290205481565b34801561029d57600080fd5b506101446102ac36600461247e565b61188b565b3480156102bd57600080fd5b506102d16102cc3660046120ec565b6119af565b6040516100f89190612508565b6035602090815260009283526040808420825291835291819020815160a0810183528154815260018201546001600160a01b0316938101939093526002810154918301919091526003810180549192918391606084019161033e90612530565b80601f016020809104026020016040519081016040528092919081815260200182805461036a90612530565b80156103b75780601f1061038c576101008083540402835291602001916103b7565b820191906000526020600020905b81548152906001019060200180831161039a57829003601f168201915b505050505081526020016004820180548060200260200160405190810160405280929190818152602001828054801561041957602002820191906000526020600020905b81546001600160a01b031681526001909101906020018083116103fb575b5050509190925250505060058201546006909201549091906001600160a01b0381169060ff600160a01b8204811691600160a81b90041685565b6033546040805163d598d4c960e01b815290516000926001600160a01b03169163d598d4c99160048083019260209291908290030181865afa15801561049d573d6000803e3d6000fd5b505050506040513d601f19601f820116820180604052508101906104c1919061256a565b6001600160a01b03166391d14854603360009054906101000a90046001600160a01b03166001600160a01b031663d598d4c96040518163ffffffff1660e01b8152600401602060405180830381865afa158015610522573d6000803e3d6000fd5b505050506040513d601f19601f82011682018060405250810190610546919061256a565b6001600160a01b031663c979e8a76040518163ffffffff1660e01b8152600401602060405180830381865afa158015610583573d6000803e3d6000fd5b505050506040513d601f19601f820116820180604052508101906105a79190612587565b6040516001600160e01b031960e084901b16815260048101919091526001600160a01b0385166024820152604401602060405180830381865afa1580156105f2573d6000803e3d6000fd5b505050506040513d601f19601f8201168201806040525081019061061691906125a0565b80610686575060405163232bd84f60e21b81526001600160a01b038381166004830152841690638caf613c90602401602060405180830381865afa158015610662573d6000803e3d6000fd5b505050506040513d601f19601f8201168201806040525081019061068691906125a0565b1561069357506001610785565b826001600160a01b031663e47bfee86040518163ffffffff1660e01b8152600401602060405180830381865afa1580156106d1573d6000803e3d6000fd5b505050506040513d601f19601f820116820180604052508101906106f591906125a0565b1580156107745750826001600160a01b0316638da5cb5b6040518163ffffffff1660e01b8152600401602060405180830381865afa15801561073b573d6000803e3d6000fd5b505050506040513d601f19601f8201168201806040525081019061075f919061256a565b6001600160a01b0316826001600160a01b0316145b1561078157506001610785565b5060005b92915050565b610793611b96565b81806001600160a01b0316635c975abb6040518163ffffffff1660e01b8152600401602060405180830381865afa1580156107d2573d6000803e3d6000fd5b505050506040513d601f19601f820116820180604052508101906107f691906125a0565b156040518060400160405280600b81526020016a1413d3d317d4105554d15160aa1b815250906108425760405162461bcd60e51b815260040161083991906125c2565b60405180910390fd5b506001600160a01b03808416600090815260356020908152604080832086845290915280822081516101408101909252805460a08301908152600182015490941660c0830152600281015460e0830152600381018054939492939192849290918491610100850191906108b490612530565b80601f01602080910402602001604051908101604052809291908181526020018280546108e090612530565b801561092d5780601f106109025761010080835404028352916020019161092d565b820191906000526020600020905b81548152906001019060200180831161091057829003601f168201915b505050505081526020016004820180548060200260200160405190810160405280929190818152602001828054801561098f57602002820191906000526020600020905b81546001600160a01b03168152600190910190602001808311610971575b505050919092525050508152600582015460208201526006909101546001600160a01b038116604083015260ff600160a01b8204811615156060840152600160a81b909104161515608090910152905060016109eb85856119af565b60048111156109fc576109fc6124f2565b146040518060400160405280600b81526020016a57524f4e475f535441544560a81b81525090610a3f5760405162461bcd60e51b815260040161083991906125c2565b508051608001515115610aee576000805b82516080015151811015610aa657825160800151805133919083908110610a7957610a796125d5565b60200260200101516001600160a01b031603610a9457600191505b80610a9e816125eb565b915050610a50565b5060408051808201909152600f81526e1393d517d5d2125511531254d51151608a1b602082015281610aeb5760405162461bcd60e51b815260040161083991906125c2565b50505b8051602001516001600160a01b0316610be85780515160408051808201909152600c81526b15d493d391d7d05353d5539560a21b6020820152903414610b475760405162461bcd60e51b815260040161083991906125c2565b508051516040516000916001600160a01b038716918381818185875af1925050503d8060008114610b94576040519150601f19603f3d011682016040523d82523d6000602084013e610b99565b606091505b50509050806040518060400160405280600c81526020016b15d493d391d7d05353d5539560a21b81525090610be15760405162461bcd60e51b815260040161083991906125c2565b5050610c0b565b80518051602090910151610c0b916001600160a01b039091169033908790611bef565b610c158484611c4f565b603354604080516001600160a01b038781166024830152604480830188905283518084039091018152606490920183526020820180516001600160e01b03166330c6faeb60e01b1790529151634dbb83fd60e01b81529190921691634dbb83fd91610c8891339130913491600401612612565b600060405180830381600087803b158015610ca257600080fd5b505af1158015610cb6573d6000803e3d6000fd5b505050505050610cc560018055565b5050565b805160408051808201909152600c81526b15d493d391d7d05353d5539560a21b6020820152600091610d0e5760405162461bcd60e51b815260040161083991906125c2565b5043826040015111604051806040016040528060128152602001712ba927a723afa12627a1a5afa72aa6a122a960711b81525090610d5f5760405162461bcd60e51b815260040161083991906125c2565b5060208201516001600160a01b03161580610ddf5750600082602001516001600160a01b03166318160ddd6040518163ffffffff1660e01b8152600401602060405180830381865afa158015610db9573d6000803e3d6000fd5b505050506040513d601f19601f82011682018060405250810190610ddd9190612587565b115b6040518060400160405280601381526020017257524f4e475f544f4b454e5f4144445245535360681b81525090610e295760405162461bcd60e51b815260040161083991906125c2565b50600192915050565b603360009054906101000a90046001600160a01b03166001600160a01b031663d598d4c96040518163ffffffff1660e01b8152600401602060405180830381865afa158015610e85573d6000803e3d6000fd5b505050506040513d601f19601f82011682018060405250810190610ea9919061256a565b6001600160a01b03166391d14854603360009054906101000a90046001600160a01b03166001600160a01b031663d598d4c96040518163ffffffff1660e01b8152600401602060405180830381865afa158015610f0a573d6000803e3d6000fd5b505050506040513d601f19601f82011682018060405250810190610f2e919061256a565b6001600160a01b031663c979e8a76040518163ffffffff1660e01b8152600401602060405180830381865afa158015610f6b573d6000803e3d6000fd5b505050506040513d601f19601f82011682018060405250810190610f8f9190612587565b6040516001600160e01b031960e084901b1681526004810191909152336024820152604401602060405180830381865afa158015610fd1573d6000803e3d6000fd5b505050506040513d601f19601f82011682018060405250810190610ff591906125a0565b6040518060400160405280600c81526020016b24a72b20a624a22faaa9a2a960a11b815250906110385760405162461bcd60e51b815260040161083991906125c2565b50610cc58282611c4f565b8161104e8133610453565b604051806040016040528060138152602001722727aa2fa4a72b27a4a1a2afa6a0a720a3a2a960691b815250906110985760405162461bcd60e51b815260040161083991906125c2565b50603354604051630db9619f60e31b81526001600160a01b0385811660048301526001921690636dcb0cf890602401602060405180830381865afa1580156110e4573d6000803e3d6000fd5b505050506040513d601f19601f82011682018060405250810190611108919061264f565b6004811115611119576111196124f2565b14604051806040016040528060088152602001671393d517d413d3d360c21b815250906111595760405162461bcd60e51b815260040161083991906125c2565b5061116382610cc9565b506040805161014081018252600060a0820181905260c0820181905260e0820181905260606101008301819052610120830181905260208084018381528285018490526080850184905233858701528785526001600160a01b03898116808652603484528786205492839052855260358352868520828652835293869020855180518255928301516001820180546001600160a01b031916919096161790945594810151600284015590810151929392849291908290600382019061122890826126b6565b506080820151805161124491600484019160209091019061205a565b50505060208281015160058301556040808401516006909301805460608601516080909601511515600160a81b0260ff60a81b19961515600160a01b026001600160a81b03199092166001600160a01b0396871617919091179590951694909417909355908716600090815260349091529081208054916112c4836125eb565b90915550506033546040805163d598d4c960e01b815290516000926001600160a01b03169163d598d4c99160048083019260209291908290030181865afa158015611313573d6000803e3d6000fd5b505050506040513d601f19601f82011682018060405250810190611337919061256a565b604051635a4c3ceb60e01b81526001600160a01b038881166004830152602482018590529190911690635a4c3ceb906044016020604051808303816000875af1158015611388573d6000803e3d6000fd5b505050506040513d601f19601f820116820180604052508101906113ac9190612587565b6001600160a01b0387166000818152603660209081526040808320878452825291829020849055815192835282018590529192507f6a39120258d0c412cb2b8a5731afda5aa7b25b23efbd037907ab4223ec73ee6c910160405180910390a16033546040516001600160a01b0390911690634dbb83fd9033903090600090632946ea8960e11b90611443908d908d90602401612776565b60408051601f198184030181529181526020820180516001600160e01b03166001600160e01b03199485161790525160e087901b909216825261148b94939291600401612612565b600060405180830381600087803b1580156114a557600080fd5b505af11580156114b9573d6000803e3d6000fd5b50505050505050505050565b816114d08133610453565b604051806040016040528060138152602001722727aa2fa4a72b27a4a1a2afa6a0a720a3a2a960691b8152509061151a5760405162461bcd60e51b815260040161083991906125c2565b506115258383611d26565b603354604080516001600160a01b038681166024830152604480830187905283518084039091018152606490920183526020820180516001600160e01b0316635c33740960e01b1790529151634dbb83fd60e01b81529190921691634dbb83fd916115999133913091600091600401612612565b600060405180830381600087803b1580156115b357600080fd5b505af11580156115c7573d6000803e3d6000fd5b50505050505050565b603360009054906101000a90046001600160a01b03166001600160a01b031663d598d4c96040518163ffffffff1660e01b8152600401602060405180830381865afa158015611623573d6000803e3d6000fd5b505050506040513d601f19601f82011682018060405250810190611647919061256a565b6001600160a01b03166391d14854603360009054906101000a90046001600160a01b03166001600160a01b031663d598d4c96040518163ffffffff1660e01b8152600401602060405180830381865afa1580156116a8573d6000803e3d6000fd5b505050506040513d601f19601f820116820180604052508101906116cc919061256a565b6001600160a01b031663c979e8a76040518163ffffffff1660e01b8152600401602060405180830381865afa158015611709573d6000803e3d6000fd5b505050506040513d601f19601f8201168201806040525081019061172d9190612587565b6040516001600160e01b031960e084901b1681526004810191909152336024820152604401602060405180830381865afa15801561176f573d6000803e3d6000fd5b505050506040513d601f19601f8201168201806040525081019061179391906125a0565b6040518060400160405280600c81526020016b24a72b20a624a22faaa9a2a960a11b815250906117d65760405162461bcd60e51b815260040161083991906125c2565b506117e18282611d26565b603354604080516001600160a01b038581166024830152604480830186905283518084039091018152606490920183526020820180516001600160e01b031663862b7cbf60e01b1790529151634dbb83fd60e01b81529190921691634dbb83fd916118559133913091600091600401612612565b600060405180830381600087803b15801561186f57600080fd5b505af1158015611883573d6000803e3d6000fd5b505050505050565b600054610100900460ff16158080156118ab5750600054600160ff909116105b806118c55750303b1580156118c5575060005460ff166001145b6119285760405162461bcd60e51b815260206004820152602e60248201527f496e697469616c697a61626c653a20636f6e747261637420697320616c72656160448201526d191e481a5b9a5d1a585b1a5e995960921b6064820152608401610839565b6000805460ff19166001179055801561194b576000805461ff0019166101001790555b603380546001600160a01b0319166001600160a01b0384161790558015610cc5576000805461ff0019169055604051600181527f7f26b83ff96e1f2b6a682f133852f6798a09c465da95921460cefb38474024989060200160405180910390a15050565b6001600160a01b03808316600090815260356020908152604080832085845290915280822081516101408101909252805460a08301908152600182015490941660c0830152600281015460e0830152600381018054939485948492849161010085019190611a1c90612530565b80601f0160208091040260200160405190810160405280929190818152602001828054611a4890612530565b8015611a955780601f10611a6a57610100808354040283529160200191611a95565b820191906000526020600020905b815481529060010190602001808311611a7857829003601f168201915b5050505050815260200160048201805480602002602001604051908101604052809291908181526020018280548015611af757602002820191906000526020600020905b81546001600160a01b03168152600190910190602001808311611ad9575b505050919092525050508152600582015460208201526006909101546001600160a01b038116604083015260ff600160a01b820481161515606080850191909152600160a81b90920416151560809092019190915281015190915015611b61576002915050610785565b806080015115611b75576004915050610785565b805160400151431115611b8c576003915050610785565b5060019392505050565b600260015403611be85760405162461bcd60e51b815260206004820152601f60248201527f5265656e7472616e637947756172643a207265656e7472616e742063616c6c006044820152606401610839565b6002600155565b604080516001600160a01b0385811660248301528416604482015260648082018490528251808303909101815260849091019091526020810180516001600160e01b03166323b872dd60e01b179052611c49908590611df3565b50505050565b81816001611c5d83836119af565b6004811115611c6e57611c6e6124f2565b146040518060400160405280600b81526020016a57524f4e475f535441544560a81b81525090611cb15760405162461bcd60e51b815260040161083991906125c2565b506001600160a01b0384166000818152603560209081526040808320878452825291829020600601805460ff60a01b1916600160a01b179055815192835282018590527f799d4ec405ca3d1ee291cbd8904cbccb4b8a0ecef447ddae03b2fbeddcc30cfb91015b60405180910390a150505050565b81816001611d3483836119af565b6004811115611d4557611d456124f2565b146040518060400160405280600b81526020016a57524f4e475f535441544560a81b81525090611d885760405162461bcd60e51b815260040161083991906125c2565b506001600160a01b0384166000818152603560209081526040808320878452825291829020600601805460ff60a81b1916600160a81b179055815192835282018590527f9abf50c8342d18dbbf559ab00e917d3d8fe7f836797cf666bc944252e61469e39101611d18565b6000611e48826040518060400160405280602081526020017f5361666545524332303a206c6f772d6c6576656c2063616c6c206661696c6564815250856001600160a01b0316611eca9092919063ffffffff16565b805190915015611ec55780806020019051810190611e6691906125a0565b611ec55760405162461bcd60e51b815260206004820152602a60248201527f5361666545524332303a204552433230206f7065726174696f6e20646964206e6044820152691bdd081cdd58d8d9595960b21b6064820152608401610839565b505050565b6060611ed98484600085611ee1565b949350505050565b606082471015611f425760405162461bcd60e51b815260206004820152602660248201527f416464726573733a20696e73756666696369656e742062616c616e636520666f6044820152651c8818d85b1b60d21b6064820152608401610839565b600080866001600160a01b03168587604051611f5e919061279a565b60006040518083038185875af1925050503d8060008114611f9b576040519150601f19603f3d011682016040523d82523d6000602084013e611fa0565b606091505b5091509150611fb187838387611fbc565b979650505050505050565b6060831561202b578251600003612024576001600160a01b0385163b6120245760405162461bcd60e51b815260206004820152601d60248201527f416464726573733a2063616c6c20746f206e6f6e2d636f6e74726163740000006044820152606401610839565b5081611ed9565b611ed983838151156120405781518083602001fd5b8060405162461bcd60e51b815260040161083991906125c2565b8280548282559060005260206000209081019282156120af579160200282015b828111156120af57825182546001600160a01b0319166001600160a01b0390911617825560209092019160019091019061207a565b506120bb9291506120bf565b5090565b5b808211156120bb57600081556001016120c0565b6001600160a01b03811681146120e957600080fd5b50565b600080604083850312156120ff57600080fd5b823561210a816120d4565b946020939093013593505050565b60005b8381101561213357818101518382015260200161211b565b50506000910152565b60008151808452612154816020860160208601612118565b601f01601f19169290920160200192915050565b80518252600060208083015160018060a01b0380821683870152604085015160408701526060850151915060a060608701526121a760a087018361213c565b60808681015188830391890191909152805180835290850193506000918501905b808310156121ea578451841682529385019360019290920191908501906121c8565b50979650505050505050565b60a08152600061220960a0830188612168565b6020830196909652506001600160a01b0393909316604084015290151560608301521515608090910152919050565b6000806040838503121561224b57600080fd5b8235612256816120d4565b91506020830135612266816120d4565b809150509250929050565b634e487b7160e01b600052604160045260246000fd5b60405160a0810167ffffffffffffffff811182821017156122aa576122aa612271565b60405290565b604051601f8201601f1916810167ffffffffffffffff811182821017156122d9576122d9612271565b604052919050565b600082601f8301126122f257600080fd5b8135602067ffffffffffffffff82111561230e5761230e612271565b8160051b61231d8282016122b0565b928352848101820192828101908785111561233757600080fd5b83870192505b84831015611fb1578235612350816120d4565b8252918301919083019061233d565b600060a0828403121561237157600080fd5b612379612287565b90508135815260208083013561238e816120d4565b8282015260408381013590830152606083013567ffffffffffffffff808211156123b757600080fd5b818501915085601f8301126123cb57600080fd5b8135818111156123dd576123dd612271565b6123ef601f8201601f191685016122b0565b818152878583860101111561240357600080fd5b818585018683013760008583830101528060608701525050608085013592508083111561242f57600080fd5b505061243d848285016122e1565b60808301525092915050565b60006020828403121561245b57600080fd5b813567ffffffffffffffff81111561247257600080fd5b611ed98482850161235f565b60006020828403121561249057600080fd5b813561249b816120d4565b9392505050565b600080604083850312156124b557600080fd5b82356124c0816120d4565b9150602083013567ffffffffffffffff8111156124dc57600080fd5b6124e88582860161235f565b9150509250929050565b634e487b7160e01b600052602160045260246000fd5b602081016005831061252a57634e487b7160e01b600052602160045260246000fd5b91905290565b600181811c9082168061254457607f821691505b60208210810361256457634e487b7160e01b600052602260045260246000fd5b50919050565b60006020828403121561257c57600080fd5b815161249b816120d4565b60006020828403121561259957600080fd5b5051919050565b6000602082840312156125b257600080fd5b8151801515811461249b57600080fd5b60208152600061249b602083018461213c565b634e487b7160e01b600052603260045260246000fd5b60006001820161260b57634e487b7160e01b600052601160045260246000fd5b5060010190565b6001600160a01b03858116825284166020820152604081018390526080606082018190526000906126459083018461213c565b9695505050505050565b60006020828403121561266157600080fd5b81516005811061249b57600080fd5b601f821115611ec557600081815260208120601f850160051c810160208610156126975750805b601f850160051c820191505b81811015611883578281556001016126a3565b815167ffffffffffffffff8111156126d0576126d0612271565b6126e4816126de8454612530565b84612670565b602080601f83116001811461271957600084156127015750858301515b600019600386901b1c1916600185901b178555611883565b600085815260208120601f198616915b8281101561274857888601518255948401946001909101908401612729565b50858210156127665787850151600019600388901b60f8161c191681555b5050505050600190811b01905550565b6001600160a01b0383168152604060208201819052600090611ed990830184612168565b600082516127ac818460208701612118565b919091019291505056fea2646970667358221220413a75d653115bea5bf5eaa74c5f453decb33d201e38138575268e1deb9abfb964736f6c63430008110033",
  "devdoc": {
    "events": {
      "InvoiceCanceled(address,uint256)": {
        "details": "Event emitted when invoice is canceled",
        "params": {
          "invoiceId": "InvoiceId for Pool",
          "pool": "Pool address"
        }
      },
      "InvoiceCreated(address,uint256)": {
        "details": "Event emitted on invoice creating",
        "params": {
          "invoiceId": "InvoiceId for Pool",
          "pool": "Pool address"
        }
      },
      "InvoicePaid(address,uint256)": {
        "details": "Event emitted when invoice is paid",
        "params": {
          "invoiceId": "InvoiceId for Pool",
          "pool": "Pool address"
        }
      }
    },
    "kind": "dev",
    "methods": {
      "cancelInvoice(address,uint256)": {
        "params": {
          "invoiceId": "invoiceId",
          "pool": "Pool address"
        }
      },
      "constructor": {
        "custom:oz-upgrades-unsafe-allow": "constructor"
      },
      "createInvoice(address,(uint256,address,uint256,string,address[]))": {
        "params": {
          "core": "InvoiceCore",
          "pool": "Pool address"
        }
      },
      "initialize(address)": {
        "params": {
          "registry_": "Protocol registry address"
        }
      },
      "invoiceState(address,uint256)": {
        "details": "This method returns invoice state",
        "params": {
          "invoiceId": "Invoice ID"
        },
        "returns": {
          "_0": "Invoice State"
        }
      },
      "isValidInvoiceManager(address,address)": {
        "details": "This getter check if address is Valid Invoice Manager"
      },
      "payInvoice(address,uint256)": {
        "params": {
          "invoiceId": "InvoiceId",
          "pool": "Pool address"
        }
      },
      "setInvoiceCanceled(address,uint256)": {
        "params": {
          "invoiceId": "invoiceId",
          "pool": "Pool address"
        }
      },
      "setInvoicePaid(address,uint256)": {
        "params": {
          "invoiceId": "invoiceId",
          "pool": "Pool address"
        }
      },
      "validateInvoiceCore((uint256,address,uint256,string,address[]))": {
        "params": {
          "core": "Invoice params"
        },
        "returns": {
          "_0": "True if params are valid (reverts otherwise)"
        }
      }
    },
    "version": 1
  },
  "userdoc": {
    "kind": "user",
    "methods": {
      "cancelInvoice(address,uint256)": {
        "notice": "Cancel Invoice by invoice id (only PoolSecretary)"
      },
      "createInvoice(address,(uint256,address,uint256,string,address[]))": {
        "notice": "create Invoice for given pool (only PoolSecretary)"
      },
      "eventIndex(address,uint256)": {
        "notice": "Event Index"
      },
      "initialize(address)": {
        "notice": "Contract initializer"
      },
      "invoices(address,uint256)": {
        "notice": "Invoice Info"
      },
      "lastInvoiceIdForPool(address)": {
        "notice": "last InvoiceId For Pool"
      },
      "payInvoice(address,uint256)": {
        "notice": "Pay Invoice"
      },
      "registry()": {
        "notice": "Registry contract"
      },
      "setInvoiceCanceled(address,uint256)": {
        "notice": "Set invoice paid for manual invoice cancellation"
      },
      "setInvoicePaid(address,uint256)": {
        "notice": "Set invoice paid for manual confirmation of payment"
      },
      "validateInvoiceCore((uint256,address,uint256,string,address[]))": {
        "notice": "Validates invoice params"
      }
    },
    "version": 1
  },
  "storageLayout": {
    "storage": [
      {
        "astId": 1184,
        "contract": "contracts/Invoice.sol:Invoice",
        "label": "_initialized",
        "offset": 0,
        "slot": "0",
        "type": "t_uint8"
      },
      {
        "astId": 1187,
        "contract": "contracts/Invoice.sol:Invoice",
        "label": "_initializing",
        "offset": 1,
        "slot": "0",
        "type": "t_bool"
      },
      {
        "astId": 1623,
        "contract": "contracts/Invoice.sol:Invoice",
        "label": "_status",
        "offset": 0,
        "slot": "1",
        "type": "t_uint256"
      },
      {
        "astId": 1681,
        "contract": "contracts/Invoice.sol:Invoice",
        "label": "__gap",
        "offset": 0,
        "slot": "2",
        "type": "t_array(t_uint256)49_storage"
      },
      {
        "astId": 11542,
        "contract": "contracts/Invoice.sol:Invoice",
        "label": "registry",
        "offset": 0,
        "slot": "51",
        "type": "t_contract(IRegistry)22491"
      },
      {
        "astId": 11547,
        "contract": "contracts/Invoice.sol:Invoice",
        "label": "lastInvoiceIdForPool",
        "offset": 0,
        "slot": "52",
        "type": "t_mapping(t_address,t_uint256)"
      },
      {
        "astId": 11555,
        "contract": "contracts/Invoice.sol:Invoice",
        "label": "invoices",
        "offset": 0,
        "slot": "53",
        "type": "t_mapping(t_address,t_mapping(t_uint256,t_struct(InvoiceInfo)21212_storage))"
      },
      {
        "astId": 11562,
        "contract": "contracts/Invoice.sol:Invoice",
        "label": "eventIndex",
        "offset": 0,
        "slot": "54",
        "type": "t_mapping(t_address,t_mapping(t_uint256,t_uint256))"
      }
    ],
    "types": {
      "t_address": {
        "encoding": "inplace",
        "label": "address",
        "numberOfBytes": "20"
      },
      "t_array(t_address)dyn_storage": {
        "base": "t_address",
        "encoding": "dynamic_array",
        "label": "address[]",
        "numberOfBytes": "32"
      },
      "t_array(t_uint256)49_storage": {
        "base": "t_uint256",
        "encoding": "inplace",
        "label": "uint256[49]",
        "numberOfBytes": "1568"
      },
      "t_bool": {
        "encoding": "inplace",
        "label": "bool",
        "numberOfBytes": "1"
      },
      "t_contract(IRegistry)22491": {
        "encoding": "inplace",
        "label": "contract IRegistry",
        "numberOfBytes": "20"
      },
      "t_mapping(t_address,t_mapping(t_uint256,t_struct(InvoiceInfo)21212_storage))": {
        "encoding": "mapping",
        "key": "t_address",
        "label": "mapping(address => mapping(uint256 => struct IInvoice.InvoiceInfo))",
        "numberOfBytes": "32",
        "value": "t_mapping(t_uint256,t_struct(InvoiceInfo)21212_storage)"
      },
      "t_mapping(t_address,t_mapping(t_uint256,t_uint256))": {
        "encoding": "mapping",
        "key": "t_address",
        "label": "mapping(address => mapping(uint256 => uint256))",
        "numberOfBytes": "32",
        "value": "t_mapping(t_uint256,t_uint256)"
      },
      "t_mapping(t_address,t_uint256)": {
        "encoding": "mapping",
        "key": "t_address",
        "label": "mapping(address => uint256)",
        "numberOfBytes": "32",
        "value": "t_uint256"
      },
      "t_mapping(t_uint256,t_struct(InvoiceInfo)21212_storage)": {
        "encoding": "mapping",
        "key": "t_uint256",
        "label": "mapping(uint256 => struct IInvoice.InvoiceInfo)",
        "numberOfBytes": "32",
        "value": "t_struct(InvoiceInfo)21212_storage"
      },
      "t_mapping(t_uint256,t_uint256)": {
        "encoding": "mapping",
        "key": "t_uint256",
        "label": "mapping(uint256 => uint256)",
        "numberOfBytes": "32",
        "value": "t_uint256"
      },
      "t_string_storage": {
        "encoding": "bytes",
        "label": "string",
        "numberOfBytes": "32"
      },
      "t_struct(InvoiceCore)21200_storage": {
        "encoding": "inplace",
        "label": "struct IInvoice.InvoiceCore",
        "members": [
          {
            "astId": 21190,
            "contract": "contracts/Invoice.sol:Invoice",
            "label": "amount",
            "offset": 0,
            "slot": "0",
            "type": "t_uint256"
          },
          {
            "astId": 21192,
            "contract": "contracts/Invoice.sol:Invoice",
            "label": "unitOfAccount",
            "offset": 0,
            "slot": "1",
            "type": "t_address"
          },
          {
            "astId": 21194,
            "contract": "contracts/Invoice.sol:Invoice",
            "label": "expirationBlock",
            "offset": 0,
            "slot": "2",
            "type": "t_uint256"
          },
          {
            "astId": 21196,
            "contract": "contracts/Invoice.sol:Invoice",
            "label": "description",
            "offset": 0,
            "slot": "3",
            "type": "t_string_storage"
          },
          {
            "astId": 21199,
            "contract": "contracts/Invoice.sol:Invoice",
            "label": "whitelist",
            "offset": 0,
            "slot": "4",
            "type": "t_array(t_address)dyn_storage"
          }
        ],
        "numberOfBytes": "160"
      },
      "t_struct(InvoiceInfo)21212_storage": {
        "encoding": "inplace",
        "label": "struct IInvoice.InvoiceInfo",
        "members": [
          {
            "astId": 21203,
            "contract": "contracts/Invoice.sol:Invoice",
            "label": "core",
            "offset": 0,
            "slot": "0",
            "type": "t_struct(InvoiceCore)21200_storage"
          },
          {
            "astId": 21205,
            "contract": "contracts/Invoice.sol:Invoice",
            "label": "invoiceId",
            "offset": 0,
            "slot": "5",
            "type": "t_uint256"
          },
          {
            "astId": 21207,
            "contract": "contracts/Invoice.sol:Invoice",
            "label": "createdBy",
            "offset": 0,
            "slot": "6",
            "type": "t_address"
          },
          {
            "astId": 21209,
            "contract": "contracts/Invoice.sol:Invoice",
            "label": "isPaid",
            "offset": 20,
            "slot": "6",
            "type": "t_bool"
          },
          {
            "astId": 21211,
            "contract": "contracts/Invoice.sol:Invoice",
            "label": "isCanceled",
            "offset": 21,
            "slot": "6",
            "type": "t_bool"
          }
        ],
        "numberOfBytes": "224"
      },
      "t_uint256": {
        "encoding": "inplace",
        "label": "uint256",
        "numberOfBytes": "32"
      },
      "t_uint8": {
        "encoding": "inplace",
        "label": "uint8",
        "numberOfBytes": "1"
      }
    }
  }
}