{
  "address": "0x9231fAdfFd89A7ca476866FA183ce459f9BA5693",
  "abi": [
    {
      "inputs": [],
      "stateMutability": "nonpayable",
      "type": "constructor"
    },
    {
      "anonymous": false,
      "inputs": [
        {
          "indexed": false,
          "internalType": "uint256",
          "name": "proposalThreshold_",
          "type": "uint256"
        },
        {
          "indexed": false,
          "internalType": "uint256",
          "name": "quorumThreshold_",
          "type": "uint256"
        },
        {
          "indexed": false,
          "internalType": "uint256",
          "name": "decisionThreshold_",
          "type": "uint256"
        },
        {
          "indexed": false,
          "internalType": "uint256",
          "name": "votingDuration_",
          "type": "uint256"
        },
        {
          "indexed": false,
          "internalType": "uint256",
          "name": "transferValueForDelay_",
          "type": "uint256"
        },
        {
          "indexed": false,
          "internalType": "uint256[4]",
          "name": "executionDelays_",
          "type": "uint256[4]"
        },
        {
          "indexed": false,
          "internalType": "uint256",
          "name": "votingStartDelay_",
          "type": "uint256"
        }
      ],
      "name": "GovernanceSettingsSet",
      "type": "event"
    },
    {
      "anonymous": false,
      "inputs": [
        {
          "indexed": false,
          "internalType": "uint8",
          "name": "version",
          "type": "uint8"
        }
      ],
      "name": "Initialized",
      "type": "event"
    },
    {
      "anonymous": false,
      "inputs": [
        {
          "indexed": true,
          "internalType": "address",
          "name": "previousOwner",
          "type": "address"
        },
        {
          "indexed": true,
          "internalType": "address",
          "name": "newOwner",
          "type": "address"
        }
      ],
      "name": "OwnershipTransferred",
      "type": "event"
    },
    {
      "anonymous": false,
      "inputs": [
        {
          "indexed": false,
          "internalType": "address",
          "name": "account",
          "type": "address"
        }
      ],
      "name": "Paused",
      "type": "event"
    },
    {
      "anonymous": false,
      "inputs": [
        {
          "indexed": false,
          "internalType": "uint256",
          "name": "proposalId",
          "type": "uint256"
        }
      ],
      "name": "ProposalCancelled",
      "type": "event"
    },
    {
      "anonymous": false,
      "inputs": [
        {
          "indexed": false,
          "internalType": "uint256",
          "name": "proposalId",
          "type": "uint256"
        },
        {
          "components": [
            {
              "internalType": "address[]",
              "name": "targets",
              "type": "address[]"
            },
            {
              "internalType": "uint256[]",
              "name": "values",
              "type": "uint256[]"
            },
            {
              "internalType": "bytes[]",
              "name": "callDatas",
              "type": "bytes[]"
            },
            {
              "internalType": "uint256",
              "name": "quorumThreshold",
              "type": "uint256"
            },
            {
              "internalType": "uint256",
              "name": "decisionThreshold",
              "type": "uint256"
            },
            {
              "internalType": "uint256",
              "name": "executionDelay",
              "type": "uint256"
            }
          ],
          "indexed": false,
          "internalType": "struct IGovernor.ProposalCoreData",
          "name": "core",
          "type": "tuple"
        },
        {
          "components": [
            {
              "internalType": "enum IRecordsRegistry.EventType",
              "name": "proposalType",
              "type": "uint8"
            },
            {
              "internalType": "string",
              "name": "description",
              "type": "string"
            },
            {
              "internalType": "string",
              "name": "metaHash",
              "type": "string"
            }
          ],
          "indexed": false,
          "internalType": "struct IGovernor.ProposalMetaData",
          "name": "meta",
          "type": "tuple"
        }
      ],
      "name": "ProposalCreated",
      "type": "event"
    },
    {
      "anonymous": false,
      "inputs": [
        {
          "indexed": false,
          "internalType": "uint256",
          "name": "proposalId",
          "type": "uint256"
        }
      ],
      "name": "ProposalExecuted",
      "type": "event"
    },
    {
      "anonymous": false,
      "inputs": [
        {
          "indexed": false,
          "internalType": "address",
          "name": "account",
          "type": "address"
        }
      ],
      "name": "Unpaused",
      "type": "event"
    },
    {
      "anonymous": false,
      "inputs": [
        {
          "indexed": false,
          "internalType": "address",
          "name": "voter",
          "type": "address"
        },
        {
          "indexed": false,
          "internalType": "uint256",
          "name": "proposalId",
          "type": "uint256"
        },
        {
          "indexed": false,
          "internalType": "uint256",
          "name": "votes",
          "type": "uint256"
        },
        {
          "indexed": false,
          "internalType": "enum Governor.Ballot",
          "name": "ballot",
          "type": "uint8"
        }
      ],
      "name": "VoteCast",
      "type": "event"
    },
    {
      "inputs": [],
      "name": "OAurl",
      "outputs": [
        {
          "internalType": "string",
          "name": "",
          "type": "string"
        }
      ],
      "stateMutability": "view",
      "type": "function"
    },
    {
      "inputs": [
        {
          "internalType": "uint256",
          "name": "proposalId",
          "type": "uint256"
        }
      ],
      "name": "availableVotesForProposal",
      "outputs": [
        {
          "internalType": "uint256",
          "name": "",
          "type": "uint256"
        }
      ],
      "stateMutability": "view",
      "type": "function"
    },
    {
      "inputs": [
        {
          "internalType": "address",
          "name": "",
          "type": "address"
        },
        {
          "internalType": "uint256",
          "name": "",
          "type": "uint256"
        }
      ],
      "name": "ballots",
      "outputs": [
        {
          "internalType": "enum Governor.Ballot",
          "name": "",
          "type": "uint8"
        }
      ],
      "stateMutability": "view",
      "type": "function"
    },
    {
      "inputs": [
        {
          "internalType": "uint256",
          "name": "proposalId",
          "type": "uint256"
        }
      ],
      "name": "cancelProposal",
      "outputs": [],
      "stateMutability": "nonpayable",
      "type": "function"
    },
    {
      "inputs": [
        {
          "internalType": "uint256",
          "name": "proposalId",
          "type": "uint256"
        },
        {
          "internalType": "bool",
          "name": "support",
          "type": "bool"
        }
      ],
      "name": "castVote",
      "outputs": [],
      "stateMutability": "nonpayable",
      "type": "function"
    },
    {
      "inputs": [],
      "name": "companyInfo",
      "outputs": [
        {
          "internalType": "uint256",
          "name": "jurisdiction",
          "type": "uint256"
        },
        {
          "internalType": "uint256",
          "name": "entityType",
          "type": "uint256"
        },
        {
          "internalType": "string",
          "name": "ein",
          "type": "string"
        },
        {
          "internalType": "string",
          "name": "dateOfIncorporation",
          "type": "string"
        },
        {
          "internalType": "uint256",
          "name": "fee",
          "type": "uint256"
        }
      ],
      "stateMutability": "view",
      "type": "function"
    },
    {
      "inputs": [
        {
          "internalType": "address",
          "name": "target",
          "type": "address"
        },
        {
          "internalType": "uint256",
          "name": "value",
          "type": "uint256"
        },
        {
          "internalType": "bytes",
          "name": "data",
          "type": "bytes"
        }
      ],
      "name": "customTxByOwner",
      "outputs": [],
      "stateMutability": "nonpayable",
      "type": "function"
    },
    {
      "inputs": [],
      "name": "decisionThreshold",
      "outputs": [
        {
          "internalType": "uint256",
          "name": "",
          "type": "uint256"
        }
      ],
      "stateMutability": "view",
      "type": "function"
    },
    {
      "inputs": [
        {
          "internalType": "uint256",
          "name": "proposalId",
          "type": "uint256"
        }
      ],
      "name": "executeProposal",
      "outputs": [],
      "stateMutability": "nonpayable",
      "type": "function"
    },
    {
      "inputs": [
        {
          "internalType": "enum IRecordsRegistry.EventType",
          "name": "",
          "type": "uint8"
        }
      ],
      "name": "executionDelays",
      "outputs": [
        {
          "internalType": "uint256",
          "name": "",
          "type": "uint256"
        }
      ],
      "stateMutability": "view",
      "type": "function"
    },
    {
      "inputs": [
        {
          "internalType": "address",
          "name": "account",
          "type": "address"
        },
        {
          "internalType": "uint256",
          "name": "proposalId",
          "type": "uint256"
        }
      ],
      "name": "getBallot",
      "outputs": [
        {
          "internalType": "enum Governor.Ballot",
          "name": "ballot",
          "type": "uint8"
        },
        {
          "internalType": "uint256",
          "name": "votes",
          "type": "uint256"
        }
      ],
      "stateMutability": "view",
      "type": "function"
    },
    {
      "inputs": [],
      "name": "getGovernanceToken",
      "outputs": [
        {
          "internalType": "contract IToken",
          "name": "",
          "type": "address"
        }
      ],
      "stateMutability": "view",
      "type": "function"
    },
    {
      "inputs": [],
      "name": "getPoolExecutor",
      "outputs": [
        {
          "internalType": "address[]",
          "name": "",
          "type": "address[]"
        }
      ],
      "stateMutability": "view",
      "type": "function"
    },
    {
      "inputs": [],
      "name": "getPoolSecretary",
      "outputs": [
        {
          "internalType": "address[]",
          "name": "",
          "type": "address[]"
        }
      ],
      "stateMutability": "view",
      "type": "function"
    },
    {
      "inputs": [
        {
          "internalType": "enum IToken.TokenType",
          "name": "tokenType",
          "type": "uint8"
        }
      ],
      "name": "getTokens",
      "outputs": [
        {
          "internalType": "address[]",
          "name": "",
          "type": "address[]"
        }
      ],
      "stateMutability": "view",
      "type": "function"
    },
    {
      "inputs": [
        {
          "components": [
            {
              "internalType": "uint256",
              "name": "jurisdiction",
              "type": "uint256"
            },
            {
              "internalType": "uint256",
              "name": "entityType",
              "type": "uint256"
            },
            {
              "internalType": "string",
              "name": "ein",
              "type": "string"
            },
            {
              "internalType": "string",
              "name": "dateOfIncorporation",
              "type": "string"
            },
            {
              "internalType": "uint256",
              "name": "fee",
              "type": "uint256"
            }
          ],
          "internalType": "struct ICompaniesRegistry.CompanyInfo",
          "name": "companyInfo_",
          "type": "tuple"
        }
      ],
      "name": "initialize",
      "outputs": [],
      "stateMutability": "nonpayable",
      "type": "function"
    },
    {
      "inputs": [],
      "name": "isDAO",
      "outputs": [
        {
          "internalType": "bool",
          "name": "",
          "type": "bool"
        }
      ],
      "stateMutability": "view",
      "type": "function"
    },
    {
      "inputs": [
        {
          "internalType": "uint256",
          "name": "type_",
          "type": "uint256"
        }
      ],
      "name": "isLastProposalIdByTypeActive",
      "outputs": [
        {
          "internalType": "bool",
          "name": "",
          "type": "bool"
        }
      ],
      "stateMutability": "view",
      "type": "function"
    },
    {
      "inputs": [
        {
          "internalType": "address",
          "name": "account",
          "type": "address"
        }
      ],
      "name": "isPoolExecutor",
      "outputs": [
        {
          "internalType": "bool",
          "name": "",
          "type": "bool"
        }
      ],
      "stateMutability": "view",
      "type": "function"
    },
    {
      "inputs": [
        {
          "internalType": "address",
          "name": "account",
          "type": "address"
        }
      ],
      "name": "isPoolSecretary",
      "outputs": [
        {
          "internalType": "bool",
          "name": "",
          "type": "bool"
        }
      ],
      "stateMutability": "view",
      "type": "function"
    },
    {
      "inputs": [
        {
          "internalType": "address",
          "name": "account",
          "type": "address"
        }
      ],
      "name": "isValidExecutor",
      "outputs": [
        {
          "internalType": "bool",
          "name": "",
          "type": "bool"
        }
      ],
      "stateMutability": "view",
      "type": "function"
    },
    {
      "inputs": [
        {
          "internalType": "address",
          "name": "account",
          "type": "address"
        }
      ],
      "name": "isValidProposer",
      "outputs": [
        {
          "internalType": "bool",
          "name": "",
          "type": "bool"
        }
      ],
      "stateMutability": "view",
      "type": "function"
    },
    {
      "inputs": [],
      "name": "lastExecutedProposalId",
      "outputs": [
        {
          "internalType": "uint256",
          "name": "",
          "type": "uint256"
        }
      ],
      "stateMutability": "view",
      "type": "function"
    },
    {
      "inputs": [],
      "name": "lastProposalId",
      "outputs": [
        {
          "internalType": "uint256",
          "name": "",
          "type": "uint256"
        }
      ],
      "stateMutability": "view",
      "type": "function"
    },
    {
      "inputs": [
        {
          "internalType": "uint256",
          "name": "",
          "type": "uint256"
        }
      ],
      "name": "lastProposalIdByType",
      "outputs": [
        {
          "internalType": "uint256",
          "name": "",
          "type": "uint256"
        }
      ],
      "stateMutability": "view",
      "type": "function"
    },
    {
      "inputs": [
        {
          "internalType": "address",
          "name": "",
          "type": "address"
        }
      ],
      "name": "lastProposalIdForAddress",
      "outputs": [
        {
          "internalType": "uint256",
          "name": "",
          "type": "uint256"
        }
      ],
      "stateMutability": "view",
      "type": "function"
    },
    {
      "inputs": [],
      "name": "owner",
      "outputs": [
        {
          "internalType": "address",
          "name": "",
          "type": "address"
        }
      ],
      "stateMutability": "view",
      "type": "function"
    },
    {
      "inputs": [],
      "name": "paused",
      "outputs": [
        {
          "internalType": "bool",
          "name": "",
          "type": "bool"
        }
      ],
      "stateMutability": "view",
      "type": "function"
    },
    {
      "inputs": [
        {
          "internalType": "uint256",
          "name": "",
          "type": "uint256"
        }
      ],
      "name": "proposalCreatedAt",
      "outputs": [
        {
          "internalType": "uint256",
          "name": "",
          "type": "uint256"
        }
      ],
      "stateMutability": "view",
      "type": "function"
    },
    {
      "inputs": [
        {
          "internalType": "uint256",
          "name": "",
          "type": "uint256"
        }
      ],
      "name": "proposalIdToTGE",
      "outputs": [
        {
          "internalType": "address",
          "name": "",
          "type": "address"
        }
      ],
      "stateMutability": "view",
      "type": "function"
    },
    {
      "inputs": [
        {
          "internalType": "uint256",
          "name": "proposalId",
          "type": "uint256"
        }
      ],
      "name": "proposalState",
      "outputs": [
        {
          "internalType": "enum Governor.ProposalState",
          "name": "",
          "type": "uint8"
        }
      ],
      "stateMutability": "view",
      "type": "function"
    },
    {
      "inputs": [],
      "name": "proposalThreshold",
      "outputs": [
        {
          "internalType": "uint256",
          "name": "",
          "type": "uint256"
        }
      ],
      "stateMutability": "view",
      "type": "function"
    },
    {
      "inputs": [
        {
          "internalType": "uint256",
          "name": "",
          "type": "uint256"
        }
      ],
      "name": "proposals",
      "outputs": [
        {
          "components": [
            {
              "internalType": "address[]",
              "name": "targets",
              "type": "address[]"
            },
            {
              "internalType": "uint256[]",
              "name": "values",
              "type": "uint256[]"
            },
            {
              "internalType": "bytes[]",
              "name": "callDatas",
              "type": "bytes[]"
            },
            {
              "internalType": "uint256",
              "name": "quorumThreshold",
              "type": "uint256"
            },
            {
              "internalType": "uint256",
              "name": "decisionThreshold",
              "type": "uint256"
            },
            {
              "internalType": "uint256",
              "name": "executionDelay",
              "type": "uint256"
            }
          ],
          "internalType": "struct IGovernor.ProposalCoreData",
          "name": "core",
          "type": "tuple"
        },
        {
          "components": [
            {
              "internalType": "uint256",
              "name": "startBlock",
              "type": "uint256"
            },
            {
              "internalType": "uint256",
              "name": "endBlock",
              "type": "uint256"
            },
            {
              "internalType": "uint256",
              "name": "availableVotes",
              "type": "uint256"
            },
            {
              "internalType": "uint256",
              "name": "forVotes",
              "type": "uint256"
            },
            {
              "internalType": "uint256",
              "name": "againstVotes",
              "type": "uint256"
            },
            {
              "internalType": "enum Governor.ProposalState",
              "name": "executionState",
              "type": "uint8"
            }
          ],
          "internalType": "struct Governor.ProposalVotingData",
          "name": "vote",
          "type": "tuple"
        },
        {
          "components": [
            {
              "internalType": "enum IRecordsRegistry.EventType",
              "name": "proposalType",
              "type": "uint8"
            },
            {
              "internalType": "string",
              "name": "description",
              "type": "string"
            },
            {
              "internalType": "string",
              "name": "metaHash",
              "type": "string"
            }
          ],
          "internalType": "struct IGovernor.ProposalMetaData",
          "name": "meta",
          "type": "tuple"
        }
      ],
      "stateMutability": "view",
      "type": "function"
    },
    {
      "inputs": [
        {
          "internalType": "address",
          "name": "proposer",
          "type": "address"
        },
        {
          "internalType": "uint256",
          "name": "proposeType",
          "type": "uint256"
        },
        {
          "components": [
            {
              "internalType": "address[]",
              "name": "targets",
              "type": "address[]"
            },
            {
              "internalType": "uint256[]",
              "name": "values",
              "type": "uint256[]"
            },
            {
              "internalType": "bytes[]",
              "name": "callDatas",
              "type": "bytes[]"
            },
            {
              "internalType": "uint256",
              "name": "quorumThreshold",
              "type": "uint256"
            },
            {
              "internalType": "uint256",
              "name": "decisionThreshold",
              "type": "uint256"
            },
            {
              "internalType": "uint256",
              "name": "executionDelay",
              "type": "uint256"
            }
          ],
          "internalType": "struct IGovernor.ProposalCoreData",
          "name": "core",
          "type": "tuple"
        },
        {
          "components": [
            {
              "internalType": "enum IRecordsRegistry.EventType",
              "name": "proposalType",
              "type": "uint8"
            },
            {
              "internalType": "string",
              "name": "description",
              "type": "string"
            },
            {
              "internalType": "string",
              "name": "metaHash",
              "type": "string"
            }
          ],
          "internalType": "struct IGovernor.ProposalMetaData",
          "name": "meta",
          "type": "tuple"
        }
      ],
      "name": "propose",
      "outputs": [
        {
          "internalType": "uint256",
          "name": "proposalId",
          "type": "uint256"
        }
      ],
      "stateMutability": "nonpayable",
      "type": "function"
    },
    {
      "inputs": [],
      "name": "quorumThreshold",
      "outputs": [
        {
          "internalType": "uint256",
          "name": "",
          "type": "uint256"
        }
      ],
      "stateMutability": "view",
      "type": "function"
    },
    {
      "inputs": [],
      "name": "renounceOwnership",
      "outputs": [],
      "stateMutability": "nonpayable",
      "type": "function"
    },
    {
      "inputs": [],
      "name": "service",
      "outputs": [
        {
          "internalType": "contract IService",
          "name": "",
          "type": "address"
        }
      ],
      "stateMutability": "view",
      "type": "function"
    },
    {
      "inputs": [
        {
          "internalType": "uint256",
          "name": "_jurisdiction",
          "type": "uint256"
        },
        {
          "internalType": "uint256",
          "name": "_entityType",
          "type": "uint256"
        },
        {
          "internalType": "string",
          "name": "_ein",
          "type": "string"
        },
        {
          "internalType": "string",
          "name": "_dateOfIncorporation",
          "type": "string"
        },
        {
          "internalType": "string",
          "name": "_OAuri",
          "type": "string"
        }
      ],
      "name": "setCompanyInfo",
      "outputs": [],
      "stateMutability": "nonpayable",
      "type": "function"
    },
    {
      "inputs": [
        {
          "components": [
            {
              "internalType": "uint256",
              "name": "proposalThreshold",
              "type": "uint256"
            },
            {
              "internalType": "uint256",
              "name": "quorumThreshold",
              "type": "uint256"
            },
            {
              "internalType": "uint256",
              "name": "decisionThreshold",
              "type": "uint256"
            },
            {
              "internalType": "uint256",
              "name": "votingDuration",
              "type": "uint256"
            },
            {
              "internalType": "uint256",
              "name": "transferValueForDelay",
              "type": "uint256"
            },
            {
              "internalType": "uint256[4]",
              "name": "executionDelays",
              "type": "uint256[4]"
            },
            {
              "internalType": "uint256",
              "name": "votingStartDelay",
              "type": "uint256"
            }
          ],
          "internalType": "struct IGovernanceSettings.NewGovernanceSettings",
          "name": "settings",
          "type": "tuple"
        }
      ],
      "name": "setGovernanceSettings",
      "outputs": [],
      "stateMutability": "nonpayable",
      "type": "function"
    },
    {
      "inputs": [
        {
          "internalType": "address",
          "name": "newowner",
          "type": "address"
        },
        {
          "internalType": "string",
          "name": "trademark_",
          "type": "string"
        },
        {
          "components": [
            {
              "internalType": "uint256",
              "name": "proposalThreshold",
              "type": "uint256"
            },
            {
              "internalType": "uint256",
              "name": "quorumThreshold",
              "type": "uint256"
            },
            {
              "internalType": "uint256",
              "name": "decisionThreshold",
              "type": "uint256"
            },
            {
              "internalType": "uint256",
              "name": "votingDuration",
              "type": "uint256"
            },
            {
              "internalType": "uint256",
              "name": "transferValueForDelay",
              "type": "uint256"
            },
            {
              "internalType": "uint256[4]",
              "name": "executionDelays",
              "type": "uint256[4]"
            },
            {
              "internalType": "uint256",
              "name": "votingStartDelay",
              "type": "uint256"
            }
          ],
          "internalType": "struct IGovernanceSettings.NewGovernanceSettings",
          "name": "governanceSettings_",
          "type": "tuple"
        }
      ],
      "name": "setNewOwnerWithSettings",
      "outputs": [],
      "stateMutability": "nonpayable",
      "type": "function"
    },
    {
      "inputs": [
        {
          "internalType": "address",
          "name": "tge",
          "type": "address"
        }
      ],
      "name": "setProposalIdToTGE",
      "outputs": [],
      "stateMutability": "nonpayable",
      "type": "function"
    },
    {
      "inputs": [
        {
          "components": [
            {
              "internalType": "uint256",
              "name": "proposalThreshold",
              "type": "uint256"
            },
            {
              "internalType": "uint256",
              "name": "quorumThreshold",
              "type": "uint256"
            },
            {
              "internalType": "uint256",
              "name": "decisionThreshold",
              "type": "uint256"
            },
            {
              "internalType": "uint256",
              "name": "votingDuration",
              "type": "uint256"
            },
            {
              "internalType": "uint256",
              "name": "transferValueForDelay",
              "type": "uint256"
            },
            {
              "internalType": "uint256[4]",
              "name": "executionDelays",
              "type": "uint256[4]"
            },
            {
              "internalType": "uint256",
              "name": "votingStartDelay",
              "type": "uint256"
            }
          ],
          "internalType": "struct IGovernanceSettings.NewGovernanceSettings",
          "name": "governanceSettings_",
          "type": "tuple"
        },
        {
          "internalType": "address[]",
          "name": "secretary",
          "type": "address[]"
        },
        {
          "internalType": "address[]",
          "name": "executor",
          "type": "address[]"
        }
      ],
      "name": "setSettings",
      "outputs": [],
      "stateMutability": "nonpayable",
      "type": "function"
    },
    {
      "inputs": [
        {
          "internalType": "address",
          "name": "token_",
          "type": "address"
        },
        {
          "internalType": "enum IToken.TokenType",
          "name": "tokenType_",
          "type": "uint8"
        }
      ],
      "name": "setToken",
      "outputs": [],
      "stateMutability": "nonpayable",
      "type": "function"
    },
    {
      "inputs": [
        {
          "internalType": "contract IToken",
          "name": "token",
          "type": "address"
        }
      ],
      "name": "tokenExists",
      "outputs": [
        {
          "internalType": "bool",
          "name": "",
          "type": "bool"
        }
      ],
      "stateMutability": "view",
      "type": "function"
    },
    {
      "inputs": [
        {
          "internalType": "address",
          "name": "",
          "type": "address"
        }
      ],
      "name": "tokenTypeByAddress",
      "outputs": [
        {
          "internalType": "enum IToken.TokenType",
          "name": "",
          "type": "uint8"
        }
      ],
      "stateMutability": "view",
      "type": "function"
    },
    {
      "inputs": [
        {
          "internalType": "enum IToken.TokenType",
          "name": "",
          "type": "uint8"
        }
      ],
      "name": "tokens",
      "outputs": [
        {
          "internalType": "address",
          "name": "",
          "type": "address"
        }
      ],
      "stateMutability": "view",
      "type": "function"
    },
    {
      "inputs": [
        {
          "internalType": "enum IToken.TokenType",
          "name": "",
          "type": "uint8"
        },
        {
          "internalType": "uint256",
          "name": "",
          "type": "uint256"
        }
      ],
      "name": "tokensFullList",
      "outputs": [
        {
          "internalType": "address",
          "name": "",
          "type": "address"
        }
      ],
      "stateMutability": "view",
      "type": "function"
    },
    {
      "inputs": [],
      "name": "trademark",
      "outputs": [
        {
          "internalType": "string",
          "name": "",
          "type": "string"
        }
      ],
      "stateMutability": "view",
      "type": "function"
    },
    {
      "inputs": [
        {
          "internalType": "address",
          "name": "to",
          "type": "address"
        },
        {
          "internalType": "uint256",
          "name": "amount",
          "type": "uint256"
        },
        {
          "internalType": "address",
          "name": "unitOfAccount",
          "type": "address"
        }
      ],
      "name": "transferByOwner",
      "outputs": [],
      "stateMutability": "nonpayable",
      "type": "function"
    },
    {
      "inputs": [
        {
          "internalType": "address",
          "name": "newOwner",
          "type": "address"
        }
      ],
      "name": "transferOwnership",
      "outputs": [],
      "stateMutability": "nonpayable",
      "type": "function"
    },
    {
      "inputs": [],
      "name": "transferValueForDelay",
      "outputs": [
        {
          "internalType": "uint256",
          "name": "",
          "type": "uint256"
        }
      ],
      "stateMutability": "view",
      "type": "function"
    },
    {
      "inputs": [
        {
          "components": [
            {
              "internalType": "uint256",
              "name": "proposalThreshold",
              "type": "uint256"
            },
            {
              "internalType": "uint256",
              "name": "quorumThreshold",
              "type": "uint256"
            },
            {
              "internalType": "uint256",
              "name": "decisionThreshold",
              "type": "uint256"
            },
            {
              "internalType": "uint256",
              "name": "votingDuration",
              "type": "uint256"
            },
            {
              "internalType": "uint256",
              "name": "transferValueForDelay",
              "type": "uint256"
            },
            {
              "internalType": "uint256[4]",
              "name": "executionDelays",
              "type": "uint256[4]"
            },
            {
              "internalType": "uint256",
              "name": "votingStartDelay",
              "type": "uint256"
            }
          ],
          "internalType": "struct IGovernanceSettings.NewGovernanceSettings",
          "name": "settings",
          "type": "tuple"
        }
      ],
      "name": "validateGovernanceSettings",
      "outputs": [],
      "stateMutability": "pure",
      "type": "function"
    },
    {
      "inputs": [],
      "name": "votingDuration",
      "outputs": [
        {
          "internalType": "uint256",
          "name": "",
          "type": "uint256"
        }
      ],
      "stateMutability": "view",
      "type": "function"
    },
    {
      "inputs": [],
      "name": "votingStartDelay",
      "outputs": [
        {
          "internalType": "uint256",
          "name": "",
          "type": "uint256"
        }
      ],
      "stateMutability": "view",
      "type": "function"
    },
    {
      "stateMutability": "payable",
      "type": "receive"
    }
  ],
  "transactionHash": "0x1f3d85cd671cd813ceb83bf35adbb208239252531463ef46154c0b08e3104bc0",
  "args": [],
  "numDeployments": 5,
  "solcInputHash": "8bb9256415649e0fc0dc5326c60d65e4",
  "bytecode": "0x60806040523480156200001157600080fd5b506200001c62000022565b620000e4565b600054610100900460ff16156200008f5760405162461bcd60e51b815260206004820152602760248201527f496e697469616c697a61626c653a20636f6e747261637420697320696e697469604482015266616c697a696e6760c81b606482015260840160405180910390fd5b60005460ff9081161015620000e2576000805460ff191660ff9081179091556040519081527f7f26b83ff96e1f2b6a682f133852f6798a09c465da95921460cefb38474024989060200160405180910390a15b565b615fee80620000f46000396000f3fe6080604052600436106103395760003560e01c80638caf613c116101ab578063cb48495c116100f7578063e47bfee811610095578063f2fde38b1161006f578063f2fde38b14610a0a578063f7ec6f1014610a2a578063f8127cbc14610a4a578063fe90266714610a6057600080fd5b8063e47bfee8146109c0578063e8533e29146109d5578063eab7dfc6146109f557600080fd5b8063d26331d4116100d1578063d26331d414610924578063d598d4c914610951578063da4256f514610972578063e0a8f6f5146109a057600080fd5b8063cb48495c1461089c578063cbd294e4146108d3578063ccf884611461090457600080fd5b8063974f855411610164578063b58131b01161013e578063b58131b014610823578063c249e86214610839578063c4767b9514610866578063c59512911461088657600080fd5b8063974f8554146107c0578063aa44b06a146107ee578063b33f78ca1461080357600080fd5b80638caf613c146107155780638da5cb5b146107355780638fec3ab41461074a5780639198c3931461076a578063964765b01461078a57806396a72441146107a057600080fd5b80633157293f1161028557806354b598ec11610223578063715018a6116101fd578063715018a61461069d57806374cb3041146106b25780637b7a91dd146106c85780638856c0d6146106de57600080fd5b806354b598ec1461060f5780635c975abb146106575780635f9103b21461066f57600080fd5b806336f281a91161025f57806336f281a9146105865780633f8a037d146105ac578063450a747a146105c15780634f706c8b146105ef57600080fd5b80633157293f14610526578063333055a014610546578063365dc7ff1461056657600080fd5b806316525f1d116102f25780631a9a16c5116102cc5780631a9a16c5146104995780631cc5708b146104b95780631e91254b146104f15780632fb92cf41461050657600080fd5b806316525f1d14610433578063165610761461044a578063198d12c61461046c57600080fd5b8063013cf08b146103455780630413a7a21461037d57806306b14fb4146103ab5780630d61b519146103db578063132002fc146103fd57806315373e3d1461041357600080fd5b3661034057005b600080fd5b34801561035157600080fd5b50610365610360366004614e70565b610a80565b60405161037493929190615092565b60405180910390f35b34801561038957600080fd5b5061039d610398366004614e70565b610e29565b604051908152602001610374565b3480156103b757600080fd5b506103cb6103c636600461511b565b610e8f565b6040519015158152602001610374565b3480156103e757600080fd5b506103fb6103f6366004614e70565b610fae565b005b34801561040957600080fd5b5061039d60cf5481565b34801561041f57600080fd5b506103fb61042e366004615146565b611152565b34801561043f57600080fd5b5061039d6101445481565b34801561045657600080fd5b5061045f6112a4565b6040516103749190615176565b34801561047857600080fd5b5061048c610487366004615196565b611333565b60405161037491906151b3565b3480156104a557600080fd5b506103fb6104b4366004615200565b6113cb565b3480156104c557600080fd5b506104d96104d4366004615288565b611465565b6040516001600160a01b039091168152602001610374565b3480156104fd57600080fd5b5061045f61149e565b34801561051257600080fd5b506103fb61052136600461511b565b6114ac565b34801561053257600080fd5b506103cb610541366004614e70565b6115b2565b34801561055257600080fd5b506103cb61056136600461511b565b6115ed565b34801561057257600080fd5b506103fb6105813660046152b4565b61160e565b34801561059257600080fd5b5061059b611817565b6040516103749594939291906152f6565b3480156105b857600080fd5b506104d9611949565b3480156105cd57600080fd5b506105e16105dc36600461533a565b611982565b604051610374929190615368565b3480156105fb57600080fd5b506103fb61060a3660046154ca565b611a3d565b34801561061b57600080fd5b5061064a61062a36600461533a565b60ca60209081526000928352604080842090915290825290205460ff1681565b6040516103749190615565565b34801561066357600080fd5b5060975460ff166103cb565b34801561067b57600080fd5b5061039d61068a366004614e70565b61013f6020526000908152604090205481565b3480156106a957600080fd5b506103fb611b4a565b3480156106be57600080fd5b5061039d60cb5481565b3480156106d457600080fd5b5061039d60cd5481565b3480156106ea57600080fd5b506104d96106f9366004615196565b61013d602052600090815260409020546001600160a01b031681565b34801561072157600080fd5b506103cb61073036600461511b565b611b5e565b34801561074157600080fd5b506104d9611b7f565b34801561075657600080fd5b506103fb61076536600461561f565b611b98565b34801561077657600080fd5b506103fb61078536600461561f565b611ba4565b34801561079657600080fd5b5061039d60ce5481565b3480156107ac57600080fd5b506103fb6107bb3660046156d3565b611bf1565b3480156107cc57600080fd5b5061039d6107db366004614e70565b6101056020526000908152604090205481565b3480156107fa57600080fd5b5061048c612039565b34801561080f57600080fd5b506103cb61081e36600461511b565b612084565b34801561082f57600080fd5b5061039d60cc5481565b34801561084557600080fd5b5061039d610854366004615759565b60d16020526000908152604090205481565b34801561087257600080fd5b506103fb610881366004615774565b6120c1565b34801561089257600080fd5b5061039d60d05481565b3480156108a857600080fd5b506104d96108b7366004614e70565b610145602052600090815260409020546001600160a01b031681565b3480156108df57600080fd5b5061064a6108ee36600461511b565b6101416020526000908152604090205460ff1681565b34801561091057600080fd5b506103fb61091f3660046157a2565b6124f5565b34801561093057600080fd5b5061094461093f366004614e70565b61266c565b6040516103749190615853565b34801561095d57600080fd5b50610104546104d9906001600160a01b031681565b34801561097e57600080fd5b5061039d61098d36600461511b565b61013e6020526000908152604090205481565b3480156109ac57600080fd5b506103fb6109bb366004614e70565b612b8c565b3480156109cc57600080fd5b506103cb612be5565b3480156109e157600080fd5b506103cb6109f036600461511b565b612c6d565b348015610a0157600080fd5b5061048c612d33565b348015610a1657600080fd5b506103fb610a2536600461511b565b612d53565b348015610a3657600080fd5b5061039d610a453660046159ea565b612dc9565b348015610a5657600080fd5b5061039d60d25481565b348015610a6c57600080fd5b506103fb610a7b366004615aff565b61306f565b60c9602090815260009182526040918290208251815460e09381028201840190945260c0810184815291939092849284929091849190840182828015610aef57602002820191906000526020600020905b81546001600160a01b03168152600190910190602001808311610ad1575b5050505050815260200160018201805480602002602001604051908101604052809291908181526020018280548015610b4757602002820191906000526020600020905b815481526020019060010190808311610b33575b5050505050815260200160028201805480602002602001604051908101604052809291908181526020016000905b82821015610c21578382906000526020600020018054610b9490615b60565b80601f0160208091040260200160405190810160405280929190818152602001828054610bc090615b60565b8015610c0d5780601f10610be257610100808354040283529160200191610c0d565b820191906000526020600020905b815481529060010190602001808311610bf057829003601f168201915b505050505081526020019060010190610b75565b505050508152602001600382015481526020016004820154815260200160058201548152505090806006016040518060c001604052908160008201548152602001600182015481526020016002820154815260200160038201548152602001600482015481526020016005820160009054906101000a900460ff166006811115610cad57610cad615010565b6006811115610cbe57610cbe615010565b9052506040805160608101909152600c83018054929392829060ff166003811115610ceb57610ceb615010565b6003811115610cfc57610cfc615010565b8152602001600182018054610d1090615b60565b80601f0160208091040260200160405190810160405280929190818152602001828054610d3c90615b60565b8015610d895780601f10610d5e57610100808354040283529160200191610d89565b820191906000526020600020905b815481529060010190602001808311610d6c57829003601f168201915b50505050508152602001600282018054610da290615b60565b80601f0160208091040260200160405190810160405280929190818152602001828054610dce90615b60565b8015610e1b5780601f10610df057610100808354040283529160200191610e1b565b820191906000526020600020905b815481529060010190602001808311610dfe57829003601f168201915b505050505081525050905083565b600081815260c960205260408120600601544390610e4990600190615bb0565b1015610e7c57600082815260c96020526040902060060154610e7690610e7190600190615bb0565b6130df565b92915050565b610e76610e71600143615bb0565b919050565b6000610e9c610146613179565b1580610eac5750610eac826115ed565b80610f995750610104546040805163c979e8a760e01b815290516001600160a01b03909216916391d1485491839163c979e8a7916004808201926020929091908290030181865afa158015610f05573d6000803e3d6000fd5b505050506040513d601f19601f82011682018060405250810190610f299190615bc3565b6040516001600160e01b031960e084901b16815260048101919091526001600160a01b03851660248201526044015b602060405180830381865afa158015610f75573d6000803e3d6000fd5b505050506040513d601f19601f82011682018060405250810190610f999190615bdc565b15610fa657506001919050565b506000919050565b610fb6613183565b610fbf33610e8f565b604051806040016040528060128152602001712727aa2fab20a624a22fa2ac22a1aaaa27a960711b815250906110115760405162461bcd60e51b81526004016110089190615176565b60405180910390fd5b50610144819055610104546110309082906001600160a01b03166131c9565b61010460009054906101000a90046001600160a01b03166001600160a01b0316637b1039996040518163ffffffff1660e01b8152600401602060405180830381865afa158015611084573d6000803e3d6000fd5b505050506040513d601f19601f820116820180604052508101906110a89190615bf9565b6001600160a01b0316634dbb83fd33306000630d61b51960e01b866040516024016110d591815260200190565b60408051601f198184030181529181526020820180516001600160e01b03166001600160e01b03199485161790525160e087901b909216825261111d94939291600401615c16565b600060405180830381600087803b15801561113757600080fd5b505af115801561114b573d6000803e3d6000fd5b5050505050565b61115a6137c9565b611162613183565b61116c8282613822565b61010460009054906101000a90046001600160a01b03166001600160a01b0316637b1039996040518163ffffffff1660e01b8152600401602060405180830381865afa1580156111c0573d6000803e3d6000fd5b505050506040513d601f19601f820116820180604052508101906111e49190615bf9565b6001600160a01b0316634dbb83fd333060006315373e3d60e01b878760405160240161121c9291909182521515602082015260400190565b60408051601f198184030181529181526020820180516001600160e01b03166001600160e01b03199485161790525160e087901b909216825261126494939291600401615c16565b600060405180830381600087803b15801561127e57600080fd5b505af1158015611292573d6000803e3d6000fd5b505050506112a06001606555565b5050565b61013780546112b290615b60565b80601f01602080910402602001604051908101604052809291908181526020018280546112de90615b60565b801561132b5780601f106113005761010080835404028352916020019161132b565b820191906000526020600020905b81548152906001019060200180831161130e57829003601f168201915b505050505081565b6060610140600083600281111561134c5761134c615010565b600281111561135d5761135d615010565b81526020019081526020016000208054806020026020016040519081016040528092919081815260200182805480156113bf57602002820191906000526020600020905b81546001600160a01b031681526001909101906020018083116113a1575b50505050509050919050565b6113d3613b13565b6113db612be5565b156040518060400160405280600681526020016549535f44414f60d01b815250906114195760405162461bcd60e51b81526004016110089190615176565b5061114b82828080601f01602080910402602001604051908101604052809392919081815260200183838082843760009201919091525050506001600160a01b03871691905085613b72565b610140602052816000526040600020818154811061148257600080fd5b6000918252602090912001546001600160a01b03169150829050565b61014880546112b290615b60565b61010460009054906101000a90046001600160a01b03166001600160a01b031663102c5c016040518163ffffffff1660e01b8152600401602060405180830381865afa158015611500573d6000803e3d6000fd5b505050506040513d601f19601f820116820180604052508101906115249190615bf9565b6001600160a01b0316336001600160a01b0316146040518060400160405280600f81526020016e4e4f545f5447455f464143544f525960881b8152509061157e5760405162461bcd60e51b81526004016110089190615176565b506101445460009081526101456020526040902080546001600160a01b0319166001600160a01b0392909216919091179055565b60006001600083815261010560205260409020546115cf9061266c565b60068111156115e0576115e0615010565b03610fa657506001919050565b60006115f7612be5565b611602576000610e76565b610e7661014683613b98565b611616613b13565b61161e612be5565b156040518060400160405280600681526020016549535f44414f60d01b8152509061165c5760405162461bcd60e51b81526004016110089190615176565b506001600160a01b03811661174d57814710156040518060400160405280600c81526020016b15d493d391d7d05353d5539560a21b815250906116b25760405162461bcd60e51b81526004016110089190615176565b506000836001600160a01b03168360405160006040518083038185875af1925050503d8060008114611700576040519150601f19603f3d011682016040523d82523d6000602084013e611705565b606091505b50509050806040518060400160405280600c81526020016b15d493d391d7d05353d5539560a21b8152509061114b5760405162461bcd60e51b81526004016110089190615176565b6040516370a0823160e01b815230600482015282906001600160a01b038316906370a0823190602401602060405180830381865afa158015611793573d6000803e3d6000fd5b505050506040513d601f19601f820116820180604052508101906117b79190615bc3565b10156040518060400160405280600c81526020016b15d493d391d7d05353d5539560a21b815250906117fc5760405162461bcd60e51b81526004016110089190615176565b506118126001600160a01b038216338585613bbd565b505050565b61013880546101395461013a80549293919261183290615b60565b80601f016020809104026020016040519081016040528092919081815260200182805461185e90615b60565b80156118ab5780601f10611880576101008083540402835291602001916118ab565b820191906000526020600020905b81548152906001019060200180831161188e57829003601f168201915b5050505050908060030180546118c090615b60565b80601f01602080910402602001604051908101604052809291908181526020018280546118ec90615b60565b80156119395780601f1061190e57610100808354040283529160200191611939565b820191906000526020600020905b81548152906001019060200180831161191c57829003601f168201915b5050505050908060040154905085565b600160005261013d6020527f629d646ec67bfbeb7c6606ef8cc3b08ea57953ef9e89bc573ebaeb509393412b546001600160a01b031690565b600081815260c96020526040812060060154819043906119a490600190615bb0565b1015611a00576001600160a01b038416600090815260ca6020908152604080832086845282528083205460c99092529091206006015460ff909116906119f79086906119f290600190615bb0565b613c1d565b91509150611a36565b6001600160a01b038416600090815260ca6020908152604080832086845290915290205460ff166119f7856119f2600143615bb0565b9250929050565b61010460009054906101000a90046001600160a01b03166001600160a01b0316637b1039996040518163ffffffff1660e01b8152600401602060405180830381865afa158015611a91573d6000803e3d6000fd5b505050506040513d601f19601f82011682018060405250810190611ab59190615bf9565b6001600160a01b0316336001600160a01b0316146040518060400160405280600c81526020016b4e4f545f524547495354525960a01b81525090611b0c5760405162461bcd60e51b81526004016110089190615176565b5061013885905561013984905561013a611b268482615c8f565b5061013b611b348382615c8f565b50610148611b428282615c8f565b505050505050565b611b52613b13565b611b5c6000613c9a565b565b6000611b68612be5565b611b73576000610e76565b610e7661014283613b98565b6000611b936033546001600160a01b031690565b905090565b611ba181613cec565b50565b60408051808201909152600c81526b24a72b20a624a22faaa9a2a960a11b6020820152333014611be75760405162461bcd60e51b81526004016110089190615176565b50611ba181613dd7565b61010460009054906101000a90046001600160a01b03166001600160a01b031663102c5c016040518163ffffffff1660e01b8152600401602060405180830381865afa158015611c45573d6000803e3d6000fd5b505050506040513d601f19601f82011682018060405250810190611c699190615bf9565b6001600160a01b0316336001600160a01b03161480611c8757503330145b6040518060400160405280600f81526020016e4e4f545f5447455f464143544f525960881b81525090611ccd5760405162461bcd60e51b81526004016110089190615176565b5061010460009054906101000a90046001600160a01b03166001600160a01b031663102c5c016040518163ffffffff1660e01b8152600401602060405180830381865afa158015611d22573d6000803e3d6000fd5b505050506040513d601f19601f82011682018060405250810190611d469190615bf9565b6001600160a01b03163303611edd576000611d5f611949565b6001600160a01b031614611edd57611d75612be5565b156040518060400160405280600681526020016549535f44414f60d01b81525090611db35760405162461bcd60e51b81526004016110089190615176565b506000611dbe611949565b6001600160a01b0316633eac99986040518163ffffffff1660e01b8152600401602060405180830381865afa158015611dfb573d6000803e3d6000fd5b505050506040513d601f19601f82011682018060405250810190611e1f9190615bf9565b6001600160a01b031663c19d93fb6040518163ffffffff1660e01b8152600401602060405180830381865afa158015611e5c573d6000803e3d6000fd5b505050506040513d601f19601f82011682018060405250810190611e809190615d4e565b6002811115611e9157611e91615010565b1415604051806040016040528060118152602001704143544956455f5447455f45584953545360781b81525090611edb5760405162461bcd60e51b81526004016110089190615176565b505b611ee683613dd7565b6000611ef3610142613ec8565b905060005b8151811015611f4257611f2f828281518110611f1657611f16615d6b565b6020026020010151610142613ed590919063ffffffff16565b5080611f3a81615d81565b915050611ef8565b5060005b8351811015611f9057611f7d848281518110611f6457611f64615d6b565b6020026020010151610142613eea90919063ffffffff16565b5080611f8881615d81565b915050611f46565b50611f9c610146613ec8565b905060005b8151811015611feb57611fd8828281518110611fbf57611fbf615d6b565b6020026020010151610146613ed590919063ffffffff16565b5080611fe381615d81565b915050611fa1565b5060005b825181101561114b5761202684828151811061200d5761200d615d6b565b6020026020010151610146613eea90919063ffffffff16565b508061203181615d81565b915050611fef565b6060612043612be5565b6120795760005b604051908082528060200260200182016040528015612073578160200160208202803683370190505b50905090565b611b93610142613ec8565b6000806001600160a01b0383166000908152610141602052604090205460ff1660028111156120b5576120b5615010565b14610fa6576001610e76565b61010460009054906101000a90046001600160a01b03166001600160a01b031663102c5c016040518163ffffffff1660e01b8152600401602060405180830381865afa158015612115573d6000803e3d6000fd5b505050506040513d601f19601f820116820180604052508101906121399190615bf9565b6001600160a01b0316336001600160a01b0316146040518060400160405280600f81526020016e4e4f545f5447455f464143544f525960881b815250906121935760405162461bcd60e51b81526004016110089190615176565b5060408051808201909152600c81526b414444524553535f5a45524f60a01b60208201526001600160a01b0383166121de5760405162461bcd60e51b81526004016110089190615176565b506121e882612084565b6112a057600181600281111561220057612200615010565b0361245d57600061220f611949565b6001600160a01b0316148061231b57506001612229611949565b6001600160a01b0316620a04ae6040518163ffffffff1660e01b8152600401600060405180830381865afa158015612265573d6000803e3d6000fd5b505050506040513d6000823e601f3d908101601f1916820160405261228d9190810190615d9a565b60008151811061229f5761229f615d6b565b60200260200101516001600160a01b031663c19d93fb6040518163ffffffff1660e01b8152600401602060405180830381865afa1580156122e4573d6000803e3d6000fd5b505050506040513d601f19601f820116820180604052508101906123089190615d4e565b600281111561231957612319615010565b145b6040518060400160405280601781526020017f474f5645524e414e43455f544f4b454e5f4558495354530000000000000000008152509061236f5760405162461bcd60e51b81526004016110089190615176565b506001600090815261013d6020527f629d646ec67bfbeb7c6606ef8cc3b08ea57953ef9e89bc573ebaeb509393412b80546001600160a01b0319166001600160a01b038516179055610140818360028111156123cd576123cd615010565b60028111156123de576123de615010565b8152602081019190915260400160002054111561245d57610140600082600281111561240c5761240c615010565b600281111561241d5761241d615010565b815260200190815260200160002080548061243a5761243a615e28565b600082815260209020810160001990810180546001600160a01b03191690550190555b610140600082600281111561247457612474615010565b600281111561248557612485615010565b8152602080820192909252604090810160009081208054600180820183559183528483200180546001600160a01b0319166001600160a01b0388169081179091558252610141909352208054839260ff19909116908360028111156124ec576124ec615010565b02179055505050565b600054610100900460ff16158080156125155750600054600160ff909116105b8061252f5750303b15801561252f575060005460ff166001145b6125925760405162461bcd60e51b815260206004820152602e60248201527f496e697469616c697a61626c653a20636f6e747261637420697320616c72656160448201526d191e481a5b9a5d1a585b1a5e995960921b6064820152608401611008565b6000805460ff1916600117905580156125b5576000805461ff0019166101001790555b6125bd613eff565b6125c5613f2e565b61010480546001600160a01b031916331790558151610138908155602083015161013955604083015183919061013a906125ff9082615c8f565b50606082015160038201906126149082615c8f565b506080820151816004015590505080156112a0576000805461ff0019169055604051600181527f7f26b83ff96e1f2b6a682f133852f6798a09c465da95921460cefb3847402498906020015b60405180910390a15050565b600081815260c960209081526040808320815181546101409481028201850190935261012081018381528594919384926060840192859284928491908701828280156126e157602002820191906000526020600020905b81546001600160a01b031681526001909101906020018083116126c3575b505050505081526020016001820180548060200260200160405190810160405280929190818152602001828054801561273957602002820191906000526020600020905b815481526020019060010190808311612725575b5050505050815260200160028201805480602002602001604051908101604052809291908181526020016000905b8282101561281357838290600052602060002001805461278690615b60565b80601f01602080910402602001604051908101604052809291908181526020018280546127b290615b60565b80156127ff5780601f106127d4576101008083540402835291602001916127ff565b820191906000526020600020905b8154815290600101906020018083116127e257829003601f168201915b505050505081526020019060010190612767565b50505050815260200160038201548152602001600482015481526020016005820154815250508152602001600682016040518060c001604052908160008201548152602001600182015481526020016002820154815260200160038201548152602001600482015481526020016005820160009054906101000a900460ff1660068111156128a3576128a3615010565b60068111156128b4576128b4615010565b90525081526040805160608101909152600c83018054602090930192829060ff1660038111156128e6576128e6615010565b60038111156128f7576128f7615010565b815260200160018201805461290b90615b60565b80601f016020809104026020016040519081016040528092919081815260200182805461293790615b60565b80156129845780601f1061295957610100808354040283529160200191612984565b820191906000526020600020905b81548152906001019060200180831161296757829003601f168201915b5050505050815260200160028201805461299d90615b60565b80601f01602080910402602001604051908101604052809291908181526020018280546129c990615b60565b8015612a165780601f106129eb57610100808354040283529160200191612a16565b820191906000526020600020905b8154815290600101906020018083116129f957829003601f168201915b50505091909252505050905250602081015151909150600003612a3c5750600092915050565b6005816020015160a001516006811115612a5857612a58615010565b1480612a7d57506006816020015160a001516006811115612a7b57612a7b615010565b145b15612a90576020015160a0015192915050565b60208101515115801590612aa8575060208101515143105b15612ab65750600192915050565b6000612ad06001836020015160000151610e719190615bb0565b90506000826020015160800151836020015160600151612af09190615e3e565b90508260200151602001514310612b8157612b148183856000015160600151613f5d565b612b2357506002949350505050565b612b3e83602001516060015182856000015160800151613f5d565b612b4d57506002949350505050565b825160a001516020808501510151612b659190615e3e565b4310612b7657506004949350505050565b506003949350505050565b506001949350505050565b6101045460408051808201909152600b81526a4e4f545f5345525649434560a81b6020820152906001600160a01b03163314612bdb5760405162461bcd60e51b81526004016110089190615176565b50611ba181613f80565b600080612bf0611949565b6001600160a01b031603612c045750600090565b612c0c611949565b6001600160a01b031663d04d79b56040518163ffffffff1660e01b8152600401602060405180830381865afa158015612c49573d6000803e3d6000fd5b505050506040513d601f19601f82011682018060405250810190611b939190615bdc565b600060cc54612c7b8361406a565b101580612c8c5750612c8c82611b5e565b80610f995750610104546040805163c979e8a760e01b815290516001600160a01b03909216916391d1485491839163c979e8a7916004808201926020929091908290030181865afa158015612ce5573d6000803e3d6000fd5b505050506040513d601f19601f82011682018060405250810190612d099190615bc3565b6040516001600160e01b031960e084901b1681526004810191909152336024820152604401610f58565b6060612d3d612be5565b612d4857600061204a565b611b93610146613ec8565b612d5b613b13565b6001600160a01b038116612dc05760405162461bcd60e51b815260206004820152602660248201527f4f776e61626c653a206e6577206f776e657220697320746865207a65726f206160448201526564647265737360d01b6064820152608401611008565b611ba181613c9a565b6101045460408051631b089fdd60e01b815290516000926001600160a01b031691631b089fdd9160048083019260209291908290030181865afa158015612e14573d6000803e3d6000fd5b505050506040513d601f19601f82011682018060405250810190612e389190615bf9565b6001600160a01b0316336001600160a01b0316148015612e5c5750612e5c85612c6d565b604051806040016040528060128152602001712727aa2fab20a624a22fa82927a827a9a2a960711b81525090612ea55760405162461bcd60e51b81526004016110089190615176565b5060cd54606084015260ce546080840152815160d1906000906003811115612ecf57612ecf615010565b6003811115612ee057612ee0615010565b8152602001908152602001600020548360a00181815250506000612f0a848460cf5460d2546140a4565b6000868152610105602052604090208190559050612f4086826001600160a01b03909116600090815261013e6020526040902055565b61010460009054906101000a90046001600160a01b03166001600160a01b0316637b1039996040518163ffffffff1660e01b8152600401602060405180830381865afa158015612f94573d6000803e3d6000fd5b505050506040513d601f19601f82011682018060405250810190612fb89190615bf9565b6001600160a01b0316634dbb83fd8730600063f7ec6f1060e01b8b8b8b8b604051602401612fe99493929190615e51565b60408051601f198184030181529181526020820180516001600160e01b03166001600160e01b03199485161790525160e087901b909216825261303194939291600401615c16565b600060405180830381600087803b15801561304b57600080fd5b505af115801561305f573d6000803e3d6000fd5b509293505050505b949350505050565b6101045460408051808201909152600b81526a4e4f545f5345525649434560a81b6020820152906001600160a01b031633146130be5760405162461bcd60e51b81526004016110089190615176565b506130c883613c9a565b6101376130d58382615c8f565b5061181281613dd7565b6001600090815261013d6020527f629d646ec67bfbeb7c6606ef8cc3b08ea57953ef9e89bc573ebaeb509393412b54604051632394e7a360e21b8152600481018490526001600160a01b0390911690638e539e8c906024015b602060405180830381865afa158015613155573d6000803e3d6000fd5b505050506040513d601f19601f82011682018060405250810190610e769190615bc3565b6000610e76825490565b60975460ff1615611b5c5760405162461bcd60e51b815260206004820152601060248201526f14185d5cd8589b194e881c185d5cd95960821b6044820152606401611008565b60046131d48361266c565b60068111156131e5576131e5615010565b146040518060400160405280600b81526020016a57524f4e475f535441544560a81b815250906132285760405162461bcd60e51b81526004016110089190615176565b50600082815260c960209081526040808320600b8101805460ff19166005179055815181549384028101610140908101909352610120810184815290939192849260608401928592849284918701828280156132ad57602002820191906000526020600020905b81546001600160a01b0316815260019091019060200180831161328f575b505050505081526020016001820180548060200260200160405190810160405280929190818152602001828054801561330557602002820191906000526020600020905b8154815260200190600101908083116132f1575b5050505050815260200160028201805480602002602001604051908101604052809291908181526020016000905b828210156133df57838290600052602060002001805461335290615b60565b80601f016020809104026020016040519081016040528092919081815260200182805461337e90615b60565b80156133cb5780601f106133a0576101008083540402835291602001916133cb565b820191906000526020600020905b8154815290600101906020018083116133ae57829003601f168201915b505050505081526020019060010190613333565b50505050815260200160038201548152602001600482015481526020016005820154815250508152602001600682016040518060c001604052908160008201548152602001600182015481526020016002820154815260200160038201548152602001600482015481526020016005820160009054906101000a900460ff16600681111561346f5761346f615010565b600681111561348057613480615010565b90525081526040805160608101909152600c83018054602090930192829060ff1660038111156134b2576134b2615010565b60038111156134c3576134c3615010565b81526020016001820180546134d790615b60565b80601f016020809104026020016040519081016040528092919081815260200182805461350390615b60565b80156135505780601f1061352557610100808354040283529160200191613550565b820191906000526020600020905b81548152906001019060200180831161353357829003601f168201915b5050505050815260200160028201805461356990615b60565b80601f016020809104026020016040519081016040528092919081815260200182805461359590615b60565b80156135e25780601f106135b7576101008083540402835291602001916135e2565b820191906000526020600020905b8154815290600101906020018083116135c557829003601f168201915b50505050508152505081525050905060005b8151515181101561371f5781516040015180518290811061361757613617615d6b565b60200260200101515160000361368a57613685826000015160200151828151811061364457613644615d6b565b6020026020010151836000015160000151838151811061366657613666615d6b565b60200260200101516001600160a01b03166142cb90919063ffffffff16565b61370d565b61370b82600001516040015182815181106136a7576136a7615d6b565b602002602001015183600001516020015183815181106136c9576136c9615d6b565b602002602001015184600001516000015184815181106136eb576136eb615d6b565b60200260200101516001600160a01b0316613b729092919063ffffffff16565b505b8061371781615d81565b9150506135f4565b50604080820151805190820151915163b677bc6960e01b81526001600160a01b0385169263b677bc69926137599290918891600401615e8a565b600060405180830381600087803b15801561377357600080fd5b505af1158015613787573d6000803e3d6000fd5b505050507f712ae1383f79ac853f8d882153778e0260ef8f03b504e2866e0593e04d2b291f836040516137bc91815260200190565b60405180910390a1505050565b60026065540361381b5760405162461bcd60e51b815260206004820152601f60248201527f5265656e7472616e637947756172643a207265656e7472616e742063616c6c006044820152606401611008565b6002606555565b600082815260c96020908152604091829020600601548251808401909352600c83526b1393d517d310555390d2115160a21b918301919091526138785760405162461bcd60e51b81526004016110089190615176565b504360c960008481526020019081526020016000206006016000015411156040518060400160405280600c81526020016b1393d517d310555390d2115160a21b815250906138d95760405162461bcd60e51b81526004016110089190615176565b504360c9600084815260200190815260200160002060060160010154116040518060400160405280600f81526020016e1593d5125391d7d192539254d21151608a1b8152509061393c5760405162461bcd60e51b81526004016110089190615176565b5033600090815260ca6020908152604080832085845290915281205460ff16600281111561396c5761396c615010565b146040518060400160405280600d81526020016c1053149150511657d593d51151609a1b815250906139b15760405162461bcd60e51b81526004016110089190615176565b50600082815260c960205260408120600601546139d69033906119f290600190615bb0565b9050600081116040518060400160405280600a8152602001695a45524f5f564f54455360b01b81525090613a1d5760405162461bcd60e51b81526004016110089190615176565b508115613a7457600083815260c9602052604081206009018054839290613a45908490615e3e565b909155505033600090815260ca602090815260408083208684529091529020805460ff19166002179055613ac0565b600083815260c960205260408120600a018054839290613a95908490615e3e565b909155505033600090815260ca602090815260408083208684529091529020805460ff191660011790555b613ac9836143e4565b7f77d94b0c4db39f796091e7fef268f44482302e115be932a80c0ecf6e5455d7aa33848385613af9576001613afc565b60025b6040516137bc9493929190615eb0565b6001606555565b33613b1c611b7f565b6001600160a01b031614611b5c5760405162461bcd60e51b815260206004820181905260248201527f4f776e61626c653a2063616c6c6572206973206e6f7420746865206f776e65726044820152606401611008565b6060613067848484604051806060016040528060298152602001615f906029913961486b565b6001600160a01b038116600090815260018301602052604081205415155b9392505050565b604080516001600160a01b0385811660248301528416604482015260648082018490528251808303909101815260849091019091526020810180516001600160e01b03166323b872dd60e01b179052613c17908590614946565b50505050565b6000613c27611949565b604051630748d63560e31b81526001600160a01b038581166004830152602482018590529190911690633a46b1a890604401602060405180830381865afa158015613c76573d6000803e3d6000fd5b505050506040513d601f19601f82011682018060405250810190613bb69190615bc3565b603380546001600160a01b038381166001600160a01b0319831681179093556040519116919082907f8be0079c531659141344cd1fd0a4f28419497f9722a3daafe3b4186f6b6457e090600090a35050565b620f42408160200151106040518060400160405280600d81526020016c494e56414c49445f56414c554560981b81525090613d3a5760405162461bcd60e51b81526004016110089190615176565b50620f4240816040015111156040518060400160405280600d81526020016c494e56414c49445f56414c554560981b81525090613d8a5760405162461bcd60e51b81526004016110089190615176565b5060008160600151116040518060400160405280600d81526020016c494e56414c49445f56414c554560981b815250906112a05760405162461bcd60e51b81526004016110089190615176565b613de081613cec565b805160cc5560208082015160cd5560408083015160ce5560608084015160cf55608084015160d05560a08401805151600080805260d186527efa5413e7b01fc543d01f0911de573ace463b956369df4472f39030e8d98b7791909155815190940151600185527fb41c81a20ee1317ccb9b438d7e5d59d66d5a6ec10e50c28bfec0bae0f14bf52755805190920151600284527f32ea06fcf2721a86a5d9ed09fff93f12af8d61fae22ffe196961f9320ec53d3f559051015160039091527f507fbfbc4604457cf48784aed8fcaf8ef1e156d984c943cc8583366a2705be5e5560c0015160d255565b60606000613bb683614a18565b6000613bb6836001600160a01b038416614a73565b6000613bb6836001600160a01b038416614b66565b600054610100900460ff16613f265760405162461bcd60e51b815260040161100890615ee6565b611b5c614bb5565b600054610100900460ff16613f555760405162461bcd60e51b815260040161100890615ee6565b611b5c614be5565b6000613f698383615f31565b613f76620f424086615f31565b1015949350505050565b6000613f8b8261266c565b90506001816006811115613fa157613fa1615010565b1480613fbe57506003816006811115613fbc57613fbc615010565b145b80613fda57506004816006811115613fd857613fd8615010565b145b6040518060400160405280600b81526020016a57524f4e475f535441544560a81b8152509061401c5760405162461bcd60e51b81526004016110089190615176565b50600082815260c96020908152604091829020600b01805460ff1916600617905590518381527f416e669c63d9a3a5e36ee7cc7e2104b8db28ccd286aa18966e98fa230c73b08c9101612660565b6000614074611949565b6040516309ab24eb60e41b81526001600160a01b0384811660048301529190911690639ab24eb090602401613138565b600060cb600081546140b590615d81565b919050819055905060405180606001604052808681526020016040518060c0016040528085436140e59190615e3e565b8152602001866140f58743615e3e565b6140ff9190615e3e565b81526020016000815260200160008152602001600081526020016000600681111561412c5761412c615010565b905281526020908101869052600083815260c982526040902082518051805192939192849261415f928492910190614d12565b5060208281015180516141789260018501920190614d77565b5060408201518051614194916002840191602090910190614db2565b50606082015181600301556080820151816004015560a082015181600501555050602082015181600601600082015181600001556020820151816001015560408201518160020155606082015181600301556080820151816004015560a08201518160050160006101000a81548160ff0219169083600681111561421a5761421a615010565b0217905550505060408201518051600c83018054909190829060ff1916600183600381111561424b5761424b615010565b0217905550602082015160018201906142649082615c8f565b50604082015160028201906142799082615c8f565b50505090505061428881614c0c565b7f8fd94d78543f5e6b57da702ca98bdb467625b6c4a8d80ea80d5ab4a4ce302b388186866040516142bb93929190615f48565b60405180910390a1949350505050565b8047101561431b5760405162461bcd60e51b815260206004820152601d60248201527f416464726573733a20696e73756666696369656e742062616c616e63650000006044820152606401611008565b6000826001600160a01b03168260405160006040518083038185875af1925050503d8060008114614368576040519150601f19603f3d011682016040523d82523d6000602084013e61436d565b606091505b50509050806118125760405162461bcd60e51b815260206004820152603a60248201527f416464726573733a20756e61626c6520746f2073656e642076616c75652c207260448201527f6563697069656e74206d617920686176652072657665727465640000000000006064820152608401611008565b600081815260c9602090815260408083208151815461014094810282018501909352610120810183815290939192849260608401928592849284919087018282801561445957602002820191906000526020600020905b81546001600160a01b0316815260019091019060200180831161443b575b50505050508152602001600182018054806020026020016040519081016040528092919081815260200182805480156144b157602002820191906000526020600020905b81548152602001906001019080831161449d575b5050505050815260200160028201805480602002602001604051908101604052809291908181526020016000905b8282101561458b5783829060005260206000200180546144fe90615b60565b80601f016020809104026020016040519081016040528092919081815260200182805461452a90615b60565b80156145775780601f1061454c57610100808354040283529160200191614577565b820191906000526020600020905b81548152906001019060200180831161455a57829003601f168201915b5050505050815260200190600101906144df565b50505050815260200160038201548152602001600482015481526020016005820154815250508152602001600682016040518060c001604052908160008201548152602001600182015481526020016002820154815260200160038201548152602001600482015481526020016005820160009054906101000a900460ff16600681111561461b5761461b615010565b600681111561462c5761462c615010565b90525081526040805160608101909152600c83018054602090930192829060ff16600381111561465e5761465e615010565b600381111561466f5761466f615010565b815260200160018201805461468390615b60565b80601f01602080910402602001604051908101604052809291908181526020018280546146af90615b60565b80156146fc5780601f106146d1576101008083540402835291602001916146fc565b820191906000526020600020905b8154815290600101906020018083116146df57829003601f168201915b5050505050815260200160028201805461471590615b60565b80601f016020809104026020016040519081016040528092919081815260200182805461474190615b60565b801561478e5780601f106147635761010080835404028352916020019161478e565b820191906000526020600020905b81548152906001019060200180831161477157829003601f168201915b50505050508152505081525050905060006147b76001836020015160000151610e719190615bb0565b905060008260200151608001518360200151606001516147d79190615e3e565b905060006147e58284615bb0565b90506147fa8284866000015160600151613f5d565b614805575050505050565b6148298185602001516060015161481c9190615e3e565b8551608001518590614c3e565b158061484b575061484b84602001516060015184866000015160800151613f5d565b1561114b5750505060009182525060c96020526040902043600790910155565b6060824710156148cc5760405162461bcd60e51b815260206004820152602660248201527f416464726573733a20696e73756666696369656e742062616c616e636520666f6044820152651c8818d85b1b60d21b6064820152608401611008565b600080866001600160a01b031685876040516148e89190615f73565b60006040518083038185875af1925050503d8060008114614925576040519150601f19603f3d011682016040523d82523d6000602084013e61492a565b606091505b509150915061493b87838387614c60565b979650505050505050565b600061499b826040518060400160405280602081526020017f5361666545524332303a206c6f772d6c6576656c2063616c6c206661696c6564815250856001600160a01b0316614cd99092919063ffffffff16565b80519091501561181257808060200190518101906149b99190615bdc565b6118125760405162461bcd60e51b815260206004820152602a60248201527f5361666545524332303a204552433230206f7065726174696f6e20646964206e6044820152691bdd081cdd58d8d9595960b21b6064820152608401611008565b6060816000018054806020026020016040519081016040528092919081815260200182805480156113bf57602002820191906000526020600020905b815481526020019060010190808311614a545750505050509050919050565b60008181526001830160205260408120548015614b5c576000614a97600183615bb0565b8554909150600090614aab90600190615bb0565b9050818114614b10576000866000018281548110614acb57614acb615d6b565b9060005260206000200154905080876000018481548110614aee57614aee615d6b565b6000918252602080832090910192909255918252600188019052604090208390555b8554869080614b2157614b21615e28565b600190038181906000526020600020016000905590558560010160008681526020019081526020016000206000905560019350505050610e76565b6000915050610e76565b6000818152600183016020526040812054614bad57508154600181810184556000848152602080822090930184905584548482528286019093526040902091909155610e76565b506000610e76565b600054610100900460ff16614bdc5760405162461bcd60e51b815260040161100890615ee6565b611b5c33613c9a565b600054610100900460ff16613b0c5760405162461bcd60e51b815260040161100890615ee6565b61010454604051630ffb246960e21b8152600481018390526001600160a01b0390911690633fec91a49060240161111d565b6000614c4a8383615f31565b614c57620f424086615f31565b11949350505050565b60608315614ccf578251600003614cc8576001600160a01b0385163b614cc85760405162461bcd60e51b815260206004820152601d60248201527f416464726573733a2063616c6c20746f206e6f6e2d636f6e74726163740000006044820152606401611008565b5081613067565b6130678383614ce8565b6060613067848460008561486b565b815115614cf85781518083602001fd5b8060405162461bcd60e51b81526004016110089190615176565b828054828255906000526020600020908101928215614d67579160200282015b82811115614d6757825182546001600160a01b0319166001600160a01b03909116178255602090920191600190910190614d32565b50614d73929150614e04565b5090565b828054828255906000526020600020908101928215614d67579160200282015b82811115614d67578251825591602001919060010190614d97565b828054828255906000526020600020908101928215614df8579160200282015b82811115614df85782518290614de89082615c8f565b5091602001919060010190614dd2565b50614d73929150614e19565b5b80821115614d735760008155600101614e05565b80821115614d73576000614e2d8282614e36565b50600101614e19565b508054614e4290615b60565b6000825580601f10614e52575050565b601f016020900490600052602060002090810190611ba19190614e04565b600060208284031215614e8257600080fd5b5035919050565b600081518084526020808501945080840160005b83811015614eb957815187529582019590820190600101614e9d565b509495945050505050565b60005b83811015614edf578181015183820152602001614ec7565b50506000910152565b60008151808452614f00816020860160208601614ec4565b601f01601f19169290920160200192915050565b600082825180855260208086019550808260051b84010181860160005b84811015614f5f57601f19868403018952614f4d838351614ee8565b98840198925090830190600101614f31565b5090979650505050505050565b805160c080845281519084018190526000916020919082019060e0860190845b81811015614fb15783516001600160a01b031683529284019291840191600101614f8c565b505082850151915085810383870152614fca8183614e89565b9250505060408301518482036040860152614fe58282614f14565b915050606083015160608501526080830151608085015260a083015160a08501528091505092915050565b634e487b7160e01b600052602160045260246000fd5b6007811061503657615036615010565b9052565b6004811061503657615036615010565b61505582825161503a565b60006020820151606060208501526150706060850182614ee8565b9050604083015184820360408601526150898282614ee8565b95945050505050565b60006101008083526150a681840187614f6c565b905084516020840152602085015160408401526040850151606084015260608501516080840152608085015160a084015260a08501516150e960c0850182615026565b5082810360e08401526150fc818561504a565b9695505050505050565b6001600160a01b0381168114611ba157600080fd5b60006020828403121561512d57600080fd5b8135613bb681615106565b8015158114611ba157600080fd5b6000806040838503121561515957600080fd5b82359150602083013561516b81615138565b809150509250929050565b602081526000613bb66020830184614ee8565b60038110611ba157600080fd5b6000602082840312156151a857600080fd5b8135613bb681615189565b6020808252825182820181905260009190848201906040850190845b818110156151f45783516001600160a01b0316835292840192918401916001016151cf565b50909695505050505050565b6000806000806060858703121561521657600080fd5b843561522181615106565b93506020850135925060408501356001600160401b038082111561524457600080fd5b818701915087601f83011261525857600080fd5b81358181111561526757600080fd5b88602082850101111561527957600080fd5b95989497505060200194505050565b6000806040838503121561529b57600080fd5b82356152a681615189565b946020939093013593505050565b6000806000606084860312156152c957600080fd5b83356152d481615106565b92506020840135915060408401356152eb81615106565b809150509250925092565b85815284602082015260a06040820152600061531560a0830186614ee8565b82810360608401526153278186614ee8565b9150508260808301529695505050505050565b6000806040838503121561534d57600080fd5b82356152a681615106565b60038110611ba157611ba1615010565b6040810161537584615358565b9281526020015290565b634e487b7160e01b600052604160045260246000fd5b60405160e081016001600160401b03811182821017156153b7576153b761537f565b60405290565b604051608081016001600160401b03811182821017156153b7576153b761537f565b60405160a081016001600160401b03811182821017156153b7576153b761537f565b60405160c081016001600160401b03811182821017156153b7576153b761537f565b604051601f8201601f191681016001600160401b038111828210171561544b5761544b61537f565b604052919050565b60006001600160401b0383111561546c5761546c61537f565b61547f601f8401601f1916602001615423565b905082815283838301111561549357600080fd5b828260208301376000602084830101529392505050565b600082601f8301126154bb57600080fd5b613bb683833560208501615453565b600080600080600060a086880312156154e257600080fd5b853594506020860135935060408601356001600160401b038082111561550757600080fd5b61551389838a016154aa565b9450606088013591508082111561552957600080fd5b61553589838a016154aa565b9350608088013591508082111561554b57600080fd5b50615558888289016154aa565b9150509295509295909350565b6020810161557283615358565b91905290565b6000610140828403121561558b57600080fd5b615593615395565b905081358152602080830135818301526040830135604083015260608301356060830152608083013560808301528360bf8401126155d057600080fd5b6155d86153bd565b806101208501868111156155eb57600080fd5b60a086015b8181101561560757803584529284019284016155f0565b508160a0860152803560c08601525050505092915050565b6000610140828403121561563257600080fd5b613bb68383615578565b60006001600160401b038211156156555761565561537f565b5060051b60200190565b600082601f83011261567057600080fd5b813560206156856156808361563c565b615423565b82815260059290921b840181019181810190868411156156a457600080fd5b8286015b848110156156c85780356156bb81615106565b83529183019183016156a8565b509695505050505050565b600080600061018084860312156156e957600080fd5b6156f38585615578565b92506101408401356001600160401b038082111561571057600080fd5b61571c8783880161565f565b935061016086013591508082111561573357600080fd5b506157408682870161565f565b9150509250925092565b803560048110610e8a57600080fd5b60006020828403121561576b57600080fd5b613bb68261574a565b6000806040838503121561578757600080fd5b823561579281615106565b9150602083013561516b81615189565b6000602082840312156157b457600080fd5b81356001600160401b03808211156157cb57600080fd5b9083019060a082860312156157df57600080fd5b6157e76153df565b823581526020830135602082015260408301358281111561580757600080fd5b615813878286016154aa565b60408301525060608301358281111561582b57600080fd5b615837878286016154aa565b6060830152506080830135608082015280935050505092915050565b60208101610e768284615026565b600082601f83011261587257600080fd5b813560206158826156808361563c565b82815260059290921b840181019181810190868411156158a157600080fd5b8286015b848110156156c857803583529183019183016158a5565b600082601f8301126158cd57600080fd5b813560206158dd6156808361563c565b82815260059290921b840181019181810190868411156158fc57600080fd5b8286015b848110156156c85780356001600160401b0381111561591f5760008081fd5b8701603f810189136159315760008081fd5b615942898683013560408401615453565b845250918301918301615900565b60006060828403121561596257600080fd5b604051606081016001600160401b0382821081831117156159855761598561537f565b816040528293506159958561574a565b835260208501359150808211156159ab57600080fd5b6159b7868387016154aa565b602084015260408501359150808211156159d057600080fd5b506159dd858286016154aa565b6040830152505092915050565b60008060008060808587031215615a0057600080fd5b8435615a0b81615106565b93506020850135925060408501356001600160401b0380821115615a2e57600080fd5b9086019060c08289031215615a4257600080fd5b615a4a615401565b823582811115615a5957600080fd5b615a658a82860161565f565b825250602083013582811115615a7a57600080fd5b615a868a828601615861565b602083015250604083013582811115615a9e57600080fd5b615aaa8a8286016158bc565b604083015250606083013560608201526080830135608082015260a083013560a0820152809450506060870135915080821115615ae657600080fd5b50615af387828801615950565b91505092959194509250565b60008060006101808486031215615b1557600080fd5b8335615b2081615106565b925060208401356001600160401b03811115615b3b57600080fd5b615b47868287016154aa565b925050615b578560408601615578565b90509250925092565b600181811c90821680615b7457607f821691505b602082108103615b9457634e487b7160e01b600052602260045260246000fd5b50919050565b634e487b7160e01b600052601160045260246000fd5b81810381811115610e7657610e76615b9a565b600060208284031215615bd557600080fd5b5051919050565b600060208284031215615bee57600080fd5b8151613bb681615138565b600060208284031215615c0b57600080fd5b8151613bb681615106565b6001600160a01b03858116825284166020820152604081018390526080606082018190526000906150fc90830184614ee8565b601f82111561181257600081815260208120601f850160051c81016020861015615c705750805b601f850160051c820191505b81811015611b4257828155600101615c7c565b81516001600160401b03811115615ca857615ca861537f565b615cbc81615cb68454615b60565b84615c49565b602080601f831160018114615cf15760008415615cd95750858301515b600019600386901b1c1916600185901b178555611b42565b600085815260208120601f198616915b82811015615d2057888601518255948401946001909101908401615d01565b5085821015615d3e5787850151600019600388901b60f8161c191681555b5050505050600190811b01905550565b600060208284031215615d6057600080fd5b8151613bb681615189565b634e487b7160e01b600052603260045260246000fd5b600060018201615d9357615d93615b9a565b5060010190565b60006020808385031215615dad57600080fd5b82516001600160401b03811115615dc357600080fd5b8301601f81018513615dd457600080fd5b8051615de26156808261563c565b81815260059190911b82018301908381019087831115615e0157600080fd5b928401925b8284101561493b578351615e1981615106565b82529284019290840190615e06565b634e487b7160e01b600052603160045260246000fd5b80820180821115610e7657610e76615b9a565b60018060a01b0385168152836020820152608060408201526000615e786080830185614f6c565b828103606084015261493b818561504a565b615e94818561503a565b8260208201526060604082015260006150896060830184614ee8565b6001600160a01b0385168152602081018490526040810183905260808101615ed783615358565b82606083015295945050505050565b6020808252602b908201527f496e697469616c697a61626c653a20636f6e7472616374206973206e6f74206960408201526a6e697469616c697a696e6760a81b606082015260800190565b8082028115828204841417610e7657610e76615b9a565b838152606060208201526000615f616060830185614f6c565b82810360408401526150fc818561504a565b60008251615f85818460208701614ec4565b919091019291505056fe416464726573733a206c6f772d6c6576656c2063616c6c20776974682076616c7565206661696c6564a2646970667358221220ec8cf3db4c3b781fed546aeb7de81cde7cbc8bc19d76a60ea860f5ecfb6321b064736f6c63430008110033",
  "devdoc": {
    "details": "These contracts are instances of on-chain implementations of user companies. The shareholders of the companies work with them, their addresses are used in the Registry contract as tags that allow obtaining additional legal information (before the purchase of the company by the client). They store legal data (after the purchase of the company by the client). Among other things, the contract is also the owner of the Token and TGE contracts.There can be an unlimited number of such contracts, including for one company owner. The contract can be in three states: 1) the company was created by the administrator, a record of it is stored in the Registry, but the contract has not yet been deployed and does not have an owner (buyer) 2) the contract is deployed, the company has an owner, but there is not yet a successful (softcap primary TGE), in this state its owner has the exclusive right to recreate the TGE in case of their failure (only one TGE can be launched at the same time) 3) the primary TGE ended successfully, softcap is assembled - the company has received the status of DAO.  The owner no longer has any exclusive rights, all the actions of the company are carried out through the creation and execution of propousals after voting. In this status, the contract is also a treasury - it stores the company's values in the form of ETH and/or ERC20 tokens.",
    "kind": "dev",
    "methods": {
      "availableVotesForProposal(uint256)": {
        "details": "This getter returns if available Votes For Proposal by Id"
      },
      "cancelProposal(uint256)": {
        "details": "Cancel proposal, callable only by Service",
        "params": {
          "proposalId": "Proposal ID"
        }
      },
      "castVote(uint256,bool)": {
        "details": "With this method, the owner of the Governance token of the pool can vote for one of the active propo-nodes, specifying its number and the value of the vote (for or against). One user can vote only once for one proposal with all the available balance that is in delegation at once.",
        "params": {
          "proposalId": "Pool proposal ID",
          "support": "Against or for"
        }
      },
      "constructor": {
        "custom:oz-upgrades-unsafe-allow": "constructor"
      },
      "customTxByOwner(address,uint256,bytes)": {
        "details": "Execute custom tx if the pool is not yet a  DAO",
        "params": {
          "data": "input data of the transaction",
          "target": "receiver addresss",
          "value": "transfer amount"
        }
      },
      "executeProposal(uint256)": {
        "details": "Execute proposal",
        "params": {
          "proposalId": "Proposal ID"
        }
      },
      "getBallot(address,uint256)": {
        "details": "Return voting result for a given account and proposal",
        "params": {
          "account": "Account address",
          "proposalId": "Proposal ID"
        },
        "returns": {
          "ballot": "Vote type",
          "votes": "Number of votes cast"
        }
      },
      "getGovernanceToken()": {
        "details": "This getter returns current Governance Token For this Pool"
      },
      "getPoolExecutor()": {
        "details": "This getter to show list of current pool executor"
      },
      "getPoolSecretary()": {
        "details": "This getter to show list of current pool Secretary"
      },
      "getTokens(uint8)": {
        "details": "This getter is needed in order to return a Token contract addresses depending on the type of token requested (Governance or Preference)."
      },
      "initialize((uint256,uint256,string,string,uint256))": {
        "details": "Initialization of a new pool and placement of user settings and data (including legal ones) in it",
        "params": {
          "companyInfo_": "Company info"
        }
      },
      "isDAO()": {
        "details": "Getter showing whether this company has received the status of a DAO as a result of the successful completion of the primary TGE (that is, launched by the owner of the company and with the creation of a new Governance token). After receiving the true status, it is not transferred back. This getter is responsible for the basic logic of starting a contract as managed by token holders.",
        "returns": {
          "_0": "Is any governance TGE successful"
        }
      },
      "isLastProposalIdByTypeActive(uint256)": {
        "details": "This getter returns if Last Proposal By Type is Active"
      },
      "isPoolExecutor(address)": {
        "details": "This getter shows if address is pool executor"
      },
      "isPoolSecretary(address)": {
        "details": "This getter shows if address is pool Secretary"
      },
      "isValidExecutor(address)": {
        "details": "This getter check if address can execute ballot"
      },
      "isValidProposer(address)": {
        "details": "This getter check if address can propose"
      },
      "owner()": {
        "details": "Return pool owner",
        "returns": {
          "_0": "Owner address"
        }
      },
      "paused()": {
        "details": "Returns true if the contract is paused, and false otherwise."
      },
      "proposalState(uint256)": {
        "details": "This method returns the outcome for a specific proposal in the pool, a proposal is approved if the quorum and decision threshold values are reached before the voting duration period has elapsed",
        "params": {
          "proposalId": "Proposal ID"
        },
        "returns": {
          "_0": "ProposalState"
        }
      },
      "propose(address,uint256,(address[],uint256[],bytes[],uint256,uint256,uint256),(uint8,string,string))": {
        "details": "Creating a proposal and assigning it a unique identifier to store in the list of proposals in the Governor contract.",
        "params": {
          "core": "Proposal core data",
          "meta": "Proposal meta data"
        }
      },
      "renounceOwnership()": {
        "details": "Leaves the contract without owner. It will not be possible to call `onlyOwner` functions anymore. Can only be called by the current owner. NOTE: Renouncing ownership will leave the contract without an owner, thereby removing any functionality that is only available to the owner."
      },
      "setCompanyInfo(uint256,uint256,string,string,string)": {
        "details": "sets new companyInfo and Operating Agreement Url",
        "params": {
          "_OAuri": "Operating Agreement Url",
          "_dateOfIncorporation": "Operating Agreement Url",
          "_ein": "Operating Agreement Url",
          "_entityType": "Operating Agreement Url",
          "_jurisdiction": "Operating Agreement Url"
        }
      },
      "setGovernanceSettings((uint256,uint256,uint256,uint256,uint256,uint256[4],uint256))": {
        "params": {
          "settings": "New governance settings"
        }
      },
      "setNewOwnerWithSettings(address,string,(uint256,uint256,uint256,uint256,uint256,uint256[4],uint256))": {
        "details": "set New Owner With Settings after company purchased",
        "params": {
          "governanceSettings_": "governance Settings",
          "newowner": "New Pool owner",
          "trademark_": "trademark_"
        }
      },
      "setProposalIdToTGE(address)": {
        "details": "set value to mapping Proposal IdTo TGE",
        "params": {
          "tge": "tge address"
        }
      },
      "setSettings((uint256,uint256,uint256,uint256,uint256,uint256[4],uint256),address[],address[])": {
        "details": "set New Owner With Settings after company purchased",
        "params": {
          "executor": "executor address list",
          "governanceSettings_": "governance Settings",
          "secretary": "secretary address list"
        }
      },
      "setToken(address,uint8)": {
        "details": "Adding a new entry about the deployed token contract to the list of tokens related to the pool.",
        "params": {
          "tokenType_": "Token type",
          "token_": "Token address"
        }
      },
      "tokenExists(address)": {
        "details": "Getter checks token exists for this pool",
        "returns": {
          "_0": "bool"
        }
      },
      "transferByOwner(address,uint256,address)": {
        "details": "Transfers funds from treasury if the pool is not yeta  DAO",
        "params": {
          "amount": "transfer amount",
          "to": "receiver addresss",
          "unitOfAccount": "unitOfAccount (token contract address or address(0) for eth)"
        }
      },
      "transferOwnership(address)": {
        "details": "Transfers ownership of the contract to a new account (`newOwner`). Can only be called by the current owner."
      },
      "validateGovernanceSettings((uint256,uint256,uint256,uint256,uint256,uint256[4],uint256))": {
        "details": "This getter validate Governance Settings"
      }
    },
    "stateVariables": {
      "OAurl": {
        "details": "Operating Agreement Url"
      },
      "companyInfo": {
        "details": "When a buyer acquires a company, its record disappears from the Registry contract, but before that, the company's legal data is copied to this variable."
      },
      "lastExecutedProposalId": {
        "details": "last executed proposal Id"
      },
      "lastProposalIdForAddress": {
        "details": "last proposal id for address. This method returns the proposal Id for the last proposal created by the specified address."
      },
      "poolExecutor": {
        "details": "pool executor list"
      },
      "poolSecretary": {
        "details": "pool secretary list"
      },
      "proposalCreatedAt": {
        "details": "mapping for creation block"
      },
      "proposalIdToTGE": {
        "details": "mapping for proposalId to TGE address"
      },
      "tokenTypeByAddress": {
        "details": "token type by address"
      },
      "tokens": {
        "details": "Mapping for Governance Token. There can be only one valid Governance token."
      },
      "tokensFullList": {
        "details": "A list of tokens belonging to this pool. There can be only one valid Governance token and several Preference tokens with diffrent settings."
      },
      "trademark": {
        "details": "The company's trade mark, label, brand name. It also acts as the Name of all the Governance tokens created for this pool."
      }
    },
    "version": 1
  },
  "userdoc": {
    "events": {
      "GovernanceSettingsSet(uint256,uint256,uint256,uint256,uint256,uint256[4],uint256)": {
        "notice": "This event emitted only when the following values (governance settings) are set"
      }
    },
    "kind": "user",
    "methods": {
      "decisionThreshold()": {
        "notice": "The minimum amount of votes which are needed to approve the proposal, given as a percentage of all participating votes"
      },
      "executionDelays(uint8)": {
        "notice": "Returns transaction execution delay values for different proposal types"
      },
      "proposalThreshold()": {
        "notice": "The minimum amount of votes required to create a proposal"
      },
      "quorumThreshold()": {
        "notice": "The minimum amount of votes which need to participate in the proposal in order for the proposal to be considered valid, given as a percentage of all existing votes"
      },
      "setGovernanceSettings((uint256,uint256,uint256,uint256,uint256,uint256[4],uint256))": {
        "notice": "Updates governance settings"
      },
      "transferValueForDelay()": {
        "notice": "The threshold value for a transaction which triggers the transaction execution delay"
      },
      "votingDuration()": {
        "notice": "The amount of time for which the proposal will remain active, given as the number of blocks which have elapsed since the creation of the proposal"
      },
      "votingStartDelay()": {
        "notice": "Delay before voting starts. In blocks"
      }
    },
    "version": 1
  },
  "storageLayout": {
    "storage": [
      {
        "astId": 703,
        "contract": "contracts/Pool.sol:Pool",
        "label": "_initialized",
        "offset": 0,
        "slot": "0",
        "type": "t_uint8"
      },
      {
        "astId": 706,
        "contract": "contracts/Pool.sol:Pool",
        "label": "_initializing",
        "offset": 1,
        "slot": "0",
        "type": "t_bool"
      },
      {
        "astId": 2043,
        "contract": "contracts/Pool.sol:Pool",
        "label": "__gap",
        "offset": 0,
        "slot": "1",
        "type": "t_array(t_uint256)50_storage"
      },
      {
        "astId": 108,
        "contract": "contracts/Pool.sol:Pool",
        "label": "_owner",
        "offset": 0,
        "slot": "51",
        "type": "t_address"
      },
      {
        "astId": 228,
        "contract": "contracts/Pool.sol:Pool",
        "label": "__gap",
        "offset": 0,
        "slot": "52",
        "type": "t_array(t_uint256)49_storage"
      },
      {
        "astId": 1142,
        "contract": "contracts/Pool.sol:Pool",
        "label": "_status",
        "offset": 0,
        "slot": "101",
        "type": "t_uint256"
      },
      {
        "astId": 1200,
        "contract": "contracts/Pool.sol:Pool",
        "label": "__gap",
        "offset": 0,
        "slot": "102",
        "type": "t_array(t_uint256)49_storage"
      },
      {
        "astId": 1022,
        "contract": "contracts/Pool.sol:Pool",
        "label": "_paused",
        "offset": 0,
        "slot": "151",
        "type": "t_bool"
      },
      {
        "astId": 1127,
        "contract": "contracts/Pool.sol:Pool",
        "label": "__gap",
        "offset": 0,
        "slot": "152",
        "type": "t_array(t_uint256)49_storage"
      },
      {
        "astId": 5160,
        "contract": "contracts/Pool.sol:Pool",
        "label": "proposals",
        "offset": 0,
        "slot": "201",
        "type": "t_mapping(t_uint256,t_struct(Proposal)5154_storage)"
      },
      {
        "astId": 5172,
        "contract": "contracts/Pool.sol:Pool",
        "label": "ballots",
        "offset": 0,
        "slot": "202",
        "type": "t_mapping(t_address,t_mapping(t_uint256,t_enum(Ballot)5164))"
      },
      {
        "astId": 5175,
        "contract": "contracts/Pool.sol:Pool",
        "label": "lastProposalId",
        "offset": 0,
        "slot": "203",
        "type": "t_uint256"
      },
      {
        "astId": 4903,
        "contract": "contracts/Pool.sol:Pool",
        "label": "proposalThreshold",
        "offset": 0,
        "slot": "204",
        "type": "t_uint256"
      },
      {
        "astId": 4906,
        "contract": "contracts/Pool.sol:Pool",
        "label": "quorumThreshold",
        "offset": 0,
        "slot": "205",
        "type": "t_uint256"
      },
      {
        "astId": 4909,
        "contract": "contracts/Pool.sol:Pool",
        "label": "decisionThreshold",
        "offset": 0,
        "slot": "206",
        "type": "t_uint256"
      },
      {
        "astId": 4912,
        "contract": "contracts/Pool.sol:Pool",
        "label": "votingDuration",
        "offset": 0,
        "slot": "207",
        "type": "t_uint256"
      },
      {
        "astId": 4915,
        "contract": "contracts/Pool.sol:Pool",
        "label": "transferValueForDelay",
        "offset": 0,
        "slot": "208",
        "type": "t_uint256"
      },
      {
        "astId": 4921,
        "contract": "contracts/Pool.sol:Pool",
        "label": "executionDelays",
        "offset": 0,
        "slot": "209",
        "type": "t_mapping(t_enum(EventType)7153,t_uint256)"
      },
      {
        "astId": 4924,
        "contract": "contracts/Pool.sol:Pool",
        "label": "votingStartDelay",
        "offset": 0,
        "slot": "210",
        "type": "t_uint256"
      },
      {
        "astId": 4929,
        "contract": "contracts/Pool.sol:Pool",
        "label": "__gap",
        "offset": 0,
        "slot": "211",
        "type": "t_array(t_uint256)49_storage"
      },
      {
        "astId": 5953,
        "contract": "contracts/Pool.sol:Pool",
        "label": "service",
        "offset": 0,
        "slot": "260",
        "type": "t_contract(IService)6429"
      },
      {
        "astId": 5958,
        "contract": "contracts/Pool.sol:Pool",
        "label": "lastProposalIdByType",
        "offset": 0,
        "slot": "261",
        "type": "t_mapping(t_uint256,t_uint256)"
      },
      {
        "astId": 5967,
        "contract": "contracts/Pool.sol:Pool",
        "label": "__gap",
        "offset": 0,
        "slot": "262",
        "type": "t_array(t_uint256)49_storage"
      },
      {
        "astId": 3640,
        "contract": "contracts/Pool.sol:Pool",
        "label": "trademark",
        "offset": 0,
        "slot": "311",
        "type": "t_string_storage"
      },
      {
        "astId": 3644,
        "contract": "contracts/Pool.sol:Pool",
        "label": "companyInfo",
        "offset": 0,
        "slot": "312",
        "type": "t_struct(CompanyInfo)7123_storage"
      },
      {
        "astId": 3650,
        "contract": "contracts/Pool.sol:Pool",
        "label": "tokens",
        "offset": 0,
        "slot": "317",
        "type": "t_mapping(t_enum(TokenType)6636,t_address)"
      },
      {
        "astId": 3655,
        "contract": "contracts/Pool.sol:Pool",
        "label": "lastProposalIdForAddress",
        "offset": 0,
        "slot": "318",
        "type": "t_mapping(t_address,t_uint256)"
      },
      {
        "astId": 3660,
        "contract": "contracts/Pool.sol:Pool",
        "label": "proposalCreatedAt",
        "offset": 0,
        "slot": "319",
        "type": "t_mapping(t_uint256,t_uint256)"
      },
      {
        "astId": 3667,
        "contract": "contracts/Pool.sol:Pool",
        "label": "tokensFullList",
        "offset": 0,
        "slot": "320",
        "type": "t_mapping(t_enum(TokenType)6636,t_array(t_address)dyn_storage)"
      },
      {
        "astId": 3673,
        "contract": "contracts/Pool.sol:Pool",
        "label": "tokenTypeByAddress",
        "offset": 0,
        "slot": "321",
        "type": "t_mapping(t_address,t_enum(TokenType)6636)"
      },
      {
        "astId": 3677,
        "contract": "contracts/Pool.sol:Pool",
        "label": "poolSecretary",
        "offset": 0,
        "slot": "322",
        "type": "t_struct(AddressSet)3307_storage"
      },
      {
        "astId": 3680,
        "contract": "contracts/Pool.sol:Pool",
        "label": "lastExecutedProposalId",
        "offset": 0,
        "slot": "324",
        "type": "t_uint256"
      },
      {
        "astId": 3685,
        "contract": "contracts/Pool.sol:Pool",
        "label": "proposalIdToTGE",
        "offset": 0,
        "slot": "325",
        "type": "t_mapping(t_uint256,t_address)"
      },
      {
        "astId": 3689,
        "contract": "contracts/Pool.sol:Pool",
        "label": "poolExecutor",
        "offset": 0,
        "slot": "326",
        "type": "t_struct(AddressSet)3307_storage"
      },
      {
        "astId": 3692,
        "contract": "contracts/Pool.sol:Pool",
        "label": "OAurl",
        "offset": 0,
        "slot": "328",
        "type": "t_string_storage"
      }
    ],
    "types": {
      "t_address": {
        "encoding": "inplace",
        "label": "address",
        "numberOfBytes": "20"
      },
      "t_array(t_address)dyn_storage": {
        "base": "t_address",
        "encoding": "dynamic_array",
        "label": "address[]",
        "numberOfBytes": "32"
      },
      "t_array(t_bytes32)dyn_storage": {
        "base": "t_bytes32",
        "encoding": "dynamic_array",
        "label": "bytes32[]",
        "numberOfBytes": "32"
      },
      "t_array(t_bytes_storage)dyn_storage": {
        "base": "t_bytes_storage",
        "encoding": "dynamic_array",
        "label": "bytes[]",
        "numberOfBytes": "32"
      },
      "t_array(t_uint256)49_storage": {
        "base": "t_uint256",
        "encoding": "inplace",
        "label": "uint256[49]",
        "numberOfBytes": "1568"
      },
      "t_array(t_uint256)50_storage": {
        "base": "t_uint256",
        "encoding": "inplace",
        "label": "uint256[50]",
        "numberOfBytes": "1600"
      },
      "t_array(t_uint256)dyn_storage": {
        "base": "t_uint256",
        "encoding": "dynamic_array",
        "label": "uint256[]",
        "numberOfBytes": "32"
      },
      "t_bool": {
        "encoding": "inplace",
        "label": "bool",
        "numberOfBytes": "1"
      },
      "t_bytes32": {
        "encoding": "inplace",
        "label": "bytes32",
        "numberOfBytes": "32"
      },
      "t_bytes_storage": {
        "encoding": "bytes",
        "label": "bytes",
        "numberOfBytes": "32"
      },
      "t_contract(IService)6429": {
        "encoding": "inplace",
        "label": "contract IService",
        "numberOfBytes": "20"
      },
      "t_enum(Ballot)5164": {
        "encoding": "inplace",
        "label": "enum Governor.Ballot",
        "numberOfBytes": "1"
      },
      "t_enum(EventType)7153": {
        "encoding": "inplace",
        "label": "enum IRecordsRegistry.EventType",
        "numberOfBytes": "1"
      },
      "t_enum(ProposalState)5130": {
        "encoding": "inplace",
        "label": "enum Governor.ProposalState",
        "numberOfBytes": "1"
      },
      "t_enum(TokenType)6636": {
        "encoding": "inplace",
        "label": "enum IToken.TokenType",
        "numberOfBytes": "1"
      },
      "t_mapping(t_address,t_enum(TokenType)6636)": {
        "encoding": "mapping",
        "key": "t_address",
        "label": "mapping(address => enum IToken.TokenType)",
        "numberOfBytes": "32",
        "value": "t_enum(TokenType)6636"
      },
      "t_mapping(t_address,t_mapping(t_uint256,t_enum(Ballot)5164))": {
        "encoding": "mapping",
        "key": "t_address",
        "label": "mapping(address => mapping(uint256 => enum Governor.Ballot))",
        "numberOfBytes": "32",
        "value": "t_mapping(t_uint256,t_enum(Ballot)5164)"
      },
      "t_mapping(t_address,t_uint256)": {
        "encoding": "mapping",
        "key": "t_address",
        "label": "mapping(address => uint256)",
        "numberOfBytes": "32",
        "value": "t_uint256"
      },
      "t_mapping(t_bytes32,t_uint256)": {
        "encoding": "mapping",
        "key": "t_bytes32",
        "label": "mapping(bytes32 => uint256)",
        "numberOfBytes": "32",
        "value": "t_uint256"
      },
      "t_mapping(t_enum(EventType)7153,t_uint256)": {
        "encoding": "mapping",
        "key": "t_enum(EventType)7153",
        "label": "mapping(enum IRecordsRegistry.EventType => uint256)",
        "numberOfBytes": "32",
        "value": "t_uint256"
      },
      "t_mapping(t_enum(TokenType)6636,t_address)": {
        "encoding": "mapping",
        "key": "t_enum(TokenType)6636",
        "label": "mapping(enum IToken.TokenType => address)",
        "numberOfBytes": "32",
        "value": "t_address"
      },
      "t_mapping(t_enum(TokenType)6636,t_array(t_address)dyn_storage)": {
        "encoding": "mapping",
        "key": "t_enum(TokenType)6636",
        "label": "mapping(enum IToken.TokenType => address[])",
        "numberOfBytes": "32",
        "value": "t_array(t_address)dyn_storage"
      },
      "t_mapping(t_uint256,t_address)": {
        "encoding": "mapping",
        "key": "t_uint256",
        "label": "mapping(uint256 => address)",
        "numberOfBytes": "32",
        "value": "t_address"
      },
      "t_mapping(t_uint256,t_enum(Ballot)5164)": {
        "encoding": "mapping",
        "key": "t_uint256",
        "label": "mapping(uint256 => enum Governor.Ballot)",
        "numberOfBytes": "32",
        "value": "t_enum(Ballot)5164"
      },
      "t_mapping(t_uint256,t_struct(Proposal)5154_storage)": {
        "encoding": "mapping",
        "key": "t_uint256",
        "label": "mapping(uint256 => struct Governor.Proposal)",
        "numberOfBytes": "32",
        "value": "t_struct(Proposal)5154_storage"
      },
      "t_mapping(t_uint256,t_uint256)": {
        "encoding": "mapping",
        "key": "t_uint256",
        "label": "mapping(uint256 => uint256)",
        "numberOfBytes": "32",
        "value": "t_uint256"
      },
      "t_string_storage": {
        "encoding": "bytes",
        "label": "string",
        "numberOfBytes": "32"
      },
      "t_struct(AddressSet)3307_storage": {
        "encoding": "inplace",
        "label": "struct EnumerableSetUpgradeable.AddressSet",
        "members": [
          {
            "astId": 3306,
            "contract": "contracts/Pool.sol:Pool",
            "label": "_inner",
            "offset": 0,
            "slot": "0",
            "type": "t_struct(Set)2992_storage"
          }
        ],
        "numberOfBytes": "64"
      },
      "t_struct(CompanyInfo)7123_storage": {
        "encoding": "inplace",
        "label": "struct ICompaniesRegistry.CompanyInfo",
        "members": [
          {
            "astId": 7114,
            "contract": "contracts/Pool.sol:Pool",
            "label": "jurisdiction",
            "offset": 0,
            "slot": "0",
            "type": "t_uint256"
          },
          {
            "astId": 7116,
            "contract": "contracts/Pool.sol:Pool",
            "label": "entityType",
            "offset": 0,
            "slot": "1",
            "type": "t_uint256"
          },
          {
            "astId": 7118,
            "contract": "contracts/Pool.sol:Pool",
            "label": "ein",
            "offset": 0,
            "slot": "2",
            "type": "t_string_storage"
          },
          {
            "astId": 7120,
            "contract": "contracts/Pool.sol:Pool",
            "label": "dateOfIncorporation",
            "offset": 0,
            "slot": "3",
            "type": "t_string_storage"
          },
          {
            "astId": 7122,
            "contract": "contracts/Pool.sol:Pool",
            "label": "fee",
            "offset": 0,
            "slot": "4",
            "type": "t_uint256"
          }
        ],
        "numberOfBytes": "160"
      },
      "t_struct(Proposal)5154_storage": {
        "encoding": "inplace",
        "label": "struct Governor.Proposal",
        "members": [
          {
            "astId": 5147,
            "contract": "contracts/Pool.sol:Pool",
            "label": "core",
            "offset": 0,
            "slot": "0",
            "type": "t_struct(ProposalCoreData)7082_storage"
          },
          {
            "astId": 5150,
            "contract": "contracts/Pool.sol:Pool",
            "label": "vote",
            "offset": 0,
            "slot": "6",
            "type": "t_struct(ProposalVotingData)5144_storage"
          },
          {
            "astId": 5153,
            "contract": "contracts/Pool.sol:Pool",
            "label": "meta",
            "offset": 0,
            "slot": "12",
            "type": "t_struct(ProposalMetaData)7090_storage"
          }
        ],
        "numberOfBytes": "480"
      },
      "t_struct(ProposalCoreData)7082_storage": {
        "encoding": "inplace",
        "label": "struct IGovernor.ProposalCoreData",
        "members": [
          {
            "astId": 7069,
            "contract": "contracts/Pool.sol:Pool",
            "label": "targets",
            "offset": 0,
            "slot": "0",
            "type": "t_array(t_address)dyn_storage"
          },
          {
            "astId": 7072,
            "contract": "contracts/Pool.sol:Pool",
            "label": "values",
            "offset": 0,
            "slot": "1",
            "type": "t_array(t_uint256)dyn_storage"
          },
          {
            "astId": 7075,
            "contract": "contracts/Pool.sol:Pool",
            "label": "callDatas",
            "offset": 0,
            "slot": "2",
            "type": "t_array(t_bytes_storage)dyn_storage"
          },
          {
            "astId": 7077,
            "contract": "contracts/Pool.sol:Pool",
            "label": "quorumThreshold",
            "offset": 0,
            "slot": "3",
            "type": "t_uint256"
          },
          {
            "astId": 7079,
            "contract": "contracts/Pool.sol:Pool",
            "label": "decisionThreshold",
            "offset": 0,
            "slot": "4",
            "type": "t_uint256"
          },
          {
            "astId": 7081,
            "contract": "contracts/Pool.sol:Pool",
            "label": "executionDelay",
            "offset": 0,
            "slot": "5",
            "type": "t_uint256"
          }
        ],
        "numberOfBytes": "192"
      },
      "t_struct(ProposalMetaData)7090_storage": {
        "encoding": "inplace",
        "label": "struct IGovernor.ProposalMetaData",
        "members": [
          {
            "astId": 7085,
            "contract": "contracts/Pool.sol:Pool",
            "label": "proposalType",
            "offset": 0,
            "slot": "0",
            "type": "t_enum(EventType)7153"
          },
          {
            "astId": 7087,
            "contract": "contracts/Pool.sol:Pool",
            "label": "description",
            "offset": 0,
            "slot": "1",
            "type": "t_string_storage"
          },
          {
            "astId": 7089,
            "contract": "contracts/Pool.sol:Pool",
            "label": "metaHash",
            "offset": 0,
            "slot": "2",
            "type": "t_string_storage"
          }
        ],
        "numberOfBytes": "96"
      },
      "t_struct(ProposalVotingData)5144_storage": {
        "encoding": "inplace",
        "label": "struct Governor.ProposalVotingData",
        "members": [
          {
            "astId": 5132,
            "contract": "contracts/Pool.sol:Pool",
            "label": "startBlock",
            "offset": 0,
            "slot": "0",
            "type": "t_uint256"
          },
          {
            "astId": 5134,
            "contract": "contracts/Pool.sol:Pool",
            "label": "endBlock",
            "offset": 0,
            "slot": "1",
            "type": "t_uint256"
          },
          {
            "astId": 5136,
            "contract": "contracts/Pool.sol:Pool",
            "label": "availableVotes",
            "offset": 0,
            "slot": "2",
            "type": "t_uint256"
          },
          {
            "astId": 5138,
            "contract": "contracts/Pool.sol:Pool",
            "label": "forVotes",
            "offset": 0,
            "slot": "3",
            "type": "t_uint256"
          },
          {
            "astId": 5140,
            "contract": "contracts/Pool.sol:Pool",
            "label": "againstVotes",
            "offset": 0,
            "slot": "4",
            "type": "t_uint256"
          },
          {
            "astId": 5143,
            "contract": "contracts/Pool.sol:Pool",
            "label": "executionState",
            "offset": 0,
            "slot": "5",
            "type": "t_enum(ProposalState)5130"
          }
        ],
        "numberOfBytes": "192"
      },
      "t_struct(Set)2992_storage": {
        "encoding": "inplace",
        "label": "struct EnumerableSetUpgradeable.Set",
        "members": [
          {
            "astId": 2987,
            "contract": "contracts/Pool.sol:Pool",
            "label": "_values",
            "offset": 0,
            "slot": "0",
            "type": "t_array(t_bytes32)dyn_storage"
          },
          {
            "astId": 2991,
            "contract": "contracts/Pool.sol:Pool",
            "label": "_indexes",
            "offset": 0,
            "slot": "1",
            "type": "t_mapping(t_bytes32,t_uint256)"
          }
        ],
        "numberOfBytes": "64"
      },
      "t_uint256": {
        "encoding": "inplace",
        "label": "uint256",
        "numberOfBytes": "32"
      },
      "t_uint8": {
        "encoding": "inplace",
        "label": "uint8",
        "numberOfBytes": "1"
      }
    }
  }
}