{
  "address": "0x2ceaC00b5509A7d857c54477a820dd1D84798bF1",
  "abi": [
    {
      "inputs": [],
      "stateMutability": "nonpayable",
      "type": "constructor"
    },
    {
      "anonymous": false,
      "inputs": [
        {
          "indexed": false,
          "internalType": "uint256",
          "name": "index",
          "type": "uint256"
        },
        {
          "indexed": false,
          "internalType": "address",
          "name": "poolAddress",
          "type": "address"
        }
      ],
      "name": "CompanyCreated",
      "type": "event"
    },
    {
      "anonymous": false,
      "inputs": [
        {
          "indexed": false,
          "internalType": "uint256",
          "name": "metadataIndex",
          "type": "uint256"
        }
      ],
      "name": "CompanyDeleted",
      "type": "event"
    },
    {
      "anonymous": false,
      "inputs": [
        {
          "indexed": false,
          "internalType": "uint256",
          "name": "jurisdiction",
          "type": "uint256"
        },
        {
          "indexed": false,
          "internalType": "uint256",
          "name": "entityType",
          "type": "uint256"
        },
        {
          "indexed": false,
          "internalType": "uint256",
          "name": "id",
          "type": "uint256"
        },
        {
          "indexed": false,
          "internalType": "uint256",
          "name": "fee",
          "type": "uint256"
        }
      ],
      "name": "CompanyFeeUpdated",
      "type": "event"
    },
    {
      "anonymous": false,
      "inputs": [
        {
          "indexed": false,
          "internalType": "uint256",
          "name": "index",
          "type": "uint256"
        },
        {
          "indexed": false,
          "internalType": "address",
          "name": "addr",
          "type": "address"
        },
        {
          "indexed": false,
          "internalType": "enum IRecordsRegistry.ContractType",
          "name": "contractType",
          "type": "uint8"
        }
      ],
      "name": "ContractRecordAdded",
      "type": "event"
    },
    {
      "anonymous": false,
      "inputs": [
        {
          "indexed": false,
          "internalType": "uint256",
          "name": "index",
          "type": "uint256"
        },
        {
          "indexed": false,
          "internalType": "enum IRecordsRegistry.EventType",
          "name": "eventType",
          "type": "uint8"
        },
        {
          "indexed": false,
          "internalType": "address",
          "name": "pool",
          "type": "address"
        },
        {
          "indexed": false,
          "internalType": "uint256",
          "name": "proposalId",
          "type": "uint256"
        }
      ],
      "name": "EventRecordAdded",
      "type": "event"
    },
    {
      "anonymous": false,
      "inputs": [
        {
          "indexed": false,
          "internalType": "uint8",
          "name": "version",
          "type": "uint8"
        }
      ],
      "name": "Initialized",
      "type": "event"
    },
    {
      "anonymous": false,
      "inputs": [
        {
          "indexed": false,
          "internalType": "address",
          "name": "sender",
          "type": "address"
        },
        {
          "indexed": false,
          "internalType": "address",
          "name": "receiver",
          "type": "address"
        },
        {
          "indexed": false,
          "internalType": "uint256",
          "name": "value",
          "type": "uint256"
        },
        {
          "indexed": false,
          "internalType": "bytes",
          "name": "data",
          "type": "bytes"
        }
      ],
      "name": "Log",
      "type": "event"
    },
    {
      "anonymous": false,
      "inputs": [
        {
          "indexed": false,
          "internalType": "uint256",
          "name": "index",
          "type": "uint256"
        },
        {
          "indexed": false,
          "internalType": "address",
          "name": "pool",
          "type": "address"
        },
        {
          "indexed": false,
          "internalType": "uint256",
          "name": "proposalId",
          "type": "uint256"
        }
      ],
      "name": "ProposalRecordAdded",
      "type": "event"
    },
    {
      "anonymous": false,
      "inputs": [
        {
          "indexed": true,
          "internalType": "bytes32",
          "name": "role",
          "type": "bytes32"
        },
        {
          "indexed": true,
          "internalType": "bytes32",
          "name": "previousAdminRole",
          "type": "bytes32"
        },
        {
          "indexed": true,
          "internalType": "bytes32",
          "name": "newAdminRole",
          "type": "bytes32"
        }
      ],
      "name": "RoleAdminChanged",
      "type": "event"
    },
    {
      "anonymous": false,
      "inputs": [
        {
          "indexed": true,
          "internalType": "bytes32",
          "name": "role",
          "type": "bytes32"
        },
        {
          "indexed": true,
          "internalType": "address",
          "name": "account",
          "type": "address"
        },
        {
          "indexed": true,
          "internalType": "address",
          "name": "sender",
          "type": "address"
        }
      ],
      "name": "RoleGranted",
      "type": "event"
    },
    {
      "anonymous": false,
      "inputs": [
        {
          "indexed": true,
          "internalType": "bytes32",
          "name": "role",
          "type": "bytes32"
        },
        {
          "indexed": true,
          "internalType": "address",
          "name": "account",
          "type": "address"
        },
        {
          "indexed": true,
          "internalType": "address",
          "name": "sender",
          "type": "address"
        }
      ],
      "name": "RoleRevoked",
      "type": "event"
    },
    {
      "inputs": [],
      "name": "COMPANIES_MANAGER_ROLE",
      "outputs": [
        {
          "internalType": "bytes32",
          "name": "",
          "type": "bytes32"
        }
      ],
      "stateMutability": "view",
      "type": "function"
    },
    {
      "inputs": [],
      "name": "DEFAULT_ADMIN_ROLE",
      "outputs": [
        {
          "internalType": "bytes32",
          "name": "",
          "type": "bytes32"
        }
      ],
      "stateMutability": "view",
      "type": "function"
    },
    {
      "inputs": [],
      "name": "WHITELISTED_TOKEN_ROLE",
      "outputs": [
        {
          "internalType": "bytes32",
          "name": "",
          "type": "bytes32"
        }
      ],
      "stateMutability": "view",
      "type": "function"
    },
    {
      "inputs": [
        {
          "internalType": "address",
          "name": "addr",
          "type": "address"
        },
        {
          "internalType": "enum IRecordsRegistry.ContractType",
          "name": "contractType",
          "type": "uint8"
        },
        {
          "internalType": "string",
          "name": "description",
          "type": "string"
        }
      ],
      "name": "addContractRecord",
      "outputs": [
        {
          "internalType": "uint256",
          "name": "index",
          "type": "uint256"
        }
      ],
      "stateMutability": "nonpayable",
      "type": "function"
    },
    {
      "inputs": [
        {
          "internalType": "address",
          "name": "pool",
          "type": "address"
        },
        {
          "internalType": "enum IRecordsRegistry.EventType",
          "name": "eventType",
          "type": "uint8"
        },
        {
          "internalType": "address",
          "name": "eventContract",
          "type": "address"
        },
        {
          "internalType": "uint256",
          "name": "proposalId",
          "type": "uint256"
        },
        {
          "internalType": "string",
          "name": "metaHash",
          "type": "string"
        }
      ],
      "name": "addEventRecord",
      "outputs": [
        {
          "internalType": "uint256",
          "name": "index",
          "type": "uint256"
        }
      ],
      "stateMutability": "nonpayable",
      "type": "function"
    },
    {
      "inputs": [
        {
          "internalType": "address",
          "name": "pool",
          "type": "address"
        },
        {
          "internalType": "uint256",
          "name": "proposalId",
          "type": "uint256"
        }
      ],
      "name": "addProposalRecord",
      "outputs": [
        {
          "internalType": "uint256",
          "name": "index",
          "type": "uint256"
        }
      ],
      "stateMutability": "nonpayable",
      "type": "function"
    },
    {
      "inputs": [
        {
          "internalType": "uint256",
          "name": "",
          "type": "uint256"
        }
      ],
      "name": "companies",
      "outputs": [
        {
          "internalType": "uint256",
          "name": "jurisdiction",
          "type": "uint256"
        },
        {
          "internalType": "uint256",
          "name": "entityType",
          "type": "uint256"
        },
        {
          "internalType": "string",
          "name": "ein",
          "type": "string"
        },
        {
          "internalType": "string",
          "name": "dateOfIncorporation",
          "type": "string"
        },
        {
          "internalType": "uint256",
          "name": "fee",
          "type": "uint256"
        }
      ],
      "stateMutability": "view",
      "type": "function"
    },
    {
      "inputs": [
        {
          "internalType": "uint256",
          "name": "jurisdiction",
          "type": "uint256"
        },
        {
          "internalType": "uint256",
          "name": "entityType",
          "type": "uint256"
        }
      ],
      "name": "companyAvailable",
      "outputs": [
        {
          "internalType": "bool",
          "name": "",
          "type": "bool"
        }
      ],
      "stateMutability": "view",
      "type": "function"
    },
    {
      "inputs": [
        {
          "internalType": "bytes32",
          "name": "",
          "type": "bytes32"
        }
      ],
      "name": "companyIndex",
      "outputs": [
        {
          "internalType": "uint256",
          "name": "",
          "type": "uint256"
        }
      ],
      "stateMutability": "view",
      "type": "function"
    },
    {
      "inputs": [
        {
          "internalType": "uint256",
          "name": "",
          "type": "uint256"
        }
      ],
      "name": "contractRecords",
      "outputs": [
        {
          "internalType": "address",
          "name": "addr",
          "type": "address"
        },
        {
          "internalType": "enum IRecordsRegistry.ContractType",
          "name": "contractType",
          "type": "uint8"
        },
        {
          "internalType": "string",
          "name": "description",
          "type": "string"
        }
      ],
      "stateMutability": "view",
      "type": "function"
    },
    {
      "inputs": [],
      "name": "contractRecordsCount",
      "outputs": [
        {
          "internalType": "uint256",
          "name": "",
          "type": "uint256"
        }
      ],
      "stateMutability": "view",
      "type": "function"
    },
    {
      "inputs": [
        {
          "components": [
            {
              "internalType": "uint256",
              "name": "jurisdiction",
              "type": "uint256"
            },
            {
              "internalType": "uint256",
              "name": "entityType",
              "type": "uint256"
            },
            {
              "internalType": "string",
              "name": "ein",
              "type": "string"
            },
            {
              "internalType": "string",
              "name": "dateOfIncorporation",
              "type": "string"
            },
            {
              "internalType": "uint256",
              "name": "fee",
              "type": "uint256"
            }
          ],
          "internalType": "struct ICompaniesRegistry.CompanyInfo",
          "name": "info",
          "type": "tuple"
        }
      ],
      "name": "createCompany",
      "outputs": [],
      "stateMutability": "nonpayable",
      "type": "function"
    },
    {
      "inputs": [
        {
          "internalType": "uint256",
          "name": "jurisdiction",
          "type": "uint256"
        },
        {
          "internalType": "uint256",
          "name": "entityType",
          "type": "uint256"
        },
        {
          "internalType": "uint256",
          "name": "id",
          "type": "uint256"
        }
      ],
      "name": "deleteCompany",
      "outputs": [],
      "stateMutability": "nonpayable",
      "type": "function"
    },
    {
      "inputs": [],
      "name": "eventRecordsCount",
      "outputs": [
        {
          "internalType": "uint256",
          "name": "",
          "type": "uint256"
        }
      ],
      "stateMutability": "view",
      "type": "function"
    },
    {
      "inputs": [
        {
          "internalType": "uint256",
          "name": "",
          "type": "uint256"
        }
      ],
      "name": "events",
      "outputs": [
        {
          "internalType": "enum IRecordsRegistry.EventType",
          "name": "eventType",
          "type": "uint8"
        },
        {
          "internalType": "address",
          "name": "pool",
          "type": "address"
        },
        {
          "internalType": "address",
          "name": "eventContract",
          "type": "address"
        },
        {
          "internalType": "uint256",
          "name": "proposalId",
          "type": "uint256"
        },
        {
          "internalType": "string",
          "name": "metaHash",
          "type": "string"
        }
      ],
      "stateMutability": "view",
      "type": "function"
    },
    {
      "inputs": [
        {
          "internalType": "uint256",
          "name": "jurisdiction",
          "type": "uint256"
        },
        {
          "internalType": "uint256",
          "name": "entityType",
          "type": "uint256"
        }
      ],
      "name": "getAvailableCompanyAddress",
      "outputs": [
        {
          "internalType": "address",
          "name": "",
          "type": "address"
        }
      ],
      "stateMutability": "view",
      "type": "function"
    },
    {
      "inputs": [
        {
          "internalType": "uint256",
          "name": "jurisdiction",
          "type": "uint256"
        },
        {
          "internalType": "uint256",
          "name": "entityType",
          "type": "uint256"
        },
        {
          "internalType": "string",
          "name": "ein",
          "type": "string"
        }
      ],
      "name": "getCompany",
      "outputs": [
        {
          "components": [
            {
              "internalType": "uint256",
              "name": "jurisdiction",
              "type": "uint256"
            },
            {
              "internalType": "uint256",
              "name": "entityType",
              "type": "uint256"
            },
            {
              "internalType": "string",
              "name": "ein",
              "type": "string"
            },
            {
              "internalType": "string",
              "name": "dateOfIncorporation",
              "type": "string"
            },
            {
              "internalType": "uint256",
              "name": "fee",
              "type": "uint256"
            }
          ],
          "internalType": "struct ICompaniesRegistry.CompanyInfo",
          "name": "",
          "type": "tuple"
        }
      ],
      "stateMutability": "view",
      "type": "function"
    },
    {
      "inputs": [
        {
          "internalType": "uint256",
          "name": "jurisdiction",
          "type": "uint256"
        },
        {
          "internalType": "uint256",
          "name": "entityType",
          "type": "uint256"
        },
        {
          "internalType": "uint256",
          "name": "id",
          "type": "uint256"
        }
      ],
      "name": "getCompanyPoolAddress",
      "outputs": [
        {
          "internalType": "address",
          "name": "",
          "type": "address"
        }
      ],
      "stateMutability": "view",
      "type": "function"
    },
    {
      "inputs": [
        {
          "internalType": "address",
          "name": "pool",
          "type": "address"
        },
        {
          "internalType": "uint256",
          "name": "proposalId",
          "type": "uint256"
        }
      ],
      "name": "getGlobalProposalId",
      "outputs": [
        {
          "internalType": "uint256",
          "name": "",
          "type": "uint256"
        }
      ],
      "stateMutability": "view",
      "type": "function"
    },
    {
      "inputs": [
        {
          "internalType": "bytes32",
          "name": "role",
          "type": "bytes32"
        }
      ],
      "name": "getRoleAdmin",
      "outputs": [
        {
          "internalType": "bytes32",
          "name": "",
          "type": "bytes32"
        }
      ],
      "stateMutability": "view",
      "type": "function"
    },
    {
      "inputs": [
        {
          "internalType": "bytes32",
          "name": "role",
          "type": "bytes32"
        },
        {
          "internalType": "uint256",
          "name": "index",
          "type": "uint256"
        }
      ],
      "name": "getRoleMember",
      "outputs": [
        {
          "internalType": "address",
          "name": "",
          "type": "address"
        }
      ],
      "stateMutability": "view",
      "type": "function"
    },
    {
      "inputs": [
        {
          "internalType": "bytes32",
          "name": "role",
          "type": "bytes32"
        }
      ],
      "name": "getRoleMemberCount",
      "outputs": [
        {
          "internalType": "uint256",
          "name": "",
          "type": "uint256"
        }
      ],
      "stateMutability": "view",
      "type": "function"
    },
    {
      "inputs": [
        {
          "internalType": "address",
          "name": "",
          "type": "address"
        },
        {
          "internalType": "uint256",
          "name": "",
          "type": "uint256"
        }
      ],
      "name": "globalProposalIds",
      "outputs": [
        {
          "internalType": "uint256",
          "name": "",
          "type": "uint256"
        }
      ],
      "stateMutability": "view",
      "type": "function"
    },
    {
      "inputs": [
        {
          "internalType": "bytes32",
          "name": "role",
          "type": "bytes32"
        },
        {
          "internalType": "address",
          "name": "account",
          "type": "address"
        }
      ],
      "name": "grantRole",
      "outputs": [],
      "stateMutability": "nonpayable",
      "type": "function"
    },
    {
      "inputs": [
        {
          "internalType": "bytes32",
          "name": "role",
          "type": "bytes32"
        },
        {
          "internalType": "address",
          "name": "account",
          "type": "address"
        }
      ],
      "name": "hasRole",
      "outputs": [
        {
          "internalType": "bool",
          "name": "",
          "type": "bool"
        }
      ],
      "stateMutability": "view",
      "type": "function"
    },
    {
      "inputs": [
        {
          "internalType": "address",
          "name": "",
          "type": "address"
        }
      ],
      "name": "indexOfContract",
      "outputs": [
        {
          "internalType": "bool",
          "name": "exists",
          "type": "bool"
        },
        {
          "internalType": "uint160",
          "name": "index",
          "type": "uint160"
        }
      ],
      "stateMutability": "view",
      "type": "function"
    },
    {
      "inputs": [],
      "name": "initialize",
      "outputs": [],
      "stateMutability": "nonpayable",
      "type": "function"
    },
    {
      "inputs": [
        {
          "internalType": "address",
          "name": "token",
          "type": "address"
        }
      ],
      "name": "isTokenWhitelisted",
      "outputs": [
        {
          "internalType": "bool",
          "name": "",
          "type": "bool"
        }
      ],
      "stateMutability": "view",
      "type": "function"
    },
    {
      "inputs": [],
      "name": "lastCompanyIndex",
      "outputs": [
        {
          "internalType": "uint256",
          "name": "",
          "type": "uint256"
        }
      ],
      "stateMutability": "view",
      "type": "function"
    },
    {
      "inputs": [
        {
          "internalType": "uint256",
          "name": "jurisdiction",
          "type": "uint256"
        },
        {
          "internalType": "uint256",
          "name": "entityType",
          "type": "uint256"
        }
      ],
      "name": "lockCompany",
      "outputs": [
        {
          "components": [
            {
              "internalType": "uint256",
              "name": "jurisdiction",
              "type": "uint256"
            },
            {
              "internalType": "uint256",
              "name": "entityType",
              "type": "uint256"
            },
            {
              "internalType": "string",
              "name": "ein",
              "type": "string"
            },
            {
              "internalType": "string",
              "name": "dateOfIncorporation",
              "type": "string"
            },
            {
              "internalType": "uint256",
              "name": "fee",
              "type": "uint256"
            }
          ],
          "internalType": "struct ICompaniesRegistry.CompanyInfo",
          "name": "info",
          "type": "tuple"
        }
      ],
      "stateMutability": "nonpayable",
      "type": "function"
    },
    {
      "inputs": [
        {
          "internalType": "address",
          "name": "sender",
          "type": "address"
        },
        {
          "internalType": "address",
          "name": "receiver",
          "type": "address"
        },
        {
          "internalType": "uint256",
          "name": "value",
          "type": "uint256"
        },
        {
          "internalType": "bytes",
          "name": "data",
          "type": "bytes"
        }
      ],
      "name": "log",
      "outputs": [],
      "stateMutability": "nonpayable",
      "type": "function"
    },
    {
      "inputs": [
        {
          "internalType": "uint256",
          "name": "",
          "type": "uint256"
        }
      ],
      "name": "proposalRecords",
      "outputs": [
        {
          "internalType": "address",
          "name": "pool",
          "type": "address"
        },
        {
          "internalType": "uint256",
          "name": "proposalId",
          "type": "uint256"
        },
        {
          "internalType": "string",
          "name": "description",
          "type": "string"
        }
      ],
      "stateMutability": "view",
      "type": "function"
    },
    {
      "inputs": [],
      "name": "proposalRecordsCount",
      "outputs": [
        {
          "internalType": "uint256",
          "name": "",
          "type": "uint256"
        }
      ],
      "stateMutability": "view",
      "type": "function"
    },
    {
      "inputs": [
        {
          "internalType": "uint256",
          "name": "",
          "type": "uint256"
        },
        {
          "internalType": "uint256",
          "name": "",
          "type": "uint256"
        },
        {
          "internalType": "uint256",
          "name": "",
          "type": "uint256"
        }
      ],
      "name": "queue",
      "outputs": [
        {
          "internalType": "uint256",
          "name": "",
          "type": "uint256"
        }
      ],
      "stateMutability": "view",
      "type": "function"
    },
    {
      "inputs": [
        {
          "internalType": "bytes32",
          "name": "role",
          "type": "bytes32"
        },
        {
          "internalType": "address",
          "name": "account",
          "type": "address"
        }
      ],
      "name": "renounceRole",
      "outputs": [],
      "stateMutability": "nonpayable",
      "type": "function"
    },
    {
      "inputs": [
        {
          "internalType": "bytes32",
          "name": "role",
          "type": "bytes32"
        },
        {
          "internalType": "address",
          "name": "account",
          "type": "address"
        }
      ],
      "name": "revokeRole",
      "outputs": [],
      "stateMutability": "nonpayable",
      "type": "function"
    },
    {
      "inputs": [],
      "name": "service",
      "outputs": [
        {
          "internalType": "address",
          "name": "",
          "type": "address"
        }
      ],
      "stateMutability": "view",
      "type": "function"
    },
    {
      "inputs": [
        {
          "internalType": "contract IPool",
          "name": "pool",
          "type": "address"
        },
        {
          "internalType": "uint256",
          "name": "_jurisdiction",
          "type": "uint256"
        },
        {
          "internalType": "uint256",
          "name": "_entityType",
          "type": "uint256"
        },
        {
          "internalType": "string",
          "name": "_ein",
          "type": "string"
        },
        {
          "internalType": "string",
          "name": "_dateOfIncorporation",
          "type": "string"
        },
        {
          "internalType": "string",
          "name": "_OAuri",
          "type": "string"
        }
      ],
      "name": "setCompanyInfoForPool",
      "outputs": [],
      "stateMutability": "nonpayable",
      "type": "function"
    },
    {
      "inputs": [
        {
          "internalType": "address",
          "name": "service_",
          "type": "address"
        }
      ],
      "name": "setService",
      "outputs": [],
      "stateMutability": "nonpayable",
      "type": "function"
    },
    {
      "inputs": [
        {
          "internalType": "bytes4",
          "name": "interfaceId",
          "type": "bytes4"
        }
      ],
      "name": "supportsInterface",
      "outputs": [
        {
          "internalType": "bool",
          "name": "",
          "type": "bool"
        }
      ],
      "stateMutability": "view",
      "type": "function"
    },
    {
      "inputs": [
        {
          "internalType": "address",
          "name": "addr",
          "type": "address"
        }
      ],
      "name": "typeOf",
      "outputs": [
        {
          "internalType": "enum IRecordsRegistry.ContractType",
          "name": "",
          "type": "uint8"
        }
      ],
      "stateMutability": "view",
      "type": "function"
    },
    {
      "inputs": [
        {
          "internalType": "uint256",
          "name": "jurisdiction",
          "type": "uint256"
        },
        {
          "internalType": "uint256",
          "name": "entityType",
          "type": "uint256"
        },
        {
          "internalType": "uint256",
          "name": "id",
          "type": "uint256"
        },
        {
          "internalType": "uint256",
          "name": "fee",
          "type": "uint256"
        }
      ],
      "name": "updateCompanyFee",
      "outputs": [],
      "stateMutability": "nonpayable",
      "type": "function"
    },
    {
      "inputs": [
        {
          "internalType": "address[]",
          "name": "tokens",
          "type": "address[]"
        }
      ],
      "name": "whitelistTokens",
      "outputs": [],
      "stateMutability": "nonpayable",
      "type": "function"
    }
  ],
  "transactionHash": "0x7fd903faa520101449cb78e67fc53a21fb8d2b54f416e9b0efc50826d05defb1",
  "args": [],
  "numDeployments": 6,
  "solcInputHash": "17baca07b6e1599890acef9b38931169",
  "bytecode": "0x60806040523480156200001157600080fd5b506200001c62000022565b620000e4565b600054610100900460ff16156200008f5760405162461bcd60e51b815260206004820152602760248201527f496e697469616c697a61626c653a20636f6e747261637420697320696e697469604482015266616c697a696e6760c81b606482015260840160405180910390fd5b60005460ff9081161015620000e2576000805460ff191660ff9081179091556040519081527f7f26b83ff96e1f2b6a682f133852f6798a09c465da95921460cefb38474024989060200160405180910390a15b565b613b3180620000f46000396000f3fe608060405234801561001057600080fd5b50600436106102695760003560e01c80638129fc1c11610151578063ca197b31116100c3578063e79d593011610087578063e79d593014610631578063e7fce55f1461063a578063eaa2e8891461064d578063ee1019d414610683578063f05fdfa614610696578063f4be9369146106a957600080fd5b8063ca197b31146105d0578063d247616c146105e3578063d547741f146105f6578063d598d4c914610609578063e2938db51461061c57600080fd5b8063a217fddf11610115578063a217fddf14610551578063a5bf541314610559578063a9757fbd1461056c578063b5af090f14610597578063bf8bdac1146105aa578063ca15c873146105bd57600080fd5b80638129fc1c146105135780638fc51e411461051b5780639010d07c1461052357806391d1485414610536578063a1aa7bcc1461054957600080fd5b8063248a9ca3116101ea5780633c6b770b116101ae5780633c6b770b146104855780634cb1e9e3146104985780634dbb83fd146104ab5780635d9c7cba146104be578063648bbcdf146104e05780636dcb0cf8146104f357600080fd5b8063248a9ca31461040e5780632813d19d146104315780632f2ff15d146104555780633511e9951461046a57806336568abe1461047257600080fd5b806310eca5061161023157806310eca50614610340578063121f661c146103605780631d5033a6146103b25780631f8b4005146103d957806323689a0b146103ec57600080fd5b806301ffc9a71461026e5780630455b403146102965780630962c8c4146102c45780630b791430146102f157806310641b1514610315575b600080fd5b61028161027c366004612c0f565b6106bc565b60405190151581526020015b60405180910390f35b6102b66102a4366004612c39565b60cd6020526000908152604090205481565b60405190815260200161028d565b6102816102d2366004612c52565b600091825260ca60209081526040808420928452919052902054151590565b6103046102ff366004612c39565b6106e7565b60405161028d959493929190612cee565b610328610323366004612d39565b6107c3565b6040516001600160a01b03909116815260200161028d565b61035361034e366004612dad565b610888565b60405161028d9190612dff565b61039361036e366004612e78565b60cf6020526000908152604090205460ff81169061010090046001600160a01b031682565b6040805192151583526001600160a01b0390911660208301520161028d565b6102b67fa21b4d8440b478c033018a500413e67ca2910a10ce4992fb2dcba26856a32e8981565b6102b66103e7366004612f40565b610a59565b6103ff6103fa366004612c39565b610d31565b60405161028d93929190612fa5565b6102b661041c366004612c39565b60009081526065602052604090206001015490565b61044461043f366004612c39565b610dfa565b60405161028d959493929190612fcc565b610468610463366004613010565b610f39565b005b60ce546102b6565b610468610480366004613010565b610f63565b6102b6610493366004613040565b610fe1565b6104686104a63660046130c8565b6112c4565b6104686104b936600461313c565b611342565b6104d16104cc366004612c39565b611627565b60405161028d939291906131cb565b6103286104ee366004612c52565b611671565b610506610501366004612e78565b611796565b60405161028d91906131fa565b610468611824565b60d1546102b6565b610328610531366004612c52565b611935565b610281610544366004613010565b61194d565b60d0546102b6565b6102b6600081565b610468610567366004613208565b611978565b6102b661057a3660046132b4565b60d260209081526000928352604080842090915290825290205481565b6102816105a5366004612e78565b6119ff565b6104686105b8366004612e78565b611a2b565b6102b66105cb366004612c39565b611a59565b6104686105de366004612d39565b611a70565b6102b66105f1366004612d39565b611cf5565b610468610604366004613010565b611d33565b60c954610328906001600160a01b031681565b6102b6600080516020613adc83398151915281565b6102b660cc5481565b6104686106483660046132e0565b611d58565b6102b661065b3660046132b4565b6001600160a01b0391909116600090815260d260209081526040808320938352929052205490565b610353610691366004612c52565b6120bf565b6104686106a436600461331a565b6123c5565b6102b66106b73660046132b4565b612479565b60006001600160e01b03198216635a05180f60e01b14806106e157506106e182612627565b92915050565b60d181815481106106f757600080fd5b6000918252602090912060049091020180546001820154600283015460038401805460ff851696506101009094046001600160a01b03908116959316939192916107409061334c565b80601f016020809104026020016040519081016040528092919081815260200182805461076c9061334c565b80156107b95780601f1061078e576101008083540402835291602001916107b9565b820191906000526020600020905b81548152906001019060200180831161079c57829003601f168201915b5050505050905085565b600083815260ca6020908152604080832085845290915281208054829190849081106107f1576107f1613386565b600091825260208083209091015460c95481845260cb90925260409283902092516313d0592f60e31b81529093506001600160a01b0390911691639e82c9789161083e9190600401613419565b602060405180830381865afa15801561085b573d6000803e3d6000fd5b505050506040513d601f19601f8201168201806040525081019061087f9190613476565b95945050505050565b6108ba6040518060a0016040528060008152602001600081526020016060815260200160608152602001600081525090565b6000858585856040516020016108d39493929190613493565b60408051601f198184030181528282528051602091820120600081815260cd835283812054815260cb835283902060a0850184528054855260018101549285019290925260028201805491955091928401919061092f9061334c565b80601f016020809104026020016040519081016040528092919081815260200182805461095b9061334c565b80156109a85780601f1061097d576101008083540402835291602001916109a8565b820191906000526020600020905b81548152906001019060200180831161098b57829003601f168201915b505050505081526020016003820180546109c19061334c565b80601f01602080910402602001604051908101604052809291908181526020018280546109ed9061334c565b8015610a3a5780601f10610a0f57610100808354040283529160200191610a3a565b820191906000526020600020905b815481529060010190602001808311610a1d57829003601f168201915b505050505081526020016004820154815250509150505b949350505050565b60c954604080516373bbb97f60e11b815290516000926001600160a01b031633811492849263e77772fe916004808201926020929091908290030181865afa158015610aa9573d6000803e3d6000fd5b505050506040513d601f19601f82011682018060405250810190610acd9190613476565b6001600160a01b0316336001600160a01b03161480610b73575060c960009054906101000a90046001600160a01b03166001600160a01b031663102c5c016040518163ffffffff1660e01b8152600401602060405180830381865afa158015610b3a573d6000803e3d6000fd5b505050506040513d601f19601f82011682018060405250810190610b5e9190613476565b6001600160a01b0316336001600160a01b0316145b90508180610b7e5750805b6040518060400160405280600b81526020016a4e4f545f5345525649434560a81b81525090610bc95760405162461bcd60e51b8152600401610bc091906134b4565b60405180910390fd5b5060ce6040518060600160405280886001600160a01b03168152602001876004811115610bf857610bf8612c74565b815260209081018790528254600181018455600093845292819020825160029094020180546001600160a01b039094166001600160a01b031985168117825591830151929390929183916001600160a81b03191617600160a01b836004811115610c6457610c64612c74565b021790555060408201516001820190610c7d908261352a565b505060ce54610c8f91506001906135f9565b604080518082018252600181526001600160a01b0383811660208084019182528b8316600090815260cf9091528490209251835491516001600160a81b0319909216901515610100600160a81b031916176101009190921602179055519093507f30ae76c641f7b77628da0dd91b34591e5b1dc7422220e5eb1080af2adfa142ef90610d209085908990899061360c565b60405180910390a150509392505050565b60d08181548110610d4157600080fd5b60009182526020909120600390910201805460018201546002830180546001600160a01b039093169450909291610d779061334c565b80601f0160208091040260200160405190810160405280929190818152602001828054610da39061334c565b8015610df05780601f10610dc557610100808354040283529160200191610df0565b820191906000526020600020905b815481529060010190602001808311610dd357829003601f168201915b5050505050905083565b60cb6020526000908152604090208054600182015460028301805492939192610e229061334c565b80601f0160208091040260200160405190810160405280929190818152602001828054610e4e9061334c565b8015610e9b5780601f10610e7057610100808354040283529160200191610e9b565b820191906000526020600020905b815481529060010190602001808311610e7e57829003601f168201915b505050505090806003018054610eb09061334c565b80601f0160208091040260200160405190810160405280929190818152602001828054610edc9061334c565b8015610f295780601f10610efe57610100808354040283529160200191610f29565b820191906000526020600020905b815481529060010190602001808311610f0c57829003601f168201915b5050505050908060040154905085565b600082815260656020526040902060010154610f548161265c565b610f5e8383612666565b505050565b6001600160a01b0381163314610fd35760405162461bcd60e51b815260206004820152602f60248201527f416363657373436f6e74726f6c3a2063616e206f6e6c792072656e6f756e636560448201526e103937b632b9903337b91039b2b63360891b6064820152608401610bc0565b610fdd8282612688565b5050565b60c954604080516373bbb97f60e11b815290516000926001600160a01b031633811492849263e77772fe916004808201926020929091908290030181865afa158015611031573d6000803e3d6000fd5b505050506040513d601f19601f820116820180604052508101906110559190613476565b6001600160a01b0316336001600160a01b031614806110fb575060c960009054906101000a90046001600160a01b03166001600160a01b031663102c5c016040518163ffffffff1660e01b8152600401602060405180830381865afa1580156110c2573d6000803e3d6000fd5b505050506040513d601f19601f820116820180604052508101906110e69190613476565b6001600160a01b0316336001600160a01b0316145b905081806111065750805b6040518060400160405280600b81526020016a4e4f545f5345525649434560a81b815250906111485760405162461bcd60e51b8152600401610bc091906134b4565b5060d16040518060a001604052808a600381111561116857611168612c74565b81526020018b6001600160a01b03168152602001896001600160a01b0316815260200188815260200187878080601f016020809104026020016040519081016040528093929190818152602001838380828437600092018290525093909452505083546001818101865594825260209091208351600490920201805493949093919250839160ff19169083600381111561120457611204612c74565b021790555060208201518154610100600160a81b0319166101006001600160a01b039283160217825560408301516001830180546001600160a01b031916919092161790556060820151600282015560808201516003820190611267908261352a565b505060d15461127991506001906135f9565b92507fcd6a83e26b7223cb3ee566d6b45eb10629b98ee7442e79f67db857b62247eb4383898b896040516112b0949392919061362f565b60405180910390a150509695505050505050565b60006112cf8161265c565b60005b8281101561133c5761132a7fa21b4d8440b478c033018a500413e67ca2910a10ce4992fb2dcba26856a32e8985858481811061131057611310613386565b90506020020160208101906113259190612e78565b612666565b806113348161365e565b9150506112d2565b50505050565b3330148061135a575060c9546001600160a01b031633145b806113ec575060c960009054906101000a90046001600160a01b03166001600160a01b031663102c5c016040518163ffffffff1660e01b8152600401602060405180830381865afa1580156113b3573d6000803e3d6000fd5b505050506040513d601f19601f820116820180604052508101906113d79190613476565b6001600160a01b0316336001600160a01b0316145b8061147e575060c960009054906101000a90046001600160a01b03166001600160a01b031663895ae2796040518163ffffffff1660e01b8152600401602060405180830381865afa158015611445573d6000803e3d6000fd5b505050506040513d601f19601f820116820180604052508101906114699190613476565b6001600160a01b0316336001600160a01b0316145b80611510575060c960009054906101000a90046001600160a01b03166001600160a01b03166344c63eec6040518163ffffffff1660e01b8152600401602060405180830381865afa1580156114d7573d6000803e3d6000fd5b505050506040513d601f19601f820116820180604052508101906114fb9190613476565b6001600160a01b0316336001600160a01b0316145b806115345750600161152133611796565b600481111561153257611532612c74565b145b806115585750600461154533611796565b600481111561155657611556612c74565b145b8061157c5750600261156933611796565b600481111561157a5761157a612c74565b145b806115a05750600361158d33611796565b600481111561159e5761159e612c74565b145b6040518060400160405280600c81526020016b24a72b20a624a22faaa9a2a960a11b815250906115e35760405162461bcd60e51b8152600401610bc091906134b4565b507f2a5fa6618f4237f1351efabbeccfa9264e91c3c9401e687b0fe6a17d2aac0368848484846040516116199493929190613677565b60405180910390a150505050565b60ce818154811061163757600080fd5b6000918252602090912060029091020180546001820180546001600160a01b0383169450600160a01b90920460ff169291610d779061334c565b600082815260ca602090815260408083208484528252808320548151808301909252600a8252694e4f5f434f4d50414e5960b01b92820192909252816116ca5760405162461bcd60e51b8152600401610bc091906134b4565b50600084815260ca6020908152604080832086845290915281206116ef6001846135f9565b815481106116ff576116ff613386565b600091825260208083209091015460c95481845260cb909252604080842090516313d0592f60e31b81529194506001600160a01b0390921691639e82c9789161174b9190600401613419565b602060405180830381865afa158015611768573d6000803e3d6000fd5b505050506040513d601f19601f8201168201806040525081019061178c9190613476565b9695505050505050565b6001600160a01b03808216600090815260cf6020908152604080832081518083019092525460ff811615158083526101009091049094169181019190915290916117e157600061181d565b60ce81602001516001600160a01b03168154811061180157611801613386565b6000918252602090912060029091020154600160a01b900460ff165b9392505050565b600054610100900460ff16158080156118445750600054600160ff909116105b8061185e5750303b15801561185e575060005460ff166001145b6118c15760405162461bcd60e51b815260206004820152602e60248201527f496e697469616c697a61626c653a20636f6e747261637420697320616c72656160448201526d191e481a5b9a5d1a585b1a5e995960921b6064820152608401610bc0565b6000805460ff1916600117905580156118e4576000805461ff0019166101001790555b6118ec6126aa565b8015611932576000805461ff0019169055604051600181527f7f26b83ff96e1f2b6a682f133852f6798a09c465da95921460cefb38474024989060200160405180910390a15b50565b600082815260976020526040812061181d9083612722565b60009182526065602090815260408084206001600160a01b0393909316845291905290205460ff1690565b600080516020613adc8339815191526119908161265c565b604051634f706c8b60e01b81526001600160a01b03881690634f706c8b906119c490899089908990899089906004016136aa565b600060405180830381600087803b1580156119de57600080fd5b505af11580156119f2573d6000803e3d6000fd5b5050505050505050505050565b60006106e17fa21b4d8440b478c033018a500413e67ca2910a10ce4992fb2dcba26856a32e898361194d565b6000611a368161265c565b5060c980546001600160a01b0319166001600160a01b0392909216919091179055565b60008181526097602052604081206106e19061272e565b600080516020613adc833981519152611a888161265c565b600084815260ca602090815260408083208684529091528120805484908110611ab357611ab3613386565b600091825260208083209091015487835260ca8252604080842088855290925290822054909250611ae6906001906135f9565b600087815260ca60209081526040808320898452909152902080549192509082908110611b1557611b15613386565b600091825260208083209091015488835260ca825260408084208985529092529120805486908110611b4957611b49613386565b600091825260208083209091019290925587815260ca8252604080822088835290925220805480611b7c57611b7c6136fb565b60019003818190600052602060002001600090559055600060cb60008481526020019081526020016000206002018054611bb59061334c565b80601f0160208091040260200160405190810160405280929190818152602001828054611be19061334c565b8015611c2e5780601f10611c0357610100808354040283529160200191611c2e565b820191906000526020600020905b815481529060010190602001808311611c1157829003601f168201915b505050600086815260cb60205260408120818155600181018290559394509150611c5d90506002830182612bc1565b611c6b600383016000612bc1565b600482016000905550506000878783604051602001611c8c93929190613711565b60408051601f198184030181528282528051602091820120600081815260cd9092529181205591507f2becd600b42eb771bee46672694b5a9e9d0acb6638d9c9a5e39bcc70954b741690611ce39088815260200190565b60405180910390a15050505050505050565b60ca6020528260005260406000206020528160005260406000208181548110611d1d57600080fd5b9060005260206000200160009250925050505481565b600082815260656020526040902060010154611d4e8161265c565b610f5e8383612688565b600080516020613adc833981519152611d708161265c565b813515801590611d8d5750611d88604083018361373e565b151590505b8015611da65750611da1606083018361373e565b151590505b8015611db6575060008260200135115b6040518060400160405280600a81526020016956414c55455f5a45524f60b01b81525090611df75760405162461bcd60e51b8152600401610bc091906134b4565b50600082356020840135611e0e604086018661373e565b604051602001611e219493929190613493565b60408051601f198184030181528282528051602091820120600081815260cd835283902054848401909352600b84526a24a72b20a624a22fa2a4a760a91b91840191909152925015611e865760405162461bcd60e51b8152600401610bc091906134b4565b50600060cc60008154611e989061365e565b9182905550600083815260cd6020908152604080832084905583835260cb90915290209091508490611eca828261383e565b50508335600090815260ca6020908152604080832082880135845282528083208054600181018255908452919092200182905560c95490516313d0592f60e31b81527f101856a493ff171c996b3f5ccb7f358d91bcf5c3e3c6858be43f924132d676569183916001600160a01b0390911690639e82c97890611f509089906004016139ad565b602060405180830381865afa158015611f6d573d6000803e3d6000fd5b505050506040513d601f19601f82011682018060405250810190611f919190613476565b604080519283526001600160a01b0390911660208301520160405180910390a160c954604051630283b11d60e41b81526001600160a01b039091169063283b11d090611fe19087906004016139ad565b600060405180830381600087803b158015611ffb57600080fd5b505af115801561200f573d6000803e3d6000fd5b50505050306001600160a01b0316634dbb83fd3330600063e7fce55f60e01b8960405160240161203f91906139ad565b60408051601f198184030181529181526020820180516001600160e01b03166001600160e01b03199485161790525160e087901b909216825261208794939291600401613677565b600060405180830381600087803b1580156120a157600080fd5b505af11580156120b5573d6000803e3d6000fd5b5050505050505050565b6120f16040518060a0016040528060008152602001600081526020016060815260200160608152602001600081525090565b60c95460408051808201909152600b81526a4e4f545f5345525649434560a81b6020820152906001600160a01b0316331461213f5760405162461bcd60e51b8152600401610bc091906134b4565b50600083815260ca60209081526040808320858452825291829020548251808401909352600a8352694e4f5f434f4d50414e5960b01b91830191909152908161219b5760405162461bcd60e51b8152600401610bc091906134b4565b50600084815260ca6020908152604080832086845290915281206121c06001846135f9565b815481106121d0576121d0613386565b600091825260208083209091015487835260ca82526040808420888552909252912080549192509080612205576122056136fb565b6001900381819060005260206000200160009055905560cb60008281526020019081526020016000206040518060a0016040529081600082015481526020016001820154815260200160028201805461225d9061334c565b80601f01602080910402602001604051908101604052809291908181526020018280546122899061334c565b80156122d65780601f106122ab576101008083540402835291602001916122d6565b820191906000526020600020905b8154815290600101906020018083116122b957829003601f168201915b505050505081526020016003820180546122ef9061334c565b80601f016020809104026020016040519081016040528092919081815260200182805461231b9061334c565b80156123685780601f1061233d57610100808354040283529160200191612368565b820191906000526020600020905b81548152906001019060200180831161234b57829003601f168201915b505050918352505060049190910154602091820152600083815260cb90915260408120818155600181018290559194506123a56002830182612bc1565b6123b3600383016000612bc1565b60048201600090555050505092915050565b600080516020613adc8339815191526123dd8161265c565b600085815260ca60209081526040808320878452909152812080548590811061240857612408613386565b600091825260208083209091015480835260cb82526040928390206004018690558251898152918201889052918101869052606081018590529091507f8aa521ded3813d116c8e8814b232c4f842dcf88bc533edf4f4e52741138e3bd39060800160405180910390a1505050505050565b60c95460408051808201909152600b81526a4e4f545f5345525649434560a81b60208201526000916001600160a01b031633146124c95760405162461bcd60e51b8152600401610bc091906134b4565b50604080516060810182526001600160a01b038581168252602080830186815284519182018552600080835294840191825260d08054600181018255955283517fe89d44c8fd6a9bac8af33ce47f56337617d449bf7ff3956b618c646de829cbcb600390960295860180546001600160a01b03191691909416178355517fe89d44c8fd6a9bac8af33ce47f56337617d449bf7ff3956b618c646de829cbcc85015551919290917fe89d44c8fd6a9bac8af33ce47f56337617d449bf7ff3956b618c646de829cbcd9091019061259e908261352a565b505060d0546125b091506001906135f9565b6001600160a01b038416600090815260d26020908152604080832086845290915290208190559050604080518281526001600160a01b03851660208201529081018390527f275b6fbf6c9e793a28d01c614ff750fb316acacb6c25f06fdb8ac72d9dbabb089060600160405180910390a192915050565b60006001600160e01b03198216637965db0b60e01b14806106e157506301ffc9a760e01b6001600160e01b03198316146106e1565b6119328133612738565b6126708282612791565b6000828152609760205260409020610f5e9082612817565b612692828261282c565b6000828152609760205260409020610f5e9082612893565b600054610100900460ff166127155760405162461bcd60e51b815260206004820152602b60248201527f496e697469616c697a61626c653a20636f6e7472616374206973206e6f74206960448201526a6e697469616c697a696e6760a81b6064820152608401610bc0565b612720600033612666565b565b600061181d83836128a8565b60006106e1825490565b612742828261194d565b610fdd5761274f816128d2565b61275a8360206128e4565b60405160200161276b929190613a25565b60408051601f198184030181529082905262461bcd60e51b8252610bc0916004016134b4565b61279b828261194d565b610fdd5760008281526065602090815260408083206001600160a01b03851684529091529020805460ff191660011790556127d33390565b6001600160a01b0316816001600160a01b0316837f2f8788117e7eff1d82e926ec794901d17c78024a50270940304540a733656f0d60405160405180910390a45050565b600061181d836001600160a01b038416612a7f565b612836828261194d565b15610fdd5760008281526065602090815260408083206001600160a01b0385168085529252808320805460ff1916905551339285917ff6391f5c32d9c69d2a47ea670b442974b53935d1edc7fd64eb21e047a839171b9190a45050565b600061181d836001600160a01b038416612ace565b60008260000182815481106128bf576128bf613386565b9060005260206000200154905092915050565b60606106e16001600160a01b03831660145b606060006128f3836002613a9a565b6128fe906002613ab1565b6001600160401b0381111561291557612915612e95565b6040519080825280601f01601f19166020018201604052801561293f576020820181803683370190505b509050600360fc1b8160008151811061295a5761295a613386565b60200101906001600160f81b031916908160001a905350600f60fb1b8160018151811061298957612989613386565b60200101906001600160f81b031916908160001a90535060006129ad846002613a9a565b6129b8906001613ab1565b90505b6001811115612a30576f181899199a1a9b1b9c1cb0b131b232b360811b85600f16601081106129ec576129ec613386565b1a60f81b828281518110612a0257612a02613386565b60200101906001600160f81b031916908160001a90535060049490941c93612a2981613ac4565b90506129bb565b50831561181d5760405162461bcd60e51b815260206004820181905260248201527f537472696e67733a20686578206c656e67746820696e73756666696369656e746044820152606401610bc0565b6000818152600183016020526040812054612ac6575081546001818101845560008481526020808220909301849055845484825282860190935260409020919091556106e1565b5060006106e1565b60008181526001830160205260408120548015612bb7576000612af26001836135f9565b8554909150600090612b06906001906135f9565b9050818114612b6b576000866000018281548110612b2657612b26613386565b9060005260206000200154905080876000018481548110612b4957612b49613386565b6000918252602080832090910192909255918252600188019052604090208390555b8554869080612b7c57612b7c6136fb565b6001900381819060005260206000200160009055905585600101600086815260200190815260200160002060009055600193505050506106e1565b60009150506106e1565b508054612bcd9061334c565b6000825580601f10612bdd575050565b601f01602090049060005260206000209081019061193291905b80821115612c0b5760008155600101612bf7565b5090565b600060208284031215612c2157600080fd5b81356001600160e01b03198116811461181d57600080fd5b600060208284031215612c4b57600080fd5b5035919050565b60008060408385031215612c6557600080fd5b50508035926020909101359150565b634e487b7160e01b600052602160045260246000fd5b60048110612c9a57612c9a612c74565b9052565b60005b83811015612cb9578181015183820152602001612ca1565b50506000910152565b60008151808452612cda816020860160208601612c9e565b601f01601f19169290920160200192915050565b612cf88187612c8a565b6001600160a01b038581166020830152841660408201526060810183905260a060808201819052600090612d2e90830184612cc2565b979650505050505050565b600080600060608486031215612d4e57600080fd5b505081359360208301359350604090920135919050565b60008083601f840112612d7757600080fd5b5081356001600160401b03811115612d8e57600080fd5b602083019150836020828501011115612da657600080fd5b9250929050565b60008060008060608587031215612dc357600080fd5b843593506020850135925060408501356001600160401b03811115612de757600080fd5b612df387828801612d65565b95989497509550505050565b6020815281516020820152602082015160408201526000604083015160a06060840152612e2f60c0840182612cc2565b90506060840151601f19848303016080850152612e4c8282612cc2565b915050608084015160a08401528091505092915050565b6001600160a01b038116811461193257600080fd5b600060208284031215612e8a57600080fd5b813561181d81612e63565b634e487b7160e01b600052604160045260246000fd5b60006001600160401b0380841115612ec557612ec5612e95565b604051601f8501601f19908116603f01168101908282118183101715612eed57612eed612e95565b81604052809350858152868686011115612f0657600080fd5b858560208301376000602087830101525050509392505050565b600082601f830112612f3157600080fd5b61181d83833560208501612eab565b600080600060608486031215612f5557600080fd5b8335612f6081612e63565b9250602084013560058110612f7457600080fd5b915060408401356001600160401b03811115612f8f57600080fd5b612f9b86828701612f20565b9150509250925092565b60018060a01b038416815282602082015260606040820152600061087f6060830184612cc2565b85815284602082015260a060408201526000612feb60a0830186612cc2565b8281036060840152612ffd8186612cc2565b9150508260808301529695505050505050565b6000806040838503121561302357600080fd5b82359150602083013561303581612e63565b809150509250929050565b60008060008060008060a0878903121561305957600080fd5b863561306481612e63565b955060208701356004811061307857600080fd5b9450604087013561308881612e63565b93506060870135925060808701356001600160401b038111156130aa57600080fd5b6130b689828a01612d65565b979a9699509497509295939492505050565b600080602083850312156130db57600080fd5b82356001600160401b03808211156130f257600080fd5b818501915085601f83011261310657600080fd5b81358181111561311557600080fd5b8660208260051b850101111561312a57600080fd5b60209290920196919550909350505050565b6000806000806080858703121561315257600080fd5b843561315d81612e63565b9350602085013561316d81612e63565b92506040850135915060608501356001600160401b0381111561318f57600080fd5b8501601f810187136131a057600080fd5b6131af87823560208401612eab565b91505092959194509250565b60058110612c9a57612c9a612c74565b6001600160a01b03841681526131e460208201846131bb565b60606040820152600061087f6060830184612cc2565b602081016106e182846131bb565b60008060008060008060c0878903121561322157600080fd5b863561322c81612e63565b9550602087013594506040870135935060608701356001600160401b038082111561325657600080fd5b6132628a838b01612f20565b9450608089013591508082111561327857600080fd5b6132848a838b01612f20565b935060a089013591508082111561329a57600080fd5b506132a789828a01612f20565b9150509295509295509295565b600080604083850312156132c757600080fd5b82356132d281612e63565b946020939093013593505050565b6000602082840312156132f257600080fd5b81356001600160401b0381111561330857600080fd5b820160a0818503121561181d57600080fd5b6000806000806080858703121561333057600080fd5b5050823594602084013594506040840135936060013592509050565b600181811c9082168061336057607f821691505b60208210810361338057634e487b7160e01b600052602260045260246000fd5b50919050565b634e487b7160e01b600052603260045260246000fd5b600081546133a98161334c565b8085526020600183811680156133c657600181146133e05761340e565b60ff1985168884015283151560051b88018301955061340e565b866000528260002060005b858110156134065781548a82018601529083019084016133eb565b890184019650505b505050505092915050565b60208152815460208201526001820154604082015260a06060820152600061344760c083016002850161339c565b828103601f19016080840152613460816003860161339c565b9050600484015460a08401528091505092915050565b60006020828403121561348857600080fd5b815161181d81612e63565b84815283602082015281836040830137600091016040019081529392505050565b60208152600061181d6020830184612cc2565b601f821115610f5e57600081815260208120601f850160051c810160208610156134ee5750805b601f850160051c820191505b8181101561350d578281556001016134fa565b505050505050565b600019600383901b1c191660019190911b1790565b81516001600160401b0381111561354357613543612e95565b61355781613551845461334c565b846134c7565b602080601f83116001811461358657600084156135745750858301515b61357e8582613515565b86555061350d565b600085815260208120601f198616915b828110156135b557888601518255948401946001909101908401613596565b50858210156135d35787850151600019600388901b60f8161c191681555b5050505050600190811b01905550565b634e487b7160e01b600052601160045260246000fd5b818103818111156106e1576106e16135e3565b8381526001600160a01b038316602082015260608101610a5160408301846131bb565b848152608081016136436020830186612c8a565b6001600160a01b039390931660408201526060015292915050565b600060018201613670576136706135e3565b5060010190565b6001600160a01b038581168252841660208201526040810183905260806060820181905260009061178c90830184612cc2565b85815284602082015260a0604082015260006136c960a0830186612cc2565b82810360608401526136db8186612cc2565b905082810360808401526136ef8185612cc2565b98975050505050505050565b634e487b7160e01b600052603160045260246000fd5b8381528260208201526000825161372f816040850160208701612c9e565b91909101604001949350505050565b6000808335601e1984360301811261375557600080fd5b8301803591506001600160401b0382111561376f57600080fd5b602001915036819003821315612da657600080fd5b6001600160401b0383111561379b5761379b612e95565b6137af836137a9835461334c565b836134c7565b6000601f8411600181146137dd57600085156137cb5750838201355b6137d58682613515565b845550613837565b600083815260209020601f19861690835b8281101561380e57868501358255602094850194600190920191016137ee565b508682101561382b5760001960f88860031b161c19848701351681555b505060018560011b0183555b5050505050565b813581556001602080840135828401556002830161385f604086018661373e565b6001600160401b0381111561387657613876612e95565b61388a81613884855461334c565b856134c7565b6000601f8211600181146138b857600083156138a65750838201355b6138b08482613515565b86555061390d565b600085815260209020601f19841690835b828110156138e657868501358255938801939089019088016138c9565b50848210156139035760001960f88660031b161c19848701351681555b50508683881b0185555b50505050505050613921606083018361373e565b61392f818360038601613784565b5050608082013560048201555050565b6000808335601e1984360301811261395657600080fd5b83016020810192503590506001600160401b0381111561397557600080fd5b803603821315612da657600080fd5b81835281816020850137506000828201602090810191909152601f909101601f19169091010190565b60208152813560208201526020820135604082015260006139d1604084018461393f565b60a060608501526139e660c085018284613984565b9150506139f6606085018561393f565b848303601f19016080860152613a0d838284613984565b92505050608084013560a08401528091505092915050565b7f416363657373436f6e74726f6c3a206163636f756e7420000000000000000000815260008351613a5d816017850160208801612c9e565b7001034b99036b4b9b9b4b733903937b6329607d1b6017918401918201528351613a8e816028840160208801612c9e565b01602801949350505050565b80820281158282048414176106e1576106e16135e3565b808201808211156106e1576106e16135e3565b600081613ad357613ad36135e3565b50600019019056fe0482b95699990ff052aaeda01e4b518e6066bb6d6932719cd6a7bf74a2fb5e81a2646970667358221220a6805e2c11ed0d03648be0c6a7e72ccc35b075cd9d0305f2847805e79c29c4b564736f6c63430008110033",
  "devdoc": {
    "details": "The repository of all user and business entities created by the protocol: companies to be implemented, contracts to be deployed, proposals created by shareholders. The main logic of the registry is implemented in contracts that inherit from Registry.",
    "kind": "dev",
    "methods": {
      "addContractRecord(address,uint8,string)": {
        "details": "This method is used by the main Service contract in order to save the data of the contracts it deploys. After the Registry contract receives the address and type of the created contract from the Service contract, it sends back as a response the sequence number/index assigned to the new record.",
        "params": {
          "addr": "Contract address",
          "contractType": "Contract type"
        },
        "returns": {
          "index": "Record index"
        }
      },
      "addEventRecord(address,uint8,address,uint256,string)": {
        "details": "This method is used to register events - specific entities associated with the operational activities of pools and the transfer of various values as a result of the use of ecosystem contracts. Each event also has a metahash string field, which is the identifier of the private description of the event stored on the backend.",
        "params": {
          "eventContract": "Address of the event contract",
          "eventType": "Event type",
          "metaHash": "Hash value of event metadata",
          "pool": "Pool address",
          "proposalId": "Proposal ID"
        },
        "returns": {
          "index": "Record index"
        }
      },
      "addProposalRecord(address,uint256)": {
        "details": "This method accepts data from the Service contract about the created nodes in the pools. If there is an internal index of the proposal in the contract of the pool whose shareholders created the proposal, then as a result of using this method, the proposal is given a global index for the entire ecosystem.",
        "params": {
          "pool": "Pool address",
          "proposalId": "Proposal ID"
        },
        "returns": {
          "index": "Record index"
        }
      },
      "companyAvailable(uint256,uint256)": {
        "details": "This view method is designed to find out whether there is at least one company available for purchase for the jurisdiction and type of organization selected by the user.",
        "params": {
          "entityType": "The digital code of the organization type.",
          "jurisdiction": "The digital code of the jurisdiction."
        },
        "returns": {
          "_0": "\"True\" if at least one company is available"
        }
      },
      "constructor": {
        "custom:oz-upgrades-unsafe-allow": "constructor",
        "details": "This contract uses OpenZeppelin upgrades and has no need for a constructor function. The constructor is replaced with an initializer function. This method disables the initializer feature of the OpenZeppelin upgrades plugin, preventing the initializer methods from being misused."
      },
      "contractRecordsCount()": {
        "returns": {
          "_0": "Contract records count"
        }
      },
      "createCompany((uint256,uint256,string,string,uint256))": {
        "details": "Create company record - A method for creating a new company record, including its legal data and the sale price.",
        "params": {
          "info": "Company Info"
        }
      },
      "deleteCompany(uint256,uint256,uint256)": {
        "details": "This method removes a record from the queue of created companies.",
        "params": {
          "entityType": "The digital code of the organization type.",
          "id": "Queue index.",
          "jurisdiction": "The digital code of the jurisdiction."
        }
      },
      "eventRecordsCount()": {
        "returns": {
          "_0": "Event records count"
        }
      },
      "getAvailableCompanyAddress(uint256,uint256)": {
        "details": "This method allows obtaining the contract address of a company that is available for sale and meets the conditions based on its jurisdiction and entity type.",
        "params": {
          "entityType": "The digital code of the organization type.",
          "jurisdiction": "The digital code of the jurisdiction."
        },
        "returns": {
          "_0": "address The contract pool address."
        }
      },
      "getCompany(uint256,uint256,string)": {
        "details": "This method allows obtaining all the data of a company, including its legal data, that is still available for sale.",
        "params": {
          "ein": "The government registration number.",
          "entityType": "The digital code of the organization type.",
          "jurisdiction": "The digital code of the jurisdiction."
        },
        "returns": {
          "_0": "CompanyInfo The company data."
        }
      },
      "getCompanyPoolAddress(uint256,uint256,uint256)": {
        "details": "Get company pool address by metadata",
        "params": {
          "entityType": "Entity type",
          "id": "Queue id",
          "jurisdiction": "Jurisdiction"
        },
        "returns": {
          "_0": "Future company's pool address"
        }
      },
      "getGlobalProposalId(address,uint256)": {
        "details": "Return global proposal ID",
        "params": {
          "pool": "Pool address",
          "proposalId": "Proposal ID"
        },
        "returns": {
          "_0": "Global proposal ID"
        }
      },
      "getRoleAdmin(bytes32)": {
        "details": "Returns the admin role that controls `role`. See {grantRole} and {revokeRole}. To change a role's admin, use {_setRoleAdmin}."
      },
      "getRoleMember(bytes32,uint256)": {
        "details": "Returns one of the accounts that have `role`. `index` must be a value between 0 and {getRoleMemberCount}, non-inclusive. Role bearers are not sorted in any particular way, and their ordering may change at any point. WARNING: When using {getRoleMember} and {getRoleMemberCount}, make sure you perform all queries on the same block. See the following https://forum.openzeppelin.com/t/iterating-over-elements-on-enumerableset-in-openzeppelin-contracts/2296[forum post] for more information."
      },
      "getRoleMemberCount(bytes32)": {
        "details": "Returns the number of accounts that have `role`. Can be used together with {getRoleMember} to enumerate all bearers of a role."
      },
      "grantRole(bytes32,address)": {
        "details": "Grants `role` to `account`. If `account` had not been already granted `role`, emits a {RoleGranted} event. Requirements: - the caller must have ``role``'s admin role. May emit a {RoleGranted} event."
      },
      "hasRole(bytes32,address)": {
        "details": "Returns `true` if `account` has been granted `role`."
      },
      "initialize()": {
        "details": "This method replaces the constructor for upgradeable contracts."
      },
      "isTokenWhitelisted(address)": {
        "details": "Check if token is whitelisted",
        "params": {
          "token": "Token"
        },
        "returns": {
          "_0": "Is token whitelisted"
        }
      },
      "lockCompany(uint256,uint256)": {
        "details": "Booking the company for the buyer. During the acquisition of a company, this method searches for a free company at the request of the client (jurisdiction and type of organization), if such exist in the companys storage reserve, then the method selects the last of the added companies, extracts its record data and sends it as a response for further work of the Service contract, removes its record from the Registry.",
        "params": {
          "entityType": "   ",
          "jurisdiction": "  "
        },
        "returns": {
          "info": "Company info"
        }
      },
      "proposalRecordsCount()": {
        "returns": {
          "_0": "Proposal records count"
        }
      },
      "renounceRole(bytes32,address)": {
        "details": "Revokes `role` from the calling account. Roles are often managed via {grantRole} and {revokeRole}: this function's purpose is to provide a mechanism for accounts to lose their privileges if they are compromised (such as when a trusted device is misplaced). If the calling account had been revoked `role`, emits a {RoleRevoked} event. Requirements: - the caller must be `account`. May emit a {RoleRevoked} event."
      },
      "revokeRole(bytes32,address)": {
        "details": "Revokes `role` from `account`. If `account` had been granted `role`, emits a {RoleRevoked} event. Requirements: - the caller must have ``role``'s admin role. May emit a {RoleRevoked} event."
      },
      "setCompanyInfoForPool(address,uint256,uint256,string,string,string)": {
        "details": "This is a special method for the manager to service contracts of already acquired companies. To correct data in a company that has not been acquired yet, the record should be deleted and a new one created.",
        "params": {
          "_OAuri": "Operating Agreement URL.",
          "_dateOfIncorporation": "The date of incorporation.",
          "_ein": "The government registration number.",
          "_entityType": "The digital code of the organization type.",
          "_jurisdiction": "The digital code of the jurisdiction.",
          "pool": "The contract pool address."
        }
      },
      "setService(address)": {
        "details": "This method is executed during deployment and upgrade of the contract to link the main protocol contract with the Registry data storage by storing the address of the Service contract."
      },
      "supportsInterface(bytes4)": {
        "details": "See {IERC165-supportsInterface}."
      },
      "typeOf(address)": {
        "params": {
          "addr": "Address of contract"
        },
        "returns": {
          "_0": "Contract type"
        }
      },
      "updateCompanyFee(uint256,uint256,uint256,uint256)": {
        "details": "The method that the manager uses to change the value of the company already added earlier in the Registry.",
        "params": {
          "entityType": "The digital code of the organization type.",
          "id": "Queue index. param fee Fee to update.",
          "jurisdiction": "The digital code of the jurisdiction."
        }
      }
    },
    "stateVariables": {
      "globalProposalIds": {
        "details": "This mapping stores the correspondence between the pool address, the local proposal number, and its global number registered in the registry."
      }
    },
    "title": "Registry Contract",
    "version": 1
  },
  "userdoc": {
    "kind": "user",
    "methods": {
      "COMPANIES_MANAGER_ROLE()": {
        "notice": "Hash code for the COMPANIES_MANAGER role in the OpenZeppelin (OZ) Access Control model."
      },
      "constructor": {
        "notice": "Contract constructor."
      },
      "contractRecordsCount()": {
        "notice": "Returns number of contract records"
      },
      "eventRecordsCount()": {
        "notice": "Returns number of event records"
      },
      "initialize()": {
        "notice": "Contract initializer"
      },
      "lockCompany(uint256,uint256)": {
        "notice": "Lock company record"
      },
      "proposalRecordsCount()": {
        "notice": "Returns number of proposal records"
      },
      "setCompanyInfoForPool(address,uint256,uint256,string,string,string)": {
        "notice": "Method for replacing the reference to the Operating Agreement and legal data of a company in the contract's memory."
      },
      "typeOf(address)": {
        "notice": "Returns type of given contract"
      }
    },
    "notice": "This contract serves as a registry to store all events, contracts, and proposals of all pools using global sequential numbering.",
    "version": 1
  },
  "storageLayout": {
    "storage": [
      {
        "astId": 1184,
        "contract": "contracts/Registry.sol:Registry",
        "label": "_initialized",
        "offset": 0,
        "slot": "0",
        "type": "t_uint8"
      },
      {
        "astId": 1187,
        "contract": "contracts/Registry.sol:Registry",
        "label": "_initializing",
        "offset": 1,
        "slot": "0",
        "type": "t_bool"
      },
      {
        "astId": 5634,
        "contract": "contracts/Registry.sol:Registry",
        "label": "__gap",
        "offset": 0,
        "slot": "1",
        "type": "t_array(t_uint256)50_storage"
      },
      {
        "astId": 6579,
        "contract": "contracts/Registry.sol:Registry",
        "label": "__gap",
        "offset": 0,
        "slot": "51",
        "type": "t_array(t_uint256)50_storage"
      },
      {
        "astId": 184,
        "contract": "contracts/Registry.sol:Registry",
        "label": "_roles",
        "offset": 0,
        "slot": "101",
        "type": "t_mapping(t_bytes32,t_struct(RoleData)179_storage)"
      },
      {
        "astId": 479,
        "contract": "contracts/Registry.sol:Registry",
        "label": "__gap",
        "offset": 0,
        "slot": "102",
        "type": "t_array(t_uint256)49_storage"
      },
      {
        "astId": 33,
        "contract": "contracts/Registry.sol:Registry",
        "label": "_roleMembers",
        "offset": 0,
        "slot": "151",
        "type": "t_mapping(t_bytes32,t_struct(AddressSet)9324_storage)"
      },
      {
        "astId": 143,
        "contract": "contracts/Registry.sol:Registry",
        "label": "__gap",
        "offset": 0,
        "slot": "152",
        "type": "t_array(t_uint256)49_storage"
      },
      {
        "astId": 23993,
        "contract": "contracts/Registry.sol:Registry",
        "label": "service",
        "offset": 0,
        "slot": "201",
        "type": "t_address"
      },
      {
        "astId": 23175,
        "contract": "contracts/Registry.sol:Registry",
        "label": "queue",
        "offset": 0,
        "slot": "202",
        "type": "t_mapping(t_uint256,t_mapping(t_uint256,t_array(t_uint256)dyn_storage))"
      },
      {
        "astId": 23181,
        "contract": "contracts/Registry.sol:Registry",
        "label": "companies",
        "offset": 0,
        "slot": "203",
        "type": "t_mapping(t_uint256,t_struct(CompanyInfo)22788_storage)"
      },
      {
        "astId": 23184,
        "contract": "contracts/Registry.sol:Registry",
        "label": "lastCompanyIndex",
        "offset": 0,
        "slot": "204",
        "type": "t_uint256"
      },
      {
        "astId": 23189,
        "contract": "contracts/Registry.sol:Registry",
        "label": "companyIndex",
        "offset": 0,
        "slot": "205",
        "type": "t_mapping(t_bytes32,t_uint256)"
      },
      {
        "astId": 23723,
        "contract": "contracts/Registry.sol:Registry",
        "label": "contractRecords",
        "offset": 0,
        "slot": "206",
        "type": "t_array(t_struct(ContractInfo)22826_storage)dyn_storage"
      },
      {
        "astId": 23734,
        "contract": "contracts/Registry.sol:Registry",
        "label": "indexOfContract",
        "offset": 0,
        "slot": "207",
        "type": "t_mapping(t_address,t_struct(ContractIndex)23728_storage)"
      },
      {
        "astId": 23739,
        "contract": "contracts/Registry.sol:Registry",
        "label": "proposalRecords",
        "offset": 0,
        "slot": "208",
        "type": "t_array(t_struct(ProposalInfo)22833_storage)dyn_storage"
      },
      {
        "astId": 23744,
        "contract": "contracts/Registry.sol:Registry",
        "label": "events",
        "offset": 0,
        "slot": "209",
        "type": "t_array(t_struct(Event)22845_storage)dyn_storage"
      },
      {
        "astId": 13578,
        "contract": "contracts/Registry.sol:Registry",
        "label": "globalProposalIds",
        "offset": 0,
        "slot": "210",
        "type": "t_mapping(t_address,t_mapping(t_uint256,t_uint256))"
      }
    ],
    "types": {
      "t_address": {
        "encoding": "inplace",
        "label": "address",
        "numberOfBytes": "20"
      },
      "t_array(t_bytes32)dyn_storage": {
        "base": "t_bytes32",
        "encoding": "dynamic_array",
        "label": "bytes32[]",
        "numberOfBytes": "32"
      },
      "t_array(t_struct(ContractInfo)22826_storage)dyn_storage": {
        "base": "t_struct(ContractInfo)22826_storage",
        "encoding": "dynamic_array",
        "label": "struct IRecordsRegistry.ContractInfo[]",
        "numberOfBytes": "32"
      },
      "t_array(t_struct(Event)22845_storage)dyn_storage": {
        "base": "t_struct(Event)22845_storage",
        "encoding": "dynamic_array",
        "label": "struct IRecordsRegistry.Event[]",
        "numberOfBytes": "32"
      },
      "t_array(t_struct(ProposalInfo)22833_storage)dyn_storage": {
        "base": "t_struct(ProposalInfo)22833_storage",
        "encoding": "dynamic_array",
        "label": "struct IRecordsRegistry.ProposalInfo[]",
        "numberOfBytes": "32"
      },
      "t_array(t_uint256)49_storage": {
        "base": "t_uint256",
        "encoding": "inplace",
        "label": "uint256[49]",
        "numberOfBytes": "1568"
      },
      "t_array(t_uint256)50_storage": {
        "base": "t_uint256",
        "encoding": "inplace",
        "label": "uint256[50]",
        "numberOfBytes": "1600"
      },
      "t_array(t_uint256)dyn_storage": {
        "base": "t_uint256",
        "encoding": "dynamic_array",
        "label": "uint256[]",
        "numberOfBytes": "32"
      },
      "t_bool": {
        "encoding": "inplace",
        "label": "bool",
        "numberOfBytes": "1"
      },
      "t_bytes32": {
        "encoding": "inplace",
        "label": "bytes32",
        "numberOfBytes": "32"
      },
      "t_enum(ContractType)22813": {
        "encoding": "inplace",
        "label": "enum IRecordsRegistry.ContractType",
        "numberOfBytes": "1"
      },
      "t_enum(EventType)22818": {
        "encoding": "inplace",
        "label": "enum IRecordsRegistry.EventType",
        "numberOfBytes": "1"
      },
      "t_mapping(t_address,t_bool)": {
        "encoding": "mapping",
        "key": "t_address",
        "label": "mapping(address => bool)",
        "numberOfBytes": "32",
        "value": "t_bool"
      },
      "t_mapping(t_address,t_mapping(t_uint256,t_uint256))": {
        "encoding": "mapping",
        "key": "t_address",
        "label": "mapping(address => mapping(uint256 => uint256))",
        "numberOfBytes": "32",
        "value": "t_mapping(t_uint256,t_uint256)"
      },
      "t_mapping(t_address,t_struct(ContractIndex)23728_storage)": {
        "encoding": "mapping",
        "key": "t_address",
        "label": "mapping(address => struct RecordsRegistry.ContractIndex)",
        "numberOfBytes": "32",
        "value": "t_struct(ContractIndex)23728_storage"
      },
      "t_mapping(t_bytes32,t_struct(AddressSet)9324_storage)": {
        "encoding": "mapping",
        "key": "t_bytes32",
        "label": "mapping(bytes32 => struct EnumerableSetUpgradeable.AddressSet)",
        "numberOfBytes": "32",
        "value": "t_struct(AddressSet)9324_storage"
      },
      "t_mapping(t_bytes32,t_struct(RoleData)179_storage)": {
        "encoding": "mapping",
        "key": "t_bytes32",
        "label": "mapping(bytes32 => struct AccessControlUpgradeable.RoleData)",
        "numberOfBytes": "32",
        "value": "t_struct(RoleData)179_storage"
      },
      "t_mapping(t_bytes32,t_uint256)": {
        "encoding": "mapping",
        "key": "t_bytes32",
        "label": "mapping(bytes32 => uint256)",
        "numberOfBytes": "32",
        "value": "t_uint256"
      },
      "t_mapping(t_uint256,t_array(t_uint256)dyn_storage)": {
        "encoding": "mapping",
        "key": "t_uint256",
        "label": "mapping(uint256 => uint256[])",
        "numberOfBytes": "32",
        "value": "t_array(t_uint256)dyn_storage"
      },
      "t_mapping(t_uint256,t_mapping(t_uint256,t_array(t_uint256)dyn_storage))": {
        "encoding": "mapping",
        "key": "t_uint256",
        "label": "mapping(uint256 => mapping(uint256 => uint256[]))",
        "numberOfBytes": "32",
        "value": "t_mapping(t_uint256,t_array(t_uint256)dyn_storage)"
      },
      "t_mapping(t_uint256,t_struct(CompanyInfo)22788_storage)": {
        "encoding": "mapping",
        "key": "t_uint256",
        "label": "mapping(uint256 => struct ICompaniesRegistry.CompanyInfo)",
        "numberOfBytes": "32",
        "value": "t_struct(CompanyInfo)22788_storage"
      },
      "t_mapping(t_uint256,t_uint256)": {
        "encoding": "mapping",
        "key": "t_uint256",
        "label": "mapping(uint256 => uint256)",
        "numberOfBytes": "32",
        "value": "t_uint256"
      },
      "t_string_storage": {
        "encoding": "bytes",
        "label": "string",
        "numberOfBytes": "32"
      },
      "t_struct(AddressSet)9324_storage": {
        "encoding": "inplace",
        "label": "struct EnumerableSetUpgradeable.AddressSet",
        "members": [
          {
            "astId": 9323,
            "contract": "contracts/Registry.sol:Registry",
            "label": "_inner",
            "offset": 0,
            "slot": "0",
            "type": "t_struct(Set)9009_storage"
          }
        ],
        "numberOfBytes": "64"
      },
      "t_struct(CompanyInfo)22788_storage": {
        "encoding": "inplace",
        "label": "struct ICompaniesRegistry.CompanyInfo",
        "members": [
          {
            "astId": 22779,
            "contract": "contracts/Registry.sol:Registry",
            "label": "jurisdiction",
            "offset": 0,
            "slot": "0",
            "type": "t_uint256"
          },
          {
            "astId": 22781,
            "contract": "contracts/Registry.sol:Registry",
            "label": "entityType",
            "offset": 0,
            "slot": "1",
            "type": "t_uint256"
          },
          {
            "astId": 22783,
            "contract": "contracts/Registry.sol:Registry",
            "label": "ein",
            "offset": 0,
            "slot": "2",
            "type": "t_string_storage"
          },
          {
            "astId": 22785,
            "contract": "contracts/Registry.sol:Registry",
            "label": "dateOfIncorporation",
            "offset": 0,
            "slot": "3",
            "type": "t_string_storage"
          },
          {
            "astId": 22787,
            "contract": "contracts/Registry.sol:Registry",
            "label": "fee",
            "offset": 0,
            "slot": "4",
            "type": "t_uint256"
          }
        ],
        "numberOfBytes": "160"
      },
      "t_struct(ContractIndex)23728_storage": {
        "encoding": "inplace",
        "label": "struct RecordsRegistry.ContractIndex",
        "members": [
          {
            "astId": 23725,
            "contract": "contracts/Registry.sol:Registry",
            "label": "exists",
            "offset": 0,
            "slot": "0",
            "type": "t_bool"
          },
          {
            "astId": 23727,
            "contract": "contracts/Registry.sol:Registry",
            "label": "index",
            "offset": 1,
            "slot": "0",
            "type": "t_uint160"
          }
        ],
        "numberOfBytes": "32"
      },
      "t_struct(ContractInfo)22826_storage": {
        "encoding": "inplace",
        "label": "struct IRecordsRegistry.ContractInfo",
        "members": [
          {
            "astId": 22820,
            "contract": "contracts/Registry.sol:Registry",
            "label": "addr",
            "offset": 0,
            "slot": "0",
            "type": "t_address"
          },
          {
            "astId": 22823,
            "contract": "contracts/Registry.sol:Registry",
            "label": "contractType",
            "offset": 20,
            "slot": "0",
            "type": "t_enum(ContractType)22813"
          },
          {
            "astId": 22825,
            "contract": "contracts/Registry.sol:Registry",
            "label": "description",
            "offset": 0,
            "slot": "1",
            "type": "t_string_storage"
          }
        ],
        "numberOfBytes": "64"
      },
      "t_struct(Event)22845_storage": {
        "encoding": "inplace",
        "label": "struct IRecordsRegistry.Event",
        "members": [
          {
            "astId": 22836,
            "contract": "contracts/Registry.sol:Registry",
            "label": "eventType",
            "offset": 0,
            "slot": "0",
            "type": "t_enum(EventType)22818"
          },
          {
            "astId": 22838,
            "contract": "contracts/Registry.sol:Registry",
            "label": "pool",
            "offset": 1,
            "slot": "0",
            "type": "t_address"
          },
          {
            "astId": 22840,
            "contract": "contracts/Registry.sol:Registry",
            "label": "eventContract",
            "offset": 0,
            "slot": "1",
            "type": "t_address"
          },
          {
            "astId": 22842,
            "contract": "contracts/Registry.sol:Registry",
            "label": "proposalId",
            "offset": 0,
            "slot": "2",
            "type": "t_uint256"
          },
          {
            "astId": 22844,
            "contract": "contracts/Registry.sol:Registry",
            "label": "metaHash",
            "offset": 0,
            "slot": "3",
            "type": "t_string_storage"
          }
        ],
        "numberOfBytes": "128"
      },
      "t_struct(ProposalInfo)22833_storage": {
        "encoding": "inplace",
        "label": "struct IRecordsRegistry.ProposalInfo",
        "members": [
          {
            "astId": 22828,
            "contract": "contracts/Registry.sol:Registry",
            "label": "pool",
            "offset": 0,
            "slot": "0",
            "type": "t_address"
          },
          {
            "astId": 22830,
            "contract": "contracts/Registry.sol:Registry",
            "label": "proposalId",
            "offset": 0,
            "slot": "1",
            "type": "t_uint256"
          },
          {
            "astId": 22832,
            "contract": "contracts/Registry.sol:Registry",
            "label": "description",
            "offset": 0,
            "slot": "2",
            "type": "t_string_storage"
          }
        ],
        "numberOfBytes": "96"
      },
      "t_struct(RoleData)179_storage": {
        "encoding": "inplace",
        "label": "struct AccessControlUpgradeable.RoleData",
        "members": [
          {
            "astId": 176,
            "contract": "contracts/Registry.sol:Registry",
            "label": "members",
            "offset": 0,
            "slot": "0",
            "type": "t_mapping(t_address,t_bool)"
          },
          {
            "astId": 178,
            "contract": "contracts/Registry.sol:Registry",
            "label": "adminRole",
            "offset": 0,
            "slot": "1",
            "type": "t_bytes32"
          }
        ],
        "numberOfBytes": "64"
      },
      "t_struct(Set)9009_storage": {
        "encoding": "inplace",
        "label": "struct EnumerableSetUpgradeable.Set",
        "members": [
          {
            "astId": 9004,
            "contract": "contracts/Registry.sol:Registry",
            "label": "_values",
            "offset": 0,
            "slot": "0",
            "type": "t_array(t_bytes32)dyn_storage"
          },
          {
            "astId": 9008,
            "contract": "contracts/Registry.sol:Registry",
            "label": "_indexes",
            "offset": 0,
            "slot": "1",
            "type": "t_mapping(t_bytes32,t_uint256)"
          }
        ],
        "numberOfBytes": "64"
      },
      "t_uint160": {
        "encoding": "inplace",
        "label": "uint160",
        "numberOfBytes": "20"
      },
      "t_uint256": {
        "encoding": "inplace",
        "label": "uint256",
        "numberOfBytes": "32"
      },
      "t_uint8": {
        "encoding": "inplace",
        "label": "uint8",
        "numberOfBytes": "1"
      }
    }
  }
}