{
  "address": "0x0017fc6ABd718585BAbA6193E6BFaE4a3FbE153a",
  "abi": [
    {
      "inputs": [],
      "stateMutability": "nonpayable",
      "type": "constructor"
    },
    {
      "anonymous": false,
      "inputs": [
        {
          "indexed": false,
          "internalType": "address",
          "name": "proxy",
          "type": "address"
        }
      ],
      "name": "CustomPropsalChanged",
      "type": "event"
    },
    {
      "anonymous": false,
      "inputs": [
        {
          "indexed": false,
          "internalType": "address",
          "name": "to",
          "type": "address"
        },
        {
          "indexed": false,
          "internalType": "uint256",
          "name": "amount",
          "type": "uint256"
        }
      ],
      "name": "FeesTransferred",
      "type": "event"
    },
    {
      "anonymous": false,
      "inputs": [
        {
          "indexed": false,
          "internalType": "uint8",
          "name": "version",
          "type": "uint8"
        }
      ],
      "name": "Initialized",
      "type": "event"
    },
    {
      "anonymous": false,
      "inputs": [
        {
          "indexed": false,
          "internalType": "address",
          "name": "proxy",
          "type": "address"
        }
      ],
      "name": "InvoiceChanged",
      "type": "event"
    },
    {
      "anonymous": false,
      "inputs": [
        {
          "indexed": false,
          "internalType": "address",
          "name": "account",
          "type": "address"
        }
      ],
      "name": "Paused",
      "type": "event"
    },
    {
      "anonymous": false,
      "inputs": [
        {
          "indexed": false,
          "internalType": "address",
          "name": "beacon",
          "type": "address"
        }
      ],
      "name": "PoolBeaconChanged",
      "type": "event"
    },
    {
      "anonymous": false,
      "inputs": [
        {
          "indexed": false,
          "internalType": "address",
          "name": "pool",
          "type": "address"
        },
        {
          "indexed": false,
          "internalType": "address",
          "name": "token",
          "type": "address"
        },
        {
          "indexed": false,
          "internalType": "address",
          "name": "tge",
          "type": "address"
        }
      ],
      "name": "PoolCreated",
      "type": "event"
    },
    {
      "anonymous": false,
      "inputs": [
        {
          "indexed": false,
          "internalType": "address",
          "name": "pool",
          "type": "address"
        },
        {
          "indexed": false,
          "internalType": "address",
          "name": "token",
          "type": "address"
        },
        {
          "indexed": false,
          "internalType": "address",
          "name": "tge",
          "type": "address"
        }
      ],
      "name": "PoolPurchased",
      "type": "event"
    },
    {
      "anonymous": false,
      "inputs": [
        {
          "indexed": false,
          "internalType": "address",
          "name": "pool",
          "type": "address"
        },
        {
          "indexed": false,
          "internalType": "uint256",
          "name": "proposalId",
          "type": "uint256"
        }
      ],
      "name": "ProposalCancelled",
      "type": "event"
    },
    {
      "anonymous": false,
      "inputs": [
        {
          "indexed": false,
          "internalType": "uint256",
          "name": "protocolTokenFee",
          "type": "uint256"
        }
      ],
      "name": "ProtocolTokenFeeChanged",
      "type": "event"
    },
    {
      "anonymous": false,
      "inputs": [
        {
          "indexed": false,
          "internalType": "address",
          "name": "protocolTreasury",
          "type": "address"
        }
      ],
      "name": "ProtocolTreasuryChanged",
      "type": "event"
    },
    {
      "anonymous": false,
      "inputs": [
        {
          "indexed": false,
          "internalType": "address",
          "name": "proxy",
          "type": "address"
        }
      ],
      "name": "RegistryChanged",
      "type": "event"
    },
    {
      "anonymous": false,
      "inputs": [
        {
          "indexed": true,
          "internalType": "bytes32",
          "name": "role",
          "type": "bytes32"
        },
        {
          "indexed": true,
          "internalType": "bytes32",
          "name": "previousAdminRole",
          "type": "bytes32"
        },
        {
          "indexed": true,
          "internalType": "bytes32",
          "name": "newAdminRole",
          "type": "bytes32"
        }
      ],
      "name": "RoleAdminChanged",
      "type": "event"
    },
    {
      "anonymous": false,
      "inputs": [
        {
          "indexed": true,
          "internalType": "bytes32",
          "name": "role",
          "type": "bytes32"
        },
        {
          "indexed": true,
          "internalType": "address",
          "name": "account",
          "type": "address"
        },
        {
          "indexed": true,
          "internalType": "address",
          "name": "sender",
          "type": "address"
        }
      ],
      "name": "RoleGranted",
      "type": "event"
    },
    {
      "anonymous": false,
      "inputs": [
        {
          "indexed": true,
          "internalType": "bytes32",
          "name": "role",
          "type": "bytes32"
        },
        {
          "indexed": true,
          "internalType": "address",
          "name": "account",
          "type": "address"
        },
        {
          "indexed": true,
          "internalType": "address",
          "name": "sender",
          "type": "address"
        }
      ],
      "name": "RoleRevoked",
      "type": "event"
    },
    {
      "anonymous": false,
      "inputs": [
        {
          "indexed": false,
          "internalType": "address",
          "name": "beacon",
          "type": "address"
        }
      ],
      "name": "TGEBeaconChanged",
      "type": "event"
    },
    {
      "anonymous": false,
      "inputs": [
        {
          "indexed": false,
          "internalType": "address",
          "name": "proxy",
          "type": "address"
        }
      ],
      "name": "TGEFactoryChanged",
      "type": "event"
    },
    {
      "anonymous": false,
      "inputs": [
        {
          "indexed": false,
          "internalType": "address",
          "name": "beacon",
          "type": "address"
        }
      ],
      "name": "TokenBeaconChanged",
      "type": "event"
    },
    {
      "anonymous": false,
      "inputs": [
        {
          "indexed": false,
          "internalType": "address",
          "name": "proxy",
          "type": "address"
        }
      ],
      "name": "TokenFactoryChanged",
      "type": "event"
    },
    {
      "anonymous": false,
      "inputs": [
        {
          "indexed": false,
          "internalType": "address",
          "name": "account",
          "type": "address"
        }
      ],
      "name": "Unpaused",
      "type": "event"
    },
    {
      "anonymous": false,
      "inputs": [
        {
          "indexed": false,
          "internalType": "address",
          "name": "proxy",
          "type": "address"
        }
      ],
      "name": "VestingChanged",
      "type": "event"
    },
    {
      "inputs": [],
      "name": "ADMIN_ROLE",
      "outputs": [
        {
          "internalType": "bytes32",
          "name": "",
          "type": "bytes32"
        }
      ],
      "stateMutability": "view",
      "type": "function"
    },
    {
      "inputs": [],
      "name": "DEFAULT_ADMIN_ROLE",
      "outputs": [
        {
          "internalType": "bytes32",
          "name": "",
          "type": "bytes32"
        }
      ],
      "stateMutability": "view",
      "type": "function"
    },
    {
      "inputs": [],
      "name": "EXECUTOR_ROLE",
      "outputs": [
        {
          "internalType": "bytes32",
          "name": "",
          "type": "bytes32"
        }
      ],
      "stateMutability": "view",
      "type": "function"
    },
    {
      "inputs": [],
      "name": "SERVICE_MANAGER_ROLE",
      "outputs": [
        {
          "internalType": "bytes32",
          "name": "",
          "type": "bytes32"
        }
      ],
      "stateMutability": "view",
      "type": "function"
    },
    {
      "inputs": [],
      "name": "WHITELISTED_USER_ROLE",
      "outputs": [
        {
          "internalType": "bytes32",
          "name": "",
          "type": "bytes32"
        }
      ],
      "stateMutability": "view",
      "type": "function"
    },
    {
      "inputs": [
        {
          "internalType": "enum IRecordsRegistry.EventType",
          "name": "eventType",
          "type": "uint8"
        },
        {
          "internalType": "uint256",
          "name": "proposalId",
          "type": "uint256"
        },
        {
          "internalType": "string",
          "name": "metaHash",
          "type": "string"
        }
      ],
      "name": "addEvent",
      "outputs": [],
      "stateMutability": "nonpayable",
      "type": "function"
    },
    {
      "inputs": [
        {
          "internalType": "address",
          "name": "pool",
          "type": "address"
        },
        {
          "internalType": "uint256",
          "name": "invoiceId",
          "type": "uint256"
        }
      ],
      "name": "addInvoiceEvent",
      "outputs": [
        {
          "internalType": "uint256",
          "name": "",
          "type": "uint256"
        }
      ],
      "stateMutability": "nonpayable",
      "type": "function"
    },
    {
      "inputs": [
        {
          "internalType": "uint256",
          "name": "proposalId",
          "type": "uint256"
        }
      ],
      "name": "addProposal",
      "outputs": [],
      "stateMutability": "nonpayable",
      "type": "function"
    },
    {
      "inputs": [
        {
          "internalType": "address",
          "name": "pool",
          "type": "address"
        },
        {
          "internalType": "uint256",
          "name": "proposalId",
          "type": "uint256"
        }
      ],
      "name": "cancelProposal",
      "outputs": [],
      "stateMutability": "nonpayable",
      "type": "function"
    },
    {
      "inputs": [
        {
          "components": [
            {
              "internalType": "uint256",
              "name": "jurisdiction",
              "type": "uint256"
            },
            {
              "internalType": "uint256",
              "name": "entityType",
              "type": "uint256"
            },
            {
              "internalType": "string",
              "name": "ein",
              "type": "string"
            },
            {
              "internalType": "string",
              "name": "dateOfIncorporation",
              "type": "string"
            },
            {
              "internalType": "uint256",
              "name": "fee",
              "type": "uint256"
            }
          ],
          "internalType": "struct ICompaniesRegistry.CompanyInfo",
          "name": "companyInfo",
          "type": "tuple"
        }
      ],
      "name": "createPool",
      "outputs": [],
      "stateMutability": "nonpayable",
      "type": "function"
    },
    {
      "inputs": [],
      "name": "customProposal",
      "outputs": [
        {
          "internalType": "contract ICustomProposal",
          "name": "",
          "type": "address"
        }
      ],
      "stateMutability": "view",
      "type": "function"
    },
    {
      "inputs": [
        {
          "internalType": "address",
          "name": "_pool",
          "type": "address"
        }
      ],
      "name": "getMaxHardCap",
      "outputs": [
        {
          "internalType": "uint256",
          "name": "",
          "type": "uint256"
        }
      ],
      "stateMutability": "view",
      "type": "function"
    },
    {
      "inputs": [],
      "name": "getMinSoftCap",
      "outputs": [
        {
          "internalType": "uint256",
          "name": "",
          "type": "uint256"
        }
      ],
      "stateMutability": "view",
      "type": "function"
    },
    {
      "inputs": [
        {
          "components": [
            {
              "internalType": "uint256",
              "name": "jurisdiction",
              "type": "uint256"
            },
            {
              "internalType": "uint256",
              "name": "entityType",
              "type": "uint256"
            },
            {
              "internalType": "string",
              "name": "ein",
              "type": "string"
            },
            {
              "internalType": "string",
              "name": "dateOfIncorporation",
              "type": "string"
            },
            {
              "internalType": "uint256",
              "name": "fee",
              "type": "uint256"
            }
          ],
          "internalType": "struct ICompaniesRegistry.CompanyInfo",
          "name": "info",
          "type": "tuple"
        }
      ],
      "name": "getPoolAddress",
      "outputs": [
        {
          "internalType": "address",
          "name": "",
          "type": "address"
        }
      ],
      "stateMutability": "view",
      "type": "function"
    },
    {
      "inputs": [
        {
          "internalType": "address",
          "name": "token_",
          "type": "address"
        }
      ],
      "name": "getProtocolCollectedFee",
      "outputs": [
        {
          "internalType": "uint256",
          "name": "",
          "type": "uint256"
        }
      ],
      "stateMutability": "view",
      "type": "function"
    },
    {
      "inputs": [
        {
          "internalType": "uint256",
          "name": "amount",
          "type": "uint256"
        }
      ],
      "name": "getProtocolTokenFee",
      "outputs": [
        {
          "internalType": "uint256",
          "name": "",
          "type": "uint256"
        }
      ],
      "stateMutability": "view",
      "type": "function"
    },
    {
      "inputs": [
        {
          "internalType": "bytes32",
          "name": "role",
          "type": "bytes32"
        }
      ],
      "name": "getRoleAdmin",
      "outputs": [
        {
          "internalType": "bytes32",
          "name": "",
          "type": "bytes32"
        }
      ],
      "stateMutability": "view",
      "type": "function"
    },
    {
      "inputs": [
        {
          "internalType": "bytes32",
          "name": "role",
          "type": "bytes32"
        },
        {
          "internalType": "uint256",
          "name": "index",
          "type": "uint256"
        }
      ],
      "name": "getRoleMember",
      "outputs": [
        {
          "internalType": "address",
          "name": "",
          "type": "address"
        }
      ],
      "stateMutability": "view",
      "type": "function"
    },
    {
      "inputs": [
        {
          "internalType": "bytes32",
          "name": "role",
          "type": "bytes32"
        }
      ],
      "name": "getRoleMemberCount",
      "outputs": [
        {
          "internalType": "uint256",
          "name": "",
          "type": "uint256"
        }
      ],
      "stateMutability": "view",
      "type": "function"
    },
    {
      "inputs": [
        {
          "internalType": "bytes32",
          "name": "role",
          "type": "bytes32"
        },
        {
          "internalType": "address",
          "name": "account",
          "type": "address"
        }
      ],
      "name": "grantRole",
      "outputs": [],
      "stateMutability": "nonpayable",
      "type": "function"
    },
    {
      "inputs": [
        {
          "internalType": "bytes32",
          "name": "role",
          "type": "bytes32"
        },
        {
          "internalType": "address",
          "name": "account",
          "type": "address"
        }
      ],
      "name": "hasRole",
      "outputs": [
        {
          "internalType": "bool",
          "name": "",
          "type": "bool"
        }
      ],
      "stateMutability": "view",
      "type": "function"
    },
    {
      "inputs": [
        {
          "internalType": "contract IRegistry",
          "name": "registry_",
          "type": "address"
        },
        {
          "internalType": "contract ICustomProposal",
          "name": "customProposal_",
          "type": "address"
        },
        {
          "internalType": "contract IVesting",
          "name": "vesting_",
          "type": "address"
        },
        {
          "internalType": "address",
          "name": "poolBeacon_",
          "type": "address"
        },
        {
          "internalType": "address",
          "name": "tokenBeacon_",
          "type": "address"
        },
        {
          "internalType": "address",
          "name": "tgeBeacon_",
          "type": "address"
        },
        {
          "internalType": "uint256",
          "name": "protocolTokenFee_",
          "type": "uint256"
        }
      ],
      "name": "initialize",
      "outputs": [],
      "stateMutability": "nonpayable",
      "type": "function"
    },
    {
      "inputs": [],
      "name": "invoice",
      "outputs": [
        {
          "internalType": "contract IInvoice",
          "name": "",
          "type": "address"
        }
      ],
      "stateMutability": "view",
      "type": "function"
    },
    {
      "inputs": [],
      "name": "pause",
      "outputs": [],
      "stateMutability": "nonpayable",
      "type": "function"
    },
    {
      "inputs": [],
      "name": "paused",
      "outputs": [
        {
          "internalType": "bool",
          "name": "",
          "type": "bool"
        }
      ],
      "stateMutability": "view",
      "type": "function"
    },
    {
      "inputs": [],
      "name": "poolBeacon",
      "outputs": [
        {
          "internalType": "address",
          "name": "",
          "type": "address"
        }
      ],
      "stateMutability": "view",
      "type": "function"
    },
    {
      "inputs": [],
      "name": "protocolTokenFee",
      "outputs": [
        {
          "internalType": "uint256",
          "name": "",
          "type": "uint256"
        }
      ],
      "stateMutability": "view",
      "type": "function"
    },
    {
      "inputs": [],
      "name": "protocolTreasury",
      "outputs": [
        {
          "internalType": "address",
          "name": "",
          "type": "address"
        }
      ],
      "stateMutability": "view",
      "type": "function"
    },
    {
      "inputs": [
        {
          "internalType": "address",
          "name": "",
          "type": "address"
        }
      ],
      "name": "protolCollectedFee",
      "outputs": [
        {
          "internalType": "uint256",
          "name": "",
          "type": "uint256"
        }
      ],
      "stateMutability": "view",
      "type": "function"
    },
    {
      "inputs": [
        {
          "internalType": "uint256",
          "name": "jurisdiction",
          "type": "uint256"
        },
        {
          "internalType": "uint256",
          "name": "entityType",
          "type": "uint256"
        },
        {
          "internalType": "string",
          "name": "trademark",
          "type": "string"
        },
        {
          "components": [
            {
              "internalType": "uint256",
              "name": "proposalThreshold",
              "type": "uint256"
            },
            {
              "internalType": "uint256",
              "name": "quorumThreshold",
              "type": "uint256"
            },
            {
              "internalType": "uint256",
              "name": "decisionThreshold",
              "type": "uint256"
            },
            {
              "internalType": "uint256",
              "name": "votingDuration",
              "type": "uint256"
            },
            {
              "internalType": "uint256",
              "name": "transferValueForDelay",
              "type": "uint256"
            },
            {
              "internalType": "uint256[4]",
              "name": "executionDelays",
              "type": "uint256[4]"
            },
            {
              "internalType": "uint256",
              "name": "votingStartDelay",
              "type": "uint256"
            }
          ],
          "internalType": "struct IGovernanceSettings.NewGovernanceSettings",
          "name": "governanceSettings",
          "type": "tuple"
        }
      ],
      "name": "purchasePool",
      "outputs": [],
      "stateMutability": "payable",
      "type": "function"
    },
    {
      "inputs": [],
      "name": "registry",
      "outputs": [
        {
          "internalType": "contract IRegistry",
          "name": "",
          "type": "address"
        }
      ],
      "stateMutability": "view",
      "type": "function"
    },
    {
      "inputs": [
        {
          "internalType": "bytes32",
          "name": "role",
          "type": "bytes32"
        },
        {
          "internalType": "address",
          "name": "account",
          "type": "address"
        }
      ],
      "name": "renounceRole",
      "outputs": [],
      "stateMutability": "nonpayable",
      "type": "function"
    },
    {
      "inputs": [
        {
          "internalType": "bytes32",
          "name": "role",
          "type": "bytes32"
        },
        {
          "internalType": "address",
          "name": "account",
          "type": "address"
        }
      ],
      "name": "revokeRole",
      "outputs": [],
      "stateMutability": "nonpayable",
      "type": "function"
    },
    {
      "inputs": [
        {
          "internalType": "contract ICustomProposal",
          "name": "_customProposal",
          "type": "address"
        }
      ],
      "name": "setCustomProposal",
      "outputs": [],
      "stateMutability": "nonpayable",
      "type": "function"
    },
    {
      "inputs": [
        {
          "internalType": "contract ITokenFactory",
          "name": "tokenFactory_",
          "type": "address"
        },
        {
          "internalType": "contract ITGEFactory",
          "name": "tgeFactory_",
          "type": "address"
        }
      ],
      "name": "setFactories",
      "outputs": [],
      "stateMutability": "nonpayable",
      "type": "function"
    },
    {
      "inputs": [
        {
          "internalType": "contract IInvoice",
          "name": "_invoice",
          "type": "address"
        }
      ],
      "name": "setInvoice",
      "outputs": [],
      "stateMutability": "nonpayable",
      "type": "function"
    },
    {
      "inputs": [
        {
          "internalType": "address",
          "name": "beacon",
          "type": "address"
        }
      ],
      "name": "setPoolBeacon",
      "outputs": [],
      "stateMutability": "nonpayable",
      "type": "function"
    },
    {
      "inputs": [
        {
          "internalType": "address",
          "name": "_token",
          "type": "address"
        },
        {
          "internalType": "uint256",
          "name": "_protocolTokenFee",
          "type": "uint256"
        }
      ],
      "name": "setProtocolCollectedFee",
      "outputs": [],
      "stateMutability": "nonpayable",
      "type": "function"
    },
    {
      "inputs": [
        {
          "internalType": "uint256",
          "name": "_protocolTokenFee",
          "type": "uint256"
        }
      ],
      "name": "setProtocolTokenFee",
      "outputs": [],
      "stateMutability": "nonpayable",
      "type": "function"
    },
    {
      "inputs": [
        {
          "internalType": "address",
          "name": "_protocolTreasury",
          "type": "address"
        }
      ],
      "name": "setProtocolTreasury",
      "outputs": [],
      "stateMutability": "nonpayable",
      "type": "function"
    },
    {
      "inputs": [
        {
          "internalType": "contract IRegistry",
          "name": "_registry",
          "type": "address"
        }
      ],
      "name": "setRegistry",
      "outputs": [],
      "stateMutability": "nonpayable",
      "type": "function"
    },
    {
      "inputs": [
        {
          "internalType": "address",
          "name": "beacon",
          "type": "address"
        }
      ],
      "name": "setTGEBeacon",
      "outputs": [],
      "stateMutability": "nonpayable",
      "type": "function"
    },
    {
      "inputs": [
        {
          "internalType": "address",
          "name": "beacon",
          "type": "address"
        }
      ],
      "name": "setTokenBeacon",
      "outputs": [],
      "stateMutability": "nonpayable",
      "type": "function"
    },
    {
      "inputs": [
        {
          "internalType": "address",
          "name": "beacon",
          "type": "address"
        }
      ],
      "name": "setTokenERC1155Beacon",
      "outputs": [],
      "stateMutability": "nonpayable",
      "type": "function"
    },
    {
      "inputs": [
        {
          "internalType": "contract IVesting",
          "name": "_vesting",
          "type": "address"
        }
      ],
      "name": "setVesting",
      "outputs": [],
      "stateMutability": "nonpayable",
      "type": "function"
    },
    {
      "inputs": [
        {
          "internalType": "bytes4",
          "name": "interfaceId",
          "type": "bytes4"
        }
      ],
      "name": "supportsInterface",
      "outputs": [
        {
          "internalType": "bool",
          "name": "",
          "type": "bool"
        }
      ],
      "stateMutability": "view",
      "type": "function"
    },
    {
      "inputs": [],
      "name": "tgeBeacon",
      "outputs": [
        {
          "internalType": "address",
          "name": "",
          "type": "address"
        }
      ],
      "stateMutability": "view",
      "type": "function"
    },
    {
      "inputs": [],
      "name": "tgeFactory",
      "outputs": [
        {
          "internalType": "contract ITGEFactory",
          "name": "",
          "type": "address"
        }
      ],
      "stateMutability": "view",
      "type": "function"
    },
    {
      "inputs": [],
      "name": "tokenBeacon",
      "outputs": [
        {
          "internalType": "address",
          "name": "",
          "type": "address"
        }
      ],
      "stateMutability": "view",
      "type": "function"
    },
    {
      "inputs": [],
      "name": "tokenERC1155Beacon",
      "outputs": [
        {
          "internalType": "address",
          "name": "",
          "type": "address"
        }
      ],
      "stateMutability": "view",
      "type": "function"
    },
    {
      "inputs": [],
      "name": "tokenFactory",
      "outputs": [
        {
          "internalType": "contract ITokenFactory",
          "name": "",
          "type": "address"
        }
      ],
      "stateMutability": "view",
      "type": "function"
    },
    {
      "inputs": [
        {
          "internalType": "address",
          "name": "to",
          "type": "address"
        }
      ],
      "name": "transferCollectedFees",
      "outputs": [],
      "stateMutability": "nonpayable",
      "type": "function"
    },
    {
      "inputs": [
        {
          "internalType": "address",
          "name": "newowner",
          "type": "address"
        },
        {
          "internalType": "uint256",
          "name": "jurisdiction",
          "type": "uint256"
        },
        {
          "internalType": "uint256",
          "name": "entityType",
          "type": "uint256"
        },
        {
          "internalType": "string",
          "name": "trademark",
          "type": "string"
        },
        {
          "components": [
            {
              "internalType": "uint256",
              "name": "proposalThreshold",
              "type": "uint256"
            },
            {
              "internalType": "uint256",
              "name": "quorumThreshold",
              "type": "uint256"
            },
            {
              "internalType": "uint256",
              "name": "decisionThreshold",
              "type": "uint256"
            },
            {
              "internalType": "uint256",
              "name": "votingDuration",
              "type": "uint256"
            },
            {
              "internalType": "uint256",
              "name": "transferValueForDelay",
              "type": "uint256"
            },
            {
              "internalType": "uint256[4]",
              "name": "executionDelays",
              "type": "uint256[4]"
            },
            {
              "internalType": "uint256",
              "name": "votingStartDelay",
              "type": "uint256"
            }
          ],
          "internalType": "struct IGovernanceSettings.NewGovernanceSettings",
          "name": "governanceSettings",
          "type": "tuple"
        }
      ],
      "name": "transferPurchasedPoolByService",
      "outputs": [],
      "stateMutability": "nonpayable",
      "type": "function"
    },
    {
      "inputs": [],
      "name": "unpause",
      "outputs": [],
      "stateMutability": "nonpayable",
      "type": "function"
    },
    {
      "inputs": [
        {
          "components": [
            {
              "internalType": "uint256",
              "name": "price",
              "type": "uint256"
            },
            {
              "internalType": "uint256",
              "name": "hardcap",
              "type": "uint256"
            },
            {
              "internalType": "uint256",
              "name": "softcap",
              "type": "uint256"
            },
            {
              "internalType": "uint256",
              "name": "minPurchase",
              "type": "uint256"
            },
            {
              "internalType": "uint256",
              "name": "maxPurchase",
              "type": "uint256"
            },
            {
              "internalType": "uint256",
              "name": "duration",
              "type": "uint256"
            },
            {
              "components": [
                {
                  "internalType": "uint256",
                  "name": "vestedShare",
                  "type": "uint256"
                },
                {
                  "internalType": "uint256",
                  "name": "cliff",
                  "type": "uint256"
                },
                {
                  "internalType": "uint256",
                  "name": "cliffShare",
                  "type": "uint256"
                },
                {
                  "internalType": "uint256",
                  "name": "spans",
                  "type": "uint256"
                },
                {
                  "internalType": "uint256",
                  "name": "spanDuration",
                  "type": "uint256"
                },
                {
                  "internalType": "uint256",
                  "name": "spanShare",
                  "type": "uint256"
                },
                {
                  "internalType": "uint256",
                  "name": "claimTVL",
                  "type": "uint256"
                },
                {
                  "internalType": "address[]",
                  "name": "resolvers",
                  "type": "address[]"
                }
              ],
              "internalType": "struct IVesting.VestingParams",
              "name": "vestingParams",
              "type": "tuple"
            },
            {
              "internalType": "address[]",
              "name": "userWhitelist",
              "type": "address[]"
            },
            {
              "internalType": "address",
              "name": "unitOfAccount",
              "type": "address"
            },
            {
              "internalType": "uint256",
              "name": "lockupDuration",
              "type": "uint256"
            },
            {
              "internalType": "uint256",
              "name": "lockupTVL",
              "type": "uint256"
            }
          ],
          "internalType": "struct ITGE.TGEInfo",
          "name": "info",
          "type": "tuple"
        },
        {
          "internalType": "uint256",
          "name": "cap",
          "type": "uint256"
        },
        {
          "internalType": "uint256",
          "name": "totalSupplyWithReserves",
          "type": "uint256"
        },
        {
          "internalType": "enum IToken.TokenType",
          "name": "tokenType",
          "type": "uint8"
        }
      ],
      "name": "validateTGEInfo",
      "outputs": [],
      "stateMutability": "view",
      "type": "function"
    },
    {
      "inputs": [],
      "name": "vesting",
      "outputs": [
        {
          "internalType": "contract IVesting",
          "name": "",
          "type": "address"
        }
      ],
      "stateMutability": "view",
      "type": "function"
    }
  ],
  "transactionHash": "0xda90b79c69b3907b0604889f22d3d2820f4d7f822b3a4ddb1c145d7ec3ead022",
  "args": [],
  "numDeployments": 4,
  "solcInputHash": "e2c1d907b39878c8d1231106f9ed3b24",
  "bytecode": "0x60806040523480156200001157600080fd5b506200001c62000022565b620000e4565b600054610100900460ff16156200008f5760405162461bcd60e51b815260206004820152602760248201527f496e697469616c697a61626c653a20636f6e747261637420697320696e697469604482015266616c697a696e6760c81b606482015260840160405180910390fd5b60005460ff9081161015620000e2576000805460ff191660ff9081179091556040519081527f7f26b83ff96e1f2b6a682f133852f6798a09c465da95921460cefb38474024989060200160405180910390a15b565b614dfc80620000f46000396000f3fe608060405260043610620003b35760003560e01c80638456cb5911620001eb578063c5a7b2ea116200010b578063db47fbe911620000a1578063e77772fe1162000078578063e77772fe1462000b4c578063f7f5e5a61462000b6f578063f8ee61eb1462000b94578063f9d75d231462000bc657600080fd5b8063db47fbe91462000ad9578063dedcd3071462000b0f578063e76829281462000b3457600080fd5b8063ccf5a77c11620000e2578063ccf5a77c1462000a47578063cf44d4a91462000a6a578063d419f5471462000a8f578063d547741f1462000ab457600080fd5b8063c5a7b2ea14620009c9578063c979e8a714620009ec578063ca15c8731462000a2257600080fd5b80639e82c9781162000181578063a91ee0dc1162000158578063a91ee0dc1462000937578063b02f98fe146200095c578063b3b42f4b1462000981578063b677bc6914620009a457600080fd5b80639e82c97814620008ed578063a217fddf1462000777578063a3689471146200091257600080fd5b80639010d07c11620001c25780639010d07c146200085957806391d14854146200087e5780639aa4c2e514620008a35780639d838ad314620008c857600080fd5b80638456cb5914620007f9578063879010f41462000811578063895ae279146200083657600080fd5b806336568abe11620002d75780635c975abb116200026d57806375b238fc116200024457806375b238fc14620007775780637b103999146200078e5780637c06072914620007b1578063803db96d14620007d657600080fd5b80635c975abb14620006ff5780635f1b82f314620007175780636f6ff3bc146200075257600080fd5b80633fec91a411620002ae5780633fec91a4146200066d57806344c63eec14620006925780635335075514620006b55780635a4c3ceb14620006da57600080fd5b806336568abe146200060b5780633f4ba83a14620006305780633f923814146200064857600080fd5b8063102c5c01116200034d578063248a9ca31162000324578063248a9ca31462000568578063283b11d0146200059c5780632a38b4af14620005c15780632f2ff15d14620005e657600080fd5b8063102c5c0114620004fd5780631460e39014620005205780631b089fdd146200054557600080fd5b806307bd0265116200038e57806307bd026514620004565780630c5a61f8146200048c5780630f33d4fd14620004b35780630f842e0c14620004d857600080fd5b806301569ab014620003b857806301ffc9a714620003f857806303700be8146200042e575b600080fd5b348015620003c557600080fd5b5061013054620003db906001600160a01b031681565b6040516001600160a01b0390911681526020015b60405180910390f35b3480156200040557600080fd5b506200041d6200041736600462003643565b62000bdd565b6040519015158152602001620003ef565b3480156200043b57600080fd5b50620004476101325481565b604051908152602001620003ef565b3480156200046357600080fd5b50620004477f9cf85f95575c3af1e116e3d37fd41e7f36a8a373623f51ffaaa87fdd032fa76781565b3480156200049957600080fd5b50620004b1620004ab36600462003685565b62000c0b565b005b348015620004c057600080fd5b50620004b1620004d236600462003899565b62000cc6565b348015620004e557600080fd5b50620004b1620004f736600462003685565b62001018565b3480156200050a57600080fd5b5061013854620003db906001600160a01b031681565b3480156200052d57600080fd5b50620004b16200053f36600462003916565b620010c3565b3480156200055257600080fd5b5061013454620003db906001600160a01b031681565b3480156200057557600080fd5b506200044762000587366004620039b0565b60009081526065602052604090206001015490565b348015620005a957600080fd5b50620004b1620005bb366004620039ca565b62001425565b348015620005ce57600080fd5b50620004b1620005e036600462003a86565b62001558565b348015620005f357600080fd5b50620004b16200060536600462003af6565b620017f1565b3480156200061857600080fd5b50620004b16200062a36600462003af6565b6200181f565b3480156200063d57600080fd5b50620004b1620018a1565b3480156200065557600080fd5b50620004b16200066736600462003685565b620018b8565b3480156200067a57600080fd5b50620004b16200068c366004620039b0565b62001963565b3480156200069f57600080fd5b5061013554620003db906001600160a01b031681565b348015620006c257600080fd5b50620004b1620006d436600462003b29565b62001aaf565b348015620006e757600080fd5b5062000447620006f936600462003b29565b62001b60565b3480156200070c57600080fd5b506200041d62001c4e565b3480156200072457600080fd5b50620004476200073636600462003685565b6001600160a01b03166000908152610133602052604090205490565b3480156200075f57600080fd5b50620004b16200077136600462003685565b62001c62565b3480156200078457600080fd5b5062000447600081565b3480156200079b57600080fd5b5061012d54620003db906001600160a01b031681565b348015620007be57600080fd5b50620004b1620007d036600462003685565b62001d0d565b348015620007e357600080fd5b5061013154620003db906001600160a01b031681565b3480156200080657600080fd5b50620004b162001db8565b3480156200081e57600080fd5b50620004b16200083036600462003685565b62001dcf565b3480156200084357600080fd5b5061013654620003db906001600160a01b031681565b3480156200086657600080fd5b50620003db6200087836600462003b58565b62001f17565b3480156200088b57600080fd5b506200041d6200089d36600462003af6565b62001f31565b348015620008b057600080fd5b50620004b1620008c236600462003b7b565b62001f5c565b348015620008d557600080fd5b5062000447620008e7366004620039b0565b62001f9a565b348015620008fa57600080fd5b50620003db6200090c366004620039ca565b6200202a565b3480156200091f57600080fd5b50620004476200093136600462003685565b62002059565b3480156200094457600080fd5b50620004b16200095636600462003685565b62002314565b3480156200096957600080fd5b50620004b16200097b36600462003b29565b620023bf565b3480156200098e57600080fd5b5061013954620003db906001600160a01b031681565b348015620009b157600080fd5b50620004b1620009c336600462003bae565b620024bc565b348015620009d657600080fd5b5061012e54620003db906001600160a01b031681565b348015620009f957600080fd5b50620004477f2b1db18cd92cf6947e9bb2f532380e05e806a043d20a65c532268a1d7f4b5e7381565b34801562000a2f57600080fd5b506200044762000a41366004620039b0565b62002613565b34801562000a5457600080fd5b5061012f54620003db906001600160a01b031681565b34801562000a7757600080fd5b50620004b162000a8936600462003685565b6200262c565b34801562000a9c57600080fd5b50620004b162000aae36600462003685565b620026ab565b34801562000ac157600080fd5b50620004b162000ad336600462003af6565b62002756565b34801562000ae657600080fd5b50620004477fcdb004a2c4b58a687fd075d3ee33590a4807decba9bf65227a1ff25b56b056e981565b34801562000b1c57600080fd5b50620004b162000b2e366004620039b0565b6200277f565b34801562000b4157600080fd5b50620004476200280f565b34801562000b5957600080fd5b5061013754620003db906001600160a01b031681565b34801562000b7c57600080fd5b50620004b162000b8e36600462003685565b6200283f565b34801562000ba157600080fd5b506200044762000bb336600462003685565b6101336020526000908152604090205481565b620004b162000bd736600462003c40565b620028ea565b60006001600160e01b03198216635a05180f60e01b148062000c05575062000c058262002b64565b92915050565b600062000c188162002b9b565b60408051808201909152600c81526b414444524553535f5a45524f60a01b60208201526001600160a01b03831662000c6e5760405162461bcd60e51b815260040162000c65919062003cfc565b60405180910390fd5b5061013180546001600160a01b0319166001600160a01b0384169081179091556040519081527f48919a8bb9d5ad92fa352adb62046eaabb006b67ba2fcf7566ed0879ab5a27c3906020015b60405180910390a15050565b61012d546040805163e2938db560e01b815290516001600160a01b03909216916391d1485491839163e2938db5916004808201926020929091908290030181865afa15801562000d1a573d6000803e3d6000fd5b505050506040513d601f19601f8201168201806040525081019062000d40919062003d11565b6040516001600160e01b031960e084901b1681526004810191909152336024820152604401602060405180830381865afa15801562000d83573d6000803e3d6000fd5b505050506040513d601f19601f8201168201806040525081019062000da9919062003d2b565b6040518060400160405280600c81526020016b24a72b20a624a22faaa9a2a960a11b8152509062000def5760405162461bcd60e51b815260040162000c65919062003cfc565b5062000dfa62002ba7565b62000e0462002c02565b61012d54604051633b84067560e21b815260048101869052602481018590526000916001600160a01b03169063ee1019d4906044016000604051808303816000875af115801562000e59573d6000803e3d6000fd5b505050506040513d6000823e601f3d908101601f1916820160405262000e83919081019062003d9b565b9050600062000e92826200202a565b60405163fe90266760e01b81529091506001600160a01b0382169063fe9026679062000ec7908a908890889060040162003ec0565b600060405180830381600087803b15801562000ee257600080fd5b505af115801562000ef7573d6000803e3d6000fd5b5050604080516001600160a01b03851681526000602082018190528183015290517f4cb11cf112aa532bf5c3d8d07e17a2f5c1acdf658922233b7cf75206b66e55a29350908190036060019150a161012d546040516001600160a01b0390911690634dbb83fd9033903090600090630f33d4fd60e01b9062000f86908e908e908e908e908e9060240162003ef9565b60408051601f198184030181529181526020820180516001600160e01b03166001600160e01b03199485161790525160e087901b909216825262000fd09493929160040162003f45565b600060405180830381600087803b15801562000feb57600080fd5b505af115801562001000573d6000803e3d6000fd5b50505050505062001011600160c955565b5050505050565b6000620010258162002b9b565b60408051808201909152600c81526b414444524553535f5a45524f60a01b60208201526001600160a01b038316620010725760405162461bcd60e51b815260040162000c65919062003cfc565b5061013080546001600160a01b0319166001600160a01b0384169081179091556040519081527f0923fd3f39944bd6fbad587593b3fb3adf720832d17d32d946e0ddb9070467ee9060200162000cba565b600054600290610100900460ff16158015620010e6575060005460ff8083169116105b6200114b5760405162461bcd60e51b815260206004820152602e60248201527f496e697469616c697a61626c653a20636f6e747261637420697320616c72656160448201526d191e481a5b9a5d1a585b1a5e995960921b606482015260840162000c65565b6000805461ffff191660ff83161761010017905560408051808201909152600c81526b414444524553535f5a45524f60a01b60208201526001600160a01b038916620011ac5760405162461bcd60e51b815260040162000c65919062003cfc565b5060408051808201909152600c81526b414444524553535f5a45524f60a01b60208201526001600160a01b038616620011fa5760405162461bcd60e51b815260040162000c65919062003cfc565b5060408051808201909152600c81526b414444524553535f5a45524f60a01b60208201526001600160a01b038516620012485760405162461bcd60e51b815260040162000c65919062003cfc565b5060408051808201909152600c81526b414444524553535f5a45524f60a01b60208201526001600160a01b038416620012965760405162461bcd60e51b815260040162000c65919062003cfc565b50620012a162002c57565b620012ab62002c8b565b61012d80546001600160a01b03199081166001600160a01b038b8116919091179092556101358054821689841617905561012e8054821688841617905561012f805482168784161790556101308054821686841617905561013480549091169189169190911790556200132060003362002cbf565b6200134c7f2b1db18cd92cf6947e9bb2f532380e05e806a043d20a65c532268a1d7f4b5e733362002cbf565b620013787f9cf85f95575c3af1e116e3d37fd41e7f36a8a373623f51ffaaa87fdd032fa7673362002cbf565b620013c47fcdb004a2c4b58a687fd075d3ee33590a4807decba9bf65227a1ff25b56b056e97f2b1db18cd92cf6947e9bb2f532380e05e806a043d20a65c532268a1d7f4b5e7362002ce5565b620013cf3062000c0b565b620013da826200277f565b6000805461ff001916905560405160ff821681527f7f26b83ff96e1f2b6a682f133852f6798a09c465da95921460cefb38474024989060200160405180910390a15050505050505050565b61012d5460408051808201909152600c81526b4e4f545f524547495354525960a01b6020820152906001600160a01b03163314620014785760405162461bcd60e51b815260040162000c65919062003cfc565b506200148362002ba7565b6200148d62002c02565b60006200149a8262002d30565b60405163ccf8846160e01b81529091506001600160a01b0382169063ccf8846190620014cb90859060040162003f7a565b600060405180830381600087803b158015620014e657600080fd5b505af1158015620014fb573d6000803e3d6000fd5b5050604080516001600160a01b03851681526000602082018190528183015290517f9c5d829b9b23efc461f9aeef91979ec04bb903feb3bee4f26d22114abfc7335b9350908190036060019150a15062001555600160c955565b50565b60006200156e6101208601610100870162003685565b6001600160a01b03161462001641576000620015936101208601610100870162003685565b6001600160a01b03166318160ddd6040518163ffffffff1660e01b8152600401602060405180830381865afa158015620015d1573d6000803e3d6000fd5b505050506040513d601f19601f82011682018060405250810190620015f7919062003d11565b116040518060400160405280600d81526020016c24a72b20a624a22faa27a5a2a760991b815250906200163f5760405162461bcd60e51b815260040162000c65919062003cfc565b505b8360400135846020013510156040518060400160405280600f81526020016e0494e56414c49445f4841524443415608c1b81525090620016965760405162461bcd60e51b815260040162000c65919062003cfc565b50610135546001600160a01b031663f7ce305c620016b860c087018762003fe2565b6040518263ffffffff1660e01b8152600401620016d6919062004050565b602060405180830381865afa158015620016f4573d6000803e3d6000fd5b505050506040513d601f19601f820116820180604052508101906200171a919062003d2b565b50600062001729838562004118565b9050808560200135111560405180606001604052806021815260200162004da660219139906200176e5760405162461bcd60e51b815260040162000c65919062003cfc565b5060018260028111156200178657620017866200412e565b036200101157806200179c866020013562001f9a565b620017ac90602088013562004144565b111560405180606001604052806032815260200162004d746032913990620017e95760405162461bcd60e51b815260040162000c65919062003cfc565b505050505050565b6000828152606560205260409020600101546200180e8162002b9b565b6200181a838362002cbf565b505050565b6001600160a01b0381163314620018915760405162461bcd60e51b815260206004820152602f60248201527f416363657373436f6e74726f6c3a2063616e206f6e6c792072656e6f756e636560448201526e103937b632b9903337b91039b2b63360891b606482015260840162000c65565b6200189d828262002dd7565b5050565b6000620018ae8162002b9b565b6200155562002dfd565b6000620018c58162002b9b565b60408051808201909152600c81526b414444524553535f5a45524f60a01b60208201526001600160a01b038316620019125760405162461bcd60e51b815260040162000c65919062003cfc565b5061013680546001600160a01b0319166001600160a01b0384169081179091556040519081527f7dfa2703f86aa8eb21b7501c51032278bcee1587d8d2534dcd1a1beb7d7c42059060200162000cba565b61012d54604051630db9619f60e31b81523360048201526001916001600160a01b031690636dcb0cf890602401602060405180830381865afa158015620019ae573d6000803e3d6000fd5b505050506040513d601f19601f82011682018060405250810190620019d491906200415a565b6004811115620019e857620019e86200412e565b14604051806040016040528060088152602001671393d517d413d3d360c21b8152509062001a2b5760405162461bcd60e51b815260040162000c65919062003cfc565b5062001a3662002c02565b61012d5460405163f4be936960e01b8152336004820152602481018390526001600160a01b039091169063f4be9369906044016020604051808303816000875af115801562001a89573d6000803e3d6000fd5b505050506040513d601f19601f820116820180604052508101906200189d919062003d11565b600062001abc8162002b9b565b60405163e0a8f6f560e01b8152600481018390526001600160a01b0384169063e0a8f6f590602401600060405180830381600087803b15801562001aff57600080fd5b505af115801562001b14573d6000803e3d6000fd5b5050604080516001600160a01b0387168152602081018690527f5d423f6a55211a90b8438786aa7edfa40d3eef381b6aae048b52daf814c16462935001905060405180910390a1505050565b600062001b6c62002c02565b610136546040805180820190915260138152722727aa2fa4a72b27a4a1a2afa6a0a720a3a2a960691b6020820152906001600160a01b0316331462001bc65760405162461bcd60e51b815260040162000c65919062003cfc565b5061012d54604051633c6b770b60e01b81526001600160a01b0390911690633c6b770b9062001c019086906001903390889060040162004194565b6020604051808303816000875af115801562001c21573d6000803e3d6000fd5b505050506040513d601f19601f8201168201806040525081019062001c47919062003d11565b9392505050565b600062001c5d60fb5460ff1690565b905090565b600062001c6f8162002b9b565b60408051808201909152600c81526b414444524553535f5a45524f60a01b60208201526001600160a01b03831662001cbc5760405162461bcd60e51b815260040162000c65919062003cfc565b5061013580546001600160a01b0319166001600160a01b0384169081179091556040519081527fa382d6de23230b4513b2ee62dcfa30957a86ccaf67a224d61a08bbff48348e639060200162000cba565b600062001d1a8162002b9b565b60408051808201909152600c81526b414444524553535f5a45524f60a01b60208201526001600160a01b03831662001d675760405162461bcd60e51b815260040162000c65919062003cfc565b5061013480546001600160a01b0319166001600160a01b0384169081179091556040519081527fdde11f4b2682abfdf9c52d46f3333a6d59f63caf74745148fc8e914a86848e069060200162000cba565b600062001dc58162002b9b565b6200155562002e51565b600062001ddc8162002b9b565b60408051808201909152600c81526b414444524553535f5a45524f60a01b60208201526001600160a01b03831662001e295760405162461bcd60e51b815260040162000c65919062003cfc565b506040513031906000906001600160a01b0385169083908381818185875af1925050503d806000811462001e7a576040519150601f19603f3d011682016040523d82523d6000602084013e62001e7f565b606091505b50509050806040518060400160405280601081526020016f11561150d5551253d397d1905253115160821b8152509062001ece5760405162461bcd60e51b815260040162000c65919062003cfc565b50604080516001600160a01b0386168152602081018490527fc812aa15be10cc23ff245a12080e7de523f13b7fd4a16277a703c4f8e3113709910160405180910390a150505050565b600082815260976020526040812062001c47908362002e91565b60009182526065602090815260408084206001600160a01b0393909316845291905290205460ff1690565b600062001f698162002b9b565b5061013780546001600160a01b039384166001600160a01b0319918216179091556101388054929093169116179055565b600062001fa66200280f565b8210156040518060400160405280600d81526020016c494e56414c49445f56414c554560981b8152509062001ff05760405162461bcd60e51b815260040162000c65919062003cfc565b50620f42406200200260018262004118565b61013254620020129085620041dd565b6200201e919062004144565b62000c059190620041f7565b60008060006200203a8462002e9f565b915091506200205182828051906020012062002f63565b949350505050565b6000600161012d54604051630db9619f60e31b81526001600160a01b03858116600483015290911690636dcb0cf890602401602060405180830381865afa158015620020a9573d6000803e3d6000fd5b505050506040513d601f19601f82011682018060405250810190620020cf91906200415a565b6004811115620020e357620020e36200412e565b148015620021515750816001600160a01b031663e47bfee86040518163ffffffff1660e01b8152600401602060405180830381865afa1580156200212b573d6000803e3d6000fd5b505050506040513d601f19601f8201168201806040525081019062002151919062003d2b565b15620022f95762002224826001600160a01b0316633f8a037d6040518163ffffffff1660e01b8152600401602060405180830381865afa1580156200219a573d6000803e3d6000fd5b505050506040513d601f19601f82011682018060405250810190620021c091906200421a565b6001600160a01b031663355274ea6040518163ffffffff1660e01b8152600401602060405180830381865afa158015620021fe573d6000803e3d6000fd5b505050506040513d601f19601f82011682018060405250810190620008e7919062003d11565b826001600160a01b0316633f8a037d6040518163ffffffff1660e01b8152600401602060405180830381865afa15801562002263573d6000803e3d6000fd5b505050506040513d601f19601f820116820180604052508101906200228991906200421a565b6001600160a01b031663355274ea6040518163ffffffff1660e01b8152600401602060405180830381865afa158015620022c7573d6000803e3d6000fd5b505050506040513d601f19601f82011682018060405250810190620022ed919062003d11565b62000c05919062004118565b6200230660001962001f9a565b62000c059060001962004118565b6000620023218162002b9b565b60408051808201909152600c81526b414444524553535f5a45524f60a01b60208201526001600160a01b0383166200236e5760405162461bcd60e51b815260040162000c65919062003cfc565b5061012d80546001600160a01b0319166001600160a01b0384169081179091556040519081527fdb0239c63d4033dcdd21bd44f8dd479a03efbae12f6bbe27c0a5f923d26514cc9060200162000cba565b600461012d54604051630db9619f60e31b81523360048201526001600160a01b0390911690636dcb0cf890602401602060405180830381865afa1580156200240b573d6000803e3d6000fd5b505050506040513d601f19601f820116820180604052508101906200243191906200415a565b60048111156200244557620024456200412e565b14604051806040016040528060078152602001664e4f545f54474560c81b81525090620024875760405162461bcd60e51b815260040162000c65919062003cfc565b506001600160a01b0382166000908152610133602052604081208054839290620024b390849062004144565b90915550505050565b61012d54604051630db9619f60e31b81523360048201526001916001600160a01b031690636dcb0cf890602401602060405180830381865afa15801562002507573d6000803e3d6000fd5b505050506040513d601f19601f820116820180604052508101906200252d91906200415a565b60048111156200254157620025416200412e565b14604051806040016040528060088152602001671393d517d413d3d360c21b81525090620025845760405162461bcd60e51b815260040162000c65919062003cfc565b506200258f62002c02565b61012d54604051633c6b770b60e01b81526001600160a01b0390911690633c6b770b90620025cd90339088906000908990899089906004016200423a565b6020604051808303816000875af1158015620025ed573d6000803e3d6000fd5b505050506040513d601f19601f8201168201806040525081019062001011919062003d11565b600081815260976020526040812062000c059062002f72565b6000620026398162002b9b565b60408051808201909152600c81526b414444524553535f5a45524f60a01b60208201526001600160a01b038316620026865760405162461bcd60e51b815260040162000c65919062003cfc565b505061013980546001600160a01b0319166001600160a01b0392909216919091179055565b6000620026b88162002b9b565b60408051808201909152600c81526b414444524553535f5a45524f60a01b60208201526001600160a01b038316620027055760405162461bcd60e51b815260040162000c65919062003cfc565b5061012e80546001600160a01b0319166001600160a01b0384169081179091556040519081527f410f012324589f5cbdba518b0cd6dfaa342d310e019f74ebe41de3986a9400b99060200162000cba565b600082815260656020526040902060010154620027738162002b9b565b6200181a838362002dd7565b60006200278c8162002b9b565b60408051808201909152600d81526c494e56414c49445f56414c554560981b6020820152620f4240831115620027d75760405162461bcd60e51b815260040162000c65919062003cfc565b506101328290556040518281527f3356e979ac6b186521938f589b0f14ab4bac888ba2f12703da660b1f4ed1119f9060200162000cba565b6101325460009060016200282782620f424062004144565b62002833919062004118565b62001c5d9190620041f7565b60006200284c8162002b9b565b60408051808201909152600c81526b414444524553535f5a45524f60a01b60208201526001600160a01b038316620028995760405162461bcd60e51b815260040162000c65919062003cfc565b5061012f80546001600160a01b0319166001600160a01b0384169081179091556040519081527f9f84344446bcb3626cfbd03f3d3c7cf1d710a1e622ba331edcde44edf1df40049060200162000cba565b620028f462002ba7565b620028fe62002c02565b61012d54604051633b84067560e21b815260048101869052602481018590526000916001600160a01b03169063ee1019d4906044016000604051808303816000875af115801562002953573d6000803e3d6000fd5b505050506040513d6000823e601f3d908101601f191682016040526200297d919081019062003d9b565b90508060800151341460405180604001604052806014815260200173125390d3d4949150d517d1551217d41054d4d15160621b81525090620029d45760405162461bcd60e51b815260040162000c65919062003cfc565b506000620029e2826200202a565b60405163fe90266760e01b81529091506001600160a01b0382169063fe9026679062002a179033908890889060040162003ec0565b600060405180830381600087803b15801562002a3257600080fd5b505af115801562002a47573d6000803e3d6000fd5b5050604080516001600160a01b03851681526000602082018190528183015290517f4cb11cf112aa532bf5c3d8d07e17a2f5c1acdf658922233b7cf75206b66e55a29350908190036060019150a161012d546040516001600160a01b0390911690634dbb83fd9033903090349063f9d75d2360e01b9062002ad3908d908d908d908d906024016200429f565b60408051601f198184030181529181526020820180516001600160e01b03166001600160e01b03199485161790525160e087901b909216825262002b1d9493929160040162003f45565b600060405180830381600087803b15801562002b3857600080fd5b505af115801562002b4d573d6000803e3d6000fd5b50505050505062002b5e600160c955565b50505050565b60006001600160e01b03198216637965db0b60e01b148062000c0557506301ffc9a760e01b6001600160e01b031983161462000c05565b62001555813362002f7d565b600260c9540362002bfb5760405162461bcd60e51b815260206004820152601f60248201527f5265656e7472616e637947756172643a207265656e7472616e742063616c6c00604482015260640162000c65565b600260c955565b62002c0c62001c4e565b1562002c4e5760405162461bcd60e51b815260206004820152601060248201526f14185d5cd8589b194e881c185d5cd95960821b604482015260640162000c65565b565b600160c955565b600054610100900460ff1662002c815760405162461bcd60e51b815260040162000c6590620042d3565b62002c4e62002fe1565b600054610100900460ff1662002cb55760405162461bcd60e51b815260040162000c6590620042d3565b62002c4e62003017565b62002ccb828262003041565b60008281526097602052604090206200181a9082620030cb565b600082815260656020526040808220600101805490849055905190918391839186917fbd79b86ffe0ab8e8776151514217cd7cacd52c909f66475c3af44e129f0b00ff9190a4505050565b600080600062002d408462002e9f565b9150915062002d5260008383620030e2565b61012d54604051631f8b400560e01b81529194506001600160a01b031690631f8b40059062002d899086906001906004016200431e565b6020604051808303816000875af115801562002da9573d6000803e3d6000fd5b505050506040513d601f19601f8201168201806040525081019062002dcf919062003d11565b505050919050565b62002de38282620031ec565b60008281526097602052604090206200181a908262003256565b62002e076200326d565b60fb805460ff191690557f5db9ee0a495bf2e6ff9c91a7834c1ba4fdd244a5e8aa4e537bd38aeae4b073aa335b6040516001600160a01b03909116815260200160405180910390a1565b62002e5b62002c02565b60fb805460ff191660011790557f62e78cea01bee320cd4e420270b5ea74000d11b0c9f74754ebdbfc544b05a25862002e343390565b600062001c478383620032bc565b6000606082600001518360200151846040015160405160200162002ec69392919062004360565b60405160208183030381529060405280519060200120915060006040518060200162002ef29062003635565b601f1982820381018352601f90910116604081815261012e546001600160a01b031660208301528082015260006060820152909150819060800160408051601f198184030181529082905262002f4c929160200162004381565b604051602081830303815290604052915050915091565b600062001c47838330620032e9565b600062000c05825490565b62002f89828262001f31565b6200189d5762002f998162003313565b62002fa683602062003326565b60405160200162002fb9929190620043b4565b60408051601f198184030181529082905262461bcd60e51b825262000c659160040162003cfc565b600054610100900460ff166200300b5760405162461bcd60e51b815260040162000c6590620042d3565b60fb805460ff19169055565b600054610100900460ff1662002c505760405162461bcd60e51b815260040162000c6590620042d3565b6200304d828262001f31565b6200189d5760008281526065602090815260408083206001600160a01b03851684529091529020805460ff19166001179055620030873390565b6001600160a01b0316816001600160a01b0316837f2f8788117e7eff1d82e926ec794901d17c78024a50270940304540a733656f0d60405160405180910390a45050565b600062001c47836001600160a01b038416620034df565b600083471015620031365760405162461bcd60e51b815260206004820152601d60248201527f437265617465323a20696e73756666696369656e742062616c616e6365000000604482015260640162000c65565b8151600003620031895760405162461bcd60e51b815260206004820181905260248201527f437265617465323a2062797465636f6465206c656e677468206973207a65726f604482015260640162000c65565b8282516020840186f590506001600160a01b03811662001c475760405162461bcd60e51b815260206004820152601960248201527f437265617465323a204661696c6564206f6e206465706c6f7900000000000000604482015260640162000c65565b620031f8828262001f31565b156200189d5760008281526065602090815260408083206001600160a01b0385168085529252808320805460ff1916905551339285917ff6391f5c32d9c69d2a47ea670b442974b53935d1edc7fd64eb21e047a839171b9190a45050565b600062001c47836001600160a01b03841662003531565b6200327762001c4e565b62002c4e5760405162461bcd60e51b815260206004820152601460248201527314185d5cd8589b194e881b9bdd081c185d5cd95960621b604482015260640162000c65565b6000826000018281548110620032d657620032d66200442d565b9060005260206000200154905092915050565b6000604051836040820152846020820152828152600b8101905060ff815360559020949350505050565b606062000c056001600160a01b03831660145b6060600062003337836002620041dd565b6200334490600262004144565b6001600160401b038111156200335e576200335e620036a5565b6040519080825280601f01601f19166020018201604052801562003389576020820181803683370190505b509050600360fc1b81600081518110620033a757620033a76200442d565b60200101906001600160f81b031916908160001a905350600f60fb1b81600181518110620033d957620033d96200442d565b60200101906001600160f81b031916908160001a9053506000620033ff846002620041dd565b6200340c90600162004144565b90505b60018111156200348e576f181899199a1a9b1b9c1cb0b131b232b360811b85600f16601081106200344457620034446200442d565b1a60f81b8282815181106200345d576200345d6200442d565b60200101906001600160f81b031916908160001a90535060049490941c93620034868162004443565b90506200340f565b50831562001c475760405162461bcd60e51b815260206004820181905260248201527f537472696e67733a20686578206c656e67746820696e73756666696369656e74604482015260640162000c65565b6000818152600183016020526040812054620035285750815460018181018455600084815260208082209093018490558454848252828601909352604090209190915562000c05565b50600062000c05565b600081815260018301602052604081205480156200362a5760006200355860018362004118565b85549091506000906200356e9060019062004118565b9050818114620035da5760008660000182815481106200359257620035926200442d565b9060005260206000200154905080876000018481548110620035b857620035b86200442d565b6000918252602080832090910192909255918252600188019052604090208390555b8554869080620035ee57620035ee6200445d565b60019003818190600052602060002001600090559055856001016000868152602001908152602001600020600090556001935050505062000c05565b600091505062000c05565b610900806200447483390190565b6000602082840312156200365657600080fd5b81356001600160e01b03198116811462001c4757600080fd5b6001600160a01b03811681146200155557600080fd5b6000602082840312156200369857600080fd5b813562001c47816200366f565b634e487b7160e01b600052604160045260246000fd5b60405160e081016001600160401b0381118282101715620036e057620036e0620036a5565b60405290565b604051608081016001600160401b0381118282101715620036e057620036e0620036a5565b60405160a081016001600160401b0381118282101715620036e057620036e0620036a5565b604051601f8201601f191681016001600160401b03811182821017156200375b576200375b620036a5565b604052919050565b60006001600160401b038211156200377f576200377f620036a5565b50601f01601f191660200190565b600082601f8301126200379f57600080fd5b8135620037b6620037b08262003763565b62003730565b818152846020838601011115620037cc57600080fd5b816020850160208301376000918101602001919091529392505050565b60006101408284031215620037fd57600080fd5b62003807620036bb565b905081358152602080830135818301526040830135604083015260608301356060830152608083013560808301528360bf8401126200384557600080fd5b6200384f620036e6565b806101208501868111156200386357600080fd5b60a086015b8181101562003881578035845292840192840162003868565b508160a0860152803560c08601525050505092915050565b60008060008060006101c08688031215620038b357600080fd5b8535620038c0816200366f565b9450602086013593506040860135925060608601356001600160401b03811115620038ea57600080fd5b620038f8888289016200378d565b9250506200390a8760808801620037e9565b90509295509295909350565b600080600080600080600060e0888a0312156200393257600080fd5b87356200393f816200366f565b9650602088013562003951816200366f565b9550604088013562003963816200366f565b9450606088013562003975816200366f565b9350608088013562003987816200366f565b925060a088013562003999816200366f565b8092505060c0880135905092959891949750929550565b600060208284031215620039c357600080fd5b5035919050565b600060208284031215620039dd57600080fd5b81356001600160401b0380821115620039f557600080fd5b9083019060a0828603121562003a0a57600080fd5b62003a146200370b565b823581526020830135602082015260408301358281111562003a3557600080fd5b62003a43878286016200378d565b60408301525060608301358281111562003a5c57600080fd5b62003a6a878286016200378d565b6060830152506080830135608082015280935050505092915050565b6000806000806080858703121562003a9d57600080fd5b84356001600160401b0381111562003ab457600080fd5b8501610160818803121562003ac857600080fd5b9350602085013592506040850135915060608501356003811062003aeb57600080fd5b939692955090935050565b6000806040838503121562003b0a57600080fd5b82359150602083013562003b1e816200366f565b809150509250929050565b6000806040838503121562003b3d57600080fd5b823562003b4a816200366f565b946020939093013593505050565b6000806040838503121562003b6c57600080fd5b50508035926020909101359150565b6000806040838503121562003b8f57600080fd5b823562003b9c816200366f565b9150602083013562003b1e816200366f565b6000806000806060858703121562003bc557600080fd5b84356004811062003bd557600080fd5b93506020850135925060408501356001600160401b038082111562003bf957600080fd5b818701915087601f83011262003c0e57600080fd5b81358181111562003c1e57600080fd5b88602082850101111562003c3157600080fd5b95989497505060200194505050565b6000806000806101a0858703121562003c5857600080fd5b843593506020850135925060408501356001600160401b0381111562003c7d57600080fd5b62003c8b878288016200378d565b92505062003c9d8660608701620037e9565b905092959194509250565b60005b8381101562003cc557818101518382015260200162003cab565b50506000910152565b6000815180845262003ce881602086016020860162003ca8565b601f01601f19169290920160200192915050565b60208152600062001c47602083018462003cce565b60006020828403121562003d2457600080fd5b5051919050565b60006020828403121562003d3e57600080fd5b8151801515811462001c4757600080fd5b600082601f83011262003d6157600080fd5b815162003d72620037b08262003763565b81815284602083860101111562003d8857600080fd5b6200205182602083016020870162003ca8565b60006020828403121562003dae57600080fd5b81516001600160401b038082111562003dc657600080fd5b9083019060a0828603121562003ddb57600080fd5b62003de56200370b565b825181526020830151602082015260408301518281111562003e0657600080fd5b62003e148782860162003d4f565b60408301525060608301518281111562003e2d57600080fd5b62003e3b8782860162003d4f565b6060830152506080830151608082015280935050505092915050565b805182526020808201518184015260408201516040840152606082015160608401526080820151608084015260a082015160a0840160005b600481101562003eae5782518252918301919083019060010162003e8f565b5050505060c001516101209190910152565b6001600160a01b03841681526101806020820181905260009062003ee78382018662003cce565b91505062002051604083018462003e57565b60006101c060018060a01b038816835286602084015285604084015280606084015262003f298184018662003cce565b91505062003f3b608083018462003e57565b9695505050505050565b6001600160a01b038581168252841660208201526040810183905260806060820181905260009062003f3b9083018462003cce565b6020815281516020820152602082015160408201526000604083015160a0606084015262003fac60c084018262003cce565b90506060840151601f1984830301608085015262003fcb828262003cce565b915050608084015160a08401528091505092915050565b6000823560fe1983360301811262003ff957600080fd5b9190910192915050565b8183526000602080850194508260005b858110156200404557813562004029816200366f565b6001600160a01b03168752958201959082019060010162004013565b509495945050505050565b6020815281356020820152602082013560408201526040820135606082015260608201356080820152608082013560a082015260a082013560c082015260c082013560e0820152600060e0830135601e19843603018112620040b157600080fd5b83016020810190356001600160401b03811115620040ce57600080fd5b8060051b3603821315620040e157600080fd5b61010084810152620040f96101208501828462004003565b95945050505050565b634e487b7160e01b600052601160045260246000fd5b8181038181111562000c055762000c0562004102565b634e487b7160e01b600052602160045260246000fd5b8082018082111562000c055762000c0562004102565b6000602082840312156200416d57600080fd5b81516005811062001c4757600080fd5b600481106200419057620041906200412e565b9052565b6001600160a01b038581168252600090620041b360208401876200417d565b939093166040820152606081019190915260a06080820181905260009082015260c0019392505050565b808202811582820484141762000c055762000c0562004102565b6000826200421557634e487b7160e01b600052601260045260246000fd5b500490565b6000602082840312156200422d57600080fd5b815162001c47816200366f565b6001600160a01b0387811682526000906200425960208401896200417d565b80871660408401525084606083015260a060808301528260a0830152828460c0840137600060c0848401015260c0601f19601f8501168301019050979650505050505050565b60006101a0868352856020840152806040840152620042c18184018662003cce565b915050620040f9606083018462003e57565b6020808252602b908201527f496e697469616c697a61626c653a20636f6e7472616374206973206e6f74206960408201526a6e697469616c697a696e6760a81b606082015260800190565b6001600160a01b03831681526000600583106200433f576200433f6200412e565b82602083015260606040830152600060608301526080820190509392505050565b838152826020820152606060408201526000620040f9606083018462003cce565b600083516200439581846020880162003ca8565b835190830190620043ab81836020880162003ca8565b01949350505050565b7f416363657373436f6e74726f6c3a206163636f756e7420000000000000000000815260008351620043ee81601785016020880162003ca8565b7001034b99036b4b9b9b4b733903937b6329607d1b60179184019182015283516200442181602884016020880162003ca8565b01602801949350505050565b634e487b7160e01b600052603260045260246000fd5b60008162004455576200445562004102565b506000190190565b634e487b7160e01b600052603160045260246000fdfe60806040526040516109003803806109008339810160408190526100229161045b565b61002e82826000610035565b5050610585565b61003e83610100565b6040516001600160a01b038416907f1cf3b03a6cf19fa2baba4df148e9dcabedea7f8a5c07840e207e5c089be95d3e90600090a260008251118061007f5750805b156100fb576100f9836001600160a01b0316635c60da1b6040518163ffffffff1660e01b8152600401602060405180830381865afa1580156100c5573d6000803e3d6000fd5b505050506040513d601f19601f820116820180604052508101906100e9919061051b565b836102a360201b6100291760201c565b505b505050565b610113816102cf60201b6100551760201c565b6101725760405162461bcd60e51b815260206004820152602560248201527f455243313936373a206e657720626561636f6e206973206e6f74206120636f6e6044820152641d1c9858dd60da1b60648201526084015b60405180910390fd5b6101e6816001600160a01b0316635c60da1b6040518163ffffffff1660e01b8152600401602060405180830381865afa1580156101b3573d6000803e3d6000fd5b505050506040513d601f19601f820116820180604052508101906101d7919061051b565b6102cf60201b6100551760201c565b61024b5760405162461bcd60e51b815260206004820152603060248201527f455243313936373a20626561636f6e20696d706c656d656e746174696f6e206960448201526f1cc81b9bdd08184818dbdb9d1c9858dd60821b6064820152608401610169565b806102827fa3f0ad74e5423aebfd80d3ef4346578335a9a72aeaee59ff6cb3582b35133d5060001b6102de60201b6100641760201c565b80546001600160a01b0319166001600160a01b039290921691909117905550565b60606102c883836040518060600160405280602781526020016108d9602791396102e1565b9392505050565b6001600160a01b03163b151590565b90565b6060600080856001600160a01b0316856040516102fe9190610536565b600060405180830381855af49150503d8060008114610339576040519150601f19603f3d011682016040523d82523d6000602084013e61033e565b606091505b5090925090506103508683838761035a565b9695505050505050565b606083156103c95782516000036103c2576001600160a01b0385163b6103c25760405162461bcd60e51b815260206004820152601d60248201527f416464726573733a2063616c6c20746f206e6f6e2d636f6e74726163740000006044820152606401610169565b50816103d3565b6103d383836103db565b949350505050565b8151156103eb5781518083602001fd5b8060405162461bcd60e51b81526004016101699190610552565b80516001600160a01b038116811461041c57600080fd5b919050565b634e487b7160e01b600052604160045260246000fd5b60005b8381101561045257818101518382015260200161043a565b50506000910152565b6000806040838503121561046e57600080fd5b61047783610405565b60208401519092506001600160401b038082111561049457600080fd5b818501915085601f8301126104a857600080fd5b8151818111156104ba576104ba610421565b604051601f8201601f19908116603f011681019083821181831017156104e2576104e2610421565b816040528281528860208487010111156104fb57600080fd5b61050c836020830160208801610437565b80955050505050509250929050565b60006020828403121561052d57600080fd5b6102c882610405565b60008251610548818460208701610437565b9190910192915050565b6020815260008251806020840152610571816040850160208701610437565b601f01601f19169190910160400192915050565b610345806105946000396000f3fe60806040523661001357610011610017565b005b6100115b610027610022610067565b610100565b565b606061004e83836040518060600160405280602781526020016102e960279139610124565b9392505050565b6001600160a01b03163b151590565b90565b600061009a7fa3f0ad74e5423aebfd80d3ef4346578335a9a72aeaee59ff6cb3582b35133d50546001600160a01b031690565b6001600160a01b0316635c60da1b6040518163ffffffff1660e01b8152600401602060405180830381865afa1580156100d7573d6000803e3d6000fd5b505050506040513d601f19601f820116820180604052508101906100fb919061024c565b905090565b3660008037600080366000845af43d6000803e80801561011f573d6000f35b3d6000fd5b6060600080856001600160a01b0316856040516101419190610299565b600060405180830381855af49150503d806000811461017c576040519150601f19603f3d011682016040523d82523d6000602084013e610181565b606091505b50915091506101928683838761019c565b9695505050505050565b60608315610210578251600003610209576001600160a01b0385163b6102095760405162461bcd60e51b815260206004820152601d60248201527f416464726573733a2063616c6c20746f206e6f6e2d636f6e747261637400000060448201526064015b60405180910390fd5b508161021a565b61021a8383610222565b949350505050565b8151156102325781518083602001fd5b8060405162461bcd60e51b815260040161020091906102b5565b60006020828403121561025e57600080fd5b81516001600160a01b038116811461004e57600080fd5b60005b83811015610290578181015183820152602001610278565b50506000910152565b600082516102ab818460208701610275565b9190910192915050565b60208152600082518060208401526102d4816040850160208701610275565b601f01601f1916919091016040019291505056fe416464726573733a206c6f772d6c6576656c2064656c65676174652063616c6c206661696c6564a264697066735822122022a6bf5ebbb7518c40e703958b5c8e4d70ca6715c1e1ccf9e9591bfc86e066d164736f6c63430008110033416464726573733a206c6f772d6c6576656c2064656c65676174652063616c6c206661696c6564484152444341505f414e445f50524f544f434f4c5f4645455f4f564552464c4f575f52454d41494e494e475f535550504c59484152444341505f4f564552464c4f575f52454d41494e494e475f535550504c59a26469706673582212205f5b754fd48b8022441c85f87b3ef9d83be2c8300192ffa82e6acbe15efb0d0964736f6c63430008110033",
  "devdoc": {
    "details": "The main service contract through which the administrator manages the project, assigns roles to individual wallets, changes service commissions, and also through which the user creates pool contracts. Exists in a single copy.",
    "events": {
      "CustomPropsalChanged(address)": {
        "details": "Event emitted on CustomPropsalProxy change.",
        "params": {
          "proxy": "Proxy address"
        }
      },
      "FeesTransferred(address,uint256)": {
        "details": "Event emitted on transferring collected fees.",
        "params": {
          "amount": "Amount of transferred ETH",
          "to": "Transfer recepient"
        }
      },
      "InvoiceChanged(address)": {
        "details": "Event emitted on InvoiceProxy change.",
        "params": {
          "proxy": "Proxy address"
        }
      },
      "PoolBeaconChanged(address)": {
        "details": "Event emitted on PoolBeacon change.",
        "params": {
          "beacon": "Beacon address"
        }
      },
      "PoolCreated(address,address,address)": {
        "details": "Event emitted on pool creation.",
        "params": {
          "pool": "Pool address",
          "tge": "Pool primary TGE address",
          "token": "Pool token address"
        }
      },
      "PoolPurchased(address,address,address)": {
        "details": "Event that emits when a pool is purchased.",
        "params": {
          "pool": "Pool address",
          "tge": "Pool primary TGE address",
          "token": "Pool token address"
        }
      },
      "ProposalCancelled(address,uint256)": {
        "details": "Event emitted on proposal cacellation by service owner.",
        "params": {
          "pool": "Pool address",
          "proposalId": "Pool local proposal id"
        }
      },
      "ProtocolTokenFeeChanged(uint256)": {
        "details": "Event emitted on protocol token fee change.",
        "params": {
          "protocolTokenFee": "Protocol token fee"
        }
      },
      "ProtocolTreasuryChanged(address)": {
        "details": "Event emitted on protocol treasury change.",
        "params": {
          "protocolTreasury": "Protocol treasury address"
        }
      },
      "RegistryChanged(address)": {
        "details": "Event emitted on RegistryProxy change.",
        "params": {
          "proxy": "Proxy address"
        }
      },
      "TGEBeaconChanged(address)": {
        "details": "Event emitted on TGEBeacon change.",
        "params": {
          "beacon": "Beacon address"
        }
      },
      "TGEFactoryChanged(address)": {
        "details": "Event emitted on TGEFactoryProxy change.",
        "params": {
          "proxy": "Proxy address"
        }
      },
      "TokenBeaconChanged(address)": {
        "details": "Event emitted on TokenBeacon change.",
        "params": {
          "beacon": "Beacon address"
        }
      },
      "TokenFactoryChanged(address)": {
        "details": "Event emitted on TokenFactoryProxy change.",
        "params": {
          "proxy": "Proxy address"
        }
      },
      "VestingChanged(address)": {
        "details": "Event emitted on VestingProxy change.",
        "params": {
          "proxy": "Proxy address"
        }
      }
    },
    "kind": "dev",
    "methods": {
      "addEvent(uint8,uint256,string)": {
        "details": "Add event to directory",
        "params": {
          "eventType": "Event type",
          "metaHash": "Hash value of event metadata",
          "proposalId": "Proposal ID"
        }
      },
      "addProposal(uint256)": {
        "details": "Add proposal to directory",
        "params": {
          "proposalId": "Proposal ID"
        }
      },
      "cancelProposal(address,uint256)": {
        "details": "Cancel pool's proposal",
        "params": {
          "pool": "pool",
          "proposalId": "proposalId"
        }
      },
      "constructor": {
        "custom:oz-upgrades-unsafe-allow": "constructor"
      },
      "createPool((uint256,uint256,string,string,uint256))": {
        "details": "Method for purchasing a pool by the user. Among the data submitted for input, there are jurisdiction and Entity Type, which are used as keys to, firstly, find out if there is a company available for acquisition with such parameters among the Registry records, and secondly, to get the data of such a company if it exists, save them to the deployed pool contract, while recording the company is removed from the Registry. This action is only available to users who are on the global white list of addresses allowed before the acquisition of companies. At the same time, the Governance token contract and the TGE contract are deployed for its implementation.",
        "params": {
          "companyInfo": "Company info"
        }
      },
      "getMaxHardCap(address)": {
        "details": "Return max hard cap accounting for protocol token fee",
        "params": {
          "_pool": "pool to calculate hard cap against"
        },
        "returns": {
          "_0": "Maximum hard cap"
        }
      },
      "getMinSoftCap()": {
        "details": "Calculate minimum soft cap for token fee mechanism to work",
        "returns": {
          "_0": "softCap minimum soft cap"
        }
      },
      "getPoolAddress((uint256,uint256,string,string,uint256))": {
        "details": "Get's create2 address for pool",
        "params": {
          "info": "Company info"
        },
        "returns": {
          "_0": "Pool contract address"
        }
      },
      "getProtocolCollectedFee(address)": {
        "details": "Returns protocol token fee claimed for given token",
        "params": {
          "token_": "Token adress"
        },
        "returns": {
          "_0": "token claimed"
        }
      },
      "getProtocolTokenFee(uint256)": {
        "details": "alculates protocol token fee for given token amount",
        "params": {
          "amount": "Token amount"
        },
        "returns": {
          "_0": "tokenFee"
        }
      },
      "getRoleAdmin(bytes32)": {
        "details": "Returns the admin role that controls `role`. See {grantRole} and {revokeRole}. To change a role's admin, use {_setRoleAdmin}."
      },
      "getRoleMember(bytes32,uint256)": {
        "details": "Returns one of the accounts that have `role`. `index` must be a value between 0 and {getRoleMemberCount}, non-inclusive. Role bearers are not sorted in any particular way, and their ordering may change at any point. WARNING: When using {getRoleMember} and {getRoleMemberCount}, make sure you perform all queries on the same block. See the following https://forum.openzeppelin.com/t/iterating-over-elements-on-enumerableset-in-openzeppelin-contracts/2296[forum post] for more information."
      },
      "getRoleMemberCount(bytes32)": {
        "details": "Returns the number of accounts that have `role`. Can be used together with {getRoleMember} to enumerate all bearers of a role."
      },
      "grantRole(bytes32,address)": {
        "details": "Grants `role` to `account`. If `account` had not been already granted `role`, emits a {RoleGranted} event. Requirements: - the caller must have ``role``'s admin role. May emit a {RoleGranted} event."
      },
      "hasRole(bytes32,address)": {
        "details": "Returns `true` if `account` has been granted `role`."
      },
      "initialize(address,address,address,address,address,address,uint256)": {
        "details": "Initializer function, can only be called once",
        "params": {
          "customProposal_": "Custom proposals address",
          "poolBeacon_": "Pool beacon",
          "protocolTokenFee_": "Protocol token fee",
          "registry_": "Registry address",
          "tgeBeacon_": "TGE beacon",
          "tokenBeacon_": "Governance token beacon",
          "vesting_": "Vesting address"
        }
      },
      "pause()": {
        "details": "Pause service"
      },
      "paused()": {
        "details": "Returns true if the contract is paused, and false otherwise."
      },
      "purchasePool(uint256,uint256,string,(uint256,uint256,uint256,uint256,uint256,uint256[4],uint256))": {
        "details": "Method for purchasing a pool by the user. Among the data submitted for input, there are jurisdiction and Entity Type",
        "params": {
          "entityType": "entityType",
          "jurisdiction": "jurisdiction"
        }
      },
      "renounceRole(bytes32,address)": {
        "details": "Revokes `role` from the calling account. Roles are often managed via {grantRole} and {revokeRole}: this function's purpose is to provide a mechanism for accounts to lose their privileges if they are compromised (such as when a trusted device is misplaced). If the calling account had been revoked `role`, emits a {RoleRevoked} event. Requirements: - the caller must be `account`. May emit a {RoleRevoked} event."
      },
      "revokeRole(bytes32,address)": {
        "details": "Revokes `role` from `account`. If `account` had been granted `role`, emits a {RoleRevoked} event. Requirements: - the caller must have ``role``'s admin role. May emit a {RoleRevoked} event."
      },
      "setCustomProposal(address)": {
        "details": "Sets new customProposal contract",
        "params": {
          "_customProposal": "customProposal address"
        }
      },
      "setFactories(address,address)": {
        "details": "Sets factories for previously deployed service",
        "params": {
          "tgeFactory_": "TGEFactory address",
          "tokenFactory_": "TokenFactory address"
        }
      },
      "setInvoice(address)": {
        "details": "Sets new invoice contract",
        "params": {
          "_invoice": "invoice address"
        }
      },
      "setPoolBeacon(address)": {
        "details": "Sets new pool beacon",
        "params": {
          "beacon": "Beacon address"
        }
      },
      "setProtocolCollectedFee(address,uint256)": {
        "details": "Set protocol collected token fee",
        "params": {
          "_protocolTokenFee": "fee collected",
          "_token": "token address"
        }
      },
      "setProtocolTokenFee(uint256)": {
        "details": "Set protocol token fee",
        "params": {
          "_protocolTokenFee": "protocol token fee percentage value with 4 decimals. Examples: 1% = 10000, 100% = 1000000, 0.1% = 1000."
        }
      },
      "setProtocolTreasury(address)": {
        "details": "Assignment of the address to which the commission will be collected in the form of Governance tokens issued under successful TGE",
        "params": {
          "_protocolTreasury": "Protocol treasury address"
        }
      },
      "setRegistry(address)": {
        "details": "Sets new Registry contract",
        "params": {
          "_registry": "registry address"
        }
      },
      "setTGEBeacon(address)": {
        "details": "Sets new TGE beacon",
        "params": {
          "beacon": "Beacon address"
        }
      },
      "setTokenBeacon(address)": {
        "details": "Sets new token beacon",
        "params": {
          "beacon": "Beacon address"
        }
      },
      "setTokenERC1155Beacon(address)": {
        "details": "Sets new tokenERC1155 beacon",
        "params": {
          "beacon": "Beacon address"
        }
      },
      "setVesting(address)": {
        "details": "Sets new vesting",
        "params": {
          "_vesting": "vesting address"
        }
      },
      "supportsInterface(bytes4)": {
        "details": "See {IERC165-supportsInterface}."
      },
      "transferCollectedFees(address)": {
        "details": "Transfer collected createPool protocol fees",
        "params": {
          "to": "Transfer recipient"
        }
      },
      "transferPurchasedPoolByService(address,uint256,uint256,string,(uint256,uint256,uint256,uint256,uint256,uint256[4],uint256))": {
        "details": "Method for purchasing a pool by the user. Among the data submitted for input, there are jurisdiction and Entity Type",
        "params": {
          "entityType": "entityType",
          "jurisdiction": "jurisdiction"
        }
      },
      "unpause()": {
        "details": "Unpause service"
      },
      "validateTGEInfo((uint256,uint256,uint256,uint256,uint256,uint256,(uint256,uint256,uint256,uint256,uint256,uint256,uint256,address[]),address[],address,uint256,uint256),uint256,uint256,uint8)": {
        "details": "Service function that is used to check the correctness of TGE parameters (for the absence of conflicts between parameters)"
      }
    },
    "stateVariables": {
      "customProposal": {
        "details": "Proposal beacon"
      },
      "invoice": {
        "details": "TokenFactory contract"
      },
      "poolBeacon": {
        "details": "Pool beacon"
      },
      "protocolTokenFee": {
        "details": "protocol token fee percentage value with 4 decimals. Examples: 1% = 10000, 100% = 1000000, 0.1% = 1000"
      },
      "protocolTreasury": {
        "details": "There gets 0.1% (the value can be changed by the admin) of all Governance tokens from successful TGE"
      },
      "protolCollectedFee": {
        "details": "protocol token fee claimed for tokens"
      },
      "registry": {
        "details": "Registry contract"
      },
      "tgeBeacon": {
        "details": "TGE beacon"
      },
      "tgeFactory": {
        "details": "TGEFactory contract"
      },
      "tokenBeacon": {
        "details": "Token beacon"
      },
      "tokenERC1155Beacon": {
        "details": "Token beacon"
      },
      "tokenFactory": {
        "details": "TokenFactory contract"
      },
      "vesting": {
        "details": "Vesting contract"
      }
    },
    "version": 1
  },
  "userdoc": {
    "kind": "user",
    "methods": {
      "ADMIN_ROLE()": {
        "notice": "Default admin  role"
      },
      "EXECUTOR_ROLE()": {
        "notice": "Executor role"
      },
      "SERVICE_MANAGER_ROLE()": {
        "notice": "User manager role"
      },
      "WHITELISTED_USER_ROLE()": {
        "notice": "User role"
      }
    },
    "version": 1
  },
  "storageLayout": {
    "storage": [
      {
        "astId": 1184,
        "contract": "contracts/Service.sol:Service",
        "label": "_initialized",
        "offset": 0,
        "slot": "0",
        "type": "t_uint8"
      },
      {
        "astId": 1187,
        "contract": "contracts/Service.sol:Service",
        "label": "_initializing",
        "offset": 1,
        "slot": "0",
        "type": "t_bool"
      },
      {
        "astId": 5634,
        "contract": "contracts/Service.sol:Service",
        "label": "__gap",
        "offset": 0,
        "slot": "1",
        "type": "t_array(t_uint256)50_storage"
      },
      {
        "astId": 6579,
        "contract": "contracts/Service.sol:Service",
        "label": "__gap",
        "offset": 0,
        "slot": "51",
        "type": "t_array(t_uint256)50_storage"
      },
      {
        "astId": 184,
        "contract": "contracts/Service.sol:Service",
        "label": "_roles",
        "offset": 0,
        "slot": "101",
        "type": "t_mapping(t_bytes32,t_struct(RoleData)179_storage)"
      },
      {
        "astId": 479,
        "contract": "contracts/Service.sol:Service",
        "label": "__gap",
        "offset": 0,
        "slot": "102",
        "type": "t_array(t_uint256)49_storage"
      },
      {
        "astId": 33,
        "contract": "contracts/Service.sol:Service",
        "label": "_roleMembers",
        "offset": 0,
        "slot": "151",
        "type": "t_mapping(t_bytes32,t_struct(AddressSet)9324_storage)"
      },
      {
        "astId": 143,
        "contract": "contracts/Service.sol:Service",
        "label": "__gap",
        "offset": 0,
        "slot": "152",
        "type": "t_array(t_uint256)49_storage"
      },
      {
        "astId": 1623,
        "contract": "contracts/Service.sol:Service",
        "label": "_status",
        "offset": 0,
        "slot": "201",
        "type": "t_uint256"
      },
      {
        "astId": 1681,
        "contract": "contracts/Service.sol:Service",
        "label": "__gap",
        "offset": 0,
        "slot": "202",
        "type": "t_array(t_uint256)49_storage"
      },
      {
        "astId": 1503,
        "contract": "contracts/Service.sol:Service",
        "label": "_paused",
        "offset": 0,
        "slot": "251",
        "type": "t_bool"
      },
      {
        "astId": 1608,
        "contract": "contracts/Service.sol:Service",
        "label": "__gap",
        "offset": 0,
        "slot": "252",
        "type": "t_array(t_uint256)49_storage"
      },
      {
        "astId": 13769,
        "contract": "contracts/Service.sol:Service",
        "label": "registry",
        "offset": 0,
        "slot": "301",
        "type": "t_contract(IRegistry)22491"
      },
      {
        "astId": 13772,
        "contract": "contracts/Service.sol:Service",
        "label": "poolBeacon",
        "offset": 0,
        "slot": "302",
        "type": "t_address"
      },
      {
        "astId": 13775,
        "contract": "contracts/Service.sol:Service",
        "label": "tokenBeacon",
        "offset": 0,
        "slot": "303",
        "type": "t_address"
      },
      {
        "astId": 13778,
        "contract": "contracts/Service.sol:Service",
        "label": "tgeBeacon",
        "offset": 0,
        "slot": "304",
        "type": "t_address"
      },
      {
        "astId": 13781,
        "contract": "contracts/Service.sol:Service",
        "label": "protocolTreasury",
        "offset": 0,
        "slot": "305",
        "type": "t_address"
      },
      {
        "astId": 13784,
        "contract": "contracts/Service.sol:Service",
        "label": "protocolTokenFee",
        "offset": 0,
        "slot": "306",
        "type": "t_uint256"
      },
      {
        "astId": 13789,
        "contract": "contracts/Service.sol:Service",
        "label": "protolCollectedFee",
        "offset": 0,
        "slot": "307",
        "type": "t_mapping(t_address,t_uint256)"
      },
      {
        "astId": 13793,
        "contract": "contracts/Service.sol:Service",
        "label": "customProposal",
        "offset": 0,
        "slot": "308",
        "type": "t_contract(ICustomProposal)21186"
      },
      {
        "astId": 13797,
        "contract": "contracts/Service.sol:Service",
        "label": "vesting",
        "offset": 0,
        "slot": "309",
        "type": "t_contract(IVesting)22258"
      },
      {
        "astId": 13801,
        "contract": "contracts/Service.sol:Service",
        "label": "invoice",
        "offset": 0,
        "slot": "310",
        "type": "t_contract(IInvoice)21248"
      },
      {
        "astId": 13805,
        "contract": "contracts/Service.sol:Service",
        "label": "tokenFactory",
        "offset": 0,
        "slot": "311",
        "type": "t_contract(ITokenFactory)22190"
      },
      {
        "astId": 13809,
        "contract": "contracts/Service.sol:Service",
        "label": "tgeFactory",
        "offset": 0,
        "slot": "312",
        "type": "t_contract(ITGEFactory)21830"
      },
      {
        "astId": 13812,
        "contract": "contracts/Service.sol:Service",
        "label": "tokenERC1155Beacon",
        "offset": 0,
        "slot": "313",
        "type": "t_address"
      }
    ],
    "types": {
      "t_address": {
        "encoding": "inplace",
        "label": "address",
        "numberOfBytes": "20"
      },
      "t_array(t_bytes32)dyn_storage": {
        "base": "t_bytes32",
        "encoding": "dynamic_array",
        "label": "bytes32[]",
        "numberOfBytes": "32"
      },
      "t_array(t_uint256)49_storage": {
        "base": "t_uint256",
        "encoding": "inplace",
        "label": "uint256[49]",
        "numberOfBytes": "1568"
      },
      "t_array(t_uint256)50_storage": {
        "base": "t_uint256",
        "encoding": "inplace",
        "label": "uint256[50]",
        "numberOfBytes": "1600"
      },
      "t_bool": {
        "encoding": "inplace",
        "label": "bool",
        "numberOfBytes": "1"
      },
      "t_bytes32": {
        "encoding": "inplace",
        "label": "bytes32",
        "numberOfBytes": "32"
      },
      "t_contract(ICustomProposal)21186": {
        "encoding": "inplace",
        "label": "contract ICustomProposal",
        "numberOfBytes": "20"
      },
      "t_contract(IInvoice)21248": {
        "encoding": "inplace",
        "label": "contract IInvoice",
        "numberOfBytes": "20"
      },
      "t_contract(IRegistry)22491": {
        "encoding": "inplace",
        "label": "contract IRegistry",
        "numberOfBytes": "20"
      },
      "t_contract(ITGEFactory)21830": {
        "encoding": "inplace",
        "label": "contract ITGEFactory",
        "numberOfBytes": "20"
      },
      "t_contract(ITokenFactory)22190": {
        "encoding": "inplace",
        "label": "contract ITokenFactory",
        "numberOfBytes": "20"
      },
      "t_contract(IVesting)22258": {
        "encoding": "inplace",
        "label": "contract IVesting",
        "numberOfBytes": "20"
      },
      "t_mapping(t_address,t_bool)": {
        "encoding": "mapping",
        "key": "t_address",
        "label": "mapping(address => bool)",
        "numberOfBytes": "32",
        "value": "t_bool"
      },
      "t_mapping(t_address,t_uint256)": {
        "encoding": "mapping",
        "key": "t_address",
        "label": "mapping(address => uint256)",
        "numberOfBytes": "32",
        "value": "t_uint256"
      },
      "t_mapping(t_bytes32,t_struct(AddressSet)9324_storage)": {
        "encoding": "mapping",
        "key": "t_bytes32",
        "label": "mapping(bytes32 => struct EnumerableSetUpgradeable.AddressSet)",
        "numberOfBytes": "32",
        "value": "t_struct(AddressSet)9324_storage"
      },
      "t_mapping(t_bytes32,t_struct(RoleData)179_storage)": {
        "encoding": "mapping",
        "key": "t_bytes32",
        "label": "mapping(bytes32 => struct AccessControlUpgradeable.RoleData)",
        "numberOfBytes": "32",
        "value": "t_struct(RoleData)179_storage"
      },
      "t_mapping(t_bytes32,t_uint256)": {
        "encoding": "mapping",
        "key": "t_bytes32",
        "label": "mapping(bytes32 => uint256)",
        "numberOfBytes": "32",
        "value": "t_uint256"
      },
      "t_struct(AddressSet)9324_storage": {
        "encoding": "inplace",
        "label": "struct EnumerableSetUpgradeable.AddressSet",
        "members": [
          {
            "astId": 9323,
            "contract": "contracts/Service.sol:Service",
            "label": "_inner",
            "offset": 0,
            "slot": "0",
            "type": "t_struct(Set)9009_storage"
          }
        ],
        "numberOfBytes": "64"
      },
      "t_struct(RoleData)179_storage": {
        "encoding": "inplace",
        "label": "struct AccessControlUpgradeable.RoleData",
        "members": [
          {
            "astId": 176,
            "contract": "contracts/Service.sol:Service",
            "label": "members",
            "offset": 0,
            "slot": "0",
            "type": "t_mapping(t_address,t_bool)"
          },
          {
            "astId": 178,
            "contract": "contracts/Service.sol:Service",
            "label": "adminRole",
            "offset": 0,
            "slot": "1",
            "type": "t_bytes32"
          }
        ],
        "numberOfBytes": "64"
      },
      "t_struct(Set)9009_storage": {
        "encoding": "inplace",
        "label": "struct EnumerableSetUpgradeable.Set",
        "members": [
          {
            "astId": 9004,
            "contract": "contracts/Service.sol:Service",
            "label": "_values",
            "offset": 0,
            "slot": "0",
            "type": "t_array(t_bytes32)dyn_storage"
          },
          {
            "astId": 9008,
            "contract": "contracts/Service.sol:Service",
            "label": "_indexes",
            "offset": 0,
            "slot": "1",
            "type": "t_mapping(t_bytes32,t_uint256)"
          }
        ],
        "numberOfBytes": "64"
      },
      "t_uint256": {
        "encoding": "inplace",
        "label": "uint256",
        "numberOfBytes": "32"
      },
      "t_uint8": {
        "encoding": "inplace",
        "label": "uint8",
        "numberOfBytes": "1"
      }
    }
  }
}