{
  "address": "0x7B497883fF86d6fA0b7189702572911157C17F71",
  "abi": [
    {
      "inputs": [],
      "stateMutability": "nonpayable",
      "type": "constructor"
    },
    {
      "anonymous": false,
      "inputs": [
        {
          "indexed": false,
          "internalType": "uint8",
          "name": "version",
          "type": "uint8"
        }
      ],
      "name": "Initialized",
      "type": "event"
    },
    {
      "anonymous": false,
      "inputs": [
        {
          "indexed": true,
          "internalType": "address",
          "name": "previousOwner",
          "type": "address"
        },
        {
          "indexed": true,
          "internalType": "address",
          "name": "newOwner",
          "type": "address"
        }
      ],
      "name": "OwnershipTransferred",
      "type": "event"
    },
    {
      "anonymous": false,
      "inputs": [
        {
          "indexed": true,
          "internalType": "bytes32",
          "name": "role",
          "type": "bytes32"
        },
        {
          "indexed": true,
          "internalType": "bytes32",
          "name": "previousAdminRole",
          "type": "bytes32"
        },
        {
          "indexed": true,
          "internalType": "bytes32",
          "name": "newAdminRole",
          "type": "bytes32"
        }
      ],
      "name": "RoleAdminChanged",
      "type": "event"
    },
    {
      "anonymous": false,
      "inputs": [
        {
          "indexed": true,
          "internalType": "bytes32",
          "name": "role",
          "type": "bytes32"
        },
        {
          "indexed": true,
          "internalType": "address",
          "name": "account",
          "type": "address"
        },
        {
          "indexed": true,
          "internalType": "address",
          "name": "sender",
          "type": "address"
        }
      ],
      "name": "RoleGranted",
      "type": "event"
    },
    {
      "anonymous": false,
      "inputs": [
        {
          "indexed": true,
          "internalType": "bytes32",
          "name": "role",
          "type": "bytes32"
        },
        {
          "indexed": true,
          "internalType": "address",
          "name": "account",
          "type": "address"
        },
        {
          "indexed": true,
          "internalType": "address",
          "name": "sender",
          "type": "address"
        }
      ],
      "name": "RoleRevoked",
      "type": "event"
    },
    {
      "inputs": [],
      "name": "DEFAULT_ADMIN_ROLE",
      "outputs": [
        {
          "internalType": "bytes32",
          "name": "",
          "type": "bytes32"
        }
      ],
      "stateMutability": "view",
      "type": "function"
    },
    {
      "inputs": [
        {
          "internalType": "bytes32",
          "name": "role",
          "type": "bytes32"
        }
      ],
      "name": "getRoleAdmin",
      "outputs": [
        {
          "internalType": "bytes32",
          "name": "",
          "type": "bytes32"
        }
      ],
      "stateMutability": "view",
      "type": "function"
    },
    {
      "inputs": [
        {
          "internalType": "bytes32",
          "name": "role",
          "type": "bytes32"
        },
        {
          "internalType": "uint256",
          "name": "index",
          "type": "uint256"
        }
      ],
      "name": "getRoleMember",
      "outputs": [
        {
          "internalType": "address",
          "name": "",
          "type": "address"
        }
      ],
      "stateMutability": "view",
      "type": "function"
    },
    {
      "inputs": [
        {
          "internalType": "bytes32",
          "name": "role",
          "type": "bytes32"
        }
      ],
      "name": "getRoleMemberCount",
      "outputs": [
        {
          "internalType": "uint256",
          "name": "",
          "type": "uint256"
        }
      ],
      "stateMutability": "view",
      "type": "function"
    },
    {
      "inputs": [],
      "name": "getTrustedForwarder",
      "outputs": [
        {
          "internalType": "address",
          "name": "",
          "type": "address"
        }
      ],
      "stateMutability": "view",
      "type": "function"
    },
    {
      "inputs": [
        {
          "internalType": "bytes32",
          "name": "role",
          "type": "bytes32"
        },
        {
          "internalType": "address",
          "name": "account",
          "type": "address"
        }
      ],
      "name": "grantRole",
      "outputs": [],
      "stateMutability": "nonpayable",
      "type": "function"
    },
    {
      "inputs": [
        {
          "internalType": "bytes32",
          "name": "role",
          "type": "bytes32"
        },
        {
          "internalType": "address",
          "name": "account",
          "type": "address"
        }
      ],
      "name": "hasRole",
      "outputs": [
        {
          "internalType": "bool",
          "name": "",
          "type": "bool"
        }
      ],
      "stateMutability": "view",
      "type": "function"
    },
    {
      "inputs": [],
      "name": "initialize",
      "outputs": [],
      "stateMutability": "nonpayable",
      "type": "function"
    },
    {
      "inputs": [
        {
          "internalType": "address",
          "name": "forwarder",
          "type": "address"
        }
      ],
      "name": "isTrustedForwarder",
      "outputs": [
        {
          "internalType": "bool",
          "name": "",
          "type": "bool"
        }
      ],
      "stateMutability": "view",
      "type": "function"
    },
    {
      "inputs": [],
      "name": "owner",
      "outputs": [
        {
          "internalType": "address",
          "name": "",
          "type": "address"
        }
      ],
      "stateMutability": "view",
      "type": "function"
    },
    {
      "inputs": [
        {
          "internalType": "address",
          "name": "pool",
          "type": "address"
        },
        {
          "internalType": "address[]",
          "name": "targets",
          "type": "address[]"
        },
        {
          "internalType": "uint256[]",
          "name": "values",
          "type": "uint256[]"
        },
        {
          "internalType": "bytes[]",
          "name": "callDatas",
          "type": "bytes[]"
        },
        {
          "internalType": "string",
          "name": "description",
          "type": "string"
        },
        {
          "internalType": "string",
          "name": "metaHash",
          "type": "string"
        }
      ],
      "name": "proposeCustomTx",
      "outputs": [
        {
          "internalType": "uint256",
          "name": "proposalId",
          "type": "uint256"
        }
      ],
      "stateMutability": "nonpayable",
      "type": "function"
    },
    {
      "inputs": [
        {
          "internalType": "address",
          "name": "pool",
          "type": "address"
        },
        {
          "components": [
            {
              "internalType": "uint256",
              "name": "proposalThreshold",
              "type": "uint256"
            },
            {
              "internalType": "uint256",
              "name": "quorumThreshold",
              "type": "uint256"
            },
            {
              "internalType": "uint256",
              "name": "decisionThreshold",
              "type": "uint256"
            },
            {
              "internalType": "uint256",
              "name": "votingDuration",
              "type": "uint256"
            },
            {
              "internalType": "uint256",
              "name": "transferValueForDelay",
              "type": "uint256"
            },
            {
              "internalType": "uint256[4]",
              "name": "executionDelays",
              "type": "uint256[4]"
            },
            {
              "internalType": "uint256",
              "name": "votingStartDelay",
              "type": "uint256"
            }
          ],
          "internalType": "struct IGovernanceSettings.NewGovernanceSettings",
          "name": "settings",
          "type": "tuple"
        },
        {
          "internalType": "string",
          "name": "description",
          "type": "string"
        },
        {
          "internalType": "string",
          "name": "metaHash",
          "type": "string"
        }
      ],
      "name": "proposeGovernanceSettings",
      "outputs": [
        {
          "internalType": "uint256",
          "name": "proposalId",
          "type": "uint256"
        }
      ],
      "stateMutability": "nonpayable",
      "type": "function"
    },
    {
      "inputs": [
        {
          "internalType": "address",
          "name": "pool",
          "type": "address"
        },
        {
          "components": [
            {
              "internalType": "uint256",
              "name": "proposalThreshold",
              "type": "uint256"
            },
            {
              "internalType": "uint256",
              "name": "quorumThreshold",
              "type": "uint256"
            },
            {
              "internalType": "uint256",
              "name": "decisionThreshold",
              "type": "uint256"
            },
            {
              "internalType": "uint256",
              "name": "votingDuration",
              "type": "uint256"
            },
            {
              "internalType": "uint256",
              "name": "transferValueForDelay",
              "type": "uint256"
            },
            {
              "internalType": "uint256[4]",
              "name": "executionDelays",
              "type": "uint256[4]"
            },
            {
              "internalType": "uint256",
              "name": "votingStartDelay",
              "type": "uint256"
            }
          ],
          "internalType": "struct IGovernanceSettings.NewGovernanceSettings",
          "name": "settings",
          "type": "tuple"
        },
        {
          "internalType": "address[]",
          "name": "secretary",
          "type": "address[]"
        },
        {
          "internalType": "address[]",
          "name": "executor",
          "type": "address[]"
        },
        {
          "internalType": "string",
          "name": "description",
          "type": "string"
        },
        {
          "internalType": "string",
          "name": "metaHash",
          "type": "string"
        }
      ],
      "name": "proposeGovernanceSettingsWithRoles",
      "outputs": [
        {
          "internalType": "uint256",
          "name": "proposalId",
          "type": "uint256"
        }
      ],
      "stateMutability": "nonpayable",
      "type": "function"
    },
    {
      "inputs": [
        {
          "internalType": "address",
          "name": "pool",
          "type": "address"
        },
        {
          "internalType": "address",
          "name": "token",
          "type": "address"
        },
        {
          "components": [
            {
              "internalType": "uint256",
              "name": "price",
              "type": "uint256"
            },
            {
              "internalType": "uint256",
              "name": "hardcap",
              "type": "uint256"
            },
            {
              "internalType": "uint256",
              "name": "softcap",
              "type": "uint256"
            },
            {
              "internalType": "uint256",
              "name": "minPurchase",
              "type": "uint256"
            },
            {
              "internalType": "uint256",
              "name": "maxPurchase",
              "type": "uint256"
            },
            {
              "internalType": "uint256",
              "name": "duration",
              "type": "uint256"
            },
            {
              "components": [
                {
                  "internalType": "uint256",
                  "name": "vestedShare",
                  "type": "uint256"
                },
                {
                  "internalType": "uint256",
                  "name": "cliff",
                  "type": "uint256"
                },
                {
                  "internalType": "uint256",
                  "name": "cliffShare",
                  "type": "uint256"
                },
                {
                  "internalType": "uint256",
                  "name": "spans",
                  "type": "uint256"
                },
                {
                  "internalType": "uint256",
                  "name": "spanDuration",
                  "type": "uint256"
                },
                {
                  "internalType": "uint256",
                  "name": "spanShare",
                  "type": "uint256"
                },
                {
                  "internalType": "uint256",
                  "name": "claimTVL",
                  "type": "uint256"
                },
                {
                  "internalType": "address[]",
                  "name": "resolvers",
                  "type": "address[]"
                }
              ],
              "internalType": "struct IVesting.VestingParams",
              "name": "vestingParams",
              "type": "tuple"
            },
            {
              "internalType": "address[]",
              "name": "userWhitelist",
              "type": "address[]"
            },
            {
              "internalType": "address",
              "name": "unitOfAccount",
              "type": "address"
            },
            {
              "internalType": "uint256",
              "name": "lockupDuration",
              "type": "uint256"
            },
            {
              "internalType": "uint256",
              "name": "lockupTVL",
              "type": "uint256"
            }
          ],
          "internalType": "struct ITGE.TGEInfo",
          "name": "tgeInfo",
          "type": "tuple"
        },
        {
          "components": [
            {
              "internalType": "enum IToken.TokenType",
              "name": "tokenType",
              "type": "uint8"
            },
            {
              "internalType": "string",
              "name": "name",
              "type": "string"
            },
            {
              "internalType": "string",
              "name": "symbol",
              "type": "string"
            },
            {
              "internalType": "string",
              "name": "description",
              "type": "string"
            },
            {
              "internalType": "uint256",
              "name": "cap",
              "type": "uint256"
            },
            {
              "internalType": "uint8",
              "name": "decimals",
              "type": "uint8"
            }
          ],
          "internalType": "struct IToken.TokenInfo",
          "name": "tokenInfo",
          "type": "tuple"
        },
        {
          "internalType": "string",
          "name": "metadataURI",
          "type": "string"
        },
        {
          "internalType": "string",
          "name": "description",
          "type": "string"
        },
        {
          "internalType": "string",
          "name": "metaHash",
          "type": "string"
        }
      ],
      "name": "proposeTGE",
      "outputs": [
        {
          "internalType": "uint256",
          "name": "proposalId",
          "type": "uint256"
        }
      ],
      "stateMutability": "nonpayable",
      "type": "function"
    },
    {
      "inputs": [
        {
          "internalType": "address",
          "name": "pool",
          "type": "address"
        },
        {
          "internalType": "address",
          "name": "token",
          "type": "address"
        },
        {
          "internalType": "uint256",
          "name": "tokenId",
          "type": "uint256"
        },
        {
          "internalType": "string",
          "name": "tokenIdMetadataURI",
          "type": "string"
        },
        {
          "components": [
            {
              "internalType": "uint256",
              "name": "price",
              "type": "uint256"
            },
            {
              "internalType": "uint256",
              "name": "hardcap",
              "type": "uint256"
            },
            {
              "internalType": "uint256",
              "name": "softcap",
              "type": "uint256"
            },
            {
              "internalType": "uint256",
              "name": "minPurchase",
              "type": "uint256"
            },
            {
              "internalType": "uint256",
              "name": "maxPurchase",
              "type": "uint256"
            },
            {
              "internalType": "uint256",
              "name": "duration",
              "type": "uint256"
            },
            {
              "components": [
                {
                  "internalType": "uint256",
                  "name": "vestedShare",
                  "type": "uint256"
                },
                {
                  "internalType": "uint256",
                  "name": "cliff",
                  "type": "uint256"
                },
                {
                  "internalType": "uint256",
                  "name": "cliffShare",
                  "type": "uint256"
                },
                {
                  "internalType": "uint256",
                  "name": "spans",
                  "type": "uint256"
                },
                {
                  "internalType": "uint256",
                  "name": "spanDuration",
                  "type": "uint256"
                },
                {
                  "internalType": "uint256",
                  "name": "spanShare",
                  "type": "uint256"
                },
                {
                  "internalType": "uint256",
                  "name": "claimTVL",
                  "type": "uint256"
                },
                {
                  "internalType": "address[]",
                  "name": "resolvers",
                  "type": "address[]"
                }
              ],
              "internalType": "struct IVesting.VestingParams",
              "name": "vestingParams",
              "type": "tuple"
            },
            {
              "internalType": "address[]",
              "name": "userWhitelist",
              "type": "address[]"
            },
            {
              "internalType": "address",
              "name": "unitOfAccount",
              "type": "address"
            },
            {
              "internalType": "uint256",
              "name": "lockupDuration",
              "type": "uint256"
            },
            {
              "internalType": "uint256",
              "name": "lockupTVL",
              "type": "uint256"
            }
          ],
          "internalType": "struct ITGE.TGEInfo",
          "name": "tgeInfo",
          "type": "tuple"
        },
        {
          "components": [
            {
              "internalType": "enum IToken.TokenType",
              "name": "tokenType",
              "type": "uint8"
            },
            {
              "internalType": "string",
              "name": "name",
              "type": "string"
            },
            {
              "internalType": "string",
              "name": "symbol",
              "type": "string"
            },
            {
              "internalType": "string",
              "name": "description",
              "type": "string"
            },
            {
              "internalType": "uint256",
              "name": "cap",
              "type": "uint256"
            },
            {
              "internalType": "uint8",
              "name": "decimals",
              "type": "uint8"
            }
          ],
          "internalType": "struct IToken.TokenInfo",
          "name": "tokenInfo",
          "type": "tuple"
        },
        {
          "internalType": "string",
          "name": "metadataURI",
          "type": "string"
        },
        {
          "internalType": "string",
          "name": "description",
          "type": "string"
        },
        {
          "internalType": "string",
          "name": "metaHash",
          "type": "string"
        }
      ],
      "name": "proposeTGEERC1155",
      "outputs": [
        {
          "internalType": "uint256",
          "name": "proposalId",
          "type": "uint256"
        }
      ],
      "stateMutability": "nonpayable",
      "type": "function"
    },
    {
      "inputs": [
        {
          "internalType": "address",
          "name": "pool",
          "type": "address"
        },
        {
          "internalType": "address",
          "name": "asset",
          "type": "address"
        },
        {
          "internalType": "address[]",
          "name": "recipients",
          "type": "address[]"
        },
        {
          "internalType": "uint256[]",
          "name": "amounts",
          "type": "uint256[]"
        },
        {
          "internalType": "string",
          "name": "description",
          "type": "string"
        },
        {
          "internalType": "string",
          "name": "metaHash",
          "type": "string"
        }
      ],
      "name": "proposeTransfer",
      "outputs": [
        {
          "internalType": "uint256",
          "name": "proposalId",
          "type": "uint256"
        }
      ],
      "stateMutability": "nonpayable",
      "type": "function"
    },
    {
      "inputs": [],
      "name": "renounceOwnership",
      "outputs": [],
      "stateMutability": "nonpayable",
      "type": "function"
    },
    {
      "inputs": [
        {
          "internalType": "bytes32",
          "name": "role",
          "type": "bytes32"
        },
        {
          "internalType": "address",
          "name": "account",
          "type": "address"
        }
      ],
      "name": "renounceRole",
      "outputs": [],
      "stateMutability": "nonpayable",
      "type": "function"
    },
    {
      "inputs": [
        {
          "internalType": "bytes32",
          "name": "role",
          "type": "bytes32"
        },
        {
          "internalType": "address",
          "name": "account",
          "type": "address"
        }
      ],
      "name": "revokeRole",
      "outputs": [],
      "stateMutability": "nonpayable",
      "type": "function"
    },
    {
      "inputs": [],
      "name": "service",
      "outputs": [
        {
          "internalType": "contract IService",
          "name": "",
          "type": "address"
        }
      ],
      "stateMutability": "view",
      "type": "function"
    },
    {
      "inputs": [
        {
          "internalType": "address",
          "name": "service_",
          "type": "address"
        }
      ],
      "name": "setService",
      "outputs": [],
      "stateMutability": "nonpayable",
      "type": "function"
    },
    {
      "inputs": [
        {
          "internalType": "bytes4",
          "name": "interfaceId",
          "type": "bytes4"
        }
      ],
      "name": "supportsInterface",
      "outputs": [
        {
          "internalType": "bool",
          "name": "",
          "type": "bool"
        }
      ],
      "stateMutability": "view",
      "type": "function"
    },
    {
      "inputs": [
        {
          "internalType": "address",
          "name": "newOwner",
          "type": "address"
        }
      ],
      "name": "transferOwnership",
      "outputs": [],
      "stateMutability": "nonpayable",
      "type": "function"
    }
  ],
  "transactionHash": "0x9c3f430a3845561f38900aef4a30af51ec6bcc5289af57f7e0b14523e3cc72a7",
  "args": [],
  "numDeployments": 1,
  "solcInputHash": "827f854d3112c4283cb45ec7f4c13405",
  "bytecode": "0x60806040523480156200001157600080fd5b506200001c62000022565b620000e4565b600054610100900460ff16156200008f5760405162461bcd60e51b815260206004820152602760248201527f496e697469616c697a61626c653a20636f6e747261637420697320696e697469604482015266616c697a696e6760c81b606482015260840160405180910390fd5b60005460ff9081161015620000e2576000805460ff191660ff9081179091556040519081527f7f26b83ff96e1f2b6a682f133852f6798a09c465da95921460cefb38474024989060200160405180910390a15b565b613acd80620000f46000396000f3fe608060405234801561001057600080fd5b506004361061014d5760003560e01c80638da5cb5b116100c3578063bf8bdac11161007c578063bf8bdac1146102bb578063ca15c873146102ce578063ce1b815f146102e1578063d547741f146102e9578063d598d4c9146102fc578063f2fde38b1461030f57600080fd5b80638da5cb5b146102425780639010d07c1461026757806391d148541461027a578063a217fddf1461028d578063a7eecd9a14610295578063b9222f6d146102a857600080fd5b806338a5947e1161011557806338a5947e146101e65780634c70d35e146101f9578063572b6c051461020c578063715018a61461021f5780637a1de7b8146102275780638129fc1c1461023a57600080fd5b806301ffc9a71461015257806304dc7c011461017a578063248a9ca31461019b5780632f2ff15d146101be57806336568abe146101d3575b600080fd5b6101656101603660046127dc565b610322565b60405190151581526020015b60405180910390f35b61018d610188366004612c7c565b61034d565b604051908152602001610171565b61018d6101a9366004612d9d565b60009081526097602052604090206001015490565b6101d16101cc366004612db6565b610a4a565b005b6101d16101e1366004612db6565b610a74565b61018d6101f4366004612e8d565b610b02565b61018d61020736600461304e565b610e31565b61016561021a366004613114565b611222565b6101d1611247565b61018d610235366004613131565b61125b565b6101d1611885565b6033546001600160a01b03165b6040516001600160a01b039091168152602001610171565b61024f610275366004613223565b611999565b610165610288366004612db6565b6119b8565b61018d600081565b61018d6102a3366004613245565b6119e3565b61018d6102b63660046132cf565b611cbc565b6101d16102c9366004613114565b61203d565b61018d6102dc366004612d9d565b61206b565b61024f612082565b6101d16102f7366004612db6565b6120f5565b60fb5461024f906001600160a01b031681565b6101d161031d366004613114565b61211a565b60006001600160e01b03198216635a05180f60e01b1480610347575061034782612190565b92915050565b6000806001600160a01b038a1615806103cb575060405163599fbc6560e11b81526001600160a01b038b811660048301528c169063b33f78ca90602401602060405180830381865afa1580156103a7573d6000803e3d6000fd5b505050506040513d601f19601f820116820180604052508101906103cb9190613349565b6040518060400160405280601381526020017257524f4e475f544f4b454e5f4144445245535360681b8152509061041e5760405162461bcd60e51b815260040161041591906133bb565b60405180910390fd5b506001600160a01b038a16158061049e57506040516001623549c760e21b03198152600481018a90526001600160a01b038b169063ff2ad8e490602401602060405180830381865afa158015610478573d6000803e3d6000fd5b505050506040513d601f19601f8201168201806040525081019061049c91906133ce565b155b80610584575060006040516365a6887f60e11b8152600481018b90526001600160a01b038c169063cb4d10fe90602401602060405180830381865afa1580156104eb573d6000803e3d6000fd5b505050506040513d601f19601f8201168201806040525081019061050f91906133fd565b6001600160a01b031663c19d93fb6040518163ffffffff1660e01b8152600401602060405180830381865afa15801561054c573d6000803e3d6000fd5b505050506040513d601f19601f82011682018060405250810190610570919061341a565b6002811115610581576105816133e7565b14155b604051806040016040528060118152602001704143544956455f5447455f45584953545360781b815250906105cc5760405162461bcd60e51b815260040161041591906133bb565b506001600160a01b038a161561073157881580159061064f57506040516314c5238f60e01b8152600481018a90526001600160a01b038b16906314c5238f90602401602060405180830381865afa15801561062b573d6000803e3d6000fd5b505050506040513d601f19601f8201168201806040525081019061064f9190613349565b15610731576040516001623549c760e21b03198152600481018a90526001600160a01b038b169063ff2ad8e490602401602060405180830381865afa15801561069c573d6000803e3d6000fd5b505050506040513d601f19601f820116820180604052508101906106c091906133ce565b60808701526040516356f9f5e360e11b8152600481018a90526001600160a01b038b169063adf3ebc690602401602060405180830381865afa15801561070a573d6000803e3d6000fd5b505050506040513d601f19601f8201168201806040525081019061072e91906133ce565b90505b60fb5460808701518751604051632a38b4af60e01b81526001600160a01b0390931692632a38b4af9261076b928c9287919060040161359e565b60006040518083038186803b15801561078357600080fd5b505afa158015610797573d6000803e3d6000fd5b5060009250600191506107a79050565b6040519080825280602002602001820160405280156107d0578160200160208202803683370190505b50905060fb60009054906101000a90046001600160a01b03166001600160a01b031663102c5c016040518163ffffffff1660e01b8152600401602060405180830381865afa158015610826573d6000803e3d6000fd5b505050506040513d601f19601f8201168201806040525081019061084a91906133fd565b8160008151811061085d5761085d6135cc565b6001600160a01b0392909216602092830291909101909101526040805160018082528183019092526000918160200160208202803683370190505090506000816000815181106108af576108af6135cc565b6020908102919091010152604080516001808252818301909252600091816020015b60608152602001906001900390816108d15750506040519091506324e2af2b60e01b9061090c908f908f908f908f908f908f9060240161365f565b604051602081830303815290604052906001600160e01b0319166020820180516001600160e01b03838183161783525050505081600081518110610952576109526135cc565b602002602001018190525060008e6001600160a01b031663f7ec6f106109766121c5565b60066040518060c00160405280898152602001888152602001878152602001600081526020016000815260200160008152506040518060600160405280600260038111156109c6576109c66133e7565b81526020018e81526020018d8152506040518563ffffffff1660e01b81526004016109f494939291906137f9565b6020604051808303816000875af1158015610a13573d6000803e3d6000fd5b505050506040513d601f19601f82011682018060405250810190610a3791906133ce565b9f9e505050505050505050505050505050565b600082815260976020526040902060010154610a65816121cf565b610a6f83836121e0565b505050565b610a7c6121c5565b6001600160a01b0316816001600160a01b031614610af45760405162461bcd60e51b815260206004820152602f60248201527f416363657373436f6e74726f6c3a2063616e206f6e6c792072656e6f756e636560448201526e103937b632b9903337b91039b2b63360891b6064820152608401610415565b610afe8282612202565b5050565b604051633157293f60e01b8152600260048201526000906001600160a01b03881690633157293f90602401602060405180830381865afa158015610b4a573d6000803e3d6000fd5b505050506040513d601f19601f82011682018060405250810190610b6e9190613349565b156040518060600160405280602a8152602001613a6e602a913990610ba65760405162461bcd60e51b815260040161041591906133bb565b506040516323fb0ead60e21b81526001600160a01b03881690638fec3ab490610bd39089906004016138a4565b60006040518083038186803b158015610beb57600080fd5b505afa158015610bff573d6000803e3d6000fd5b506000925060019150610c0f9050565b604051908082528060200260200182016040528015610c38578160200160208202803683370190505b5090508781600081518110610c4f57610c4f6135cc565b6001600160a01b039290921660209283029190910190910152604080516001808252818301909252600091816020016020820280368337019050509050600081600081518110610ca157610ca16135cc565b6020908102919091010152604080516001808252818301909252600091816020015b6060815260200190600190039081610cc35750506040519091506396a7244160e01b90610cf8908b908b908b906024016138b3565b604051602081830303815290604052906001600160e01b0319166020820180516001600160e01b03838183161783525050505081600081518110610d3e57610d3e6135cc565b602002602001018190525060008a6001600160a01b031663f7ec6f10610d626121c5565b60026040518060c00160405280898152602001888152602001878152602001600081526020016000815260200160008152506040518060600160405280600380811115610db157610db16133e7565b81526020018d81526020018c8152506040518563ffffffff1660e01b8152600401610ddf94939291906137f9565b6020604051808303816000875af1158015610dfe573d6000803e3d6000fd5b505050506040513d601f19601f82011682018060405250810190610e2291906133ce565b9b9a5050505050505050505050565b600086600160fb60009054906101000a90046001600160a01b03166001600160a01b0316637b1039996040518163ffffffff1660e01b8152600401602060405180830381865afa158015610e89573d6000803e3d6000fd5b505050506040513d601f19601f82011682018060405250810190610ead91906133fd565b604051630db9619f60e31b81526001600160a01b0384811660048301529190911690636dcb0cf890602401602060405180830381865afa158015610ef5573d6000803e3d6000fd5b505050506040513d601f19601f82011682018060405250810190610f1991906138f4565b6004811115610f2a57610f2a6133e7565b14604051806040016040528060088152602001671393d517d413d3d360c21b81525090610f6a5760405162461bcd60e51b815260040161041591906133bb565b5085518751148015610f7d575084518751145b6040518060400160405280600d81526020016c494e56414c49445f56414c554560981b81525090610fc15760405162461bcd60e51b815260040161041591906133bb565b5060005b875181101561113a5760fb5460408051637b10399960e01b815290516000926001600160a01b031691637b1039999160048083019260209291908290030181865afa158015611018573d6000803e3d6000fd5b505050506040513d601f19601f8201168201806040525081019061103c91906133fd565b6001600160a01b0316636dcb0cf88a848151811061105c5761105c6135cc565b60200260200101516040518263ffffffff1660e01b815260040161108f91906001600160a01b0391909116815260200190565b602060405180830381865afa1580156110ac573d6000803e3d6000fd5b505050506040513d601f19601f820116820180604052508101906110d091906138f4565b60048111156110e1576110e16133e7565b146040518060400160405280600e81526020016d1253959053125117d5105491d15560921b815250906111275760405162461bcd60e51b815260040161041591906133bb565b50806111328161392b565b915050610fc5565b506000886001600160a01b031663f7ec6f106111546121c5565b60046040518060c001604052808d81526020018c81526020018b8152602001600081526020016000815260200160008152506040518060600160405280600160038111156111a4576111a46133e7565b81526020018b81526020018a8152506040518563ffffffff1660e01b81526004016111d294939291906137f9565b6020604051808303816000875af11580156111f1573d6000803e3d6000fd5b505050506040513d601f19601f8201168201806040525081019061121591906133ce565b9998505050505050505050565b600061122c612082565b6001600160a01b0316826001600160a01b0316149050919050565b61124f612224565b611259600061229d565b565b6000806001600160a01b03881615806112d9575060405163599fbc6560e11b81526001600160a01b0389811660048301528a169063b33f78ca90602401602060405180830381865afa1580156112b5573d6000803e3d6000fd5b505050506040513d601f19601f820116820180604052508101906112d99190613349565b6040518060400160405280601381526020017257524f4e475f544f4b454e5f4144445245535360681b815250906113235760405162461bcd60e51b815260040161041591906133bb565b50600186516002811115611339576113396133e7565b0361141257876001600160a01b031663355274ea6040518163ffffffff1660e01b8152600401602060405180830381865afa15801561137c573d6000803e3d6000fd5b505050506040513d601f19601f820116820180604052508101906113a091906133ce565b866080018181525050876001600160a01b031663585fe4d56040518163ffffffff1660e01b8152600401602060405180830381865afa1580156113e7573d6000803e3d6000fd5b505050506040513d601f19601f8201168201806040525081019061140b91906133ce565b9050611572565b600286516002811115611427576114276133e7565b03611572576001600160a01b0388161561157257876001600160a01b031663d04d79b56040518163ffffffff1660e01b8152600401602060405180830381865afa158015611479573d6000803e3d6000fd5b505050506040513d601f19601f8201168201806040525081019061149d9190613349565b1561157257876001600160a01b031663355274ea6040518163ffffffff1660e01b8152600401602060405180830381865afa1580156114e0573d6000803e3d6000fd5b505050506040513d601f19601f8201168201806040525081019061150491906133ce565b866080018181525050876001600160a01b031663585fe4d56040518163ffffffff1660e01b8152600401602060405180830381865afa15801561154b573d6000803e3d6000fd5b505050506040513d601f19601f8201168201806040525081019061156f91906133ce565b90505b60fb5460808701518751604051632a38b4af60e01b81526001600160a01b0390931692632a38b4af926115ac928c9287919060040161359e565b60006040518083038186803b1580156115c457600080fd5b505afa1580156115d8573d6000803e3d6000fd5b5060009250600191506115e89050565b604051908082528060200260200182016040528015611611578160200160208202803683370190505b50905060fb60009054906101000a90046001600160a01b03166001600160a01b031663102c5c016040518163ffffffff1660e01b8152600401602060405180830381865afa158015611667573d6000803e3d6000fd5b505050506040513d601f19601f8201168201806040525081019061168b91906133fd565b8160008151811061169e5761169e6135cc565b6001600160a01b0392909216602092830291909101909101526040805160018082528183019092526000918160200160208202803683370190505090506000816000815181106116f0576116f06135cc565b6020908102919091010152604080516001808252818301909252600091816020015b6060815260200190600190039081611712575050604051909150630fa1820960e31b90611749908d908d908d908d90602401613944565b604051602081830303815290604052906001600160e01b0319166020820180516001600160e01b0383818316178352505050508160008151811061178f5761178f6135cc565b602002602001018190525060008c6001600160a01b031663f7ec6f106117b36121c5565b60016040518060c0016040528089815260200188815260200187815260200160008152602001600081526020016000815250604051806060016040528060026003811115611803576118036133e7565b81526020018e81526020018d8152506040518563ffffffff1660e01b815260040161183194939291906137f9565b6020604051808303816000875af1158015611850573d6000803e3d6000fd5b505050506040513d601f19601f8201168201806040525081019061187491906133ce565b9d9c50505050505050505050505050565b600054610100900460ff16158080156118a55750600054600160ff909116105b806118bf5750303b1580156118bf575060005460ff166001145b6119225760405162461bcd60e51b815260206004820152602e60248201527f496e697469616c697a61626c653a20636f6e747261637420697320616c72656160448201526d191e481a5b9a5d1a585b1a5e995960921b6064820152608401610415565b6000805460ff191660011790558015611945576000805461ff0019166101001790555b6119506000336121e0565b8015611996576000805461ff0019169055604051600181527f7f26b83ff96e1f2b6a682f133852f6798a09c465da95921460cefb38474024989060200160405180910390a15b50565b600082815260c9602052604081206119b190836122ef565b9392505050565b60009182526097602090815260408084206001600160a01b0393909316845291905290205460ff1690565b604051633157293f60e01b8152600260048201526000906001600160a01b03861690633157293f90602401602060405180830381865afa158015611a2b573d6000803e3d6000fd5b505050506040513d601f19601f82011682018060405250810190611a4f9190613349565b156040518060600160405280602a8152602001613a6e602a913990611a875760405162461bcd60e51b815260040161041591906133bb565b506040516323fb0ead60e21b81526001600160a01b03861690638fec3ab490611ab49087906004016138a4565b60006040518083038186803b158015611acc57600080fd5b505afa158015611ae0573d6000803e3d6000fd5b506000925060019150611af09050565b604051908082528060200260200182016040528015611b19578160200160208202803683370190505b5090508581600081518110611b3057611b306135cc565b6001600160a01b039290921660209283029190910190910152604080516001808252818301909252600091816020016020820280368337019050509050600081600081518110611b8257611b826135cc565b6020908102919091010152604080516001808252818301909252600091816020015b6060815260200190600190039081611ba4575050604051909150639198c39360e01b90611bd59089906024016138a4565b604051602081830303815290604052906001600160e01b0319166020820180516001600160e01b03838183161783525050505081600081518110611c1b57611c1b6135cc565b60200260200101819052506000886001600160a01b031663f7ec6f10611c3f6121c5565b60026040518060c00160405280898152602001888152602001878152602001600081526020016000815260200160008152506040518060600160405280600380811115611c8e57611c8e6133e7565b81526020018d81526020018c8152506040518563ffffffff1660e01b81526004016111d294939291906137f9565b6000808551118015611ccf575083518551145b6040518060400160405280600d81526020016c494e56414c49445f56414c554560981b81525090611d135760405162461bcd60e51b815260040161041591906133bb565b50600085516001600160401b03811115611d2f57611d2f61282b565b604051908082528060200260200182016040528015611d58578160200160208202803683370190505b509050600086516001600160401b03811115611d7657611d7661282b565b604051908082528060200260200182016040528015611d9f578160200160208202803683370190505b509050600087516001600160401b03811115611dbd57611dbd61282b565b604051908082528060200260200182016040528015611df057816020015b6060815260200190600190039081611ddb5790505b50905060005b8851811015611fd3576001600160a01b038a16611ec357888181518110611e1f57611e1f6135cc565b6020026020010151848281518110611e3957611e396135cc565b60200260200101906001600160a01b031690816001600160a01b03168152505060405180602001604052806000815250828281518110611e7b57611e7b6135cc565b6020026020010181905250878181518110611e9857611e986135cc565b6020026020010151838281518110611eb257611eb26135cc565b602002602001018181525050611fc1565b89848281518110611ed657611ed66135cc565b60200260200101906001600160a01b031690816001600160a01b03168152505063a9059cbb60e01b898281518110611f1057611f106135cc565b6020026020010151898381518110611f2a57611f2a6135cc565b60209081029190910101516040516001600160a01b0390921660248301526044820152606401604051602081830303815290604052906001600160e01b0319166020820180516001600160e01b038381831617835250505050828281518110611f9557611f956135cc565b60200260200101819052506000838281518110611fb457611fb46135cc565b6020026020010181815250505b80611fcb8161392b565b915050611df6565b5060008a6001600160a01b031663f7ec6f10611fed6121c5565b60006040518060c0016040528089815260200188815260200187815260200160008152602001600081526020016000815250604051806060016040528060016003811115610db157610db16133e7565b6000612048816121cf565b5060fb80546001600160a01b0319166001600160a01b0392909216919091179055565b600081815260c960205260408120610347906122fb565b60fb546040805163ce1b815f60e01b815290516000926001600160a01b03169163ce1b815f9160048083019260209291908290030181865afa1580156120cc573d6000803e3d6000fd5b505050506040513d601f19601f820116820180604052508101906120f091906133fd565b905090565b600082815260976020526040902060010154612110816121cf565b610a6f8383612202565b612122612224565b6001600160a01b0381166121875760405162461bcd60e51b815260206004820152602660248201527f4f776e61626c653a206e6577206f776e657220697320746865207a65726f206160448201526564647265737360d01b6064820152608401610415565b6119968161229d565b60006001600160e01b03198216637965db0b60e01b148061034757506301ffc9a760e01b6001600160e01b0319831614610347565b60006120f0612305565b611996816121db6121c5565b612334565b6121ea828261238d565b600082815260c960205260409020610a6f9082612414565b61220c8282612429565b600082815260c960205260409020610a6f90826124ae565b61222c6121c5565b6001600160a01b03166122476033546001600160a01b031690565b6001600160a01b0316146112595760405162461bcd60e51b815260206004820181905260248201527f4f776e61626c653a2063616c6c6572206973206e6f7420746865206f776e65726044820152606401610415565b603380546001600160a01b038381166001600160a01b0319831681179093556040519116919082907f8be0079c531659141344cd1fd0a4f28419497f9722a3daafe3b4186f6b6457e090600090a35050565b60006119b183836124c3565b6000610347825490565b600061231033611222565b801561231d575060143610155b1561232f575060131936013560601c90565b503390565b61233e82826119b8565b610afe5761234b816124ed565b6123568360206124ff565b60405160200161236792919061398e565b60408051601f198184030181529082905262461bcd60e51b8252610415916004016133bb565b61239782826119b8565b610afe5760008281526097602090815260408083206001600160a01b03851684529091529020805460ff191660011790556123d06121c5565b6001600160a01b0316816001600160a01b0316837f2f8788117e7eff1d82e926ec794901d17c78024a50270940304540a733656f0d60405160405180910390a45050565b60006119b1836001600160a01b03841661269a565b61243382826119b8565b15610afe5760008281526097602090815260408083206001600160a01b03851684529091529020805460ff1916905561246a6121c5565b6001600160a01b0316816001600160a01b0316837ff6391f5c32d9c69d2a47ea670b442974b53935d1edc7fd64eb21e047a839171b60405160405180910390a45050565b60006119b1836001600160a01b0384166126e9565b60008260000182815481106124da576124da6135cc565b9060005260206000200154905092915050565b60606103476001600160a01b03831660145b6060600061250e836002613a03565b612519906002613a1a565b6001600160401b038111156125305761253061282b565b6040519080825280601f01601f19166020018201604052801561255a576020820181803683370190505b509050600360fc1b81600081518110612575576125756135cc565b60200101906001600160f81b031916908160001a905350600f60fb1b816001815181106125a4576125a46135cc565b60200101906001600160f81b031916908160001a90535060006125c8846002613a03565b6125d3906001613a1a565b90505b600181111561264b576f181899199a1a9b1b9c1cb0b131b232b360811b85600f1660108110612607576126076135cc565b1a60f81b82828151811061261d5761261d6135cc565b60200101906001600160f81b031916908160001a90535060049490941c9361264481613a2d565b90506125d6565b5083156119b15760405162461bcd60e51b815260206004820181905260248201527f537472696e67733a20686578206c656e67746820696e73756666696369656e746044820152606401610415565b60008181526001830160205260408120546126e157508154600181810184556000848152602080822090930184905584548482528286019093526040902091909155610347565b506000610347565b600081815260018301602052604081205480156127d257600061270d600183613a44565b855490915060009061272190600190613a44565b9050818114612786576000866000018281548110612741576127416135cc565b9060005260206000200154905080876000018481548110612764576127646135cc565b6000918252602080832090910192909255918252600188019052604090208390555b855486908061279757612797613a57565b600190038181906000526020600020016000905590558560010160008681526020019081526020016000206000905560019350505050610347565b6000915050610347565b6000602082840312156127ee57600080fd5b81356001600160e01b0319811681146119b157600080fd5b6001600160a01b038116811461199657600080fd5b803561282681612806565b919050565b634e487b7160e01b600052604160045260246000fd5b60405161010081016001600160401b03811182821017156128645761286461282b565b60405290565b60405161016081016001600160401b03811182821017156128645761286461282b565b60405160c081016001600160401b03811182821017156128645761286461282b565b60405160e081016001600160401b03811182821017156128645761286461282b565b604051608081016001600160401b03811182821017156128645761286461282b565b604051601f8201601f191681016001600160401b038111828210171561291b5761291b61282b565b604052919050565b60006001600160401b0383111561293c5761293c61282b565b61294f601f8401601f19166020016128f3565b905082815283838301111561296357600080fd5b828260208301376000602084830101529392505050565b600082601f83011261298b57600080fd5b6119b183833560208501612923565b60006001600160401b038211156129b3576129b361282b565b5060051b60200190565b600082601f8301126129ce57600080fd5b813560206129e36129de8361299a565b6128f3565b82815260059290921b84018101918181019086841115612a0257600080fd5b8286015b84811015612a26578035612a1981612806565b8352918301918301612a06565b509695505050505050565b60006101008284031215612a4457600080fd5b612a4c612841565b9050813581526020820135602082015260408201356040820152606082013560608201526080820135608082015260a082013560a082015260c082013560c082015260e08201356001600160401b03811115612aa757600080fd5b612ab3848285016129bd565b60e08301525092915050565b60006101608284031215612ad257600080fd5b612ada61286a565b9050813581526020820135602082015260408201356040820152606082013560608201526080820135608082015260a082013560a082015260c08201356001600160401b0380821115612b2c57600080fd5b612b3885838601612a31565b60c084015260e0840135915080821115612b5157600080fd5b50612b5e848285016129bd565b60e083015250610100612b7281840161281b565b9082015261012082810135908201526101409182013591810191909152919050565b6003811061199657600080fd5b803561282681612b94565b803560ff8116811461282657600080fd5b600060c08284031215612bcf57600080fd5b612bd761288d565b9050612be282612ba1565b815260208201356001600160401b0380821115612bfe57600080fd5b612c0a8583860161297a565b60208401526040840135915080821115612c2357600080fd5b612c2f8583860161297a565b60408401526060840135915080821115612c4857600080fd5b50612c558482850161297a565b60608301525060808201356080820152612c7160a08301612bac565b60a082015292915050565b60008060008060008060008060006101208a8c031215612c9b57600080fd5b612ca48a61281b565b9850612cb260208b0161281b565b975060408a0135965060608a01356001600160401b0380821115612cd557600080fd5b612ce18d838e0161297a565b975060808c0135915080821115612cf757600080fd5b612d038d838e01612abf565b965060a08c0135915080821115612d1957600080fd5b612d258d838e01612bbd565b955060c08c0135915080821115612d3b57600080fd5b612d478d838e0161297a565b945060e08c0135915080821115612d5d57600080fd5b612d698d838e0161297a565b93506101008c0135915080821115612d8057600080fd5b50612d8d8c828d0161297a565b9150509295985092959850929598565b600060208284031215612daf57600080fd5b5035919050565b60008060408385031215612dc957600080fd5b823591506020830135612ddb81612806565b809150509250929050565b60006101408284031215612df957600080fd5b612e016128af565b905081358152602080830135818301526040830135604083015260608301356060830152608083013560808301528360bf840112612e3e57600080fd5b612e466128d1565b80610120850186811115612e5957600080fd5b60a086015b81811015612e755780358452928401928401612e5e565b508160a0860152803560c08601525050505092915050565b6000806000806000806101e08789031215612ea757600080fd5b612eb08761281b565b9550612ebf8860208901612de6565b94506101608701356001600160401b0380821115612edc57600080fd5b612ee88a838b016129bd565b9550610180890135915080821115612eff57600080fd5b612f0b8a838b016129bd565b94506101a0890135915080821115612f2257600080fd5b612f2e8a838b0161297a565b93506101c0890135915080821115612f4557600080fd5b50612f5289828a0161297a565b9150509295509295509295565b600082601f830112612f7057600080fd5b81356020612f806129de8361299a565b82815260059290921b84018101918181019086841115612f9f57600080fd5b8286015b84811015612a265780358352918301918301612fa3565b600082601f830112612fcb57600080fd5b81356020612fdb6129de8361299a565b82815260059290921b84018101918181019086841115612ffa57600080fd5b8286015b84811015612a265780356001600160401b0381111561301d5760008081fd5b8701603f8101891361302f5760008081fd5b613040898683013560408401612923565b845250918301918301612ffe565b60008060008060008060c0878903121561306757600080fd5b6130708761281b565b955060208701356001600160401b038082111561308c57600080fd5b6130988a838b016129bd565b965060408901359150808211156130ae57600080fd5b6130ba8a838b01612f5f565b955060608901359150808211156130d057600080fd5b6130dc8a838b01612fba565b945060808901359150808211156130f257600080fd5b6130fe8a838b0161297a565b935060a0890135915080821115612f4557600080fd5b60006020828403121561312657600080fd5b81356119b181612806565b600080600080600080600060e0888a03121561314c57600080fd5b6131558861281b565b96506131636020890161281b565b955060408801356001600160401b038082111561317f57600080fd5b61318b8b838c01612abf565b965060608a01359150808211156131a157600080fd5b6131ad8b838c01612bbd565b955060808a01359150808211156131c357600080fd5b6131cf8b838c0161297a565b945060a08a01359150808211156131e557600080fd5b6131f18b838c0161297a565b935060c08a013591508082111561320757600080fd5b506132148a828b0161297a565b91505092959891949750929550565b6000806040838503121561323657600080fd5b50508035926020909101359150565b6000806000806101a0858703121561325c57600080fd5b843561326781612806565b93506132768660208701612de6565b92506101608501356001600160401b038082111561329357600080fd5b61329f8883890161297a565b93506101808701359150808211156132b657600080fd5b506132c38782880161297a565b91505092959194509250565b60008060008060008060c087890312156132e857600080fd5b6132f18761281b565b95506132ff6020880161281b565b945060408701356001600160401b038082111561331b57600080fd5b6133278a838b016129bd565b9550606089013591508082111561333d57600080fd5b6130dc8a838b01612f5f565b60006020828403121561335b57600080fd5b815180151581146119b157600080fd5b60005b8381101561338657818101518382015260200161336e565b50506000910152565b600081518084526133a781602086016020860161336b565b601f01601f19169290920160200192915050565b6020815260006119b1602083018461338f565b6000602082840312156133e057600080fd5b5051919050565b634e487b7160e01b600052602160045260246000fd5b60006020828403121561340f57600080fd5b81516119b181612806565b60006020828403121561342c57600080fd5b81516119b181612b94565b600081518084526020808501945080840160005b838110156134705781516001600160a01b03168752958201959082019060010161344b565b509495945050505050565b6000610100825184526020830151602085015260408301516040850152606083015160608501526080830151608085015260a083015160a085015260c083015160c085015260e08301518160e08601526134d782860182613437565b95945050505050565b6000610160825184526020830151602085015260408301516040850152606083015160608501526080830151608085015260a083015160a085015260c08301518160c08601526135328286018261347b565b91505060e083015184820360e086015261354c8282613437565b9150506101008084015161356a828701826001600160a01b03169052565b505061012083810151908501526101409283015192909301919091525090565b6003811061359a5761359a6133e7565b9052565b6080815260006135b160808301876134e0565b90508460208301528360408301526134d7606083018461358a565b634e487b7160e01b600052603260045260246000fd5b6135ed82825161358a565b6000602082015160c0602085015261360860c085018261338f565b905060408301518482036040860152613621828261338f565b9150506060830151848203606086015261363b828261338f565b9150506080830151608085015260ff60a08401511660a08501528091505092915050565b60018060a01b038716815285602082015260c06040820152600061368660c083018761338f565b828103606084015261369881876134e0565b905082810360808401526136ac81866135e2565b905082810360a0840152611215818561338f565b6000815180845260208085019450848260051b860182860160005b858110156137055783830389526136f383835161338f565b988501989250908401906001016136db565b5090979650505050505050565b6000815160c0845261372760c0850182613437565b60208481015186830387830152805180845290820193509091600091908301905b808310156137685784518252938301936001929092019190830190613748565b5060408601519350868103604088015261378281856136c0565b9350505050606083015160608501526080830151608085015260a083015160a08501528091505092915050565b60008151600481106137c3576137c36133e7565b808452506020820151606060208501526137e0606085018261338f565b9050604083015184820360408601526134d7828261338f565b60018060a01b03851681528360208201526080604082015260006138206080830185613712565b828103606084015261383281856137af565b979650505050505050565b805182526020808201518184015260408201516040840152606082015160608401526080820151608084015260a082015160a0840160005b600481101561389257825182529183019190830190600101613875565b5050505060c001516101209190910152565b6101408101610347828461383d565b60006101806138c2838761383d565b806101408401526138d581840186613437565b90508281036101608401526138ea8185613437565b9695505050505050565b60006020828403121561390657600080fd5b8151600581106119b157600080fd5b634e487b7160e01b600052601160045260246000fd5b60006001820161393d5761393d613915565b5060010190565b6001600160a01b0385168152608060208201819052600090613968908301866134e0565b828103604084015261397a81866135e2565b90508281036060840152613832818561338f565b7f416363657373436f6e74726f6c3a206163636f756e74200000000000000000008152600083516139c681601785016020880161336b565b7001034b99036b4b9b9b4b733903937b6329607d1b60179184019182015283516139f781602884016020880161336b565b01602801949350505050565b808202811582820484141761034757610347613915565b8082018082111561034757610347613915565b600081613a3c57613a3c613915565b506000190190565b8181038181111561034757610347613915565b634e487b7160e01b600052603160045260246000fdfe4143544956455f474f5645524e414e43455f53455454494e47535f50524f504f53414c5f455849535453a2646970667358221220c08c2e2c6c28eb8501f0fc6f24556a24149e69f98255d38b0d505843411c3de864736f6c63430008110033",
  "devdoc": {
    "details": "It is a supporting part of the protocol that takes user input arguments and constructs OZ Governor-compatible structures describing the transactions to be executed upon successful voting on the proposal. It does not store user input, but only passes it on in a transformed format to the specified pool contract.",
    "kind": "dev",
    "methods": {
      "constructor": {
        "custom:oz-upgrades-unsafe-allow": "constructor",
        "details": "This contract uses OpenZeppelin upgrades and has no need for a constructor function. The constructor is replaced with an initializer function. This method disables the initializer feature of the OpenZeppelin upgrades plugin, preventing the initializer methods from being misused."
      },
      "getRoleAdmin(bytes32)": {
        "details": "Returns the admin role that controls `role`. See {grantRole} and {revokeRole}. To change a role's admin, use {_setRoleAdmin}."
      },
      "getRoleMember(bytes32,uint256)": {
        "details": "Returns one of the accounts that have `role`. `index` must be a value between 0 and {getRoleMemberCount}, non-inclusive. Role bearers are not sorted in any particular way, and their ordering may change at any point. WARNING: When using {getRoleMember} and {getRoleMemberCount}, make sure you perform all queries on the same block. See the following https://forum.openzeppelin.com/t/iterating-over-elements-on-enumerableset-in-openzeppelin-contracts/2296[forum post] for more information."
      },
      "getRoleMemberCount(bytes32)": {
        "details": "Returns the number of accounts that have `role`. Can be used together with {getRoleMember} to enumerate all bearers of a role."
      },
      "getTrustedForwarder()": {
        "details": "Returns the address of the trusted forwarder."
      },
      "grantRole(bytes32,address)": {
        "details": "Grants `role` to `account`. If `account` had not been already granted `role`, emits a {RoleGranted} event. Requirements: - the caller must have ``role``'s admin role. May emit a {RoleGranted} event."
      },
      "hasRole(bytes32,address)": {
        "details": "Returns `true` if `account` has been granted `role`."
      },
      "initialize()": {
        "details": "This method replaces the constructor for upgradeable contracts."
      },
      "isTrustedForwarder(address)": {
        "details": "Indicates whether any particular address is the trusted forwarder."
      },
      "owner()": {
        "details": "Returns the address of the current owner."
      },
      "proposeCustomTx(address,address[],uint256[],bytes[],string,string)": {
        "details": "This tool can be useful for creating a transaction with arbitrary parameters and putting it to a vote for execution on behalf of the pool.",
        "params": {
          "callDatas": "Raw calldatas.",
          "description": "Proposal description.",
          "metaHash": "Hash value of proposal metadata.",
          "pool": "The address of the pool on behalf of which this proposal will be launched.",
          "targets": "Transfer recipients.",
          "values": "Transfer amounts for payable."
        },
        "returns": {
          "proposalId": "The ID of the created proposal."
        }
      },
      "proposeGovernanceSettings(address,(uint256,uint256,uint256,uint256,uint256,uint256[4],uint256),string,string)": {
        "details": "The main parameter should be a structure of type NewGovernanceSettings, which includes the Governance Threshold, Decision Threshold, Proposal Threshold, and execution delay lists for proposals.",
        "params": {
          "description": "Proposal description.",
          "metaHash": "Hash value of proposal metadata.",
          "pool": "The address of the pool on behalf of which this proposal will be launched and for which the Governance settings will be changed.",
          "settings": "New governance settings."
        },
        "returns": {
          "proposalId": "The ID of the created proposal."
        }
      },
      "proposeGovernanceSettingsWithRoles(address,(uint256,uint256,uint256,uint256,uint256,uint256[4],uint256),address[],address[],string,string)": {
        "details": "The main parameter should be a structure of type NewGovernanceSettings, which includes the Governance Threshold, Decision Threshold, Proposal Threshold, execution delay lists for proposals, as well as two sets of addresses: one for the new list of secretaries and another for the new list of executors.",
        "params": {
          "description": "Proposal description.",
          "executor": "Add a new address to the pool's executor list.",
          "metaHash": "Hash value of the proposal metadata.",
          "pool": "The address of the pool on behalf of which this proposal will be launched and for which the Governance settings will be changed.",
          "secretary": "Add a new address to the pool's secretary list.",
          "settings": "New governance settings."
        },
        "returns": {
          "proposalId": "The ID of the created proposal."
        }
      },
      "proposeTGE(address,address,(uint256,uint256,uint256,uint256,uint256,uint256,(uint256,uint256,uint256,uint256,uint256,uint256,uint256,address[]),address[],address,uint256,uint256),(uint8,string,string,string,uint256,uint8),string,string,string)": {
        "details": "Proposal to launch a new token generation event (TGE). It can only be created if the maximum supply threshold value for an existing token has not been reached or if a new token is being created, in which case a new token contract will be deployed simultaneously with the TGE contract.",
        "params": {
          "description": "Proposal description.",
          "metaHash": "Hash value of proposal metadata.",
          "metadataURI": "TGE metadata URI.",
          "pool": "The address of the pool on behalf of which this proposal will be launched and for which the TGE event will be launched.",
          "tgeInfo": "TGE parameters.",
          "tokenInfo": "Token parameters."
        },
        "returns": {
          "proposalId": "The ID of the created proposal."
        }
      },
      "proposeTGEERC1155(address,address,uint256,string,(uint256,uint256,uint256,uint256,uint256,uint256,(uint256,uint256,uint256,uint256,uint256,uint256,uint256,address[]),address[],address,uint256,uint256),(uint8,string,string,string,uint256,uint8),string,string,string)": {
        "details": "Proposal to launch a new token generation event (TGE) for ERC1155 preference tokens.",
        "params": {
          "description": "Proposal description.",
          "metaHash": "Hash value of proposal metadata.",
          "metadataURI": "TGE metadata URI.",
          "tgeInfo": "TGE parameters.",
          "tokenId": "Token ID.",
          "tokenIdMetadataURI": "Token ID metadata URI.",
          "tokenInfo": "Token parameters."
        },
        "returns": {
          "proposalId": "The ID of the created proposal."
        }
      },
      "proposeTransfer(address,address,address[],uint256[],string,string)": {
        "details": "This function prepares a proposal from the list of recipients and corresponding amounts and submits it to the pool for a vote to transfer those amounts to the specified recipients. The asset type is specified as a separate argument, which is the same for all recipients.",
        "params": {
          "amounts": "Transfer amounts.",
          "asset": "Asset to transfer (address(0) for ETH transfers).",
          "description": "Proposal description.",
          "metaHash": "Hash value of proposal metadata.",
          "pool": "The address of the pool on behalf of which this proposal will be launched and from whose balance the values will be transferred.",
          "recipients": "Transfer recipients."
        },
        "returns": {
          "proposalId": "The ID of the created proposal."
        }
      },
      "renounceOwnership()": {
        "details": "Leaves the contract without owner. It will not be possible to call `onlyOwner` functions anymore. Can only be called by the current owner. NOTE: Renouncing ownership will leave the contract without an owner, thereby removing any functionality that is only available to the owner."
      },
      "renounceRole(bytes32,address)": {
        "details": "Revokes `role` from the calling account. Roles are often managed via {grantRole} and {revokeRole}: this function's purpose is to provide a mechanism for accounts to lose their privileges if they are compromised (such as when a trusted device is misplaced). If the calling account had been revoked `role`, emits a {RoleRevoked} event. Requirements: - the caller must be `account`. May emit a {RoleRevoked} event."
      },
      "revokeRole(bytes32,address)": {
        "details": "Revokes `role` from `account`. If `account` had been granted `role`, emits a {RoleRevoked} event. Requirements: - the caller must have ``role``'s admin role. May emit a {RoleRevoked} event."
      },
      "setService(address)": {
        "details": "Stores a new address of the Service contract in the memory of this contract.",
        "params": {
          "service_": "The new address of the Service contract."
        }
      },
      "supportsInterface(bytes4)": {
        "details": "See {IERC165-supportsInterface}."
      },
      "transferOwnership(address)": {
        "details": "Transfers ownership of the contract to a new account (`newOwner`). Can only be called by the current owner."
      }
    },
    "stateVariables": {
      "service": {
        "details": "The address of the Service contract."
      }
    },
    "title": "Custom Proposal Contract",
    "version": 1
  },
  "userdoc": {
    "kind": "user",
    "methods": {
      "constructor": {
        "notice": "Contract constructor."
      },
      "initialize()": {
        "notice": "Contract initializer"
      },
      "proposeCustomTx(address,address[],uint256[],bytes[],string,string)": {
        "notice": "Creating a custom proposal."
      },
      "proposeGovernanceSettings(address,(uint256,uint256,uint256,uint256,uint256,uint256[4],uint256),string,string)": {
        "notice": "Proposal to replace Governance settings. One of the two methods to change voting parameters."
      },
      "proposeGovernanceSettingsWithRoles(address,(uint256,uint256,uint256,uint256,uint256,uint256[4],uint256),address[],address[],string,string)": {
        "notice": "Proposal to replace Governance settings and change the pool's list of secretaries and executors. One of the two methods to change voting parameters. The only way for a DAO to modify the lists of secretaries and executors."
      },
      "proposeTGE(address,address,(uint256,uint256,uint256,uint256,uint256,uint256,(uint256,uint256,uint256,uint256,uint256,uint256,uint256,address[]),address[],address,uint256,uint256),(uint8,string,string,string,uint256,uint8),string,string,string)": {
        "notice": "This proposal is launched when there is a need to issue additional tokens (both Governance and Preference) for an existing pool. In other words, the issuance of tokens for any DAO is possible only through the creation of such a proposal."
      },
      "proposeTGEERC1155(address,address,uint256,string,(uint256,uint256,uint256,uint256,uint256,uint256,(uint256,uint256,uint256,uint256,uint256,uint256,uint256,address[]),address[],address,uint256,uint256),(uint8,string,string,string,uint256,uint8),string,string,string)": {
        "notice": "This proposal is launched when there is a need to issue ERC1155 Preference tokens, additional collections, and token units in existing collections for an existing ERC1155 token. In other words, the issuance of tokens of this format for any DAO is possible only through the creation of such a proposal."
      },
      "proposeTransfer(address,address,address[],uint256[],string,string)": {
        "notice": "This proposal is the only way to withdraw funds from the pool account."
      }
    },
    "notice": "This contract is designed for constructing proposals from user input. The methods generate calldata from the input arguments and pass it to the specified pool as a proposal.",
    "version": 1
  },
  "storageLayout": {
    "storage": [
      {
        "astId": 1184,
        "contract": "contracts/CustomProposal.sol:CustomProposal",
        "label": "_initialized",
        "offset": 0,
        "slot": "0",
        "type": "t_uint8"
      },
      {
        "astId": 1187,
        "contract": "contracts/CustomProposal.sol:CustomProposal",
        "label": "_initializing",
        "offset": 1,
        "slot": "0",
        "type": "t_bool"
      },
      {
        "astId": 5634,
        "contract": "contracts/CustomProposal.sol:CustomProposal",
        "label": "__gap",
        "offset": 0,
        "slot": "1",
        "type": "t_array(t_uint256)50_storage"
      },
      {
        "astId": 589,
        "contract": "contracts/CustomProposal.sol:CustomProposal",
        "label": "_owner",
        "offset": 0,
        "slot": "51",
        "type": "t_address"
      },
      {
        "astId": 709,
        "contract": "contracts/CustomProposal.sol:CustomProposal",
        "label": "__gap",
        "offset": 0,
        "slot": "52",
        "type": "t_array(t_uint256)49_storage"
      },
      {
        "astId": 6579,
        "contract": "contracts/CustomProposal.sol:CustomProposal",
        "label": "__gap",
        "offset": 0,
        "slot": "101",
        "type": "t_array(t_uint256)50_storage"
      },
      {
        "astId": 184,
        "contract": "contracts/CustomProposal.sol:CustomProposal",
        "label": "_roles",
        "offset": 0,
        "slot": "151",
        "type": "t_mapping(t_bytes32,t_struct(RoleData)179_storage)"
      },
      {
        "astId": 479,
        "contract": "contracts/CustomProposal.sol:CustomProposal",
        "label": "__gap",
        "offset": 0,
        "slot": "152",
        "type": "t_array(t_uint256)49_storage"
      },
      {
        "astId": 33,
        "contract": "contracts/CustomProposal.sol:CustomProposal",
        "label": "_roleMembers",
        "offset": 0,
        "slot": "201",
        "type": "t_mapping(t_bytes32,t_struct(AddressSet)9324_storage)"
      },
      {
        "astId": 143,
        "contract": "contracts/CustomProposal.sol:CustomProposal",
        "label": "__gap",
        "offset": 0,
        "slot": "202",
        "type": "t_array(t_uint256)49_storage"
      },
      {
        "astId": 10488,
        "contract": "contracts/CustomProposal.sol:CustomProposal",
        "label": "service",
        "offset": 0,
        "slot": "251",
        "type": "t_contract(IService)22436"
      }
    ],
    "types": {
      "t_address": {
        "encoding": "inplace",
        "label": "address",
        "numberOfBytes": "20"
      },
      "t_array(t_bytes32)dyn_storage": {
        "base": "t_bytes32",
        "encoding": "dynamic_array",
        "label": "bytes32[]",
        "numberOfBytes": "32"
      },
      "t_array(t_uint256)49_storage": {
        "base": "t_uint256",
        "encoding": "inplace",
        "label": "uint256[49]",
        "numberOfBytes": "1568"
      },
      "t_array(t_uint256)50_storage": {
        "base": "t_uint256",
        "encoding": "inplace",
        "label": "uint256[50]",
        "numberOfBytes": "1600"
      },
      "t_bool": {
        "encoding": "inplace",
        "label": "bool",
        "numberOfBytes": "1"
      },
      "t_bytes32": {
        "encoding": "inplace",
        "label": "bytes32",
        "numberOfBytes": "32"
      },
      "t_contract(IService)22436": {
        "encoding": "inplace",
        "label": "contract IService",
        "numberOfBytes": "20"
      },
      "t_mapping(t_address,t_bool)": {
        "encoding": "mapping",
        "key": "t_address",
        "label": "mapping(address => bool)",
        "numberOfBytes": "32",
        "value": "t_bool"
      },
      "t_mapping(t_bytes32,t_struct(AddressSet)9324_storage)": {
        "encoding": "mapping",
        "key": "t_bytes32",
        "label": "mapping(bytes32 => struct EnumerableSetUpgradeable.AddressSet)",
        "numberOfBytes": "32",
        "value": "t_struct(AddressSet)9324_storage"
      },
      "t_mapping(t_bytes32,t_struct(RoleData)179_storage)": {
        "encoding": "mapping",
        "key": "t_bytes32",
        "label": "mapping(bytes32 => struct AccessControlUpgradeable.RoleData)",
        "numberOfBytes": "32",
        "value": "t_struct(RoleData)179_storage"
      },
      "t_mapping(t_bytes32,t_uint256)": {
        "encoding": "mapping",
        "key": "t_bytes32",
        "label": "mapping(bytes32 => uint256)",
        "numberOfBytes": "32",
        "value": "t_uint256"
      },
      "t_struct(AddressSet)9324_storage": {
        "encoding": "inplace",
        "label": "struct EnumerableSetUpgradeable.AddressSet",
        "members": [
          {
            "astId": 9323,
            "contract": "contracts/CustomProposal.sol:CustomProposal",
            "label": "_inner",
            "offset": 0,
            "slot": "0",
            "type": "t_struct(Set)9009_storage"
          }
        ],
        "numberOfBytes": "64"
      },
      "t_struct(RoleData)179_storage": {
        "encoding": "inplace",
        "label": "struct AccessControlUpgradeable.RoleData",
        "members": [
          {
            "astId": 176,
            "contract": "contracts/CustomProposal.sol:CustomProposal",
            "label": "members",
            "offset": 0,
            "slot": "0",
            "type": "t_mapping(t_address,t_bool)"
          },
          {
            "astId": 178,
            "contract": "contracts/CustomProposal.sol:CustomProposal",
            "label": "adminRole",
            "offset": 0,
            "slot": "1",
            "type": "t_bytes32"
          }
        ],
        "numberOfBytes": "64"
      },
      "t_struct(Set)9009_storage": {
        "encoding": "inplace",
        "label": "struct EnumerableSetUpgradeable.Set",
        "members": [
          {
            "astId": 9004,
            "contract": "contracts/CustomProposal.sol:CustomProposal",
            "label": "_values",
            "offset": 0,
            "slot": "0",
            "type": "t_array(t_bytes32)dyn_storage"
          },
          {
            "astId": 9008,
            "contract": "contracts/CustomProposal.sol:CustomProposal",
            "label": "_indexes",
            "offset": 0,
            "slot": "1",
            "type": "t_mapping(t_bytes32,t_uint256)"
          }
        ],
        "numberOfBytes": "64"
      },
      "t_uint256": {
        "encoding": "inplace",
        "label": "uint256",
        "numberOfBytes": "32"
      },
      "t_uint8": {
        "encoding": "inplace",
        "label": "uint8",
        "numberOfBytes": "1"
      }
    }
  }
}