{
  "address": "0x8D8Aa8cF6473768C2bbAB694c209a5F48Cb41701",
  "abi": [
    {
      "inputs": [],
      "stateMutability": "nonpayable",
      "type": "constructor"
    },
    {
      "anonymous": false,
      "inputs": [
        {
          "indexed": false,
          "internalType": "uint8",
          "name": "version",
          "type": "uint8"
        }
      ],
      "name": "Initialized",
      "type": "event"
    },
    {
      "anonymous": false,
      "inputs": [
        {
          "indexed": true,
          "internalType": "address",
          "name": "previousOwner",
          "type": "address"
        },
        {
          "indexed": true,
          "internalType": "address",
          "name": "newOwner",
          "type": "address"
        }
      ],
      "name": "OwnershipTransferred",
      "type": "event"
    },
    {
      "anonymous": false,
      "inputs": [
        {
          "indexed": true,
          "internalType": "bytes32",
          "name": "role",
          "type": "bytes32"
        },
        {
          "indexed": true,
          "internalType": "bytes32",
          "name": "previousAdminRole",
          "type": "bytes32"
        },
        {
          "indexed": true,
          "internalType": "bytes32",
          "name": "newAdminRole",
          "type": "bytes32"
        }
      ],
      "name": "RoleAdminChanged",
      "type": "event"
    },
    {
      "anonymous": false,
      "inputs": [
        {
          "indexed": true,
          "internalType": "bytes32",
          "name": "role",
          "type": "bytes32"
        },
        {
          "indexed": true,
          "internalType": "address",
          "name": "account",
          "type": "address"
        },
        {
          "indexed": true,
          "internalType": "address",
          "name": "sender",
          "type": "address"
        }
      ],
      "name": "RoleGranted",
      "type": "event"
    },
    {
      "anonymous": false,
      "inputs": [
        {
          "indexed": true,
          "internalType": "bytes32",
          "name": "role",
          "type": "bytes32"
        },
        {
          "indexed": true,
          "internalType": "address",
          "name": "account",
          "type": "address"
        },
        {
          "indexed": true,
          "internalType": "address",
          "name": "sender",
          "type": "address"
        }
      ],
      "name": "RoleRevoked",
      "type": "event"
    },
    {
      "inputs": [],
      "name": "DEFAULT_ADMIN_ROLE",
      "outputs": [
        {
          "internalType": "bytes32",
          "name": "",
          "type": "bytes32"
        }
      ],
      "stateMutability": "view",
      "type": "function"
    },
    {
      "inputs": [
        {
          "internalType": "bytes32",
          "name": "role",
          "type": "bytes32"
        }
      ],
      "name": "getRoleAdmin",
      "outputs": [
        {
          "internalType": "bytes32",
          "name": "",
          "type": "bytes32"
        }
      ],
      "stateMutability": "view",
      "type": "function"
    },
    {
      "inputs": [
        {
          "internalType": "bytes32",
          "name": "role",
          "type": "bytes32"
        },
        {
          "internalType": "uint256",
          "name": "index",
          "type": "uint256"
        }
      ],
      "name": "getRoleMember",
      "outputs": [
        {
          "internalType": "address",
          "name": "",
          "type": "address"
        }
      ],
      "stateMutability": "view",
      "type": "function"
    },
    {
      "inputs": [
        {
          "internalType": "bytes32",
          "name": "role",
          "type": "bytes32"
        }
      ],
      "name": "getRoleMemberCount",
      "outputs": [
        {
          "internalType": "uint256",
          "name": "",
          "type": "uint256"
        }
      ],
      "stateMutability": "view",
      "type": "function"
    },
    {
      "inputs": [],
      "name": "getTrustedForwarder",
      "outputs": [
        {
          "internalType": "address",
          "name": "",
          "type": "address"
        }
      ],
      "stateMutability": "view",
      "type": "function"
    },
    {
      "inputs": [
        {
          "internalType": "bytes32",
          "name": "role",
          "type": "bytes32"
        },
        {
          "internalType": "address",
          "name": "account",
          "type": "address"
        }
      ],
      "name": "grantRole",
      "outputs": [],
      "stateMutability": "nonpayable",
      "type": "function"
    },
    {
      "inputs": [
        {
          "internalType": "bytes32",
          "name": "role",
          "type": "bytes32"
        },
        {
          "internalType": "address",
          "name": "account",
          "type": "address"
        }
      ],
      "name": "hasRole",
      "outputs": [
        {
          "internalType": "bool",
          "name": "",
          "type": "bool"
        }
      ],
      "stateMutability": "view",
      "type": "function"
    },
    {
      "inputs": [],
      "name": "initialize",
      "outputs": [],
      "stateMutability": "nonpayable",
      "type": "function"
    },
    {
      "inputs": [
        {
          "internalType": "address",
          "name": "forwarder",
          "type": "address"
        }
      ],
      "name": "isTrustedForwarder",
      "outputs": [
        {
          "internalType": "bool",
          "name": "",
          "type": "bool"
        }
      ],
      "stateMutability": "view",
      "type": "function"
    },
    {
      "inputs": [],
      "name": "owner",
      "outputs": [
        {
          "internalType": "address",
          "name": "",
          "type": "address"
        }
      ],
      "stateMutability": "view",
      "type": "function"
    },
    {
      "inputs": [
        {
          "internalType": "address",
          "name": "pool",
          "type": "address"
        },
        {
          "internalType": "address[]",
          "name": "targets",
          "type": "address[]"
        },
        {
          "internalType": "uint256[]",
          "name": "values",
          "type": "uint256[]"
        },
        {
          "internalType": "bytes[]",
          "name": "callDatas",
          "type": "bytes[]"
        },
        {
          "internalType": "string",
          "name": "description",
          "type": "string"
        },
        {
          "internalType": "string",
          "name": "metaHash",
          "type": "string"
        }
      ],
      "name": "proposeCustomTx",
      "outputs": [
        {
          "internalType": "uint256",
          "name": "proposalId",
          "type": "uint256"
        }
      ],
      "stateMutability": "nonpayable",
      "type": "function"
    },
    {
      "inputs": [
        {
          "internalType": "address",
          "name": "pool",
          "type": "address"
        },
        {
          "components": [
            {
              "internalType": "uint256",
              "name": "proposalThreshold",
              "type": "uint256"
            },
            {
              "internalType": "uint256",
              "name": "quorumThreshold",
              "type": "uint256"
            },
            {
              "internalType": "uint256",
              "name": "decisionThreshold",
              "type": "uint256"
            },
            {
              "internalType": "uint256",
              "name": "votingDuration",
              "type": "uint256"
            },
            {
              "internalType": "uint256",
              "name": "transferValueForDelay",
              "type": "uint256"
            },
            {
              "internalType": "uint256[4]",
              "name": "executionDelays",
              "type": "uint256[4]"
            },
            {
              "internalType": "uint256",
              "name": "votingStartDelay",
              "type": "uint256"
            }
          ],
          "internalType": "struct IGovernanceSettings.NewGovernanceSettings",
          "name": "settings",
          "type": "tuple"
        },
        {
          "internalType": "string",
          "name": "description",
          "type": "string"
        },
        {
          "internalType": "string",
          "name": "metaHash",
          "type": "string"
        }
      ],
      "name": "proposeGovernanceSettings",
      "outputs": [
        {
          "internalType": "uint256",
          "name": "proposalId",
          "type": "uint256"
        }
      ],
      "stateMutability": "nonpayable",
      "type": "function"
    },
    {
      "inputs": [
        {
          "internalType": "address",
          "name": "pool",
          "type": "address"
        },
        {
          "components": [
            {
              "internalType": "uint256",
              "name": "proposalThreshold",
              "type": "uint256"
            },
            {
              "internalType": "uint256",
              "name": "quorumThreshold",
              "type": "uint256"
            },
            {
              "internalType": "uint256",
              "name": "decisionThreshold",
              "type": "uint256"
            },
            {
              "internalType": "uint256",
              "name": "votingDuration",
              "type": "uint256"
            },
            {
              "internalType": "uint256",
              "name": "transferValueForDelay",
              "type": "uint256"
            },
            {
              "internalType": "uint256[4]",
              "name": "executionDelays",
              "type": "uint256[4]"
            },
            {
              "internalType": "uint256",
              "name": "votingStartDelay",
              "type": "uint256"
            }
          ],
          "internalType": "struct IGovernanceSettings.NewGovernanceSettings",
          "name": "settings",
          "type": "tuple"
        },
        {
          "internalType": "address[]",
          "name": "secretary",
          "type": "address[]"
        },
        {
          "internalType": "address[]",
          "name": "executor",
          "type": "address[]"
        },
        {
          "internalType": "string",
          "name": "description",
          "type": "string"
        },
        {
          "internalType": "string",
          "name": "metaHash",
          "type": "string"
        }
      ],
      "name": "proposeGovernanceSettingsWithRoles",
      "outputs": [
        {
          "internalType": "uint256",
          "name": "proposalId",
          "type": "uint256"
        }
      ],
      "stateMutability": "nonpayable",
      "type": "function"
    },
    {
      "inputs": [
        {
          "internalType": "address",
          "name": "pool",
          "type": "address"
        },
        {
          "internalType": "address",
          "name": "token",
          "type": "address"
        },
        {
          "components": [
            {
              "internalType": "uint256",
              "name": "price",
              "type": "uint256"
            },
            {
              "internalType": "uint256",
              "name": "hardcap",
              "type": "uint256"
            },
            {
              "internalType": "uint256",
              "name": "softcap",
              "type": "uint256"
            },
            {
              "internalType": "uint256",
              "name": "minPurchase",
              "type": "uint256"
            },
            {
              "internalType": "uint256",
              "name": "maxPurchase",
              "type": "uint256"
            },
            {
              "internalType": "uint256",
              "name": "duration",
              "type": "uint256"
            },
            {
              "components": [
                {
                  "internalType": "uint256",
                  "name": "vestedShare",
                  "type": "uint256"
                },
                {
                  "internalType": "uint256",
                  "name": "cliff",
                  "type": "uint256"
                },
                {
                  "internalType": "uint256",
                  "name": "cliffShare",
                  "type": "uint256"
                },
                {
                  "internalType": "uint256",
                  "name": "spans",
                  "type": "uint256"
                },
                {
                  "internalType": "uint256",
                  "name": "spanDuration",
                  "type": "uint256"
                },
                {
                  "internalType": "uint256",
                  "name": "spanShare",
                  "type": "uint256"
                },
                {
                  "internalType": "uint256",
                  "name": "claimTVL",
                  "type": "uint256"
                },
                {
                  "internalType": "address[]",
                  "name": "resolvers",
                  "type": "address[]"
                }
              ],
              "internalType": "struct IVesting.VestingParams",
              "name": "vestingParams",
              "type": "tuple"
            },
            {
              "internalType": "address[]",
              "name": "userWhitelist",
              "type": "address[]"
            },
            {
              "internalType": "address",
              "name": "unitOfAccount",
              "type": "address"
            },
            {
              "internalType": "uint256",
              "name": "lockupDuration",
              "type": "uint256"
            },
            {
              "internalType": "uint256",
              "name": "lockupTVL",
              "type": "uint256"
            }
          ],
          "internalType": "struct ITGE.TGEInfo",
          "name": "tgeInfo",
          "type": "tuple"
        },
        {
          "components": [
            {
              "internalType": "enum IToken.TokenType",
              "name": "tokenType",
              "type": "uint8"
            },
            {
              "internalType": "string",
              "name": "name",
              "type": "string"
            },
            {
              "internalType": "string",
              "name": "symbol",
              "type": "string"
            },
            {
              "internalType": "string",
              "name": "description",
              "type": "string"
            },
            {
              "internalType": "uint256",
              "name": "cap",
              "type": "uint256"
            },
            {
              "internalType": "uint8",
              "name": "decimals",
              "type": "uint8"
            }
          ],
          "internalType": "struct IToken.TokenInfo",
          "name": "tokenInfo",
          "type": "tuple"
        },
        {
          "internalType": "string",
          "name": "metadataURI",
          "type": "string"
        },
        {
          "internalType": "string",
          "name": "description",
          "type": "string"
        },
        {
          "internalType": "string",
          "name": "metaHash",
          "type": "string"
        }
      ],
      "name": "proposeTGE",
      "outputs": [
        {
          "internalType": "uint256",
          "name": "proposalId",
          "type": "uint256"
        }
      ],
      "stateMutability": "nonpayable",
      "type": "function"
    },
    {
      "inputs": [
        {
          "internalType": "address",
          "name": "pool",
          "type": "address"
        },
        {
          "internalType": "address",
          "name": "token",
          "type": "address"
        },
        {
          "internalType": "uint256",
          "name": "tokenId",
          "type": "uint256"
        },
        {
          "internalType": "string",
          "name": "tokenIdMetadataURI",
          "type": "string"
        },
        {
          "components": [
            {
              "internalType": "uint256",
              "name": "price",
              "type": "uint256"
            },
            {
              "internalType": "uint256",
              "name": "hardcap",
              "type": "uint256"
            },
            {
              "internalType": "uint256",
              "name": "softcap",
              "type": "uint256"
            },
            {
              "internalType": "uint256",
              "name": "minPurchase",
              "type": "uint256"
            },
            {
              "internalType": "uint256",
              "name": "maxPurchase",
              "type": "uint256"
            },
            {
              "internalType": "uint256",
              "name": "duration",
              "type": "uint256"
            },
            {
              "components": [
                {
                  "internalType": "uint256",
                  "name": "vestedShare",
                  "type": "uint256"
                },
                {
                  "internalType": "uint256",
                  "name": "cliff",
                  "type": "uint256"
                },
                {
                  "internalType": "uint256",
                  "name": "cliffShare",
                  "type": "uint256"
                },
                {
                  "internalType": "uint256",
                  "name": "spans",
                  "type": "uint256"
                },
                {
                  "internalType": "uint256",
                  "name": "spanDuration",
                  "type": "uint256"
                },
                {
                  "internalType": "uint256",
                  "name": "spanShare",
                  "type": "uint256"
                },
                {
                  "internalType": "uint256",
                  "name": "claimTVL",
                  "type": "uint256"
                },
                {
                  "internalType": "address[]",
                  "name": "resolvers",
                  "type": "address[]"
                }
              ],
              "internalType": "struct IVesting.VestingParams",
              "name": "vestingParams",
              "type": "tuple"
            },
            {
              "internalType": "address[]",
              "name": "userWhitelist",
              "type": "address[]"
            },
            {
              "internalType": "address",
              "name": "unitOfAccount",
              "type": "address"
            },
            {
              "internalType": "uint256",
              "name": "lockupDuration",
              "type": "uint256"
            },
            {
              "internalType": "uint256",
              "name": "lockupTVL",
              "type": "uint256"
            }
          ],
          "internalType": "struct ITGE.TGEInfo",
          "name": "tgeInfo",
          "type": "tuple"
        },
        {
          "components": [
            {
              "internalType": "enum IToken.TokenType",
              "name": "tokenType",
              "type": "uint8"
            },
            {
              "internalType": "string",
              "name": "name",
              "type": "string"
            },
            {
              "internalType": "string",
              "name": "symbol",
              "type": "string"
            },
            {
              "internalType": "string",
              "name": "description",
              "type": "string"
            },
            {
              "internalType": "uint256",
              "name": "cap",
              "type": "uint256"
            },
            {
              "internalType": "uint8",
              "name": "decimals",
              "type": "uint8"
            }
          ],
          "internalType": "struct IToken.TokenInfo",
          "name": "tokenInfo",
          "type": "tuple"
        },
        {
          "internalType": "string",
          "name": "metadataURI",
          "type": "string"
        },
        {
          "internalType": "string",
          "name": "description",
          "type": "string"
        },
        {
          "internalType": "string",
          "name": "metaHash",
          "type": "string"
        }
      ],
      "name": "proposeTGEERC1155",
      "outputs": [
        {
          "internalType": "uint256",
          "name": "proposalId",
          "type": "uint256"
        }
      ],
      "stateMutability": "nonpayable",
      "type": "function"
    },
    {
      "inputs": [
        {
          "internalType": "address",
          "name": "pool",
          "type": "address"
        },
        {
          "internalType": "address",
          "name": "asset",
          "type": "address"
        },
        {
          "internalType": "address[]",
          "name": "recipients",
          "type": "address[]"
        },
        {
          "internalType": "uint256[]",
          "name": "amounts",
          "type": "uint256[]"
        },
        {
          "internalType": "string",
          "name": "description",
          "type": "string"
        },
        {
          "internalType": "string",
          "name": "metaHash",
          "type": "string"
        }
      ],
      "name": "proposeTransfer",
      "outputs": [
        {
          "internalType": "uint256",
          "name": "proposalId",
          "type": "uint256"
        }
      ],
      "stateMutability": "nonpayable",
      "type": "function"
    },
    {
      "inputs": [],
      "name": "renounceOwnership",
      "outputs": [],
      "stateMutability": "nonpayable",
      "type": "function"
    },
    {
      "inputs": [
        {
          "internalType": "bytes32",
          "name": "role",
          "type": "bytes32"
        },
        {
          "internalType": "address",
          "name": "account",
          "type": "address"
        }
      ],
      "name": "renounceRole",
      "outputs": [],
      "stateMutability": "nonpayable",
      "type": "function"
    },
    {
      "inputs": [
        {
          "internalType": "bytes32",
          "name": "role",
          "type": "bytes32"
        },
        {
          "internalType": "address",
          "name": "account",
          "type": "address"
        }
      ],
      "name": "revokeRole",
      "outputs": [],
      "stateMutability": "nonpayable",
      "type": "function"
    },
    {
      "inputs": [],
      "name": "service",
      "outputs": [
        {
          "internalType": "contract IService",
          "name": "",
          "type": "address"
        }
      ],
      "stateMutability": "view",
      "type": "function"
    },
    {
      "inputs": [
        {
          "internalType": "address",
          "name": "service_",
          "type": "address"
        }
      ],
      "name": "setService",
      "outputs": [],
      "stateMutability": "nonpayable",
      "type": "function"
    },
    {
      "inputs": [
        {
          "internalType": "bytes4",
          "name": "interfaceId",
          "type": "bytes4"
        }
      ],
      "name": "supportsInterface",
      "outputs": [
        {
          "internalType": "bool",
          "name": "",
          "type": "bool"
        }
      ],
      "stateMutability": "view",
      "type": "function"
    },
    {
      "inputs": [
        {
          "internalType": "address",
          "name": "newOwner",
          "type": "address"
        }
      ],
      "name": "transferOwnership",
      "outputs": [],
      "stateMutability": "nonpayable",
      "type": "function"
    }
  ],
  "transactionHash": "0x89e7b5d26deac2faf1f77e288238624b110f978a81ac253a96a239e46755091f",
  "args": [],
  "numDeployments": 1,
  "solcInputHash": "d69290a9f1bd6f94be70d95af157eb6f",
  "bytecode": "0x60806040523480156200001157600080fd5b506200001c62000022565b620000e4565b600054610100900460ff16156200008f5760405162461bcd60e51b815260206004820152602760248201527f496e697469616c697a61626c653a20636f6e747261637420697320696e697469604482015266616c697a696e6760c81b606482015260840160405180910390fd5b60005460ff9081161015620000e2576000805460ff191660ff9081179091556040519081527f7f26b83ff96e1f2b6a682f133852f6798a09c465da95921460cefb38474024989060200160405180910390a15b565b613abc80620000f46000396000f3fe608060405234801561001057600080fd5b506004361061014d5760003560e01c80638da5cb5b116100c3578063bf8bdac11161007c578063bf8bdac1146102bb578063ca15c873146102eb578063ce1b815f146102fe578063d547741f14610306578063d598d4c914610319578063f2fde38b1461032c57600080fd5b80638da5cb5b146102425780639010d07c1461026757806391d148541461027a578063a217fddf1461028d578063a7eecd9a14610295578063b9222f6d146102a857600080fd5b806338a5947e1161011557806338a5947e146101e65780634c70d35e146101f9578063572b6c051461020c578063715018a61461021f5780637a1de7b8146102275780638129fc1c1461023a57600080fd5b806301ffc9a71461015257806304dc7c011461017a578063248a9ca31461019b5780632f2ff15d146101be57806336568abe146101d3575b600080fd5b6101656101603660046127cb565b61033f565b60405190151581526020015b60405180910390f35b61018d610188366004612c6b565b61036a565b604051908152602001610171565b61018d6101a9366004612d8c565b60009081526097602052604090206001015490565b6101d16101cc366004612da5565b610a67565b005b6101d16101e1366004612da5565b610a91565b61018d6101f4366004612e7c565b610b1f565b61018d61020736600461303d565b610e4e565b61016561021a366004613103565b61123f565b6101d1611264565b61018d610235366004613120565b611278565b6101d16118a2565b6033546001600160a01b03165b6040516001600160a01b039091168152602001610171565b61024f610275366004613212565b6119b6565b610165610288366004612da5565b6119d5565b61018d600081565b61018d6102a3366004613234565b611a00565b61018d6102b63660046132be565b611cd9565b6101d16102c9366004613103565b60fb80546001600160a01b0319166001600160a01b0392909216919091179055565b61018d6102f9366004612d8c565b61205a565b61024f612071565b6101d1610314366004612da5565b6120e4565b60fb5461024f906001600160a01b031681565b6101d161033a366004613103565b612109565b60006001600160e01b03198216635a05180f60e01b148061036457506103648261217f565b92915050565b6000806001600160a01b038a1615806103e8575060405163599fbc6560e11b81526001600160a01b038b811660048301528c169063b33f78ca90602401602060405180830381865afa1580156103c4573d6000803e3d6000fd5b505050506040513d601f19601f820116820180604052508101906103e89190613338565b6040518060400160405280601381526020017257524f4e475f544f4b454e5f4144445245535360681b8152509061043b5760405162461bcd60e51b815260040161043291906133aa565b60405180910390fd5b506001600160a01b038a1615806104bb57506040516001623549c760e21b03198152600481018a90526001600160a01b038b169063ff2ad8e490602401602060405180830381865afa158015610495573d6000803e3d6000fd5b505050506040513d601f19601f820116820180604052508101906104b991906133bd565b155b806105a1575060006040516365a6887f60e11b8152600481018b90526001600160a01b038c169063cb4d10fe90602401602060405180830381865afa158015610508573d6000803e3d6000fd5b505050506040513d601f19601f8201168201806040525081019061052c91906133ec565b6001600160a01b031663c19d93fb6040518163ffffffff1660e01b8152600401602060405180830381865afa158015610569573d6000803e3d6000fd5b505050506040513d601f19601f8201168201806040525081019061058d9190613409565b600281111561059e5761059e6133d6565b14155b604051806040016040528060118152602001704143544956455f5447455f45584953545360781b815250906105e95760405162461bcd60e51b815260040161043291906133aa565b506001600160a01b038a161561074e57881580159061066c57506040516314c5238f60e01b8152600481018a90526001600160a01b038b16906314c5238f90602401602060405180830381865afa158015610648573d6000803e3d6000fd5b505050506040513d601f19601f8201168201806040525081019061066c9190613338565b1561074e576040516001623549c760e21b03198152600481018a90526001600160a01b038b169063ff2ad8e490602401602060405180830381865afa1580156106b9573d6000803e3d6000fd5b505050506040513d601f19601f820116820180604052508101906106dd91906133bd565b60808701526040516356f9f5e360e11b8152600481018a90526001600160a01b038b169063adf3ebc690602401602060405180830381865afa158015610727573d6000803e3d6000fd5b505050506040513d601f19601f8201168201806040525081019061074b91906133bd565b90505b60fb5460808701518751604051632a38b4af60e01b81526001600160a01b0390931692632a38b4af92610788928c9287919060040161358d565b60006040518083038186803b1580156107a057600080fd5b505afa1580156107b4573d6000803e3d6000fd5b5060009250600191506107c49050565b6040519080825280602002602001820160405280156107ed578160200160208202803683370190505b50905060fb60009054906101000a90046001600160a01b03166001600160a01b031663102c5c016040518163ffffffff1660e01b8152600401602060405180830381865afa158015610843573d6000803e3d6000fd5b505050506040513d601f19601f8201168201806040525081019061086791906133ec565b8160008151811061087a5761087a6135bb565b6001600160a01b0392909216602092830291909101909101526040805160018082528183019092526000918160200160208202803683370190505090506000816000815181106108cc576108cc6135bb565b6020908102919091010152604080516001808252818301909252600091816020015b60608152602001906001900390816108ee5750506040519091506324e2af2b60e01b90610929908f908f908f908f908f908f9060240161364e565b604051602081830303815290604052906001600160e01b0319166020820180516001600160e01b0383818316178352505050508160008151811061096f5761096f6135bb565b602002602001018190525060008e6001600160a01b031663f7ec6f106109936121b4565b60066040518060c00160405280898152602001888152602001878152602001600081526020016000815260200160008152506040518060600160405280600260038111156109e3576109e36133d6565b81526020018e81526020018d8152506040518563ffffffff1660e01b8152600401610a1194939291906137e8565b6020604051808303816000875af1158015610a30573d6000803e3d6000fd5b505050506040513d601f19601f82011682018060405250810190610a5491906133bd565b9f9e505050505050505050505050505050565b600082815260976020526040902060010154610a82816121be565b610a8c83836121cf565b505050565b610a996121b4565b6001600160a01b0316816001600160a01b031614610b115760405162461bcd60e51b815260206004820152602f60248201527f416363657373436f6e74726f6c3a2063616e206f6e6c792072656e6f756e636560448201526e103937b632b9903337b91039b2b63360891b6064820152608401610432565b610b1b82826121f1565b5050565b604051633157293f60e01b8152600260048201526000906001600160a01b03881690633157293f90602401602060405180830381865afa158015610b67573d6000803e3d6000fd5b505050506040513d601f19601f82011682018060405250810190610b8b9190613338565b156040518060600160405280602a8152602001613a5d602a913990610bc35760405162461bcd60e51b815260040161043291906133aa565b506040516323fb0ead60e21b81526001600160a01b03881690638fec3ab490610bf0908990600401613893565b60006040518083038186803b158015610c0857600080fd5b505afa158015610c1c573d6000803e3d6000fd5b506000925060019150610c2c9050565b604051908082528060200260200182016040528015610c55578160200160208202803683370190505b5090508781600081518110610c6c57610c6c6135bb565b6001600160a01b039290921660209283029190910190910152604080516001808252818301909252600091816020016020820280368337019050509050600081600081518110610cbe57610cbe6135bb565b6020908102919091010152604080516001808252818301909252600091816020015b6060815260200190600190039081610ce05750506040519091506396a7244160e01b90610d15908b908b908b906024016138a2565b604051602081830303815290604052906001600160e01b0319166020820180516001600160e01b03838183161783525050505081600081518110610d5b57610d5b6135bb565b602002602001018190525060008a6001600160a01b031663f7ec6f10610d7f6121b4565b60026040518060c00160405280898152602001888152602001878152602001600081526020016000815260200160008152506040518060600160405280600380811115610dce57610dce6133d6565b81526020018d81526020018c8152506040518563ffffffff1660e01b8152600401610dfc94939291906137e8565b6020604051808303816000875af1158015610e1b573d6000803e3d6000fd5b505050506040513d601f19601f82011682018060405250810190610e3f91906133bd565b9b9a5050505050505050505050565b600086600160fb60009054906101000a90046001600160a01b03166001600160a01b0316637b1039996040518163ffffffff1660e01b8152600401602060405180830381865afa158015610ea6573d6000803e3d6000fd5b505050506040513d601f19601f82011682018060405250810190610eca91906133ec565b604051630db9619f60e31b81526001600160a01b0384811660048301529190911690636dcb0cf890602401602060405180830381865afa158015610f12573d6000803e3d6000fd5b505050506040513d601f19601f82011682018060405250810190610f3691906138e3565b6004811115610f4757610f476133d6565b14604051806040016040528060088152602001671393d517d413d3d360c21b81525090610f875760405162461bcd60e51b815260040161043291906133aa565b5085518751148015610f9a575084518751145b6040518060400160405280600d81526020016c494e56414c49445f56414c554560981b81525090610fde5760405162461bcd60e51b815260040161043291906133aa565b5060005b87518110156111575760fb5460408051637b10399960e01b815290516000926001600160a01b031691637b1039999160048083019260209291908290030181865afa158015611035573d6000803e3d6000fd5b505050506040513d601f19601f8201168201806040525081019061105991906133ec565b6001600160a01b0316636dcb0cf88a8481518110611079576110796135bb565b60200260200101516040518263ffffffff1660e01b81526004016110ac91906001600160a01b0391909116815260200190565b602060405180830381865afa1580156110c9573d6000803e3d6000fd5b505050506040513d601f19601f820116820180604052508101906110ed91906138e3565b60048111156110fe576110fe6133d6565b146040518060400160405280600e81526020016d1253959053125117d5105491d15560921b815250906111445760405162461bcd60e51b815260040161043291906133aa565b508061114f8161391a565b915050610fe2565b506000886001600160a01b031663f7ec6f106111716121b4565b60046040518060c001604052808d81526020018c81526020018b8152602001600081526020016000815260200160008152506040518060600160405280600160038111156111c1576111c16133d6565b81526020018b81526020018a8152506040518563ffffffff1660e01b81526004016111ef94939291906137e8565b6020604051808303816000875af115801561120e573d6000803e3d6000fd5b505050506040513d601f19601f8201168201806040525081019061123291906133bd565b9998505050505050505050565b6000611249612071565b6001600160a01b0316826001600160a01b0316149050919050565b61126c612213565b611276600061228c565b565b6000806001600160a01b03881615806112f6575060405163599fbc6560e11b81526001600160a01b0389811660048301528a169063b33f78ca90602401602060405180830381865afa1580156112d2573d6000803e3d6000fd5b505050506040513d601f19601f820116820180604052508101906112f69190613338565b6040518060400160405280601381526020017257524f4e475f544f4b454e5f4144445245535360681b815250906113405760405162461bcd60e51b815260040161043291906133aa565b50600186516002811115611356576113566133d6565b0361142f57876001600160a01b031663355274ea6040518163ffffffff1660e01b8152600401602060405180830381865afa158015611399573d6000803e3d6000fd5b505050506040513d601f19601f820116820180604052508101906113bd91906133bd565b866080018181525050876001600160a01b031663585fe4d56040518163ffffffff1660e01b8152600401602060405180830381865afa158015611404573d6000803e3d6000fd5b505050506040513d601f19601f8201168201806040525081019061142891906133bd565b905061158f565b600286516002811115611444576114446133d6565b0361158f576001600160a01b0388161561158f57876001600160a01b031663d04d79b56040518163ffffffff1660e01b8152600401602060405180830381865afa158015611496573d6000803e3d6000fd5b505050506040513d601f19601f820116820180604052508101906114ba9190613338565b1561158f57876001600160a01b031663355274ea6040518163ffffffff1660e01b8152600401602060405180830381865afa1580156114fd573d6000803e3d6000fd5b505050506040513d601f19601f8201168201806040525081019061152191906133bd565b866080018181525050876001600160a01b031663585fe4d56040518163ffffffff1660e01b8152600401602060405180830381865afa158015611568573d6000803e3d6000fd5b505050506040513d601f19601f8201168201806040525081019061158c91906133bd565b90505b60fb5460808701518751604051632a38b4af60e01b81526001600160a01b0390931692632a38b4af926115c9928c9287919060040161358d565b60006040518083038186803b1580156115e157600080fd5b505afa1580156115f5573d6000803e3d6000fd5b5060009250600191506116059050565b60405190808252806020026020018201604052801561162e578160200160208202803683370190505b50905060fb60009054906101000a90046001600160a01b03166001600160a01b031663102c5c016040518163ffffffff1660e01b8152600401602060405180830381865afa158015611684573d6000803e3d6000fd5b505050506040513d601f19601f820116820180604052508101906116a891906133ec565b816000815181106116bb576116bb6135bb565b6001600160a01b03929092166020928302919091019091015260408051600180825281830190925260009181602001602082028036833701905050905060008160008151811061170d5761170d6135bb565b6020908102919091010152604080516001808252818301909252600091816020015b606081526020019060019003908161172f575050604051909150630fa1820960e31b90611766908d908d908d908d90602401613933565b604051602081830303815290604052906001600160e01b0319166020820180516001600160e01b038381831617835250505050816000815181106117ac576117ac6135bb565b602002602001018190525060008c6001600160a01b031663f7ec6f106117d06121b4565b60016040518060c0016040528089815260200188815260200187815260200160008152602001600081526020016000815250604051806060016040528060026003811115611820576118206133d6565b81526020018e81526020018d8152506040518563ffffffff1660e01b815260040161184e94939291906137e8565b6020604051808303816000875af115801561186d573d6000803e3d6000fd5b505050506040513d601f19601f8201168201806040525081019061189191906133bd565b9d9c50505050505050505050505050565b600054610100900460ff16158080156118c25750600054600160ff909116105b806118dc5750303b1580156118dc575060005460ff166001145b61193f5760405162461bcd60e51b815260206004820152602e60248201527f496e697469616c697a61626c653a20636f6e747261637420697320616c72656160448201526d191e481a5b9a5d1a585b1a5e995960921b6064820152608401610432565b6000805460ff191660011790558015611962576000805461ff0019166101001790555b61196d6000336121cf565b80156119b3576000805461ff0019169055604051600181527f7f26b83ff96e1f2b6a682f133852f6798a09c465da95921460cefb38474024989060200160405180910390a15b50565b600082815260c9602052604081206119ce90836122de565b9392505050565b60009182526097602090815260408084206001600160a01b0393909316845291905290205460ff1690565b604051633157293f60e01b8152600260048201526000906001600160a01b03861690633157293f90602401602060405180830381865afa158015611a48573d6000803e3d6000fd5b505050506040513d601f19601f82011682018060405250810190611a6c9190613338565b156040518060600160405280602a8152602001613a5d602a913990611aa45760405162461bcd60e51b815260040161043291906133aa565b506040516323fb0ead60e21b81526001600160a01b03861690638fec3ab490611ad1908790600401613893565b60006040518083038186803b158015611ae957600080fd5b505afa158015611afd573d6000803e3d6000fd5b506000925060019150611b0d9050565b604051908082528060200260200182016040528015611b36578160200160208202803683370190505b5090508581600081518110611b4d57611b4d6135bb565b6001600160a01b039290921660209283029190910190910152604080516001808252818301909252600091816020016020820280368337019050509050600081600081518110611b9f57611b9f6135bb565b6020908102919091010152604080516001808252818301909252600091816020015b6060815260200190600190039081611bc1575050604051909150639198c39360e01b90611bf2908990602401613893565b604051602081830303815290604052906001600160e01b0319166020820180516001600160e01b03838183161783525050505081600081518110611c3857611c386135bb565b60200260200101819052506000886001600160a01b031663f7ec6f10611c5c6121b4565b60026040518060c00160405280898152602001888152602001878152602001600081526020016000815260200160008152506040518060600160405280600380811115611cab57611cab6133d6565b81526020018d81526020018c8152506040518563ffffffff1660e01b81526004016111ef94939291906137e8565b6000808551118015611cec575083518551145b6040518060400160405280600d81526020016c494e56414c49445f56414c554560981b81525090611d305760405162461bcd60e51b815260040161043291906133aa565b50600085516001600160401b03811115611d4c57611d4c61281a565b604051908082528060200260200182016040528015611d75578160200160208202803683370190505b509050600086516001600160401b03811115611d9357611d9361281a565b604051908082528060200260200182016040528015611dbc578160200160208202803683370190505b509050600087516001600160401b03811115611dda57611dda61281a565b604051908082528060200260200182016040528015611e0d57816020015b6060815260200190600190039081611df85790505b50905060005b8851811015611ff0576001600160a01b038a16611ee057888181518110611e3c57611e3c6135bb565b6020026020010151848281518110611e5657611e566135bb565b60200260200101906001600160a01b031690816001600160a01b03168152505060405180602001604052806000815250828281518110611e9857611e986135bb565b6020026020010181905250878181518110611eb557611eb56135bb565b6020026020010151838281518110611ecf57611ecf6135bb565b602002602001018181525050611fde565b89848281518110611ef357611ef36135bb565b60200260200101906001600160a01b031690816001600160a01b03168152505063a9059cbb60e01b898281518110611f2d57611f2d6135bb565b6020026020010151898381518110611f4757611f476135bb565b60209081029190910101516040516001600160a01b0390921660248301526044820152606401604051602081830303815290604052906001600160e01b0319166020820180516001600160e01b038381831617835250505050828281518110611fb257611fb26135bb565b60200260200101819052506000838281518110611fd157611fd16135bb565b6020026020010181815250505b80611fe88161391a565b915050611e13565b5060008a6001600160a01b031663f7ec6f1061200a6121b4565b60006040518060c0016040528089815260200188815260200187815260200160008152602001600081526020016000815250604051806060016040528060016003811115610dce57610dce6133d6565b600081815260c960205260408120610364906122ea565b60fb546040805163ce1b815f60e01b815290516000926001600160a01b03169163ce1b815f9160048083019260209291908290030181865afa1580156120bb573d6000803e3d6000fd5b505050506040513d601f19601f820116820180604052508101906120df91906133ec565b905090565b6000828152609760205260409020600101546120ff816121be565b610a8c83836121f1565b612111612213565b6001600160a01b0381166121765760405162461bcd60e51b815260206004820152602660248201527f4f776e61626c653a206e6577206f776e657220697320746865207a65726f206160448201526564647265737360d01b6064820152608401610432565b6119b38161228c565b60006001600160e01b03198216637965db0b60e01b148061036457506301ffc9a760e01b6001600160e01b0319831614610364565b60006120df6122f4565b6119b3816121ca6121b4565b612323565b6121d9828261237c565b600082815260c960205260409020610a8c9082612403565b6121fb8282612418565b600082815260c960205260409020610a8c908261249d565b61221b6121b4565b6001600160a01b03166122366033546001600160a01b031690565b6001600160a01b0316146112765760405162461bcd60e51b815260206004820181905260248201527f4f776e61626c653a2063616c6c6572206973206e6f7420746865206f776e65726044820152606401610432565b603380546001600160a01b038381166001600160a01b0319831681179093556040519116919082907f8be0079c531659141344cd1fd0a4f28419497f9722a3daafe3b4186f6b6457e090600090a35050565b60006119ce83836124b2565b6000610364825490565b60006122ff3361123f565b801561230c575060143610155b1561231e575060131936013560601c90565b503390565b61232d82826119d5565b610b1b5761233a816124dc565b6123458360206124ee565b60405160200161235692919061397d565b60408051601f198184030181529082905262461bcd60e51b8252610432916004016133aa565b61238682826119d5565b610b1b5760008281526097602090815260408083206001600160a01b03851684529091529020805460ff191660011790556123bf6121b4565b6001600160a01b0316816001600160a01b0316837f2f8788117e7eff1d82e926ec794901d17c78024a50270940304540a733656f0d60405160405180910390a45050565b60006119ce836001600160a01b038416612689565b61242282826119d5565b15610b1b5760008281526097602090815260408083206001600160a01b03851684529091529020805460ff191690556124596121b4565b6001600160a01b0316816001600160a01b0316837ff6391f5c32d9c69d2a47ea670b442974b53935d1edc7fd64eb21e047a839171b60405160405180910390a45050565b60006119ce836001600160a01b0384166126d8565b60008260000182815481106124c9576124c96135bb565b9060005260206000200154905092915050565b60606103646001600160a01b03831660145b606060006124fd8360026139f2565b612508906002613a09565b6001600160401b0381111561251f5761251f61281a565b6040519080825280601f01601f191660200182016040528015612549576020820181803683370190505b509050600360fc1b81600081518110612564576125646135bb565b60200101906001600160f81b031916908160001a905350600f60fb1b81600181518110612593576125936135bb565b60200101906001600160f81b031916908160001a90535060006125b78460026139f2565b6125c2906001613a09565b90505b600181111561263a576f181899199a1a9b1b9c1cb0b131b232b360811b85600f16601081106125f6576125f66135bb565b1a60f81b82828151811061260c5761260c6135bb565b60200101906001600160f81b031916908160001a90535060049490941c9361263381613a1c565b90506125c5565b5083156119ce5760405162461bcd60e51b815260206004820181905260248201527f537472696e67733a20686578206c656e67746820696e73756666696369656e746044820152606401610432565b60008181526001830160205260408120546126d057508154600181810184556000848152602080822090930184905584548482528286019093526040902091909155610364565b506000610364565b600081815260018301602052604081205480156127c15760006126fc600183613a33565b855490915060009061271090600190613a33565b9050818114612775576000866000018281548110612730576127306135bb565b9060005260206000200154905080876000018481548110612753576127536135bb565b6000918252602080832090910192909255918252600188019052604090208390555b855486908061278657612786613a46565b600190038181906000526020600020016000905590558560010160008681526020019081526020016000206000905560019350505050610364565b6000915050610364565b6000602082840312156127dd57600080fd5b81356001600160e01b0319811681146119ce57600080fd5b6001600160a01b03811681146119b357600080fd5b8035612815816127f5565b919050565b634e487b7160e01b600052604160045260246000fd5b60405161010081016001600160401b03811182821017156128535761285361281a565b60405290565b60405161016081016001600160401b03811182821017156128535761285361281a565b60405160c081016001600160401b03811182821017156128535761285361281a565b60405160e081016001600160401b03811182821017156128535761285361281a565b604051608081016001600160401b03811182821017156128535761285361281a565b604051601f8201601f191681016001600160401b038111828210171561290a5761290a61281a565b604052919050565b60006001600160401b0383111561292b5761292b61281a565b61293e601f8401601f19166020016128e2565b905082815283838301111561295257600080fd5b828260208301376000602084830101529392505050565b600082601f83011261297a57600080fd5b6119ce83833560208501612912565b60006001600160401b038211156129a2576129a261281a565b5060051b60200190565b600082601f8301126129bd57600080fd5b813560206129d26129cd83612989565b6128e2565b82815260059290921b840181019181810190868411156129f157600080fd5b8286015b84811015612a15578035612a08816127f5565b83529183019183016129f5565b509695505050505050565b60006101008284031215612a3357600080fd5b612a3b612830565b9050813581526020820135602082015260408201356040820152606082013560608201526080820135608082015260a082013560a082015260c082013560c082015260e08201356001600160401b03811115612a9657600080fd5b612aa2848285016129ac565b60e08301525092915050565b60006101608284031215612ac157600080fd5b612ac9612859565b9050813581526020820135602082015260408201356040820152606082013560608201526080820135608082015260a082013560a082015260c08201356001600160401b0380821115612b1b57600080fd5b612b2785838601612a20565b60c084015260e0840135915080821115612b4057600080fd5b50612b4d848285016129ac565b60e083015250610100612b6181840161280a565b9082015261012082810135908201526101409182013591810191909152919050565b600381106119b357600080fd5b803561281581612b83565b803560ff8116811461281557600080fd5b600060c08284031215612bbe57600080fd5b612bc661287c565b9050612bd182612b90565b815260208201356001600160401b0380821115612bed57600080fd5b612bf985838601612969565b60208401526040840135915080821115612c1257600080fd5b612c1e85838601612969565b60408401526060840135915080821115612c3757600080fd5b50612c4484828501612969565b60608301525060808201356080820152612c6060a08301612b9b565b60a082015292915050565b60008060008060008060008060006101208a8c031215612c8a57600080fd5b612c938a61280a565b9850612ca160208b0161280a565b975060408a0135965060608a01356001600160401b0380821115612cc457600080fd5b612cd08d838e01612969565b975060808c0135915080821115612ce657600080fd5b612cf28d838e01612aae565b965060a08c0135915080821115612d0857600080fd5b612d148d838e01612bac565b955060c08c0135915080821115612d2a57600080fd5b612d368d838e01612969565b945060e08c0135915080821115612d4c57600080fd5b612d588d838e01612969565b93506101008c0135915080821115612d6f57600080fd5b50612d7c8c828d01612969565b9150509295985092959850929598565b600060208284031215612d9e57600080fd5b5035919050565b60008060408385031215612db857600080fd5b823591506020830135612dca816127f5565b809150509250929050565b60006101408284031215612de857600080fd5b612df061289e565b905081358152602080830135818301526040830135604083015260608301356060830152608083013560808301528360bf840112612e2d57600080fd5b612e356128c0565b80610120850186811115612e4857600080fd5b60a086015b81811015612e645780358452928401928401612e4d565b508160a0860152803560c08601525050505092915050565b6000806000806000806101e08789031215612e9657600080fd5b612e9f8761280a565b9550612eae8860208901612dd5565b94506101608701356001600160401b0380821115612ecb57600080fd5b612ed78a838b016129ac565b9550610180890135915080821115612eee57600080fd5b612efa8a838b016129ac565b94506101a0890135915080821115612f1157600080fd5b612f1d8a838b01612969565b93506101c0890135915080821115612f3457600080fd5b50612f4189828a01612969565b9150509295509295509295565b600082601f830112612f5f57600080fd5b81356020612f6f6129cd83612989565b82815260059290921b84018101918181019086841115612f8e57600080fd5b8286015b84811015612a155780358352918301918301612f92565b600082601f830112612fba57600080fd5b81356020612fca6129cd83612989565b82815260059290921b84018101918181019086841115612fe957600080fd5b8286015b84811015612a155780356001600160401b0381111561300c5760008081fd5b8701603f8101891361301e5760008081fd5b61302f898683013560408401612912565b845250918301918301612fed565b60008060008060008060c0878903121561305657600080fd5b61305f8761280a565b955060208701356001600160401b038082111561307b57600080fd5b6130878a838b016129ac565b9650604089013591508082111561309d57600080fd5b6130a98a838b01612f4e565b955060608901359150808211156130bf57600080fd5b6130cb8a838b01612fa9565b945060808901359150808211156130e157600080fd5b6130ed8a838b01612969565b935060a0890135915080821115612f3457600080fd5b60006020828403121561311557600080fd5b81356119ce816127f5565b600080600080600080600060e0888a03121561313b57600080fd5b6131448861280a565b96506131526020890161280a565b955060408801356001600160401b038082111561316e57600080fd5b61317a8b838c01612aae565b965060608a013591508082111561319057600080fd5b61319c8b838c01612bac565b955060808a01359150808211156131b257600080fd5b6131be8b838c01612969565b945060a08a01359150808211156131d457600080fd5b6131e08b838c01612969565b935060c08a01359150808211156131f657600080fd5b506132038a828b01612969565b91505092959891949750929550565b6000806040838503121561322557600080fd5b50508035926020909101359150565b6000806000806101a0858703121561324b57600080fd5b8435613256816127f5565b93506132658660208701612dd5565b92506101608501356001600160401b038082111561328257600080fd5b61328e88838901612969565b93506101808701359150808211156132a557600080fd5b506132b287828801612969565b91505092959194509250565b60008060008060008060c087890312156132d757600080fd5b6132e08761280a565b95506132ee6020880161280a565b945060408701356001600160401b038082111561330a57600080fd5b6133168a838b016129ac565b9550606089013591508082111561332c57600080fd5b6130cb8a838b01612f4e565b60006020828403121561334a57600080fd5b815180151581146119ce57600080fd5b60005b8381101561337557818101518382015260200161335d565b50506000910152565b6000815180845261339681602086016020860161335a565b601f01601f19169290920160200192915050565b6020815260006119ce602083018461337e565b6000602082840312156133cf57600080fd5b5051919050565b634e487b7160e01b600052602160045260246000fd5b6000602082840312156133fe57600080fd5b81516119ce816127f5565b60006020828403121561341b57600080fd5b81516119ce81612b83565b600081518084526020808501945080840160005b8381101561345f5781516001600160a01b03168752958201959082019060010161343a565b509495945050505050565b6000610100825184526020830151602085015260408301516040850152606083015160608501526080830151608085015260a083015160a085015260c083015160c085015260e08301518160e08601526134c682860182613426565b95945050505050565b6000610160825184526020830151602085015260408301516040850152606083015160608501526080830151608085015260a083015160a085015260c08301518160c08601526135218286018261346a565b91505060e083015184820360e086015261353b8282613426565b91505061010080840151613559828701826001600160a01b03169052565b505061012083810151908501526101409283015192909301919091525090565b60038110613589576135896133d6565b9052565b6080815260006135a060808301876134cf565b90508460208301528360408301526134c66060830184613579565b634e487b7160e01b600052603260045260246000fd5b6135dc828251613579565b6000602082015160c060208501526135f760c085018261337e565b905060408301518482036040860152613610828261337e565b9150506060830151848203606086015261362a828261337e565b9150506080830151608085015260ff60a08401511660a08501528091505092915050565b60018060a01b038716815285602082015260c06040820152600061367560c083018761337e565b828103606084015261368781876134cf565b9050828103608084015261369b81866135d1565b905082810360a0840152611232818561337e565b6000815180845260208085019450848260051b860182860160005b858110156136f45783830389526136e283835161337e565b988501989250908401906001016136ca565b5090979650505050505050565b6000815160c0845261371660c0850182613426565b60208481015186830387830152805180845290820193509091600091908301905b808310156137575784518252938301936001929092019190830190613737565b5060408601519350868103604088015261377181856136af565b9350505050606083015160608501526080830151608085015260a083015160a08501528091505092915050565b60008151600481106137b2576137b26133d6565b808452506020820151606060208501526137cf606085018261337e565b9050604083015184820360408601526134c6828261337e565b60018060a01b038516815283602082015260806040820152600061380f6080830185613701565b8281036060840152613821818561379e565b979650505050505050565b805182526020808201518184015260408201516040840152606082015160608401526080820151608084015260a082015160a0840160005b600481101561388157825182529183019190830190600101613864565b5050505060c001516101209190910152565b6101408101610364828461382c565b60006101806138b1838761382c565b806101408401526138c481840186613426565b90508281036101608401526138d98185613426565b9695505050505050565b6000602082840312156138f557600080fd5b8151600581106119ce57600080fd5b634e487b7160e01b600052601160045260246000fd5b60006001820161392c5761392c613904565b5060010190565b6001600160a01b0385168152608060208201819052600090613957908301866134cf565b828103604084015261396981866135d1565b90508281036060840152613821818561337e565b7f416363657373436f6e74726f6c3a206163636f756e74200000000000000000008152600083516139b581601785016020880161335a565b7001034b99036b4b9b9b4b733903937b6329607d1b60179184019182015283516139e681602884016020880161335a565b01602801949350505050565b808202811582820484141761036457610364613904565b8082018082111561036457610364613904565b600081613a2b57613a2b613904565b506000190190565b8181038181111561036457610364613904565b634e487b7160e01b600052603160045260246000fdfe4143544956455f474f5645524e414e43455f53455454494e47535f50524f504f53414c5f455849535453a2646970667358221220331babf381a2dbba4380fbd2916ae25121da370098613b057868f345006e903e64736f6c63430008110033",
  "devdoc": {
    "details": "It is a supporting part of the protocol that takes user input arguments and constructs OZ Governor-compatible structures describing the transactions to be executed upon successful voting on the proposal. It does not store user input, but only passes it on in a transformed format to the specified pool contract.",
    "kind": "dev",
    "methods": {
      "constructor": {
        "custom:oz-upgrades-unsafe-allow": "constructor",
        "details": "This contract uses OpenZeppelin upgrades and has no need for a constructor function. The constructor is replaced with an initializer function. This method disables the initializer feature of the OpenZeppelin upgrades plugin, preventing the initializer methods from being misused."
      },
      "getRoleAdmin(bytes32)": {
        "details": "Returns the admin role that controls `role`. See {grantRole} and {revokeRole}. To change a role's admin, use {_setRoleAdmin}."
      },
      "getRoleMember(bytes32,uint256)": {
        "details": "Returns one of the accounts that have `role`. `index` must be a value between 0 and {getRoleMemberCount}, non-inclusive. Role bearers are not sorted in any particular way, and their ordering may change at any point. WARNING: When using {getRoleMember} and {getRoleMemberCount}, make sure you perform all queries on the same block. See the following https://forum.openzeppelin.com/t/iterating-over-elements-on-enumerableset-in-openzeppelin-contracts/2296[forum post] for more information."
      },
      "getRoleMemberCount(bytes32)": {
        "details": "Returns the number of accounts that have `role`. Can be used together with {getRoleMember} to enumerate all bearers of a role."
      },
      "getTrustedForwarder()": {
        "details": "Returns the address of the trusted forwarder."
      },
      "grantRole(bytes32,address)": {
        "details": "Grants `role` to `account`. If `account` had not been already granted `role`, emits a {RoleGranted} event. Requirements: - the caller must have ``role``'s admin role. May emit a {RoleGranted} event."
      },
      "hasRole(bytes32,address)": {
        "details": "Returns `true` if `account` has been granted `role`."
      },
      "initialize()": {
        "details": "This method replaces the constructor for upgradeable contracts."
      },
      "isTrustedForwarder(address)": {
        "details": "Indicates whether any particular address is the trusted forwarder."
      },
      "owner()": {
        "details": "Returns the address of the current owner."
      },
      "proposeCustomTx(address,address[],uint256[],bytes[],string,string)": {
        "details": "This tool can be useful for creating a transaction with arbitrary parameters and putting it to a vote for execution on behalf of the pool.",
        "params": {
          "callDatas": "Raw calldatas.",
          "description": "Proposal description.",
          "metaHash": "Hash value of proposal metadata.",
          "pool": "The address of the pool on behalf of which this proposal will be launched.",
          "targets": "Transfer recipients.",
          "values": "Transfer amounts for payable."
        },
        "returns": {
          "proposalId": "The ID of the created proposal."
        }
      },
      "proposeGovernanceSettings(address,(uint256,uint256,uint256,uint256,uint256,uint256[4],uint256),string,string)": {
        "details": "The main parameter should be a structure of type NewGovernanceSettings, which includes the Governance Threshold, Decision Threshold, Proposal Threshold, and execution delay lists for proposals.",
        "params": {
          "description": "Proposal description.",
          "metaHash": "Hash value of proposal metadata.",
          "pool": "The address of the pool on behalf of which this proposal will be launched and for which the Governance settings will be changed.",
          "settings": "New governance settings."
        },
        "returns": {
          "proposalId": "The ID of the created proposal."
        }
      },
      "proposeGovernanceSettingsWithRoles(address,(uint256,uint256,uint256,uint256,uint256,uint256[4],uint256),address[],address[],string,string)": {
        "details": "The main parameter should be a structure of type NewGovernanceSettings, which includes the Governance Threshold, Decision Threshold, Proposal Threshold, execution delay lists for proposals, as well as two sets of addresses: one for the new list of secretaries and another for the new list of executors.",
        "params": {
          "description": "Proposal description.",
          "executor": "Add a new address to the pool's executor list.",
          "metaHash": "Hash value of the proposal metadata.",
          "pool": "The address of the pool on behalf of which this proposal will be launched and for which the Governance settings will be changed.",
          "secretary": "Add a new address to the pool's secretary list.",
          "settings": "New governance settings."
        },
        "returns": {
          "proposalId": "The ID of the created proposal."
        }
      },
      "proposeTGE(address,address,(uint256,uint256,uint256,uint256,uint256,uint256,(uint256,uint256,uint256,uint256,uint256,uint256,uint256,address[]),address[],address,uint256,uint256),(uint8,string,string,string,uint256,uint8),string,string,string)": {
        "details": "Proposal to launch a new token generation event (TGE). It can only be created if the maximum supply threshold value for an existing token has not been reached or if a new token is being created, in which case a new token contract will be deployed simultaneously with the TGE contract.",
        "params": {
          "description": "Proposal description.",
          "metaHash": "Hash value of proposal metadata.",
          "metadataURI": "TGE metadata URI.",
          "pool": "The address of the pool on behalf of which this proposal will be launched and for which the TGE event will be launched.",
          "tgeInfo": "TGE parameters.",
          "tokenInfo": "Token parameters."
        },
        "returns": {
          "proposalId": "The ID of the created proposal."
        }
      },
      "proposeTGEERC1155(address,address,uint256,string,(uint256,uint256,uint256,uint256,uint256,uint256,(uint256,uint256,uint256,uint256,uint256,uint256,uint256,address[]),address[],address,uint256,uint256),(uint8,string,string,string,uint256,uint8),string,string,string)": {
        "details": "Proposal to launch a new token generation event (TGE) for ERC1155 preference tokens.",
        "params": {
          "description": "Proposal description.",
          "metaHash": "Hash value of proposal metadata.",
          "metadataURI": "TGE metadata URI.",
          "tgeInfo": "TGE parameters.",
          "tokenId": "Token ID.",
          "tokenIdMetadataURI": "Token ID metadata URI.",
          "tokenInfo": "Token parameters."
        },
        "returns": {
          "proposalId": "The ID of the created proposal."
        }
      },
      "proposeTransfer(address,address,address[],uint256[],string,string)": {
        "details": "This function prepares a proposal from the list of recipients and corresponding amounts and submits it to the pool for a vote to transfer those amounts to the specified recipients. The asset type is specified as a separate argument, which is the same for all recipients.",
        "params": {
          "amounts": "Transfer amounts.",
          "asset": "Asset to transfer (address(0) for ETH transfers).",
          "description": "Proposal description.",
          "metaHash": "Hash value of proposal metadata.",
          "pool": "The address of the pool on behalf of which this proposal will be launched and from whose balance the values will be transferred.",
          "recipients": "Transfer recipients."
        },
        "returns": {
          "proposalId": "The ID of the created proposal."
        }
      },
      "renounceOwnership()": {
        "details": "Leaves the contract without owner. It will not be possible to call `onlyOwner` functions anymore. Can only be called by the current owner. NOTE: Renouncing ownership will leave the contract without an owner, thereby removing any functionality that is only available to the owner."
      },
      "renounceRole(bytes32,address)": {
        "details": "Revokes `role` from the calling account. Roles are often managed via {grantRole} and {revokeRole}: this function's purpose is to provide a mechanism for accounts to lose their privileges if they are compromised (such as when a trusted device is misplaced). If the calling account had been revoked `role`, emits a {RoleRevoked} event. Requirements: - the caller must be `account`. May emit a {RoleRevoked} event."
      },
      "revokeRole(bytes32,address)": {
        "details": "Revokes `role` from `account`. If `account` had been granted `role`, emits a {RoleRevoked} event. Requirements: - the caller must have ``role``'s admin role. May emit a {RoleRevoked} event."
      },
      "setService(address)": {
        "details": "Stores a new address of the Service contract in the memory of this contract.",
        "params": {
          "service_": "The new address of the Service contract."
        }
      },
      "supportsInterface(bytes4)": {
        "details": "See {IERC165-supportsInterface}."
      },
      "transferOwnership(address)": {
        "details": "Transfers ownership of the contract to a new account (`newOwner`). Can only be called by the current owner."
      }
    },
    "stateVariables": {
      "service": {
        "details": "The address of the Service contract."
      }
    },
    "title": "Custom Proposal Contract",
    "version": 1
  },
  "userdoc": {
    "kind": "user",
    "methods": {
      "constructor": {
        "notice": "Contract constructor."
      },
      "initialize()": {
        "notice": "Contract initializer"
      },
      "proposeCustomTx(address,address[],uint256[],bytes[],string,string)": {
        "notice": "Creating a custom proposal."
      },
      "proposeGovernanceSettings(address,(uint256,uint256,uint256,uint256,uint256,uint256[4],uint256),string,string)": {
        "notice": "Proposal to replace Governance settings. One of the two methods to change voting parameters."
      },
      "proposeGovernanceSettingsWithRoles(address,(uint256,uint256,uint256,uint256,uint256,uint256[4],uint256),address[],address[],string,string)": {
        "notice": "Proposal to replace Governance settings and change the pool's list of secretaries and executors. One of the two methods to change voting parameters. The only way for a DAO to modify the lists of secretaries and executors."
      },
      "proposeTGE(address,address,(uint256,uint256,uint256,uint256,uint256,uint256,(uint256,uint256,uint256,uint256,uint256,uint256,uint256,address[]),address[],address,uint256,uint256),(uint8,string,string,string,uint256,uint8),string,string,string)": {
        "notice": "This proposal is launched when there is a need to issue additional tokens (both Governance and Preference) for an existing pool. In other words, the issuance of tokens for any DAO is possible only through the creation of such a proposal."
      },
      "proposeTGEERC1155(address,address,uint256,string,(uint256,uint256,uint256,uint256,uint256,uint256,(uint256,uint256,uint256,uint256,uint256,uint256,uint256,address[]),address[],address,uint256,uint256),(uint8,string,string,string,uint256,uint8),string,string,string)": {
        "notice": "This proposal is launched when there is a need to issue ERC1155 Preference tokens, additional collections, and token units in existing collections for an existing ERC1155 token. In other words, the issuance of tokens of this format for any DAO is possible only through the creation of such a proposal."
      },
      "proposeTransfer(address,address,address[],uint256[],string,string)": {
        "notice": "This proposal is the only way to withdraw funds from the pool account."
      }
    },
    "notice": "This contract is designed for constructing proposals from user input. The methods generate calldata from the input arguments and pass it to the specified pool as a proposal.",
    "version": 1
  },
  "storageLayout": {
    "storage": [
      {
        "astId": 1184,
        "contract": "contracts/CustomProposal.sol:CustomProposal",
        "label": "_initialized",
        "offset": 0,
        "slot": "0",
        "type": "t_uint8"
      },
      {
        "astId": 1187,
        "contract": "contracts/CustomProposal.sol:CustomProposal",
        "label": "_initializing",
        "offset": 1,
        "slot": "0",
        "type": "t_bool"
      },
      {
        "astId": 2007,
        "contract": "contracts/CustomProposal.sol:CustomProposal",
        "label": "__gap",
        "offset": 0,
        "slot": "1",
        "type": "t_array(t_uint256)50_storage"
      },
      {
        "astId": 589,
        "contract": "contracts/CustomProposal.sol:CustomProposal",
        "label": "_owner",
        "offset": 0,
        "slot": "51",
        "type": "t_address"
      },
      {
        "astId": 709,
        "contract": "contracts/CustomProposal.sol:CustomProposal",
        "label": "__gap",
        "offset": 0,
        "slot": "52",
        "type": "t_array(t_uint256)49_storage"
      },
      {
        "astId": 2286,
        "contract": "contracts/CustomProposal.sol:CustomProposal",
        "label": "__gap",
        "offset": 0,
        "slot": "101",
        "type": "t_array(t_uint256)50_storage"
      },
      {
        "astId": 184,
        "contract": "contracts/CustomProposal.sol:CustomProposal",
        "label": "_roles",
        "offset": 0,
        "slot": "151",
        "type": "t_mapping(t_bytes32,t_struct(RoleData)179_storage)"
      },
      {
        "astId": 479,
        "contract": "contracts/CustomProposal.sol:CustomProposal",
        "label": "__gap",
        "offset": 0,
        "slot": "152",
        "type": "t_array(t_uint256)49_storage"
      },
      {
        "astId": 33,
        "contract": "contracts/CustomProposal.sol:CustomProposal",
        "label": "_roleMembers",
        "offset": 0,
        "slot": "201",
        "type": "t_mapping(t_bytes32,t_struct(AddressSet)3490_storage)"
      },
      {
        "astId": 143,
        "contract": "contracts/CustomProposal.sol:CustomProposal",
        "label": "__gap",
        "offset": 0,
        "slot": "202",
        "type": "t_array(t_uint256)49_storage"
      },
      {
        "astId": 3808,
        "contract": "contracts/CustomProposal.sol:CustomProposal",
        "label": "service",
        "offset": 0,
        "slot": "251",
        "type": "t_contract(IService)5392"
      }
    ],
    "types": {
      "t_address": {
        "encoding": "inplace",
        "label": "address",
        "numberOfBytes": "20"
      },
      "t_array(t_bytes32)dyn_storage": {
        "base": "t_bytes32",
        "encoding": "dynamic_array",
        "label": "bytes32[]",
        "numberOfBytes": "32"
      },
      "t_array(t_uint256)49_storage": {
        "base": "t_uint256",
        "encoding": "inplace",
        "label": "uint256[49]",
        "numberOfBytes": "1568"
      },
      "t_array(t_uint256)50_storage": {
        "base": "t_uint256",
        "encoding": "inplace",
        "label": "uint256[50]",
        "numberOfBytes": "1600"
      },
      "t_bool": {
        "encoding": "inplace",
        "label": "bool",
        "numberOfBytes": "1"
      },
      "t_bytes32": {
        "encoding": "inplace",
        "label": "bytes32",
        "numberOfBytes": "32"
      },
      "t_contract(IService)5392": {
        "encoding": "inplace",
        "label": "contract IService",
        "numberOfBytes": "20"
      },
      "t_mapping(t_address,t_bool)": {
        "encoding": "mapping",
        "key": "t_address",
        "label": "mapping(address => bool)",
        "numberOfBytes": "32",
        "value": "t_bool"
      },
      "t_mapping(t_bytes32,t_struct(AddressSet)3490_storage)": {
        "encoding": "mapping",
        "key": "t_bytes32",
        "label": "mapping(bytes32 => struct EnumerableSetUpgradeable.AddressSet)",
        "numberOfBytes": "32",
        "value": "t_struct(AddressSet)3490_storage"
      },
      "t_mapping(t_bytes32,t_struct(RoleData)179_storage)": {
        "encoding": "mapping",
        "key": "t_bytes32",
        "label": "mapping(bytes32 => struct AccessControlUpgradeable.RoleData)",
        "numberOfBytes": "32",
        "value": "t_struct(RoleData)179_storage"
      },
      "t_mapping(t_bytes32,t_uint256)": {
        "encoding": "mapping",
        "key": "t_bytes32",
        "label": "mapping(bytes32 => uint256)",
        "numberOfBytes": "32",
        "value": "t_uint256"
      },
      "t_struct(AddressSet)3490_storage": {
        "encoding": "inplace",
        "label": "struct EnumerableSetUpgradeable.AddressSet",
        "members": [
          {
            "astId": 3489,
            "contract": "contracts/CustomProposal.sol:CustomProposal",
            "label": "_inner",
            "offset": 0,
            "slot": "0",
            "type": "t_struct(Set)3175_storage"
          }
        ],
        "numberOfBytes": "64"
      },
      "t_struct(RoleData)179_storage": {
        "encoding": "inplace",
        "label": "struct AccessControlUpgradeable.RoleData",
        "members": [
          {
            "astId": 176,
            "contract": "contracts/CustomProposal.sol:CustomProposal",
            "label": "members",
            "offset": 0,
            "slot": "0",
            "type": "t_mapping(t_address,t_bool)"
          },
          {
            "astId": 178,
            "contract": "contracts/CustomProposal.sol:CustomProposal",
            "label": "adminRole",
            "offset": 0,
            "slot": "1",
            "type": "t_bytes32"
          }
        ],
        "numberOfBytes": "64"
      },
      "t_struct(Set)3175_storage": {
        "encoding": "inplace",
        "label": "struct EnumerableSetUpgradeable.Set",
        "members": [
          {
            "astId": 3170,
            "contract": "contracts/CustomProposal.sol:CustomProposal",
            "label": "_values",
            "offset": 0,
            "slot": "0",
            "type": "t_array(t_bytes32)dyn_storage"
          },
          {
            "astId": 3174,
            "contract": "contracts/CustomProposal.sol:CustomProposal",
            "label": "_indexes",
            "offset": 0,
            "slot": "1",
            "type": "t_mapping(t_bytes32,t_uint256)"
          }
        ],
        "numberOfBytes": "64"
      },
      "t_uint256": {
        "encoding": "inplace",
        "label": "uint256",
        "numberOfBytes": "32"
      },
      "t_uint8": {
        "encoding": "inplace",
        "label": "uint8",
        "numberOfBytes": "1"
      }
    }
  }
}