{
  "address": "0x5616Bab7375f116d79BFa46fDC9a41C87e32E749",
  "abi": [
    {
      "inputs": [],
      "stateMutability": "nonpayable",
      "type": "constructor"
    },
    {
      "anonymous": false,
      "inputs": [
        {
          "indexed": false,
          "internalType": "uint256",
          "name": "amount",
          "type": "uint256"
        }
      ],
      "name": "FundsTransferred",
      "type": "event"
    },
    {
      "anonymous": false,
      "inputs": [
        {
          "indexed": false,
          "internalType": "uint8",
          "name": "version",
          "type": "uint8"
        }
      ],
      "name": "Initialized",
      "type": "event"
    },
    {
      "anonymous": false,
      "inputs": [
        {
          "indexed": false,
          "internalType": "address",
          "name": "token",
          "type": "address"
        },
        {
          "indexed": false,
          "internalType": "uint256",
          "name": "tokenFee",
          "type": "uint256"
        }
      ],
      "name": "ProtocolTokenFeeClaimed",
      "type": "event"
    },
    {
      "anonymous": false,
      "inputs": [
        {
          "indexed": false,
          "internalType": "address",
          "name": "buyer",
          "type": "address"
        },
        {
          "indexed": false,
          "internalType": "uint256",
          "name": "amount",
          "type": "uint256"
        }
      ],
      "name": "Purchased",
      "type": "event"
    },
    {
      "anonymous": false,
      "inputs": [
        {
          "indexed": false,
          "internalType": "address",
          "name": "account",
          "type": "address"
        },
        {
          "indexed": false,
          "internalType": "uint256",
          "name": "refundValue",
          "type": "uint256"
        }
      ],
      "name": "Redeemed",
      "type": "event"
    },
    {
      "anonymous": false,
      "inputs": [
        {
          "indexed": false,
          "internalType": "address",
          "name": "account",
          "type": "address"
        },
        {
          "indexed": false,
          "internalType": "uint256",
          "name": "amount",
          "type": "uint256"
        }
      ],
      "name": "Refund",
      "type": "event"
    },
    {
      "inputs": [],
      "name": "createdAt",
      "outputs": [
        {
          "internalType": "uint256",
          "name": "",
          "type": "uint256"
        }
      ],
      "stateMutability": "view",
      "type": "function"
    },
    {
      "inputs": [
        {
          "internalType": "address",
          "name": "account",
          "type": "address"
        },
        {
          "internalType": "uint256",
          "name": "amount",
          "type": "uint256"
        }
      ],
      "name": "externalPurchase",
      "outputs": [],
      "stateMutability": "nonpayable",
      "type": "function"
    },
    {
      "inputs": [],
      "name": "getEnd",
      "outputs": [
        {
          "internalType": "uint256",
          "name": "",
          "type": "uint256"
        }
      ],
      "stateMutability": "view",
      "type": "function"
    },
    {
      "inputs": [],
      "name": "getInfo",
      "outputs": [
        {
          "components": [
            {
              "internalType": "uint256",
              "name": "price",
              "type": "uint256"
            },
            {
              "internalType": "uint256",
              "name": "hardcap",
              "type": "uint256"
            },
            {
              "internalType": "uint256",
              "name": "softcap",
              "type": "uint256"
            },
            {
              "internalType": "uint256",
              "name": "minPurchase",
              "type": "uint256"
            },
            {
              "internalType": "uint256",
              "name": "maxPurchase",
              "type": "uint256"
            },
            {
              "internalType": "uint256",
              "name": "duration",
              "type": "uint256"
            },
            {
              "components": [
                {
                  "internalType": "uint256",
                  "name": "vestedShare",
                  "type": "uint256"
                },
                {
                  "internalType": "uint256",
                  "name": "cliff",
                  "type": "uint256"
                },
                {
                  "internalType": "uint256",
                  "name": "cliffShare",
                  "type": "uint256"
                },
                {
                  "internalType": "uint256",
                  "name": "spans",
                  "type": "uint256"
                },
                {
                  "internalType": "uint256",
                  "name": "spanDuration",
                  "type": "uint256"
                },
                {
                  "internalType": "uint256",
                  "name": "spanShare",
                  "type": "uint256"
                },
                {
                  "internalType": "uint256",
                  "name": "claimTVL",
                  "type": "uint256"
                },
                {
                  "internalType": "address[]",
                  "name": "resolvers",
                  "type": "address[]"
                }
              ],
              "internalType": "struct IVesting.VestingParams",
              "name": "vestingParams",
              "type": "tuple"
            },
            {
              "internalType": "address[]",
              "name": "userWhitelist",
              "type": "address[]"
            },
            {
              "internalType": "address",
              "name": "unitOfAccount",
              "type": "address"
            },
            {
              "internalType": "uint256",
              "name": "lockupDuration",
              "type": "uint256"
            },
            {
              "internalType": "uint256",
              "name": "lockupTVL",
              "type": "uint256"
            }
          ],
          "internalType": "struct ITGE.TGEInfo",
          "name": "",
          "type": "tuple"
        }
      ],
      "stateMutability": "view",
      "type": "function"
    },
    {
      "inputs": [
        {
          "internalType": "uint256",
          "name": "amount",
          "type": "uint256"
        }
      ],
      "name": "getProtocolTokenFee",
      "outputs": [
        {
          "internalType": "uint256",
          "name": "",
          "type": "uint256"
        }
      ],
      "stateMutability": "view",
      "type": "function"
    },
    {
      "inputs": [],
      "name": "getTotalPurchasedValue",
      "outputs": [
        {
          "internalType": "uint256",
          "name": "",
          "type": "uint256"
        }
      ],
      "stateMutability": "view",
      "type": "function"
    },
    {
      "inputs": [],
      "name": "getTotalVestedValue",
      "outputs": [
        {
          "internalType": "uint256",
          "name": "",
          "type": "uint256"
        }
      ],
      "stateMutability": "view",
      "type": "function"
    },
    {
      "inputs": [],
      "name": "getTrustedForwarder",
      "outputs": [
        {
          "internalType": "address",
          "name": "",
          "type": "address"
        }
      ],
      "stateMutability": "view",
      "type": "function"
    },
    {
      "inputs": [],
      "name": "getUserWhitelist",
      "outputs": [
        {
          "internalType": "address[]",
          "name": "",
          "type": "address[]"
        }
      ],
      "stateMutability": "view",
      "type": "function"
    },
    {
      "inputs": [],
      "name": "info",
      "outputs": [
        {
          "internalType": "uint256",
          "name": "price",
          "type": "uint256"
        },
        {
          "internalType": "uint256",
          "name": "hardcap",
          "type": "uint256"
        },
        {
          "internalType": "uint256",
          "name": "softcap",
          "type": "uint256"
        },
        {
          "internalType": "uint256",
          "name": "minPurchase",
          "type": "uint256"
        },
        {
          "internalType": "uint256",
          "name": "maxPurchase",
          "type": "uint256"
        },
        {
          "internalType": "uint256",
          "name": "duration",
          "type": "uint256"
        },
        {
          "components": [
            {
              "internalType": "uint256",
              "name": "vestedShare",
              "type": "uint256"
            },
            {
              "internalType": "uint256",
              "name": "cliff",
              "type": "uint256"
            },
            {
              "internalType": "uint256",
              "name": "cliffShare",
              "type": "uint256"
            },
            {
              "internalType": "uint256",
              "name": "spans",
              "type": "uint256"
            },
            {
              "internalType": "uint256",
              "name": "spanDuration",
              "type": "uint256"
            },
            {
              "internalType": "uint256",
              "name": "spanShare",
              "type": "uint256"
            },
            {
              "internalType": "uint256",
              "name": "claimTVL",
              "type": "uint256"
            },
            {
              "internalType": "address[]",
              "name": "resolvers",
              "type": "address[]"
            }
          ],
          "internalType": "struct IVesting.VestingParams",
          "name": "vestingParams",
          "type": "tuple"
        },
        {
          "internalType": "address",
          "name": "unitOfAccount",
          "type": "address"
        },
        {
          "internalType": "uint256",
          "name": "lockupDuration",
          "type": "uint256"
        },
        {
          "internalType": "uint256",
          "name": "lockupTVL",
          "type": "uint256"
        }
      ],
      "stateMutability": "view",
      "type": "function"
    },
    {
      "inputs": [
        {
          "internalType": "address",
          "name": "_service",
          "type": "address"
        },
        {
          "internalType": "address",
          "name": "_token",
          "type": "address"
        },
        {
          "internalType": "uint256",
          "name": "_tokenId",
          "type": "uint256"
        },
        {
          "internalType": "string",
          "name": "_uri",
          "type": "string"
        },
        {
          "components": [
            {
              "internalType": "uint256",
              "name": "price",
              "type": "uint256"
            },
            {
              "internalType": "uint256",
              "name": "hardcap",
              "type": "uint256"
            },
            {
              "internalType": "uint256",
              "name": "softcap",
              "type": "uint256"
            },
            {
              "internalType": "uint256",
              "name": "minPurchase",
              "type": "uint256"
            },
            {
              "internalType": "uint256",
              "name": "maxPurchase",
              "type": "uint256"
            },
            {
              "internalType": "uint256",
              "name": "duration",
              "type": "uint256"
            },
            {
              "components": [
                {
                  "internalType": "uint256",
                  "name": "vestedShare",
                  "type": "uint256"
                },
                {
                  "internalType": "uint256",
                  "name": "cliff",
                  "type": "uint256"
                },
                {
                  "internalType": "uint256",
                  "name": "cliffShare",
                  "type": "uint256"
                },
                {
                  "internalType": "uint256",
                  "name": "spans",
                  "type": "uint256"
                },
                {
                  "internalType": "uint256",
                  "name": "spanDuration",
                  "type": "uint256"
                },
                {
                  "internalType": "uint256",
                  "name": "spanShare",
                  "type": "uint256"
                },
                {
                  "internalType": "uint256",
                  "name": "claimTVL",
                  "type": "uint256"
                },
                {
                  "internalType": "address[]",
                  "name": "resolvers",
                  "type": "address[]"
                }
              ],
              "internalType": "struct IVesting.VestingParams",
              "name": "vestingParams",
              "type": "tuple"
            },
            {
              "internalType": "address[]",
              "name": "userWhitelist",
              "type": "address[]"
            },
            {
              "internalType": "address",
              "name": "unitOfAccount",
              "type": "address"
            },
            {
              "internalType": "uint256",
              "name": "lockupDuration",
              "type": "uint256"
            },
            {
              "internalType": "uint256",
              "name": "lockupTVL",
              "type": "uint256"
            }
          ],
          "internalType": "struct ITGE.TGEInfo",
          "name": "_info",
          "type": "tuple"
        },
        {
          "internalType": "uint256",
          "name": "_protocolFee",
          "type": "uint256"
        }
      ],
      "name": "initialize",
      "outputs": [],
      "stateMutability": "nonpayable",
      "type": "function"
    },
    {
      "inputs": [],
      "name": "isERC1155TGE",
      "outputs": [
        {
          "internalType": "bool",
          "name": "",
          "type": "bool"
        }
      ],
      "stateMutability": "view",
      "type": "function"
    },
    {
      "inputs": [],
      "name": "isProtocolTokenFeeClaimed",
      "outputs": [
        {
          "internalType": "bool",
          "name": "",
          "type": "bool"
        }
      ],
      "stateMutability": "view",
      "type": "function"
    },
    {
      "inputs": [
        {
          "internalType": "address",
          "name": "forwarder",
          "type": "address"
        }
      ],
      "name": "isTrustedForwarder",
      "outputs": [
        {
          "internalType": "bool",
          "name": "",
          "type": "bool"
        }
      ],
      "stateMutability": "view",
      "type": "function"
    },
    {
      "inputs": [
        {
          "internalType": "address",
          "name": "account",
          "type": "address"
        }
      ],
      "name": "isUserWhitelisted",
      "outputs": [
        {
          "internalType": "bool",
          "name": "",
          "type": "bool"
        }
      ],
      "stateMutability": "view",
      "type": "function"
    },
    {
      "inputs": [
        {
          "internalType": "address",
          "name": "account",
          "type": "address"
        }
      ],
      "name": "lockedBalanceOf",
      "outputs": [
        {
          "internalType": "uint256",
          "name": "",
          "type": "uint256"
        }
      ],
      "stateMutability": "view",
      "type": "function"
    },
    {
      "inputs": [],
      "name": "lockupTVLReached",
      "outputs": [
        {
          "internalType": "bool",
          "name": "",
          "type": "bool"
        }
      ],
      "stateMutability": "view",
      "type": "function"
    },
    {
      "inputs": [
        {
          "internalType": "address",
          "name": "account",
          "type": "address"
        }
      ],
      "name": "maxPurchaseOf",
      "outputs": [
        {
          "internalType": "uint256",
          "name": "",
          "type": "uint256"
        }
      ],
      "stateMutability": "view",
      "type": "function"
    },
    {
      "inputs": [
        {
          "internalType": "address",
          "name": "account",
          "type": "address"
        },
        {
          "internalType": "uint256",
          "name": "amount",
          "type": "uint256"
        }
      ],
      "name": "proceedPurchase",
      "outputs": [],
      "stateMutability": "nonpayable",
      "type": "function"
    },
    {
      "inputs": [],
      "name": "protocolFee",
      "outputs": [
        {
          "internalType": "uint256",
          "name": "",
          "type": "uint256"
        }
      ],
      "stateMutability": "view",
      "type": "function"
    },
    {
      "inputs": [
        {
          "internalType": "uint256",
          "name": "amount",
          "type": "uint256"
        }
      ],
      "name": "purchase",
      "outputs": [],
      "stateMutability": "payable",
      "type": "function"
    },
    {
      "inputs": [
        {
          "internalType": "address",
          "name": "",
          "type": "address"
        }
      ],
      "name": "purchaseOf",
      "outputs": [
        {
          "internalType": "uint256",
          "name": "",
          "type": "uint256"
        }
      ],
      "stateMutability": "view",
      "type": "function"
    },
    {
      "inputs": [],
      "name": "redeem",
      "outputs": [],
      "stateMutability": "nonpayable",
      "type": "function"
    },
    {
      "inputs": [
        {
          "internalType": "address",
          "name": "account",
          "type": "address"
        }
      ],
      "name": "redeemableBalanceOf",
      "outputs": [
        {
          "internalType": "uint256",
          "name": "",
          "type": "uint256"
        }
      ],
      "stateMutability": "view",
      "type": "function"
    },
    {
      "inputs": [],
      "name": "setLockupTVLReached",
      "outputs": [],
      "stateMutability": "nonpayable",
      "type": "function"
    },
    {
      "inputs": [],
      "name": "state",
      "outputs": [
        {
          "internalType": "enum ITGE.State",
          "name": "",
          "type": "uint8"
        }
      ],
      "stateMutability": "view",
      "type": "function"
    },
    {
      "inputs": [],
      "name": "token",
      "outputs": [
        {
          "internalType": "address",
          "name": "",
          "type": "address"
        }
      ],
      "stateMutability": "view",
      "type": "function"
    },
    {
      "inputs": [],
      "name": "tokenId",
      "outputs": [
        {
          "internalType": "uint256",
          "name": "",
          "type": "uint256"
        }
      ],
      "stateMutability": "view",
      "type": "function"
    },
    {
      "inputs": [],
      "name": "totalProtocolFee",
      "outputs": [
        {
          "internalType": "uint256",
          "name": "",
          "type": "uint256"
        }
      ],
      "stateMutability": "view",
      "type": "function"
    },
    {
      "inputs": [],
      "name": "totalPurchased",
      "outputs": [
        {
          "internalType": "uint256",
          "name": "",
          "type": "uint256"
        }
      ],
      "stateMutability": "view",
      "type": "function"
    },
    {
      "inputs": [],
      "name": "totalVested",
      "outputs": [
        {
          "internalType": "uint256",
          "name": "",
          "type": "uint256"
        }
      ],
      "stateMutability": "view",
      "type": "function"
    },
    {
      "inputs": [],
      "name": "transferFunds",
      "outputs": [],
      "stateMutability": "nonpayable",
      "type": "function"
    },
    {
      "inputs": [],
      "name": "transferUnlocked",
      "outputs": [
        {
          "internalType": "bool",
          "name": "",
          "type": "bool"
        }
      ],
      "stateMutability": "view",
      "type": "function"
    },
    {
      "inputs": [
        {
          "internalType": "address",
          "name": "account",
          "type": "address"
        },
        {
          "internalType": "uint256",
          "name": "amount",
          "type": "uint256"
        }
      ],
      "name": "validatePurchase",
      "outputs": [
        {
          "internalType": "bool",
          "name": "",
          "type": "bool"
        }
      ],
      "stateMutability": "view",
      "type": "function"
    },
    {
      "inputs": [
        {
          "internalType": "address",
          "name": "",
          "type": "address"
        }
      ],
      "name": "vestedBalanceOf",
      "outputs": [
        {
          "internalType": "uint256",
          "name": "",
          "type": "uint256"
        }
      ],
      "stateMutability": "view",
      "type": "function"
    },
    {
      "inputs": [],
      "name": "vesting",
      "outputs": [
        {
          "internalType": "contract IVesting",
          "name": "",
          "type": "address"
        }
      ],
      "stateMutability": "view",
      "type": "function"
    },
    {
      "inputs": [],
      "name": "vestingTVLReached",
      "outputs": [
        {
          "internalType": "bool",
          "name": "",
          "type": "bool"
        }
      ],
      "stateMutability": "view",
      "type": "function"
    },
    {
      "stateMutability": "payable",
      "type": "receive"
    }
  ],
  "transactionHash": "0x4271dfa95e5a14ab7c90c514c12af5c1b39e876e197f08da254cc4827150a91a",
  "args": [],
  "numDeployments": 1,
  "solcInputHash": "827f854d3112c4283cb45ec7f4c13405",
  "bytecode": "0x60806040523480156200001157600080fd5b506200001c62000022565b620000e4565b600054610100900460ff16156200008f5760405162461bcd60e51b815260206004820152602760248201527f496e697469616c697a61626c653a20636f6e747261637420697320696e697469604482015266616c697a696e6760c81b606482015260840160405180910390fd5b60005460ff9081161015620000e2576000805460ff191660ff9081179091556040519081527f7f26b83ff96e1f2b6a682f133852f6798a09c465da95921460cefb38474024989060200160405180910390a15b565b614f9680620000f46000396000f3fe60806040526004361061021e5760003560e01c806380f68bdc11610123578063c19d93fb116100ab578063e632c2f31161006f578063e632c2f3146105f1578063ec76d21514610607578063efef39a114610626578063fb237eb214610639578063fc0c546a1461065957600080fd5b8063c19d93fb1461056d578063ce1b815f1461058f578063cf09e0d0146105a4578063df60fa40146105ba578063e411d9a9146105cf57600080fd5b80639f05a36d116100f25780639f05a36d146104eb578063b0935dd614610500578063b0e21e8a14610515578063be040fb01461052b578063bf7fec081461054057600080fd5b806380f68bdc1461048057806388611f351461049557806391862f58146104ab5780639d838ad3146104cb57600080fd5b80633c68eb81116101a6578063572b6c0511610175578063572b6c05146103ef578063593557361461040f5780635a9b0b891461042f57806367887a77146104515780636a38f3ca1461046657600080fd5b80633c68eb811461036257806342ee5d841461037757806344c63eec14610397578063556db16a146103cf57600080fd5b80632800cf7e116101ed5780632800cf7e146102ad578063313f944f146102cd5780633253423f146102ed578063370158ea146103175780633b573cd31461034257600080fd5b80630e2d1a2a1461022a57806317d70f7c1461026a578063199cbc5414610280578063205decf41461029657600080fd5b3661022557005b600080fd5b34801561023657600080fd5b5061025761024536600461442c565b607e6020526000908152604090205481565b6040519081526020015b60405180910390f35b34801561027657600080fd5b5061025760665481565b34801561028c57600080fd5b50610257607f5481565b3480156102a257600080fd5b506102ab610679565b005b3480156102b957600080fd5b506102ab6102c83660046144a9565b610a06565b3480156102d957600080fd5b506102ab6102e8366004614597565b610ffb565b3480156102f957600080fd5b506081546103079060ff1681565b6040519015158152602001610261565b34801561032357600080fd5b5061032c61138d565b6040516102619a9998979695949392919061466c565b34801561034e57600080fd5b506102ab61035d366004614597565b611471565b34801561036e57600080fd5b506102ab611c92565b34801561038357600080fd5b5061025761039236600461442c565b6120bc565b3480156103a357600080fd5b506083546103b7906001600160a01b031681565b6040516001600160a01b039091168152602001610261565b3480156103db57600080fd5b506103076103ea366004614597565b612117565b3480156103fb57600080fd5b5061030761040a36600461442c565b61213b565b34801561041b57600080fd5b5061025761042a36600461442c565b612160565b34801561043b57600080fd5b50610444612212565b60405161026191906146d2565b34801561045d57600080fd5b506102576123b0565b34801561047257600080fd5b50607d546103079060ff1681565b34801561048c57600080fd5b506102576123dd565b3480156104a157600080fd5b5061025760825481565b3480156104b757600080fd5b506102576104c636600461442c565b612465565b3480156104d757600080fd5b506102576104e6366004614789565b61267f565b3480156104f757600080fd5b50610257612748565b34801561050c57600080fd5b5061030761275a565b34801561052157600080fd5b5061025760805481565b34801561053757600080fd5b506102ab612772565b34801561054c57600080fd5b5061025761055b36600461442c565b607b6020526000908152604090205481565b34801561057957600080fd5b50610582613202565b60405161026191906147d6565b34801561059b57600080fd5b506103b76133f2565b3480156105b057600080fd5b50610257607a5481565b3480156105c657600080fd5b506103076134c1565b3480156105db57600080fd5b506105e46134ee565b60405161026191906147e9565b3480156105fd57600080fd5b50610257607c5481565b34801561061357600080fd5b50607d5461030790610100900460ff1681565b6102ab610634366004614789565b613553565b34801561064557600080fd5b5061030761065436600461442c565b613860565b34801561066557600080fd5b506065546103b7906001600160a01b031681565b606560009054906101000a90046001600160a01b03166001600160a01b03166316f0115b6040518163ffffffff1660e01b8152600401602060405180830381865afa1580156106cc573d6000803e3d6000fd5b505050506040513d601f19601f820116820180604052508101906106f09190614836565b6001600160a01b0316635c975abb6040518163ffffffff1660e01b8152600401602060405180830381865afa15801561072d573d6000803e3d6000fd5b505050506040513d601f19601f820116820180604052508101906107519190614853565b156040518060400160405280600e81526020016d14d154959250d157d4105554d15160921b815250906107a05760405162461bcd60e51b815260040161079791906148c5565b60405180910390fd5b506065546040805163d598d4c960e01b815290516000926001600160a01b03169163d598d4c99160048083019260209291908290030181865afa1580156107eb573d6000803e3d6000fd5b505050506040513d601f19601f8201168201806040525081019061080f9190614836565b9050806001600160a01b03166391d14854826001600160a01b031663c979e8a76040518163ffffffff1660e01b8152600401602060405180830381865afa15801561085e573d6000803e3d6000fd5b505050506040513d601f19601f8201168201806040525081019061088291906148d8565b61088a61388c565b6040516001600160e01b031960e085901b16815260048101929092526001600160a01b03166024820152604401602060405180830381865afa1580156108d4573d6000803e3d6000fd5b505050506040513d601f19601f820116820180604052508101906108f89190614853565b6040518060400160405280600f81526020016e1393d517d5d2125511531254d51151608a1b8152509061093e5760405162461bcd60e51b815260040161079791906148c5565b5060028061094a613202565b600281111561095b5761095b6147a2565b146040518060400160405280600b81526020016a57524f4e475f535441544560a81b8152509061099e5760405162461bcd60e51b815260040161079791906148c5565b50607d546040805180820190915260128152711313d0d2d55417d5159317d4915050d2115160721b602082015290610100900460ff16156109f25760405162461bcd60e51b815260040161079791906148c5565b5050607d805461ff00191661010017905550565b600054610100900460ff1615808015610a265750600054600160ff909116105b80610a405750303b158015610a40575060005460ff166001145b610aa35760405162461bcd60e51b815260206004820152602e60248201527f496e697469616c697a61626c653a20636f6e747261637420697320616c72656160448201526d191e481a5b9a5d1a585b1a5e995960921b6064820152608401610797565b6000805460ff191660011790558015610ac6576000805461ff0019166101001790555b610ace613896565b60668590556000859003610c6657866001600160a01b0316632a38b4af84886001600160a01b031663355274ea6040518163ffffffff1660e01b8152600401602060405180830381865afa158015610b2a573d6000803e3d6000fd5b505050506040513d601f19601f82011682018060405250810190610b4e91906148d8565b896001600160a01b031663585fe4d56040518163ffffffff1660e01b8152600401602060405180830381865afa158015610b8c573d6000803e3d6000fd5b505050506040513d601f19601f82011682018060405250810190610bb091906148d8565b8a6001600160a01b03166330fa738c6040518163ffffffff1660e01b8152600401602060405180830381865afa158015610bee573d6000803e3d6000fd5b505050506040513d601f19601f82011682018060405250810190610c1291906148f1565b6040518563ffffffff1660e01b8152600401610c319493929190614a3b565b60006040518083038186803b158015610c4957600080fd5b505afa158015610c5d573d6000803e3d6000fd5b50505050610e60565b6066546040516001623549c760e21b0319815260048101919091526001600160a01b0387169063ff2ad8e490602401602060405180830381865afa158015610cb2573d6000803e3d6000fd5b505050506040513d601f19601f82011682018060405250810190610cd691906148d8565b15610da557866001600160a01b0316632a38b4af84886001600160a01b031663ff2ad8e46066546040518263ffffffff1660e01b8152600401610d1b91815260200190565b602060405180830381865afa158015610d38573d6000803e3d6000fd5b505050506040513d601f19601f82011682018060405250810190610d5c91906148d8565b6066546040516356f9f5e360e11b815260048101919091526001600160a01b038b169063adf3ebc690602401602060405180830381865afa158015610b8c573d6000803e3d6000fd5b60405163e81f35fd60e01b8152600481018690526001600160a01b0387169063e81f35fd90602401600060405180830381600087803b158015610de757600080fd5b505af1158015610dfb573d6000803e3d6000fd5b5050604051634312207160e11b81526001600160a01b038916925063862440e29150610e2d9088908890600401614b1b565b600060405180830381600087803b158015610e4757600080fd5b505af1158015610e5b573d6000803e3d6000fd5b505050505b866001600160a01b03166344c63eec6040518163ffffffff1660e01b8152600401602060405180830381865afa158015610e9e573d6000803e3d6000fd5b505050506040513d601f19601f82011682018060405250810190610ec29190614836565b608380546001600160a01b03199081166001600160a01b0393841617909155606580549091169188169190911790556080829055826067610f038282614cd4565b5050607d805461ff001916610140850135156101000217905560005b610f2c60e0850185614b54565b9050811015610fa757600160796000610f4860e0880188614b54565b85818110610f5857610f58614d8e565b9050602002016020810190610f6d919061442c565b6001600160a01b031681526020810191909152604001600020805460ff191691151591909117905580610f9f81614da4565b915050610f1f565b5043607a558015610ff2576000805461ff0019169055604051600181527f7f26b83ff96e1f2b6a682f133852f6798a09c465da95921460cefb38474024989060200160405180910390a15b50505050505050565b6065546040805163d598d4c960e01b815290516000926001600160a01b03169163d598d4c99160048083019260209291908290030181865afa158015611045573d6000803e3d6000fd5b505050506040513d601f19601f820116820180604052508101906110699190614836565b9050806001600160a01b03166391d14854826001600160a01b031663c979e8a76040518163ffffffff1660e01b8152600401602060405180830381865afa1580156110b8573d6000803e3d6000fd5b505050506040513d601f19601f820116820180604052508101906110dc91906148d8565b6110e461388c565b6040516001600160e01b031960e085901b16815260048101929092526001600160a01b03166024820152604401602060405180830381865afa15801561112e573d6000803e3d6000fd5b505050506040513d601f19601f820116820180604052508101906111529190614853565b6040518060400160405280600f81526020016e1393d517d5d2125511531254d51151608a1b815250906111985760405162461bcd60e51b815260040161079791906148c5565b506000806111a4613202565b60028111156111b5576111b56147a2565b146040518060400160405280600b81526020016a57524f4e475f535441544560a81b815250906111f85760405162461bcd60e51b815260040161079791906148c5565b506112016138c7565b606560009054906101000a90046001600160a01b03166001600160a01b03166316f0115b6040518163ffffffff1660e01b8152600401602060405180830381865afa158015611254573d6000803e3d6000fd5b505050506040513d601f19601f820116820180604052508101906112789190614836565b6001600160a01b0316635c975abb6040518163ffffffff1660e01b8152600401602060405180830381865afa1580156112b5573d6000803e3d6000fd5b505050506040513d601f19601f820116820180604052508101906112d99190614853565b156040518060400160405280600e81526020016d14d154959250d157d4105554d15160921b8152509061131f5760405162461bcd60e51b815260040161079791906148c5565b50604051633b573cd360e01b81523090633b573cd3906113459087908790600401614dbd565b600060405180830381600087803b15801561135f57600080fd5b505af1925050508015611370575060015b61137e5761137e8484613920565b61138760018055565b50505050565b60678054606854606954606a54606b54606c546040805161010081018252606d80548252606e54602080840191909152606f54838501526070546060840152607154608084015260725460a084015260735460c0840152607480548551818402810184019096528086529a9b999a98999798969795969394929360e08601939283018282801561144657602002820191906000526020600020905b81546001600160a01b03168152600190910190602001808311611428575b50505091909252505050600f820154601083015460119093015491926001600160a01b03909116918a565b3061147a61388c565b6001600160a01b0316146040518060400160405280600c81526020016b24a72b20a624a22faaa9a2a960a11b815250906114c75760405162461bcd60e51b815260040161079791906148c5565b506114d28282612117565b6040518060400160405280601781526020017f494e56414c49445f50555243484153455f414d4f554e54000000000000000000815250906115265760405162461bcd60e51b815260040161079791906148c5565b5080607c60008282546115399190614dd6565b90915550506001600160a01b0382166000908152607b602052604081208054839290611566908490614dd6565b9091555060009050620f424061157d600182614de9565b606d5461158a9085614bb4565b6115949190614dd6565b61159e9190614dfc565b905060006115ac8284614de9565b11156116ba576115ba61275a565b1561164e576065546066546001600160a01b039091169063156e29f69085906115e38587614de9565b6040516001600160e01b031960e086901b1681526001600160a01b03909316600484015260248301919091526044820152606401600060405180830381600087803b15801561163157600080fd5b505af1158015611645573d6000803e3d6000fd5b505050506116ba565b6065546001600160a01b03166340c10f198461166a8486614de9565b6040518363ffffffff1660e01b8152600401611687929190614dbd565b600060405180830381600087803b1580156116a157600080fd5b505af11580156116b5573d6000803e3d6000fd5b505050505b80156118e7576116c861275a565b156117b0576065546066546040516328a477bf60e01b815260048101919091526001600160a01b039091169063188ada3d90839083906328a477bf90602401602060405180830381865afa158015611724573d6000803e3d6000fd5b505050506040513d601f19601f8201168201806040525081019061174891906148d8565b6117529190614dd6565b6066546040516001600160e01b031960e085901b16815260048101929092526024820152604401600060405180830381600087803b15801561179357600080fd5b505af11580156117a7573d6000803e3d6000fd5b50505050611882565b6065546040805163d554934b60e01b815290516001600160a01b0390921691633946114c918491849163d554934b9160048083019260209291908290030181865afa158015611803573d6000803e3d6000fd5b505050506040513d601f19601f8201168201806040525081019061182791906148d8565b6118319190614dd6565b6040518263ffffffff1660e01b815260040161184f91815260200190565b600060405180830381600087803b15801561186957600080fd5b505af115801561187d573d6000803e3d6000fd5b505050505b6083546040516304f2f8d960e31b81526001600160a01b0390911690632797c6c8906118b49086908590600401614dbd565b600060405180830381600087803b1580156118ce57600080fd5b505af11580156118e2573d6000803e3d6000fd5b505050505b60006118f28361267f565b90508015611ad457806082600082825461190c9190614dd6565b9091555061191a905061275a565b15611a02576065546066546040516369a44d4f60e11b815260048101919091526001600160a01b0390911690631d7a63ae908390839063d3489a9e90602401602060405180830381865afa158015611976573d6000803e3d6000fd5b505050506040513d601f19601f8201168201806040525081019061199a91906148d8565b6119a49190614dd6565b6066546040516001600160e01b031960e085901b16815260048101929092526024820152604401600060405180830381600087803b1580156119e557600080fd5b505af11580156119f9573d6000803e3d6000fd5b50505050611ad4565b60655460408051633f1cdf2160e11b815290516001600160a01b0390921691639cde86f89184918491637e39be429160048083019260209291908290030181865afa158015611a55573d6000803e3d6000fd5b505050506040513d601f19601f82011682018060405250810190611a7991906148d8565b611a839190614dd6565b6040518263ffffffff1660e01b8152600401611aa191815260200190565b600060405180830381600087803b158015611abb57600080fd5b505af1158015611acf573d6000803e3d6000fd5b505050505b7fa512fb2532ca8587f236380171326ebb69670e86a2ba0c4412a3fcca4c3ada9b8484604051611b05929190614dbd565b60405180910390a1606560009054906101000a90046001600160a01b03166001600160a01b031663d598d4c96040518163ffffffff1660e01b8152600401602060405180830381865afa158015611b60573d6000803e3d6000fd5b505050506040513d601f19601f82011682018060405250810190611b849190614836565b6001600160a01b0316637b1039996040518163ffffffff1660e01b8152600401602060405180830381865afa158015611bc1573d6000803e3d6000fd5b505050506040513d601f19601f82011682018060405250810190611be59190614836565b6001600160a01b0316634dbb83fd8530600063efef39a160e01b88604051602401611c1291815260200190565b60408051601f198184030181529181526020820180516001600160e01b03166001600160e01b03199485161790525160e087901b9092168252611c5a94939291600401614e1e565b600060405180830381600087803b158015611c7457600080fd5b505af1158015611c88573d6000803e3d6000fd5b5050505050505050565b600280611c9d613202565b6002811115611cae57611cae6147a2565b146040518060400160405280600b81526020016a57524f4e475f535441544560a81b81525090611cf15760405162461bcd60e51b815260040161079791906148c5565b50606560009054906101000a90046001600160a01b03166001600160a01b03166316f0115b6040518163ffffffff1660e01b8152600401602060405180830381865afa158015611d45573d6000803e3d6000fd5b505050506040513d601f19601f82011682018060405250810190611d699190614836565b6001600160a01b0316635c975abb6040518163ffffffff1660e01b8152600401602060405180830381865afa158015611da6573d6000803e3d6000fd5b505050506040513d601f19601f82011682018060405250810190611dca9190614853565b156040518060400160405280600e81526020016d14d154959250d157d4105554d15160921b81525090611e105760405162461bcd60e51b815260040161079791906148c5565b50607c54156120b957611e216139c9565b607654606554604080516316f0115b60e01b815290516001600160a01b039384169360009316916316f0115b9160048083019260209291908290030181865afa158015611e72573d6000803e3d6000fd5b505050506040513d601f19601f82011682018060405250810190611e969190614836565b60675490915060009015611f4a576001600160a01b038316611ecc575047611ec76001600160a01b03831682613ee9565b611f4a565b6040516370a0823160e01b81523060048201526001600160a01b038416906370a0823190602401602060405180830381865afa158015611f10573d6000803e3d6000fd5b505050506040513d601f19601f82011682018060405250810190611f3491906148d8565b9050611f4a6001600160a01b0384168383614007565b6040518181527fe057af857c4cd43c642d89c71d82bfcef75327272b9cc78e3951f824bd5dd6cb9060200160405180910390a1606560009054906101000a90046001600160a01b03166001600160a01b031663d598d4c96040518163ffffffff1660e01b8152600401602060405180830381865afa158015611fd0573d6000803e3d6000fd5b505050506040513d601f19601f82011682018060405250810190611ff49190614836565b6001600160a01b0316637b1039996040518163ffffffff1660e01b8152600401602060405180830381865afa158015612031573d6000803e3d6000fd5b505050506040513d601f19601f820116820180604052508101906120559190614836565b6001600160a01b0316634dbb83fd61206b61388c565b6040805160048082526024820183526020820180516001600160e01b0316633c68eb8160e01b179052915160e085901b6001600160e01b0319168152611c5a93923092600092909101614e1e565b50565b60006120c782613860565b6120d357506000919050565b6001600160a01b0382166000908152607b6020526040902054606b54612111916120fc91614de9565b607c5460685461210c9190614de9565b61405d565b92915050565b606a5460009082108015906121345750612130836120bc565b8211155b9392505050565b60006121456133f2565b6001600160a01b0316826001600160a01b0316149050919050565b600061216a6134c1565b61220a57608354604051631124ffc760e21b81523060048201526001600160a01b03848116602483015290911690634493ff1c90604401602060405180830381865afa1580156121be573d6000803e3d6000fd5b505050506040513d601f19601f820116820180604052508101906121e291906148d8565b6001600160a01b0383166000908152607b60205260409020546122059190614de9565b612111565b600092915050565b61221a614363565b6067604051806101600160405290816000820154815260200160018201548152602001600282015481526020016003820154815260200160048201548152602001600582015481526020016006820160405180610100016040529081600082015481526020016001820154815260200160028201548152602001600382015481526020016004820154815260200160058201548152602001600682015481526020016007820180548060200260200160405190810160405280929190818152602001828054801561231457602002820191906000526020600020905b81546001600160a01b031681526001909101906020018083116122f6575b5050505050815250508152602001600e820180548060200260200160405190810160405280929190818152602001828054801561237a57602002820191906000526020600020905b81546001600160a01b0316815260019091019060200180831161235c575b5050509183525050600f8201546001600160a01b0316602082015260108201546040820152601190910154606090910152919050565b6000670de0b6b3a7640000606760000154607c546123ce9190614bb4565b6123d89190614dfc565b905090565b60675460835460405163b13e4a9d60e01b8152306004820152600092670de0b6b3a76400009290916001600160a01b039091169063b13e4a9d90602401602060405180830381865afa158015612437573d6000803e3d6000fd5b505050506040513d601f19601f8201168201806040525081019061245b91906148d8565b6123ce9190614bb4565b6001600160a01b0381166000908152607b6020526040812054810361248c57506000919050565b6001612496613202565b60028111156124a7576124a76147a2565b146124b457506000919050565b6124bc61275a565b156125d257608354604051631124ffc760e21b81523060048201526001600160a01b038481166024830152612111921690634493ff1c90604401602060405180830381865afa158015612513573d6000803e3d6000fd5b505050506040513d601f19601f8201168201806040525081019061253791906148d8565b606554606654604051627eeac760e11b81526001600160a01b039092169162fdd58e9161256991889190600401614dbd565b602060405180830381865afa158015612586573d6000803e3d6000fd5b505050506040513d601f19601f820116820180604052508101906125aa91906148d8565b6125b49190614dd6565b6001600160a01b0384166000908152607b602052604090205461405d565b608354604051631124ffc760e21b81523060048201526001600160a01b038481166024830152612111921690634493ff1c90604401602060405180830381865afa158015612624573d6000803e3d6000fd5b505050506040513d601f19601f8201168201806040525081019061264891906148d8565b6065546040516370a0823160e01b81526001600160a01b038681166004830152909116906370a0823190602401612569565b919050565b60006002606560009054906101000a90046001600160a01b03166001600160a01b03166330fa738c6040518163ffffffff1660e01b8152600401602060405180830381865afa1580156126d6573d6000803e3d6000fd5b505050506040513d601f19601f820116820180604052508101906126fa91906148f1565b600281111561270b5761270b6147a2565b0361271857506000919050565b620f4240612727600182614de9565b6080546127349085614bb4565b61273e9190614dd6565b6121119190614dfc565b606c54607a546000916123d891614dd6565b600060665460001461276c5750600190565b50600090565b60018061277d613202565b600281111561278e5761278e6147a2565b146040518060400160405280600b81526020016a57524f4e475f535441544560a81b815250906127d15760405162461bcd60e51b815260040161079791906148c5565b506127da6138c7565b606560009054906101000a90046001600160a01b03166001600160a01b03166316f0115b6040518163ffffffff1660e01b8152600401602060405180830381865afa15801561282d573d6000803e3d6000fd5b505050506040513d601f19601f820116820180604052508101906128519190614836565b6001600160a01b0316635c975abb6040518163ffffffff1660e01b8152600401602060405180830381865afa15801561288e573d6000803e3d6000fd5b505050506040513d601f19601f820116820180604052508101906128b29190614853565b156040518060400160405280600e81526020016d14d154959250d157d4105554d15160921b815250906128f85760405162461bcd60e51b815260040161079791906148c5565b506000607b600061290761388c565b6001600160a01b03166001600160a01b031681526020019081526020016000205411604051806040016040528060158152602001745a45524f5f50555243484153455f414d4f554e547360581b815250906129755760405162461bcd60e51b815260040161079791906148c5565b5060835460009081906001600160a01b031663d01dacd03061299561388c565b6040516001600160e01b031960e085901b1681526001600160a01b03928316600482015291166024820152604401602060405180830381865afa1580156129e0573d6000803e3d6000fd5b505050506040513d601f19601f82011682018060405250810190612a0491906148d8565b90508015612c975780607b6000612a1961388c565b6001600160a01b03166001600160a01b031681526020019081526020016000206000828254612a489190614de9565b90915550612a5890508183614dd6565b6083549092506001600160a01b031663824c1db530612a7561388c565b6040516001600160e01b031960e085901b1681526001600160a01b03928316600482015291166024820152604401600060405180830381600087803b158015612abd57600080fd5b505af1158015612ad1573d6000803e3d6000fd5b50505050612add61275a565b15612bc5576065546066546040516328a477bf60e01b815260048101919091526001600160a01b039091169063188ada3d90839083906328a477bf90602401602060405180830381865afa158015612b39573d6000803e3d6000fd5b505050506040513d601f19601f82011682018060405250810190612b5d91906148d8565b612b679190614de9565b6066546040516001600160e01b031960e085901b16815260048101929092526024820152604401600060405180830381600087803b158015612ba857600080fd5b505af1158015612bbc573d6000803e3d6000fd5b50505050612c97565b6065546040805163d554934b60e01b815290516001600160a01b0390921691633946114c918491849163d554934b9160048083019260209291908290030181865afa158015612c18573d6000803e3d6000fd5b505050506040513d601f19601f82011682018060405250810190612c3c91906148d8565b612c469190614de9565b6040518263ffffffff1660e01b8152600401612c6491815260200190565b600060405180830381600087803b158015612c7e57600080fd5b505af1158015612c92573d6000803e3d6000fd5b505050505b6000612ca161275a565b15612d5c57606554612d55906001600160a01b031662fdd58e612cc261388c565b6066546040518363ffffffff1660e01b8152600401612ce2929190614dbd565b602060405180830381865afa158015612cff573d6000803e3d6000fd5b505050506040513d601f19601f82011682018060405250810190612d2391906148d8565b607b6000612d2f61388c565b6001600160a01b03166001600160a01b031681526020019081526020016000205461405d565b9050612da8565b606554612da5906001600160a01b03166370a08231612d7961388c565b6040516001600160e01b031960e084901b1681526001600160a01b039091166004820152602401612ce2565b90505b8015612ef95780607b6000612dbb61388c565b6001600160a01b03166001600160a01b031681526020019081526020016000206000828254612dea9190614de9565b90915550612dfa90508184614dd6565b9250612e0461275a565b15612e8f576065546001600160a01b031663f5298aca612e2261388c565b6066546040516001600160e01b031960e085901b1681526001600160a01b039092166004830152602482015260448101849052606401600060405180830381600087803b158015612e7257600080fd5b505af1158015612e86573d6000803e3d6000fd5b50505050612ef9565b6065546001600160a01b0316639dc29fac612ea861388c565b836040518363ffffffff1660e01b8152600401612ec6929190614dbd565b600060405180830381600087803b158015612ee057600080fd5b505af1158015612ef4573d6000803e3d6000fd5b505050505b6040805180820190915260118152704e4f5448494e475f544f5f52454445454d60781b602082015283612f3f5760405162461bcd60e51b815260040161079791906148c5565b50606754600090670de0b6b3a764000090612f5a9086614bb4565b612f6c90670de0b6b3a763ffff614dd6565b612f769190614dfc565b6076549091506001600160a01b0316612fa957612fa481612f9561388c565b6001600160a01b031690613ee9565b612fc7565b612fc7612fb461388c565b6076546001600160a01b03169083614007565b6000612fd28561267f565b905080156131b4578060826000828254612fec9190614de9565b90915550612ffa905061275a565b156130e2576065546066546040516369a44d4f60e11b815260048101919091526001600160a01b0390911690631d7a63ae908390839063d3489a9e90602401602060405180830381865afa158015613056573d6000803e3d6000fd5b505050506040513d601f19601f8201168201806040525081019061307a91906148d8565b6130849190614de9565b6066546040516001600160e01b031960e085901b16815260048101929092526024820152604401600060405180830381600087803b1580156130c557600080fd5b505af11580156130d9573d6000803e3d6000fd5b505050506131b4565b60655460408051633f1cdf2160e11b815290516001600160a01b0390921691639cde86f89184918491637e39be429160048083019260209291908290030181865afa158015613135573d6000803e3d6000fd5b505050506040513d601f19601f8201168201806040525081019061315991906148d8565b6131639190614de9565b6040518263ffffffff1660e01b815260040161318191815260200190565b600060405180830381600087803b15801561319b57600080fd5b505af11580156131af573d6000803e3d6000fd5b505050505b7f4896181ff8f4543cc00db9fe9b6fb7e6f032b7eb772c72ab1ec1b4d2e03b93696131dd61388c565b836040516131ec929190614dbd565b60405180910390a150505050506120b960018055565b6000606760010154607c54036132185750600290565b606c54607a546132289190614dd6565b4310156132355750600090565b61323d61275a565b1561330957606554606654604051632d64c81560e11b81526001600160a01b0390921691635ac9902a916132779160040190815260200190565b600060405180830381865afa158015613294573d6000803e3d6000fd5b505050506040513d6000823e601f3d908101601f191682016040526132bc9190810190614e51565b6000815181106132ce576132ce614d8e565b60200260200101516001600160a01b0316306001600160a01b0316141580156132f957506000607c54115b156133045750600290565b6133cb565b606560009054906101000a90046001600160a01b03166001600160a01b0316620a04ae6040518163ffffffff1660e01b8152600401600060405180830381865afa15801561335b573d6000803e3d6000fd5b505050506040513d6000823e601f3d908101601f191682016040526133839190810190614e51565b60008151811061339557613395614d8e565b60200260200101516001600160a01b0316306001600160a01b0316141580156133c057506000607c54115b156133cb5750600290565b606954607c54108015906133e157506000607c54115b156133ec5750600290565b50600190565b6065546040805163d598d4c960e01b815290516000926001600160a01b03169163d598d4c99160048083019260209291908290030181865afa15801561343c573d6000803e3d6000fd5b505050506040513d601f19601f820116820180604052508101906134609190614836565b6001600160a01b031663ce1b815f6040518163ffffffff1660e01b8152600401602060405180830381865afa15801561349d573d6000803e3d6000fd5b505050506040513d601f19601f820116820180604052508101906123d89190614836565b607d54600090610100900460ff1680156123d85750607754607a546134e69190614dd6565b431015905090565b60606067600e0180548060200260200160405190810160405280929190818152602001828054801561354957602002820191906000526020600020905b81546001600160a01b0316815260019091019060200180831161352b575b5050505050905090565b61355e61065461388c565b6040518060400160405280600f81526020016e1393d517d5d2125511531254d51151608a1b815250906135a45760405162461bcd60e51b815260040161079791906148c5565b506000806135b0613202565b60028111156135c1576135c16147a2565b146040518060400160405280600b81526020016a57524f4e475f535441544560a81b815250906136045760405162461bcd60e51b815260040161079791906148c5565b5061360d6138c7565b606560009054906101000a90046001600160a01b03166001600160a01b03166316f0115b6040518163ffffffff1660e01b8152600401602060405180830381865afa158015613660573d6000803e3d6000fd5b505050506040513d601f19601f820116820180604052508101906136849190614836565b6001600160a01b0316635c975abb6040518163ffffffff1660e01b8152600401602060405180830381865afa1580156136c1573d6000803e3d6000fd5b505050506040513d601f19601f820116820180604052508101906136e59190614853565b156040518060400160405280600e81526020016d14d154959250d157d4105554d15160921b8152509061372b5760405162461bcd60e51b815260040161079791906148c5565b506076546067546001600160a01b0390911690600090670de0b6b3a7640000906137559086614bb4565b61376790670de0b6b3a763ffff614dd6565b6137719190614dfc565b90506001600160a01b0382166137d6578034101560405180604001604052806014815260200173125390d3d4949150d517d1551217d41054d4d15160621b815250906137d05760405162461bcd60e51b815260040161079791906148c5565b506137f3565b6137f36137e161388c565b6001600160a01b038416903084614073565b30633b573cd361380161388c565b866040518363ffffffff1660e01b815260040161381f929190614dbd565b600060405180830381600087803b15801561383957600080fd5b505af115801561384d573d6000803e3d6000fd5b50505050505061385c60018055565b5050565b60755460009015806121115750506001600160a01b031660009081526079602052604090205460ff1690565b60006123d86140ab565b600054610100900460ff166138bd5760405162461bcd60e51b815260040161079790614f03565b6138c56140da565b565b6002600154036139195760405162461bcd60e51b815260206004820152601f60248201527f5265656e7472616e637947756172643a207265656e7472616e742063616c6c006044820152606401610797565b6002600155565b606754600090670de0b6b3a76400009061393a9084614bb4565b61394c90670de0b6b3a763ffff614dd6565b6139569190614dfc565b6076549091506001600160a01b031661397a5761397581612f9561388c565b613985565b613985612fb461388c565b7fbb28353e4598c3b9199101a66e0989549b659a59a54d2c27fbb183f1932c8e6d83836040516139b6929190614dbd565b60405180910390a1505050565b60018055565b60815460ff16156139d657565b60655460408051630c3e9ce360e21b815290516002926001600160a01b0316916330fa738c9160048083019260209291908290030181865afa158015613a20573d6000803e3d6000fd5b505050506040513d601f19601f82011682018060405250810190613a4491906148f1565b6002811115613a5557613a556147a2565b03613a5c57565b6081805460ff191660011790556082548015613e9f576000608255613a7f61275a565b15613ca6576065546040805163d598d4c960e01b815290516001600160a01b039092169163156e29f691839163d598d4c9916004808201926020929091908290030181865afa158015613ad6573d6000803e3d6000fd5b505050506040513d601f19601f82011682018060405250810190613afa9190614836565b6001600160a01b031663803db96d6040518163ffffffff1660e01b8152600401602060405180830381865afa158015613b37573d6000803e3d6000fd5b505050506040513d601f19601f82011682018060405250810190613b5b9190614836565b6066546040516001600160e01b031960e085901b1681526001600160a01b039092166004830152602482015260448101849052606401600060405180830381600087803b158015613bab57600080fd5b505af1158015613bbf573d6000803e3d6000fd5b50506065546066546040516369a44d4f60e11b815260048101919091526001600160a01b039091169250631d7a63ae91508390839063d3489a9e90602401602060405180830381865afa158015613c1a573d6000803e3d6000fd5b505050506040513d601f19601f82011682018060405250810190613c3e91906148d8565b613c489190614de9565b6066546040516001600160e01b031960e085901b16815260048101929092526024820152604401600060405180830381600087803b158015613c8957600080fd5b505af1158015613c9d573d6000803e3d6000fd5b50505050613e9f565b6065546040805163d598d4c960e01b815290516001600160a01b03909216916340c10f1991839163d598d4c9916004808201926020929091908290030181865afa158015613cf8573d6000803e3d6000fd5b505050506040513d601f19601f82011682018060405250810190613d1c9190614836565b6001600160a01b031663803db96d6040518163ffffffff1660e01b8152600401602060405180830381865afa158015613d59573d6000803e3d6000fd5b505050506040513d601f19601f82011682018060405250810190613d7d9190614836565b836040518363ffffffff1660e01b8152600401613d9b929190614dbd565b600060405180830381600087803b158015613db557600080fd5b505af1158015613dc9573d6000803e3d6000fd5b505060655460408051633f1cdf2160e11b815290516001600160a01b039092169350639cde86f8925084918491637e39be429160048083019260209291908290030181865afa158015613e20573d6000803e3d6000fd5b505050506040513d601f19601f82011682018060405250810190613e4491906148d8565b613e4e9190614de9565b6040518263ffffffff1660e01b8152600401613e6c91815260200190565b600060405180830381600087803b158015613e8657600080fd5b505af1158015613e9a573d6000803e3d6000fd5b505050505b6065546040517f261ee2056de47cac1d419457dbe29f4c1990ecb02a836ab87921fc97df8544f491613ede916001600160a01b03909116908490614dbd565b60405180910390a150565b80471015613f395760405162461bcd60e51b815260206004820152601d60248201527f416464726573733a20696e73756666696369656e742062616c616e63650000006044820152606401610797565b6000826001600160a01b03168260405160006040518083038185875af1925050503d8060008114613f86576040519150601f19603f3d011682016040523d82523d6000602084013e613f8b565b606091505b50509050806140025760405162461bcd60e51b815260206004820152603a60248201527f416464726573733a20756e61626c6520746f2073656e642076616c75652c207260448201527f6563697069656e74206d617920686176652072657665727465640000000000006064820152608401610797565b505050565b6140028363a9059cbb60e01b8484604051602401614026929190614dbd565b60408051601f198184030181529190526020810180516001600160e01b03166001600160e01b031990931692909217909152614101565b600081831061406c5781612134565b5090919050565b6040516001600160a01b03808516602483015283166044820152606481018290526113879085906323b872dd60e01b90608401614026565b60006140b63361213b565b80156140c3575060143610155b156140d5575060131936013560601c90565b503390565b600054610100900460ff166139c35760405162461bcd60e51b815260040161079790614f03565b6000614156826040518060400160405280602081526020017f5361666545524332303a206c6f772d6c6576656c2063616c6c206661696c6564815250856001600160a01b03166141d39092919063ffffffff16565b80519091501561400257808060200190518101906141749190614853565b6140025760405162461bcd60e51b815260206004820152602a60248201527f5361666545524332303a204552433230206f7065726174696f6e20646964206e6044820152691bdd081cdd58d8d9595960b21b6064820152608401610797565b60606141e284846000856141ea565b949350505050565b60608247101561424b5760405162461bcd60e51b815260206004820152602660248201527f416464726573733a20696e73756666696369656e742062616c616e636520666f6044820152651c8818d85b1b60d21b6064820152608401610797565b600080866001600160a01b031685876040516142679190614f4e565b60006040518083038185875af1925050503d80600081146142a4576040519150601f19603f3d011682016040523d82523d6000602084013e6142a9565b606091505b50915091506142ba878383876142c5565b979650505050505050565b6060831561433457825160000361432d576001600160a01b0385163b61432d5760405162461bcd60e51b815260206004820152601d60248201527f416464726573733a2063616c6c20746f206e6f6e2d636f6e74726163740000006044820152606401610797565b50816141e2565b6141e283838151156143495781518083602001fd5b8060405162461bcd60e51b815260040161079791906148c5565b6040518061016001604052806000815260200160008152602001600081526020016000815260200160008152602001600081526020016143e160405180610100016040528060008152602001600081526020016000815260200160008152602001600081526020016000815260200160008152602001606081525090565b81526020016060815260200160006001600160a01b0316815260200160008152602001600081525090565b6001600160a01b03811681146120b957600080fd5b803561267a8161440c565b60006020828403121561443e57600080fd5b81356121348161440c565b634e487b7160e01b600052604160045260246000fd5b604051601f8201601f1916810167ffffffffffffffff8111828210171561448857614488614449565b604052919050565b600061016082840312156144a357600080fd5b50919050565b60008060008060008060c087890312156144c257600080fd5b86356144cd8161440c565b95506020878101356144de8161440c565b955060408801359450606088013567ffffffffffffffff8082111561450257600080fd5b818a0191508a601f83011261451657600080fd5b81358181111561452857614528614449565b61453a601f8201601f1916850161445f565b8181528c8583860101111561454e57600080fd5b81858501868301376000918101909401529194506080890135918083111561457557600080fd5b505061458389828a01614490565b92505060a087013590509295509295509295565b600080604083850312156145aa57600080fd5b82356145b58161440c565b946020939093013593505050565b600081518084526020808501945080840160005b838110156145fc5781516001600160a01b0316875295820195908201906001016145d7565b509495945050505050565b6000610100825184526020830151602085015260408301516040850152606083015160608501526080830151608085015260a083015160a085015260c083015160c085015260e08301518160e0860152614663828601826145c3565b95945050505050565b60006101408c83528b60208401528a60408401528960608401528860808401528760a08401528060c08401526146a481840188614607565b6001600160a01b039690961660e0840152505061010081019290925261012090910152979650505050505050565b6020815281516020820152602082015160408201526040820151606082015260608201516080820152608082015160a082015260a082015160c0820152600060c08301516101608060e085015261472d610180850183614607565b915060e0850151610100601f19868503018187015261474c84836145c3565b93508087015191505061012061476c818701836001600160a01b03169052565b860151610140868101919091529095015193019290925250919050565b60006020828403121561479b57600080fd5b5035919050565b634e487b7160e01b600052602160045260246000fd5b600381106120b957634e487b7160e01b600052602160045260246000fd5b602081016147e3836147b8565b91905290565b6020808252825182820181905260009190848201906040850190845b8181101561482a5783516001600160a01b031683529284019291840191600101614805565b50909695505050505050565b60006020828403121561484857600080fd5b81516121348161440c565b60006020828403121561486557600080fd5b8151801515811461213457600080fd5b60005b83811015614890578181015183820152602001614878565b50506000910152565b600081518084526148b1816020860160208601614875565b601f01601f19169290920160200192915050565b6020815260006121346020830184614899565b6000602082840312156148ea57600080fd5b5051919050565b60006020828403121561490357600080fd5b81516003811061213457600080fd5b6000823560fe1983360301811261492857600080fd5b90910192915050565b6000808335601e1984360301811261494857600080fd5b830160208101925035905067ffffffffffffffff81111561496857600080fd5b8060051b360382131561497a57600080fd5b9250929050565b8183526000602080850194508260005b858110156145fc5781356149a48161440c565b6001600160a01b031687529582019590820190600101614991565b6000610100823584526020830135602085015260408301356040850152606083013560608501526080830135608085015260a083013560a085015260c083013560c0850152614a1160e0840184614931565b8260e0870152614a248387018284614981565b9695505050505050565b614a37816147b8565b9052565b6080815284356080820152602085013560a0820152604085013560c0820152606085013560e0820152600061010060808701358184015261012060a088013581850152614a8b60c0890189614912565b6101606101408181880152614aa46101e08801846149bf565b9250614ab360e08c018c614931565b888503607f1901848a0152614ac9858284614981565b94505050614ad8858c01614421565b6001600160a01b0316610180880152928a01356101a087015250908801356101c08501526020840187905260408401869052915061466390506060830184614a2e565b8281526040602082015260006141e26040830184614899565b6000823560fe19833603018112614b4a57600080fd5b9190910192915050565b6000808335601e19843603018112614b6b57600080fd5b83018035915067ffffffffffffffff821115614b8657600080fd5b6020019150600581901b360382131561497a57600080fd5b634e487b7160e01b600052601160045260246000fd5b808202811582820484141761211157612111614b9e565b600081356121118161440c565b67ffffffffffffffff831115614bf057614bf0614449565b68010000000000000000831115614c0957614c09614449565b805483825580841015614c40576000828152602081208581019083015b80821015614c3c57828255600182019150614c26565b5050505b5060008181526020812083915b85811015614c7157614c5e83614bcb565b8282015560209290920191600101614c4d565b505050505050565b813581556020820135600182015560408201356002820155606082013560038201556080820135600482015560a0820135600582015560c08201356006820155614cc660e0830183614b54565b611387818360078601614bd8565b813581556020820135600182015560408201356002820155606082013560038201556080820135600482015560a08201356005820155614d23614d1a60c0840184614b34565b60068301614c79565b614d3060e0830183614b54565b614d3e8183600e8601614bd8565b5050614d74614d506101008401614bcb565b600f830180546001600160a01b0319166001600160a01b0392909216919091179055565b610120820135601082015561014082013560118201555050565b634e487b7160e01b600052603260045260246000fd5b600060018201614db657614db6614b9e565b5060010190565b6001600160a01b03929092168252602082015260400190565b8082018082111561211157612111614b9e565b8181038181111561211157612111614b9e565b600082614e1957634e487b7160e01b600052601260045260246000fd5b500490565b6001600160a01b0385811682528416602082015260408101839052608060608201819052600090614a2490830184614899565b60006020808385031215614e6457600080fd5b825167ffffffffffffffff80821115614e7c57600080fd5b818501915085601f830112614e9057600080fd5b815181811115614ea257614ea2614449565b8060051b9150614eb384830161445f565b8181529183018401918481019088841115614ecd57600080fd5b938501935b83851015614ef75784519250614ee78361440c565b8282529385019390850190614ed2565b98975050505050505050565b6020808252602b908201527f496e697469616c697a61626c653a20636f6e7472616374206973206e6f74206960408201526a6e697469616c697a696e6760a81b606082015260800190565b60008251614b4a81846020870161487556fea26469706673582212208c693c083e3ed88f182ba019c35dcd6803d38307ac6f083506bd064209963e3a64736f6c63430008110033",
  "devdoc": {
    "details": "TGE events differ by the type of tokens being distributed: - Governance Token Generation Event - Preference Token Generation Event When deploying the TGE contract, among other arguments, the callData field contains the token field, which contains the address of the token contract that will interact with the TGE contract. The token type can be determined from the TokenType state variable of the token contract. Differences between these types: - Governance Token Generation Event involves charging a ProtocolTokenFee in the amount set in the Service:protocolTokenFee value (percentages in DENOM notation). This fee is collected through the transferFunds() transaction after the completion of the Governance token distribution event (the funds collected from buyers go to the pool balance, and the protocolTokenFee is minted and sent to the Service:protocolTreasury). - Governance Token Generation Event has a mandatory minPurchase limit equal to the Service:protocolTokenFee (in the smallest indivisible token parts, taking into account Decimals and DENOM). This is done to avoid rounding conflicts or overcharges when calculating the fee for each issued token volume. - In addition to being launched as a result of a proposal execution, a Governance Token Generation Event can be launched by the pool Owner as long as the pool has not acquired DAO status. Preference Token Generation Event can only be launched as a result of a proposal execution. - A successful Governance Token Generation Event (see TGE states later) leads to the pool becoming a DAO if it didn't previously have that status.**TGE events differ by the number of previous launches:** - primary TGE - secondary TGE As long as the sum of the totalSupply and the vesting reserve of the distributed token does not equal the cap, a TGE can be launched to issue some more of these tokens. The first TGE for the distribution of any token is called primary, and all subsequent ones are called secondary. Differences between these types: - A transaction to launch a primary TGE involves the simultaneous deployment of the token contract, while a secondary TGE only works with an existing token contract. - A secondary TGE does not have a softcap parameter, meaning that after at least one minPurchase of tokens, the TGE is considered successful. - When validating the hardcap (i.e., the maximum possible number of tokens available for sale/distribution within the TGE) during the creation of a primary TGE, only a formal check is performed (hardcap must not be less than softcap and not greater than cap). For a secondary TGE, tokens that will be minted during vesting claims are also taken into account. - In case of failure of a primary TGE for any token, that token is not considered to have any application within the protocol. It is no longer possible to conduct a TGE for such a token.",
    "events": {
      "FundsTransferred(uint256)": {
        "details": "Event emitted upon transferring the raised funds to the pool contract address.",
        "params": {
          "amount": "Amount of tokens/ETH transferred"
        }
      },
      "ProtocolTokenFeeClaimed(address,uint256)": {
        "details": "Event emitted after successful claiming of the protocol fee",
        "params": {
          "token": "Address of the token contract",
          "tokenFee": "Amount of tokens transferred as payment for the protocol fee"
        }
      },
      "Purchased(address,uint256)": {
        "details": "Event emitted upon successful purchase (or distribution if the token unit price is 0)",
        "params": {
          "amount": "Number of token units acquired",
          "buyer": "Address of the token recipient (buyer)"
        }
      },
      "Redeemed(address,uint256)": {
        "details": "Event emitted upon redeeming tokens in case of a failed TGE.",
        "params": {
          "account": "Redeemer address",
          "refundValue": "Refund value"
        }
      }
    },
    "kind": "dev",
    "methods": {
      "constructor": {
        "custom:oz-upgrades-unsafe-allow": "constructor",
        "details": "This contract uses OpenZeppelin upgrades and has no need for a constructor function. The constructor is replaced with an initializer function. This method disables the initializer feature of the OpenZeppelin upgrades plugin, preventing the initializer methods from being misused."
      },
      "externalPurchase(address,uint256)": {
        "details": "The function can only be called by an executor, when the contract state is active, the pool is not paused, and ensures no reentrancy.",
        "params": {
          "account": "The address of the account to execute the purchase for.",
          "amount": "The amount of tokens to be purchased."
        }
      },
      "getEnd()": {
        "details": "Returns the block number at which the event ends.",
        "returns": {
          "_0": "uint256 Block number"
        }
      },
      "getInfo()": {
        "details": "The rules for conducting an event are defined in the TGEInfo structure, which is passed within the calldata when calling one of the TGEFactory contract functions responsible for launching the TGE. For more information about the structure, see the \"Interfaces\" section. The variables mentioned below should be understood as attributes of the TGEInfo structure. A TGE can be public or private. To make the event public, simply leave the whitelist empty. The TGE contract can act as an airdrop - a free token distribution. To do this, set the price value to zero. To create a DAO with a finite number of participants, each of whom should receive an equal share of tokens, you can set the whitelist when launching the TGE as a list of the participants' addresses, and set both minPurchase and maxPurchase equal to the expression (hardcap / number of participants). To make the pool obtain DAO status only if the distribution is successful under such conditions for all project participants, you can set the softcap value equal to the hardcap. With these settings, the company will become a DAO only if all the initial participants have an equal voting power.",
        "returns": {
          "_0": "The settings in the form of a TGEInfo structure"
        }
      },
      "getProtocolTokenFee(uint256)": {
        "details": "This method returns the number of tokens that are currently due as protocol fees during the TGE.",
        "returns": {
          "_0": "The number of tokens"
        }
      },
      "getTotalPurchasedValue()": {
        "details": "The given getter shows how much info.unitofaccount was collected within this TGE. To do this, the amount of tokens purchased by all buyers is multiplied by info.price.",
        "returns": {
          "_0": "uint256 Total value"
        }
      },
      "getTotalVestedValue()": {
        "details": "This getter shows the total value of all tokens that are in the vesting. Tokens that were transferred to users wallet addresses upon request for successful TGEs and that were burned as a result of user funds refund for unsuccessful TGEs are not taken into account.",
        "returns": {
          "_0": "uint256 Total value"
        }
      },
      "getTrustedForwarder()": {
        "details": "Returns the address of the trusted forwarder."
      },
      "getUserWhitelist()": {
        "details": "This method returns the full list of addresses allowed to participate in the TGE.",
        "returns": {
          "_0": "address An array of whitelist addresses"
        }
      },
      "initialize(address,address,uint256,string,(uint256,uint256,uint256,uint256,uint256,uint256,(uint256,uint256,uint256,uint256,uint256,uint256,uint256,address[]),address[],address,uint256,uint256),uint256)": {
        "details": "Constructor function, can only be called once. In this method, settings for the TGE event are assigned, such as the contract of the token implemented using TGE, as well as the TGEInfo structure, which includes the parameters of purchase, vesting, and lockup. If no lockup or vesting conditions were set for the TVL value when creating the TGE, then the TVL achievement flag is set to true from the very beginning.",
        "params": {
          "_info": "TGE parameters",
          "_protocolFee": "Protocol fee snapshot",
          "_service": "Service contract",
          "_token": "TGE's token",
          "_tokenId": "ERC1155TGE's tokenId (token series)",
          "_uri": "Metadata URL for the ERC1155 token collection"
        }
      },
      "isERC1155TGE()": {
        "details": "This method indicates whether this event was launched to implement ERC1155 tokens.",
        "returns": {
          "_0": "bool Flag if ERC1155 TGE"
        }
      },
      "isTrustedForwarder(address)": {
        "details": "Indicates whether any particular address is the trusted forwarder."
      },
      "isUserWhitelisted(address)": {
        "details": "Checks if user is whitelisted.",
        "params": {
          "account": "User address"
        },
        "returns": {
          "_0": "'True' if the whitelist is empty (public TGE) or if the address is found in the whitelist, 'False' otherwise."
        }
      },
      "lockedBalanceOf(address)": {
        "details": "Shows the number of TGE tokens blocked in this contract. If the lockup is completed or has not been assigned, the method returns 0 (all tokens on the address balance are available for transfer). If the lockup period is still active, then the difference between the tokens purchased by the user and those in the vesting is shown (both parameters are only for this TGE).",
        "params": {
          "account": "Account address"
        },
        "returns": {
          "_0": "Locked balance"
        }
      },
      "maxPurchaseOf(address)": {
        "details": "Shows the maximum possible number of tokens to be purchased by a specific address, taking into account whether the user is on the white list and 0 what amount of purchases he made within this TGE.",
        "returns": {
          "_0": "Amount of tokens"
        }
      },
      "purchase(uint256)": {
        "details": "Any blockchain address can act as a buyer (TGE contract user) of tokens if the following conditions are met: - active event status (TGE.sol:state method returns the Active code value / \"1\") - the event is public (TGE.sol:info.Whitelist is empty) or the user's address is on the whitelist of addresses admitted to the event - the number of tokens purchased by the address is not less than TGE.sol:minPurchase (a common rule for all participants) and not more than TGE.sol:maxPurchaseOf(address) (calculated individually for each address) The TGEInfo of each such event also contains settings for the order in which token buyers receive their purchases and from when and to what extent they can start managing them. However, in any case, each address that made a purchase is mentioned in the TGE.sol:purchaseOf[] mapping. This record serves as proof of full payment for the purchase and confirmation of the buyer's status, even if as a result of the transaction, not a single token was credited to the buyer's address. After each purchase transaction, TGE.sol:purchase calculates what part of the purchase should be issued and immediately transferred to the buyer's balance, and what part should be left as a reserve (records, not issued tokens) in vesting until the prescribed settings for unlocking these tokens occur."
      },
      "redeem()": {
        "details": "In the contract of an unsuccessful TGE, the redeem() method becomes active, allowing any token buyer to return them to the contract for subsequent burning. As a result of this transaction, the records of the user's purchases within this TGE will be zeroed out (or reduced), and the spent ETH or ERC20 tokens will be returned to their balance. If the buyer has a record of tokens locked under the vesting program for this TGE, they will not be burned, and the record of the vesting payment will simply be deleted. In this case, the transaction will also end with a transfer of the spent funds back to the buyer. The buyer cannot return more tokens than they purchased in this TGE; this contract keeps a record of the user's total purchase amount and reduces it with each call of the redeem token method. This can happen if the purchased tokens were distributed to other wallets, and after the end of the TGE, the buyer requests redemption after each transfer back to the purchase address."
      },
      "redeemableBalanceOf(address)": {
        "details": "Shows the number of TGE tokens available for redeem for `account`",
        "params": {
          "account": "Account address"
        },
        "returns": {
          "_0": "Redeemable balance of the address"
        }
      },
      "setLockupTVLReached()": {
        "details": "Set the flag that the condition for achieving the pool balance of the value specified in the lockup settings is met. The action is irreversible."
      },
      "state()": {
        "details": "A TGE event can be in one of the following states: - Active - Failed - Successful In TGEInfo, the three most important parameters used to determine the event's state are specified: - hardcap - the maximum number of tokens that can be distributed during the event (the value is stored considering the token's Decimals) - softcap - the minimum expected number of tokens that should be distributed during the event (the value is stored considering the token's Decimals) - duration - the duration of the event (the number of blocks since the TGE deployment transaction) A successful outcome of the event and the assignment of the \"Successful\" status to the TGE occurs if: - no fewer than duration blocks have passed since the TGE launch, and no fewer than softcap tokens have been acquired OR - 100% of the hardcap tokens have been acquired at any point during the event If no fewer than duration blocks have passed since the TGE launch and fewer than softcap tokens have been acquired, the event is considered \"Failed\". If fewer than 100% of the hardcap tokens have been acquired, but fewer than duration blocks have passed since the TGE launch, the event is considered \"Active\".",
        "returns": {
          "_0": "State code"
        }
      },
      "transferFunds()": {
        "details": "This method is used to perform the following actions for a successful TGE after its completion: transfer funds collected from buyers in the form of info.unitofaccount tokens or ETH to the address of the pool to which TGE belongs (if info.price is 0, then this action is not performed), as well as for Governance tokens make a minting of the percentage of the amount of all user purchases specified in the Service.sol protocolTokenFee contract and transfer it to the address specified in the Service.sol contract in the protocolTreasury() getter. Can be executed only once. Any address can call the method."
      },
      "transferUnlocked()": {
        "details": "In contrast to vesting, lockup contains a simplified system of conditions (no additional distribution spread over equal time intervals), affects tokens located in the contract address, and does not involve actions related to minting or burning tokens. To configure lockup in TGEInfo, only two settings are specified: \"lockupDuration\" and \"lockupTVL\" (pool balance). The lockup duration is counted from the TGE creation block. Lockup locks the transfer of tokens purchased during the TGE for a period equal to the lockupDuration blocks and does not allow unlocking until the pool balance reaches lockupTVL. The address can use these tokens for Governance activities; they are on the balance and counted as votes. Unlocking by TVL occurs with a transaction similar to vesting. The SERVICE_MANAGER address can send a setLockupTVLReached() transaction to the TGE contract, which irreversibly changes the value of this condition flag to \"true\". Vesting and lockup are completely parallel entities. Tokens can be unlocked under the lockup program but remain in vesting. The lockup of one TGE does not affect the lockup of another TGE.",
        "returns": {
          "_0": "bool Is transfer available"
        }
      },
      "validatePurchase(address,uint256)": {
        "details": "Returns true if the amount is within the permitted purchase range for the account.",
        "params": {
          "account": "The address of the account to validate the purchase for.",
          "amount": "The amount of the purchase to validate."
        },
        "returns": {
          "_0": "A boolean value indicating if the purchase is valid."
        }
      }
    },
    "stateVariables": {
      "DENOM": {
        "details": "The constant Service.sol:DENOM is used to work with percentage values of QuorumThreshold and DecisionThreshold thresholds, as well as for calculating the ProtocolTokenFee. In this version, it is equal to 1,000,000, for clarity stored as 100 * 10 ^ 4. 10^4 corresponds to one percent, and 100 * 10^4 corresponds to one hundred percent. The value of 12.3456% will be written as 123,456, and 78.9% as 789,000. This notation allows specifying ratios with an accuracy of up to four decimal places in percentage notation (six decimal places in decimal notation). When working with the CompanyDAO frontend, the application scripts automatically convert the familiar percentage notation into the required format. When using the contracts independently, this feature of value notation should be taken into account."
      },
      "_isUserWhitelisted": {
        "details": "A TGE can be public or private. To make the event public, simply leave the whitelist empty. The TGE contract can act as an airdrop - a free token distribution. To do this, set the price value to zero. To create a DAO with a finite number of participants, each of whom should receive an equal share of tokens, you can set the whitelist when launching the TGE as a list of the participants' addresses, and set both minPurchase and maxPurchase equal to the expression (hardcap / number of participants). To make the pool obtain DAO status only if the distribution is successful under such conditions for all project participants, you can set the softcap value equal to the hardcap. With these settings, the company will become a DAO only if all the initial participants have an equal voting power."
      },
      "createdAt": {
        "details": "The block on which the TGE contract was deployed and the event begins"
      },
      "info": {
        "details": "Parameters for conducting the TGE, described by the ITGE.sol:TGEInfo interface"
      },
      "isProtocolTokenFeeClaimed": {
        "details": "A flag that irreversibly becomes True after a successful transfer of the protocol fee to the address specified in the Service contract.Used only for Governance Token Generation Event."
      },
      "lockupTVLReached": {
        "details": "A flag that irreversibly becomes True only if the pool for which the TGE is being conducted is able to reach or exceed its TVL value specified in the lockup parameters."
      },
      "protocolFee": {
        "details": "Since the protocol fee can be changed, the actual value at the time of contract deployment is fixed in the contract's memory to avoid dependencies on future states of the Service contract."
      },
      "purchaseOf": {
        "details": "A mapping that stores the amount of token units purchased by each address that plays a key role in the TGE."
      },
      "token": {
        "details": "Mandatory setting for TGE, only one token can be distributed in a single TGE event"
      },
      "tokenId": {
        "details": "For ERC1155, there is an additional restriction that units of only one collection of such tokens can be distributed in a single TGE"
      },
      "totalProtocolFee": {
        "details": "Total number of token units that make up the protocol fee"
      },
      "totalPurchased": {
        "details": "Total amount of tokens purchased during the TGE"
      },
      "totalVested": {
        "details": "Total number of tokens to be distributed within the vesting period"
      },
      "vestedBalanceOf": {
        "details": "The TGE event may continue to affect other components of the protocol even after its completion and status change to \"Successful\" and, less frequently, \"Failed\". Vesting can be set up to distribute tokens over a significant period of time after the end of the TGE. The vesting time calculation begins with the block ending the TGE. The calculation of uniform time intervals is carried out either from the end of the cliff period block or each subsequent interval is counted from the end of the previous block. The Vesting.unlockedBalanceOf method shows how much of the tokens for a particular TGE may be available for a claim by an address if that address has not requested a withdrawal of any amount of tokens. The Vesting.claimableBalanceOf method shows how many tokens in total within a particular TGE an address has already requested and successfully received for withdrawal. Subtracting the second value from the first using the same arguments for method calls will give you the number of tokens currently available for withdrawal by that address. Additionally, one of the conditions for unlocking tokens under the vesting program can be setting a cumulative pool balance of a specified amount. The compliance with this condition starts to be tracked by the backend, and as soon as the pool balance reaches or exceeds the specified amount even for a moment, the backend, on behalf of the wallet with the SERVICE_MANAGER role, sends a transaction to the vesting contract's setClaimTVLReached(address tge) method. Executing this transaction changes the value of the flag in the mapping mapping(address => bool) with a key equal to the TGE address. Raising this flag is irreversible, meaning that a one-time occurrence of the condition guarantees that the token request now depends only on the second part of the conditions related to the passage of time. The calculation of the cliff period and additional distribution intervals is not related to raising this flag, both conditions are independent of each other, not mandatory for simultaneous use in settings, but mandatory for simultaneous compliance if they were used in one set of settings. The vesting of one TGE does not affect the vesting of another TGE."
      },
      "vesting": {
        "details": "The TGE contract works closely with the Vesting contract, with a separate instance being issued for each token generation event, while there is only one Vesting contract. Together, they contain the most comprehensive information about a user's purchases, tokens in reserve but not yet issued, and the conditions for locking and unlocking tokens. Moreover, the TGE contract has a token buyback function under specific conditions (see the \"Redeem\" section for more details). One TGE contract is used for the distribution of only one protocol token (the token contract address is specified when launching the TGE). At any given time, there can be only one active TGE for a single token."
      },
      "vestingTVLReached": {
        "details": "A flag that irreversibly becomes True only if the pool for which the TGE is being conducted is able to reach or exceed its TVL value specified in the vesting parameters."
      }
    },
    "title": "Token Generation Event Contract",
    "version": 1
  },
  "userdoc": {
    "kind": "user",
    "methods": {
      "constructor": {
        "notice": "Contract constructor."
      },
      "externalPurchase(address,uint256)": {
        "notice": "Executes a token purchase for a given account using fiat during the token generation event (TGE)."
      },
      "getInfo()": {
        "notice": "This method returns the immutable settings with which the TGE was launched."
      },
      "isProtocolTokenFeeClaimed()": {
        "notice": "Protocol fee payment"
      },
      "lockupTVLReached()": {
        "notice": "Achievement of the pool's TVL as specified by the lockup settings"
      },
      "protocolFee()": {
        "notice": "Protocol fee at the time of TGE creation"
      },
      "purchase(uint256)": {
        "notice": "This method is used for purchasing pool tokens."
      },
      "redeem()": {
        "notice": "Redeem acquired tokens with a refund of the spent assets."
      },
      "state()": {
        "notice": "A state of a Token Generation Event"
      },
      "token()": {
        "notice": "The address of the ERC20/ERC1155 token being distributed in this TGE"
      },
      "tokenId()": {
        "notice": "The identifier of the ERC1155 token collection"
      },
      "transferUnlocked()": {
        "notice": "The given getter shows whether the transfer method is available for tokens that were distributed using a specific TGE contract. If the lockup period is over or if the lockup was not provided for this TGE, the getter always returns true."
      },
      "validatePurchase(address,uint256)": {
        "notice": "Determine if a purchase is valid for a specific account and amount."
      },
      "vestedBalanceOf(address)": {
        "notice": "A mapping that contains the amount of token units placed in vesting for a specific account"
      },
      "vesting()": {
        "notice": "Vesting contract address"
      },
      "vestingTVLReached()": {
        "notice": "Achievement of the pool's TVL as specified by the vesting settings"
      }
    },
    "notice": "The Token Generation Event (TGE) is the cornerstone of everything related to tokens issued on the CompanyDAO protocol. TGE contracts contain the rules and deadlines for token distribution events and can influence the pool's operational activities even after they have ended. The launch of the TGE event takes place simultaneously with the deployment of the contract, after which the option to purchase tokens becomes immediately available. Tokens purchased by a user can be partially or fully minted to the buyer's address and can also be placed in the vesting reserve either in full or for the remaining portion. Additionally, tokens acquired during the TGE and held in the buyer's balance may have their transfer functionality locked (the user owns, uses them as votes, delegates, but cannot transfer the tokens to another address).",
    "version": 1
  },
  "storageLayout": {
    "storage": [
      {
        "astId": 1184,
        "contract": "contracts/TGE.sol:TGE",
        "label": "_initialized",
        "offset": 0,
        "slot": "0",
        "type": "t_uint8"
      },
      {
        "astId": 1187,
        "contract": "contracts/TGE.sol:TGE",
        "label": "_initializing",
        "offset": 1,
        "slot": "0",
        "type": "t_bool"
      },
      {
        "astId": 1623,
        "contract": "contracts/TGE.sol:TGE",
        "label": "_status",
        "offset": 0,
        "slot": "1",
        "type": "t_uint256"
      },
      {
        "astId": 1681,
        "contract": "contracts/TGE.sol:TGE",
        "label": "__gap",
        "offset": 0,
        "slot": "2",
        "type": "t_array(t_uint256)49_storage"
      },
      {
        "astId": 5634,
        "contract": "contracts/TGE.sol:TGE",
        "label": "__gap",
        "offset": 0,
        "slot": "51",
        "type": "t_array(t_uint256)50_storage"
      },
      {
        "astId": 15591,
        "contract": "contracts/TGE.sol:TGE",
        "label": "token",
        "offset": 0,
        "slot": "101",
        "type": "t_address"
      },
      {
        "astId": 15594,
        "contract": "contracts/TGE.sol:TGE",
        "label": "tokenId",
        "offset": 0,
        "slot": "102",
        "type": "t_uint256"
      },
      {
        "astId": 15598,
        "contract": "contracts/TGE.sol:TGE",
        "label": "info",
        "offset": 0,
        "slot": "103",
        "type": "t_struct(TGEInfo)22466_storage"
      },
      {
        "astId": 15603,
        "contract": "contracts/TGE.sol:TGE",
        "label": "_isUserWhitelisted",
        "offset": 0,
        "slot": "121",
        "type": "t_mapping(t_address,t_bool)"
      },
      {
        "astId": 15606,
        "contract": "contracts/TGE.sol:TGE",
        "label": "createdAt",
        "offset": 0,
        "slot": "122",
        "type": "t_uint256"
      },
      {
        "astId": 15611,
        "contract": "contracts/TGE.sol:TGE",
        "label": "purchaseOf",
        "offset": 0,
        "slot": "123",
        "type": "t_mapping(t_address,t_uint256)"
      },
      {
        "astId": 15614,
        "contract": "contracts/TGE.sol:TGE",
        "label": "totalPurchased",
        "offset": 0,
        "slot": "124",
        "type": "t_uint256"
      },
      {
        "astId": 15617,
        "contract": "contracts/TGE.sol:TGE",
        "label": "vestingTVLReached",
        "offset": 0,
        "slot": "125",
        "type": "t_bool"
      },
      {
        "astId": 15620,
        "contract": "contracts/TGE.sol:TGE",
        "label": "lockupTVLReached",
        "offset": 1,
        "slot": "125",
        "type": "t_bool"
      },
      {
        "astId": 15625,
        "contract": "contracts/TGE.sol:TGE",
        "label": "vestedBalanceOf",
        "offset": 0,
        "slot": "126",
        "type": "t_mapping(t_address,t_uint256)"
      },
      {
        "astId": 15628,
        "contract": "contracts/TGE.sol:TGE",
        "label": "totalVested",
        "offset": 0,
        "slot": "127",
        "type": "t_uint256"
      },
      {
        "astId": 15631,
        "contract": "contracts/TGE.sol:TGE",
        "label": "protocolFee",
        "offset": 0,
        "slot": "128",
        "type": "t_uint256"
      },
      {
        "astId": 15634,
        "contract": "contracts/TGE.sol:TGE",
        "label": "isProtocolTokenFeeClaimed",
        "offset": 0,
        "slot": "129",
        "type": "t_bool"
      },
      {
        "astId": 15637,
        "contract": "contracts/TGE.sol:TGE",
        "label": "totalProtocolFee",
        "offset": 0,
        "slot": "130",
        "type": "t_uint256"
      },
      {
        "astId": 15641,
        "contract": "contracts/TGE.sol:TGE",
        "label": "vesting",
        "offset": 0,
        "slot": "131",
        "type": "t_contract(IVesting)23064"
      }
    ],
    "types": {
      "t_address": {
        "encoding": "inplace",
        "label": "address",
        "numberOfBytes": "20"
      },
      "t_array(t_address)dyn_storage": {
        "base": "t_address",
        "encoding": "dynamic_array",
        "label": "address[]",
        "numberOfBytes": "32"
      },
      "t_array(t_uint256)49_storage": {
        "base": "t_uint256",
        "encoding": "inplace",
        "label": "uint256[49]",
        "numberOfBytes": "1568"
      },
      "t_array(t_uint256)50_storage": {
        "base": "t_uint256",
        "encoding": "inplace",
        "label": "uint256[50]",
        "numberOfBytes": "1600"
      },
      "t_bool": {
        "encoding": "inplace",
        "label": "bool",
        "numberOfBytes": "1"
      },
      "t_contract(IVesting)23064": {
        "encoding": "inplace",
        "label": "contract IVesting",
        "numberOfBytes": "20"
      },
      "t_mapping(t_address,t_bool)": {
        "encoding": "mapping",
        "key": "t_address",
        "label": "mapping(address => bool)",
        "numberOfBytes": "32",
        "value": "t_bool"
      },
      "t_mapping(t_address,t_uint256)": {
        "encoding": "mapping",
        "key": "t_address",
        "label": "mapping(address => uint256)",
        "numberOfBytes": "32",
        "value": "t_uint256"
      },
      "t_struct(TGEInfo)22466_storage": {
        "encoding": "inplace",
        "label": "struct ITGE.TGEInfo",
        "members": [
          {
            "astId": 22443,
            "contract": "contracts/TGE.sol:TGE",
            "label": "price",
            "offset": 0,
            "slot": "0",
            "type": "t_uint256"
          },
          {
            "astId": 22445,
            "contract": "contracts/TGE.sol:TGE",
            "label": "hardcap",
            "offset": 0,
            "slot": "1",
            "type": "t_uint256"
          },
          {
            "astId": 22447,
            "contract": "contracts/TGE.sol:TGE",
            "label": "softcap",
            "offset": 0,
            "slot": "2",
            "type": "t_uint256"
          },
          {
            "astId": 22449,
            "contract": "contracts/TGE.sol:TGE",
            "label": "minPurchase",
            "offset": 0,
            "slot": "3",
            "type": "t_uint256"
          },
          {
            "astId": 22451,
            "contract": "contracts/TGE.sol:TGE",
            "label": "maxPurchase",
            "offset": 0,
            "slot": "4",
            "type": "t_uint256"
          },
          {
            "astId": 22453,
            "contract": "contracts/TGE.sol:TGE",
            "label": "duration",
            "offset": 0,
            "slot": "5",
            "type": "t_uint256"
          },
          {
            "astId": 22456,
            "contract": "contracts/TGE.sol:TGE",
            "label": "vestingParams",
            "offset": 0,
            "slot": "6",
            "type": "t_struct(VestingParams)23011_storage"
          },
          {
            "astId": 22459,
            "contract": "contracts/TGE.sol:TGE",
            "label": "userWhitelist",
            "offset": 0,
            "slot": "14",
            "type": "t_array(t_address)dyn_storage"
          },
          {
            "astId": 22461,
            "contract": "contracts/TGE.sol:TGE",
            "label": "unitOfAccount",
            "offset": 0,
            "slot": "15",
            "type": "t_address"
          },
          {
            "astId": 22463,
            "contract": "contracts/TGE.sol:TGE",
            "label": "lockupDuration",
            "offset": 0,
            "slot": "16",
            "type": "t_uint256"
          },
          {
            "astId": 22465,
            "contract": "contracts/TGE.sol:TGE",
            "label": "lockupTVL",
            "offset": 0,
            "slot": "17",
            "type": "t_uint256"
          }
        ],
        "numberOfBytes": "576"
      },
      "t_struct(VestingParams)23011_storage": {
        "encoding": "inplace",
        "label": "struct IVesting.VestingParams",
        "members": [
          {
            "astId": 22995,
            "contract": "contracts/TGE.sol:TGE",
            "label": "vestedShare",
            "offset": 0,
            "slot": "0",
            "type": "t_uint256"
          },
          {
            "astId": 22997,
            "contract": "contracts/TGE.sol:TGE",
            "label": "cliff",
            "offset": 0,
            "slot": "1",
            "type": "t_uint256"
          },
          {
            "astId": 22999,
            "contract": "contracts/TGE.sol:TGE",
            "label": "cliffShare",
            "offset": 0,
            "slot": "2",
            "type": "t_uint256"
          },
          {
            "astId": 23001,
            "contract": "contracts/TGE.sol:TGE",
            "label": "spans",
            "offset": 0,
            "slot": "3",
            "type": "t_uint256"
          },
          {
            "astId": 23003,
            "contract": "contracts/TGE.sol:TGE",
            "label": "spanDuration",
            "offset": 0,
            "slot": "4",
            "type": "t_uint256"
          },
          {
            "astId": 23005,
            "contract": "contracts/TGE.sol:TGE",
            "label": "spanShare",
            "offset": 0,
            "slot": "5",
            "type": "t_uint256"
          },
          {
            "astId": 23007,
            "contract": "contracts/TGE.sol:TGE",
            "label": "claimTVL",
            "offset": 0,
            "slot": "6",
            "type": "t_uint256"
          },
          {
            "astId": 23010,
            "contract": "contracts/TGE.sol:TGE",
            "label": "resolvers",
            "offset": 0,
            "slot": "7",
            "type": "t_array(t_address)dyn_storage"
          }
        ],
        "numberOfBytes": "256"
      },
      "t_uint256": {
        "encoding": "inplace",
        "label": "uint256",
        "numberOfBytes": "32"
      },
      "t_uint8": {
        "encoding": "inplace",
        "label": "uint8",
        "numberOfBytes": "1"
      }
    }
  }
}