{
  "address": "0xC654D65823607D77435901cA4578EFd1144B3F8D",
  "abi": [
    {
      "inputs": [],
      "stateMutability": "nonpayable",
      "type": "constructor"
    },
    {
      "anonymous": false,
      "inputs": [
        {
          "indexed": true,
          "internalType": "address",
          "name": "account",
          "type": "address"
        },
        {
          "indexed": true,
          "internalType": "address",
          "name": "operator",
          "type": "address"
        },
        {
          "indexed": false,
          "internalType": "bool",
          "name": "approved",
          "type": "bool"
        }
      ],
      "name": "ApprovalForAll",
      "type": "event"
    },
    {
      "anonymous": false,
      "inputs": [
        {
          "indexed": false,
          "internalType": "uint8",
          "name": "version",
          "type": "uint8"
        }
      ],
      "name": "Initialized",
      "type": "event"
    },
    {
      "anonymous": false,
      "inputs": [
        {
          "indexed": true,
          "internalType": "address",
          "name": "operator",
          "type": "address"
        },
        {
          "indexed": true,
          "internalType": "address",
          "name": "from",
          "type": "address"
        },
        {
          "indexed": true,
          "internalType": "address",
          "name": "to",
          "type": "address"
        },
        {
          "indexed": false,
          "internalType": "uint256[]",
          "name": "ids",
          "type": "uint256[]"
        },
        {
          "indexed": false,
          "internalType": "uint256[]",
          "name": "values",
          "type": "uint256[]"
        }
      ],
      "name": "TransferBatch",
      "type": "event"
    },
    {
      "anonymous": false,
      "inputs": [
        {
          "indexed": true,
          "internalType": "address",
          "name": "operator",
          "type": "address"
        },
        {
          "indexed": true,
          "internalType": "address",
          "name": "from",
          "type": "address"
        },
        {
          "indexed": true,
          "internalType": "address",
          "name": "to",
          "type": "address"
        },
        {
          "indexed": false,
          "internalType": "uint256",
          "name": "id",
          "type": "uint256"
        },
        {
          "indexed": false,
          "internalType": "uint256",
          "name": "value",
          "type": "uint256"
        }
      ],
      "name": "TransferSingle",
      "type": "event"
    },
    {
      "anonymous": false,
      "inputs": [
        {
          "indexed": false,
          "internalType": "string",
          "name": "value",
          "type": "string"
        },
        {
          "indexed": true,
          "internalType": "uint256",
          "name": "id",
          "type": "uint256"
        }
      ],
      "name": "URI",
      "type": "event"
    },
    {
      "inputs": [
        {
          "internalType": "address",
          "name": "tge",
          "type": "address"
        },
        {
          "internalType": "uint256",
          "name": "tokenId",
          "type": "uint256"
        }
      ],
      "name": "addTGE",
      "outputs": [],
      "stateMutability": "nonpayable",
      "type": "function"
    },
    {
      "inputs": [
        {
          "internalType": "address",
          "name": "account",
          "type": "address"
        },
        {
          "internalType": "uint256",
          "name": "tokenId",
          "type": "uint256"
        },
        {
          "internalType": "address",
          "name": "tse",
          "type": "address"
        }
      ],
      "name": "addTSE",
      "outputs": [],
      "stateMutability": "nonpayable",
      "type": "function"
    },
    {
      "inputs": [
        {
          "internalType": "address",
          "name": "account",
          "type": "address"
        },
        {
          "internalType": "uint256",
          "name": "id",
          "type": "uint256"
        }
      ],
      "name": "balanceOf",
      "outputs": [
        {
          "internalType": "uint256",
          "name": "",
          "type": "uint256"
        }
      ],
      "stateMutability": "view",
      "type": "function"
    },
    {
      "inputs": [
        {
          "internalType": "address[]",
          "name": "accounts",
          "type": "address[]"
        },
        {
          "internalType": "uint256[]",
          "name": "ids",
          "type": "uint256[]"
        }
      ],
      "name": "balanceOfBatch",
      "outputs": [
        {
          "internalType": "uint256[]",
          "name": "",
          "type": "uint256[]"
        }
      ],
      "stateMutability": "view",
      "type": "function"
    },
    {
      "inputs": [
        {
          "internalType": "address",
          "name": "from",
          "type": "address"
        },
        {
          "internalType": "uint256",
          "name": "tokenId",
          "type": "uint256"
        },
        {
          "internalType": "uint256",
          "name": "amount",
          "type": "uint256"
        }
      ],
      "name": "burn",
      "outputs": [],
      "stateMutability": "nonpayable",
      "type": "function"
    },
    {
      "inputs": [
        {
          "internalType": "uint256",
          "name": "",
          "type": "uint256"
        }
      ],
      "name": "cap",
      "outputs": [
        {
          "internalType": "uint256",
          "name": "",
          "type": "uint256"
        }
      ],
      "stateMutability": "view",
      "type": "function"
    },
    {
      "inputs": [],
      "name": "decimals",
      "outputs": [
        {
          "internalType": "uint8",
          "name": "",
          "type": "uint8"
        }
      ],
      "stateMutability": "pure",
      "type": "function"
    },
    {
      "inputs": [],
      "name": "description",
      "outputs": [
        {
          "internalType": "string",
          "name": "",
          "type": "string"
        }
      ],
      "stateMutability": "view",
      "type": "function"
    },
    {
      "inputs": [
        {
          "internalType": "uint256",
          "name": "id",
          "type": "uint256"
        }
      ],
      "name": "exists",
      "outputs": [
        {
          "internalType": "bool",
          "name": "",
          "type": "bool"
        }
      ],
      "stateMutability": "view",
      "type": "function"
    },
    {
      "inputs": [
        {
          "internalType": "uint256",
          "name": "tokenId",
          "type": "uint256"
        }
      ],
      "name": "getTGEList",
      "outputs": [
        {
          "internalType": "address[]",
          "name": "",
          "type": "address[]"
        }
      ],
      "stateMutability": "view",
      "type": "function"
    },
    {
      "inputs": [
        {
          "internalType": "uint256",
          "name": "tokenId",
          "type": "uint256"
        }
      ],
      "name": "getTgeWithLockedTokensList",
      "outputs": [
        {
          "internalType": "address[]",
          "name": "",
          "type": "address[]"
        }
      ],
      "stateMutability": "view",
      "type": "function"
    },
    {
      "inputs": [
        {
          "internalType": "uint256",
          "name": "tokenId",
          "type": "uint256"
        }
      ],
      "name": "getTotalProtocolFeeReserved",
      "outputs": [
        {
          "internalType": "uint256",
          "name": "",
          "type": "uint256"
        }
      ],
      "stateMutability": "view",
      "type": "function"
    },
    {
      "inputs": [
        {
          "internalType": "uint256",
          "name": "tokenId",
          "type": "uint256"
        }
      ],
      "name": "getTotalTGEVestedTokens",
      "outputs": [
        {
          "internalType": "uint256",
          "name": "",
          "type": "uint256"
        }
      ],
      "stateMutability": "view",
      "type": "function"
    },
    {
      "inputs": [
        {
          "internalType": "uint256",
          "name": "limit",
          "type": "uint256"
        },
        {
          "internalType": "uint256",
          "name": "offset",
          "type": "uint256"
        }
      ],
      "name": "getURIList",
      "outputs": [
        {
          "internalType": "string[]",
          "name": "",
          "type": "string[]"
        }
      ],
      "stateMutability": "view",
      "type": "function"
    },
    {
      "inputs": [
        {
          "internalType": "contract IService",
          "name": "_service",
          "type": "address"
        },
        {
          "internalType": "address",
          "name": "_pool",
          "type": "address"
        },
        {
          "components": [
            {
              "internalType": "enum IToken.TokenType",
              "name": "tokenType",
              "type": "uint8"
            },
            {
              "internalType": "string",
              "name": "name",
              "type": "string"
            },
            {
              "internalType": "string",
              "name": "symbol",
              "type": "string"
            },
            {
              "internalType": "string",
              "name": "description",
              "type": "string"
            },
            {
              "internalType": "uint256",
              "name": "cap",
              "type": "uint256"
            },
            {
              "internalType": "uint8",
              "name": "decimals",
              "type": "uint8"
            }
          ],
          "internalType": "struct IToken.TokenInfo",
          "name": "_info",
          "type": "tuple"
        },
        {
          "internalType": "address",
          "name": "_primaryTGE",
          "type": "address"
        }
      ],
      "name": "initialize",
      "outputs": [],
      "stateMutability": "nonpayable",
      "type": "function"
    },
    {
      "inputs": [
        {
          "internalType": "address",
          "name": "account",
          "type": "address"
        },
        {
          "internalType": "address",
          "name": "operator",
          "type": "address"
        }
      ],
      "name": "isApprovedForAll",
      "outputs": [
        {
          "internalType": "bool",
          "name": "",
          "type": "bool"
        }
      ],
      "stateMutability": "view",
      "type": "function"
    },
    {
      "inputs": [],
      "name": "isERC1155",
      "outputs": [
        {
          "internalType": "bool",
          "name": "",
          "type": "bool"
        }
      ],
      "stateMutability": "pure",
      "type": "function"
    },
    {
      "inputs": [
        {
          "internalType": "uint256",
          "name": "_tokenId",
          "type": "uint256"
        }
      ],
      "name": "isPrimaryTGESuccessful",
      "outputs": [
        {
          "internalType": "bool",
          "name": "",
          "type": "bool"
        }
      ],
      "stateMutability": "view",
      "type": "function"
    },
    {
      "inputs": [
        {
          "internalType": "uint256",
          "name": "tokenId",
          "type": "uint256"
        }
      ],
      "name": "lastTGE",
      "outputs": [
        {
          "internalType": "address",
          "name": "",
          "type": "address"
        }
      ],
      "stateMutability": "view",
      "type": "function"
    },
    {
      "inputs": [],
      "name": "lastTokenId",
      "outputs": [
        {
          "internalType": "uint256",
          "name": "",
          "type": "uint256"
        }
      ],
      "stateMutability": "view",
      "type": "function"
    },
    {
      "inputs": [
        {
          "internalType": "address",
          "name": "to",
          "type": "address"
        },
        {
          "internalType": "uint256",
          "name": "tokenId",
          "type": "uint256"
        },
        {
          "internalType": "uint256",
          "name": "amount",
          "type": "uint256"
        }
      ],
      "name": "mint",
      "outputs": [],
      "stateMutability": "nonpayable",
      "type": "function"
    },
    {
      "inputs": [],
      "name": "name",
      "outputs": [
        {
          "internalType": "string",
          "name": "",
          "type": "string"
        }
      ],
      "stateMutability": "view",
      "type": "function"
    },
    {
      "inputs": [],
      "name": "pool",
      "outputs": [
        {
          "internalType": "address",
          "name": "",
          "type": "address"
        }
      ],
      "stateMutability": "view",
      "type": "function"
    },
    {
      "inputs": [
        {
          "internalType": "address",
          "name": "from",
          "type": "address"
        },
        {
          "internalType": "address",
          "name": "to",
          "type": "address"
        },
        {
          "internalType": "uint256[]",
          "name": "ids",
          "type": "uint256[]"
        },
        {
          "internalType": "uint256[]",
          "name": "amounts",
          "type": "uint256[]"
        },
        {
          "internalType": "bytes",
          "name": "data",
          "type": "bytes"
        }
      ],
      "name": "safeBatchTransferFrom",
      "outputs": [],
      "stateMutability": "nonpayable",
      "type": "function"
    },
    {
      "inputs": [
        {
          "internalType": "address",
          "name": "from",
          "type": "address"
        },
        {
          "internalType": "address",
          "name": "to",
          "type": "address"
        },
        {
          "internalType": "uint256",
          "name": "id",
          "type": "uint256"
        },
        {
          "internalType": "uint256",
          "name": "amount",
          "type": "uint256"
        },
        {
          "internalType": "bytes",
          "name": "data",
          "type": "bytes"
        }
      ],
      "name": "safeTransferFrom",
      "outputs": [],
      "stateMutability": "nonpayable",
      "type": "function"
    },
    {
      "inputs": [],
      "name": "service",
      "outputs": [
        {
          "internalType": "contract IService",
          "name": "",
          "type": "address"
        }
      ],
      "stateMutability": "view",
      "type": "function"
    },
    {
      "inputs": [
        {
          "internalType": "address",
          "name": "operator",
          "type": "address"
        },
        {
          "internalType": "bool",
          "name": "approved",
          "type": "bool"
        }
      ],
      "name": "setApprovalForAll",
      "outputs": [],
      "stateMutability": "nonpayable",
      "type": "function"
    },
    {
      "inputs": [
        {
          "internalType": "uint256",
          "name": "tokenId",
          "type": "uint256"
        }
      ],
      "name": "setLastTokenId",
      "outputs": [],
      "stateMutability": "nonpayable",
      "type": "function"
    },
    {
      "inputs": [
        {
          "internalType": "uint256",
          "name": "amount",
          "type": "uint256"
        },
        {
          "internalType": "uint256",
          "name": "tokenId",
          "type": "uint256"
        }
      ],
      "name": "setProtocolFeeReserved",
      "outputs": [],
      "stateMutability": "nonpayable",
      "type": "function"
    },
    {
      "inputs": [
        {
          "internalType": "uint256",
          "name": "amount",
          "type": "uint256"
        },
        {
          "internalType": "uint256",
          "name": "tokenId",
          "type": "uint256"
        }
      ],
      "name": "setTGEVestedTokens",
      "outputs": [],
      "stateMutability": "nonpayable",
      "type": "function"
    },
    {
      "inputs": [
        {
          "internalType": "uint256",
          "name": "_tokenId",
          "type": "uint256"
        },
        {
          "internalType": "uint256",
          "name": "_cap",
          "type": "uint256"
        }
      ],
      "name": "setTokenIdCap",
      "outputs": [],
      "stateMutability": "nonpayable",
      "type": "function"
    },
    {
      "inputs": [
        {
          "internalType": "uint256",
          "name": "tokenId",
          "type": "uint256"
        },
        {
          "internalType": "string",
          "name": "tokenURI",
          "type": "string"
        }
      ],
      "name": "setURI",
      "outputs": [],
      "stateMutability": "nonpayable",
      "type": "function"
    },
    {
      "inputs": [
        {
          "internalType": "bytes4",
          "name": "interfaceId",
          "type": "bytes4"
        }
      ],
      "name": "supportsInterface",
      "outputs": [
        {
          "internalType": "bool",
          "name": "",
          "type": "bool"
        }
      ],
      "stateMutability": "view",
      "type": "function"
    },
    {
      "inputs": [],
      "name": "symbol",
      "outputs": [
        {
          "internalType": "string",
          "name": "",
          "type": "string"
        }
      ],
      "stateMutability": "view",
      "type": "function"
    },
    {
      "inputs": [
        {
          "internalType": "uint256",
          "name": "",
          "type": "uint256"
        },
        {
          "internalType": "uint256",
          "name": "",
          "type": "uint256"
        }
      ],
      "name": "tgeList",
      "outputs": [
        {
          "internalType": "address",
          "name": "",
          "type": "address"
        }
      ],
      "stateMutability": "view",
      "type": "function"
    },
    {
      "inputs": [],
      "name": "tokenType",
      "outputs": [
        {
          "internalType": "enum IToken.TokenType",
          "name": "",
          "type": "uint8"
        }
      ],
      "stateMutability": "view",
      "type": "function"
    },
    {
      "inputs": [
        {
          "internalType": "uint256",
          "name": "id",
          "type": "uint256"
        }
      ],
      "name": "totalSupply",
      "outputs": [
        {
          "internalType": "uint256",
          "name": "",
          "type": "uint256"
        }
      ],
      "stateMutability": "view",
      "type": "function"
    },
    {
      "inputs": [
        {
          "internalType": "uint256",
          "name": "tokenId",
          "type": "uint256"
        }
      ],
      "name": "totalSupplyWithReserves",
      "outputs": [
        {
          "internalType": "uint256",
          "name": "",
          "type": "uint256"
        }
      ],
      "stateMutability": "view",
      "type": "function"
    },
    {
      "inputs": [
        {
          "internalType": "address",
          "name": "from",
          "type": "address"
        },
        {
          "internalType": "address",
          "name": "to",
          "type": "address"
        },
        {
          "internalType": "uint256",
          "name": "tokenId",
          "type": "uint256"
        },
        {
          "internalType": "uint256",
          "name": "amount",
          "type": "uint256"
        }
      ],
      "name": "transfer",
      "outputs": [],
      "stateMutability": "nonpayable",
      "type": "function"
    },
    {
      "inputs": [
        {
          "internalType": "uint256",
          "name": "",
          "type": "uint256"
        },
        {
          "internalType": "address",
          "name": "",
          "type": "address"
        },
        {
          "internalType": "uint256",
          "name": "",
          "type": "uint256"
        }
      ],
      "name": "tseList",
      "outputs": [
        {
          "internalType": "address",
          "name": "",
          "type": "address"
        }
      ],
      "stateMutability": "view",
      "type": "function"
    },
    {
      "inputs": [
        {
          "internalType": "address",
          "name": "account",
          "type": "address"
        },
        {
          "internalType": "uint256",
          "name": "tokenId",
          "type": "uint256"
        }
      ],
      "name": "unlockedBalanceOf",
      "outputs": [
        {
          "internalType": "uint256",
          "name": "",
          "type": "uint256"
        }
      ],
      "stateMutability": "view",
      "type": "function"
    },
    {
      "inputs": [
        {
          "internalType": "uint256",
          "name": "tokenId",
          "type": "uint256"
        }
      ],
      "name": "uri",
      "outputs": [
        {
          "internalType": "string",
          "name": "",
          "type": "string"
        }
      ],
      "stateMutability": "view",
      "type": "function"
    }
  ],
  "transactionHash": "0x3b4d615efa0c1232c79ea3f6544768f3c47b2d111d95398852eac939711cb3dd",
  "args": [],
  "numDeployments": 2,
  "solcInputHash": "0aa0c24fd05b03798b78d597ed3e22af",
  "bytecode": "0x60806040523480156200001157600080fd5b506200001c62000022565b620000e4565b600054610100900460ff16156200008f5760405162461bcd60e51b815260206004820152602760248201527f496e697469616c697a61626c653a20636f6e747261637420697320696e697469604482015266616c697a696e6760c81b606482015260840160405180910390fd5b60005460ff9081161015620000e2576000805460ff191660ff9081179091556040519081527f7f26b83ff96e1f2b6a682f133852f6798a09c465da95921460cefb38474024989060200160405180910390a15b565b613f1f80620000f46000396000f3fe608060405234801561001057600080fd5b506004361061025d5760003560e01c80635ac9902a11610146578063bd85b039116100c3578063e81f35fd11610087578063e81f35fd14610592578063e985e9c5146105a5578063f242432a146105e1578063f5298aca146105f4578063f84ddf0b14610607578063ff2ad8e41461061057600080fd5b8063bd85b03914610519578063cb4d10fe14610539578063d3489a9e1461054c578063d598d4c91461056c578063da7b5f531461057f57600080fd5b806395d89b411161010a57806395d89b41146104c5578063a22cb465146104cd578063ac5e23c3146104e0578063adf3ebc6146104f3578063bbb859d51461050657600080fd5b80635ac9902a146104715780635b67aec6146104845780637284e41614610497578063862440e21461049f5780638eeaaed9146104b257600080fd5b80631d7a63ae116101df578063313ce567116101a3578063313ce567146103cd578063455dd188146103dc578063468b3b33146103fc5780634a2ef42f1461040f5780634e1273f41461042f5780634f558e791461044f57600080fd5b80631d7a63ae1461035357806328a477bf146103665780632e6907a3146103865780632eb2c2d61461039957806330fa738c146103ac57600080fd5b806314c5238f1161022657806314c5238f146102e8578063156e29f6146102fb57806316f0115b1461030e578063188ada3d146103395780631bd0b6161461034c57600080fd5b8062fdd58e1461026257806301ffc9a7146102885780630411b252146102ab57806306fdde03146102c05780630e89341c146102d5575b600080fd5b610275610270366004613147565b610630565b6040519081526020015b60405180910390f35b61029b610296366004613189565b6106cb565b604051901515815260200161027f565b6102be6102b93660046131a6565b61071b565b005b6102c86107eb565b60405161027f9190613232565b6102c86102e3366004613245565b610879565b61029b6102f6366004613245565b61091b565b6102be61030936600461325e565b6109d9565b60ce54610321906001600160a01b031681565b6040516001600160a01b03909116815260200161027f565b6102be610347366004613293565b610bc0565b600161029b565b6102be610361366004613293565b610d98565b610275610374366004613245565b600090815260d2602052604090205490565b610321610394366004613293565b610ed0565b6102be6103a7366004613426565b610f08565b60ce546103c090600160a01b900460ff1681565b60405161027f91906134e9565b6040516000815260200161027f565b6103ef6103ea366004613245565b610f4d565b60405161027f9190613511565b61027561040a366004613147565b610fb8565b61042261041d366004613293565b6110f7565b60405161027f919061355e565b61044261043d3660046135c0565b61124a565b60405161027f91906136c7565b61029b61045d366004613245565b600090815260976020526040902054151590565b6103ef61047f366004613245565b61136b565b6102be610492366004613293565b6113d5565b6102c86114b9565b6102be6104ad3660046136da565b6114c6565b6102be6104c0366004613147565b6115fb565b6102c861172c565b6102be6104db366004613724565b611739565b6102be6104ee366004613786565b611744565b610275610501366004613245565b611983565b6102be61051436600461389d565b6119c2565b610275610527366004613245565b60009081526097602052604090205490565b610321610547366004613245565b611adb565b61027561055a366004613245565b600090815260d4602052604090205490565b60c954610321906001600160a01b031681565b61032161058d3660046138df565b611b22565b6102be6105a0366004613245565b611b67565b61029b6105b3366004613917565b6001600160a01b03918216600090815260666020908152604080832093909416825291909152205460ff1690565b6102be6105ef366004613945565b611ca1565b6102be61060236600461325e565b611ce6565b61027560cd5481565b61027561061e366004613245565b60cc6020526000908152604090205481565b60006001600160a01b0383166106a05760405162461bcd60e51b815260206004820152602a60248201527f455243313135353a2061646472657373207a65726f206973206e6f742061207660448201526930b634b21037bbb732b960b11b60648201526084015b60405180910390fd5b5060008181526065602090815260408083206001600160a01b03861684529091529020545b92915050565b60006001600160e01b03198216636cdb3d1360e11b14806106fc57506001600160e01b031982166303a24d0760e21b145b806106c557506301ffc9a760e01b6001600160e01b03198316146106c5565b60ce60009054906101000a90046001600160a01b03166001600160a01b0316635c975abb6040518163ffffffff1660e01b8152600401602060405180830381865afa15801561076e573d6000803e3d6000fd5b505050506040513d601f19601f8201168201806040525081019061079291906139ad565b156040518060400160405280600e81526020016d14d154959250d157d4105554d15160921b815250906107d85760405162461bcd60e51b81526004016106979190613232565b506107e5848484846120b3565b50505050565b60cf80546107f8906139ca565b80601f0160208091040260200160405190810160405280929190818152602001828054610824906139ca565b80156108715780601f1061084657610100808354040283529160200191610871565b820191906000526020600020905b81548152906001019060200180831161085457829003601f168201915b505050505081565b600081815260cb60205260409020805460609190610896906139ca565b80601f01602080910402602001604051908101604052809291908181526020018280546108c2906139ca565b801561090f5780601f106108e45761010080835404028352916020019161090f565b820191906000526020600020905b8154815290600101906020018083116108f257829003601f168201915b50505050509050919050565b600060cd5482111561092f57506000919050565b600082815260d16020526040812080546002929061094f5761094f613a04565b600091825260209182902001546040805163c19d93fb60e01b815290516001600160a01b039092169263c19d93fb926004808401938290030181865afa15801561099d573d6000803e3d6000fd5b505050506040513d601f19601f820116820180604052508101906109c19190613a1a565b60028111156109d2576109d26134d3565b1492915050565b60c95460408051637b10399960e01b815290516000926004926001600160a01b0390911691637b1039999180850191602091819003860181865afa158015610a25573d6000803e3d6000fd5b505050506040513d601f19601f82011682018060405250810190610a499190613a37565b604051630db9619f60e31b81523360048201526001600160a01b039190911690636dcb0cf890602401602060405180830381865afa158015610a8f573d6000803e3d6000fd5b505050506040513d601f19601f82011682018060405250810190610ab39190613a54565b6004811115610ac457610ac46134d3565b1490506000336001600160a01b031660c960009054906101000a90046001600160a01b03166001600160a01b03166344c63eec6040518163ffffffff1660e01b8152600401602060405180830381865afa158015610b26573d6000803e3d6000fd5b505050506040513d601f19601f82011682018060405250810190610b4a9190613a37565b6001600160a01b03161490508180610b5f5750805b604051806040016040528060078152602001664e4f545f54474560c81b81525090610b9d5760405162461bcd60e51b81526004016106979190613232565b50610bb98585856040518060200160405280600081525061218d565b5050505050565b60c95460408051637b10399960e01b815290516000926004926001600160a01b0390911691637b1039999180850191602091819003860181865afa158015610c0c573d6000803e3d6000fd5b505050506040513d601f19601f82011682018060405250810190610c309190613a37565b604051630db9619f60e31b81523360048201526001600160a01b039190911690636dcb0cf890602401602060405180830381865afa158015610c76573d6000803e3d6000fd5b505050506040513d601f19601f82011682018060405250810190610c9a9190613a54565b6004811115610cab57610cab6134d3565b1490506000336001600160a01b031660c960009054906101000a90046001600160a01b03166001600160a01b03166344c63eec6040518163ffffffff1660e01b8152600401602060405180830381865afa158015610d0d573d6000803e3d6000fd5b505050506040513d601f19601f82011682018060405250810190610d319190613a37565b6001600160a01b03161490508180610d465750805b604051806040016040528060078152602001664e4f545f54474560c81b81525090610d845760405162461bcd60e51b81526004016106979190613232565b505050600090815260d26020526040902055565b60c95460408051637b10399960e01b815290516004926001600160a01b031691637b103999918185019160209190819003860181865afa158015610de0573d6000803e3d6000fd5b505050506040513d601f19601f82011682018060405250810190610e049190613a37565b604051630db9619f60e31b81523360048201526001600160a01b039190911690636dcb0cf890602401602060405180830381865afa158015610e4a573d6000803e3d6000fd5b505050506040513d601f19601f82011682018060405250810190610e6e9190613a54565b6004811115610e7f57610e7f6134d3565b14604051806040016040528060078152602001664e4f545f54474560c81b81525090610ebe5760405162461bcd60e51b81526004016106979190613232565b50600090815260d46020526040902055565b60d16020528160005260406000208181548110610eec57600080fd5b6000918252602090912001546001600160a01b03169150829050565b6001600160a01b038516331480610f245750610f2485336105b3565b610f405760405162461bcd60e51b815260040161069790613a75565b610bb985858585856122b2565b600081815260d3602090815260409182902080548351818402810184019094528084526060939283018282801561090f57602002820191906000526020600020905b81546001600160a01b03168152600190910190602001808311610f8f5750505050509050919050565b600080610fc58484610630565b600084815260d3602090815260408083208054825181850281018501909352808352949550929390929183018282801561102857602002820191906000526020600020905b81546001600160a01b0316815260019091019060200180831161100a575b505050505090506000805b82518110156110e25782818151811061104e5761104e613a04565b6020908102919091010151604051632c9aab9b60e11b81526001600160a01b03898116600483015290911690635935573690602401602060405180830381865afa1580156110a0573d6000803e3d6000fd5b505050506040513d601f19601f820116820180604052508101906110c49190613ac3565b6110ce9083613af2565b9150806110da81613b05565b915050611033565b506110ed8184613b1e565b9695505050505050565b60606000836001600160401b03811115611113576111136132b5565b60405190808252806020026020018201604052801561114657816020015b60608152602001906001900390816111315790505b50905060005b848110801561115d575060cd548111155b156112425760cb60006111708387613af2565b61117b906001613af2565b81526020019081526020016000208054611194906139ca565b80601f01602080910402602001604051908101604052809291908181526020018280546111c0906139ca565b801561120d5780601f106111e25761010080835404028352916020019161120d565b820191906000526020600020905b8154815290600101906020018083116111f057829003601f168201915b505050505082828151811061122457611224613a04565b6020026020010181905250808061123a90613b05565b91505061114c565b509392505050565b606081518351146112af5760405162461bcd60e51b815260206004820152602960248201527f455243313135353a206163636f756e747320616e6420696473206c656e677468604482015268040dad2e6dac2e8c6d60bb1b6064820152608401610697565b600083516001600160401b038111156112ca576112ca6132b5565b6040519080825280602002602001820160405280156112f3578160200160208202803683370190505b50905060005b84518110156112425761133e85828151811061131757611317613a04565b602002602001015185838151811061133157611331613a04565b6020026020010151610630565b82828151811061135057611350613a04565b602090810291909101015261136481613b05565b90506112f9565b600081815260d1602090815260409182902080548351818402810184019094528084526060939283018282801561090f576020028201919060005260206000209081546001600160a01b03168152600190910190602001808311610f8f5750505050509050919050565b60c960009054906101000a90046001600160a01b03166001600160a01b031663102c5c016040518163ffffffff1660e01b8152600401602060405180830381865afa158015611428573d6000803e3d6000fd5b505050506040513d601f19601f8201168201806040525081019061144c9190613a37565b6001600160a01b0316336001600160a01b0316146040518060400160405280600f81526020016e4e4f545f5447455f464143544f525960881b815250906114a65760405162461bcd60e51b81526004016106979190613232565b50600091825260cc602052604090912055565b60d080546107f8906139ca565b60c95460408051637b10399960e01b815290516004926001600160a01b031691637b103999918185019160209190819003860181865afa15801561150e573d6000803e3d6000fd5b505050506040513d601f19601f820116820180604052508101906115329190613a37565b604051630db9619f60e31b81523360048201526001600160a01b039190911690636dcb0cf890602401602060405180830381865afa158015611578573d6000803e3d6000fd5b505050506040513d601f19601f8201168201806040525081019061159c9190613a54565b60048111156115ad576115ad6134d3565b14604051806040016040528060078152602001664e4f545f54474560c81b815250906115ec5760405162461bcd60e51b81526004016106979190613232565b506115f782826124a0565b5050565b60c960009054906101000a90046001600160a01b03166001600160a01b031663102c5c016040518163ffffffff1660e01b8152600401602060405180830381865afa15801561164e573d6000803e3d6000fd5b505050506040513d601f19601f820116820180604052508101906116729190613a37565b6001600160a01b0316336001600160a01b0316146040518060400160405280600f81526020016e4e4f545f5447455f464143544f525960881b815250906116cc5760405162461bcd60e51b81526004016106979190613232565b50600081815260d1602090815260408083208054600181810183559185528385200180546001600160a01b039097166001600160a01b0319978816811790915594845260d383529083208054918201815583529120018054909216179055565b60ca80546107f8906139ca565b6115f73383836124fd565b600054610100900460ff16158080156117645750600054600160ff909116105b8061177e5750303b15801561177e575060005460ff166001145b6117e15760405162461bcd60e51b815260206004820152602e60248201527f496e697469616c697a61626c653a20636f6e747261637420697320616c72656160448201526d191e481a5b9a5d1a585b1a5e995960921b6064820152608401610697565b6000805460ff191660011790558015611804576000805461ff0019166101001790555b61180c6125dd565b602083015160cf9061181e9082613b77565b50604083015160ca906118319082613b77565b50606083015160d0906118449082613b77565b50600160cd8181557fb41c81a20ee1317ccb9b438d7e5d59d66d5a6ec10e50c28bfec0bae0f14bf52780548084019091557ff9510bb943c9209ab0871567a2d46d96a772bcbda92cf7a34d76c5c26002d8ad0180546001600160a01b0386166001600160a01b031991821681179092559154600090815260d3602090815260408220805495860181558252902090920180549091169091179055825160ce805460ff60a01b1916600160a01b836002811115611902576119026134d3565b021790555060c980546001600160a01b038088166001600160a01b03199283161790925560ce8054928716929091169190911790558015610bb9576000805461ff0019169055604051600181527f7f26b83ff96e1f2b6a682f133852f6798a09c465da95921460cefb38474024989060200160405180910390a15050505050565b600081815260d4602090815260408083205460d283528184205460979093529083205483926119b191613af2565b6119bb9190613af2565b9392505050565b60c960009054906101000a90046001600160a01b03166001600160a01b031663102c5c016040518163ffffffff1660e01b8152600401602060405180830381865afa158015611a15573d6000803e3d6000fd5b505050506040513d601f19601f82011682018060405250810190611a399190613a37565b6001600160a01b0316336001600160a01b0316146040518060400160405280600f81526020016e4e4f545f5447455f464143544f525960881b81525090611a935760405162461bcd60e51b81526004016106979190613232565b50600091825260d5602090815260408084206001600160a01b039586168552825283208054600181018255908452922090910180546001600160a01b03191691909216179055565b600081815260d1602052604081208054611af790600190613b1e565b81548110611b0757611b07613a04565b6000918252602090912001546001600160a01b031692915050565b60d56020528260005260406000206020528160005260406000208181548110611b4a57600080fd5b6000918252602090912001546001600160a01b0316925083915050565b60c95460408051637b10399960e01b815290516004926001600160a01b031691637b103999918185019160209190819003860181865afa158015611baf573d6000803e3d6000fd5b505050506040513d601f19601f82011682018060405250810190611bd39190613a37565b604051630db9619f60e31b81523360048201526001600160a01b039190911690636dcb0cf890602401602060405180830381865afa158015611c19573d6000803e3d6000fd5b505050506040513d601f19601f82011682018060405250810190611c3d9190613a54565b6004811115611c4e57611c4e6134d3565b14604051806040016040528060078152602001664e4f545f54474560c81b81525090611c8d5760405162461bcd60e51b81526004016106979190613232565b5060cd54811115611c9e5760cd8190555b50565b6001600160a01b038516331480611cbd5750611cbd85336105b3565b611cd95760405162461bcd60e51b815260040161069790613a75565b610bb9858585858561264a565b60ce60009054906101000a90046001600160a01b03166001600160a01b0316635c975abb6040518163ffffffff1660e01b8152600401602060405180830381865afa158015611d39573d6000803e3d6000fd5b505050506040513d601f19601f82011682018060405250810190611d5d91906139ad565b156040518060400160405280600e81526020016d14d154959250d157d4105554d15160921b81525090611da35760405162461bcd60e51b81526004016106979190613232565b5060c95460408051637b10399960e01b815290516000926004926001600160a01b0390911691637b1039999180850191602091819003860181865afa158015611df0573d6000803e3d6000fd5b505050506040513d601f19601f82011682018060405250810190611e149190613a37565b604051630db9619f60e31b81523360048201526001600160a01b039190911690636dcb0cf890602401602060405180830381865afa158015611e5a573d6000803e3d6000fd5b505050506040513d601f19601f82011682018060405250810190611e7e9190613a54565b6004811115611e8f57611e8f6134d3565b1490506000336001600160a01b031660c960009054906101000a90046001600160a01b03166001600160a01b03166344c63eec6040518163ffffffff1660e01b8152600401602060405180830381865afa158015611ef1573d6000803e3d6000fd5b505050506040513d601f19601f82011682018060405250810190611f159190613a37565b6001600160a01b03161490508180611f2a5750805b604051806040016040528060078152602001664e4f545f54474560c81b81525090611f685760405162461bcd60e51b81526004016106979190613232565b5060c95460408051637b10399960e01b815290516004926001600160a01b031691637b103999918185019160209190819003860181865afa158015611fb1573d6000803e3d6000fd5b505050506040513d601f19601f82011682018060405250810190611fd59190613a37565b604051630db9619f60e31b81523360048201526001600160a01b039190911690636dcb0cf890602401602060405180830381865afa15801561201b573d6000803e3d6000fd5b505050506040513d601f19601f8201168201806040525081019061203f9190613a54565b6004811115612050576120506134d3565b14806120645750336001600160a01b038616145b6040518060400160405280600c81526020016b24a72b20a624a22faaa9a2a960a11b815250906120a75760405162461bcd60e51b81526004016106979190613232565b50610bb9858585612786565b60ce60009054906101000a90046001600160a01b03166001600160a01b0316635c975abb6040518163ffffffff1660e01b8152600401602060405180830381865afa158015612106573d6000803e3d6000fd5b505050506040513d601f19601f8201168201806040525081019061212a91906139ad565b156040518060400160405280600e81526020016d14d154959250d157d4105554d15160921b815250906121705760405162461bcd60e51b81526004016106979190613232565b506107e5848484846040518060200160405280600081525061264a565b6001600160a01b0384166121ed5760405162461bcd60e51b815260206004820152602160248201527f455243313135353a206d696e7420746f20746865207a65726f206164647265736044820152607360f81b6064820152608401610697565b3360006121f98561291a565b905060006122068561291a565b905061221783600089858589612965565b60008681526065602090815260408083206001600160a01b038b16845290915281208054879290612249908490613af2565b909155505060408051878152602081018790526001600160a01b03808a1692600092918716917fc3d58168c5ae7397731d063d5bbf3d657854427343f4c083240f7aacaa2d0f62910160405180910390a46122a983600089898989612bb9565b50505050505050565b81518351146123145760405162461bcd60e51b815260206004820152602860248201527f455243313135353a2069647320616e6420616d6f756e7473206c656e677468206044820152670dad2e6dac2e8c6d60c31b6064820152608401610697565b6001600160a01b03841661233a5760405162461bcd60e51b815260040161069790613c36565b33612349818787878787612965565b60005b845181101561243257600085828151811061236957612369613a04565b60200260200101519050600085838151811061238757612387613a04565b60209081029190910181015160008481526065835260408082206001600160a01b038e1683529093529190912054909150818110156123d85760405162461bcd60e51b815260040161069790613c7b565b60008381526065602090815260408083206001600160a01b038e8116855292528083208585039055908b16825281208054849290612417908490613af2565b925050819055505050508061242b90613b05565b905061234c565b50846001600160a01b0316866001600160a01b0316826001600160a01b03167f4a39dc06d4c0dbc64b70af90fd698a233a518aa5d07e595d983b8c0526c8f7fb8787604051612482929190613cc5565b60405180910390a4612498818787878787612d14565b505050505050565b600082815260cb602052604090206124b88282613b77565b50817f6bb7ff708619ba0610cba295a58592e0451dee2622938c8755667688daf3529b6124e484610879565b6040516124f19190613232565b60405180910390a25050565b816001600160a01b0316836001600160a01b0316036125705760405162461bcd60e51b815260206004820152602960248201527f455243313135353a2073657474696e6720617070726f76616c20737461747573604482015268103337b91039b2b63360b91b6064820152608401610697565b6001600160a01b03838116600081815260666020908152604080832094871680845294825291829020805460ff191686151590811790915591519182527f17307eab39ab6107e8899845ad3d59bd9653f200f220920489ca2b5937696c31910160405180910390a3505050565b600054610100900460ff166126485760405162461bcd60e51b815260206004820152602b60248201527f496e697469616c697a61626c653a20636f6e7472616374206973206e6f74206960448201526a6e697469616c697a696e6760a81b6064820152608401610697565b565b6001600160a01b0384166126705760405162461bcd60e51b815260040161069790613c36565b33600061267c8561291a565b905060006126898561291a565b9050612699838989858589612965565b60008681526065602090815260408083206001600160a01b038c168452909152902054858110156126dc5760405162461bcd60e51b815260040161069790613c7b565b60008781526065602090815260408083206001600160a01b038d8116855292528083208985039055908a1682528120805488929061271b908490613af2565b909155505060408051888152602081018890526001600160a01b03808b16928c821692918816917fc3d58168c5ae7397731d063d5bbf3d657854427343f4c083240f7aacaa2d0f62910160405180910390a461277b848a8a8a8a8a612bb9565b505050505050505050565b6001600160a01b0383166127e85760405162461bcd60e51b815260206004820152602360248201527f455243313135353a206275726e2066726f6d20746865207a65726f206164647260448201526265737360e81b6064820152608401610697565b3360006127f48461291a565b905060006128018461291a565b905061282183876000858560405180602001604052806000815250612965565b60008581526065602090815260408083206001600160a01b038a168452909152902054848110156128a05760405162461bcd60e51b8152602060048201526024808201527f455243313135353a206275726e20616d6f756e7420657863656564732062616c604482015263616e636560e01b6064820152608401610697565b60008681526065602090815260408083206001600160a01b038b81168086529184528285208a8703905582518b81529384018a90529092908816917fc3d58168c5ae7397731d063d5bbf3d657854427343f4c083240f7aacaa2d0f62910160405180910390a46040805160208101909152600090526122a9565b6040805160018082528183019092526060916000919060208083019080368337019050509050828160008151811061295457612954613a04565b602090810291909101015292915050565b612973868686868686612dcf565b6001600160a01b038516156124985760005b83518110156122a9576129b08482815181106129a3576129a3613a04565b6020026020010151612f48565b6129d3868583815181106129c6576129c6613a04565b6020026020010151610fb8565b8382815181106129e5576129e5613a04565b60200260200101511115604051806040016040528060148152602001734c4f575f554e4c4f434b45445f42414c414e434560601b81525090612a3a5760405162461bcd60e51b81526004016106979190613232565b5060c960009054906101000a90046001600160a01b03166001600160a01b0316637b1039996040518163ffffffff1660e01b8152600401602060405180830381865afa158015612a8e573d6000803e3d6000fd5b505050506040513d601f19601f82011682018060405250810190612ab29190613a37565b6001600160a01b0316634dbb83fd33306000630411b25260e01b8b8b8b8981518110612ae057612ae0613a04565b60200260200101518b8a81518110612afa57612afa613a04565b60209081029190910101516040516001600160a01b0394851660248201529390921660448401526064830152608482015260a40160408051601f198184030181529181526020820180516001600160e01b03166001600160e01b03199485161790525160e087901b9092168252612b7694939291600401613cf3565b600060405180830381600087803b158015612b9057600080fd5b505af1158015612ba4573d6000803e3d6000fd5b5050505080612bb290613b05565b9050612985565b6001600160a01b0384163b156124985760405163f23a6e6160e01b81526001600160a01b0385169063f23a6e6190612bfd9089908990889088908890600401613d26565b6020604051808303816000875af1925050508015612c38575060408051601f3d908101601f19168201909252612c3591810190613d6b565b60015b612ce457612c44613d88565b806308c379a003612c7d5750612c58613da4565b80612c635750612c7f565b8060405162461bcd60e51b81526004016106979190613232565b505b60405162461bcd60e51b815260206004820152603460248201527f455243313135353a207472616e7366657220746f206e6f6e2d455243313135356044820152732932b1b2b4bb32b91034b6b83632b6b2b73a32b960611b6064820152608401610697565b6001600160e01b0319811663f23a6e6160e01b146122a95760405162461bcd60e51b815260040161069790613e2d565b6001600160a01b0384163b156124985760405163bc197c8160e01b81526001600160a01b0385169063bc197c8190612d589089908990889088908890600401613e75565b6020604051808303816000875af1925050508015612d93575060408051601f3d908101601f19168201909252612d9091810190613d6b565b60015b612d9f57612c44613d88565b6001600160e01b0319811663bc197c8160e01b146122a95760405162461bcd60e51b815260040161069790613e2d565b6001600160a01b038516612e565760005b8351811015612e5457828181518110612dfb57612dfb613a04565b602002602001015160976000868481518110612e1957612e19613a04565b602002602001015181526020019081526020016000206000828254612e3e9190613af2565b90915550612e4d905081613b05565b9050612de0565b505b6001600160a01b0384166124985760005b83518110156122a9576000848281518110612e8457612e84613a04565b602002602001015190506000848381518110612ea257612ea2613a04565b6020026020010151905060006097600084815260200190815260200160002054905081811015612f255760405162461bcd60e51b815260206004820152602860248201527f455243313135353a206275726e20616d6f756e74206578636565647320746f74604482015267616c537570706c7960c01b6064820152608401610697565b60009283526097602052604090922091039055612f4181613b05565b9050612e67565b600081815260d36020908152604080832080548251818502810185019093528083529192909190830182828015612fa857602002820191906000526020600020905b81546001600160a01b03168152600190910190602001808311612f8a575b5050505050905060005b815181101561311d57818181518110612fcd57612fcd613a04565b60200260200101516001600160a01b031663df60fa406040518163ffffffff1660e01b8152600401602060405180830381865afa158015613012573d6000803e3d6000fd5b505050506040513d601f19601f8201168201806040525081019061303691906139ad565b1561310b57600083815260d360205260409020805461305790600190613b1e565b8154811061306757613067613a04565b600091825260208083209091015485835260d3909152604090912080546001600160a01b0390921691839081106130a0576130a0613a04565b600091825260208083209190910180546001600160a01b0319166001600160a01b03949094169390931790925584815260d3909152604090208054806130e8576130e8613ed3565b600082815260209020810160001990810180546001600160a01b03191690550190555b8061311581613b05565b915050612fb2565b505050565b6001600160a01b0381168114611c9e57600080fd5b803561314281613122565b919050565b6000806040838503121561315a57600080fd5b823561316581613122565b946020939093013593505050565b6001600160e01b031981168114611c9e57600080fd5b60006020828403121561319b57600080fd5b81356119bb81613173565b600080600080608085870312156131bc57600080fd5b84356131c781613122565b935060208501356131d781613122565b93969395505050506040820135916060013590565b6000815180845260005b81811015613212576020818501810151868301820152016131f6565b506000602082860101526020601f19601f83011685010191505092915050565b6020815260006119bb60208301846131ec565b60006020828403121561325757600080fd5b5035919050565b60008060006060848603121561327357600080fd5b833561327e81613122565b95602085013595506040909401359392505050565b600080604083850312156132a657600080fd5b50508035926020909101359150565b634e487b7160e01b600052604160045260246000fd5b601f8201601f191681016001600160401b03811182821017156132f0576132f06132b5565b6040525050565b60405160c081016001600160401b0381118282101715613319576133196132b5565b60405290565b60006001600160401b03821115613338576133386132b5565b5060051b60200190565b600082601f83011261335357600080fd5b813560206133608261331f565b60405161336d82826132cb565b83815260059390931b850182019282810191508684111561338d57600080fd5b8286015b848110156133a85780358352918301918301613391565b509695505050505050565b600082601f8301126133c457600080fd5b81356001600160401b038111156133dd576133dd6132b5565b6040516133f4601f8301601f1916602001826132cb565b81815284602083860101111561340957600080fd5b816020850160208301376000918101602001919091529392505050565b600080600080600060a0868803121561343e57600080fd5b853561344981613122565b9450602086013561345981613122565b935060408601356001600160401b038082111561347557600080fd5b61348189838a01613342565b9450606088013591508082111561349757600080fd5b6134a389838a01613342565b935060808801359150808211156134b957600080fd5b506134c6888289016133b3565b9150509295509295909350565b634e487b7160e01b600052602160045260246000fd5b602081016003831061350b57634e487b7160e01b600052602160045260246000fd5b91905290565b6020808252825182820181905260009190848201906040850190845b818110156135525783516001600160a01b03168352928401929184019160010161352d565b50909695505050505050565b6000602080830181845280855180835260408601915060408160051b870101925083870160005b828110156135b357603f198886030184526135a18583516131ec565b94509285019290850190600101613585565b5092979650505050505050565b600080604083850312156135d357600080fd5b82356001600160401b03808211156135ea57600080fd5b818501915085601f8301126135fe57600080fd5b8135602061360b8261331f565b60405161361882826132cb565b83815260059390931b850182019282810191508984111561363857600080fd5b948201945b8386101561365f57853561365081613122565b8252948201949082019061363d565b9650508601359250508082111561367557600080fd5b5061368285828601613342565b9150509250929050565b600081518084526020808501945080840160005b838110156136bc578151875295820195908201906001016136a0565b509495945050505050565b6020815260006119bb602083018461368c565b600080604083850312156136ed57600080fd5b8235915060208301356001600160401b0381111561370a57600080fd5b613682858286016133b3565b8015158114611c9e57600080fd5b6000806040838503121561373757600080fd5b823561374281613122565b9150602083013561375281613716565b809150509250929050565b60038110611c9e57600080fd5b80356131428161375d565b803560ff8116811461314257600080fd5b6000806000806080858703121561379c57600080fd5b84356137a781613122565b935060208501356137b781613122565b925060408501356001600160401b03808211156137d357600080fd5b9086019060c082890312156137e757600080fd5b6137ef6132f7565b6137f88361376a565b815260208301358281111561380c57600080fd5b6138188a8286016133b3565b60208301525060408301358281111561383057600080fd5b61383c8a8286016133b3565b60408301525060608301358281111561385457600080fd5b6138608a8286016133b3565b6060830152506080830135608082015261387c60a08401613775565b60a0820152935061389291505060608601613137565b905092959194509250565b6000806000606084860312156138b257600080fd5b83356138bd81613122565b92506020840135915060408401356138d481613122565b809150509250925092565b6000806000606084860312156138f457600080fd5b83359250602084013561390681613122565b929592945050506040919091013590565b6000806040838503121561392a57600080fd5b823561393581613122565b9150602083013561375281613122565b600080600080600060a0868803121561395d57600080fd5b853561396881613122565b9450602086013561397881613122565b9350604086013592506060860135915060808601356001600160401b038111156139a157600080fd5b6134c6888289016133b3565b6000602082840312156139bf57600080fd5b81516119bb81613716565b600181811c908216806139de57607f821691505b6020821081036139fe57634e487b7160e01b600052602260045260246000fd5b50919050565b634e487b7160e01b600052603260045260246000fd5b600060208284031215613a2c57600080fd5b81516119bb8161375d565b600060208284031215613a4957600080fd5b81516119bb81613122565b600060208284031215613a6657600080fd5b8151600581106119bb57600080fd5b6020808252602e908201527f455243313135353a2063616c6c6572206973206e6f7420746f6b656e206f776e60408201526d195c881bdc88185c1c1c9bdd995960921b606082015260800190565b600060208284031215613ad557600080fd5b5051919050565b634e487b7160e01b600052601160045260246000fd5b808201808211156106c5576106c5613adc565b600060018201613b1757613b17613adc565b5060010190565b818103818111156106c5576106c5613adc565b601f82111561311d57600081815260208120601f850160051c81016020861015613b585750805b601f850160051c820191505b8181101561249857828155600101613b64565b81516001600160401b03811115613b9057613b906132b5565b613ba481613b9e84546139ca565b84613b31565b602080601f831160018114613bd95760008415613bc15750858301515b600019600386901b1c1916600185901b178555612498565b600085815260208120601f198616915b82811015613c0857888601518255948401946001909101908401613be9565b5085821015613c265787850151600019600388901b60f8161c191681555b5050505050600190811b01905550565b60208082526025908201527f455243313135353a207472616e7366657220746f20746865207a65726f206164604082015264647265737360d81b606082015260800190565b6020808252602a908201527f455243313135353a20696e73756666696369656e742062616c616e636520666f60408201526939103a3930b739b332b960b11b606082015260800190565b604081526000613cd8604083018561368c565b8281036020840152613cea818561368c565b95945050505050565b6001600160a01b03858116825284166020820152604081018390526080606082018190526000906110ed908301846131ec565b6001600160a01b03868116825285166020820152604081018490526060810183905260a060808201819052600090613d60908301846131ec565b979650505050505050565b600060208284031215613d7d57600080fd5b81516119bb81613173565b600060033d1115613da15760046000803e5060005160e01c5b90565b600060443d1015613db25790565b6040516003193d81016004833e81513d6001600160401b038160248401118184111715613de157505050505090565b8285019150815181811115613df95750505050505090565b843d8701016020828501011115613e135750505050505090565b613e22602082860101876132cb565b509095945050505050565b60208082526028908201527f455243313135353a204552433131353552656365697665722072656a656374656040820152676420746f6b656e7360c01b606082015260800190565b6001600160a01b0386811682528516602082015260a060408201819052600090613ea19083018661368c565b8281036060840152613eb3818661368c565b90508281036080840152613ec781856131ec565b98975050505050505050565b634e487b7160e01b600052603160045260246000fdfea26469706673582212201b70afbd97531c9cc33c0e244f46b64c06c7735aeac00d3b0b90c6838324e91664736f6c63430008110033",
  "devdoc": {
    "details": "An expanded ERC20 contract, based on which tokens of various types are issued. At the moment, the protocol provides for 2 types of tokens: Governance, which must be created simultaneously with the pool, existing for the pool only in the singular and participating in voting, and Preference, which may be several for one pool and which do not participate in voting in any way.",
    "kind": "dev",
    "methods": {
      "addTGE(address,uint256)": {
        "details": "This method adds the TGE contract address to the TGEList of the specified token collection.",
        "params": {
          "tge": "The TGE address.",
          "tokenId": "The token collection of the ERC1155 contract."
        }
      },
      "balanceOf(address,uint256)": {
        "details": "See {IERC1155-balanceOf}. Requirements: - `account` cannot be the zero address."
      },
      "balanceOfBatch(address[],uint256[])": {
        "details": "See {IERC1155-balanceOfBatch}. Requirements: - `accounts` and `ids` must have the same length."
      },
      "burn(address,uint256,uint256)": {
        "details": "Method for burning tokens. It can be called by both token owners and TGE contracts to burn the returned tokens during redeeming.",
        "params": {
          "amount": "The amount of tokens being burned.",
          "from": "The account address.",
          "tokenId": "The token collection of the ERC1155 contract."
        }
      },
      "constructor": {
        "custom:oz-upgrades-unsafe-allow": "constructor",
        "details": "This contract uses OpenZeppelin upgrades and has no need for a constructor function. The constructor is replaced with an initializer function. This method disables the initializer feature of the OpenZeppelin upgrades plugin, preventing the initializer methods from being misused."
      },
      "decimals()": {
        "details": "This method is needed for compatibility with other protocol contracts to optimize algorithms. It always returns 0.",
        "returns": {
          "_0": "uint8 Decimals (always 0)"
        }
      },
      "exists(uint256)": {
        "details": "Indicates whether any token exist with a given id, or not."
      },
      "getTGEList(uint256)": {
        "details": "This method returns the list of addresses of all TGE contracts that have ever been deployed for the specified token collection.",
        "params": {
          "tokenId": "The token collection of the ERC1155 contract."
        },
        "returns": {
          "_0": "array An array of contract addresses."
        }
      },
      "getTgeWithLockedTokensList(uint256)": {
        "details": "This method returns the list of addresses of all TGE contracts that have ever been deployed for the specified token collection and have active transfer restrictions.",
        "params": {
          "tokenId": "The token collection of the ERC1155 contract."
        },
        "returns": {
          "_0": "array An array of contract addresses."
        }
      },
      "getTotalProtocolFeeReserved(uint256)": {
        "details": "This method calculates the total supply for the token, taking into account the reserved but not yet minted token units (for vesting and protocol fee).",
        "params": {
          "tokenId": "The token collection of the ERC1155 contract."
        },
        "returns": {
          "_0": "uint256 The total supply with reserves."
        }
      },
      "getTotalTGEVestedTokens(uint256)": {
        "details": "This method returns the accumulated value stored in the contract's memory, which represents the number of token units from the specified collection that are vested at the time of the request.",
        "params": {
          "tokenId": "The token collection of the ERC1155 contract."
        },
        "returns": {
          "_0": "uint256 The total number of vested tokens."
        }
      },
      "initialize(address,address,(uint8,string,string,string,uint256,uint8),address)": {
        "details": "Token creation, can only be started once. At the same time, the TGE contract, which sells the created token, is necessarily simultaneously deployed and receives an entry in the Registry. For Preference tokens, you can set an arbitrary value of the Name field.",
        "params": {
          "_info": "The parameters of the token, including its type, in the form of a structure described in the TokenInfo method.",
          "_pool": "The address of the pool contract.",
          "_primaryTGE": "The address of the primary TGE for this token.",
          "_service": "The address of the Service contract."
        }
      },
      "isApprovedForAll(address,address)": {
        "details": "See {IERC1155-isApprovedForAll}."
      },
      "isPrimaryTGESuccessful(uint256)": {
        "details": "This method indicates whether a successful TGE has been conducted for the given token collection. It is sufficient to check the first event from the list of all TGEs.",
        "params": {
          "_tokenId": "The token collection of the ERC1155 contract."
        },
        "returns": {
          "_0": "bool Whether any TGE is successful."
        }
      },
      "lastTGE(uint256)": {
        "details": "This method returns the address of the latest TGE contract for the given token collection. Sorting is based on the block of the TGE start, not the end block (i.e., even if an earlier TGE contract is still active while the latest one by creation time has already ended, this method will return the address of the latest contract).",
        "params": {
          "tokenId": "The token collection of the ERC1155 contract."
        },
        "returns": {
          "_0": "address The TGE contract address."
        }
      },
      "mint(address,uint256,uint256)": {
        "details": "Minting of new tokens. Only the TGE or Vesting contract can mint tokens, there is no other way to get an additional issue. If the user who is being minted does not have tokens, they are sent to delegation on his behalf.",
        "params": {
          "amount": "The amount of tokens being minted.",
          "to": "The address of the account for which new token units are being minted.",
          "tokenId": "The token collection of the ERC1155 contract."
        }
      },
      "safeBatchTransferFrom(address,address,uint256[],uint256[],bytes)": {
        "details": "See {IERC1155-safeBatchTransferFrom}."
      },
      "safeTransferFrom(address,address,uint256,uint256,bytes)": {
        "details": "See {IERC1155-safeTransferFrom}."
      },
      "setApprovalForAll(address,bool)": {
        "details": "See {IERC1155-setApprovalForAll}."
      },
      "setProtocolFeeReserved(uint256,uint256)": {
        "details": "This method modifies the number of token units that should be used as protocol fees.",
        "params": {
          "amount": "The amount of tokens.",
          "tokenId": "The token collection of the ERC1155 contract."
        }
      },
      "setTGEVestedTokens(uint256,uint256)": {
        "details": "This method modifies the number of token units that are vested and reserved for claiming by users.",
        "params": {
          "amount": "The amount of tokens.",
          "tokenId": "The token collection of the ERC1155 contract."
        }
      },
      "setTokenIdCap(uint256,uint256)": {
        "details": "This method irreversibly sets the emission cap for each of the created token collections.",
        "params": {
          "_cap": "The maximum emission cap in token units.",
          "_tokenId": "The token collection of the ERC1155 contract."
        }
      },
      "setURI(uint256,string)": {
        "details": "This method sets the metadata URI for each of the token collections.",
        "params": {
          "tokenId": "The token collection of the ERC1155 contract.",
          "tokenURI": "The metadata URI."
        }
      },
      "supportsInterface(bytes4)": {
        "details": "See {IERC165-supportsInterface}."
      },
      "totalSupply(uint256)": {
        "details": "Total amount of tokens in with a given id."
      },
      "totalSupplyWithReserves(uint256)": {
        "details": "This method calculates the total supply for an ERC1155 token collection, taking into account the reserved but not yet minted token units (for vesting and protocol fee).",
        "params": {
          "tokenId": "The token collection of the ERC1155 contract."
        },
        "returns": {
          "_0": "uint256 The total supply of the token collection with reserves."
        }
      },
      "unlockedBalanceOf(address,uint256)": {
        "details": "The given getter returns the total balance of the address that is not locked for transfer, taking into account all the TGEs with which this token collection was distributed.It calculates the difference between the actual balance of the account and its locked portion. The calculation is performed for the specified token collection.",
        "params": {
          "account": "The account address.",
          "tokenId": "The token collection of the ERC1155 contract."
        },
        "returns": {
          "_0": "uint256 The unlocked balance of the account."
        }
      },
      "uri(uint256)": {
        "details": "This getter allows retrieving the stored metadata URI for the specified ERC1155 token collection in the contract.",
        "params": {
          "tokenId": "The token collection of the ERC1155 contract."
        },
        "returns": {
          "_0": "uint256 The metadata URI for the collection."
        }
      }
    },
    "stateVariables": {
      "_tokenURIs": {
        "details": "Mapping storing the URI metadata for each collection of the token"
      },
      "cap": {
        "details": "Mapping storing the maximum caps for each collection of ERC1155 token"
      },
      "description": {
        "details": "Preference token description, allows up to 5000 characters, for others - \"\""
      },
      "lastTokenId": {
        "details": "The identifier (sequential number) of the token collection that was created last"
      },
      "name": {
        "details": "Preference token name"
      },
      "pool": {
        "details": "The address of the pool contract that owns the token"
      },
      "service": {
        "details": "The address of the Service contract"
      },
      "symbol": {
        "details": "The token symbol or ticker for listing"
      },
      "tgeList": {
        "details": "A list of TGE contract addresses that have been launched to distribute collections of this token. The collection ID serves as the key for this mapping."
      },
      "tgeWithLockedTokensList": {
        "details": "Mapping storing lists of TGEs with active token lockups for each collection of this token"
      },
      "tokenType": {
        "details": "In the current version, ERC1155 tokens can only have the code \"2\", which corresponds to the Preference token type."
      },
      "totalProtocolFeeReserved": {
        "details": "Mapping storing the amounts of tokens reserved as protocol fees for each collection of this token"
      },
      "totalVested": {
        "details": "Mapping storing the amounts of tokens in vesting for each collection of this token"
      }
    },
    "title": "Company (Pool) Token",
    "version": 1
  },
  "userdoc": {
    "kind": "user",
    "methods": {
      "constructor": {
        "notice": "Contract constructor."
      },
      "tgeList(uint256,uint256)": {
        "notice": "All TGEs associated with this token"
      },
      "tokenType()": {
        "notice": "The digital code of the token type"
      }
    },
    "version": 1
  },
  "storageLayout": {
    "storage": [
      {
        "astId": 1184,
        "contract": "contracts/TokenERC1155.sol:TokenERC1155",
        "label": "_initialized",
        "offset": 0,
        "slot": "0",
        "type": "t_uint8"
      },
      {
        "astId": 1187,
        "contract": "contracts/TokenERC1155.sol:TokenERC1155",
        "label": "_initializing",
        "offset": 1,
        "slot": "0",
        "type": "t_bool"
      },
      {
        "astId": 5634,
        "contract": "contracts/TokenERC1155.sol:TokenERC1155",
        "label": "__gap",
        "offset": 0,
        "slot": "1",
        "type": "t_array(t_uint256)50_storage"
      },
      {
        "astId": 6579,
        "contract": "contracts/TokenERC1155.sol:TokenERC1155",
        "label": "__gap",
        "offset": 0,
        "slot": "51",
        "type": "t_array(t_uint256)50_storage"
      },
      {
        "astId": 1711,
        "contract": "contracts/TokenERC1155.sol:TokenERC1155",
        "label": "_balances",
        "offset": 0,
        "slot": "101",
        "type": "t_mapping(t_uint256,t_mapping(t_address,t_uint256))"
      },
      {
        "astId": 1717,
        "contract": "contracts/TokenERC1155.sol:TokenERC1155",
        "label": "_operatorApprovals",
        "offset": 0,
        "slot": "102",
        "type": "t_mapping(t_address,t_mapping(t_address,t_bool))"
      },
      {
        "astId": 1719,
        "contract": "contracts/TokenERC1155.sol:TokenERC1155",
        "label": "_uri",
        "offset": 0,
        "slot": "103",
        "type": "t_string_storage"
      },
      {
        "astId": 2926,
        "contract": "contracts/TokenERC1155.sol:TokenERC1155",
        "label": "__gap",
        "offset": 0,
        "slot": "104",
        "type": "t_array(t_uint256)47_storage"
      },
      {
        "astId": 3115,
        "contract": "contracts/TokenERC1155.sol:TokenERC1155",
        "label": "_totalSupply",
        "offset": 0,
        "slot": "151",
        "type": "t_mapping(t_uint256,t_uint256)"
      },
      {
        "astId": 3266,
        "contract": "contracts/TokenERC1155.sol:TokenERC1155",
        "label": "__gap",
        "offset": 0,
        "slot": "152",
        "type": "t_array(t_uint256)49_storage"
      },
      {
        "astId": 20242,
        "contract": "contracts/TokenERC1155.sol:TokenERC1155",
        "label": "service",
        "offset": 0,
        "slot": "201",
        "type": "t_contract(IService)23594"
      },
      {
        "astId": 20245,
        "contract": "contracts/TokenERC1155.sol:TokenERC1155",
        "label": "symbol",
        "offset": 0,
        "slot": "202",
        "type": "t_string_storage"
      },
      {
        "astId": 20250,
        "contract": "contracts/TokenERC1155.sol:TokenERC1155",
        "label": "_tokenURIs",
        "offset": 0,
        "slot": "203",
        "type": "t_mapping(t_uint256,t_string_storage)"
      },
      {
        "astId": 20255,
        "contract": "contracts/TokenERC1155.sol:TokenERC1155",
        "label": "cap",
        "offset": 0,
        "slot": "204",
        "type": "t_mapping(t_uint256,t_uint256)"
      },
      {
        "astId": 20258,
        "contract": "contracts/TokenERC1155.sol:TokenERC1155",
        "label": "lastTokenId",
        "offset": 0,
        "slot": "205",
        "type": "t_uint256"
      },
      {
        "astId": 20261,
        "contract": "contracts/TokenERC1155.sol:TokenERC1155",
        "label": "pool",
        "offset": 0,
        "slot": "206",
        "type": "t_address"
      },
      {
        "astId": 20265,
        "contract": "contracts/TokenERC1155.sol:TokenERC1155",
        "label": "tokenType",
        "offset": 20,
        "slot": "206",
        "type": "t_enum(TokenType)23906"
      },
      {
        "astId": 20268,
        "contract": "contracts/TokenERC1155.sol:TokenERC1155",
        "label": "name",
        "offset": 0,
        "slot": "207",
        "type": "t_string_storage"
      },
      {
        "astId": 20271,
        "contract": "contracts/TokenERC1155.sol:TokenERC1155",
        "label": "description",
        "offset": 0,
        "slot": "208",
        "type": "t_string_storage"
      },
      {
        "astId": 20277,
        "contract": "contracts/TokenERC1155.sol:TokenERC1155",
        "label": "tgeList",
        "offset": 0,
        "slot": "209",
        "type": "t_mapping(t_uint256,t_array(t_address)dyn_storage)"
      },
      {
        "astId": 20282,
        "contract": "contracts/TokenERC1155.sol:TokenERC1155",
        "label": "totalVested",
        "offset": 0,
        "slot": "210",
        "type": "t_mapping(t_uint256,t_uint256)"
      },
      {
        "astId": 20288,
        "contract": "contracts/TokenERC1155.sol:TokenERC1155",
        "label": "tgeWithLockedTokensList",
        "offset": 0,
        "slot": "211",
        "type": "t_mapping(t_uint256,t_array(t_address)dyn_storage)"
      },
      {
        "astId": 20293,
        "contract": "contracts/TokenERC1155.sol:TokenERC1155",
        "label": "totalProtocolFeeReserved",
        "offset": 0,
        "slot": "212",
        "type": "t_mapping(t_uint256,t_uint256)"
      },
      {
        "astId": 20300,
        "contract": "contracts/TokenERC1155.sol:TokenERC1155",
        "label": "tseList",
        "offset": 0,
        "slot": "213",
        "type": "t_mapping(t_uint256,t_mapping(t_address,t_array(t_address)dyn_storage))"
      }
    ],
    "types": {
      "t_address": {
        "encoding": "inplace",
        "label": "address",
        "numberOfBytes": "20"
      },
      "t_array(t_address)dyn_storage": {
        "base": "t_address",
        "encoding": "dynamic_array",
        "label": "address[]",
        "numberOfBytes": "32"
      },
      "t_array(t_uint256)47_storage": {
        "base": "t_uint256",
        "encoding": "inplace",
        "label": "uint256[47]",
        "numberOfBytes": "1504"
      },
      "t_array(t_uint256)49_storage": {
        "base": "t_uint256",
        "encoding": "inplace",
        "label": "uint256[49]",
        "numberOfBytes": "1568"
      },
      "t_array(t_uint256)50_storage": {
        "base": "t_uint256",
        "encoding": "inplace",
        "label": "uint256[50]",
        "numberOfBytes": "1600"
      },
      "t_bool": {
        "encoding": "inplace",
        "label": "bool",
        "numberOfBytes": "1"
      },
      "t_contract(IService)23594": {
        "encoding": "inplace",
        "label": "contract IService",
        "numberOfBytes": "20"
      },
      "t_enum(TokenType)23906": {
        "encoding": "inplace",
        "label": "enum IToken.TokenType",
        "numberOfBytes": "1"
      },
      "t_mapping(t_address,t_array(t_address)dyn_storage)": {
        "encoding": "mapping",
        "key": "t_address",
        "label": "mapping(address => address[])",
        "numberOfBytes": "32",
        "value": "t_array(t_address)dyn_storage"
      },
      "t_mapping(t_address,t_bool)": {
        "encoding": "mapping",
        "key": "t_address",
        "label": "mapping(address => bool)",
        "numberOfBytes": "32",
        "value": "t_bool"
      },
      "t_mapping(t_address,t_mapping(t_address,t_bool))": {
        "encoding": "mapping",
        "key": "t_address",
        "label": "mapping(address => mapping(address => bool))",
        "numberOfBytes": "32",
        "value": "t_mapping(t_address,t_bool)"
      },
      "t_mapping(t_address,t_uint256)": {
        "encoding": "mapping",
        "key": "t_address",
        "label": "mapping(address => uint256)",
        "numberOfBytes": "32",
        "value": "t_uint256"
      },
      "t_mapping(t_uint256,t_array(t_address)dyn_storage)": {
        "encoding": "mapping",
        "key": "t_uint256",
        "label": "mapping(uint256 => address[])",
        "numberOfBytes": "32",
        "value": "t_array(t_address)dyn_storage"
      },
      "t_mapping(t_uint256,t_mapping(t_address,t_array(t_address)dyn_storage))": {
        "encoding": "mapping",
        "key": "t_uint256",
        "label": "mapping(uint256 => mapping(address => address[]))",
        "numberOfBytes": "32",
        "value": "t_mapping(t_address,t_array(t_address)dyn_storage)"
      },
      "t_mapping(t_uint256,t_mapping(t_address,t_uint256))": {
        "encoding": "mapping",
        "key": "t_uint256",
        "label": "mapping(uint256 => mapping(address => uint256))",
        "numberOfBytes": "32",
        "value": "t_mapping(t_address,t_uint256)"
      },
      "t_mapping(t_uint256,t_string_storage)": {
        "encoding": "mapping",
        "key": "t_uint256",
        "label": "mapping(uint256 => string)",
        "numberOfBytes": "32",
        "value": "t_string_storage"
      },
      "t_mapping(t_uint256,t_uint256)": {
        "encoding": "mapping",
        "key": "t_uint256",
        "label": "mapping(uint256 => uint256)",
        "numberOfBytes": "32",
        "value": "t_uint256"
      },
      "t_string_storage": {
        "encoding": "bytes",
        "label": "string",
        "numberOfBytes": "32"
      },
      "t_uint256": {
        "encoding": "inplace",
        "label": "uint256",
        "numberOfBytes": "32"
      },
      "t_uint8": {
        "encoding": "inplace",
        "label": "uint8",
        "numberOfBytes": "1"
      }
    }
  }
}