{
  "address": "0xEdF24788C9d383DB464bC1bFf0871799BEcBF60E",
  "abi": [
    {
      "inputs": [],
      "stateMutability": "nonpayable",
      "type": "constructor"
    },
    {
      "anonymous": false,
      "inputs": [
        {
          "indexed": true,
          "internalType": "address",
          "name": "owner",
          "type": "address"
        },
        {
          "indexed": true,
          "internalType": "address",
          "name": "spender",
          "type": "address"
        },
        {
          "indexed": false,
          "internalType": "uint256",
          "name": "value",
          "type": "uint256"
        }
      ],
      "name": "Approval",
      "type": "event"
    },
    {
      "anonymous": false,
      "inputs": [
        {
          "indexed": true,
          "internalType": "address",
          "name": "delegator",
          "type": "address"
        },
        {
          "indexed": true,
          "internalType": "address",
          "name": "fromDelegate",
          "type": "address"
        },
        {
          "indexed": true,
          "internalType": "address",
          "name": "toDelegate",
          "type": "address"
        }
      ],
      "name": "DelegateChanged",
      "type": "event"
    },
    {
      "anonymous": false,
      "inputs": [
        {
          "indexed": true,
          "internalType": "address",
          "name": "delegate",
          "type": "address"
        },
        {
          "indexed": false,
          "internalType": "uint256",
          "name": "previousBalance",
          "type": "uint256"
        },
        {
          "indexed": false,
          "internalType": "uint256",
          "name": "newBalance",
          "type": "uint256"
        }
      ],
      "name": "DelegateVotesChanged",
      "type": "event"
    },
    {
      "anonymous": false,
      "inputs": [
        {
          "indexed": true,
          "internalType": "address",
          "name": "claimant",
          "type": "address"
        },
        {
          "indexed": false,
          "internalType": "uint256",
          "name": "amount",
          "type": "uint256"
        },
        {
          "indexed": false,
          "internalType": "address",
          "name": "tokenAddress",
          "type": "address"
        }
      ],
      "name": "DividendsClaimed",
      "type": "event"
    },
    {
      "anonymous": false,
      "inputs": [
        {
          "indexed": true,
          "internalType": "address",
          "name": "depositor",
          "type": "address"
        },
        {
          "indexed": false,
          "internalType": "uint256",
          "name": "amount",
          "type": "uint256"
        },
        {
          "indexed": false,
          "internalType": "address",
          "name": "tokenAddress",
          "type": "address"
        }
      ],
      "name": "DividendsDeposited",
      "type": "event"
    },
    {
      "anonymous": false,
      "inputs": [
        {
          "indexed": false,
          "internalType": "uint8",
          "name": "version",
          "type": "uint8"
        }
      ],
      "name": "Initialized",
      "type": "event"
    },
    {
      "anonymous": false,
      "inputs": [
        {
          "indexed": true,
          "internalType": "address",
          "name": "from",
          "type": "address"
        },
        {
          "indexed": true,
          "internalType": "address",
          "name": "to",
          "type": "address"
        },
        {
          "indexed": false,
          "internalType": "uint256",
          "name": "value",
          "type": "uint256"
        }
      ],
      "name": "Transfer",
      "type": "event"
    },
    {
      "anonymous": false,
      "inputs": [
        {
          "indexed": false,
          "internalType": "address",
          "name": "account",
          "type": "address"
        }
      ],
      "name": "Transferred",
      "type": "event"
    },
    {
      "inputs": [],
      "name": "DOMAIN_SEPARATOR",
      "outputs": [
        {
          "internalType": "bytes32",
          "name": "",
          "type": "bytes32"
        }
      ],
      "stateMutability": "view",
      "type": "function"
    },
    {
      "inputs": [
        {
          "internalType": "address",
          "name": "tge",
          "type": "address"
        }
      ],
      "name": "addTGE",
      "outputs": [],
      "stateMutability": "nonpayable",
      "type": "function"
    },
    {
      "inputs": [
        {
          "internalType": "address",
          "name": "account",
          "type": "address"
        },
        {
          "internalType": "address",
          "name": "tse",
          "type": "address"
        }
      ],
      "name": "addTSE",
      "outputs": [],
      "stateMutability": "nonpayable",
      "type": "function"
    },
    {
      "inputs": [
        {
          "internalType": "address",
          "name": "owner",
          "type": "address"
        },
        {
          "internalType": "address",
          "name": "spender",
          "type": "address"
        }
      ],
      "name": "allowance",
      "outputs": [
        {
          "internalType": "uint256",
          "name": "",
          "type": "uint256"
        }
      ],
      "stateMutability": "view",
      "type": "function"
    },
    {
      "inputs": [
        {
          "internalType": "address",
          "name": "spender",
          "type": "address"
        },
        {
          "internalType": "uint256",
          "name": "amount",
          "type": "uint256"
        }
      ],
      "name": "approve",
      "outputs": [
        {
          "internalType": "bool",
          "name": "",
          "type": "bool"
        }
      ],
      "stateMutability": "nonpayable",
      "type": "function"
    },
    {
      "inputs": [
        {
          "internalType": "address",
          "name": "account",
          "type": "address"
        }
      ],
      "name": "balanceOf",
      "outputs": [
        {
          "internalType": "uint256",
          "name": "",
          "type": "uint256"
        }
      ],
      "stateMutability": "view",
      "type": "function"
    },
    {
      "inputs": [
        {
          "internalType": "address",
          "name": "from",
          "type": "address"
        },
        {
          "internalType": "uint256",
          "name": "amount",
          "type": "uint256"
        }
      ],
      "name": "burn",
      "outputs": [],
      "stateMutability": "nonpayable",
      "type": "function"
    },
    {
      "inputs": [],
      "name": "cap",
      "outputs": [
        {
          "internalType": "uint256",
          "name": "",
          "type": "uint256"
        }
      ],
      "stateMutability": "view",
      "type": "function"
    },
    {
      "inputs": [
        {
          "internalType": "address",
          "name": "account",
          "type": "address"
        },
        {
          "internalType": "uint32",
          "name": "pos",
          "type": "uint32"
        }
      ],
      "name": "checkpoints",
      "outputs": [
        {
          "components": [
            {
              "internalType": "uint32",
              "name": "fromBlock",
              "type": "uint32"
            },
            {
              "internalType": "uint224",
              "name": "votes",
              "type": "uint224"
            }
          ],
          "internalType": "struct ERC20VotesUpgradeable.Checkpoint",
          "name": "",
          "type": "tuple"
        }
      ],
      "stateMutability": "view",
      "type": "function"
    },
    {
      "inputs": [],
      "name": "claimDividends",
      "outputs": [],
      "stateMutability": "nonpayable",
      "type": "function"
    },
    {
      "inputs": [],
      "name": "compliance",
      "outputs": [
        {
          "internalType": "bytes32",
          "name": "",
          "type": "bytes32"
        }
      ],
      "stateMutability": "view",
      "type": "function"
    },
    {
      "inputs": [],
      "name": "decimals",
      "outputs": [
        {
          "internalType": "uint8",
          "name": "",
          "type": "uint8"
        }
      ],
      "stateMutability": "view",
      "type": "function"
    },
    {
      "inputs": [
        {
          "internalType": "address",
          "name": "spender",
          "type": "address"
        },
        {
          "internalType": "uint256",
          "name": "subtractedValue",
          "type": "uint256"
        }
      ],
      "name": "decreaseAllowance",
      "outputs": [
        {
          "internalType": "bool",
          "name": "",
          "type": "bool"
        }
      ],
      "stateMutability": "nonpayable",
      "type": "function"
    },
    {
      "inputs": [
        {
          "internalType": "address",
          "name": "delegatee",
          "type": "address"
        }
      ],
      "name": "delegate",
      "outputs": [],
      "stateMutability": "nonpayable",
      "type": "function"
    },
    {
      "inputs": [
        {
          "internalType": "address",
          "name": "delegatee",
          "type": "address"
        },
        {
          "internalType": "uint256",
          "name": "nonce",
          "type": "uint256"
        },
        {
          "internalType": "uint256",
          "name": "expiry",
          "type": "uint256"
        },
        {
          "internalType": "uint8",
          "name": "v",
          "type": "uint8"
        },
        {
          "internalType": "bytes32",
          "name": "r",
          "type": "bytes32"
        },
        {
          "internalType": "bytes32",
          "name": "s",
          "type": "bytes32"
        }
      ],
      "name": "delegateBySig",
      "outputs": [],
      "stateMutability": "nonpayable",
      "type": "function"
    },
    {
      "inputs": [
        {
          "internalType": "address",
          "name": "account",
          "type": "address"
        }
      ],
      "name": "delegates",
      "outputs": [
        {
          "internalType": "address",
          "name": "",
          "type": "address"
        }
      ],
      "stateMutability": "view",
      "type": "function"
    },
    {
      "inputs": [
        {
          "internalType": "address",
          "name": "tokenAddress",
          "type": "address"
        },
        {
          "internalType": "uint256",
          "name": "amount",
          "type": "uint256"
        }
      ],
      "name": "depositDividends",
      "outputs": [],
      "stateMutability": "payable",
      "type": "function"
    },
    {
      "inputs": [],
      "name": "description",
      "outputs": [
        {
          "internalType": "string",
          "name": "",
          "type": "string"
        }
      ],
      "stateMutability": "view",
      "type": "function"
    },
    {
      "inputs": [
        {
          "internalType": "uint256",
          "name": "",
          "type": "uint256"
        }
      ],
      "name": "dividends",
      "outputs": [
        {
          "internalType": "uint256",
          "name": "amount",
          "type": "uint256"
        },
        {
          "internalType": "uint256",
          "name": "blockNumber",
          "type": "uint256"
        },
        {
          "internalType": "address",
          "name": "tokenAddress",
          "type": "address"
        }
      ],
      "stateMutability": "view",
      "type": "function"
    },
    {
      "inputs": [
        {
          "internalType": "address",
          "name": "",
          "type": "address"
        },
        {
          "internalType": "address",
          "name": "",
          "type": "address"
        }
      ],
      "name": "failedTransfers",
      "outputs": [
        {
          "internalType": "uint256",
          "name": "",
          "type": "uint256"
        }
      ],
      "stateMutability": "view",
      "type": "function"
    },
    {
      "inputs": [
        {
          "internalType": "address",
          "name": "shareholder",
          "type": "address"
        }
      ],
      "name": "getOwedDividends",
      "outputs": [
        {
          "internalType": "uint256",
          "name": "",
          "type": "uint256"
        }
      ],
      "stateMutability": "view",
      "type": "function"
    },
    {
      "inputs": [
        {
          "internalType": "uint256",
          "name": "blockNumber",
          "type": "uint256"
        }
      ],
      "name": "getPastTotalSupply",
      "outputs": [
        {
          "internalType": "uint256",
          "name": "",
          "type": "uint256"
        }
      ],
      "stateMutability": "view",
      "type": "function"
    },
    {
      "inputs": [
        {
          "internalType": "address",
          "name": "account",
          "type": "address"
        },
        {
          "internalType": "uint256",
          "name": "blockNumber",
          "type": "uint256"
        }
      ],
      "name": "getPastVotes",
      "outputs": [
        {
          "internalType": "uint256",
          "name": "",
          "type": "uint256"
        }
      ],
      "stateMutability": "view",
      "type": "function"
    },
    {
      "inputs": [],
      "name": "getTGEList",
      "outputs": [
        {
          "internalType": "address[]",
          "name": "",
          "type": "address[]"
        }
      ],
      "stateMutability": "view",
      "type": "function"
    },
    {
      "inputs": [],
      "name": "getTgeWithLockedTokensList",
      "outputs": [
        {
          "internalType": "address[]",
          "name": "",
          "type": "address[]"
        }
      ],
      "stateMutability": "view",
      "type": "function"
    },
    {
      "inputs": [],
      "name": "getTotalProtocolFeeReserved",
      "outputs": [
        {
          "internalType": "uint256",
          "name": "",
          "type": "uint256"
        }
      ],
      "stateMutability": "view",
      "type": "function"
    },
    {
      "inputs": [],
      "name": "getTotalTGEVestedTokens",
      "outputs": [
        {
          "internalType": "uint256",
          "name": "",
          "type": "uint256"
        }
      ],
      "stateMutability": "view",
      "type": "function"
    },
    {
      "inputs": [
        {
          "internalType": "address",
          "name": "account",
          "type": "address"
        }
      ],
      "name": "getVotes",
      "outputs": [
        {
          "internalType": "uint256",
          "name": "",
          "type": "uint256"
        }
      ],
      "stateMutability": "view",
      "type": "function"
    },
    {
      "inputs": [
        {
          "internalType": "address",
          "name": "spender",
          "type": "address"
        },
        {
          "internalType": "uint256",
          "name": "addedValue",
          "type": "uint256"
        }
      ],
      "name": "increaseAllowance",
      "outputs": [
        {
          "internalType": "bool",
          "name": "",
          "type": "bool"
        }
      ],
      "stateMutability": "nonpayable",
      "type": "function"
    },
    {
      "inputs": [
        {
          "internalType": "contract IService",
          "name": "service_",
          "type": "address"
        },
        {
          "internalType": "address",
          "name": "pool_",
          "type": "address"
        },
        {
          "components": [
            {
              "internalType": "enum IToken.TokenType",
              "name": "tokenType",
              "type": "uint8"
            },
            {
              "internalType": "string",
              "name": "name",
              "type": "string"
            },
            {
              "internalType": "string",
              "name": "symbol",
              "type": "string"
            },
            {
              "internalType": "string",
              "name": "description",
              "type": "string"
            },
            {
              "internalType": "uint256",
              "name": "cap",
              "type": "uint256"
            },
            {
              "internalType": "uint8",
              "name": "decimals",
              "type": "uint8"
            }
          ],
          "internalType": "struct IToken.TokenInfo",
          "name": "info",
          "type": "tuple"
        },
        {
          "internalType": "address",
          "name": "primaryTGE_",
          "type": "address"
        }
      ],
      "name": "initialize",
      "outputs": [],
      "stateMutability": "nonpayable",
      "type": "function"
    },
    {
      "inputs": [],
      "name": "isERC1155",
      "outputs": [
        {
          "internalType": "bool",
          "name": "",
          "type": "bool"
        }
      ],
      "stateMutability": "pure",
      "type": "function"
    },
    {
      "inputs": [],
      "name": "isPrimaryTGESuccessful",
      "outputs": [
        {
          "internalType": "bool",
          "name": "",
          "type": "bool"
        }
      ],
      "stateMutability": "view",
      "type": "function"
    },
    {
      "inputs": [
        {
          "internalType": "address",
          "name": "",
          "type": "address"
        }
      ],
      "name": "lastDividendsClaimedIndex",
      "outputs": [
        {
          "internalType": "uint256",
          "name": "",
          "type": "uint256"
        }
      ],
      "stateMutability": "view",
      "type": "function"
    },
    {
      "inputs": [],
      "name": "lastTGE",
      "outputs": [
        {
          "internalType": "address",
          "name": "",
          "type": "address"
        }
      ],
      "stateMutability": "view",
      "type": "function"
    },
    {
      "inputs": [
        {
          "internalType": "address",
          "name": "to",
          "type": "address"
        },
        {
          "internalType": "uint256",
          "name": "amount",
          "type": "uint256"
        }
      ],
      "name": "mint",
      "outputs": [],
      "stateMutability": "nonpayable",
      "type": "function"
    },
    {
      "inputs": [],
      "name": "name",
      "outputs": [
        {
          "internalType": "string",
          "name": "",
          "type": "string"
        }
      ],
      "stateMutability": "view",
      "type": "function"
    },
    {
      "inputs": [
        {
          "internalType": "address",
          "name": "owner",
          "type": "address"
        }
      ],
      "name": "nonces",
      "outputs": [
        {
          "internalType": "uint256",
          "name": "",
          "type": "uint256"
        }
      ],
      "stateMutability": "view",
      "type": "function"
    },
    {
      "inputs": [
        {
          "internalType": "address",
          "name": "account",
          "type": "address"
        }
      ],
      "name": "numCheckpoints",
      "outputs": [
        {
          "internalType": "uint32",
          "name": "",
          "type": "uint32"
        }
      ],
      "stateMutability": "view",
      "type": "function"
    },
    {
      "inputs": [],
      "name": "partnerAddress",
      "outputs": [
        {
          "internalType": "address",
          "name": "",
          "type": "address"
        }
      ],
      "stateMutability": "view",
      "type": "function"
    },
    {
      "inputs": [],
      "name": "partnerFee",
      "outputs": [
        {
          "internalType": "uint256",
          "name": "",
          "type": "uint256"
        }
      ],
      "stateMutability": "view",
      "type": "function"
    },
    {
      "inputs": [
        {
          "internalType": "address",
          "name": "owner",
          "type": "address"
        },
        {
          "internalType": "address",
          "name": "spender",
          "type": "address"
        },
        {
          "internalType": "uint256",
          "name": "value",
          "type": "uint256"
        },
        {
          "internalType": "uint256",
          "name": "deadline",
          "type": "uint256"
        },
        {
          "internalType": "uint8",
          "name": "v",
          "type": "uint8"
        },
        {
          "internalType": "bytes32",
          "name": "r",
          "type": "bytes32"
        },
        {
          "internalType": "bytes32",
          "name": "s",
          "type": "bytes32"
        }
      ],
      "name": "permit",
      "outputs": [],
      "stateMutability": "nonpayable",
      "type": "function"
    },
    {
      "inputs": [],
      "name": "pool",
      "outputs": [
        {
          "internalType": "address",
          "name": "",
          "type": "address"
        }
      ],
      "stateMutability": "view",
      "type": "function"
    },
    {
      "inputs": [
        {
          "internalType": "address",
          "name": "tokenAddress",
          "type": "address"
        }
      ],
      "name": "retryFailedTransfers",
      "outputs": [],
      "stateMutability": "nonpayable",
      "type": "function"
    },
    {
      "inputs": [],
      "name": "service",
      "outputs": [
        {
          "internalType": "contract IService",
          "name": "",
          "type": "address"
        }
      ],
      "stateMutability": "view",
      "type": "function"
    },
    {
      "inputs": [
        {
          "internalType": "bytes32",
          "name": "compliance_",
          "type": "bytes32"
        }
      ],
      "name": "setCompliance",
      "outputs": [],
      "stateMutability": "nonpayable",
      "type": "function"
    },
    {
      "inputs": [
        {
          "internalType": "address",
          "name": "_partnerAddress",
          "type": "address"
        },
        {
          "internalType": "uint256",
          "name": "_partnerFee",
          "type": "uint256"
        }
      ],
      "name": "setPartnerFee",
      "outputs": [],
      "stateMutability": "nonpayable",
      "type": "function"
    },
    {
      "inputs": [
        {
          "internalType": "uint256",
          "name": "amount",
          "type": "uint256"
        }
      ],
      "name": "setProtocolFeeReserved",
      "outputs": [],
      "stateMutability": "nonpayable",
      "type": "function"
    },
    {
      "inputs": [
        {
          "internalType": "uint256",
          "name": "amount",
          "type": "uint256"
        }
      ],
      "name": "setTGEVestedTokens",
      "outputs": [],
      "stateMutability": "nonpayable",
      "type": "function"
    },
    {
      "inputs": [],
      "name": "symbol",
      "outputs": [
        {
          "internalType": "string",
          "name": "",
          "type": "string"
        }
      ],
      "stateMutability": "view",
      "type": "function"
    },
    {
      "inputs": [
        {
          "internalType": "uint256",
          "name": "",
          "type": "uint256"
        }
      ],
      "name": "tgeList",
      "outputs": [
        {
          "internalType": "address",
          "name": "",
          "type": "address"
        }
      ],
      "stateMutability": "view",
      "type": "function"
    },
    {
      "inputs": [],
      "name": "tokenType",
      "outputs": [
        {
          "internalType": "enum IToken.TokenType",
          "name": "",
          "type": "uint8"
        }
      ],
      "stateMutability": "view",
      "type": "function"
    },
    {
      "inputs": [],
      "name": "totalSupply",
      "outputs": [
        {
          "internalType": "uint256",
          "name": "",
          "type": "uint256"
        }
      ],
      "stateMutability": "view",
      "type": "function"
    },
    {
      "inputs": [
        {
          "internalType": "uint256",
          "name": "blockNumber",
          "type": "uint256"
        }
      ],
      "name": "totalSupplyAt",
      "outputs": [
        {
          "internalType": "uint256",
          "name": "",
          "type": "uint256"
        }
      ],
      "stateMutability": "view",
      "type": "function"
    },
    {
      "inputs": [],
      "name": "totalSupplyWithReserves",
      "outputs": [
        {
          "internalType": "uint256",
          "name": "",
          "type": "uint256"
        }
      ],
      "stateMutability": "view",
      "type": "function"
    },
    {
      "inputs": [
        {
          "internalType": "address",
          "name": "to",
          "type": "address"
        },
        {
          "internalType": "uint256",
          "name": "amount",
          "type": "uint256"
        }
      ],
      "name": "transfer",
      "outputs": [
        {
          "internalType": "bool",
          "name": "",
          "type": "bool"
        }
      ],
      "stateMutability": "nonpayable",
      "type": "function"
    },
    {
      "inputs": [
        {
          "internalType": "address",
          "name": "from",
          "type": "address"
        },
        {
          "internalType": "address",
          "name": "to",
          "type": "address"
        },
        {
          "internalType": "uint256",
          "name": "amount",
          "type": "uint256"
        }
      ],
      "name": "transferFrom",
      "outputs": [
        {
          "internalType": "bool",
          "name": "",
          "type": "bool"
        }
      ],
      "stateMutability": "nonpayable",
      "type": "function"
    },
    {
      "inputs": [
        {
          "internalType": "address",
          "name": "",
          "type": "address"
        },
        {
          "internalType": "uint256",
          "name": "",
          "type": "uint256"
        }
      ],
      "name": "tseList",
      "outputs": [
        {
          "internalType": "address",
          "name": "",
          "type": "address"
        }
      ],
      "stateMutability": "view",
      "type": "function"
    },
    {
      "inputs": [
        {
          "internalType": "address",
          "name": "account",
          "type": "address"
        }
      ],
      "name": "unlockedBalanceOf",
      "outputs": [
        {
          "internalType": "uint256",
          "name": "",
          "type": "uint256"
        }
      ],
      "stateMutability": "view",
      "type": "function"
    },
    {
      "inputs": [
        {
          "internalType": "address",
          "name": "tokenAddress",
          "type": "address"
        }
      ],
      "name": "updateDividendDeposits",
      "outputs": [],
      "stateMutability": "nonpayable",
      "type": "function"
    },
    {
      "stateMutability": "payable",
      "type": "receive"
    }
  ],
  "transactionHash": "0x1a89a5cee9c1a1c07c832c43afe9b29444f777abeaefb02c1cbd0d6bbab2fb38",
  "args": [],
  "numDeployments": 5,
  "solcInputHash": "1ccd148e7577336faf24e274886fec61",
  "bytecode": "0x60806040523480156200001157600080fd5b506200001c62000022565b620000e4565b600054610100900460ff16156200008f5760405162461bcd60e51b815260206004820152602760248201527f496e697469616c697a61626c653a20636f6e747261637420697320696e697469604482015266616c697a696e6760c81b606482015260840160405180910390fd5b60005460ff9081161015620000e2576000805460ff191660ff9081179091556040519081527f7f26b83ff96e1f2b6a682f133852f6798a09c465da95921460cefb38474024989060200160405180910390a15b565b61579380620000f46000396000f3fe60806040526004361061038f5760003560e01c80636fcfff45116101dc5780639cde86f811610102578063d04d79b5116100a0578063d598d4c91161006f578063d598d4c914610a9d578063dd62ed3e14610abe578063f1127ed814610ade578063fe79bbe914610b2857600080fd5b8063d04d79b514610a3d578063d48e941f14610a52578063d505accf14610a67578063d554934b14610a8757600080fd5b8063a9059cbb116100dc578063a9059cbb146109bd578063ac5e23c3146109dd578063c3cda520146109fd578063c9a6d8c814610a1d57600080fd5b80639cde86f81461095d5780639dc29fac1461097d578063a457c2d71461099d57600080fd5b806384955c881161017a57806395d89b411161014957806395d89b41146108f5578063981b24d01461090a5780639935cd8e1461092a5780639ab24eb01461093d57600080fd5b806384955c88146108675780638e539e8c146108875780638ea390c1146108a75780639183b7f6146108c757600080fd5b80637e39be42116101b65780637e39be42146107cd5780637ecebe00146107e3578063811d170f14610803578063814b3fe01461082357600080fd5b80636fcfff451461074d57806370a08231146107825780637284e416146107b857600080fd5b80633946114c116102c15780635046f8b81161025f5780635b99176c1161022e5780635b99176c146106ea5780635c19a95c146107015780636290865d14610721578063668038e01461073857600080fd5b80635046f8b814610674578063576168fc14610694578063585fe4d5146106b5578063587cde1e146106ca57600080fd5b80633cc166721161029b5780633cc16672146105ff5780633eac99981461061f5780633faacfba1461063457806340c10f191461065457600080fd5b80633946114c1461059f57806339509351146105bf5780633a46b1a8146105df57600080fd5b80631bd0b6161161032e578063313ce56711610308578063313ce5671461052e578063355274ea146105555780633644e5151461056a57806337a4dba51461057f57600080fd5b80631bd0b616146104cb57806323b872dd146104df57806330fa738c146104ff57600080fd5b806316f0115b1161036a57806316f0115b1461041857806318160ddd146104515780631b60f266146104705780631b6590d0146104a957600080fd5b80620a04ae1461039b57806306fdde03146103c6578063095ea7b3146103e857600080fd5b3661039657005b600080fd5b3480156103a757600080fd5b506103b0610b48565b6040516103bd9190614f3c565b60405180910390f35b3480156103d257600080fd5b506103db610bab565b6040516103bd9190614fcf565b3480156103f457600080fd5b50610408610403366004615007565b610c34565b60405190151581526020016103bd565b34801561042457600080fd5b5061016454610439906001600160a01b031681565b6040516001600160a01b0390911681526020016103bd565b34801561045d57600080fd5b506035545b6040519081526020016103bd565b34801561047c57600080fd5b5061046261048b366004615033565b61017160209081526000928352604080842090915290825290205481565b3480156104b557600080fd5b506104c96104c436600461506c565b610c4e565b005b3480156104d757600080fd5b506000610408565b3480156104eb57600080fd5b506104086104fa366004615089565b610d7e565b34801561050b57600080fd5b506101645461052190600160a01b900460ff1681565b6040516103bd91906150e0565b34801561053a57600080fd5b50610543610eac565b60405160ff90911681526020016103bd565b34801561056157600080fd5b50610462610ee5565b34801561057657600080fd5b50610462610ef5565b34801561058b57600080fd5b506104c961059a366004615007565b610eff565b3480156105ab57600080fd5b506104c96105ba366004615108565b6111bb565b3480156105cb57600080fd5b506104086105da366004615007565b61138a565b3480156105eb57600080fd5b506104626105fa366004615007565b6113ac565b34801561060b57600080fd5b506104c961061a36600461506c565b611427565b34801561062b57600080fd5b50610439611583565b34801561064057600080fd5b506104c961064f366004615033565b6115c2565b34801561066057600080fd5b506104c961066f366004615007565b6116d4565b34801561068057600080fd5b506104c961068f36600461506c565b611917565b3480156106a057600080fd5b5061016e54610439906001600160a01b031681565b3480156106c157600080fd5b50610462611a72565b3480156106d657600080fd5b506104396106e536600461506c565b611a9a565b3480156106f657600080fd5b5061046261016d5481565b34801561070d57600080fd5b506104c961071c36600461506c565b611ab8565b34801561072d57600080fd5b5061046261016c5481565b34801561074457600080fd5b506104c9611bed565b34801561075957600080fd5b5061076d61076836600461506c565b611e39565b60405163ffffffff90911681526020016103bd565b34801561078e57600080fd5b5061046261079d36600461506c565b6001600160a01b031660009081526033602052604090205490565b3480156107c457600080fd5b506103db611e5c565b3480156107d957600080fd5b5061016a54610462565b3480156107ef57600080fd5b506104626107fe36600461506c565b611eeb565b34801561080f57600080fd5b5061043961081e366004615108565b611f09565b34801561082f57600080fd5b5061084361083e366004615108565b611f34565b6040805193845260208401929092526001600160a01b0316908201526060016103bd565b34801561087357600080fd5b5061046261088236600461506c565b611f71565b34801561089357600080fd5b506104626108a2366004615108565b6120b1565b3480156108b357600080fd5b506104626108c236600461506c565b61210e565b3480156108d357600080fd5b506104626108e236600461506c565b6101706020526000908152604090205481565b34801561090157600080fd5b506103db6121e8565b34801561091657600080fd5b50610462610925366004615108565b6121f2565b6104c9610938366004615007565b6121fd565b34801561094957600080fd5b5061046261095836600461506c565b61247d565b34801561096957600080fd5b506104c9610978366004615108565b612506565b34801561098957600080fd5b506104c9610998366004615007565b612634565b3480156109a957600080fd5b506104086109b8366004615007565b61283d565b3480156109c957600080fd5b506104086109d8366004615007565b6128c3565b3480156109e957600080fd5b506104c96109f8366004615216565b6129f7565b348015610a0957600080fd5b506104c9610a1836600461532e565b612c6a565b348015610a2957600080fd5b506104c9610a38366004615108565b612da0565b348015610a4957600080fd5b5061040861314d565b348015610a5e57600080fd5b506103b06131ef565b348015610a7357600080fd5b506104c9610a82366004615388565b613250565b348015610a9357600080fd5b5061016854610462565b348015610aa957600080fd5b5061016354610439906001600160a01b031681565b348015610aca57600080fd5b50610462610ad9366004615033565b6133b4565b348015610aea57600080fd5b50610afe610af93660046153f6565b6133df565b60408051825163ffffffff1681526020928301516001600160e01b031692810192909252016103bd565b348015610b3457600080fd5b50610439610b43366004615007565b613464565b6060610166805480602002602001604051908101604052809291908181526020018280548015610ba157602002820191906000526020600020905b81546001600160a01b03168152600190910190602001808311610b83575b5050505050905090565b606060368054610bba9061542d565b80601f0160208091040260200160405190810160405280929190818152602001828054610be69061542d565b8015610ba15780601f10610c0857610100808354040283529160200191610ba1565b820191906000526020600020905b815481529060010190602001808311610c1657509395945050505050565b600033610c4281858561349d565b60019150505b92915050565b610c566135c1565b336000908152610171602090815260408083206001600160a01b038516845290915290205480610cd85760405162461bcd60e51b815260206004820152602260248201527f4e6f206661696c6564207472616e736665727320666f72207468697320746f6b60448201526132b760f11b60648201526084015b60405180910390fd5b60405163a9059cbb60e01b8152336004820152602481018290526001600160a01b0383169063a9059cbb906044016020604051808303816000875af1158015610d25573d6000803e3d6000fd5b505050506040513d601f19601f82011682018060405250810190610d499190615461565b5050336000908152610171602090815260408083206001600160a01b0385168452909152812055610d7b600161013155565b50565b6101635460408051637b10399960e01b815290516000926001600160a01b031691637b1039999160048083019260209291908290030181865afa158015610dc9573d6000803e3d6000fd5b505050506040513d601f19601f82011682018060405250810190610ded9190615483565b604080516001600160a01b0387811660248301528681166044830152606480830187905283518084039091018152608490920183526020820180516001600160e01b03166323b872dd60e01b1790529151634dbb83fd60e01b81529290911691634dbb83fd91610e679133913091600091906004016154a0565b600060405180830381600087803b158015610e8157600080fd5b505af1158015610e95573d6000803e3d6000fd5b50505050610ea4848484613624565b949350505050565b6000600161016454600160a01b900460ff166002811115610ecf57610ecf6150ca565b03610eda5750601290565b506101675460ff1690565b6000610ef060655490565b905090565b6000610ef061363d565b61016360009054906101000a90046001600160a01b03166001600160a01b031663102c5c016040518163ffffffff1660e01b8152600401602060405180830381865afa158015610f53573d6000803e3d6000fd5b505050506040513d601f19601f82011682018060405250810190610f779190615483565b6001600160a01b0316336001600160a01b0316148061106e57506101635460408051631d6c8e3f60e21b815290516001600160a01b03909216916391d148549183916375b238fc916004808201926020929091908290030181865afa158015610fe4573d6000803e3d6000fd5b505050506040513d601f19601f8201168201806040525081019061100891906154dd565b6040516001600160e01b031960e084901b1681526004810191909152336024820152604401602060405180830381865afa15801561104a573d6000803e3d6000fd5b505050506040513d601f19601f8201168201806040525081019061106e9190615461565b806111515750610163546040805163c979e8a760e01b815290516001600160a01b03909216916391d1485491839163c979e8a7916004808201926020929091908290030181865afa1580156110c7573d6000803e3d6000fd5b505050506040513d601f19601f820116820180604052508101906110eb91906154dd565b6040516001600160e01b031960e084901b1681526004810191909152336024820152604401602060405180830381865afa15801561112d573d6000803e3d6000fd5b505050506040513d601f19601f820116820180604052508101906111519190615461565b6040518060400160405280600b81526020016a4e4f545f5345525649434560a81b815250906111935760405162461bcd60e51b8152600401610ccf9190614fcf565b5061016d5561016e80546001600160a01b0319166001600160a01b0392909216919091179055565b6101635460408051637b10399960e01b815290516000926004926001600160a01b0390911691637b1039999180850191602091819003860181865afa158015611208573d6000803e3d6000fd5b505050506040513d601f19601f8201168201806040525081019061122c9190615483565b604051630db9619f60e31b81523360048201526001600160a01b039190911690636dcb0cf890602401602060405180830381865afa158015611272573d6000803e3d6000fd5b505050506040513d601f19601f8201168201806040525081019061129691906154f6565b60048111156112a7576112a76150ca565b1490506000336001600160a01b031661016360009054906101000a90046001600160a01b03166001600160a01b03166344c63eec6040518163ffffffff1660e01b8152600401602060405180830381865afa15801561130a573d6000803e3d6000fd5b505050506040513d601f19601f8201168201806040525081019061132e9190615483565b6001600160a01b031614905081806113435750805b604051806040016040528060078152602001664e4f545f54474560c81b815250906113815760405162461bcd60e51b8152600401610ccf9190614fcf565b50505061016855565b600033610c4281858561139d83836133b4565b6113a7919061552d565b61349d565b60004382106113fd5760405162461bcd60e51b815260206004820152601f60248201527f4552433230566f7465733a20626c6f636b206e6f7420796574206d696e6564006044820152606401610ccf565b6001600160a01b03831660009081526101006020526040902061142090836136b8565b9392505050565b61142f6135c1565b60006001600160a01b0382166114465750476114b1565b6040516370a0823160e01b81523060048201526001600160a01b038316906370a0823190602401602060405180830381865afa15801561148a573d6000803e3d6000fd5b505050506040513d601f19601f820116820180604052508101906114ae91906154dd565b90505b6001600160a01b038216600090815261017260205260408120546114d5908361552d565b6001600160a01b03841660009081526101736020526040812054919250906114fd9083615540565b90506000811161154f5760405162461bcd60e51b815260206004820152601b60248201527f4e6f206e6577206469766964656e647320746f206465706f73697400000000006044820152606401610ccf565b6001600160a01b03841660009081526101736020526040902082905561157584826137af565b505050610d7b600161013155565b61016680546000919061159890600190615540565b815481106115a8576115a8615553565b6000918252602090912001546001600160a01b0316919050565b61016360009054906101000a90046001600160a01b03166001600160a01b031663102c5c016040518163ffffffff1660e01b8152600401602060405180830381865afa158015611616573d6000803e3d6000fd5b505050506040513d601f19601f8201168201806040525081019061163a9190615483565b6001600160a01b0316336001600160a01b0316146040518060400160405280600f81526020016e4e4f545f5447455f464143544f525960881b815250906116945760405162461bcd60e51b8152600401610ccf9190614fcf565b506001600160a01b03918216600090815261016b602090815260408220805460018101825590835291200180546001600160a01b03191691909216179055565b6101635460408051637b10399960e01b815290516000926004926001600160a01b0390911691637b1039999180850191602091819003860181865afa158015611721573d6000803e3d6000fd5b505050506040513d601f19601f820116820180604052508101906117459190615483565b604051630db9619f60e31b81523360048201526001600160a01b039190911690636dcb0cf890602401602060405180830381865afa15801561178b573d6000803e3d6000fd5b505050506040513d601f19601f820116820180604052508101906117af91906154f6565b60048111156117c0576117c06150ca565b1490506000336001600160a01b031661016360009054906101000a90046001600160a01b03166001600160a01b03166344c63eec6040518163ffffffff1660e01b8152600401602060405180830381865afa158015611823573d6000803e3d6000fd5b505050506040513d601f19601f820116820180604052508101906118479190615483565b6001600160a01b0316149050818061185c5750805b604051806040016040528060078152602001664e4f545f54474560c81b8152509061189a5760405162461bcd60e51b8152600401610ccf9190614fcf565b50600161016454600160a01b900460ff1660028111156118bc576118bc6150ca565b03611907576001600160a01b0384166000908152603360205260409020541580156118f8575060006118ed85611a9a565b6001600160a01b0316145b156119075761190784856139d7565b6119118484613a6d565b50505050565b61016360009054906101000a90046001600160a01b03166001600160a01b031663102c5c016040518163ffffffff1660e01b8152600401602060405180830381865afa15801561196b573d6000803e3d6000fd5b505050506040513d601f19601f8201168201806040525081019061198f9190615483565b6001600160a01b0316336001600160a01b0316146040518060400160405280600f81526020016e4e4f545f5447455f464143544f525960881b815250906119e95760405162461bcd60e51b8152600401610ccf9190614fcf565b50610166805460018181019092557fa5a4c57b7184ec73d55be4993773cb4eef681bc86a28d0285cd66efb50676a970180546001600160a01b039093166001600160a01b03199384168117909155610169805492830181556000527fbd88e1fd0aa5f3038c0cd2a68644e2d11f4e4e7e3693adba414318f2127ca4269091018054909216179055565b600080611a7f61016a5490565b61016854603554611a90919061552d565b610c48919061552d565b6001600160a01b03908116600090815260ff60205260409020541690565b61016360009054906101000a90046001600160a01b03166001600160a01b0316637b1039996040518163ffffffff1660e01b8152600401602060405180830381865afa158015611b0c573d6000803e3d6000fd5b505050506040513d601f19601f82011682018060405250810190611b309190615483565b6001600160a01b0316634dbb83fd33306000635c19a95c60e01b86604051602401611b6a91906001600160a01b0391909116815260200190565b60408051601f198184030181529181526020820180516001600160e01b03166001600160e01b03199485161790525160e087901b9092168252611bb2949392916004016154a0565b600060405180830381600087803b158015611bcc57600080fd5b505af1158015611be0573d6000803e3d6000fd5b50505050610d7b81613a77565b611bf56135c1565b33600090815261017060205260408120545b61016f54811015611def57600061016f8281548110611c2857611c28615553565b906000526020600020906003020190506000611c483383600101546113ac565b90506000611c5983600101546121f2565b8354611c659084615569565b611c6f9190615596565b60028401549091506001600160a01b0316611cc357604051339082156108fc029083906000818181858888f19350505050158015611cb1573d6000803e3d6000fd5b50611cbc818661552d565b9450611dbc565b600283015460405163a9059cbb60e01b8152336004820152602481018390526001600160a01b039091169063a9059cbb906044016020604051808303816000875af1925050508015611d32575060408051601f3d908101601f19168201909252611d2f91810190615461565b60015b611d79573360009081526101716020908152604080832060028701546001600160a01b0316845290915281208054839290611d6e90849061552d565b90915550611dbc9050565b50611d84818661552d565b60028401546001600160a01b031660009081526101726020526040812080549297508392909190611db690849061552d565b90915550505b611dc784600161552d565b336000908152610170602052604090205550829150611de79050816155b8565b915050611c07565b50604080518281526000602082015233917f0a3eaa3dfb2ea8bb7e2e2cd1f818a3c7daeac2c5d6efbf60163cea4fbc3d87ab910160405180910390a250611e37600161013155565b565b6001600160a01b03811660009081526101006020526040812054610c4890613a81565b6101658054611e6a9061542d565b80601f0160208091040260200160405190810160405280929190818152602001828054611e969061542d565b8015611ee35780601f10611eb857610100808354040283529160200191611ee3565b820191906000526020600020905b815481529060010190602001808311611ec657829003601f168201915b505050505081565b6001600160a01b038116600090815260cc6020526040812054610c48565b6101668181548110611f1a57600080fd5b6000918252602090912001546001600160a01b0316905081565b61016f8181548110611f4557600080fd5b60009182526020909120600390910201805460018201546002909201549092506001600160a01b031683565b6001600160a01b0381166000908152603360205260408120546000610169805480602002602001604051908101604052809291908181526020018280548015611fe357602002820191906000526020600020905b81546001600160a01b03168152600190910190602001808311611fc5575b505050505090506000805b825181101561209d5782818151811061200957612009615553565b6020908102919091010151604051632c9aab9b60e11b81526001600160a01b03888116600483015290911690635935573690602401602060405180830381865afa15801561205b573d6000803e3d6000fd5b505050506040513d601f19601f8201168201806040525081019061207f91906154dd565b612089908361552d565b915080612095816155b8565b915050611fee565b506120a88184615540565b95945050505050565b60004382106121025760405162461bcd60e51b815260206004820152601f60248201527f4552433230566f7465733a20626c6f636b206e6f7420796574206d696e6564006044820152606401610ccf565b610c48610101836136b8565b6001600160a01b0381166000908152610170602052604081205481905b61016f548110156121e157600061016f828154811061214c5761214c615553565b60009182526020808320604080516060810182526003909402909101805484526001810154928401839052600201546001600160a01b0316908301529092506121969087906113ac565b905060006121a783602001516121f2565b83516121b39084615569565b6121bd9190615596565b90506121c9818661552d565b945050505080806121d9906155b8565b91505061212b565b5092915050565b6060610ef0613aea565b6000610c48826120b1565b6122056135c1565b60006001600160a01b038316612262576000341161225b5760405162461bcd60e51b8152602060048201526013602482015272139bc8115d1a195c881d1bc819195c1bdcda5d606a1b6044820152606401610ccf565b5034612463565b600082116122b25760405162461bcd60e51b815260206004820152601d60248201527f416d6f756e74206d7573742062652067726561746572207468616e20300000006044820152606401610ccf565b6040516370a0823160e01b81523060048201526000906001600160a01b038516906370a0823190602401602060405180830381865afa1580156122f9573d6000803e3d6000fd5b505050506040513d601f19601f8201168201806040525081019061231d91906154dd565b6040516323b872dd60e01b8152336004820152306024820152604481018590529091506001600160a01b038516906323b872dd906064016020604051808303816000875af1158015612373573d6000803e3d6000fd5b505050506040513d601f19601f820116820180604052508101906123979190615461565b506040516370a0823160e01b81523060048201526000906001600160a01b038616906370a0823190602401602060405180830381865afa1580156123df573d6000803e3d6000fd5b505050506040513d601f19601f8201168201806040525081019061240391906154dd565b905061240f8282615540565b92508383146124605760405162461bcd60e51b815260206004820152601760248201527f4465706f73697420616d6f756e74206d69736d617463680000000000000000006044820152606401610ccf565b50505b61246d83826137af565b50612479600161013155565b5050565b6001600160a01b0381166000908152610100602052604081205480156124f3576001600160a01b0383166000908152610100602052604090206124c1600183615540565b815481106124d1576124d1615553565b60009182526020909120015464010000000090046001600160e01b03166124f6565b60005b6001600160e01b03169392505050565b6101635460408051637b10399960e01b815290516004926001600160a01b031691637b103999918185019160209190819003860181865afa15801561254f573d6000803e3d6000fd5b505050506040513d601f19601f820116820180604052508101906125739190615483565b604051630db9619f60e31b81523360048201526001600160a01b039190911690636dcb0cf890602401602060405180830381865afa1580156125b9573d6000803e3d6000fd5b505050506040513d601f19601f820116820180604052508101906125dd91906154f6565b60048111156125ee576125ee6150ca565b14604051806040016040528060078152602001664e4f545f54474560c81b8152509061262d5760405162461bcd60e51b8152600401610ccf9190614fcf565b5061016a55565b61016460009054906101000a90046001600160a01b03166001600160a01b0316635c975abb6040518163ffffffff1660e01b8152600401602060405180830381865afa158015612688573d6000803e3d6000fd5b505050506040513d601f19601f820116820180604052508101906126ac9190615461565b156040518060400160405280600e81526020016d14d154959250d157d4105554d15160921b815250906126f25760405162461bcd60e51b8152600401610ccf9190614fcf565b506101635460408051637b10399960e01b815290516004926001600160a01b031691637b103999918185019160209190819003860181865afa15801561273c573d6000803e3d6000fd5b505050506040513d601f19601f820116820180604052508101906127609190615483565b604051630db9619f60e31b81523360048201526001600160a01b039190911690636dcb0cf890602401602060405180830381865afa1580156127a6573d6000803e3d6000fd5b505050506040513d601f19601f820116820180604052508101906127ca91906154f6565b60048111156127db576127db6150ca565b14806127ef5750336001600160a01b038316145b6040518060400160405280600c81526020016b24a72b20a624a22faaa9a2a960a11b815250906128325760405162461bcd60e51b8152600401610ccf9190614fcf565b506124798282613af9565b6000338161284b82866133b4565b9050838110156128ab5760405162461bcd60e51b815260206004820152602560248201527f45524332303a2064656372656173656420616c6c6f77616e63652062656c6f77604482015264207a65726f60d81b6064820152608401610ccf565b6128b8828686840361349d565b506001949350505050565b6101635460408051637b10399960e01b815290516000926001600160a01b031691637b1039999160048083019260209291908290030181865afa15801561290e573d6000803e3d6000fd5b505050506040513d601f19601f820116820180604052508101906129329190615483565b6001600160a01b0316634dbb83fd3330600063a9059cbb60e01b88886040516024016129739291906001600160a01b03929092168252602082015260400190565b60408051601f198184030181529181526020820180516001600160e01b03166001600160e01b03199485161790525160e087901b90921682526129bb949392916004016154a0565b600060405180830381600087803b1580156129d557600080fd5b505af11580156129e9573d6000803e3d6000fd5b505050506114208383613b03565b600054610100900460ff1615808015612a175750600054600160ff909116105b80612a315750303b158015612a31575060005460ff166001145b612a945760405162461bcd60e51b815260206004820152602e60248201527f496e697469616c697a61626c653a20636f6e747261637420697320616c72656160448201526d191e481a5b9a5d1a585b1a5e995960921b6064820152608401610ccf565b6000805460ff191660011790558015612ab7576000805461ff0019166101001790555b612abf613b11565b612acc8360800151613b40565b606083015161016590612adf908261561f565b50600283516002811115612af557612af56150ca565b03612b2a57612b0c83602001518460400151613b70565b60a0830151610167805460ff191660ff909216919091179055612b3c565b612b3c83602001518460400151613b70565b610166805460018181019092557fa5a4c57b7184ec73d55be4993773cb4eef681bc86a28d0285cd66efb50676a970180546001600160a01b0385166001600160a01b03199182168117909255610169805493840181556000527fbd88e1fd0aa5f3038c0cd2a68644e2d11f4e4e7e3693adba414318f2127ca42690920180549092161790558251610164805460ff60a01b1916600160a01b836002811115612be657612be66150ca565b021790555061016380546001600160a01b038088166001600160a01b0319928316179092556101648054928716929091169190911790558015612c63576000805461ff0019169055604051600181527f7f26b83ff96e1f2b6a682f133852f6798a09c465da95921460cefb38474024989060200160405180910390a15b5050505050565b83421115612cba5760405162461bcd60e51b815260206004820152601d60248201527f4552433230566f7465733a207369676e617475726520657870697265640000006044820152606401610ccf565b604080517fe48329057bfd03d55e49b547132e39cffd9c1820ad7b9d4c5307691425d15adf60208201526001600160a01b038816918101919091526060810186905260808101859052600090612d3490612d2c9060a00160405160208183030381529060405280519060200120613ba1565b858585613bef565b9050612d3f81613c17565b8614612d8d5760405162461bcd60e51b815260206004820152601960248201527f4552433230566f7465733a20696e76616c6964206e6f6e6365000000000000006044820152606401610ccf565b612d9781886139d7565b50505050505050565b61016360009054906101000a90046001600160a01b03166001600160a01b031663102c5c016040518163ffffffff1660e01b8152600401602060405180830381865afa158015612df4573d6000803e3d6000fd5b505050506040513d601f19601f82011682018060405250810190612e189190615483565b6001600160a01b0316336001600160a01b03161480612f0f57506101635460408051631d6c8e3f60e21b815290516001600160a01b03909216916391d148549183916375b238fc916004808201926020929091908290030181865afa158015612e85573d6000803e3d6000fd5b505050506040513d601f19601f82011682018060405250810190612ea991906154dd565b6040516001600160e01b031960e084901b1681526004810191909152336024820152604401602060405180830381865afa158015612eeb573d6000803e3d6000fd5b505050506040513d601f19601f82011682018060405250810190612f0f9190615461565b80612ff25750610163546040805163c979e8a760e01b815290516001600160a01b03909216916391d1485491839163c979e8a7916004808201926020929091908290030181865afa158015612f68573d6000803e3d6000fd5b505050506040513d601f19601f82011682018060405250810190612f8c91906154dd565b6040516001600160e01b031960e084901b1681526004810191909152336024820152604401602060405180830381865afa158015612fce573d6000803e3d6000fd5b505050506040513d601f19601f82011682018060405250810190612ff29190615461565b6040518060400160405280600b81526020016a4e4f545f5345525649434560a81b815250906130345760405162461bcd60e51b8152600401610ccf9190614fcf565b5061016c8190556101635460408051637b10399960e01b815290516001600160a01b0390921691637b103999916004808201926020929091908290030181865afa158015613086573d6000803e3d6000fd5b505050506040513d601f19601f820116820180604052508101906130aa9190615483565b6001600160a01b0316634dbb83fd3330600063c9a6d8c860e01b866040516024016130d791815260200190565b60408051601f198184030181529181526020820180516001600160e01b03166001600160e01b03199485161790525160e087901b909216825261311f949392916004016154a0565b600060405180830381600087803b15801561313957600080fd5b505af1158015612c63573d6000803e3d6000fd5b6000600261016660008154811061316657613166615553565b600091825260209182902001546040805163c19d93fb60e01b815290516001600160a01b039092169263c19d93fb926004808401938290030181865afa1580156131b4573d6000803e3d6000fd5b505050506040513d601f19601f820116820180604052508101906131d891906156df565b60028111156131e9576131e96150ca565b14905090565b6060610169805480602002602001604051908101604052809291908181526020018280548015610ba1576020028201919060005260206000209081546001600160a01b03168152600190910190602001808311610b83575050505050905090565b834211156132a05760405162461bcd60e51b815260206004820152601d60248201527f45524332305065726d69743a206578706972656420646561646c696e650000006044820152606401610ccf565b60007f6e71edae12b1b97f4d1f60370fef10105fa2faae0126114a169c64845d6126c98888886132cf8c613c17565b6040805160208101969096526001600160a01b0394851690860152929091166060840152608083015260a082015260c0810186905260e001604051602081830303815290604052805190602001209050600061332a82613ba1565b9050600061333a82878787613bef565b9050896001600160a01b0316816001600160a01b03161461339d5760405162461bcd60e51b815260206004820152601e60248201527f45524332305065726d69743a20696e76616c6964207369676e617475726500006044820152606401610ccf565b6133a88a8a8a61349d565b50505050505050505050565b6001600160a01b03918216600090815260346020908152604080832093909416825291909152205490565b60408051808201909152600080825260208201526001600160a01b038316600090815261010060205260409020805463ffffffff841690811061342457613424615553565b60009182526020918290206040805180820190915291015463ffffffff8116825264010000000090046001600160e01b0316918101919091529392505050565b61016b602052816000526040600020818154811061348157600080fd5b6000918252602090912001546001600160a01b03169150829050565b6001600160a01b0383166134ff5760405162461bcd60e51b8152602060048201526024808201527f45524332303a20617070726f76652066726f6d20746865207a65726f206164646044820152637265737360e01b6064820152608401610ccf565b6001600160a01b0382166135605760405162461bcd60e51b815260206004820152602260248201527f45524332303a20617070726f766520746f20746865207a65726f206164647265604482015261737360f01b6064820152608401610ccf565b6001600160a01b0383811660008181526034602090815260408083209487168084529482529182902085905590518481527f8c5be1e5ebec7d5bd14f71427d1e84f3dd0314c0f7b2291e5b200ac8c7c3b925910160405180910390a3505050565b600261013154036136145760405162461bcd60e51b815260206004820152601f60248201527f5265656e7472616e637947756172643a207265656e7472616e742063616c6c006044820152606401610ccf565b600261013155565b600161013155565b600033613632858285613c3f565b6128b8858585613cb3565b6000610ef07f8b73c3c69bb8fe3d512ecc4cf759cc79239f7b179b0ffacaa9a75d522b39400f61366c60985490565b6099546040805160208101859052908101839052606081018290524660808201523060a082015260009060c0016040516020818303038152906040528051906020012090509392505050565b8154600090818160058111156137125760006136d384613e4e565b6136dd9085615540565b600088815260209020909150869082015463ffffffff16111561370257809150613710565b61370d81600161552d565b92505b505b8082101561375f5760006137268383613f36565b600088815260209020909150869082015463ffffffff16111561374b57809150613759565b61375681600161552d565b92505b50613712565b80156137995761378286613774600184615540565b600091825260209091200190565b5464010000000090046001600160e01b031661379c565b60005b6001600160e01b03169695505050505050565b604080516060810182528281524360208083019182526001600160a01b0386811684860190815261016f805460018101825560009190915294517f47d2f800c57de5c44dff408e225b320f1ea140ca87907f0726fd6049ee5595d760039096029586015592517f47d2f800c57de5c44dff408e225b320f1ea140ca87907f0726fd6049ee5595d885015591517f47d2f800c57de5c44dff408e225b320f1ea140ca87907f0726fd6049ee5595d990930180546001600160a01b03191693831693909317909255610163548351637b10399960e01b81529351911692637b1039999260048083019391928290030181865afa1580156138b1573d6000803e3d6000fd5b505050506040513d601f19601f820116820180604052508101906138d59190615483565b6001600160a01b0316634dbb83fd33306000639935cd8e60e01b87876040516024016139169291906001600160a01b03929092168252602082015260400190565b60408051601f198184030181529181526020820180516001600160e01b03166001600160e01b03199485161790525160e087901b909216825261395e949392916004016154a0565b600060405180830381600087803b15801561397857600080fd5b505af115801561398c573d6000803e3d6000fd5b5050604080518481526001600160a01b03861660208201523393507fb32cb0e59182f50bc236fb84cc6e29eca347016c6209093ce5dd9eb8d011c14592500160405180910390a25050565b60006139e283611a9a565b90506000613a05846001600160a01b031660009081526033602052604090205490565b6001600160a01b03858116600081815260ff602052604080822080546001600160a01b031916898616908117909155905194955093928616927f3134e8a2e6d97e929a7e54011ea5485d7d196dd5f0ba4d4ef95803e8e3fc257f9190a4611911828483613f51565b6124798282614090565b610d7b33826139d7565b600063ffffffff821115613ae65760405162461bcd60e51b815260206004820152602660248201527f53616665436173743a2076616c756520646f65736e27742066697420696e203360448201526532206269747360d01b6064820152608401610ccf565b5090565b606060378054610bba9061542d565b612479828261411b565b600033610c42818585613cb3565b600054610100900460ff16613b385760405162461bcd60e51b8152600401610ccf906156fc565b611e37614134565b600054610100900460ff16613b675760405162461bcd60e51b8152600401610ccf906156fc565b610d7b8161415b565b600054610100900460ff16613b975760405162461bcd60e51b8152600401610ccf906156fc565b61247982826141cf565b6000610c48613bae61363d565b8360405161190160f01b6020820152602281018390526042810182905260009060620160405160208183030381529060405280519060200120905092915050565b6000806000613c008787878761420f565b91509150613c0d816142d3565b5095945050505050565b6001600160a01b038116600090815260cc602052604090208054600181018255905b50919050565b6000613c4b84846133b4565b905060001981146119115781811015613ca65760405162461bcd60e51b815260206004820152601d60248201527f45524332303a20696e73756666696369656e7420616c6c6f77616e63650000006044820152606401610ccf565b611911848484840361349d565b61016460009054906101000a90046001600160a01b03166001600160a01b0316635c975abb6040518163ffffffff1660e01b8152600401602060405180830381865afa158015613d07573d6000803e3d6000fd5b505050506040513d601f19601f82011682018060405250810190613d2b9190615461565b156040518060400160405280600e81526020016d14d154959250d157d4105554d15160921b81525090613d715760405162461bcd60e51b8152600401610ccf9190614fcf565b50613d7a61441d565b613d8383611f71565b811115604051806040016040528060148152602001734c4f575f554e4c4f434b45445f42414c414e434560601b81525090613dd15760405162461bcd60e51b8152600401610ccf9190614fcf565b50600161016454600160a01b900460ff166002811115613df357613df36150ca565b03613e3e576001600160a01b038216600090815260336020526040902054158015613e2f57506000613e2483611a9a565b6001600160a01b0316145b15613e3e57613e3e82836139d7565b613e498383836145cc565b505050565b600081600003613e6057506000919050565b60006001613e6d8461477d565b901c6001901b90506001818481613e8657613e86615580565b048201901c90506001818481613e9e57613e9e615580565b048201901c90506001818481613eb657613eb6615580565b048201901c90506001818481613ece57613ece615580565b048201901c90506001818481613ee657613ee6615580565b048201901c90506001818481613efe57613efe615580565b048201901c90506001818481613f1657613f16615580565b048201901c905061142081828581613f3057613f30615580565b04614811565b6000613f456002848418615596565b6114209084841661552d565b816001600160a01b0316836001600160a01b031614158015613f735750600081115b15613e49576001600160a01b03831615614002576001600160a01b0383166000908152610100602052604081208190613faf9061482785614833565b91509150846001600160a01b03167fdec2bacdd2f05b59de34da9b523dff8be42e5e38e818c82fdb0bae774387a7248383604051613ff7929190918252602082015260400190565b60405180910390a250505b6001600160a01b03821615613e49576001600160a01b03821660009081526101006020526040812081906140399061498785614833565b91509150836001600160a01b03167fdec2bacdd2f05b59de34da9b523dff8be42e5e38e818c82fdb0bae774387a7248383604051614081929190918252602082015260400190565b60405180910390a25050505050565b61409a8282614993565b6035546001600160e01b03101561410c5760405162461bcd60e51b815260206004820152603060248201527f4552433230566f7465733a20746f74616c20737570706c79207269736b73206f60448201526f766572666c6f77696e6720766f74657360801b6064820152608401610ccf565b61191161010161498783614833565b6141258282614a07565b61191161010161482783614833565b600054610100900460ff1661361c5760405162461bcd60e51b8152600401610ccf906156fc565b600054610100900460ff166141825760405162461bcd60e51b8152600401610ccf906156fc565b600081116141ca5760405162461bcd60e51b8152602060048201526015602482015274045524332304361707065643a20636170206973203605c1b6044820152606401610ccf565b606555565b600054610100900460ff166141f65760405162461bcd60e51b8152600401610ccf906156fc565b6036614202838261561f565b506037613e49828261561f565b6000807f7fffffffffffffffffffffffffffffff5d576e7357a4501ddfe92f46681b20a083111561424657506000905060036142ca565b6040805160008082526020820180845289905260ff881692820192909252606081018690526080810185905260019060a0016020604051602081039080840390855afa15801561429a573d6000803e3d6000fd5b5050604051601f1901519150506001600160a01b0381166142c3576000600192509250506142ca565b9150600090505b94509492505050565b60008160048111156142e7576142e76150ca565b036142ef5750565b6001816004811115614303576143036150ca565b036143505760405162461bcd60e51b815260206004820152601860248201527f45434453413a20696e76616c6964207369676e617475726500000000000000006044820152606401610ccf565b6002816004811115614364576143646150ca565b036143b15760405162461bcd60e51b815260206004820152601f60248201527f45434453413a20696e76616c6964207369676e6174757265206c656e677468006044820152606401610ccf565b60038160048111156143c5576143c56150ca565b03610d7b5760405162461bcd60e51b815260206004820152602260248201527f45434453413a20696e76616c6964207369676e6174757265202773272076616c604482015261756560f01b6064820152608401610ccf565b600061016980548060200260200160405190810160405280929190818152602001828054801561447657602002820191906000526020600020905b81546001600160a01b03168152600190910190602001808311614458575b5050505050905060005b81518110156124795781818151811061449b5761449b615553565b60200260200101516001600160a01b031663df60fa406040518163ffffffff1660e01b8152600401602060405180830381865afa1580156144e0573d6000803e3d6000fd5b505050506040513d601f19601f820116820180604052508101906145049190615461565b156145ba57610169805461451a90600190615540565b8154811061452a5761452a615553565b60009182526020909120015461016980546001600160a01b03909216918390811061455757614557615553565b9060005260206000200160006101000a8154816001600160a01b0302191690836001600160a01b0316021790555061016980548061459757614597615747565b600082815260209020810160001990810180546001600160a01b03191690550190555b806145c4816155b8565b915050614480565b6001600160a01b0383166146305760405162461bcd60e51b815260206004820152602560248201527f45524332303a207472616e736665722066726f6d20746865207a65726f206164604482015264647265737360d81b6064820152608401610ccf565b6001600160a01b0382166146925760405162461bcd60e51b815260206004820152602360248201527f45524332303a207472616e7366657220746f20746865207a65726f206164647260448201526265737360e81b6064820152608401610ccf565b6001600160a01b0383166000908152603360205260409020548181101561470a5760405162461bcd60e51b815260206004820152602660248201527f45524332303a207472616e7366657220616d6f756e7420657863656564732062604482015265616c616e636560d01b6064820152608401610ccf565b6001600160a01b0380851660008181526033602052604080822086860390559286168082529083902080548601905591517fddf252ad1be2c89b69c2b068fc378daa952ba7f163c4a11628f55a4df523b3ef9061476a9086815260200190565b60405180910390a3611911848484614b3e565b600080608083901c1561479257608092831c92015b604083901c156147a457604092831c92015b602083901c156147b657602092831c92015b601083901c156147c857601092831c92015b600883901c156147da57600892831c92015b600483901c156147ec57600492831c92015b600283901c156147fe57600292831c92015b600183901c15610c485760010192915050565b60008183106148205781611420565b5090919050565b60006114208284615540565b825460009081908181156148805761485087613774600185615540565b60408051808201909152905463ffffffff8116825264010000000090046001600160e01b03166020820152614895565b60408051808201909152600080825260208201525b905080602001516001600160e01b031693506148b584868863ffffffff16565b92506000821180156148cd5750805163ffffffff1643145b15614912576148db83614def565b6148ea88613774600186615540565b80546001600160e01b03929092166401000000000263ffffffff90921691909117905561497d565b86604051806040016040528061492743613a81565b63ffffffff16815260200161493b86614def565b6001600160e01b0390811690915282546001810184556000938452602093849020835194909301519091166401000000000263ffffffff909316929092179101555b5050935093915050565b6000611420828461552d565b61499b610ee5565b816149a560355490565b6149af919061552d565b11156149fd5760405162461bcd60e51b815260206004820152601960248201527f45524332304361707065643a20636170206578636565646564000000000000006044820152606401610ccf565b6124798282614e58565b6001600160a01b038216614a675760405162461bcd60e51b815260206004820152602160248201527f45524332303a206275726e2066726f6d20746865207a65726f206164647265736044820152607360f81b6064820152608401610ccf565b6001600160a01b03821660009081526033602052604090205481811015614adb5760405162461bcd60e51b815260206004820152602260248201527f45524332303a206275726e20616d6f756e7420657863656564732062616c616e604482015261636560f01b6064820152608401610ccf565b6001600160a01b03831660008181526033602090815260408083208686039055603580548790039055518581529192917fddf252ad1be2c89b69c2b068fc378daa952ba7f163c4a11628f55a4df523b3ef910160405180910390a3613e49836000845b6040516001600160a01b03831681527fd823a9c9c42db3403def796d5c943f38c1476dba165d20e86ba39b1e5214e8799060200160405180910390a161016360009054906101000a90046001600160a01b03166001600160a01b0316630aa13b8c6040518163ffffffff1660e01b8152600401602060405180830381865afa158015614bce573d6000803e3d6000fd5b505050506040513d601f19601f82011682018060405250810190614bf29190615483565b61016c54604051633734a14760e11b81526001600160a01b0386811660048301526024820192909252911690636e69428e90604401602060405180830381865afa158015614c44573d6000803e3d6000fd5b505050506040513d601f19601f82011682018060405250810190614c689190615461565b6040518060400160405280600f81526020016e1393d517d5d2125511531254d51151608a1b81525090614cae5760405162461bcd60e51b8152600401610ccf9190614fcf565b5061016360009054906101000a90046001600160a01b03166001600160a01b0316630aa13b8c6040518163ffffffff1660e01b8152600401602060405180830381865afa158015614d03573d6000803e3d6000fd5b505050506040513d601f19601f82011682018060405250810190614d279190615483565b61016c54604051633734a14760e11b81526001600160a01b0385811660048301526024820192909252911690636e69428e90604401602060405180830381865afa158015614d79573d6000803e3d6000fd5b505050506040513d601f19601f82011682018060405250810190614d9d9190615461565b6040518060400160405280600f81526020016e1393d517d5d2125511531254d51151608a1b81525090614de35760405162461bcd60e51b8152600401610ccf9190614fcf565b50613e49838383614f21565b60006001600160e01b03821115613ae65760405162461bcd60e51b815260206004820152602760248201527f53616665436173743a2076616c756520646f65736e27742066697420696e20326044820152663234206269747360c81b6064820152608401610ccf565b6001600160a01b038216614eae5760405162461bcd60e51b815260206004820152601f60248201527f45524332303a206d696e7420746f20746865207a65726f2061646472657373006044820152606401610ccf565b8060356000828254614ec0919061552d565b90915550506001600160a01b0382166000818152603360209081526040808320805486019055518481527fddf252ad1be2c89b69c2b068fc378daa952ba7f163c4a11628f55a4df523b3ef910160405180910390a361247960008383614b3e565b613e49614f2d84611a9a565b614f3684611a9a565b83613f51565b6020808252825182820181905260009190848201906040850190845b81811015614f7d5783516001600160a01b031683529284019291840191600101614f58565b50909695505050505050565b6000815180845260005b81811015614faf57602081850181015186830182015201614f93565b506000602082860101526020601f19601f83011685010191505092915050565b6020815260006114206020830184614f89565b6001600160a01b0381168114610d7b57600080fd5b803561500281614fe2565b919050565b6000806040838503121561501a57600080fd5b823561502581614fe2565b946020939093013593505050565b6000806040838503121561504657600080fd5b823561505181614fe2565b9150602083013561506181614fe2565b809150509250929050565b60006020828403121561507e57600080fd5b813561142081614fe2565b60008060006060848603121561509e57600080fd5b83356150a981614fe2565b925060208401356150b981614fe2565b929592945050506040919091013590565b634e487b7160e01b600052602160045260246000fd5b602081016003831061510257634e487b7160e01b600052602160045260246000fd5b91905290565b60006020828403121561511a57600080fd5b5035919050565b634e487b7160e01b600052604160045260246000fd5b60405160c0810167ffffffffffffffff8111828210171561515a5761515a615121565b60405290565b60038110610d7b57600080fd5b803561500281615160565b600082601f83011261518957600080fd5b813567ffffffffffffffff808211156151a4576151a4615121565b604051601f8301601f19908116603f011681019082821181831017156151cc576151cc615121565b816040528381528660208588010111156151e557600080fd5b836020870160208301376000602085830101528094505050505092915050565b803560ff8116811461500257600080fd5b6000806000806080858703121561522c57600080fd5b843561523781614fe2565b9350602085013561524781614fe2565b9250604085013567ffffffffffffffff8082111561526457600080fd5b9086019060c0828903121561527857600080fd5b615280615137565b6152898361516d565b815260208301358281111561529d57600080fd5b6152a98a828601615178565b6020830152506040830135828111156152c157600080fd5b6152cd8a828601615178565b6040830152506060830135828111156152e557600080fd5b6152f18a828601615178565b6060830152506080830135608082015261530d60a08401615205565b60a0820152935061532391505060608601614ff7565b905092959194509250565b60008060008060008060c0878903121561534757600080fd5b863561535281614fe2565b9550602087013594506040870135935061536e60608801615205565b92506080870135915060a087013590509295509295509295565b600080600080600080600060e0888a0312156153a357600080fd5b87356153ae81614fe2565b965060208801356153be81614fe2565b955060408801359450606088013593506153da60808901615205565b925060a0880135915060c0880135905092959891949750929550565b6000806040838503121561540957600080fd5b823561541481614fe2565b9150602083013563ffffffff8116811461506157600080fd5b600181811c9082168061544157607f821691505b602082108103613c3957634e487b7160e01b600052602260045260246000fd5b60006020828403121561547357600080fd5b8151801515811461142057600080fd5b60006020828403121561549557600080fd5b815161142081614fe2565b6001600160a01b03858116825284166020820152604081018390526080606082018190526000906154d390830184614f89565b9695505050505050565b6000602082840312156154ef57600080fd5b5051919050565b60006020828403121561550857600080fd5b81516005811061142057600080fd5b634e487b7160e01b600052601160045260246000fd5b80820180821115610c4857610c48615517565b81810381811115610c4857610c48615517565b634e487b7160e01b600052603260045260246000fd5b8082028115828204841417610c4857610c48615517565b634e487b7160e01b600052601260045260246000fd5b6000826155b357634e487b7160e01b600052601260045260246000fd5b500490565b6000600182016155ca576155ca615517565b5060010190565b601f821115613e4957600081815260208120601f850160051c810160208610156155f85750805b601f850160051c820191505b8181101561561757828155600101615604565b505050505050565b815167ffffffffffffffff81111561563957615639615121565b61564d81615647845461542d565b846155d1565b602080601f831160018114615682576000841561566a5750858301515b600019600386901b1c1916600185901b178555615617565b600085815260208120601f198616915b828110156156b157888601518255948401946001909101908401615692565b50858210156156cf5787850151600019600388901b60f8161c191681555b5050505050600190811b01905550565b6000602082840312156156f157600080fd5b815161142081615160565b6020808252602b908201527f496e697469616c697a61626c653a20636f6e7472616374206973206e6f74206960408201526a6e697469616c697a696e6760a81b606082015260800190565b634e487b7160e01b600052603160045260246000fdfea264697066735822122060d5eb63eac7c125eb38a94c498cfeccf520210e95d5cefc2511f49ef300e71a64736f6c63430008110033",
  "devdoc": {
    "details": "An expanded ERC20 contract, based on which tokens of various types are issued. At the moment, the protocol provides for 2 types of tokens: Governance, which must be created simultaneously with the pool, existing for the pool only in the singular and participating in voting, and Preference, which may be several for one pool and which do not participate in voting in any way.",
    "kind": "dev",
    "methods": {
      "DOMAIN_SEPARATOR()": {
        "details": "See {IERC20Permit-DOMAIN_SEPARATOR}."
      },
      "addTGE(address)": {
        "details": "This method adds the TGE contract address to the TGEList of this token.",
        "params": {
          "tge": "The TGE address"
        }
      },
      "allowance(address,address)": {
        "details": "See {IERC20-allowance}."
      },
      "approve(address,uint256)": {
        "details": "See {IERC20-approve}. NOTE: If `amount` is the maximum `uint256`, the allowance is not updated on `transferFrom`. This is semantically equivalent to an infinite approval. Requirements: - `spender` cannot be the zero address."
      },
      "balanceOf(address)": {
        "details": "See {IERC20-balanceOf}."
      },
      "burn(address,uint256)": {
        "details": "Method for burning tokens. It can be called by both the token owner and the TGE contract to burn returned tokens during redeeming.",
        "params": {
          "amount": "The amount of tokens",
          "from": "The address of the account"
        }
      },
      "cap()": {
        "details": "This method returns the maximum allowable token emission.",
        "returns": {
          "_0": "The number of tokens taking into account the Decimals parameter"
        }
      },
      "checkpoints(address,uint32)": {
        "details": "Get the `pos`-th checkpoint for `account`."
      },
      "claimDividends()": {
        "details": "Calculates and transfers the owed dividends to the caller.      Records any failed transfer for a later retry."
      },
      "constructor": {
        "custom:oz-upgrades-unsafe-allow": "constructor",
        "details": "This contract uses OpenZeppelin upgrades and has no need for a constructor function. The constructor is replaced with an initializer function. This method disables the initializer feature of the OpenZeppelin upgrades plugin, preventing the initializer methods from being misused."
      },
      "decimals()": {
        "details": "This method returns the precision level for the fractional parts of this token.",
        "returns": {
          "_0": "Decimals"
        }
      },
      "decreaseAllowance(address,uint256)": {
        "details": "Atomically decreases the allowance granted to `spender` by the caller. This is an alternative to {approve} that can be used as a mitigation for problems described in {IERC20-approve}. Emits an {Approval} event indicating the updated allowance. Requirements: - `spender` cannot be the zero address. - `spender` must have allowance for the caller of at least `subtractedValue`."
      },
      "delegateBySig(address,uint256,uint256,uint8,bytes32,bytes32)": {
        "details": "Delegates votes from signer to `delegatee`"
      },
      "delegates(address)": {
        "details": "Get the address `account` is currently delegating to."
      },
      "depositDividends(address,uint256)": {
        "details": "Records the deposited amount and token address. For ERC20, the amount is transferred from the sender.",
        "params": {
          "amount": "The amount of ERC20 tokens to deposit. For Ether deposits, this is ignored.",
          "tokenAddress": "The address of the ERC20 token, or address(0) for Ether."
        }
      },
      "getOwedDividends(address)": {
        "params": {
          "shareholder": "The address of the shareholder."
        },
        "returns": {
          "_0": "totalOwed The total amount of dividends owed to the shareholder."
        }
      },
      "getPastTotalSupply(uint256)": {
        "details": "Retrieve the `totalSupply` at the end of `blockNumber`. Note, this value is the sum of all balances. It is but NOT the sum of all the delegated votes! Requirements: - `blockNumber` must have been already mined"
      },
      "getPastVotes(address,uint256)": {
        "details": "Retrieve the number of votes for `account` at the end of `blockNumber`. Requirements: - `blockNumber` must have been already mined"
      },
      "getTGEList()": {
        "details": "This method returns the list of addresses of all TGE contracts ever deployed for this token.",
        "returns": {
          "_0": "array An array of contract addresses"
        }
      },
      "getTgeWithLockedTokensList()": {
        "details": "This method returns the list of addresses of all TGE contracts ever deployed for this token and having active token transfer restrictions.",
        "returns": {
          "_0": "array An array of contract addresses"
        }
      },
      "getTotalProtocolFeeReserved()": {
        "details": "This method returns the accumulated value stored in the contract's memory, which represents the number of token units that are reserved and should be issued and sent as the contract's fee.",
        "returns": {
          "_0": "uint256 The sum of tokens for the fee"
        }
      },
      "getTotalTGEVestedTokens()": {
        "details": "This method returns the accumulated value stored in the contract's memory, which represents the number of token units that are in vesting at the time of the request.",
        "returns": {
          "_0": "uint256 The sum of tokens in vesting"
        }
      },
      "getVotes(address)": {
        "details": "Gets the current votes balance for `account`"
      },
      "increaseAllowance(address,uint256)": {
        "details": "Atomically increases the allowance granted to `spender` by the caller. This is an alternative to {approve} that can be used as a mitigation for problems described in {IERC20-approve}. Emits an {Approval} event indicating the updated allowance. Requirements: - `spender` cannot be the zero address."
      },
      "initialize(address,address,(uint8,string,string,string,uint256,uint8),address)": {
        "details": "Token creation, can only be started once. At the same time, the TGE contract, which sells the created token, is necessarily simultaneously deployed and receives an entry in the Registry. For the Governance token, the Name field for the ERC20 standard is taken from the trademark of the Pool contract to which the deployed token belongs. For Preference tokens, you can set an arbitrary value of the Name field.",
        "params": {
          "info": "The token parameters, including its type, in the form of a structure described in the TokenInfo method",
          "pool_": "The address of the pool contract",
          "primaryTGE_": "The address of the primary TGE for this token",
          "service_": "The address of the Service contract"
        }
      },
      "isPrimaryTGESuccessful()": {
        "details": "This method indicates whether a successful TGE has been conducted for this token. To determine this, it is sufficient to check the first event from the list of all TGEs. If it ended in failure, then this token cannot be considered active for its pool.",
        "returns": {
          "_0": "bool Is any TGE successful"
        }
      },
      "lastTGE()": {
        "details": "This method returns the address of the last conducted TGE for this token. Sorting is based on the starting block of the TGE, not the ending block (i.e., even if an earlier TGE contract is still active and the most recent one by creation time has already ended, the method will still return the address of the most recent contract).",
        "returns": {
          "_0": "address The contract address"
        }
      },
      "mint(address,uint256)": {
        "details": "Minting of new tokens. Only the TGE or Vesting contract can mint tokens, there is no other way to get an additional issue. If the user who is being minted does not have tokens, they are sent to delegation on his behalf.",
        "params": {
          "amount": "The number of tokens being minted",
          "to": "The address of the account for which new token units are being minted"
        }
      },
      "name()": {
        "details": "Returns the name of the token."
      },
      "nonces(address)": {
        "details": "See {IERC20Permit-nonces}."
      },
      "numCheckpoints(address)": {
        "details": "Get number of checkpoints for `account`."
      },
      "permit(address,address,uint256,uint256,uint8,bytes32,bytes32)": {
        "details": "See {IERC20Permit-permit}."
      },
      "retryFailedTransfers(address)": {
        "params": {
          "tokenAddress": "The address of the token for which to claim failed transfers."
        }
      },
      "setProtocolFeeReserved(uint256)": {
        "details": "This method modifies the number of token units that are reserved as protocol fee.",
        "params": {
          "amount": "The amount of tokens"
        }
      },
      "setTGEVestedTokens(uint256)": {
        "details": "This method modifies the number of token units that are vested and reserved for claiming by users.",
        "params": {
          "amount": "The amount of tokens"
        }
      },
      "symbol()": {
        "details": "This method returns the short name of the token, its ticker for listing.",
        "returns": {
          "_0": "A string with the name"
        }
      },
      "totalSupply()": {
        "details": "See {IERC20-totalSupply}."
      },
      "totalSupplyAt(uint256)": {
        "params": {
          "blockNumber": "The block number to check the total supply at."
        },
        "returns": {
          "_0": "The total token supply at the given block number."
        }
      },
      "totalSupplyWithReserves()": {
        "details": "This method calculates the total supply for the token taking into account the reserved but not yet issued units (for vesting and protocol fee).",
        "returns": {
          "_0": "uint256 The sum of reserved tokens"
        }
      },
      "unlockedBalanceOf(address)": {
        "details": "The given getter returns the total balance of the address that is not locked for transfer, taking into account all the TGEs with which this token was distributed.It is the difference between the actual balance of the account and its locked portion.",
        "params": {
          "account": "The address of the account"
        },
        "returns": {
          "_0": "Unlocked balance of the account"
        }
      },
      "updateDividendDeposits(address)": {
        "details": "Updates the dividend records by adding new deposits that have occurred since the last record update. This function is designed to be called by an admin to ensure that all recent deposits are accounted for in the dividend system. It calculates the new dividends based on the difference between the current balance and the last recorded balance. This function handles both Ether and ERC20 token dividends.",
        "params": {
          "tokenAddress": "The address of the ERC20 token, or address(0) for Ether. This is the token for which the dividend deposits are being updated. Requirements: - There must be new dividends to deposit, i.e., the current balance minus the last recorded balance must be greater than zero. - This function can only be called when no other function is being executed in the contract (nonReentrant)."
        }
      }
    },
    "stateVariables": {
      "_decimals": {
        "details": "This parameter is mandatory for all ERC20 tokens and is set to 18 by default. It indicates the precision applied when calculating a particular token. It can also be said that 10 raised to the power of minus decimal is the minimum indivisible amount of the token."
      },
      "description": {
        "details": "Preference token description, allows up to 5000 characters, for others - \"\""
      },
      "pool": {
        "details": "Pool contract address"
      },
      "service": {
        "details": "Service contract address"
      },
      "tgeList": {
        "details": "A list of TGE contract addresses that have been launched to distribute this token. If any of the elements in the list have a \"Successful\" state, it means that the token is valid and used by the pool. If there are no such TGEs, the token can be considered unsuccessful, meaning it is detached from the pool."
      },
      "tgeWithLockedTokensList": {
        "details": "List of all TGEs with locked tokens"
      },
      "tokenType": {
        "details": "Code \"1\" - Governance Token is the main token of the pool, compatible with the ERC20 standard. One such token is equal to one vote. One pool can only have one contract of this type of token. When the primary TGE is launched, dedicated to the distribution of this type of token, the token is only a candidate for the Governance role. In case of a successful TGE, it remains the Governance token of the pool forever. In case of a failed TGE, it carries no weight and voting power for Governance procedures; another token can be appointed in its place through a repeated primary TGE. The cap is set once during the launch of the primary TGE. During each TGE, an additional issuance of Service:ProtocolTokenFee percent of the total volume of tokens distributed during the event takes place and is transferred to the balance of the Service:ProtocolTreasury address.Code \"2\" - Preference Token is an additional pool token, compatible with the ERC20 standard. It does not have voting power. One pool can have multiple independent and non-interacting tokens of this type. In case of a successful TGE, it is recognized by the pool as a Preference token forever. In case of a failed TGE, the pool forgets about such a token, not recognizing it as a Preference token. The cap is set once during the launch of the primary TGE."
      },
      "totalProtocolFeeReserved": {
        "details": "Total amount of tokens reserved for the minting protocol fee"
      },
      "totalVested": {
        "details": "Total Vested tokens for all TGEs"
      }
    },
    "title": "Company (Pool) Token",
    "version": 1
  },
  "userdoc": {
    "kind": "user",
    "methods": {
      "claimDividends()": {
        "notice": "Claims any dividends owed to the caller."
      },
      "constructor": {
        "notice": "Contract constructor."
      },
      "depositDividends(address,uint256)": {
        "notice": "Deposits dividends in either Ether or ERC20 tokens."
      },
      "getOwedDividends(address)": {
        "notice": "Retrieves the total dividends owed to a shareholder."
      },
      "partnerFee()": {
        "notice": "Examples: 1% = 10000, 100% = 1000000, 0.1% = 1000"
      },
      "retryFailedTransfers(address)": {
        "notice": "Allows a user to retry claiming dividends that previously failed to transfer."
      },
      "tgeList(uint256)": {
        "notice": "All TGEs associated with this token"
      },
      "tokenType()": {
        "notice": "Token type code"
      },
      "totalSupplyAt(uint256)": {
        "notice": "Retrieves the total token supply at a given block number."
      },
      "updateDividendDeposits(address)": {
        "notice": "This function should be called by an admin to update the dividend records with recent deposits."
      }
    },
    "notice": "Tokens are the primary quantitative characteristic of all entities within the protocol. In addition to their inherent function as a unit of calculation, tokens can also be used as votes and as a unit indicating the degree of participation of an address in an off-chain or on-chain pool project. Tokens of any type can only be issued within the framework of a TGE (Token Generation Event), and by using vesting settings, such a TGE can divide the issuance of purchased or airdropped tokens into stages, as well as temporarily block the ability to transfer them from one address to another.",
    "version": 1
  },
  "storageLayout": {
    "storage": [
      {
        "astId": 314,
        "contract": "contracts/Token.sol:Token",
        "label": "_initialized",
        "offset": 0,
        "slot": "0",
        "type": "t_uint8"
      },
      {
        "astId": 317,
        "contract": "contracts/Token.sol:Token",
        "label": "_initializing",
        "offset": 1,
        "slot": "0",
        "type": "t_bool"
      },
      {
        "astId": 2742,
        "contract": "contracts/Token.sol:Token",
        "label": "__gap",
        "offset": 0,
        "slot": "1",
        "type": "t_array(t_uint256)50_storage"
      },
      {
        "astId": 690,
        "contract": "contracts/Token.sol:Token",
        "label": "_balances",
        "offset": 0,
        "slot": "51",
        "type": "t_mapping(t_address,t_uint256)"
      },
      {
        "astId": 696,
        "contract": "contracts/Token.sol:Token",
        "label": "_allowances",
        "offset": 0,
        "slot": "52",
        "type": "t_mapping(t_address,t_mapping(t_address,t_uint256))"
      },
      {
        "astId": 698,
        "contract": "contracts/Token.sol:Token",
        "label": "_totalSupply",
        "offset": 0,
        "slot": "53",
        "type": "t_uint256"
      },
      {
        "astId": 700,
        "contract": "contracts/Token.sol:Token",
        "label": "_name",
        "offset": 0,
        "slot": "54",
        "type": "t_string_storage"
      },
      {
        "astId": 702,
        "contract": "contracts/Token.sol:Token",
        "label": "_symbol",
        "offset": 0,
        "slot": "55",
        "type": "t_string_storage"
      },
      {
        "astId": 1282,
        "contract": "contracts/Token.sol:Token",
        "label": "__gap",
        "offset": 0,
        "slot": "56",
        "type": "t_array(t_uint256)45_storage"
      },
      {
        "astId": 1372,
        "contract": "contracts/Token.sol:Token",
        "label": "_cap",
        "offset": 0,
        "slot": "101",
        "type": "t_uint256"
      },
      {
        "astId": 1447,
        "contract": "contracts/Token.sol:Token",
        "label": "__gap",
        "offset": 0,
        "slot": "102",
        "type": "t_array(t_uint256)50_storage"
      },
      {
        "astId": 3362,
        "contract": "contracts/Token.sol:Token",
        "label": "_HASHED_NAME",
        "offset": 0,
        "slot": "152",
        "type": "t_bytes32"
      },
      {
        "astId": 3364,
        "contract": "contracts/Token.sol:Token",
        "label": "_HASHED_VERSION",
        "offset": 0,
        "slot": "153",
        "type": "t_bytes32"
      },
      {
        "astId": 3502,
        "contract": "contracts/Token.sol:Token",
        "label": "__gap",
        "offset": 0,
        "slot": "154",
        "type": "t_array(t_uint256)50_storage"
      },
      {
        "astId": 2216,
        "contract": "contracts/Token.sol:Token",
        "label": "_nonces",
        "offset": 0,
        "slot": "204",
        "type": "t_mapping(t_address,t_struct(Counter)2749_storage)"
      },
      {
        "astId": 2224,
        "contract": "contracts/Token.sol:Token",
        "label": "_PERMIT_TYPEHASH_DEPRECATED_SLOT",
        "offset": 0,
        "slot": "205",
        "type": "t_bytes32"
      },
      {
        "astId": 2380,
        "contract": "contracts/Token.sol:Token",
        "label": "__gap",
        "offset": 0,
        "slot": "206",
        "type": "t_array(t_uint256)49_storage"
      },
      {
        "astId": 1489,
        "contract": "contracts/Token.sol:Token",
        "label": "_delegates",
        "offset": 0,
        "slot": "255",
        "type": "t_mapping(t_address,t_address)"
      },
      {
        "astId": 1495,
        "contract": "contracts/Token.sol:Token",
        "label": "_checkpoints",
        "offset": 0,
        "slot": "256",
        "type": "t_mapping(t_address,t_array(t_struct(Checkpoint)1480_storage)dyn_storage)"
      },
      {
        "astId": 1499,
        "contract": "contracts/Token.sol:Token",
        "label": "_totalSupplyCheckpoints",
        "offset": 0,
        "slot": "257",
        "type": "t_array(t_struct(Checkpoint)1480_storage)dyn_storage"
      },
      {
        "astId": 2164,
        "contract": "contracts/Token.sol:Token",
        "label": "__gap",
        "offset": 0,
        "slot": "258",
        "type": "t_array(t_uint256)47_storage"
      },
      {
        "astId": 490,
        "contract": "contracts/Token.sol:Token",
        "label": "_status",
        "offset": 0,
        "slot": "305",
        "type": "t_uint256"
      },
      {
        "astId": 548,
        "contract": "contracts/Token.sol:Token",
        "label": "__gap",
        "offset": 0,
        "slot": "306",
        "type": "t_array(t_uint256)49_storage"
      },
      {
        "astId": 5950,
        "contract": "contracts/Token.sol:Token",
        "label": "service",
        "offset": 0,
        "slot": "355",
        "type": "t_contract(IService)8011"
      },
      {
        "astId": 5953,
        "contract": "contracts/Token.sol:Token",
        "label": "pool",
        "offset": 0,
        "slot": "356",
        "type": "t_address"
      },
      {
        "astId": 5957,
        "contract": "contracts/Token.sol:Token",
        "label": "tokenType",
        "offset": 20,
        "slot": "356",
        "type": "t_enum(TokenType)8345"
      },
      {
        "astId": 5960,
        "contract": "contracts/Token.sol:Token",
        "label": "description",
        "offset": 0,
        "slot": "357",
        "type": "t_string_storage"
      },
      {
        "astId": 5964,
        "contract": "contracts/Token.sol:Token",
        "label": "tgeList",
        "offset": 0,
        "slot": "358",
        "type": "t_array(t_address)dyn_storage"
      },
      {
        "astId": 5967,
        "contract": "contracts/Token.sol:Token",
        "label": "_decimals",
        "offset": 0,
        "slot": "359",
        "type": "t_uint8"
      },
      {
        "astId": 5970,
        "contract": "contracts/Token.sol:Token",
        "label": "totalVested",
        "offset": 0,
        "slot": "360",
        "type": "t_uint256"
      },
      {
        "astId": 5974,
        "contract": "contracts/Token.sol:Token",
        "label": "tgeWithLockedTokensList",
        "offset": 0,
        "slot": "361",
        "type": "t_array(t_address)dyn_storage"
      },
      {
        "astId": 5977,
        "contract": "contracts/Token.sol:Token",
        "label": "totalProtocolFeeReserved",
        "offset": 0,
        "slot": "362",
        "type": "t_uint256"
      },
      {
        "astId": 5982,
        "contract": "contracts/Token.sol:Token",
        "label": "tseList",
        "offset": 0,
        "slot": "363",
        "type": "t_mapping(t_address,t_array(t_address)dyn_storage)"
      },
      {
        "astId": 5984,
        "contract": "contracts/Token.sol:Token",
        "label": "compliance",
        "offset": 0,
        "slot": "364",
        "type": "t_bytes32"
      },
      {
        "astId": 5991,
        "contract": "contracts/Token.sol:Token",
        "label": "partnerFee",
        "offset": 0,
        "slot": "365",
        "type": "t_uint256"
      },
      {
        "astId": 5993,
        "contract": "contracts/Token.sol:Token",
        "label": "partnerAddress",
        "offset": 0,
        "slot": "366",
        "type": "t_address"
      },
      {
        "astId": 6004,
        "contract": "contracts/Token.sol:Token",
        "label": "dividends",
        "offset": 0,
        "slot": "367",
        "type": "t_array(t_struct(Dividend)6000_storage)dyn_storage"
      },
      {
        "astId": 6008,
        "contract": "contracts/Token.sol:Token",
        "label": "lastDividendsClaimedIndex",
        "offset": 0,
        "slot": "368",
        "type": "t_mapping(t_address,t_uint256)"
      },
      {
        "astId": 6014,
        "contract": "contracts/Token.sol:Token",
        "label": "failedTransfers",
        "offset": 0,
        "slot": "369",
        "type": "t_mapping(t_address,t_mapping(t_address,t_uint256))"
      },
      {
        "astId": 6018,
        "contract": "contracts/Token.sol:Token",
        "label": "totalClaimedDividends",
        "offset": 0,
        "slot": "370",
        "type": "t_mapping(t_address,t_uint256)"
      },
      {
        "astId": 6022,
        "contract": "contracts/Token.sol:Token",
        "label": "lastRecordedBalance",
        "offset": 0,
        "slot": "371",
        "type": "t_mapping(t_address,t_uint256)"
      }
    ],
    "types": {
      "t_address": {
        "encoding": "inplace",
        "label": "address",
        "numberOfBytes": "20"
      },
      "t_array(t_address)dyn_storage": {
        "base": "t_address",
        "encoding": "dynamic_array",
        "label": "address[]",
        "numberOfBytes": "32"
      },
      "t_array(t_struct(Checkpoint)1480_storage)dyn_storage": {
        "base": "t_struct(Checkpoint)1480_storage",
        "encoding": "dynamic_array",
        "label": "struct ERC20VotesUpgradeable.Checkpoint[]",
        "numberOfBytes": "32"
      },
      "t_array(t_struct(Dividend)6000_storage)dyn_storage": {
        "base": "t_struct(Dividend)6000_storage",
        "encoding": "dynamic_array",
        "label": "struct Token.Dividend[]",
        "numberOfBytes": "32"
      },
      "t_array(t_uint256)45_storage": {
        "base": "t_uint256",
        "encoding": "inplace",
        "label": "uint256[45]",
        "numberOfBytes": "1440"
      },
      "t_array(t_uint256)47_storage": {
        "base": "t_uint256",
        "encoding": "inplace",
        "label": "uint256[47]",
        "numberOfBytes": "1504"
      },
      "t_array(t_uint256)49_storage": {
        "base": "t_uint256",
        "encoding": "inplace",
        "label": "uint256[49]",
        "numberOfBytes": "1568"
      },
      "t_array(t_uint256)50_storage": {
        "base": "t_uint256",
        "encoding": "inplace",
        "label": "uint256[50]",
        "numberOfBytes": "1600"
      },
      "t_bool": {
        "encoding": "inplace",
        "label": "bool",
        "numberOfBytes": "1"
      },
      "t_bytes32": {
        "encoding": "inplace",
        "label": "bytes32",
        "numberOfBytes": "32"
      },
      "t_contract(IService)8011": {
        "encoding": "inplace",
        "label": "contract IService",
        "numberOfBytes": "20"
      },
      "t_enum(TokenType)8345": {
        "encoding": "inplace",
        "label": "enum IToken.TokenType",
        "numberOfBytes": "1"
      },
      "t_mapping(t_address,t_address)": {
        "encoding": "mapping",
        "key": "t_address",
        "label": "mapping(address => address)",
        "numberOfBytes": "32",
        "value": "t_address"
      },
      "t_mapping(t_address,t_array(t_address)dyn_storage)": {
        "encoding": "mapping",
        "key": "t_address",
        "label": "mapping(address => address[])",
        "numberOfBytes": "32",
        "value": "t_array(t_address)dyn_storage"
      },
      "t_mapping(t_address,t_array(t_struct(Checkpoint)1480_storage)dyn_storage)": {
        "encoding": "mapping",
        "key": "t_address",
        "label": "mapping(address => struct ERC20VotesUpgradeable.Checkpoint[])",
        "numberOfBytes": "32",
        "value": "t_array(t_struct(Checkpoint)1480_storage)dyn_storage"
      },
      "t_mapping(t_address,t_mapping(t_address,t_uint256))": {
        "encoding": "mapping",
        "key": "t_address",
        "label": "mapping(address => mapping(address => uint256))",
        "numberOfBytes": "32",
        "value": "t_mapping(t_address,t_uint256)"
      },
      "t_mapping(t_address,t_struct(Counter)2749_storage)": {
        "encoding": "mapping",
        "key": "t_address",
        "label": "mapping(address => struct CountersUpgradeable.Counter)",
        "numberOfBytes": "32",
        "value": "t_struct(Counter)2749_storage"
      },
      "t_mapping(t_address,t_uint256)": {
        "encoding": "mapping",
        "key": "t_address",
        "label": "mapping(address => uint256)",
        "numberOfBytes": "32",
        "value": "t_uint256"
      },
      "t_string_storage": {
        "encoding": "bytes",
        "label": "string",
        "numberOfBytes": "32"
      },
      "t_struct(Checkpoint)1480_storage": {
        "encoding": "inplace",
        "label": "struct ERC20VotesUpgradeable.Checkpoint",
        "members": [
          {
            "astId": 1477,
            "contract": "contracts/Token.sol:Token",
            "label": "fromBlock",
            "offset": 0,
            "slot": "0",
            "type": "t_uint32"
          },
          {
            "astId": 1479,
            "contract": "contracts/Token.sol:Token",
            "label": "votes",
            "offset": 4,
            "slot": "0",
            "type": "t_uint224"
          }
        ],
        "numberOfBytes": "32"
      },
      "t_struct(Counter)2749_storage": {
        "encoding": "inplace",
        "label": "struct CountersUpgradeable.Counter",
        "members": [
          {
            "astId": 2748,
            "contract": "contracts/Token.sol:Token",
            "label": "_value",
            "offset": 0,
            "slot": "0",
            "type": "t_uint256"
          }
        ],
        "numberOfBytes": "32"
      },
      "t_struct(Dividend)6000_storage": {
        "encoding": "inplace",
        "label": "struct Token.Dividend",
        "members": [
          {
            "astId": 5995,
            "contract": "contracts/Token.sol:Token",
            "label": "amount",
            "offset": 0,
            "slot": "0",
            "type": "t_uint256"
          },
          {
            "astId": 5997,
            "contract": "contracts/Token.sol:Token",
            "label": "blockNumber",
            "offset": 0,
            "slot": "1",
            "type": "t_uint256"
          },
          {
            "astId": 5999,
            "contract": "contracts/Token.sol:Token",
            "label": "tokenAddress",
            "offset": 0,
            "slot": "2",
            "type": "t_address"
          }
        ],
        "numberOfBytes": "96"
      },
      "t_uint224": {
        "encoding": "inplace",
        "label": "uint224",
        "numberOfBytes": "28"
      },
      "t_uint256": {
        "encoding": "inplace",
        "label": "uint256",
        "numberOfBytes": "32"
      },
      "t_uint32": {
        "encoding": "inplace",
        "label": "uint32",
        "numberOfBytes": "4"
      },
      "t_uint8": {
        "encoding": "inplace",
        "label": "uint8",
        "numberOfBytes": "1"
      }
    }
  }
}