{
  "address": "0x03caD3A64f74295Bf8d30a73569fB3c7E438Ef78",
  "abi": [
    {
      "inputs": [],
      "stateMutability": "nonpayable",
      "type": "constructor"
    },
    {
      "anonymous": false,
      "inputs": [
        {
          "indexed": false,
          "internalType": "uint8",
          "name": "version",
          "type": "uint8"
        }
      ],
      "name": "Initialized",
      "type": "event"
    },
    {
      "anonymous": false,
      "inputs": [
        {
          "indexed": false,
          "internalType": "address",
          "name": "buyer",
          "type": "address"
        },
        {
          "indexed": false,
          "internalType": "uint256",
          "name": "amount",
          "type": "uint256"
        }
      ],
      "name": "Purchased",
      "type": "event"
    },
    {
      "inputs": [],
      "name": "createdAt",
      "outputs": [
        {
          "internalType": "uint256",
          "name": "",
          "type": "uint256"
        }
      ],
      "stateMutability": "view",
      "type": "function"
    },
    {
      "inputs": [
        {
          "internalType": "address",
          "name": "account",
          "type": "address"
        },
        {
          "internalType": "uint256",
          "name": "amount",
          "type": "uint256"
        }
      ],
      "name": "externalPurchase",
      "outputs": [],
      "stateMutability": "nonpayable",
      "type": "function"
    },
    {
      "inputs": [],
      "name": "finishTSE",
      "outputs": [],
      "stateMutability": "nonpayable",
      "type": "function"
    },
    {
      "inputs": [],
      "name": "getEnd",
      "outputs": [
        {
          "internalType": "uint256",
          "name": "",
          "type": "uint256"
        }
      ],
      "stateMutability": "view",
      "type": "function"
    },
    {
      "inputs": [],
      "name": "getInfo",
      "outputs": [
        {
          "components": [
            {
              "internalType": "uint256",
              "name": "amount",
              "type": "uint256"
            },
            {
              "internalType": "uint256",
              "name": "price",
              "type": "uint256"
            },
            {
              "internalType": "uint256",
              "name": "minPurchase",
              "type": "uint256"
            },
            {
              "internalType": "uint256",
              "name": "maxPurchase",
              "type": "uint256"
            },
            {
              "internalType": "uint256",
              "name": "duration",
              "type": "uint256"
            },
            {
              "internalType": "address[]",
              "name": "userWhitelist",
              "type": "address[]"
            },
            {
              "internalType": "address",
              "name": "unitOfAccount",
              "type": "address"
            }
          ],
          "internalType": "struct ITSE.TSEInfo",
          "name": "",
          "type": "tuple"
        }
      ],
      "stateMutability": "view",
      "type": "function"
    },
    {
      "inputs": [
        {
          "internalType": "uint256",
          "name": "amount",
          "type": "uint256"
        }
      ],
      "name": "getPartnerFee",
      "outputs": [
        {
          "internalType": "uint256",
          "name": "",
          "type": "uint256"
        }
      ],
      "stateMutability": "view",
      "type": "function"
    },
    {
      "inputs": [
        {
          "internalType": "uint256",
          "name": "amount",
          "type": "uint256"
        }
      ],
      "name": "getServiceFee",
      "outputs": [
        {
          "internalType": "uint256",
          "name": "",
          "type": "uint256"
        }
      ],
      "stateMutability": "view",
      "type": "function"
    },
    {
      "inputs": [],
      "name": "getTotalPurchasedValue",
      "outputs": [
        {
          "internalType": "uint256",
          "name": "",
          "type": "uint256"
        }
      ],
      "stateMutability": "view",
      "type": "function"
    },
    {
      "inputs": [],
      "name": "getTrustedForwarder",
      "outputs": [
        {
          "internalType": "address",
          "name": "",
          "type": "address"
        }
      ],
      "stateMutability": "view",
      "type": "function"
    },
    {
      "inputs": [],
      "name": "getUserWhitelist",
      "outputs": [
        {
          "internalType": "address[]",
          "name": "",
          "type": "address[]"
        }
      ],
      "stateMutability": "view",
      "type": "function"
    },
    {
      "inputs": [],
      "name": "info",
      "outputs": [
        {
          "internalType": "uint256",
          "name": "amount",
          "type": "uint256"
        },
        {
          "internalType": "uint256",
          "name": "price",
          "type": "uint256"
        },
        {
          "internalType": "uint256",
          "name": "minPurchase",
          "type": "uint256"
        },
        {
          "internalType": "uint256",
          "name": "maxPurchase",
          "type": "uint256"
        },
        {
          "internalType": "uint256",
          "name": "duration",
          "type": "uint256"
        },
        {
          "internalType": "address",
          "name": "unitOfAccount",
          "type": "address"
        }
      ],
      "stateMutability": "view",
      "type": "function"
    },
    {
      "inputs": [
        {
          "internalType": "address",
          "name": "_token",
          "type": "address"
        },
        {
          "internalType": "uint256",
          "name": "_tokenId",
          "type": "uint256"
        },
        {
          "components": [
            {
              "internalType": "uint256",
              "name": "amount",
              "type": "uint256"
            },
            {
              "internalType": "uint256",
              "name": "price",
              "type": "uint256"
            },
            {
              "internalType": "uint256",
              "name": "minPurchase",
              "type": "uint256"
            },
            {
              "internalType": "uint256",
              "name": "maxPurchase",
              "type": "uint256"
            },
            {
              "internalType": "uint256",
              "name": "duration",
              "type": "uint256"
            },
            {
              "internalType": "address[]",
              "name": "userWhitelist",
              "type": "address[]"
            },
            {
              "internalType": "address",
              "name": "unitOfAccount",
              "type": "address"
            }
          ],
          "internalType": "struct ITSE.TSEInfo",
          "name": "_info",
          "type": "tuple"
        },
        {
          "internalType": "address",
          "name": "_seller",
          "type": "address"
        },
        {
          "internalType": "address",
          "name": "_recipient",
          "type": "address"
        }
      ],
      "name": "initialize",
      "outputs": [],
      "stateMutability": "nonpayable",
      "type": "function"
    },
    {
      "inputs": [],
      "name": "isERC1155TSE",
      "outputs": [
        {
          "internalType": "bool",
          "name": "",
          "type": "bool"
        }
      ],
      "stateMutability": "view",
      "type": "function"
    },
    {
      "inputs": [
        {
          "internalType": "address",
          "name": "forwarder",
          "type": "address"
        }
      ],
      "name": "isTrustedForwarder",
      "outputs": [
        {
          "internalType": "bool",
          "name": "",
          "type": "bool"
        }
      ],
      "stateMutability": "view",
      "type": "function"
    },
    {
      "inputs": [
        {
          "internalType": "address",
          "name": "account",
          "type": "address"
        }
      ],
      "name": "isUserWhitelisted",
      "outputs": [
        {
          "internalType": "bool",
          "name": "",
          "type": "bool"
        }
      ],
      "stateMutability": "view",
      "type": "function"
    },
    {
      "inputs": [
        {
          "internalType": "address",
          "name": "account",
          "type": "address"
        }
      ],
      "name": "maxPurchaseOf",
      "outputs": [
        {
          "internalType": "uint256",
          "name": "",
          "type": "uint256"
        }
      ],
      "stateMutability": "view",
      "type": "function"
    },
    {
      "inputs": [
        {
          "internalType": "address",
          "name": "",
          "type": "address"
        },
        {
          "internalType": "address",
          "name": "",
          "type": "address"
        },
        {
          "internalType": "uint256[]",
          "name": "",
          "type": "uint256[]"
        },
        {
          "internalType": "uint256[]",
          "name": "",
          "type": "uint256[]"
        },
        {
          "internalType": "bytes",
          "name": "",
          "type": "bytes"
        }
      ],
      "name": "onERC1155BatchReceived",
      "outputs": [
        {
          "internalType": "bytes4",
          "name": "",
          "type": "bytes4"
        }
      ],
      "stateMutability": "nonpayable",
      "type": "function"
    },
    {
      "inputs": [
        {
          "internalType": "address",
          "name": "",
          "type": "address"
        },
        {
          "internalType": "address",
          "name": "",
          "type": "address"
        },
        {
          "internalType": "uint256",
          "name": "",
          "type": "uint256"
        },
        {
          "internalType": "uint256",
          "name": "",
          "type": "uint256"
        },
        {
          "internalType": "bytes",
          "name": "",
          "type": "bytes"
        }
      ],
      "name": "onERC1155Received",
      "outputs": [
        {
          "internalType": "bytes4",
          "name": "",
          "type": "bytes4"
        }
      ],
      "stateMutability": "nonpayable",
      "type": "function"
    },
    {
      "inputs": [
        {
          "internalType": "address",
          "name": "account",
          "type": "address"
        },
        {
          "internalType": "uint256",
          "name": "amount",
          "type": "uint256"
        }
      ],
      "name": "proceedPurchase",
      "outputs": [],
      "stateMutability": "nonpayable",
      "type": "function"
    },
    {
      "inputs": [
        {
          "internalType": "uint256",
          "name": "amount",
          "type": "uint256"
        }
      ],
      "name": "purchase",
      "outputs": [],
      "stateMutability": "payable",
      "type": "function"
    },
    {
      "inputs": [
        {
          "internalType": "address",
          "name": "",
          "type": "address"
        }
      ],
      "name": "purchaseOf",
      "outputs": [
        {
          "internalType": "uint256",
          "name": "",
          "type": "uint256"
        }
      ],
      "stateMutability": "view",
      "type": "function"
    },
    {
      "inputs": [],
      "name": "recipient",
      "outputs": [
        {
          "internalType": "address",
          "name": "",
          "type": "address"
        }
      ],
      "stateMutability": "view",
      "type": "function"
    },
    {
      "inputs": [],
      "name": "seller",
      "outputs": [
        {
          "internalType": "address",
          "name": "",
          "type": "address"
        }
      ],
      "stateMutability": "view",
      "type": "function"
    },
    {
      "inputs": [],
      "name": "state",
      "outputs": [
        {
          "internalType": "enum ITSE.State",
          "name": "",
          "type": "uint8"
        }
      ],
      "stateMutability": "view",
      "type": "function"
    },
    {
      "inputs": [
        {
          "internalType": "bytes4",
          "name": "interfaceId",
          "type": "bytes4"
        }
      ],
      "name": "supportsInterface",
      "outputs": [
        {
          "internalType": "bool",
          "name": "",
          "type": "bool"
        }
      ],
      "stateMutability": "view",
      "type": "function"
    },
    {
      "inputs": [],
      "name": "token",
      "outputs": [
        {
          "internalType": "address",
          "name": "",
          "type": "address"
        }
      ],
      "stateMutability": "view",
      "type": "function"
    },
    {
      "inputs": [],
      "name": "tokenId",
      "outputs": [
        {
          "internalType": "uint256",
          "name": "",
          "type": "uint256"
        }
      ],
      "stateMutability": "view",
      "type": "function"
    },
    {
      "inputs": [],
      "name": "totalPurchased",
      "outputs": [
        {
          "internalType": "uint256",
          "name": "",
          "type": "uint256"
        }
      ],
      "stateMutability": "view",
      "type": "function"
    },
    {
      "inputs": [
        {
          "internalType": "address",
          "name": "account",
          "type": "address"
        },
        {
          "internalType": "uint256",
          "name": "amount",
          "type": "uint256"
        }
      ],
      "name": "validatePurchase",
      "outputs": [
        {
          "internalType": "bool",
          "name": "",
          "type": "bool"
        }
      ],
      "stateMutability": "view",
      "type": "function"
    },
    {
      "stateMutability": "payable",
      "type": "receive"
    }
  ],
  "transactionHash": "0x7256b11f9576641270c600bfa5d05414f30c06f7aaf62b5ee3de5bc336641ec1",
  "args": [],
  "numDeployments": 4,
  "solcInputHash": "fd44e7e982b8bc3fb476930c68499750",
  "bytecode": "0x60806040523480156200001157600080fd5b506200001c62000022565b620000e4565b600054610100900460ff16156200008f5760405162461bcd60e51b815260206004820152602760248201527f496e697469616c697a61626c653a20636f6e747261637420697320696e697469604482015266616c697a696e6760c81b606482015260840160405180910390fd5b60005460ff9081161015620000e2576000805460ff191660ff9081179091556040519081527f7f26b83ff96e1f2b6a682f133852f6798a09c465da95921460cefb38474024989060200160405180910390a15b565b612dfa80620000f46000396000f3fe6080604052600436106101c65760003560e01c8063733c64dd116100f7578063cf09e0d011610095578063efef39a111610064578063efef39a11461055c578063f23a6e611461056f578063fb237eb21461059b578063fc0c546a146105bb57600080fd5b8063cf09e0d0146104f9578063d4e5cd911461050f578063e411d9a914610524578063e632c2f31461054657600080fd5b8063bc197c81116100d1578063bc197c8114610450578063bf7fec0814610495578063c19d93fb146104c2578063ce1b815f146104e457600080fd5b8063733c64dd1461040657806385e889af1461041b5780639f05a36d1461043b57600080fd5b806342ee5d84116101645780635a9b0b891161013e5780635a9b0b891461038f57806366d003ac146103b157806367887a77146103d157806367b1a43f146103e657600080fd5b806342ee5d841461032f578063556db16a1461034f578063572b6c051461036f57600080fd5b80631d4ce500116101a05780631d4ce50014610263578063313f944f14610283578063370158ea146102a55780633b573cd31461030f57600080fd5b806301ffc9a7146101d257806308551a531461020757806317d70f7c1461023f57600080fd5b366101cd57005b600080fd5b3480156101de57600080fd5b506101f26101ed36600461257e565b6105db565b60405190151581526020015b60405180910390f35b34801561021357600080fd5b5060ca54610227906001600160a01b031681565b6040516001600160a01b0390911681526020016101fe565b34801561024b57600080fd5b5061025560cc5481565b6040519081526020016101fe565b34801561026f57600080fd5b5061025561027e3660046125a8565b610612565b34801561028f57600080fd5b506102a361029e3660046125d9565b610704565b005b3480156102b157600080fd5b5060cd5460ce5460cf5460d05460d15460d3546102d99594939291906001600160a01b031686565b60408051968752602087019590955293850192909252606084015260808301526001600160a01b031660a082015260c0016101fe565b34801561031b57600080fd5b506102a361032a3660046125d9565b610aa8565b34801561033b57600080fd5b5061025561034a366004612605565b610e69565b34801561035b57600080fd5b506101f261036a3660046125d9565b610ebe565b34801561037b57600080fd5b506101f261038a366004612605565b610eec565b34801561039b57600080fd5b506103a4610f11565b6040516101fe9190612622565b3480156103bd57600080fd5b5060c954610227906001600160a01b031681565b3480156103dd57600080fd5b50610255611006565b3480156103f257600080fd5b506102a36104013660046126c9565b611033565b34801561041257600080fd5b506102a3611237565b34801561042757600080fd5b506102556104363660046125a8565b611716565b34801561044757600080fd5b5061025561176f565b34801561045c57600080fd5b5061047c61046b36600461287b565b63bc197c8160e01b95945050505050565b6040516001600160e01b031990911681526020016101fe565b3480156104a157600080fd5b506102556104b0366004612605565b60d66020526000908152604090205481565b3480156104ce57600080fd5b506104d7611781565b6040516101fe919061293f565b3480156104f057600080fd5b506102276117e5565b34801561050557600080fd5b5061025560d55481565b34801561051b57600080fd5b506101f26118b4565b34801561053057600080fd5b506105396118cc565b6040516101fe9190612967565b34801561055257600080fd5b5061025560d75481565b6102a361056a3660046125a8565b611931565b34801561057b57600080fd5b5061047c61058a3660046129b4565b63f23a6e6160e01b95945050505050565b3480156105a757600080fd5b506101f26105b6366004612605565b612007565b3480156105c757600080fd5b5060cb54610227906001600160a01b031681565b60006001600160e01b03198216630271189760e51b148061060c57506301ffc9a760e01b6001600160e01b03198316145b92915050565b6000620f424060cb60009054906101000a90046001600160a01b03166001600160a01b031663d598d4c96040518163ffffffff1660e01b8152600401602060405180830381865afa15801561066b573d6000803e3d6000fd5b505050506040513d601f19601f8201168201806040525081019061068f9190612a1d565b6001600160a01b0316638abdf5aa6040518163ffffffff1660e01b8152600401602060405180830381865afa1580156106cc573d6000803e3d6000fd5b505050506040513d601f19601f820116820180604052508101906106f09190612a3a565b6106fa9084612a69565b61060c9190612a80565b60cb546040805163d598d4c960e01b815290516000926001600160a01b03169163d598d4c99160048083019260209291908290030181865afa15801561074e573d6000803e3d6000fd5b505050506040513d601f19601f820116820180604052508101906107729190612a1d565b9050806001600160a01b03166391d14854826001600160a01b031663c979e8a76040518163ffffffff1660e01b8152600401602060405180830381865afa1580156107c1573d6000803e3d6000fd5b505050506040513d601f19601f820116820180604052508101906107e59190612a3a565b6107ed612033565b6040516001600160e01b031960e085901b16815260048101929092526001600160a01b03166024820152604401602060405180830381865afa158015610837573d6000803e3d6000fd5b505050506040513d601f19601f8201168201806040525081019061085b9190612aa2565b6040518060400160405280600f81526020016e1393d517d5d2125511531254d51151608a1b815250906108aa5760405162461bcd60e51b81526004016108a19190612b14565b60405180910390fd5b506000806108b6611781565b60028111156108c7576108c7612929565b146040518060400160405280600b81526020016a57524f4e475f535441544560a81b8152509061090a5760405162461bcd60e51b81526004016108a19190612b14565b5061091361203d565b60cb60009054906101000a90046001600160a01b03166001600160a01b03166316f0115b6040518163ffffffff1660e01b8152600401602060405180830381865afa158015610966573d6000803e3d6000fd5b505050506040513d601f19601f8201168201806040525081019061098a9190612a1d565b6001600160a01b0316635c975abb6040518163ffffffff1660e01b8152600401602060405180830381865afa1580156109c7573d6000803e3d6000fd5b505050506040513d601f19601f820116820180604052508101906109eb9190612aa2565b156040518060400160405280600e81526020016d14d154959250d157d4105554d15160921b81525090610a315760405162461bcd60e51b81526004016108a19190612b14565b50604051633b573cd360e01b81526001600160a01b0385166004820152602481018490523090633b573cd390604401600060405180830381600087803b158015610a7a57600080fd5b505af1925050508015610a8b575060015b610a9957610a998484612096565b610aa260018055565b50505050565b30610ab1612033565b6001600160a01b0316146040518060400160405280600c81526020016b24a72b20a624a22faaa9a2a960a11b81525090610afe5760405162461bcd60e51b81526004016108a19190612b14565b50610b098282610ebe565b6040518060400160405280601781526020017f494e56414c49445f50555243484153455f414d4f554e5400000000000000000081525090610b5d5760405162461bcd60e51b81526004016108a19190612b14565b508060d76000828254610b709190612b27565b90915550506001600160a01b038216600090815260d6602052604081208054839290610b9d908490612b27565b90915550610bab90506118b4565b15610c2b5760cb5460cc54604051630208d92960e11b81523060048201526001600160a01b038581166024830152604482019290925260648101849052911690630411b25290608401600060405180830381600087803b158015610c0e57600080fd5b505af1158015610c22573d6000803e3d6000fd5b50505050610ca4565b60cb5460405163a9059cbb60e01b81526001600160a01b038481166004830152602482018490529091169063a9059cbb906044016020604051808303816000875af1158015610c7e573d6000803e3d6000fd5b505050506040513d601f19601f82011682018060405250810190610ca29190612aa2565b505b604080516001600160a01b0384168152602081018390527fa512fb2532ca8587f236380171326ebb69670e86a2ba0c4412a3fcca4c3ada9b910160405180910390a160cb60009054906101000a90046001600160a01b03166001600160a01b031663d598d4c96040518163ffffffff1660e01b8152600401602060405180830381865afa158015610d39573d6000803e3d6000fd5b505050506040513d601f19601f82011682018060405250810190610d5d9190612a1d565b6001600160a01b0316637b1039996040518163ffffffff1660e01b8152600401602060405180830381865afa158015610d9a573d6000803e3d6000fd5b505050506040513d601f19601f82011682018060405250810190610dbe9190612a1d565b6001600160a01b0316634dbb83fd8330600063efef39a160e01b86604051602401610deb91815260200190565b60408051601f198184030181529181526020820180516001600160e01b03166001600160e01b03199485161790525160e087901b9092168252610e3394939291600401612b3a565b600060405180830381600087803b158015610e4d57600080fd5b505af1158015610e61573d6000803e3d6000fd5b505050505050565b6000610e7482612007565b610e8057506000919050565b6001600160a01b038216600090815260d6602052604090205460d05461060c91610ea991612b6d565b60d75460cd54610eb99190612b6d565b612114565b60008082118015610ed1575060cf548210155b8015610ee55750610ee183610e69565b8211155b9392505050565b6000610ef66117e5565b6001600160a01b0316826001600160a01b0316149050919050565b610f5a6040518060e0016040528060008152602001600081526020016000815260200160008152602001600081526020016060815260200160006001600160a01b031681525090565b6040805160e08101825260cd8054825260ce5460208084019190915260cf548385015260d054606084015260d154608084015260d280548551818402810184019096528086529394929360a086019392830182828015610fe357602002820191906000526020600020905b81546001600160a01b03168152600190910190602001808311610fc5575b5050509183525050600691909101546001600160a01b0316602090910152919050565b6000670de0b6b3a764000060cd6001015460d7546110249190612a69565b61102e9190612a80565b905090565b600054610100900460ff16158080156110535750600054600160ff909116105b8061106d5750303b15801561106d575060005460ff166001145b6110d05760405162461bcd60e51b815260206004820152602e60248201527f496e697469616c697a61626c653a20636f6e747261637420697320616c72656160448201526d191e481a5b9a5d1a585b1a5e995960921b60648201526084016108a1565b6000805460ff1916600117905580156110f3576000805461ff0019166101001790555b6110fb61212a565b60cc85905560cb80546001600160a01b0319166001600160a01b0388161790558360cd6111288282612c77565b505060ca80546001600160a01b038086166001600160a01b03199283161790925560c980549285169290911691909117905560005b61116a60a0860186612b80565b90508110156111e557600160d4600061118660a0890189612b80565b8581811061119657611196612d2e565b90506020020160208101906111ab9190612605565b6001600160a01b031681526020810191909152604001600020805460ff1916911515919091179055806111dd81612d44565b91505061115d565b504360d5558015610e61576000805461ff0019169055604051600181527f7f26b83ff96e1f2b6a682f133852f6798a09c465da95921460cefb38474024989060200160405180910390a1505050505050565b60cb60009054906101000a90046001600160a01b03166001600160a01b03166316f0115b6040518163ffffffff1660e01b8152600401602060405180830381865afa15801561128a573d6000803e3d6000fd5b505050506040513d601f19601f820116820180604052508101906112ae9190612a1d565b6001600160a01b0316635c975abb6040518163ffffffff1660e01b8152600401602060405180830381865afa1580156112eb573d6000803e3d6000fd5b505050506040513d601f19601f8201168201806040525081019061130f9190612aa2565b156040518060400160405280600e81526020016d14d154959250d157d4105554d15160921b815250906113555760405162461bcd60e51b81526004016108a19190612b14565b5060ca546001600160a01b031661136a612033565b6001600160a01b0316146040518060400160405280600c81526020016b24a72b20a624a22faaa9a2a960a11b815250906113b75760405162461bcd60e51b81526004016108a19190612b14565b5060d75460cd556113c66118b4565b156114c25760cb5460ca5460cc54604051627eeac760e11b81523060048201819052602482018390526001600160a01b0394851694630411b252949193911691859062fdd58e90604401602060405180830381865afa15801561142d573d6000803e3d6000fd5b505050506040513d601f19601f820116820180604052508101906114519190612a3a565b6040516001600160e01b031960e087901b1681526001600160a01b03948516600482015293909216602484015260448301526064820152608401600060405180830381600087803b1580156114a557600080fd5b505af11580156114b9573d6000803e3d6000fd5b505050506115ac565b60cb5460ca546040516370a0823160e01b81523060048201526001600160a01b039283169263a9059cbb92169083906370a0823190602401602060405180830381865afa158015611517573d6000803e3d6000fd5b505050506040513d601f19601f8201168201806040525081019061153b9190612a3a565b6040516001600160e01b031960e085901b1681526001600160a01b03909216600483015260248201526044016020604051808303816000875af1158015611586573d6000803e3d6000fd5b505050506040513d601f19601f820116820180604052508101906115aa9190612aa2565b505b60cb60009054906101000a90046001600160a01b03166001600160a01b031663d598d4c96040518163ffffffff1660e01b8152600401602060405180830381865afa1580156115ff573d6000803e3d6000fd5b505050506040513d601f19601f820116820180604052508101906116239190612a1d565b6001600160a01b0316637b1039996040518163ffffffff1660e01b8152600401602060405180830381865afa158015611660573d6000803e3d6000fd5b505050506040513d601f19601f820116820180604052508101906116849190612a1d565b6001600160a01b0316634dbb83fd61169a612033565b6040805160048082526024820183526020820180516001600160e01b031663733c64dd60e01b179052915160e085901b6001600160e01b03191681526116e893923092600092909101612b3a565b600060405180830381600087803b15801561170257600080fd5b505af1158015610aa2573d6000803e3d6000fd5b6000620f424060cb60009054906101000a90046001600160a01b03166001600160a01b0316635b99176c6040518163ffffffff1660e01b8152600401602060405180830381865afa1580156106cc573d6000803e3d6000fd5b60d15460d55460009161102e91612b27565b600060cd6000015460d754036117975750600290565b60d15460d5546117a79190612b27565b4310156117b45750600090565b60d15460d5546117c49190612b27565b431180156117d45750600060d754115b156117df5750600290565b50600190565b60cb546040805163d598d4c960e01b815290516000926001600160a01b03169163d598d4c99160048083019260209291908290030181865afa15801561182f573d6000803e3d6000fd5b505050506040513d601f19601f820116820180604052508101906118539190612a1d565b6001600160a01b031663ce1b815f6040518163ffffffff1660e01b8152600401602060405180830381865afa158015611890573d6000803e3d6000fd5b505050506040513d601f19601f8201168201806040525081019061102e9190612a1d565b600060cc546000146118c65750600190565b50600090565b606060cd60050180548060200260200160405190810160405280929190818152602001828054801561192757602002820191906000526020600020905b81546001600160a01b03168152600190910190602001808311611909575b5050505050905090565b61193c6105b6612033565b6040518060400160405280600f81526020016e1393d517d5d2125511531254d51151608a1b815250906119825760405162461bcd60e51b81526004016108a19190612b14565b5060008061198e611781565b600281111561199f5761199f612929565b146040518060400160405280600b81526020016a57524f4e475f535441544560a81b815250906119e25760405162461bcd60e51b81526004016108a19190612b14565b506119eb61203d565b60cb60009054906101000a90046001600160a01b03166001600160a01b03166316f0115b6040518163ffffffff1660e01b8152600401602060405180830381865afa158015611a3e573d6000803e3d6000fd5b505050506040513d601f19601f82011682018060405250810190611a629190612a1d565b6001600160a01b0316635c975abb6040518163ffffffff1660e01b8152600401602060405180830381865afa158015611a9f573d6000803e3d6000fd5b505050506040513d601f19601f82011682018060405250810190611ac39190612aa2565b156040518060400160405280600e81526020016d14d154959250d157d4105554d15160921b81525090611b095760405162461bcd60e51b81526004016108a19190612b14565b5060d35460ce546001600160a01b0390911690600090670de0b6b3a764000090611b339086612a69565b611b4590670de0b6b3a763ffff612b27565b611b4f9190612a80565b90506000611b5c82610612565b90506000611b6983611716565b905060006001600160a01b038516611d6a5781611b868486612b27565b611b909190612b27565b3410156040518060400160405280600c81526020016b15d493d391d7d05353d5539560a21b81525090611bd65760405162461bcd60e51b81526004016108a19190612b14565b508215611cc857611cc88360cb60009054906101000a90046001600160a01b03166001600160a01b031663d598d4c96040518163ffffffff1660e01b8152600401602060405180830381865afa158015611c34573d6000803e3d6000fd5b505050506040513d601f19601f82011682018060405250810190611c589190612a1d565b6001600160a01b031663803db96d6040518163ffffffff1660e01b8152600401602060405180830381865afa158015611c95573d6000803e3d6000fd5b505050506040513d601f19601f82011682018060405250810190611cb99190612a1d565b6001600160a01b03169061215b565b8115611d2557611d258260cb60009054906101000a90046001600160a01b03166001600160a01b031663576168fc6040518163ffffffff1660e01b8152600401602060405180830381865afa158015611c95573d6000803e3d6000fd5b5060c95447906001600160a01b031615611d545760c954611d4f906001600160a01b03168261215b565b611f87565b60ca54611d4f906001600160a01b03168261215b565b8215611e515760cb546040805163d598d4c960e01b81529051611e51926001600160a01b03169163d598d4c99160048083019260209291908290030181865afa158015611dbb573d6000803e3d6000fd5b505050506040513d601f19601f82011682018060405250810190611ddf9190612a1d565b6001600160a01b031663803db96d6040518163ffffffff1660e01b8152600401602060405180830381865afa158015611e1c573d6000803e3d6000fd5b505050506040513d601f19601f82011682018060405250810190611e409190612a1d565b6001600160a01b0387169085612274565b8115611ed75760cb54604080516315d85a3f60e21b81529051611ed7926001600160a01b03169163576168fc9160048083019260209291908290030181865afa158015611ea2573d6000803e3d6000fd5b505050506040513d601f19601f82011682018060405250810190611ec69190612a1d565b6001600160a01b0387169084612274565b6040516370a0823160e01b81523060048201526001600160a01b038616906370a0823190602401602060405180830381865afa158015611f1b573d6000803e3d6000fd5b505050506040513d601f19601f82011682018060405250810190611f3f9190612a3a565b60c9549091506001600160a01b031615611f6d5760c954611d4f906001600160a01b03878116911683612274565b60ca54611f87906001600160a01b03878116911683612274565b30633b573cd3611f95612033565b6040516001600160e01b031960e084901b1681526001600160a01b039091166004820152602481018a9052604401600060405180830381600087803b158015611fdd57600080fd5b505af1158015611ff1573d6000803e3d6000fd5b50505050505050505061200360018055565b5050565b60d254600090158061060c5750506001600160a01b0316600090815260d4602052604090205460ff1690565b600061102e6122c6565b60026001540361208f5760405162461bcd60e51b815260206004820152601f60248201527f5265656e7472616e637947756172643a207265656e7472616e742063616c6c0060448201526064016108a1565b6002600155565b60ce54600090670de0b6b3a7640000906120b09084612a69565b6120c290670de0b6b3a763ffff612b27565b6120cc9190612a80565b60d3549091506001600160a01b03166120f7576120f26001600160a01b0384168261215b565b505050565b60d3546120f2906001600160a01b03168483612274565b60018055565b60008183106121235781610ee5565b5090919050565b600054610100900460ff166121515760405162461bcd60e51b81526004016108a190612d5d565b6121596122f5565b565b804710156121ab5760405162461bcd60e51b815260206004820152601d60248201527f416464726573733a20696e73756666696369656e742062616c616e636500000060448201526064016108a1565b6000826001600160a01b03168260405160006040518083038185875af1925050503d80600081146121f8576040519150601f19603f3d011682016040523d82523d6000602084013e6121fd565b606091505b50509050806120f25760405162461bcd60e51b815260206004820152603a60248201527f416464726573733a20756e61626c6520746f2073656e642076616c75652c207260448201527f6563697069656e74206d6179206861766520726576657274656400000000000060648201526084016108a1565b604080516001600160a01b038416602482015260448082018490528251808303909101815260649091019091526020810180516001600160e01b031663a9059cbb60e01b1790526120f290849061231c565b60006122d133610eec565b80156122de575060143610155b156122f0575060131936013560601c90565b503390565b600054610100900460ff1661210e5760405162461bcd60e51b81526004016108a190612d5d565b6000612371826040518060400160405280602081526020017f5361666545524332303a206c6f772d6c6576656c2063616c6c206661696c6564815250856001600160a01b03166123ee9092919063ffffffff16565b8051909150156120f2578080602001905181019061238f9190612aa2565b6120f25760405162461bcd60e51b815260206004820152602a60248201527f5361666545524332303a204552433230206f7065726174696f6e20646964206e6044820152691bdd081cdd58d8d9595960b21b60648201526084016108a1565b60606123fd8484600085612405565b949350505050565b6060824710156124665760405162461bcd60e51b815260206004820152602660248201527f416464726573733a20696e73756666696369656e742062616c616e636520666f6044820152651c8818d85b1b60d21b60648201526084016108a1565b600080866001600160a01b031685876040516124829190612da8565b60006040518083038185875af1925050503d80600081146124bf576040519150601f19603f3d011682016040523d82523d6000602084013e6124c4565b606091505b50915091506124d5878383876124e0565b979650505050505050565b6060831561254f578251600003612548576001600160a01b0385163b6125485760405162461bcd60e51b815260206004820152601d60248201527f416464726573733a2063616c6c20746f206e6f6e2d636f6e747261637400000060448201526064016108a1565b50816123fd565b6123fd83838151156125645781518083602001fd5b8060405162461bcd60e51b81526004016108a19190612b14565b60006020828403121561259057600080fd5b81356001600160e01b031981168114610ee557600080fd5b6000602082840312156125ba57600080fd5b5035919050565b6001600160a01b03811681146125d657600080fd5b50565b600080604083850312156125ec57600080fd5b82356125f7816125c1565b946020939093013593505050565b60006020828403121561261757600080fd5b8135610ee5816125c1565b6000602080835261010083018451828501528185015160408501526040850151606085015260608501516080850152608085015160a085015260a085015160e060c0860152818151808452610120870191508483019350600092505b808310156126a75783516001600160a01b0316825292840192600192909201919084019061267e565b5060c08701516001600160a01b03811660e088015293505b9695505050505050565b600080600080600060a086880312156126e157600080fd5b85356126ec816125c1565b945060208601359350604086013567ffffffffffffffff81111561270f57600080fd5b860160e0818903121561272157600080fd5b92506060860135612731816125c1565b91506080860135612741816125c1565b809150509295509295909350565b634e487b7160e01b600052604160045260246000fd5b604051601f8201601f1916810167ffffffffffffffff8111828210171561278e5761278e61274f565b604052919050565b600082601f8301126127a757600080fd5b8135602067ffffffffffffffff8211156127c3576127c361274f565b8160051b6127d2828201612765565b92835284810182019282810190878511156127ec57600080fd5b83870192505b848310156124d5578235825291830191908301906127f2565b600082601f83011261281c57600080fd5b813567ffffffffffffffff8111156128365761283661274f565b612849601f8201601f1916602001612765565b81815284602083860101111561285e57600080fd5b816020850160208301376000918101602001919091529392505050565b600080600080600060a0868803121561289357600080fd5b853561289e816125c1565b945060208601356128ae816125c1565b9350604086013567ffffffffffffffff808211156128cb57600080fd5b6128d789838a01612796565b945060608801359150808211156128ed57600080fd5b6128f989838a01612796565b9350608088013591508082111561290f57600080fd5b5061291c8882890161280b565b9150509295509295909350565b634e487b7160e01b600052602160045260246000fd5b602081016003831061296157634e487b7160e01b600052602160045260246000fd5b91905290565b6020808252825182820181905260009190848201906040850190845b818110156129a85783516001600160a01b031683529284019291840191600101612983565b50909695505050505050565b600080600080600060a086880312156129cc57600080fd5b85356129d7816125c1565b945060208601356129e7816125c1565b93506040860135925060608601359150608086013567ffffffffffffffff811115612a1157600080fd5b61291c8882890161280b565b600060208284031215612a2f57600080fd5b8151610ee5816125c1565b600060208284031215612a4c57600080fd5b5051919050565b634e487b7160e01b600052601160045260246000fd5b808202811582820484141761060c5761060c612a53565b600082612a9d57634e487b7160e01b600052601260045260246000fd5b500490565b600060208284031215612ab457600080fd5b81518015158114610ee557600080fd5b60005b83811015612adf578181015183820152602001612ac7565b50506000910152565b60008151808452612b00816020860160208601612ac4565b601f01601f19169290920160200192915050565b602081526000610ee56020830184612ae8565b8082018082111561060c5761060c612a53565b6001600160a01b03858116825284166020820152604081018390526080606082018190526000906126bf90830184612ae8565b8181038181111561060c5761060c612a53565b6000808335601e19843603018112612b9757600080fd5b83018035915067ffffffffffffffff821115612bb257600080fd5b6020019150600581901b3603821315612bca57600080fd5b9250929050565b6000813561060c816125c1565b67ffffffffffffffff831115612bf657612bf661274f565b68010000000000000000831115612c0f57612c0f61274f565b805483825580841015612c46576000828152602081208581019083015b80821015612c4257828255600182019150612c2c565b5050505b5060008181526020812083915b85811015610e6157612c6483612bd1565b8282015560209290920191600101612c53565b813581556020820135600182015560408201356002820155606082013560038201556080820135600482015560a0820135601e19833603018112612cba57600080fd5b8201803567ffffffffffffffff811115612cd357600080fd5b6020820191508060051b3603821315612ceb57600080fd5b612cf9818360058601612bde565b5050612003612d0a60c08401612bd1565b6006830180546001600160a01b0319166001600160a01b0392909216919091179055565b634e487b7160e01b600052603260045260246000fd5b600060018201612d5657612d56612a53565b5060010190565b6020808252602b908201527f496e697469616c697a61626c653a20636f6e7472616374206973206e6f74206960408201526a6e697469616c697a696e6760a81b606082015260800190565b60008251612dba818460208701612ac4565b919091019291505056fea26469706673582212200c3d57c0ad1790a682c53132d8651840dbcb5ebbb5809d285a66920d0ed5075a64736f6c63430008110033",
  "devdoc": {
    "kind": "dev",
    "methods": {
      "constructor": {
        "custom:oz-upgrades-unsafe-allow": "constructor",
        "details": "This contract uses OpenZeppelin upgrades and has no need for a constructor function. The constructor is replaced with an initializer function. This method disables the initializer feature of the OpenZeppelin upgrades plugin, preventing the initializer methods from being misused."
      },
      "getEnd()": {
        "details": "Returns the block number at which the event ends.",
        "returns": {
          "_0": "uint256 Block number"
        }
      },
      "getTotalPurchasedValue()": {
        "details": "The given getter shows how much info.unitofaccount was collected within this TSE. To do this, the amount of tokens purchased by all buyers is multiplied by info.price.",
        "returns": {
          "_0": "uint256 Total value"
        }
      },
      "getTrustedForwarder()": {
        "details": "Returns the address of the trusted forwarder."
      },
      "getUserWhitelist()": {
        "details": "This method returns the full list of addresses allowed to participate in the TSE.",
        "returns": {
          "_0": "address An array of whitelist addresses"
        }
      },
      "initialize(address,uint256,(uint256,uint256,uint256,uint256,uint256,address[],address),address,address)": {
        "details": "Constructor function, can only be called once. In this method, settings for the TSE event are assigned, such as the contract of the token implemented using TSE, as well as the TSEInfo structure, which includes the parameters of purchase, vesting, and lockup. If no lockup or vesting conditions were set for the TVL value when creating the TSE, then the TVL achievement flag is set to true from the very beginning.",
        "params": {
          "_info": "TSE parameters",
          "_token": "TSE's token",
          "_tokenId": "ERC1155TSE's tokenId (token series)"
        }
      },
      "isERC1155TSE()": {
        "details": "This method indicates whether this event was launched to implement ERC1155 tokens.",
        "returns": {
          "_0": "bool Flag if ERC1155 TSE"
        }
      },
      "isTrustedForwarder(address)": {
        "details": "Indicates whether any particular address is the trusted forwarder."
      },
      "isUserWhitelisted(address)": {
        "details": "Checks if user is whitelisted.",
        "params": {
          "account": "User address"
        },
        "returns": {
          "_0": "'True' if the whitelist is empty (public TSE) or if the address is found in the whitelist, 'False' otherwise."
        }
      },
      "maxPurchaseOf(address)": {
        "details": "Shows the maximum possible number of tokens to be purchased by a specific address, taking into account whether the user is on the white list and 0 what amount of purchases he made within this TSE.",
        "returns": {
          "_0": "Amount of tokens"
        }
      },
      "supportsInterface(bytes4)": {
        "details": "See {IERC165-supportsInterface}."
      }
    },
    "stateVariables": {
      "_isUserWhitelisted": {
        "details": "A TSE can be public or private. To make the event public, simply leave the whitelist empty. The TSE contract can act as an airdrop - a free token distribution. To do this, set the price value to zero. To create a DAO with a finite number of participants, each of whom should receive an equal share of tokens, you can set the whitelist when launching the TSE as a list of the participants' addresses, and set both minPurchase and maxPurchase equal to the expression (hardcap / number of participants). To make the pool obtain DAO status only if the distribution is successful under such conditions for all project participants, you can set the softcap value equal to the hardcap. With these settings, the company will become a DAO only if all the initial participants have an equal voting power."
      },
      "createdAt": {
        "details": "The block on which the TSE contract was deployed and the event begins"
      },
      "info": {
        "details": "Parameters for conducting the TSE, described by the ITSE.sol:TSEInfo interface"
      },
      "purchaseOf": {
        "details": "A mapping that stores the amount of token units purchased by each address that plays a key role in the TSE."
      },
      "token": {
        "details": "Mandatory setting for TSE, only one token can be distributed in a single TSE event"
      },
      "tokenId": {
        "details": "For ERC1155, there is an additional restriction that units of only one collection of such tokens can be distributed in a single TSE"
      },
      "totalPurchased": {
        "details": "Total amount of tokens purchased during the TSE"
      }
    },
    "version": 1
  },
  "userdoc": {
    "kind": "user",
    "methods": {
      "constructor": {
        "notice": "Contract constructor."
      },
      "token()": {
        "notice": "The address of the ERC20/ERC1155 token being distributed in this TSE"
      },
      "tokenId()": {
        "notice": "The identifier of the ERC1155 token collection"
      }
    },
    "version": 1
  },
  "storageLayout": {
    "storage": [
      {
        "astId": 1184,
        "contract": "contracts/TSE.sol:TSE",
        "label": "_initialized",
        "offset": 0,
        "slot": "0",
        "type": "t_uint8"
      },
      {
        "astId": 1187,
        "contract": "contracts/TSE.sol:TSE",
        "label": "_initializing",
        "offset": 1,
        "slot": "0",
        "type": "t_bool"
      },
      {
        "astId": 1623,
        "contract": "contracts/TSE.sol:TSE",
        "label": "_status",
        "offset": 0,
        "slot": "1",
        "type": "t_uint256"
      },
      {
        "astId": 1681,
        "contract": "contracts/TSE.sol:TSE",
        "label": "__gap",
        "offset": 0,
        "slot": "2",
        "type": "t_array(t_uint256)49_storage"
      },
      {
        "astId": 6860,
        "contract": "contracts/TSE.sol:TSE",
        "label": "__gap",
        "offset": 0,
        "slot": "51",
        "type": "t_array(t_uint256)50_storage"
      },
      {
        "astId": 3406,
        "contract": "contracts/TSE.sol:TSE",
        "label": "__gap",
        "offset": 0,
        "slot": "101",
        "type": "t_array(t_uint256)50_storage"
      },
      {
        "astId": 3352,
        "contract": "contracts/TSE.sol:TSE",
        "label": "__gap",
        "offset": 0,
        "slot": "151",
        "type": "t_array(t_uint256)50_storage"
      },
      {
        "astId": 21638,
        "contract": "contracts/TSE.sol:TSE",
        "label": "recipient",
        "offset": 0,
        "slot": "201",
        "type": "t_address"
      },
      {
        "astId": 21640,
        "contract": "contracts/TSE.sol:TSE",
        "label": "seller",
        "offset": 0,
        "slot": "202",
        "type": "t_address"
      },
      {
        "astId": 21643,
        "contract": "contracts/TSE.sol:TSE",
        "label": "token",
        "offset": 0,
        "slot": "203",
        "type": "t_address"
      },
      {
        "astId": 21646,
        "contract": "contracts/TSE.sol:TSE",
        "label": "tokenId",
        "offset": 0,
        "slot": "204",
        "type": "t_uint256"
      },
      {
        "astId": 21650,
        "contract": "contracts/TSE.sol:TSE",
        "label": "info",
        "offset": 0,
        "slot": "205",
        "type": "t_struct(TSEInfo)28451_storage"
      },
      {
        "astId": 21655,
        "contract": "contracts/TSE.sol:TSE",
        "label": "_isUserWhitelisted",
        "offset": 0,
        "slot": "212",
        "type": "t_mapping(t_address,t_bool)"
      },
      {
        "astId": 21658,
        "contract": "contracts/TSE.sol:TSE",
        "label": "createdAt",
        "offset": 0,
        "slot": "213",
        "type": "t_uint256"
      },
      {
        "astId": 21663,
        "contract": "contracts/TSE.sol:TSE",
        "label": "purchaseOf",
        "offset": 0,
        "slot": "214",
        "type": "t_mapping(t_address,t_uint256)"
      },
      {
        "astId": 21666,
        "contract": "contracts/TSE.sol:TSE",
        "label": "totalPurchased",
        "offset": 0,
        "slot": "215",
        "type": "t_uint256"
      }
    ],
    "types": {
      "t_address": {
        "encoding": "inplace",
        "label": "address",
        "numberOfBytes": "20"
      },
      "t_array(t_address)dyn_storage": {
        "base": "t_address",
        "encoding": "dynamic_array",
        "label": "address[]",
        "numberOfBytes": "32"
      },
      "t_array(t_uint256)49_storage": {
        "base": "t_uint256",
        "encoding": "inplace",
        "label": "uint256[49]",
        "numberOfBytes": "1568"
      },
      "t_array(t_uint256)50_storage": {
        "base": "t_uint256",
        "encoding": "inplace",
        "label": "uint256[50]",
        "numberOfBytes": "1600"
      },
      "t_bool": {
        "encoding": "inplace",
        "label": "bool",
        "numberOfBytes": "1"
      },
      "t_mapping(t_address,t_bool)": {
        "encoding": "mapping",
        "key": "t_address",
        "label": "mapping(address => bool)",
        "numberOfBytes": "32",
        "value": "t_bool"
      },
      "t_mapping(t_address,t_uint256)": {
        "encoding": "mapping",
        "key": "t_address",
        "label": "mapping(address => uint256)",
        "numberOfBytes": "32",
        "value": "t_uint256"
      },
      "t_struct(TSEInfo)28451_storage": {
        "encoding": "inplace",
        "label": "struct ITSE.TSEInfo",
        "members": [
          {
            "astId": 28437,
            "contract": "contracts/TSE.sol:TSE",
            "label": "amount",
            "offset": 0,
            "slot": "0",
            "type": "t_uint256"
          },
          {
            "astId": 28439,
            "contract": "contracts/TSE.sol:TSE",
            "label": "price",
            "offset": 0,
            "slot": "1",
            "type": "t_uint256"
          },
          {
            "astId": 28441,
            "contract": "contracts/TSE.sol:TSE",
            "label": "minPurchase",
            "offset": 0,
            "slot": "2",
            "type": "t_uint256"
          },
          {
            "astId": 28443,
            "contract": "contracts/TSE.sol:TSE",
            "label": "maxPurchase",
            "offset": 0,
            "slot": "3",
            "type": "t_uint256"
          },
          {
            "astId": 28445,
            "contract": "contracts/TSE.sol:TSE",
            "label": "duration",
            "offset": 0,
            "slot": "4",
            "type": "t_uint256"
          },
          {
            "astId": 28448,
            "contract": "contracts/TSE.sol:TSE",
            "label": "userWhitelist",
            "offset": 0,
            "slot": "5",
            "type": "t_array(t_address)dyn_storage"
          },
          {
            "astId": 28450,
            "contract": "contracts/TSE.sol:TSE",
            "label": "unitOfAccount",
            "offset": 0,
            "slot": "6",
            "type": "t_address"
          }
        ],
        "numberOfBytes": "224"
      },
      "t_uint256": {
        "encoding": "inplace",
        "label": "uint256",
        "numberOfBytes": "32"
      },
      "t_uint8": {
        "encoding": "inplace",
        "label": "uint8",
        "numberOfBytes": "1"
      }
    }
  }
}