{
  "address": "0x9Dc858C1F83Da51FCcE58473b2F102f6aB16322e",
  "abi": [
    {
      "inputs": [],
      "stateMutability": "nonpayable",
      "type": "constructor"
    },
    {
      "anonymous": false,
      "inputs": [
        {
          "indexed": false,
          "internalType": "uint8",
          "name": "version",
          "type": "uint8"
        }
      ],
      "name": "Initialized",
      "type": "event"
    },
    {
      "anonymous": false,
      "inputs": [
        {
          "indexed": false,
          "internalType": "address",
          "name": "pool",
          "type": "address"
        },
        {
          "indexed": false,
          "internalType": "uint256",
          "name": "invoiceId",
          "type": "uint256"
        }
      ],
      "name": "InvoiceCanceled",
      "type": "event"
    },
    {
      "anonymous": false,
      "inputs": [
        {
          "indexed": false,
          "internalType": "address",
          "name": "pool",
          "type": "address"
        },
        {
          "indexed": false,
          "internalType": "uint256",
          "name": "invoiceId",
          "type": "uint256"
        }
      ],
      "name": "InvoiceCreated",
      "type": "event"
    },
    {
      "anonymous": false,
      "inputs": [
        {
          "indexed": false,
          "internalType": "address",
          "name": "pool",
          "type": "address"
        },
        {
          "indexed": false,
          "internalType": "uint256",
          "name": "invoiceId",
          "type": "uint256"
        }
      ],
      "name": "InvoicePaid",
      "type": "event"
    },
    {
      "inputs": [
        {
          "internalType": "address",
          "name": "pool",
          "type": "address"
        },
        {
          "internalType": "uint256",
          "name": "invoiceId",
          "type": "uint256"
        }
      ],
      "name": "cancelInvoice",
      "outputs": [],
      "stateMutability": "nonpayable",
      "type": "function"
    },
    {
      "inputs": [
        {
          "internalType": "address",
          "name": "pool",
          "type": "address"
        },
        {
          "components": [
            {
              "internalType": "uint256",
              "name": "amount",
              "type": "uint256"
            },
            {
              "internalType": "address",
              "name": "unitOfAccount",
              "type": "address"
            },
            {
              "internalType": "uint256",
              "name": "expirationBlock",
              "type": "uint256"
            },
            {
              "internalType": "string",
              "name": "description",
              "type": "string"
            },
            {
              "internalType": "address[]",
              "name": "whitelist",
              "type": "address[]"
            }
          ],
          "internalType": "struct IInvoice.InvoiceCore",
          "name": "core",
          "type": "tuple"
        }
      ],
      "name": "createInvoice",
      "outputs": [],
      "stateMutability": "nonpayable",
      "type": "function"
    },
    {
      "inputs": [
        {
          "internalType": "address",
          "name": "",
          "type": "address"
        },
        {
          "internalType": "uint256",
          "name": "",
          "type": "uint256"
        }
      ],
      "name": "eventIndex",
      "outputs": [
        {
          "internalType": "uint256",
          "name": "",
          "type": "uint256"
        }
      ],
      "stateMutability": "view",
      "type": "function"
    },
    {
      "inputs": [
        {
          "internalType": "contract IRegistry",
          "name": "registry_",
          "type": "address"
        }
      ],
      "name": "initialize",
      "outputs": [],
      "stateMutability": "nonpayable",
      "type": "function"
    },
    {
      "inputs": [
        {
          "internalType": "address",
          "name": "pool",
          "type": "address"
        },
        {
          "internalType": "uint256",
          "name": "invoiceId",
          "type": "uint256"
        }
      ],
      "name": "invoiceState",
      "outputs": [
        {
          "internalType": "enum IInvoice.InvoiceState",
          "name": "",
          "type": "uint8"
        }
      ],
      "stateMutability": "view",
      "type": "function"
    },
    {
      "inputs": [
        {
          "internalType": "address",
          "name": "",
          "type": "address"
        },
        {
          "internalType": "uint256",
          "name": "",
          "type": "uint256"
        }
      ],
      "name": "invoices",
      "outputs": [
        {
          "components": [
            {
              "internalType": "uint256",
              "name": "amount",
              "type": "uint256"
            },
            {
              "internalType": "address",
              "name": "unitOfAccount",
              "type": "address"
            },
            {
              "internalType": "uint256",
              "name": "expirationBlock",
              "type": "uint256"
            },
            {
              "internalType": "string",
              "name": "description",
              "type": "string"
            },
            {
              "internalType": "address[]",
              "name": "whitelist",
              "type": "address[]"
            }
          ],
          "internalType": "struct IInvoice.InvoiceCore",
          "name": "core",
          "type": "tuple"
        },
        {
          "internalType": "uint256",
          "name": "invoiceId",
          "type": "uint256"
        },
        {
          "internalType": "address",
          "name": "createdBy",
          "type": "address"
        },
        {
          "internalType": "bool",
          "name": "isPaid",
          "type": "bool"
        },
        {
          "internalType": "bool",
          "name": "isCanceled",
          "type": "bool"
        }
      ],
      "stateMutability": "view",
      "type": "function"
    },
    {
      "inputs": [
        {
          "internalType": "address",
          "name": "pool",
          "type": "address"
        },
        {
          "internalType": "address",
          "name": "account",
          "type": "address"
        }
      ],
      "name": "isValidInvoiceManager",
      "outputs": [
        {
          "internalType": "bool",
          "name": "",
          "type": "bool"
        }
      ],
      "stateMutability": "view",
      "type": "function"
    },
    {
      "inputs": [
        {
          "internalType": "address",
          "name": "",
          "type": "address"
        }
      ],
      "name": "lastInvoiceIdForPool",
      "outputs": [
        {
          "internalType": "uint256",
          "name": "",
          "type": "uint256"
        }
      ],
      "stateMutability": "view",
      "type": "function"
    },
    {
      "inputs": [
        {
          "internalType": "address",
          "name": "pool",
          "type": "address"
        },
        {
          "internalType": "uint256",
          "name": "invoiceId",
          "type": "uint256"
        }
      ],
      "name": "payInvoice",
      "outputs": [],
      "stateMutability": "payable",
      "type": "function"
    },
    {
      "inputs": [],
      "name": "registry",
      "outputs": [
        {
          "internalType": "contract IRegistry",
          "name": "",
          "type": "address"
        }
      ],
      "stateMutability": "view",
      "type": "function"
    },
    {
      "inputs": [
        {
          "internalType": "address",
          "name": "pool",
          "type": "address"
        },
        {
          "internalType": "uint256",
          "name": "invoiceId",
          "type": "uint256"
        }
      ],
      "name": "setInvoiceCanceled",
      "outputs": [],
      "stateMutability": "nonpayable",
      "type": "function"
    },
    {
      "inputs": [
        {
          "internalType": "address",
          "name": "pool",
          "type": "address"
        },
        {
          "internalType": "uint256",
          "name": "invoiceId",
          "type": "uint256"
        }
      ],
      "name": "setInvoicePaid",
      "outputs": [],
      "stateMutability": "nonpayable",
      "type": "function"
    },
    {
      "inputs": [
        {
          "components": [
            {
              "internalType": "uint256",
              "name": "amount",
              "type": "uint256"
            },
            {
              "internalType": "address",
              "name": "unitOfAccount",
              "type": "address"
            },
            {
              "internalType": "uint256",
              "name": "expirationBlock",
              "type": "uint256"
            },
            {
              "internalType": "string",
              "name": "description",
              "type": "string"
            },
            {
              "internalType": "address[]",
              "name": "whitelist",
              "type": "address[]"
            }
          ],
          "internalType": "struct IInvoice.InvoiceCore",
          "name": "core",
          "type": "tuple"
        }
      ],
      "name": "validateInvoiceCore",
      "outputs": [
        {
          "internalType": "bool",
          "name": "",
          "type": "bool"
        }
      ],
      "stateMutability": "view",
      "type": "function"
    }
  ],
  "transactionHash": "0x6a57fa4cf2f6c594124cfa33667241ca2877edba884f925334e05cedc3f23f8e",
  "args": [],
  "numDeployments": 4,
  "solcInputHash": "4aedc985f9775ab0893ae4bd47e71ec5",
  "bytecode": "0x60806040523480156200001157600080fd5b506200001c62000022565b620000e4565b600054610100900460ff16156200008f5760405162461bcd60e51b815260206004820152602760248201527f496e697469616c697a61626c653a20636f6e747261637420697320696e697469604482015266616c697a696e6760c81b606482015260840160405180910390fd5b60005460ff9081161015620000e2576000805460ff191660ff9081179091556040519081527f7f26b83ff96e1f2b6a682f133852f6798a09c465da95921460cefb38474024989060200160405180910390a15b565b6127f780620000f46000396000f3fe6080604052600436106100c25760003560e01c8063528dd5121161007f578063862b7cbf11610059578063862b7cbf146102395780639ad8ec5714610259578063c4d66de814610291578063de35f20c146102b157600080fd5b8063528dd512146101c15780635c337409146101e15780637b1039991461020157600080fd5b80630dad62fa146100c75780632b9542341461010157806330c6faeb14610131578063365fa35d146101465780633a1de8fc1461016657806341cec40e14610186575b600080fd5b3480156100d357600080fd5b506100e76100e23660046120f7565b6102de565b6040516100f8959493929190612201565b60405180910390f35b34801561010d57600080fd5b5061012161011c366004612243565b610453565b60405190151581526020016100f8565b61014461013f3660046120f7565b610796565b005b34801561015257600080fd5b50610121610161366004612454565b610cd4565b34801561017257600080fd5b506101446101813660046120f7565b610e3d565b34801561019257600080fd5b506101b36101a1366004612489565b60346020526000908152604090205481565b6040519081526020016100f8565b3480156101cd57600080fd5b506101446101dc3660046124ad565b61104e565b3480156101ed57600080fd5b506101446101fc3660046120f7565b6114d0565b34801561020d57600080fd5b50603354610221906001600160a01b031681565b6040516001600160a01b0390911681526020016100f8565b34801561024557600080fd5b506101446102543660046120f7565b6115db565b34801561026557600080fd5b506101b36102743660046120f7565b603660209081526000928352604080842090915290825290205481565b34801561029d57600080fd5b506101446102ac366004612489565b611896565b3480156102bd57600080fd5b506102d16102cc3660046120f7565b6119ba565b6040516100f89190612513565b6035602090815260009283526040808420825291835291819020815160a0810183528154815260018201546001600160a01b0316938101939093526002810154918301919091526003810180549192918391606084019161033e9061253b565b80601f016020809104026020016040519081016040528092919081815260200182805461036a9061253b565b80156103b75780601f1061038c576101008083540402835291602001916103b7565b820191906000526020600020905b81548152906001019060200180831161039a57829003601f168201915b505050505081526020016004820180548060200260200160405190810160405280929190818152602001828054801561041957602002820191906000526020600020905b81546001600160a01b031681526001909101906020018083116103fb575b5050509190925250505060058201546006909201549091906001600160a01b0381169060ff600160a01b8204811691600160a81b90041685565b6000826001600160a01b031663e47bfee86040518163ffffffff1660e01b8152600401602060405180830381865afa158015610493573d6000803e3d6000fd5b505050506040513d601f19601f820116820180604052508101906104b79190612575565b1580156105365750826001600160a01b0316638da5cb5b6040518163ffffffff1660e01b8152600401602060405180830381865afa1580156104fd573d6000803e3d6000fd5b505050506040513d601f19601f820116820180604052508101906105219190612597565b6001600160a01b0316826001600160a01b0316145b1561054357506001610790565b603360009054906101000a90046001600160a01b03166001600160a01b031663d598d4c96040518163ffffffff1660e01b8152600401602060405180830381865afa158015610596573d6000803e3d6000fd5b505050506040513d601f19601f820116820180604052508101906105ba9190612597565b6001600160a01b03166391d14854603360009054906101000a90046001600160a01b03166001600160a01b031663d598d4c96040518163ffffffff1660e01b8152600401602060405180830381865afa15801561061b573d6000803e3d6000fd5b505050506040513d601f19601f8201168201806040525081019061063f9190612597565b6001600160a01b031663c979e8a76040518163ffffffff1660e01b8152600401602060405180830381865afa15801561067c573d6000803e3d6000fd5b505050506040513d601f19601f820116820180604052508101906106a091906125b4565b6040516001600160e01b031960e084901b16815260048101919091526001600160a01b0385166024820152604401602060405180830381865afa1580156106eb573d6000803e3d6000fd5b505050506040513d601f19601f8201168201806040525081019061070f9190612575565b8061077f575060405163e8533e2960e01b81526001600160a01b03838116600483015284169063e8533e2990602401602060405180830381865afa15801561075b573d6000803e3d6000fd5b505050506040513d601f19601f8201168201806040525081019061077f9190612575565b1561078c57506001610790565b5060005b92915050565b61079e611ba1565b81806001600160a01b0316635c975abb6040518163ffffffff1660e01b8152600401602060405180830381865afa1580156107dd573d6000803e3d6000fd5b505050506040513d601f19601f820116820180604052508101906108019190612575565b156040518060400160405280600b81526020016a1413d3d317d4105554d15160aa1b8152509061084d5760405162461bcd60e51b815260040161084491906125cd565b60405180910390fd5b506001600160a01b03808416600090815260356020908152604080832086845290915280822081516101408101909252805460a08301908152600182015490941660c0830152600281015460e0830152600381018054939492939192849290918491610100850191906108bf9061253b565b80601f01602080910402602001604051908101604052809291908181526020018280546108eb9061253b565b80156109385780601f1061090d57610100808354040283529160200191610938565b820191906000526020600020905b81548152906001019060200180831161091b57829003601f168201915b505050505081526020016004820180548060200260200160405190810160405280929190818152602001828054801561099a57602002820191906000526020600020905b81546001600160a01b0316815260019091019060200180831161097c575b505050919092525050508152600582015460208201526006909101546001600160a01b038116604083015260ff600160a01b8204811615156060840152600160a81b909104161515608090910152905060016109f685856119ba565b6004811115610a0757610a076124fd565b146040518060400160405280600b81526020016a57524f4e475f535441544560a81b81525090610a4a5760405162461bcd60e51b815260040161084491906125cd565b508051608001515115610af9576000805b82516080015151811015610ab157825160800151805133919083908110610a8457610a846125e0565b60200260200101516001600160a01b031603610a9f57600191505b80610aa9816125f6565b915050610a5b565b5060408051808201909152600f81526e1393d517d5d2125511531254d51151608a1b602082015281610af65760405162461bcd60e51b815260040161084491906125cd565b50505b8051602001516001600160a01b0316610bf35780515160408051808201909152600c81526b15d493d391d7d05353d5539560a21b6020820152903414610b525760405162461bcd60e51b815260040161084491906125cd565b508051516040516000916001600160a01b038716918381818185875af1925050503d8060008114610b9f576040519150601f19603f3d011682016040523d82523d6000602084013e610ba4565b606091505b50509050806040518060400160405280600c81526020016b15d493d391d7d05353d5539560a21b81525090610bec5760405162461bcd60e51b815260040161084491906125cd565b5050610c16565b80518051602090910151610c16916001600160a01b039091169033908790611bfa565b610c208484611c5a565b603354604080516001600160a01b038781166024830152604480830188905283518084039091018152606490920183526020820180516001600160e01b03166330c6faeb60e01b1790529151634dbb83fd60e01b81529190921691634dbb83fd91610c939133913091349160040161261d565b600060405180830381600087803b158015610cad57600080fd5b505af1158015610cc1573d6000803e3d6000fd5b505050505050610cd060018055565b5050565b805160408051808201909152600c81526b15d493d391d7d05353d5539560a21b6020820152600091610d195760405162461bcd60e51b815260040161084491906125cd565b5043826040015111604051806040016040528060128152602001712ba927a723afa12627a1a5afa72aa6a122a960711b81525090610d6a5760405162461bcd60e51b815260040161084491906125cd565b5060208201516001600160a01b03161580610dea5750600082602001516001600160a01b03166318160ddd6040518163ffffffff1660e01b8152600401602060405180830381865afa158015610dc4573d6000803e3d6000fd5b505050506040513d601f19601f82011682018060405250810190610de891906125b4565b115b6040518060400160405280601381526020017257524f4e475f544f4b454e5f4144445245535360681b81525090610e345760405162461bcd60e51b815260040161084491906125cd565b50600192915050565b603360009054906101000a90046001600160a01b03166001600160a01b031663d598d4c96040518163ffffffff1660e01b8152600401602060405180830381865afa158015610e90573d6000803e3d6000fd5b505050506040513d601f19601f82011682018060405250810190610eb49190612597565b6001600160a01b03166391d14854603360009054906101000a90046001600160a01b03166001600160a01b031663d598d4c96040518163ffffffff1660e01b8152600401602060405180830381865afa158015610f15573d6000803e3d6000fd5b505050506040513d601f19601f82011682018060405250810190610f399190612597565b6001600160a01b031663c979e8a76040518163ffffffff1660e01b8152600401602060405180830381865afa158015610f76573d6000803e3d6000fd5b505050506040513d601f19601f82011682018060405250810190610f9a91906125b4565b6040516001600160e01b031960e084901b1681526004810191909152336024820152604401602060405180830381865afa158015610fdc573d6000803e3d6000fd5b505050506040513d601f19601f820116820180604052508101906110009190612575565b6040518060400160405280600c81526020016b24a72b20a624a22faaa9a2a960a11b815250906110435760405162461bcd60e51b815260040161084491906125cd565b50610cd08282611c5a565b816110598133610453565b604051806040016040528060138152602001722727aa2fa4a72b27a4a1a2afa6a0a720a3a2a960691b815250906110a35760405162461bcd60e51b815260040161084491906125cd565b50603354604051630db9619f60e31b81526001600160a01b0385811660048301526001921690636dcb0cf890602401602060405180830381865afa1580156110ef573d6000803e3d6000fd5b505050506040513d601f19601f82011682018060405250810190611113919061265a565b6004811115611124576111246124fd565b14604051806040016040528060088152602001671393d517d413d3d360c21b815250906111645760405162461bcd60e51b815260040161084491906125cd565b5061116e82610cd4565b506040805161014081018252600060a0820181905260c0820181905260e0820181905260606101008301819052610120830181905260208084018381528285018490526080850184905233858701528785526001600160a01b03898116808652603484528786205492839052855260358352868520828652835293869020855180518255928301516001820180546001600160a01b031916919096161790945594810151600284015590810151929392849291908290600382019061123390826126c1565b506080820151805161124f916004840191602090910190612065565b50505060208281015160058301556040808401516006909301805460608601516080909601511515600160a81b0260ff60a81b19961515600160a01b026001600160a81b03199092166001600160a01b0396871617919091179590951694909417909355908716600090815260349091529081208054916112cf836125f6565b90915550506033546040805163d598d4c960e01b815290516000926001600160a01b03169163d598d4c99160048083019260209291908290030181865afa15801561131e573d6000803e3d6000fd5b505050506040513d601f19601f820116820180604052508101906113429190612597565b604051635a4c3ceb60e01b81526001600160a01b038881166004830152602482018590529190911690635a4c3ceb906044016020604051808303816000875af1158015611393573d6000803e3d6000fd5b505050506040513d601f19601f820116820180604052508101906113b791906125b4565b6001600160a01b0387166000818152603660209081526040808320878452825291829020849055815192835282018590529192507f6a39120258d0c412cb2b8a5731afda5aa7b25b23efbd037907ab4223ec73ee6c910160405180910390a16033546040516001600160a01b0390911690634dbb83fd9033903090600090632946ea8960e11b9061144e908d908d90602401612781565b60408051601f198184030181529181526020820180516001600160e01b03166001600160e01b03199485161790525160e087901b90921682526114969493929160040161261d565b600060405180830381600087803b1580156114b057600080fd5b505af11580156114c4573d6000803e3d6000fd5b50505050505050505050565b816114db8133610453565b604051806040016040528060138152602001722727aa2fa4a72b27a4a1a2afa6a0a720a3a2a960691b815250906115255760405162461bcd60e51b815260040161084491906125cd565b506115308383611d31565b603354604080516001600160a01b038681166024830152604480830187905283518084039091018152606490920183526020820180516001600160e01b0316635c33740960e01b1790529151634dbb83fd60e01b81529190921691634dbb83fd916115a4913391309160009160040161261d565b600060405180830381600087803b1580156115be57600080fd5b505af11580156115d2573d6000803e3d6000fd5b50505050505050565b603360009054906101000a90046001600160a01b03166001600160a01b031663d598d4c96040518163ffffffff1660e01b8152600401602060405180830381865afa15801561162e573d6000803e3d6000fd5b505050506040513d601f19601f820116820180604052508101906116529190612597565b6001600160a01b03166391d14854603360009054906101000a90046001600160a01b03166001600160a01b031663d598d4c96040518163ffffffff1660e01b8152600401602060405180830381865afa1580156116b3573d6000803e3d6000fd5b505050506040513d601f19601f820116820180604052508101906116d79190612597565b6001600160a01b031663c979e8a76040518163ffffffff1660e01b8152600401602060405180830381865afa158015611714573d6000803e3d6000fd5b505050506040513d601f19601f8201168201806040525081019061173891906125b4565b6040516001600160e01b031960e084901b1681526004810191909152336024820152604401602060405180830381865afa15801561177a573d6000803e3d6000fd5b505050506040513d601f19601f8201168201806040525081019061179e9190612575565b6040518060400160405280600c81526020016b24a72b20a624a22faaa9a2a960a11b815250906117e15760405162461bcd60e51b815260040161084491906125cd565b506117ec8282611d31565b603354604080516001600160a01b038581166024830152604480830186905283518084039091018152606490920183526020820180516001600160e01b031663862b7cbf60e01b1790529151634dbb83fd60e01b81529190921691634dbb83fd91611860913391309160009160040161261d565b600060405180830381600087803b15801561187a57600080fd5b505af115801561188e573d6000803e3d6000fd5b505050505050565b600054610100900460ff16158080156118b65750600054600160ff909116105b806118d05750303b1580156118d0575060005460ff166001145b6119335760405162461bcd60e51b815260206004820152602e60248201527f496e697469616c697a61626c653a20636f6e747261637420697320616c72656160448201526d191e481a5b9a5d1a585b1a5e995960921b6064820152608401610844565b6000805460ff191660011790558015611956576000805461ff0019166101001790555b603380546001600160a01b0319166001600160a01b0384161790558015610cd0576000805461ff0019169055604051600181527f7f26b83ff96e1f2b6a682f133852f6798a09c465da95921460cefb38474024989060200160405180910390a15050565b6001600160a01b03808316600090815260356020908152604080832085845290915280822081516101408101909252805460a08301908152600182015490941660c0830152600281015460e0830152600381018054939485948492849161010085019190611a279061253b565b80601f0160208091040260200160405190810160405280929190818152602001828054611a539061253b565b8015611aa05780601f10611a7557610100808354040283529160200191611aa0565b820191906000526020600020905b815481529060010190602001808311611a8357829003601f168201915b5050505050815260200160048201805480602002602001604051908101604052809291908181526020018280548015611b0257602002820191906000526020600020905b81546001600160a01b03168152600190910190602001808311611ae4575b505050919092525050508152600582015460208201526006909101546001600160a01b038116604083015260ff600160a01b820481161515606080850191909152600160a81b90920416151560809092019190915281015190915015611b6c576002915050610790565b806080015115611b80576004915050610790565b805160400151431115611b97576003915050610790565b5060019392505050565b600260015403611bf35760405162461bcd60e51b815260206004820152601f60248201527f5265656e7472616e637947756172643a207265656e7472616e742063616c6c006044820152606401610844565b6002600155565b604080516001600160a01b0385811660248301528416604482015260648082018490528251808303909101815260849091019091526020810180516001600160e01b03166323b872dd60e01b179052611c54908590611dfe565b50505050565b81816001611c6883836119ba565b6004811115611c7957611c796124fd565b146040518060400160405280600b81526020016a57524f4e475f535441544560a81b81525090611cbc5760405162461bcd60e51b815260040161084491906125cd565b506001600160a01b0384166000818152603560209081526040808320878452825291829020600601805460ff60a01b1916600160a01b179055815192835282018590527f799d4ec405ca3d1ee291cbd8904cbccb4b8a0ecef447ddae03b2fbeddcc30cfb91015b60405180910390a150505050565b81816001611d3f83836119ba565b6004811115611d5057611d506124fd565b146040518060400160405280600b81526020016a57524f4e475f535441544560a81b81525090611d935760405162461bcd60e51b815260040161084491906125cd565b506001600160a01b0384166000818152603560209081526040808320878452825291829020600601805460ff60a81b1916600160a81b179055815192835282018590527f9abf50c8342d18dbbf559ab00e917d3d8fe7f836797cf666bc944252e61469e39101611d23565b6000611e53826040518060400160405280602081526020017f5361666545524332303a206c6f772d6c6576656c2063616c6c206661696c6564815250856001600160a01b0316611ed59092919063ffffffff16565b805190915015611ed05780806020019051810190611e719190612575565b611ed05760405162461bcd60e51b815260206004820152602a60248201527f5361666545524332303a204552433230206f7065726174696f6e20646964206e6044820152691bdd081cdd58d8d9595960b21b6064820152608401610844565b505050565b6060611ee48484600085611eec565b949350505050565b606082471015611f4d5760405162461bcd60e51b815260206004820152602660248201527f416464726573733a20696e73756666696369656e742062616c616e636520666f6044820152651c8818d85b1b60d21b6064820152608401610844565b600080866001600160a01b03168587604051611f6991906127a5565b60006040518083038185875af1925050503d8060008114611fa6576040519150601f19603f3d011682016040523d82523d6000602084013e611fab565b606091505b5091509150611fbc87838387611fc7565b979650505050505050565b6060831561203657825160000361202f576001600160a01b0385163b61202f5760405162461bcd60e51b815260206004820152601d60248201527f416464726573733a2063616c6c20746f206e6f6e2d636f6e74726163740000006044820152606401610844565b5081611ee4565b611ee4838381511561204b5781518083602001fd5b8060405162461bcd60e51b815260040161084491906125cd565b8280548282559060005260206000209081019282156120ba579160200282015b828111156120ba57825182546001600160a01b0319166001600160a01b03909116178255602090920191600190910190612085565b506120c69291506120ca565b5090565b5b808211156120c657600081556001016120cb565b6001600160a01b03811681146120f457600080fd5b50565b6000806040838503121561210a57600080fd5b8235612115816120df565b946020939093013593505050565b60005b8381101561213e578181015183820152602001612126565b50506000910152565b6000815180845261215f816020860160208601612123565b601f01601f19169290920160200192915050565b80518252600060208083015160018060a01b0380821683870152604085015160408701526060850151915060a060608701526121b260a0870183612147565b60808681015188830391890191909152805180835290850193506000918501905b808310156121f5578451841682529385019360019290920191908501906121d3565b50979650505050505050565b60a08152600061221460a0830188612173565b6020830196909652506001600160a01b0393909316604084015290151560608301521515608090910152919050565b6000806040838503121561225657600080fd5b8235612261816120df565b91506020830135612271816120df565b809150509250929050565b634e487b7160e01b600052604160045260246000fd5b60405160a0810167ffffffffffffffff811182821017156122b5576122b561227c565b60405290565b604051601f8201601f1916810167ffffffffffffffff811182821017156122e4576122e461227c565b604052919050565b600082601f8301126122fd57600080fd5b8135602067ffffffffffffffff8211156123195761231961227c565b8160051b6123288282016122bb565b928352848101820192828101908785111561234257600080fd5b83870192505b84831015611fbc57823561235b816120df565b82529183019190830190612348565b600060a0828403121561237c57600080fd5b612384612292565b905081358152602080830135612399816120df565b8282015260408381013590830152606083013567ffffffffffffffff808211156123c257600080fd5b818501915085601f8301126123d657600080fd5b8135818111156123e8576123e861227c565b6123fa601f8201601f191685016122bb565b818152878583860101111561240e57600080fd5b818585018683013760008583830101528060608701525050608085013592508083111561243a57600080fd5b5050612448848285016122ec565b60808301525092915050565b60006020828403121561246657600080fd5b813567ffffffffffffffff81111561247d57600080fd5b611ee48482850161236a565b60006020828403121561249b57600080fd5b81356124a6816120df565b9392505050565b600080604083850312156124c057600080fd5b82356124cb816120df565b9150602083013567ffffffffffffffff8111156124e757600080fd5b6124f38582860161236a565b9150509250929050565b634e487b7160e01b600052602160045260246000fd5b602081016005831061253557634e487b7160e01b600052602160045260246000fd5b91905290565b600181811c9082168061254f57607f821691505b60208210810361256f57634e487b7160e01b600052602260045260246000fd5b50919050565b60006020828403121561258757600080fd5b815180151581146124a657600080fd5b6000602082840312156125a957600080fd5b81516124a6816120df565b6000602082840312156125c657600080fd5b5051919050565b6020815260006124a66020830184612147565b634e487b7160e01b600052603260045260246000fd5b60006001820161261657634e487b7160e01b600052601160045260246000fd5b5060010190565b6001600160a01b038581168252841660208201526040810183905260806060820181905260009061265090830184612147565b9695505050505050565b60006020828403121561266c57600080fd5b8151600581106124a657600080fd5b601f821115611ed057600081815260208120601f850160051c810160208610156126a25750805b601f850160051c820191505b8181101561188e578281556001016126ae565b815167ffffffffffffffff8111156126db576126db61227c565b6126ef816126e9845461253b565b8461267b565b602080601f831160018114612724576000841561270c5750858301515b600019600386901b1c1916600185901b17855561188e565b600085815260208120601f198616915b8281101561275357888601518255948401946001909101908401612734565b50858210156127715787850151600019600388901b60f8161c191681555b5050505050600190811b01905550565b6001600160a01b0383168152604060208201819052600090611ee490830184612173565b600082516127b7818460208701612123565b919091019291505056fea264697066735822122070abe78a64e5c5e6f90a1323284b98f8340ef533c53006d7df177540c73b631864736f6c63430008110033",
  "devdoc": {
    "details": "It supports both trusted (payment confirmation off-chain by an authorized address) and trustless (on-chain payment) modes of operation. Regardless of the presence of Governance tokens in delegation or balance, and regardless of the owner/creator pool status, any address can act as an invoice payer. The following conditions must be met: - The structure Invoice.sol:invoices for the selected invoice number stores either an empty InvoiceInfo.core.whitelist[] (public invoice), or it contains the payer's address - The structure Invoice.sol:invoices for the selected invoice number has the values false in the fields InvoiceInfo.isPaid and InvoiceInfo.isCanceled (the invoice has not been canceled or paid by anyone yet) - The current network block is less than the InvoiceInfo.core.expirationBlock stored in the structure Invoice.sol:invoices for the selected invoice number When paying the invoice, the amount specified by the invoice creator is debited in the units they have chosen (ERC20 tokens or ETH)._Note. All the above is valid for on-chain invoice payments. For off-chain invoice payments, a 3rd party backend solution is used to verify the payment of the specified invoice and has its mechanisms for allowing or disallowing the user to pay, including KYC. There is no such blockchain payer in this approach; the invoice is marked as paid by the address assigned the role of SERVICE_MANAGER in the Service contract._",
    "events": {
      "InvoiceCanceled(address,uint256)": {
        "details": "Event emitted when invoice is canceled",
        "params": {
          "invoiceId": "InvoiceId for Pool",
          "pool": "Pool address"
        }
      },
      "InvoiceCreated(address,uint256)": {
        "details": "Event emitted on invoice creating",
        "params": {
          "invoiceId": "InvoiceId for Pool",
          "pool": "Pool address"
        }
      },
      "InvoicePaid(address,uint256)": {
        "details": "Event emitted when invoice is paid",
        "params": {
          "invoiceId": "InvoiceId for Pool",
          "pool": "Pool address"
        }
      }
    },
    "kind": "dev",
    "methods": {
      "cancelInvoice(address,uint256)": {
        "details": "To cancel an invoice, the request must pass the onlyValidInvoiceManager modifier, which regulates who can manipulate the pool's invoices on behalf of the pool.After cancellation, the invoice receives an irreversible \"Canceled\" status.",
        "params": {
          "invoiceId": "Invoice identifier",
          "pool": "Address of the pool contract that issued the invoice"
        }
      },
      "constructor": {
        "custom:oz-upgrades-unsafe-allow": "constructor",
        "details": "This contract uses OpenZeppelin upgrades and has no need for a constructor function. The constructor is replaced with an initializer function. This method disables the initializer feature of the OpenZeppelin upgrades plugin, preventing the initializer methods from being misused."
      },
      "createInvoice(address,(uint256,address,uint256,string,address[]))": {
        "details": "The onlyValidInvoiceManager modifier determines which accounts can create an invoice for the specified pool.After creation, the invoice receives an \"Active\" status.",
        "params": {
          "core": "Invoice payment data (described in the interface)",
          "pool": "Address of the pool contract that issues the invoice"
        }
      },
      "initialize(address)": {
        "details": "This method replaces the constructor for upgradeable contracts. It also sets the registry contract address in the contract's storage.",
        "params": {
          "registry_": "Protocol registry address"
        }
      },
      "invoiceState(address,uint256)": {
        "details": "This method returns the state of an invoice",
        "params": {
          "invoiceId": "The identifier of the invoice",
          "pool": "The address of the pool contract that issued the invoice"
        }
      },
      "isValidInvoiceManager(address,address)": {
        "details": "In order to create and cancel pool invoices, the account address must: - be listed in the pool's secretaries OR - have the \"SERVICE_MANAGER\" role in the Service contract OR - be the owner of the pool if the pool has not yet obtained DAO status",
        "params": {
          "account": "The account address",
          "pool": "The address of the pool contract"
        }
      },
      "payInvoice(address,uint256)": {
        "details": "In addition to the specified modifiers, there is also a check for the payer's wallet to be included in the whitelist of invoice payers.To allow the invoice to be paid by any wallet, the whitelist field should be left empty when creating the invoice.After successful payment, the invoice receives an irreversible \"Paid\" status.",
        "params": {
          "invoiceId": "Identifier of the invoice being paid",
          "pool": "Address of the pool contract that issued the invoice"
        }
      },
      "setInvoiceCanceled(address,uint256)": {
        "details": "Addresses that have the \"SERVICE_MANAGER\" role in the Service contract can cancel any active invoice of any pool.After cancellation, the invoice receives an irreversible \"Canceled\" status.",
        "params": {
          "invoiceId": "Invoice identifier",
          "pool": "Address of the pool contract that issued the invoice"
        }
      },
      "setInvoicePaid(address,uint256)": {
        "details": "Addresses that have the \"SERVICE_MANAGER\" role in the Service contract can change the status of any active invoice of any pool to \"Paid\", indicating a successful payment of the invoice through an off-chain payment method.After successful payment, the invoice receives an irreversible \"Paid\" status.",
        "params": {
          "invoiceId": "Invoice identifier",
          "pool": "Address of the pool contract that issued the invoice"
        }
      },
      "validateInvoiceCore((uint256,address,uint256,string,address[]))": {
        "details": "An invoice is considered valid if it meets the following criteria: - Non-zero payment amount (in any token, including the native network coin) - The expiration block has not yet been reached - The specified token for payment is a valid ERC20 contract",
        "params": {
          "core": "Invoice data represented by the structure described in the InvoiceCore interface"
        },
        "returns": {
          "_0": "True if the parameters are valid (reverts otherwise)"
        }
      }
    },
    "stateVariables": {
      "eventIndex": {
        "details": "For each pool and for each invoice issued by the pool, the mapping contains global event IDs under which the invoices were registered in the Registry contract."
      },
      "invoices": {
        "details": "Mapping that stores nested mappings of invoice structures for each pool (pool address is used as the key)"
      },
      "lastInvoiceIdForPool": {
        "details": ",   ()     "
      }
    },
    "title": "Invoice Contract",
    "version": 1
  },
  "userdoc": {
    "kind": "user",
    "methods": {
      "cancelInvoice(address,uint256)": {
        "notice": "Cancel an invoice"
      },
      "constructor": {
        "notice": "Contract constructor."
      },
      "createInvoice(address,(uint256,address,uint256,string,address[]))": {
        "notice": "Create an invoice by a specified pool"
      },
      "eventIndex(address,uint256)": {
        "notice": "Global enumeration of invoices"
      },
      "initialize(address)": {
        "notice": "Contract initializer"
      },
      "invoices(address,uint256)": {
        "notice": "Invoice data (including their state)"
      },
      "isValidInvoiceManager(address,address)": {
        "notice": "This method checks the account's authority to manipulate pool invoices"
      },
      "lastInvoiceIdForPool(address)": {
        "notice": "   "
      },
      "payInvoice(address,uint256)": {
        "notice": "On-chain payment of an invoice (trustless scenario)"
      },
      "registry()": {
        "notice": "  Registry"
      },
      "setInvoiceCanceled(address,uint256)": {
        "notice": "Canceling an invoice by the manager"
      },
      "setInvoicePaid(address,uint256)": {
        "notice": "Off-chain payment of an invoice (trusted scenario)"
      },
      "validateInvoiceCore((uint256,address,uint256,string,address[]))": {
        "notice": "This method checks the validity of invoice data during its creation"
      }
    },
    "notice": "This contract is designed for managing invoices issued by pools for payment.",
    "version": 1
  },
  "storageLayout": {
    "storage": [
      {
        "astId": 703,
        "contract": "contracts/Invoice.sol:Invoice",
        "label": "_initialized",
        "offset": 0,
        "slot": "0",
        "type": "t_uint8"
      },
      {
        "astId": 706,
        "contract": "contracts/Invoice.sol:Invoice",
        "label": "_initializing",
        "offset": 1,
        "slot": "0",
        "type": "t_bool"
      },
      {
        "astId": 1142,
        "contract": "contracts/Invoice.sol:Invoice",
        "label": "_status",
        "offset": 0,
        "slot": "1",
        "type": "t_uint256"
      },
      {
        "astId": 1200,
        "contract": "contracts/Invoice.sol:Invoice",
        "label": "__gap",
        "offset": 0,
        "slot": "2",
        "type": "t_array(t_uint256)49_storage"
      },
      {
        "astId": 3622,
        "contract": "contracts/Invoice.sol:Invoice",
        "label": "registry",
        "offset": 0,
        "slot": "51",
        "type": "t_contract(IRegistry)8058"
      },
      {
        "astId": 3627,
        "contract": "contracts/Invoice.sol:Invoice",
        "label": "lastInvoiceIdForPool",
        "offset": 0,
        "slot": "52",
        "type": "t_mapping(t_address,t_uint256)"
      },
      {
        "astId": 3635,
        "contract": "contracts/Invoice.sol:Invoice",
        "label": "invoices",
        "offset": 0,
        "slot": "53",
        "type": "t_mapping(t_address,t_mapping(t_uint256,t_struct(InvoiceInfo)6751_storage))"
      },
      {
        "astId": 3642,
        "contract": "contracts/Invoice.sol:Invoice",
        "label": "eventIndex",
        "offset": 0,
        "slot": "54",
        "type": "t_mapping(t_address,t_mapping(t_uint256,t_uint256))"
      }
    ],
    "types": {
      "t_address": {
        "encoding": "inplace",
        "label": "address",
        "numberOfBytes": "20"
      },
      "t_array(t_address)dyn_storage": {
        "base": "t_address",
        "encoding": "dynamic_array",
        "label": "address[]",
        "numberOfBytes": "32"
      },
      "t_array(t_uint256)49_storage": {
        "base": "t_uint256",
        "encoding": "inplace",
        "label": "uint256[49]",
        "numberOfBytes": "1568"
      },
      "t_bool": {
        "encoding": "inplace",
        "label": "bool",
        "numberOfBytes": "1"
      },
      "t_contract(IRegistry)8058": {
        "encoding": "inplace",
        "label": "contract IRegistry",
        "numberOfBytes": "20"
      },
      "t_mapping(t_address,t_mapping(t_uint256,t_struct(InvoiceInfo)6751_storage))": {
        "encoding": "mapping",
        "key": "t_address",
        "label": "mapping(address => mapping(uint256 => struct IInvoice.InvoiceInfo))",
        "numberOfBytes": "32",
        "value": "t_mapping(t_uint256,t_struct(InvoiceInfo)6751_storage)"
      },
      "t_mapping(t_address,t_mapping(t_uint256,t_uint256))": {
        "encoding": "mapping",
        "key": "t_address",
        "label": "mapping(address => mapping(uint256 => uint256))",
        "numberOfBytes": "32",
        "value": "t_mapping(t_uint256,t_uint256)"
      },
      "t_mapping(t_address,t_uint256)": {
        "encoding": "mapping",
        "key": "t_address",
        "label": "mapping(address => uint256)",
        "numberOfBytes": "32",
        "value": "t_uint256"
      },
      "t_mapping(t_uint256,t_struct(InvoiceInfo)6751_storage)": {
        "encoding": "mapping",
        "key": "t_uint256",
        "label": "mapping(uint256 => struct IInvoice.InvoiceInfo)",
        "numberOfBytes": "32",
        "value": "t_struct(InvoiceInfo)6751_storage"
      },
      "t_mapping(t_uint256,t_uint256)": {
        "encoding": "mapping",
        "key": "t_uint256",
        "label": "mapping(uint256 => uint256)",
        "numberOfBytes": "32",
        "value": "t_uint256"
      },
      "t_string_storage": {
        "encoding": "bytes",
        "label": "string",
        "numberOfBytes": "32"
      },
      "t_struct(InvoiceCore)6739_storage": {
        "encoding": "inplace",
        "label": "struct IInvoice.InvoiceCore",
        "members": [
          {
            "astId": 6729,
            "contract": "contracts/Invoice.sol:Invoice",
            "label": "amount",
            "offset": 0,
            "slot": "0",
            "type": "t_uint256"
          },
          {
            "astId": 6731,
            "contract": "contracts/Invoice.sol:Invoice",
            "label": "unitOfAccount",
            "offset": 0,
            "slot": "1",
            "type": "t_address"
          },
          {
            "astId": 6733,
            "contract": "contracts/Invoice.sol:Invoice",
            "label": "expirationBlock",
            "offset": 0,
            "slot": "2",
            "type": "t_uint256"
          },
          {
            "astId": 6735,
            "contract": "contracts/Invoice.sol:Invoice",
            "label": "description",
            "offset": 0,
            "slot": "3",
            "type": "t_string_storage"
          },
          {
            "astId": 6738,
            "contract": "contracts/Invoice.sol:Invoice",
            "label": "whitelist",
            "offset": 0,
            "slot": "4",
            "type": "t_array(t_address)dyn_storage"
          }
        ],
        "numberOfBytes": "160"
      },
      "t_struct(InvoiceInfo)6751_storage": {
        "encoding": "inplace",
        "label": "struct IInvoice.InvoiceInfo",
        "members": [
          {
            "astId": 6742,
            "contract": "contracts/Invoice.sol:Invoice",
            "label": "core",
            "offset": 0,
            "slot": "0",
            "type": "t_struct(InvoiceCore)6739_storage"
          },
          {
            "astId": 6744,
            "contract": "contracts/Invoice.sol:Invoice",
            "label": "invoiceId",
            "offset": 0,
            "slot": "5",
            "type": "t_uint256"
          },
          {
            "astId": 6746,
            "contract": "contracts/Invoice.sol:Invoice",
            "label": "createdBy",
            "offset": 0,
            "slot": "6",
            "type": "t_address"
          },
          {
            "astId": 6748,
            "contract": "contracts/Invoice.sol:Invoice",
            "label": "isPaid",
            "offset": 20,
            "slot": "6",
            "type": "t_bool"
          },
          {
            "astId": 6750,
            "contract": "contracts/Invoice.sol:Invoice",
            "label": "isCanceled",
            "offset": 21,
            "slot": "6",
            "type": "t_bool"
          }
        ],
        "numberOfBytes": "224"
      },
      "t_uint256": {
        "encoding": "inplace",
        "label": "uint256",
        "numberOfBytes": "32"
      },
      "t_uint8": {
        "encoding": "inplace",
        "label": "uint8",
        "numberOfBytes": "1"
      }
    }
  }
}