{
  "address": "0xaE345271ca1ea89f90cc5566026f9575Eb1D8fBf",
  "abi": [
    {
      "inputs": [],
      "stateMutability": "nonpayable",
      "type": "constructor"
    },
    {
      "anonymous": false,
      "inputs": [
        {
          "indexed": false,
          "internalType": "uint8",
          "name": "version",
          "type": "uint8"
        }
      ],
      "name": "Initialized",
      "type": "event"
    },
    {
      "anonymous": false,
      "inputs": [
        {
          "indexed": false,
          "internalType": "address",
          "name": "pool",
          "type": "address"
        },
        {
          "indexed": false,
          "internalType": "address",
          "name": "tge",
          "type": "address"
        },
        {
          "indexed": false,
          "internalType": "address",
          "name": "token",
          "type": "address"
        }
      ],
      "name": "PrimaryTGECreated",
      "type": "event"
    },
    {
      "anonymous": false,
      "inputs": [
        {
          "indexed": false,
          "internalType": "address",
          "name": "pool",
          "type": "address"
        },
        {
          "indexed": false,
          "internalType": "address",
          "name": "tge",
          "type": "address"
        },
        {
          "indexed": false,
          "internalType": "address",
          "name": "token",
          "type": "address"
        }
      ],
      "name": "SecondaryTGECreated",
      "type": "event"
    },
    {
      "anonymous": false,
      "inputs": [
        {
          "indexed": false,
          "internalType": "address",
          "name": "pool",
          "type": "address"
        },
        {
          "indexed": false,
          "internalType": "address",
          "name": "tge",
          "type": "address"
        },
        {
          "indexed": false,
          "internalType": "address",
          "name": "token",
          "type": "address"
        },
        {
          "indexed": false,
          "internalType": "uint256",
          "name": "tokenId",
          "type": "uint256"
        }
      ],
      "name": "SecondaryTGEERC1155Created",
      "type": "event"
    },
    {
      "inputs": [
        {
          "internalType": "address",
          "name": "poolAddress",
          "type": "address"
        },
        {
          "components": [
            {
              "internalType": "enum IToken.TokenType",
              "name": "tokenType",
              "type": "uint8"
            },
            {
              "internalType": "string",
              "name": "name",
              "type": "string"
            },
            {
              "internalType": "string",
              "name": "symbol",
              "type": "string"
            },
            {
              "internalType": "string",
              "name": "description",
              "type": "string"
            },
            {
              "internalType": "uint256",
              "name": "cap",
              "type": "uint256"
            },
            {
              "internalType": "uint8",
              "name": "decimals",
              "type": "uint8"
            }
          ],
          "internalType": "struct IToken.TokenInfo",
          "name": "tokenInfo",
          "type": "tuple"
        },
        {
          "components": [
            {
              "internalType": "uint256",
              "name": "price",
              "type": "uint256"
            },
            {
              "internalType": "uint256",
              "name": "hardcap",
              "type": "uint256"
            },
            {
              "internalType": "uint256",
              "name": "softcap",
              "type": "uint256"
            },
            {
              "internalType": "uint256",
              "name": "minPurchase",
              "type": "uint256"
            },
            {
              "internalType": "uint256",
              "name": "maxPurchase",
              "type": "uint256"
            },
            {
              "internalType": "uint256",
              "name": "duration",
              "type": "uint256"
            },
            {
              "components": [
                {
                  "internalType": "uint256",
                  "name": "vestedShare",
                  "type": "uint256"
                },
                {
                  "internalType": "uint256",
                  "name": "cliff",
                  "type": "uint256"
                },
                {
                  "internalType": "uint256",
                  "name": "cliffShare",
                  "type": "uint256"
                },
                {
                  "internalType": "uint256",
                  "name": "spans",
                  "type": "uint256"
                },
                {
                  "internalType": "uint256",
                  "name": "spanDuration",
                  "type": "uint256"
                },
                {
                  "internalType": "uint256",
                  "name": "spanShare",
                  "type": "uint256"
                },
                {
                  "internalType": "uint256",
                  "name": "claimTVL",
                  "type": "uint256"
                },
                {
                  "internalType": "address[]",
                  "name": "resolvers",
                  "type": "address[]"
                }
              ],
              "internalType": "struct IVesting.VestingParams",
              "name": "vestingParams",
              "type": "tuple"
            },
            {
              "internalType": "address[]",
              "name": "userWhitelist",
              "type": "address[]"
            },
            {
              "internalType": "address",
              "name": "unitOfAccount",
              "type": "address"
            },
            {
              "internalType": "uint256",
              "name": "lockupDuration",
              "type": "uint256"
            },
            {
              "internalType": "uint256",
              "name": "lockupTVL",
              "type": "uint256"
            }
          ],
          "internalType": "struct ITGE.TGEInfo",
          "name": "tgeInfo",
          "type": "tuple"
        },
        {
          "internalType": "string",
          "name": "metadataURI",
          "type": "string"
        },
        {
          "components": [
            {
              "internalType": "uint256",
              "name": "proposalThreshold",
              "type": "uint256"
            },
            {
              "internalType": "uint256",
              "name": "quorumThreshold",
              "type": "uint256"
            },
            {
              "internalType": "uint256",
              "name": "decisionThreshold",
              "type": "uint256"
            },
            {
              "internalType": "uint256",
              "name": "votingDuration",
              "type": "uint256"
            },
            {
              "internalType": "uint256",
              "name": "transferValueForDelay",
              "type": "uint256"
            },
            {
              "internalType": "uint256[4]",
              "name": "executionDelays",
              "type": "uint256[4]"
            },
            {
              "internalType": "uint256",
              "name": "votingStartDelay",
              "type": "uint256"
            }
          ],
          "internalType": "struct IGovernanceSettings.NewGovernanceSettings",
          "name": "governanceSettings_",
          "type": "tuple"
        },
        {
          "internalType": "address[]",
          "name": "secretary",
          "type": "address[]"
        },
        {
          "internalType": "address[]",
          "name": "executor",
          "type": "address[]"
        }
      ],
      "name": "createPrimaryTGE",
      "outputs": [],
      "stateMutability": "nonpayable",
      "type": "function"
    },
    {
      "inputs": [
        {
          "internalType": "address",
          "name": "token",
          "type": "address"
        },
        {
          "components": [
            {
              "internalType": "uint256",
              "name": "price",
              "type": "uint256"
            },
            {
              "internalType": "uint256",
              "name": "hardcap",
              "type": "uint256"
            },
            {
              "internalType": "uint256",
              "name": "softcap",
              "type": "uint256"
            },
            {
              "internalType": "uint256",
              "name": "minPurchase",
              "type": "uint256"
            },
            {
              "internalType": "uint256",
              "name": "maxPurchase",
              "type": "uint256"
            },
            {
              "internalType": "uint256",
              "name": "duration",
              "type": "uint256"
            },
            {
              "components": [
                {
                  "internalType": "uint256",
                  "name": "vestedShare",
                  "type": "uint256"
                },
                {
                  "internalType": "uint256",
                  "name": "cliff",
                  "type": "uint256"
                },
                {
                  "internalType": "uint256",
                  "name": "cliffShare",
                  "type": "uint256"
                },
                {
                  "internalType": "uint256",
                  "name": "spans",
                  "type": "uint256"
                },
                {
                  "internalType": "uint256",
                  "name": "spanDuration",
                  "type": "uint256"
                },
                {
                  "internalType": "uint256",
                  "name": "spanShare",
                  "type": "uint256"
                },
                {
                  "internalType": "uint256",
                  "name": "claimTVL",
                  "type": "uint256"
                },
                {
                  "internalType": "address[]",
                  "name": "resolvers",
                  "type": "address[]"
                }
              ],
              "internalType": "struct IVesting.VestingParams",
              "name": "vestingParams",
              "type": "tuple"
            },
            {
              "internalType": "address[]",
              "name": "userWhitelist",
              "type": "address[]"
            },
            {
              "internalType": "address",
              "name": "unitOfAccount",
              "type": "address"
            },
            {
              "internalType": "uint256",
              "name": "lockupDuration",
              "type": "uint256"
            },
            {
              "internalType": "uint256",
              "name": "lockupTVL",
              "type": "uint256"
            }
          ],
          "internalType": "struct ITGE.TGEInfo",
          "name": "tgeInfo",
          "type": "tuple"
        },
        {
          "components": [
            {
              "internalType": "enum IToken.TokenType",
              "name": "tokenType",
              "type": "uint8"
            },
            {
              "internalType": "string",
              "name": "name",
              "type": "string"
            },
            {
              "internalType": "string",
              "name": "symbol",
              "type": "string"
            },
            {
              "internalType": "string",
              "name": "description",
              "type": "string"
            },
            {
              "internalType": "uint256",
              "name": "cap",
              "type": "uint256"
            },
            {
              "internalType": "uint8",
              "name": "decimals",
              "type": "uint8"
            }
          ],
          "internalType": "struct IToken.TokenInfo",
          "name": "tokenInfo",
          "type": "tuple"
        },
        {
          "internalType": "string",
          "name": "metadataURI",
          "type": "string"
        }
      ],
      "name": "createSecondaryTGE",
      "outputs": [],
      "stateMutability": "nonpayable",
      "type": "function"
    },
    {
      "inputs": [
        {
          "internalType": "address",
          "name": "token",
          "type": "address"
        },
        {
          "internalType": "uint256",
          "name": "tokenId",
          "type": "uint256"
        },
        {
          "internalType": "string",
          "name": "uri",
          "type": "string"
        },
        {
          "components": [
            {
              "internalType": "uint256",
              "name": "price",
              "type": "uint256"
            },
            {
              "internalType": "uint256",
              "name": "hardcap",
              "type": "uint256"
            },
            {
              "internalType": "uint256",
              "name": "softcap",
              "type": "uint256"
            },
            {
              "internalType": "uint256",
              "name": "minPurchase",
              "type": "uint256"
            },
            {
              "internalType": "uint256",
              "name": "maxPurchase",
              "type": "uint256"
            },
            {
              "internalType": "uint256",
              "name": "duration",
              "type": "uint256"
            },
            {
              "components": [
                {
                  "internalType": "uint256",
                  "name": "vestedShare",
                  "type": "uint256"
                },
                {
                  "internalType": "uint256",
                  "name": "cliff",
                  "type": "uint256"
                },
                {
                  "internalType": "uint256",
                  "name": "cliffShare",
                  "type": "uint256"
                },
                {
                  "internalType": "uint256",
                  "name": "spans",
                  "type": "uint256"
                },
                {
                  "internalType": "uint256",
                  "name": "spanDuration",
                  "type": "uint256"
                },
                {
                  "internalType": "uint256",
                  "name": "spanShare",
                  "type": "uint256"
                },
                {
                  "internalType": "uint256",
                  "name": "claimTVL",
                  "type": "uint256"
                },
                {
                  "internalType": "address[]",
                  "name": "resolvers",
                  "type": "address[]"
                }
              ],
              "internalType": "struct IVesting.VestingParams",
              "name": "vestingParams",
              "type": "tuple"
            },
            {
              "internalType": "address[]",
              "name": "userWhitelist",
              "type": "address[]"
            },
            {
              "internalType": "address",
              "name": "unitOfAccount",
              "type": "address"
            },
            {
              "internalType": "uint256",
              "name": "lockupDuration",
              "type": "uint256"
            },
            {
              "internalType": "uint256",
              "name": "lockupTVL",
              "type": "uint256"
            }
          ],
          "internalType": "struct ITGE.TGEInfo",
          "name": "tgeInfo",
          "type": "tuple"
        },
        {
          "components": [
            {
              "internalType": "enum IToken.TokenType",
              "name": "tokenType",
              "type": "uint8"
            },
            {
              "internalType": "string",
              "name": "name",
              "type": "string"
            },
            {
              "internalType": "string",
              "name": "symbol",
              "type": "string"
            },
            {
              "internalType": "string",
              "name": "description",
              "type": "string"
            },
            {
              "internalType": "uint256",
              "name": "cap",
              "type": "uint256"
            },
            {
              "internalType": "uint8",
              "name": "decimals",
              "type": "uint8"
            }
          ],
          "internalType": "struct IToken.TokenInfo",
          "name": "tokenInfo",
          "type": "tuple"
        },
        {
          "internalType": "string",
          "name": "metadataURI",
          "type": "string"
        }
      ],
      "name": "createSecondaryTGEERC1155",
      "outputs": [],
      "stateMutability": "nonpayable",
      "type": "function"
    },
    {
      "inputs": [
        {
          "internalType": "contract IService",
          "name": "service_",
          "type": "address"
        }
      ],
      "name": "initialize",
      "outputs": [],
      "stateMutability": "nonpayable",
      "type": "function"
    },
    {
      "inputs": [],
      "name": "service",
      "outputs": [
        {
          "internalType": "contract IService",
          "name": "",
          "type": "address"
        }
      ],
      "stateMutability": "view",
      "type": "function"
    }
  ],
  "transactionHash": "0x942b7bfb8a46add41fbca13fd388e0d76df2c5aa09fa71e8a5f5e77f5ba7c677",
  "args": [],
  "numDeployments": 2,
  "solcInputHash": "0762d4eb531d05dc95fd5d895d7fecc0",
  "bytecode": "0x60806040523480156200001157600080fd5b506200001c62000022565b620000e4565b600054610100900460ff16156200008f5760405162461bcd60e51b815260206004820152602760248201527f496e697469616c697a61626c653a20636f6e747261637420697320696e697469604482015266616c697a696e6760c81b606482015260840160405180910390fd5b60005460ff9081161015620000e2576000805460ff191660ff9081179091556040519081527f7f26b83ff96e1f2b6a682f133852f6798a09c465da95921460cefb38474024989060200160405180910390a15b565b61396180620000f46000396000f3fe60806040523480156200001157600080fd5b50600436106200005e5760003560e01c806324e2af2b14620000635780637d0c1048146200007c578063c4d66de81462000093578063d598d4c914620000aa578063f56099ee14620000da575b600080fd5b6200007a6200007436600462001ff9565b620000f1565b005b6200007a6200008d366004620020cd565b620005b9565b6200007a620000a436600462002173565b62000905565b603354620000be906001600160a01b031681565b6040516001600160a01b03909116815260200160405180910390f35b6200007a620000eb3660046200254d565b62000a3b565b60335460408051637b10399960e01b815290516001926001600160a01b031691637b1039999160048083019260209291908290030181865afa1580156200013c573d6000803e3d6000fd5b505050506040513d601f19601f820116820180604052508101906200016291906200266d565b604051630db9619f60e31b81523360048201526001600160a01b039190911690636dcb0cf890602401602060405180830381865afa158015620001a9573d6000803e3d6000fd5b505050506040513d601f19601f82011682018060405250810190620001cf91906200268d565b6004811115620001e357620001e362002657565b14604051806040016040528060088152602001671393d517d413d3d360c21b815250906200022f5760405162461bcd60e51b8152600401620002269190620026f8565b60405180910390fd5b506200023a620011a6565b603360009054906101000a90046001600160a01b03166001600160a01b0316635c975abb6040518163ffffffff1660e01b8152600401602060405180830381865afa1580156200028e573d6000803e3d6000fd5b505050506040513d601f19601f82011682018060405250810190620002b491906200270d565b156040518060400160405280600e81526020016d14d154959250d157d4105554d15160921b81525090620002fd5760405162461bcd60e51b8152600401620002269190620026f8565b5060026200030f602084018462002731565b600281111562000323576200032362002657565b146040518060400160405280600b81526020016a57524f4e475f535441544560a81b81525090620003695760405162461bcd60e51b8152600401620002269190620026f8565b5060006001600160a01b03871662000395576200038a868686868662001201565b90975090506200041c565b856000036200040657866001600160a01b031663f84ddf0b6040518163ffffffff1660e01b8152600401602060405180830381865afa158015620003dd573d6000803e3d6000fd5b505050506040513d601f19601f8201168201806040525081019062000403919062002751565b95505b62000416878787878787620014e6565b90975090505b6040516001623549c760e21b03198152600481018790526001600160a01b0388169063ff2ad8e490602401602060405180830381865afa15801562000465573d6000803e3d6000fd5b505050506040513d601f19601f820116820180604052508101906200048b919062002751565b600003620004fa57604051632db3d76360e11b815260048101879052608084013560248201526001600160a01b03881690635b67aec690604401600060405180830381600087803b158015620004e057600080fd5b505af1158015620004f5573d6000803e3d6000fd5b505050505b604051630bee4b3d60e21b81526001600160a01b03821660048201523390632fb92cf490602401600060405180830381600087803b1580156200053c57600080fd5b505af115801562000551573d6000803e3d6000fd5b5050604080513381526001600160a01b0385811660208301528b1681830152606081018a905290517fb48768207a611b068af71128e751585915773ccbb3a4b6d71948c14bb86088899350908190036080019150a150620005b160018055565b505050505050565b60335460408051637b10399960e01b815290516001926001600160a01b031691637b1039999160048083019260209291908290030181865afa15801562000604573d6000803e3d6000fd5b505050506040513d601f19601f820116820180604052508101906200062a91906200266d565b604051630db9619f60e31b81523360048201526001600160a01b039190911690636dcb0cf890602401602060405180830381865afa15801562000671573d6000803e3d6000fd5b505050506040513d601f19601f820116820180604052508101906200069791906200268d565b6004811115620006ab57620006ab62002657565b14604051806040016040528060088152602001671393d517d413d3d360c21b81525090620006ee5760405162461bcd60e51b8152600401620002269190620026f8565b50620006f9620011a6565b603360009054906101000a90046001600160a01b03166001600160a01b0316635c975abb6040518163ffffffff1660e01b8152600401602060405180830381865afa1580156200074d573d6000803e3d6000fd5b505050506040513d601f19601f820116820180604052508101906200077391906200270d565b156040518060400160405280600e81526020016d14d154959250d157d4105554d15160921b81525090620007bc5760405162461bcd60e51b8152600401620002269190620026f8565b5060006002620007d0602085018562002731565b6002811115620007e457620007e462002657565b148015620007f957506001600160a01b038516155b1562000829576200081e60006040518060200160405280600081525086868662001201565b90955090506200084f565b6200084985600060405180602001604052806000815250878787620014e6565b90955090505b604051630bee4b3d60e21b81526001600160a01b03821660048201523390632fb92cf490602401600060405180830381600087803b1580156200089157600080fd5b505af1158015620008a6573d6000803e3d6000fd5b5050604080513381526001600160a01b03858116602083015289168183015290517ff74d32d2119bcaf2616d37895d32adafbee1dceb25a98646ca514098f422fd899350908190036060019150a150620008ff60018055565b50505050565b600054610100900460ff1615808015620009265750600054600160ff909116105b80620009425750303b15801562000942575060005460ff166001145b620009a75760405162461bcd60e51b815260206004820152602e60248201527f496e697469616c697a61626c653a20636f6e747261637420697320616c72656160448201526d191e481a5b9a5d1a585b1a5e995960921b606482015260840162000226565b6000805460ff191660011790558015620009cb576000805461ff0019166101001790555b620009d562001b07565b603380546001600160a01b0319166001600160a01b038416179055801562000a37576000805461ff0019169055604051600181527f7f26b83ff96e1f2b6a682f133852f6798a09c465da95921460cefb38474024989060200160405180910390a15b5050565b62000a45620011a6565b603360009054906101000a90046001600160a01b03166001600160a01b0316635c975abb6040518163ffffffff1660e01b8152600401602060405180830381865afa15801562000a99573d6000803e3d6000fd5b505050506040513d601f19601f8201168201806040525081019062000abf91906200270d565b156040518060400160405280600e81526020016d14d154959250d157d4105554d15160921b8152509062000b085760405162461bcd60e51b8152600401620002269190620026f8565b506000879050336001600160a01b0316816001600160a01b0316638da5cb5b6040518163ffffffff1660e01b8152600401602060405180830381865afa15801562000b57573d6000803e3d6000fd5b505050506040513d601f19601f8201168201806040525081019062000b7d91906200266d565b6001600160a01b0316146040518060400160405280600e81526020016d2727aa2fa827a7a62fa7aba722a960911b8152509062000bcf5760405162461bcd60e51b8152600401620002269190620026f8565b50670de0b6b3a7640000876080015110156040518060400160405280600b81526020016a0494e56414c49445f4341560ac1b8152509062000c255760405162461bcd60e51b8152600401620002269190620026f8565b5060006001600160a01b0316816001600160a01b0316633f8a037d6040518163ffffffff1660e01b8152600401602060405180830381865afa15801562000c70573d6000803e3d6000fd5b505050506040513d601f19601f8201168201806040525081019062000c9691906200266d565b6001600160a01b0316148062000d0e5750806001600160a01b031663e47bfee86040518163ffffffff1660e01b8152600401602060405180830381865afa15801562000ce6573d6000803e3d6000fd5b505050506040513d601f19601f8201168201806040525081019062000d0c91906200270d565b155b6040518060400160405280601781526020017f474f5645524e414e43455f544f4b454e5f4558495354530000000000000000008152509062000d655760405162461bcd60e51b8152600401620002269190620026f8565b506040516396a7244160e01b81526001600160a01b038216906396a724419062000d98908790879087906004016200281a565b600060405180830381600087803b15801562000db357600080fd5b505af115801562000dc8573d6000803e3d6000fd5b50505050600062000dda868362001b3d565b905060018881905250601260a0890152603354604080516373bbb97f60e11b815290516000926001600160a01b03169163e77772fe9160048083019260209291908290030181865afa15801562000e35573d6000803e3d6000fd5b505050506040513d601f19601f8201168201806040525081019062000e5b91906200266d565b6001600160a01b031663807157e7848b856040518463ffffffff1660e01b815260040162000e8c93929190620028fd565b6020604051808303816000875af115801562000eac573d6000803e3d6000fd5b505050506040513d601f19601f8201168201806040525081019062000ed291906200266d565b60405163c4767b9560e01b81529091506001600160a01b0384169063c4767b959062000f0690849060019060040162002934565b600060405180830381600087803b15801562000f2157600080fd5b505af115801562000f36573d6000803e3d6000fd5b505060335460408051626e017d60e31b815290516001600160a01b038781169550632800cf7e94509092169185916000918e9185916303700be8916004808201926020929091908290030181865afa15801562000f97573d6000803e3d6000fd5b505050506040513d601f19601f8201168201806040525081019062000fbd919062002751565b6040518663ffffffff1660e01b815260040162000fdf95949392919062002a69565b600060405180830381600087803b15801562000ffa57600080fd5b505af11580156200100f573d6000803e3d6000fd5b5050604080516001600160a01b038781168252868116602083015285168183015290517fdbfecbd65ab1b44b798a69145dfb9323c6d7478db37a6d3b4b9526e45b3eed689350908190036060019150a1603360009054906101000a90046001600160a01b03166001600160a01b0316637b1039996040518163ffffffff1660e01b8152600401602060405180830381865afa158015620010b3573d6000803e3d6000fd5b505050506040513d601f19601f82011682018060405250810190620010d991906200266d565b6001600160a01b0316634dbb83fd3330600063f56099ee60e01b8f8f8f8f8f8f8f60405160240162001112979695949392919062002abc565b60408051601f198184030181529181526020820180516001600160e01b03166001600160e01b03199485161790525160e087901b90921682526200115c9493929160040162002b5a565b600060405180830381600087803b1580156200117757600080fd5b505af11580156200118c573d6000803e3d6000fd5b505050505050506200119d60018055565b50505050505050565b600260015403620011fa5760405162461bcd60e51b815260206004820152601f60248201527f5265656e7472616e637947756172643a207265656e7472616e742063616c6c00604482015260640162000226565b6002600155565b600080600062001212843362001b3d565b9050600088156200131657603360009054906101000a90046001600160a01b03166001600160a01b031663e77772fe6040518163ffffffff1660e01b8152600401602060405180830381865afa15801562001271573d6000803e3d6000fd5b505050506040513d601f19601f820116820180604052508101906200129791906200266d565b6001600160a01b0316634effce123388856040518463ffffffff1660e01b8152600401620012c89392919062002c07565b6020604051808303816000875af1158015620012e8573d6000803e3d6000fd5b505050506040513d601f19601f820116820180604052508101906200130e91906200266d565b90506200140a565b603360009054906101000a90046001600160a01b03166001600160a01b031663e77772fe6040518163ffffffff1660e01b8152600401602060405180830381865afa1580156200136a573d6000803e3d6000fd5b505050506040513d601f19601f820116820180604052508101906200139091906200266d565b6001600160a01b031663807157e73388856040518463ffffffff1660e01b8152600401620013c19392919062002c07565b6020604051808303816000875af1158015620013e1573d6000803e3d6000fd5b505050506040513d601f19601f820116820180604052508101906200140791906200266d565b90505b60405163c4767b9560e01b8152339063c4767b95906200143290849060029060040162002934565b600060405180830381600087803b1580156200144d57600080fd5b505af115801562001462573d6000803e3d6000fd5b505060335460405163140067bf60e11b81526001600160a01b038087169450632800cf7e9350620014a392169085908e908e908e9060009060040162002ed1565b600060405180830381600087803b158015620014be57600080fd5b505af1158015620014d3573d6000803e3d6000fd5b50929b939a509298505050505050505050565b60008080620014f9602086018662002731565b60028111156200150d576200150d62002657565b14158015620015bb575062001526602085018562002731565b60028111156200153a576200153a62002657565b6040516332f4a53960e21b81526001600160a01b038a166004820152339063cbd294e490602401602060405180830381865afa1580156200157f573d6000803e3d6000fd5b505050506040513d601f19601f82011682018060405250810190620015a5919062002f2e565b6002811115620015b957620015b962002657565b145b6040518060400160405280601381526020017257524f4e475f544f4b454e5f4144445245535360681b81525090620016085760405162461bcd60e51b8152600401620002269190620026f8565b508615620017c2576040516001623549c760e21b03198152600481018890526001600160a01b0389169063ff2ad8e490602401602060405180830381865afa15801562001659573d6000803e3d6000fd5b505050506040513d601f19601f820116820180604052508101906200167f919062002751565b158062001770575060006040516365a6887f60e11b8152600481018990526001600160a01b038a169063cb4d10fe90602401602060405180830381865afa158015620016cf573d6000803e3d6000fd5b505050506040513d601f19601f82011682018060405250810190620016f591906200266d565b6001600160a01b031663c19d93fb6040518163ffffffff1660e01b8152600401602060405180830381865afa15801562001733573d6000803e3d6000fd5b505050506040513d601f19601f8201168201806040525081019062001759919062002f2e565b60028111156200176d576200176d62002657565b14155b604051806040016040528060118152602001704143544956455f5447455f45584953545360781b81525090620017bb5760405162461bcd60e51b8152600401620002269190620026f8565b50620018f0565b6000886001600160a01b0316633eac99986040518163ffffffff1660e01b8152600401602060405180830381865afa15801562001803573d6000803e3d6000fd5b505050506040513d601f19601f820116820180604052508101906200182991906200266d565b6001600160a01b031663c19d93fb6040518163ffffffff1660e01b8152600401602060405180830381865afa15801562001867573d6000803e3d6000fd5b505050506040513d601f19601f820116820180604052508101906200188d919062002f2e565b6002811115620018a157620018a162002657565b1415604051806040016040528060118152602001704143544956455f5447455f45584953545360781b81525090620018ee5760405162461bcd60e51b8152600401620002269190620026f8565b505b6000620018fe843362001b3d565b905087156200197157604051638eeaaed960e01b81526001600160a01b038281166004830152602482018a90528a1690638eeaaed990604401600060405180830381600087803b1580156200195257600080fd5b505af115801562001967573d6000803e3d6000fd5b50505050620019cf565b604051630a08df1760e31b81526001600160a01b0382811660048301528a1690635046f8b890602401600060405180830381600087803b158015620019b557600080fd5b505af1158015620019ca573d6000803e3d6000fd5b505050505b60006001620019e2602088018862002731565b6002811115620019f657620019f662002657565b1462001a0457600062001a7e565b603360009054906101000a90046001600160a01b03166001600160a01b03166303700be86040518163ffffffff1660e01b8152600401602060405180830381865afa15801562001a58573d6000803e3d6000fd5b505050506040513d601f19601f8201168201806040525081019062001a7e919062002751565b60335460405163140067bf60e11b81529192506001600160a01b0380851692632800cf7e9262001abd9216908e908e908e908e90899060040162002ed1565b600060405180830381600087803b15801562001ad857600080fd5b505af115801562001aed573d6000803e3d6000fd5b509b9c939b50929950505050505050505050565b60018055565b600054610100900460ff1662001b315760405162461bcd60e51b8152600401620002269062002f4e565b62001b3b62001de9565b565b60335460408051621569ab60e41b815290516000926001600160a01b0316916301569ab09160048083019260209291908290030181865afa15801562001b87573d6000803e3d6000fd5b505050506040513d601f19601f8201168201806040525081019062001bad91906200266d565b60405162001bbb9062001e13565b6001600160a01b039091168152604060208201819052600090820152606001604051809103906000f08015801562001bf7573d6000803e3d6000fd5b509050603360009054906101000a90046001600160a01b03166001600160a01b0316637b1039996040518163ffffffff1660e01b8152600401602060405180830381865afa15801562001c4e573d6000803e3d6000fd5b505050506040513d601f19601f8201168201806040525081019062001c7491906200266d565b6001600160a01b0316631f8b4005826004866040518463ffffffff1660e01b815260040162001ca69392919062002f99565b6020604051808303816000875af115801562001cc6573d6000803e3d6000fd5b505050506040513d601f19601f8201168201806040525081019062001cec919062002751565b50603360009054906101000a90046001600160a01b03166001600160a01b0316637b1039996040518163ffffffff1660e01b8152600401602060405180830381865afa15801562001d41573d6000803e3d6000fd5b505050506040513d601f19601f8201168201806040525081019062001d6791906200266d565b6001600160a01b0316633c6b770b8360028460006040518563ffffffff1660e01b815260040162001d9c949392919062002fd6565b6020604051808303816000875af115801562001dbc573d6000803e3d6000fd5b505050506040513d601f19601f8201168201806040525081019062001de2919062002751565b5092915050565b600054610100900460ff1662001b015760405162461bcd60e51b8152600401620002269062002f4e565b610900806200302c83390190565b6001600160a01b038116811462001e3757600080fd5b50565b803562001e478162001e21565b919050565b634e487b7160e01b600052604160045260246000fd5b60405160c081016001600160401b038111828210171562001e875762001e8762001e4c565b60405290565b60405161010081016001600160401b038111828210171562001e875762001e8762001e4c565b60405161016081016001600160401b038111828210171562001e875762001e8762001e4c565b60405160e081016001600160401b038111828210171562001e875762001e8762001e4c565b604051608081016001600160401b038111828210171562001e875762001e8762001e4c565b604051601f8201601f191681016001600160401b038111828210171562001f4e5762001f4e62001e4c565b604052919050565b600082601f83011262001f6857600080fd5b81356001600160401b0381111562001f845762001f8462001e4c565b62001f99601f8201601f191660200162001f23565b81815284602083860101111562001faf57600080fd5b816020850160208301376000918101602001919091529392505050565b6000610160828403121562001fe057600080fd5b50919050565b600060c0828403121562001fe057600080fd5b60008060008060008060c087890312156200201357600080fd5b6200201e8762001e3a565b95506020870135945060408701356001600160401b03808211156200204257600080fd5b620020508a838b0162001f56565b955060608901359150808211156200206757600080fd5b620020758a838b0162001fcc565b945060808901359150808211156200208c57600080fd5b6200209a8a838b0162001fe6565b935060a0890135915080821115620020b157600080fd5b50620020c089828a0162001f56565b9150509295509295509295565b60008060008060808587031215620020e457600080fd5b8435620020f18162001e21565b935060208501356001600160401b03808211156200210e57600080fd5b6200211c8883890162001fcc565b945060408701359150808211156200213357600080fd5b620021418883890162001fe6565b935060608701359150808211156200215857600080fd5b50620021678782880162001f56565b91505092959194509250565b6000602082840312156200218657600080fd5b8135620021938162001e21565b9392505050565b6003811062001e3757600080fd5b803562001e47816200219a565b803560ff8116811462001e4757600080fd5b600060c08284031215620021da57600080fd5b620021e462001e62565b9050620021f182620021a8565b815260208201356001600160401b03808211156200220e57600080fd5b6200221c8583860162001f56565b602084015260408401359150808211156200223657600080fd5b620022448583860162001f56565b604084015260608401359150808211156200225e57600080fd5b506200226d8482850162001f56565b606083015250608082013560808201526200228b60a08301620021b5565b60a082015292915050565b600082601f830112620022a857600080fd5b813560206001600160401b03821115620022c657620022c662001e4c565b8160051b620022d782820162001f23565b9283528481018201928281019087851115620022f257600080fd5b83870192505b848310156200231e5782356200230e8162001e21565b82529183019190830190620022f8565b979650505050505050565b600061010082840312156200233d57600080fd5b6200234762001e8d565b9050813581526020820135602082015260408201356040820152606082013560608201526080820135608082015260a082013560a082015260c082013560c082015260e08201356001600160401b03811115620023a357600080fd5b620023b18482850162002296565b60e08301525092915050565b60006101608284031215620023d157600080fd5b620023db62001eb3565b9050813581526020820135602082015260408201356040820152606082013560608201526080820135608082015260a082013560a082015260c08201356001600160401b03808211156200242e57600080fd5b6200243c8583860162002329565b60c084015260e08401359150808211156200245657600080fd5b50620024658482850162002296565b60e0830152506101006200247b81840162001e3a565b9082015261012082810135908201526101409182013591810191909152919050565b60006101408284031215620024b157600080fd5b620024bb62001ed9565b905081358152602080830135818301526040830135604083015260608301356060830152608083013560808301528360bf840112620024f957600080fd5b6200250362001efe565b806101208501868111156200251757600080fd5b60a086015b818110156200253557803584529284019284016200251c565b508160a0860152803560c08601525050505092915050565b6000806000806000806000610200888a0312156200256a57600080fd5b620025758862001e3a565b965060208801356001600160401b03808211156200259257600080fd5b620025a08b838c01620021c7565b975060408a0135915080821115620025b757600080fd5b620025c58b838c01620023bd565b965060608a0135915080821115620025dc57600080fd5b620025ea8b838c0162001f56565b9550620025fb8b60808c016200249d565b94506101c08a01359150808211156200261357600080fd5b620026218b838c0162002296565b93506101e08a01359150808211156200263957600080fd5b50620026488a828b0162002296565b91505092959891949750929550565b634e487b7160e01b600052602160045260246000fd5b6000602082840312156200268057600080fd5b8151620021938162001e21565b600060208284031215620026a057600080fd5b8151600581106200219357600080fd5b6000815180845260005b81811015620026d857602081850181015186830182015201620026ba565b506000602082860101526020601f19601f83011685010191505092915050565b602081526000620021936020830184620026b0565b6000602082840312156200272057600080fd5b815180151581146200219357600080fd5b6000602082840312156200274457600080fd5b813562002193816200219a565b6000602082840312156200276457600080fd5b5051919050565b805182526020808201518184015260408201516040840152606082015160608401526080820151608084015260a082015160a0840160005b6004811015620027c257825182529183019190830190600101620027a3565b5050505060c001516101209190910152565b600081518084526020808501945080840160005b838110156200280f5781516001600160a01b031687529582019590820190600101620027e8565b509495945050505050565b60006101806200282b83876200276b565b806101408401526200284081840186620027d4565b9050828103610160840152620028578185620027d4565b9695505050505050565b6003811062002874576200287462002657565b9052565b6200288582825162002861565b6000602082015160c06020850152620028a260c0850182620026b0565b905060408301518482036040860152620028bd8282620026b0565b91505060608301518482036060860152620028d98282620026b0565b9150506080830151608085015260ff60a08401511660a08501528091505092915050565b600060018060a01b0380861683526060602084015262002921606084018662002878565b9150808416604084015250949350505050565b6001600160a01b03831681526040810162002193602083018462002861565b6000610100825184526020830151602085015260408301516040850152606083015160608501526080830151608085015260a083015160a085015260c083015160c085015260e08301518160e0860152620029b182860182620027d4565b95945050505050565b6000610160825184526020830151602085015260408301516040850152606083015160608501526080830151608085015260a083015160a085015260c08301518160c086015262002a0e8286018262002953565b91505060e083015184820360e086015262002a2a8282620027d4565b9150506101008084015162002a49828701826001600160a01b03169052565b505061012083810151908501526101409283015192909301919091525090565b600060018060a01b03808816835280871660208401525084604083015260c06060830152600060c083015260e0608083015262002aaa60e0830185620029ba565b90508260a08301529695505050505050565b6001600160a01b03881681526102006020820181905260009062002ae38382018a62002878565b9050828103604084015262002af98189620029ba565b9050828103606084015262002b0f8188620026b0565b905062002b2060808401876200276b565b8281036101c084015262002b358186620027d4565b90508281036101e084015262002b4c8185620027d4565b9a9950505050505050505050565b6001600160a01b03858116825284166020820152604081018390526080606082018190526000906200285790830184620026b0565b6000808335601e1984360301811262002ba757600080fd5b83016020810192503590506001600160401b0381111562002bc757600080fd5b80360382131562002bd757600080fd5b9250929050565b81835281816020850137506000828201602090810191909152601f909101601f19169091010190565b6001600160a01b0384168152606060208201526000833562002c29816200219a565b62002c38606084018262002861565b5062002c48602085018562002b8f565b60c0608085015262002c606101208501828462002bde565b91505062002c72604086018662002b8f565b605f19808685030160a087015262002c8c84838562002bde565b935062002c9d606089018962002b8f565b93509150808685030160c08701525062002cb983838362002bde565b92505050608085013560e084015260ff62002cd760a08701620021b5565b166101008401526001600160a01b03841660408401529050949350505050565b6000823560fe1983360301811262002d0e57600080fd5b90910192915050565b6000808335601e1984360301811262002d2f57600080fd5b83016020810192503590506001600160401b0381111562002d4f57600080fd5b8060051b360382131562002bd757600080fd5b8183526000602080850194508260005b858110156200280f57813562002d888162001e21565b6001600160a01b03168752958201959082019060010162002d72565b6000610100823584526020830135602085015260408301356040850152606083013560608501526080830135608085015260a083013560a085015260c083013560c085015262002df860e084018462002d17565b8260e087015262002857838701828462002d62565b6000610160823584526020830135602085015260408301356040850152606083013560608501526080830135608085015260a083013560a085015262002e5760c084018462002cf7565b8160c086015262002e6b8286018262002da4565b91505062002e7d60e084018462002d17565b85830360e087015262002e9283828462002d62565b9250505061010062002ea681850162001e3a565b6001600160a01b03169085015261012083810135908501526101409283013592909301919091525090565b6001600160a01b038781168252861660208201526040810185905260c06060820181905260009062002f0690830186620026b0565b828103608084015262002f1a818662002e0d565b9150508260a0830152979650505050505050565b60006020828403121562002f4157600080fd5b815162002193816200219a565b6020808252602b908201527f496e697469616c697a61626c653a20636f6e7472616374206973206e6f74206960408201526a6e697469616c697a696e6760a81b606082015260800190565b6001600160a01b038416815260006005841062002fba5762002fba62002657565b83602083015260606040830152620029b16060830184620026b0565b6001600160a01b0385811682526000906004861062002ff95762002ff962002657565b85602084015280851660408401525082606083015260a06080830152600060a083015260c0820190509594505050505056fe60806040526040516109003803806109008339810160408190526100229161045b565b61002e82826000610035565b5050610585565b61003e83610100565b6040516001600160a01b038416907f1cf3b03a6cf19fa2baba4df148e9dcabedea7f8a5c07840e207e5c089be95d3e90600090a260008251118061007f5750805b156100fb576100f9836001600160a01b0316635c60da1b6040518163ffffffff1660e01b8152600401602060405180830381865afa1580156100c5573d6000803e3d6000fd5b505050506040513d601f19601f820116820180604052508101906100e9919061051b565b836102a360201b6100291760201c565b505b505050565b610113816102cf60201b6100551760201c565b6101725760405162461bcd60e51b815260206004820152602560248201527f455243313936373a206e657720626561636f6e206973206e6f74206120636f6e6044820152641d1c9858dd60da1b60648201526084015b60405180910390fd5b6101e6816001600160a01b0316635c60da1b6040518163ffffffff1660e01b8152600401602060405180830381865afa1580156101b3573d6000803e3d6000fd5b505050506040513d601f19601f820116820180604052508101906101d7919061051b565b6102cf60201b6100551760201c565b61024b5760405162461bcd60e51b815260206004820152603060248201527f455243313936373a20626561636f6e20696d706c656d656e746174696f6e206960448201526f1cc81b9bdd08184818dbdb9d1c9858dd60821b6064820152608401610169565b806102827fa3f0ad74e5423aebfd80d3ef4346578335a9a72aeaee59ff6cb3582b35133d5060001b6102de60201b6100641760201c565b80546001600160a01b0319166001600160a01b039290921691909117905550565b60606102c883836040518060600160405280602781526020016108d9602791396102e1565b9392505050565b6001600160a01b03163b151590565b90565b6060600080856001600160a01b0316856040516102fe9190610536565b600060405180830381855af49150503d8060008114610339576040519150601f19603f3d011682016040523d82523d6000602084013e61033e565b606091505b5090925090506103508683838761035a565b9695505050505050565b606083156103c95782516000036103c2576001600160a01b0385163b6103c25760405162461bcd60e51b815260206004820152601d60248201527f416464726573733a2063616c6c20746f206e6f6e2d636f6e74726163740000006044820152606401610169565b50816103d3565b6103d383836103db565b949350505050565b8151156103eb5781518083602001fd5b8060405162461bcd60e51b81526004016101699190610552565b80516001600160a01b038116811461041c57600080fd5b919050565b634e487b7160e01b600052604160045260246000fd5b60005b8381101561045257818101518382015260200161043a565b50506000910152565b6000806040838503121561046e57600080fd5b61047783610405565b60208401519092506001600160401b038082111561049457600080fd5b818501915085601f8301126104a857600080fd5b8151818111156104ba576104ba610421565b604051601f8201601f19908116603f011681019083821181831017156104e2576104e2610421565b816040528281528860208487010111156104fb57600080fd5b61050c836020830160208801610437565b80955050505050509250929050565b60006020828403121561052d57600080fd5b6102c882610405565b60008251610548818460208701610437565b9190910192915050565b6020815260008251806020840152610571816040850160208701610437565b601f01601f19169190910160400192915050565b610345806105946000396000f3fe60806040523661001357610011610017565b005b6100115b610027610022610067565b610100565b565b606061004e83836040518060600160405280602781526020016102e960279139610124565b9392505050565b6001600160a01b03163b151590565b90565b600061009a7fa3f0ad74e5423aebfd80d3ef4346578335a9a72aeaee59ff6cb3582b35133d50546001600160a01b031690565b6001600160a01b0316635c60da1b6040518163ffffffff1660e01b8152600401602060405180830381865afa1580156100d7573d6000803e3d6000fd5b505050506040513d601f19601f820116820180604052508101906100fb919061024c565b905090565b3660008037600080366000845af43d6000803e80801561011f573d6000f35b3d6000fd5b6060600080856001600160a01b0316856040516101419190610299565b600060405180830381855af49150503d806000811461017c576040519150601f19603f3d011682016040523d82523d6000602084013e610181565b606091505b50915091506101928683838761019c565b9695505050505050565b60608315610210578251600003610209576001600160a01b0385163b6102095760405162461bcd60e51b815260206004820152601d60248201527f416464726573733a2063616c6c20746f206e6f6e2d636f6e747261637400000060448201526064015b60405180910390fd5b508161021a565b61021a8383610222565b949350505050565b8151156102325781518083602001fd5b8060405162461bcd60e51b815260040161020091906102b5565b60006020828403121561025e57600080fd5b81516001600160a01b038116811461004e57600080fd5b60005b83811015610290578181015183820152602001610278565b50506000910152565b600082516102ab818460208701610275565b9190910192915050565b60208152600082518060208401526102d4816040850160208701610275565b601f01601f1916919091016040019291505056fe416464726573733a206c6f772d6c6576656c2064656c65676174652063616c6c206661696c6564a264697066735822122022a6bf5ebbb7518c40e703958b5c8e4d70ca6715c1e1ccf9e9591bfc86e066d164736f6c63430008110033416464726573733a206c6f772d6c6576656c2064656c65676174652063616c6c206661696c6564a264697066735822122041a9f88b00560d5e8c70f186243a3f6feaab1a8ef48464320c01ad7aa37c334c64736f6c63430008110033",
  "devdoc": {
    "details": "Deployment of a TGE can occur both within the execution of transactions prescribed by a proposal, and during the execution of a transaction initiated by the pool owner, who has not yet become a DAO.",
    "events": {
      "PrimaryTGECreated(address,address,address)": {
        "details": "Event emitted when the primary TGE contract is deployed.",
        "params": {
          "pool": "Address of the pool for which the TGE is launched.",
          "tge": "Address of the deployed TGE contract.",
          "token": "Address of the token contract."
        }
      },
      "SecondaryTGECreated(address,address,address)": {
        "details": "Event emitted when a secondary TGE contract operating with ERC20 tokens is deployed.",
        "params": {
          "pool": "Address of the pool for which the TGE is launched.",
          "tge": "Address of the deployed TGE contract.",
          "token": "Address of the ERC20 token contract."
        }
      },
      "SecondaryTGEERC1155Created(address,address,address,uint256)": {
        "details": "Event emitted when a secondary TGE contract operating with ERC1155 tokens is * deployed.",
        "params": {
          "pool": "Address of the pool for which the TGE is launched.*",
          "tge": "Address of the deployed TGE contract.*",
          "token": "Address of the ERC1155 token contract.*",
          "tokenId": "Identifier of the ERC1155 token collection."
        }
      }
    },
    "kind": "dev",
    "methods": {
      "constructor": {
        "custom:oz-upgrades-unsafe-allow": "constructor",
        "details": "This contract uses OpenZeppelin upgrades and has no need for a constructor function. The constructor is replaced with an initializer function. This method disables the initializer feature of the OpenZeppelin upgrades plugin, preventing the initializer methods from being misused."
      },
      "createPrimaryTGE(address,(uint8,string,string,string,uint256,uint8),(uint256,uint256,uint256,uint256,uint256,uint256,(uint256,uint256,uint256,uint256,uint256,uint256,uint256,address[]),address[],address,uint256,uint256),string,(uint256,uint256,uint256,uint256,uint256,uint256[4],uint256),address[],address[])": {
        "details": "This method is used to launch the primary TGE of the Governance token. When launching such a TGE, a new Token contract is deployed with TokenType = \"Governance\". If this TGE is successful, it will no longer be possible to repeat such a launch, and the created token will irreversibly become the Governance token of the pool.Simultaneously with contract deployment, Governance Settings and lists of secretaries and executors are set.",
        "params": {
          "executor": "Executor address",
          "governanceSettings_": "Set of Governance settings",
          "metadataURI": "Metadata URI",
          "poolAddress": "Pool address.",
          "secretary": "Secretary address",
          "tgeInfo": "Pool TGE parameters",
          "tokenInfo": "New token parameters (token type, decimals & description are ignored)"
        }
      },
      "createSecondaryTGE(address,(uint256,uint256,uint256,uint256,uint256,uint256,(uint256,uint256,uint256,uint256,uint256,uint256,uint256,address[]),address[],address,uint256,uint256),(uint8,string,string,string,uint256,uint8),string)": {
        "details": "This method allows users to launch primary and secondary TGEs for Governance and Preference tokens deployed based on the ERC20 contract. The creation of a token occurs if the TGE involves the distribution of a previously nonexistent Preference token. Launch is only possible by executing a successful proposal.",
        "params": {
          "metadataURI": "Metadata URI",
          "tgeInfo": "TGE parameters",
          "token": "ERC20 token address for distribution in the TGE",
          "tokenInfo": "Token parameters"
        }
      },
      "createSecondaryTGEERC1155(address,uint256,string,(uint256,uint256,uint256,uint256,uint256,uint256,(uint256,uint256,uint256,uint256,uint256,uint256,uint256,address[]),address[],address,uint256,uint256),(uint8,string,string,string,uint256,uint8),string)": {
        "details": "This method launches a secondary TGE for a specified series of ERC1155 Preference tokens. If an unused series is being used, the maximum cap for this series is determined within this transaction. If no token address is specified, a new ERC1155 Preference token contract is deployed.",
        "params": {
          "metadataURI": "Metadata URI",
          "tgeInfo": "TGE parameters",
          "token": "ERC1155 token address for distribution in the TGE",
          "tokenId": "ERC1155 token collection address for distribution of units in the TGE",
          "tokenInfo": "Token parameters",
          "uri": "Metadata URI according to the ERC1155 specification"
        }
      },
      "initialize(address)": {
        "details": "This method replaces the constructor for upgradeable contracts. It also sets the address of the Service contract in the contract's storage.",
        "params": {
          "service_": "The address of the Service contract."
        }
      }
    },
    "title": "TGE Factory contract",
    "version": 1
  },
  "userdoc": {
    "kind": "user",
    "methods": {
      "constructor": {
        "notice": "Contract constructor."
      },
      "initialize(address)": {
        "notice": "Contract initializer"
      },
      "service()": {
        "notice": "Service contract address"
      }
    },
    "notice": "Event emitted on creation of primary TGE.",
    "version": 1
  },
  "storageLayout": {
    "storage": [
      {
        "astId": 1184,
        "contract": "contracts/TGEFactory.sol:TGEFactory",
        "label": "_initialized",
        "offset": 0,
        "slot": "0",
        "type": "t_uint8"
      },
      {
        "astId": 1187,
        "contract": "contracts/TGEFactory.sol:TGEFactory",
        "label": "_initializing",
        "offset": 1,
        "slot": "0",
        "type": "t_bool"
      },
      {
        "astId": 1623,
        "contract": "contracts/TGEFactory.sol:TGEFactory",
        "label": "_status",
        "offset": 0,
        "slot": "1",
        "type": "t_uint256"
      },
      {
        "astId": 1681,
        "contract": "contracts/TGEFactory.sol:TGEFactory",
        "label": "__gap",
        "offset": 0,
        "slot": "2",
        "type": "t_array(t_uint256)49_storage"
      },
      {
        "astId": 17008,
        "contract": "contracts/TGEFactory.sol:TGEFactory",
        "label": "service",
        "offset": 0,
        "slot": "51",
        "type": "t_contract(IService)22074"
      }
    ],
    "types": {
      "t_array(t_uint256)49_storage": {
        "base": "t_uint256",
        "encoding": "inplace",
        "label": "uint256[49]",
        "numberOfBytes": "1568"
      },
      "t_bool": {
        "encoding": "inplace",
        "label": "bool",
        "numberOfBytes": "1"
      },
      "t_contract(IService)22074": {
        "encoding": "inplace",
        "label": "contract IService",
        "numberOfBytes": "20"
      },
      "t_uint256": {
        "encoding": "inplace",
        "label": "uint256",
        "numberOfBytes": "32"
      },
      "t_uint8": {
        "encoding": "inplace",
        "label": "uint8",
        "numberOfBytes": "1"
      }
    }
  }
}