{
  "address": "0xa03a9f31BADc2C8355809D23804A200779E6792a",
  "abi": [
    {
      "inputs": [],
      "stateMutability": "nonpayable",
      "type": "constructor"
    },
    {
      "anonymous": false,
      "inputs": [
        {
          "indexed": false,
          "internalType": "uint8",
          "name": "version",
          "type": "uint8"
        }
      ],
      "name": "Initialized",
      "type": "event"
    },
    {
      "anonymous": false,
      "inputs": [
        {
          "indexed": true,
          "internalType": "address",
          "name": "previousOwner",
          "type": "address"
        },
        {
          "indexed": true,
          "internalType": "address",
          "name": "newOwner",
          "type": "address"
        }
      ],
      "name": "OwnershipTransferred",
      "type": "event"
    },
    {
      "anonymous": false,
      "inputs": [
        {
          "indexed": true,
          "internalType": "bytes32",
          "name": "role",
          "type": "bytes32"
        },
        {
          "indexed": true,
          "internalType": "bytes32",
          "name": "previousAdminRole",
          "type": "bytes32"
        },
        {
          "indexed": true,
          "internalType": "bytes32",
          "name": "newAdminRole",
          "type": "bytes32"
        }
      ],
      "name": "RoleAdminChanged",
      "type": "event"
    },
    {
      "anonymous": false,
      "inputs": [
        {
          "indexed": true,
          "internalType": "bytes32",
          "name": "role",
          "type": "bytes32"
        },
        {
          "indexed": true,
          "internalType": "address",
          "name": "account",
          "type": "address"
        },
        {
          "indexed": true,
          "internalType": "address",
          "name": "sender",
          "type": "address"
        }
      ],
      "name": "RoleGranted",
      "type": "event"
    },
    {
      "anonymous": false,
      "inputs": [
        {
          "indexed": true,
          "internalType": "bytes32",
          "name": "role",
          "type": "bytes32"
        },
        {
          "indexed": true,
          "internalType": "address",
          "name": "account",
          "type": "address"
        },
        {
          "indexed": true,
          "internalType": "address",
          "name": "sender",
          "type": "address"
        }
      ],
      "name": "RoleRevoked",
      "type": "event"
    },
    {
      "inputs": [],
      "name": "DEFAULT_ADMIN_ROLE",
      "outputs": [
        {
          "internalType": "bytes32",
          "name": "",
          "type": "bytes32"
        }
      ],
      "stateMutability": "view",
      "type": "function"
    },
    {
      "inputs": [
        {
          "internalType": "bytes32",
          "name": "role",
          "type": "bytes32"
        }
      ],
      "name": "getRoleAdmin",
      "outputs": [
        {
          "internalType": "bytes32",
          "name": "",
          "type": "bytes32"
        }
      ],
      "stateMutability": "view",
      "type": "function"
    },
    {
      "inputs": [
        {
          "internalType": "bytes32",
          "name": "role",
          "type": "bytes32"
        },
        {
          "internalType": "uint256",
          "name": "index",
          "type": "uint256"
        }
      ],
      "name": "getRoleMember",
      "outputs": [
        {
          "internalType": "address",
          "name": "",
          "type": "address"
        }
      ],
      "stateMutability": "view",
      "type": "function"
    },
    {
      "inputs": [
        {
          "internalType": "bytes32",
          "name": "role",
          "type": "bytes32"
        }
      ],
      "name": "getRoleMemberCount",
      "outputs": [
        {
          "internalType": "uint256",
          "name": "",
          "type": "uint256"
        }
      ],
      "stateMutability": "view",
      "type": "function"
    },
    {
      "inputs": [],
      "name": "getTrustedForwarder",
      "outputs": [
        {
          "internalType": "address",
          "name": "",
          "type": "address"
        }
      ],
      "stateMutability": "view",
      "type": "function"
    },
    {
      "inputs": [
        {
          "internalType": "bytes32",
          "name": "role",
          "type": "bytes32"
        },
        {
          "internalType": "address",
          "name": "account",
          "type": "address"
        }
      ],
      "name": "grantRole",
      "outputs": [],
      "stateMutability": "nonpayable",
      "type": "function"
    },
    {
      "inputs": [
        {
          "internalType": "bytes32",
          "name": "role",
          "type": "bytes32"
        },
        {
          "internalType": "address",
          "name": "account",
          "type": "address"
        }
      ],
      "name": "hasRole",
      "outputs": [
        {
          "internalType": "bool",
          "name": "",
          "type": "bool"
        }
      ],
      "stateMutability": "view",
      "type": "function"
    },
    {
      "inputs": [
        {
          "internalType": "address",
          "name": "registry_",
          "type": "address"
        }
      ],
      "name": "initialize",
      "outputs": [],
      "stateMutability": "nonpayable",
      "type": "function"
    },
    {
      "inputs": [
        {
          "internalType": "address",
          "name": "forwarder",
          "type": "address"
        }
      ],
      "name": "isTrustedForwarder",
      "outputs": [
        {
          "internalType": "bool",
          "name": "",
          "type": "bool"
        }
      ],
      "stateMutability": "view",
      "type": "function"
    },
    {
      "inputs": [],
      "name": "owner",
      "outputs": [
        {
          "internalType": "address",
          "name": "",
          "type": "address"
        }
      ],
      "stateMutability": "view",
      "type": "function"
    },
    {
      "inputs": [
        {
          "internalType": "address",
          "name": "pool",
          "type": "address"
        },
        {
          "internalType": "address[]",
          "name": "targets",
          "type": "address[]"
        },
        {
          "internalType": "uint256[]",
          "name": "values",
          "type": "uint256[]"
        },
        {
          "internalType": "bytes[]",
          "name": "callDatas",
          "type": "bytes[]"
        },
        {
          "internalType": "string",
          "name": "description",
          "type": "string"
        },
        {
          "internalType": "string",
          "name": "metaHash",
          "type": "string"
        }
      ],
      "name": "proposeCustomTx",
      "outputs": [
        {
          "internalType": "uint256",
          "name": "proposalId",
          "type": "uint256"
        }
      ],
      "stateMutability": "nonpayable",
      "type": "function"
    },
    {
      "inputs": [
        {
          "internalType": "address",
          "name": "pool",
          "type": "address"
        },
        {
          "internalType": "address",
          "name": "tokenContract",
          "type": "address"
        },
        {
          "internalType": "address",
          "name": "tokenAddress",
          "type": "address"
        },
        {
          "internalType": "uint256",
          "name": "amount",
          "type": "uint256"
        },
        {
          "internalType": "string",
          "name": "description",
          "type": "string"
        },
        {
          "internalType": "string",
          "name": "metaHash",
          "type": "string"
        }
      ],
      "name": "proposeDividendDeposit",
      "outputs": [
        {
          "internalType": "uint256",
          "name": "proposalId",
          "type": "uint256"
        }
      ],
      "stateMutability": "nonpayable",
      "type": "function"
    },
    {
      "inputs": [
        {
          "internalType": "address",
          "name": "pool",
          "type": "address"
        },
        {
          "internalType": "address",
          "name": "tokenContract",
          "type": "address"
        },
        {
          "internalType": "uint256",
          "name": "tokenId",
          "type": "uint256"
        },
        {
          "internalType": "address",
          "name": "tokenAddress",
          "type": "address"
        },
        {
          "internalType": "uint256",
          "name": "amount",
          "type": "uint256"
        },
        {
          "internalType": "string",
          "name": "description",
          "type": "string"
        },
        {
          "internalType": "string",
          "name": "metaHash",
          "type": "string"
        }
      ],
      "name": "proposeDividendDepositERC1155",
      "outputs": [
        {
          "internalType": "uint256",
          "name": "proposalId",
          "type": "uint256"
        }
      ],
      "stateMutability": "nonpayable",
      "type": "function"
    },
    {
      "inputs": [
        {
          "internalType": "address",
          "name": "pool",
          "type": "address"
        },
        {
          "components": [
            {
              "internalType": "uint256",
              "name": "proposalThreshold",
              "type": "uint256"
            },
            {
              "internalType": "uint256",
              "name": "quorumThreshold",
              "type": "uint256"
            },
            {
              "internalType": "uint256",
              "name": "decisionThreshold",
              "type": "uint256"
            },
            {
              "internalType": "uint256",
              "name": "votingDuration",
              "type": "uint256"
            },
            {
              "internalType": "uint256",
              "name": "transferValueForDelay",
              "type": "uint256"
            },
            {
              "internalType": "uint256[4]",
              "name": "executionDelays",
              "type": "uint256[4]"
            },
            {
              "internalType": "uint256",
              "name": "votingStartDelay",
              "type": "uint256"
            }
          ],
          "internalType": "struct IGovernanceSettings.NewGovernanceSettings",
          "name": "settings",
          "type": "tuple"
        },
        {
          "internalType": "string",
          "name": "description",
          "type": "string"
        },
        {
          "internalType": "string",
          "name": "metaHash",
          "type": "string"
        }
      ],
      "name": "proposeGovernanceSettings",
      "outputs": [
        {
          "internalType": "uint256",
          "name": "proposalId",
          "type": "uint256"
        }
      ],
      "stateMutability": "nonpayable",
      "type": "function"
    },
    {
      "inputs": [
        {
          "internalType": "address",
          "name": "pool",
          "type": "address"
        },
        {
          "components": [
            {
              "internalType": "uint256",
              "name": "proposalThreshold",
              "type": "uint256"
            },
            {
              "internalType": "uint256",
              "name": "quorumThreshold",
              "type": "uint256"
            },
            {
              "internalType": "uint256",
              "name": "decisionThreshold",
              "type": "uint256"
            },
            {
              "internalType": "uint256",
              "name": "votingDuration",
              "type": "uint256"
            },
            {
              "internalType": "uint256",
              "name": "transferValueForDelay",
              "type": "uint256"
            },
            {
              "internalType": "uint256[4]",
              "name": "executionDelays",
              "type": "uint256[4]"
            },
            {
              "internalType": "uint256",
              "name": "votingStartDelay",
              "type": "uint256"
            }
          ],
          "internalType": "struct IGovernanceSettings.NewGovernanceSettings",
          "name": "settings",
          "type": "tuple"
        },
        {
          "internalType": "address[]",
          "name": "secretary",
          "type": "address[]"
        },
        {
          "internalType": "address[]",
          "name": "executor",
          "type": "address[]"
        },
        {
          "internalType": "string",
          "name": "description",
          "type": "string"
        },
        {
          "internalType": "string",
          "name": "metaHash",
          "type": "string"
        }
      ],
      "name": "proposeGovernanceSettingsWithRoles",
      "outputs": [
        {
          "internalType": "uint256",
          "name": "proposalId",
          "type": "uint256"
        }
      ],
      "stateMutability": "nonpayable",
      "type": "function"
    },
    {
      "inputs": [
        {
          "internalType": "address",
          "name": "pool",
          "type": "address"
        },
        {
          "internalType": "address",
          "name": "token",
          "type": "address"
        },
        {
          "components": [
            {
              "internalType": "uint256",
              "name": "price",
              "type": "uint256"
            },
            {
              "internalType": "uint256",
              "name": "hardcap",
              "type": "uint256"
            },
            {
              "internalType": "uint256",
              "name": "softcap",
              "type": "uint256"
            },
            {
              "internalType": "uint256",
              "name": "minPurchase",
              "type": "uint256"
            },
            {
              "internalType": "uint256",
              "name": "maxPurchase",
              "type": "uint256"
            },
            {
              "internalType": "uint256",
              "name": "duration",
              "type": "uint256"
            },
            {
              "components": [
                {
                  "internalType": "uint256",
                  "name": "vestedShare",
                  "type": "uint256"
                },
                {
                  "internalType": "uint256",
                  "name": "cliff",
                  "type": "uint256"
                },
                {
                  "internalType": "uint256",
                  "name": "cliffShare",
                  "type": "uint256"
                },
                {
                  "internalType": "uint256",
                  "name": "spans",
                  "type": "uint256"
                },
                {
                  "internalType": "uint256",
                  "name": "spanDuration",
                  "type": "uint256"
                },
                {
                  "internalType": "uint256",
                  "name": "spanShare",
                  "type": "uint256"
                },
                {
                  "internalType": "uint256",
                  "name": "claimTVL",
                  "type": "uint256"
                },
                {
                  "internalType": "address[]",
                  "name": "resolvers",
                  "type": "address[]"
                }
              ],
              "internalType": "struct IVesting.VestingParams",
              "name": "vestingParams",
              "type": "tuple"
            },
            {
              "internalType": "address[]",
              "name": "userWhitelist",
              "type": "address[]"
            },
            {
              "internalType": "uint256[]",
              "name": "userWhitelistMin",
              "type": "uint256[]"
            },
            {
              "internalType": "uint256[]",
              "name": "userWhitelistMax",
              "type": "uint256[]"
            },
            {
              "internalType": "address",
              "name": "unitOfAccount",
              "type": "address"
            },
            {
              "internalType": "uint256",
              "name": "lockupDuration",
              "type": "uint256"
            },
            {
              "internalType": "uint256",
              "name": "lockupTVL",
              "type": "uint256"
            },
            {
              "internalType": "address",
              "name": "whitelistAdmin",
              "type": "address"
            }
          ],
          "internalType": "struct ITGE.TGEInfo",
          "name": "tgeInfo",
          "type": "tuple"
        },
        {
          "components": [
            {
              "internalType": "enum IToken.TokenType",
              "name": "tokenType",
              "type": "uint8"
            },
            {
              "internalType": "string",
              "name": "name",
              "type": "string"
            },
            {
              "internalType": "string",
              "name": "symbol",
              "type": "string"
            },
            {
              "internalType": "string",
              "name": "description",
              "type": "string"
            },
            {
              "internalType": "uint256",
              "name": "cap",
              "type": "uint256"
            },
            {
              "internalType": "uint8",
              "name": "decimals",
              "type": "uint8"
            }
          ],
          "internalType": "struct IToken.TokenInfo",
          "name": "tokenInfo",
          "type": "tuple"
        },
        {
          "internalType": "string",
          "name": "metadataURI",
          "type": "string"
        },
        {
          "internalType": "string",
          "name": "description",
          "type": "string"
        },
        {
          "internalType": "string",
          "name": "metaHash",
          "type": "string"
        }
      ],
      "name": "proposeTGE",
      "outputs": [
        {
          "internalType": "uint256",
          "name": "proposalId",
          "type": "uint256"
        }
      ],
      "stateMutability": "nonpayable",
      "type": "function"
    },
    {
      "inputs": [
        {
          "internalType": "address",
          "name": "pool",
          "type": "address"
        },
        {
          "internalType": "address",
          "name": "token",
          "type": "address"
        },
        {
          "internalType": "uint256",
          "name": "tokenId",
          "type": "uint256"
        },
        {
          "internalType": "string",
          "name": "tokenIdMetadataURI",
          "type": "string"
        },
        {
          "components": [
            {
              "internalType": "uint256",
              "name": "price",
              "type": "uint256"
            },
            {
              "internalType": "uint256",
              "name": "hardcap",
              "type": "uint256"
            },
            {
              "internalType": "uint256",
              "name": "softcap",
              "type": "uint256"
            },
            {
              "internalType": "uint256",
              "name": "minPurchase",
              "type": "uint256"
            },
            {
              "internalType": "uint256",
              "name": "maxPurchase",
              "type": "uint256"
            },
            {
              "internalType": "uint256",
              "name": "duration",
              "type": "uint256"
            },
            {
              "components": [
                {
                  "internalType": "uint256",
                  "name": "vestedShare",
                  "type": "uint256"
                },
                {
                  "internalType": "uint256",
                  "name": "cliff",
                  "type": "uint256"
                },
                {
                  "internalType": "uint256",
                  "name": "cliffShare",
                  "type": "uint256"
                },
                {
                  "internalType": "uint256",
                  "name": "spans",
                  "type": "uint256"
                },
                {
                  "internalType": "uint256",
                  "name": "spanDuration",
                  "type": "uint256"
                },
                {
                  "internalType": "uint256",
                  "name": "spanShare",
                  "type": "uint256"
                },
                {
                  "internalType": "uint256",
                  "name": "claimTVL",
                  "type": "uint256"
                },
                {
                  "internalType": "address[]",
                  "name": "resolvers",
                  "type": "address[]"
                }
              ],
              "internalType": "struct IVesting.VestingParams",
              "name": "vestingParams",
              "type": "tuple"
            },
            {
              "internalType": "address[]",
              "name": "userWhitelist",
              "type": "address[]"
            },
            {
              "internalType": "uint256[]",
              "name": "userWhitelistMin",
              "type": "uint256[]"
            },
            {
              "internalType": "uint256[]",
              "name": "userWhitelistMax",
              "type": "uint256[]"
            },
            {
              "internalType": "address",
              "name": "unitOfAccount",
              "type": "address"
            },
            {
              "internalType": "uint256",
              "name": "lockupDuration",
              "type": "uint256"
            },
            {
              "internalType": "uint256",
              "name": "lockupTVL",
              "type": "uint256"
            },
            {
              "internalType": "address",
              "name": "whitelistAdmin",
              "type": "address"
            }
          ],
          "internalType": "struct ITGE.TGEInfo",
          "name": "tgeInfo",
          "type": "tuple"
        },
        {
          "components": [
            {
              "internalType": "enum IToken.TokenType",
              "name": "tokenType",
              "type": "uint8"
            },
            {
              "internalType": "string",
              "name": "name",
              "type": "string"
            },
            {
              "internalType": "string",
              "name": "symbol",
              "type": "string"
            },
            {
              "internalType": "string",
              "name": "description",
              "type": "string"
            },
            {
              "internalType": "uint256",
              "name": "cap",
              "type": "uint256"
            },
            {
              "internalType": "uint8",
              "name": "decimals",
              "type": "uint8"
            }
          ],
          "internalType": "struct IToken.TokenInfo",
          "name": "tokenInfo",
          "type": "tuple"
        },
        {
          "internalType": "string",
          "name": "metadataURI",
          "type": "string"
        },
        {
          "internalType": "string",
          "name": "description",
          "type": "string"
        },
        {
          "internalType": "string",
          "name": "metaHash",
          "type": "string"
        }
      ],
      "name": "proposeTGEERC1155",
      "outputs": [
        {
          "internalType": "uint256",
          "name": "proposalId",
          "type": "uint256"
        }
      ],
      "stateMutability": "nonpayable",
      "type": "function"
    },
    {
      "inputs": [
        {
          "internalType": "address",
          "name": "pool",
          "type": "address"
        },
        {
          "internalType": "address",
          "name": "asset",
          "type": "address"
        },
        {
          "internalType": "address[]",
          "name": "recipients",
          "type": "address[]"
        },
        {
          "internalType": "uint256[]",
          "name": "amounts",
          "type": "uint256[]"
        },
        {
          "internalType": "string",
          "name": "description",
          "type": "string"
        },
        {
          "internalType": "string",
          "name": "metaHash",
          "type": "string"
        }
      ],
      "name": "proposeTransfer",
      "outputs": [
        {
          "internalType": "uint256",
          "name": "proposalId",
          "type": "uint256"
        }
      ],
      "stateMutability": "nonpayable",
      "type": "function"
    },
    {
      "inputs": [],
      "name": "registry",
      "outputs": [
        {
          "internalType": "contract IRegistry",
          "name": "",
          "type": "address"
        }
      ],
      "stateMutability": "view",
      "type": "function"
    },
    {
      "inputs": [],
      "name": "renounceOwnership",
      "outputs": [],
      "stateMutability": "nonpayable",
      "type": "function"
    },
    {
      "inputs": [
        {
          "internalType": "bytes32",
          "name": "role",
          "type": "bytes32"
        },
        {
          "internalType": "address",
          "name": "account",
          "type": "address"
        }
      ],
      "name": "renounceRole",
      "outputs": [],
      "stateMutability": "nonpayable",
      "type": "function"
    },
    {
      "inputs": [
        {
          "internalType": "bytes32",
          "name": "role",
          "type": "bytes32"
        },
        {
          "internalType": "address",
          "name": "account",
          "type": "address"
        }
      ],
      "name": "revokeRole",
      "outputs": [],
      "stateMutability": "nonpayable",
      "type": "function"
    },
    {
      "inputs": [
        {
          "internalType": "bytes4",
          "name": "interfaceId",
          "type": "bytes4"
        }
      ],
      "name": "supportsInterface",
      "outputs": [
        {
          "internalType": "bool",
          "name": "",
          "type": "bool"
        }
      ],
      "stateMutability": "view",
      "type": "function"
    },
    {
      "inputs": [
        {
          "internalType": "address",
          "name": "newOwner",
          "type": "address"
        }
      ],
      "name": "transferOwnership",
      "outputs": [],
      "stateMutability": "nonpayable",
      "type": "function"
    }
  ],
  "transactionHash": "0x9583ab7d150dc7ecdcc406886a5c04429f62c2e00847009b4b783448c4862350",
  "args": [],
  "numDeployments": 2,
  "solcInputHash": "cb4f63f6f580008b95d52d1cf6610d76",
  "bytecode": "0x60806040523480156200001157600080fd5b506200001c62000022565b620000e4565b600054610100900460ff16156200008f5760405162461bcd60e51b815260206004820152602760248201527f496e697469616c697a61626c653a20636f6e747261637420697320696e697469604482015266616c697a696e6760c81b606482015260840160405180910390fd5b60005460ff9081161015620000e2576000805460ff191660ff9081179091556040519081527f7f26b83ff96e1f2b6a682f133852f6798a09c465da95921460cefb38474024989060200160405180910390a15b565b61451f80620000f46000396000f3fe608060405234801561001057600080fd5b50600436106101585760003560e01c80638da5cb5b116100c3578063c4d66de81161007c578063c4d66de8146102e8578063ca15c873146102fb578063ce1b815f1461030e578063d547741f14610316578063f2fde38b14610329578063f31a8d8d1461033c57600080fd5b80638da5cb5b146102835780639010d07c1461029457806391d14854146102a7578063a217fddf146102ba578063a7eecd9a146102c2578063b9222f6d146102d557600080fd5b806338a5947e1161011557806338a5947e146102045780634c70d35e14610217578063572b6c051461022a578063715018a61461023d5780637b1039991461024557806386a93c871461027057600080fd5b806301ffc9a71461015d5780631fb92cc814610185578063248a9ca3146101a65780632521caef146101c95780632f2ff15d146101dc57806336568abe146101f1575b600080fd5b61017061016b3660046130b7565b61034f565b60405190151581526020015b60405180910390f35b610198610193366004613610565b61037a565b60405190815260200161017c565b6101986101b4366004613702565b60009081526097602052604090206001015490565b6101986101d736600461371b565b610a83565b6101ef6101ea36600461378b565b610e14565b005b6101ef6101ff36600461378b565b610e3e565b610198610212366004613862565b610ecc565b6101986102253660046139c8565b6111fb565b610170610238366004613a8e565b611513565b6101ef611538565b60fb54610258906001600160a01b031681565b6040516001600160a01b03909116815260200161017c565b61019861027e366004613aab565b61154c565b6033546001600160a01b0316610258565b6102586102a2366004613b12565b611950565b6101706102b536600461378b565b61196f565b610198600081565b6101986102d0366004613b34565b61199a565b6101986102e3366004613bbe565b611c73565b6101ef6102f6366004613a8e565b611ff4565b610198610309366004613702565b612118565b61025861212f565b6101ef61032436600461378b565b612203565b6101ef610337366004613a8e565b612228565b61019861034a366004613c38565b6122a1565b60006001600160e01b03198216635a05180f60e01b1480610374575061037482612a6b565b92915050565b6000806001600160a01b03881615806103f8575060405163599fbc6560e11b81526001600160a01b0389811660048301528a169063b33f78ca90602401602060405180830381865afa1580156103d4573d6000803e3d6000fd5b505050506040513d601f19601f820116820180604052508101906103f89190613d59565b6040518060400160405280601381526020017257524f4e475f544f4b454e5f4144445245535360681b8152509061044b5760405162461bcd60e51b81526004016104429190613dcb565b60405180910390fd5b5060018651600281111561046157610461613dde565b0361053a57876001600160a01b031663355274ea6040518163ffffffff1660e01b8152600401602060405180830381865afa1580156104a4573d6000803e3d6000fd5b505050506040513d601f19601f820116820180604052508101906104c89190613df4565b866080018181525050876001600160a01b031663585fe4d56040518163ffffffff1660e01b8152600401602060405180830381865afa15801561050f573d6000803e3d6000fd5b505050506040513d601f19601f820116820180604052508101906105339190613df4565b905061069a565b60028651600281111561054f5761054f613dde565b0361069a576001600160a01b0388161561069a57876001600160a01b031663d04d79b56040518163ffffffff1660e01b8152600401602060405180830381865afa1580156105a1573d6000803e3d6000fd5b505050506040513d601f19601f820116820180604052508101906105c59190613d59565b1561069a57876001600160a01b031663355274ea6040518163ffffffff1660e01b8152600401602060405180830381865afa158015610608573d6000803e3d6000fd5b505050506040513d601f19601f8201168201806040525081019061062c9190613df4565b866080018181525050876001600160a01b031663585fe4d56040518163ffffffff1660e01b8152600401602060405180830381865afa158015610673573d6000803e3d6000fd5b505050506040513d601f19601f820116820180604052508101906106979190613df4565b90505b60fb60009054906101000a90046001600160a01b03166001600160a01b031663d598d4c96040518163ffffffff1660e01b8152600401602060405180830381865afa1580156106ed573d6000803e3d6000fd5b505050506040513d601f19601f820116820180604052508101906107119190613e0d565b608087015187516040516319caec7360e21b81526001600160a01b03939093169263672bb1cc92610749928c9287919060040161400d565b60006040518083038186803b15801561076157600080fd5b505afa158015610775573d6000803e3d6000fd5b5060009250600191506107859050565b6040519080825280602002602001820160405280156107ae578160200160208202803683370190505b50905060fb60009054906101000a90046001600160a01b03166001600160a01b031663d598d4c96040518163ffffffff1660e01b8152600401602060405180830381865afa158015610804573d6000803e3d6000fd5b505050506040513d601f19601f820116820180604052508101906108289190613e0d565b6001600160a01b031663102c5c016040518163ffffffff1660e01b8152600401602060405180830381865afa158015610865573d6000803e3d6000fd5b505050506040513d601f19601f820116820180604052508101906108899190613e0d565b8160008151811061089c5761089c61403b565b6001600160a01b0392909216602092830291909101909101526040805160018082528183019092526000918160200160208202803683370190505090506000816000815181106108ee576108ee61403b565b6020908102919091010152604080516001808252818301909252600091816020015b6060815260200190600190039081610910575050604051909150634176043960e01b90610947908d908d908d908d906024016140ce565b604051602081830303815290604052906001600160e01b0319166020820180516001600160e01b0383818316178352505050508160008151811061098d5761098d61403b565b602002602001018190525060008c6001600160a01b031663f7ec6f106109b1612aa0565b60016040518060c0016040528089815260200188815260200187815260200160008152602001600081526020016000815250604051806060016040528060026003811115610a0157610a01613dde565b81526020018e81526020018d8152506040518563ffffffff1660e01b8152600401610a2f9493929190614222565b6020604051808303816000875af1158015610a4e573d6000803e3d6000fd5b505050506040513d601f19601f82011682018060405250810190610a729190613df4565b9d9c50505050505050505050505050565b600087600160fb54604051630db9619f60e31b81526001600160a01b03848116600483015290911690636dcb0cf890602401602060405180830381865afa158015610ad2573d6000803e3d6000fd5b505050506040513d601f19601f82011682018060405250810190610af6919061425b565b6004811115610b0757610b07613dde565b14604051806040016040528060088152602001671393d517d413d3d360c21b81525090610b475760405162461bcd60e51b81526004016104429190613dcb565b5060008511610b985760405162461bcd60e51b815260206004820152601d60248201527f416d6f756e74206d7573742062652067726561746572207468616e20300000006044820152606401610442565b60408051600180825281830190925260009160208083019080368337505060408051600180825281830190925292935060009291506020808301908036833750506040805160018082528183019092529293506000929150602082015b6060815260200190600190039081610bf55790505090506001600160a01b038916610ce7578a83600081518110610c2e57610c2e61403b565b60200260200101906001600160a01b031690816001600160a01b0316815250508782600081518110610c6257610c6261403b565b6020908102919091010152604051602481018b9052600060448201526064810189905263173c325f60e11b90608401604051602081830303815290604052906001600160e01b0319166020820180516001600160e01b03838183161783525050505081600081518110610cd757610cd761403b565b6020026020010181905250610dab565b8a83600081518110610cfb57610cfb61403b565b60200260200101906001600160a01b031690816001600160a01b031681525050600082600081518110610d3057610d3061403b565b60209081029190910181019190915260408051602481018d90526001600160a01b038c16604482015260648082018c905282518083039091018152608490910190915290810180516001600160e01b031663173c325f60e11b17905281518290600090610d9f57610d9f61403b565b60200260200101819052505b60008c6001600160a01b031663f7ec6f10610dc4612aa0565b60056040518060c0016040528089815260200188815260200187815260200160008152602001600081526020016000815250604051806060016040528060016003811115610a0157610a01613dde565b600082815260976020526040902060010154610e2f81612aaa565b610e398383612abb565b505050565b610e46612aa0565b6001600160a01b0316816001600160a01b031614610ebe5760405162461bcd60e51b815260206004820152602f60248201527f416363657373436f6e74726f6c3a2063616e206f6e6c792072656e6f756e636560448201526e103937b632b9903337b91039b2b63360891b6064820152608401610442565b610ec88282612add565b5050565b604051633157293f60e01b8152600260048201526000906001600160a01b03881690633157293f90602401602060405180830381865afa158015610f14573d6000803e3d6000fd5b505050506040513d601f19601f82011682018060405250810190610f389190613d59565b156040518060600160405280602a81526020016144c0602a913990610f705760405162461bcd60e51b81526004016104429190613dcb565b506040516323fb0ead60e21b81526001600160a01b03881690638fec3ab490610f9d9089906004016142e3565b60006040518083038186803b158015610fb557600080fd5b505afa158015610fc9573d6000803e3d6000fd5b506000925060019150610fd99050565b604051908082528060200260200182016040528015611002578160200160208202803683370190505b50905087816000815181106110195761101961403b565b6001600160a01b03929092166020928302919091019091015260408051600180825281830190925260009181602001602082028036833701905050905060008160008151811061106b5761106b61403b565b6020908102919091010152604080516001808252818301909252600091816020015b606081526020019060019003908161108d5750506040519091506396a7244160e01b906110c2908b908b908b906024016142f2565b604051602081830303815290604052906001600160e01b0319166020820180516001600160e01b038381831617835250505050816000815181106111085761110861403b565b602002602001018190525060008a6001600160a01b031663f7ec6f1061112c612aa0565b60026040518060c0016040528089815260200188815260200187815260200160008152602001600081526020016000815250604051806060016040528060038081111561117b5761117b613dde565b81526020018d81526020018c8152506040518563ffffffff1660e01b81526004016111a99493929190614222565b6020604051808303816000875af11580156111c8573d6000803e3d6000fd5b505050506040513d601f19601f820116820180604052508101906111ec9190613df4565b9b9a5050505050505050505050565b600086600160fb54604051630db9619f60e31b81526001600160a01b03848116600483015290911690636dcb0cf890602401602060405180830381865afa15801561124a573d6000803e3d6000fd5b505050506040513d601f19601f8201168201806040525081019061126e919061425b565b600481111561127f5761127f613dde565b14604051806040016040528060088152602001671393d517d413d3d360c21b815250906112bf5760405162461bcd60e51b81526004016104429190613dcb565b50855187511480156112d2575084518751145b6040518060400160405280600d81526020016c494e56414c49445f56414c554560981b815250906113165760405162461bcd60e51b81526004016104429190613dcb565b5060005b875181101561142b5760fb5488516000916001600160a01b031690636dcb0cf8908b908590811061134d5761134d61403b565b60200260200101516040518263ffffffff1660e01b815260040161138091906001600160a01b0391909116815260200190565b602060405180830381865afa15801561139d573d6000803e3d6000fd5b505050506040513d601f19601f820116820180604052508101906113c1919061425b565b60048111156113d2576113d2613dde565b146040518060400160405280600e81526020016d1253959053125117d5105491d15560921b815250906114185760405162461bcd60e51b81526004016104429190613dcb565b508061142381614349565b91505061131a565b506000886001600160a01b031663f7ec6f10611445612aa0565b60046040518060c001604052808d81526020018c81526020018b81526020016000815260200160008152602001600081525060405180606001604052806001600381111561149557611495613dde565b81526020018b81526020018a8152506040518563ffffffff1660e01b81526004016114c39493929190614222565b6020604051808303816000875af11580156114e2573d6000803e3d6000fd5b505050506040513d601f19601f820116820180604052508101906115069190613df4565b9998505050505050505050565b600061151d61212f565b6001600160a01b0316826001600160a01b0316149050919050565b611540612aff565b61154a6000612b78565b565b600086600160fb54604051630db9619f60e31b81526001600160a01b03848116600483015290911690636dcb0cf890602401602060405180830381865afa15801561159b573d6000803e3d6000fd5b505050506040513d601f19601f820116820180604052508101906115bf919061425b565b60048111156115d0576115d0613dde565b14604051806040016040528060088152602001671393d517d413d3d360c21b815250906116105760405162461bcd60e51b81526004016104429190613dcb565b50600085116116615760405162461bcd60e51b815260206004820152601d60248201527f416d6f756e74206d7573742062652067726561746572207468616e20300000006044820152606401610442565b60408051600180825281830190925260009160208083019080368337505060408051600180825281830190925292935060009291506020808301908036833750506040805160018082528183019092529293506000929150602082015b60608152602001906001900390816116be5790505090506001600160a01b0389166117a95789836000815181106116f7576116f761403b565b60200260200101906001600160a01b031690816001600160a01b031681525050878260008151811061172b5761172b61403b565b60209081029190910101526040516000602482015260448101899052634c9ae6c760e11b90606401604051602081830303815290604052906001600160e01b0319166020820180516001600160e01b038381831617835250505050816000815181106117995761179961403b565b6020026020010181905250611866565b89836000815181106117bd576117bd61403b565b60200260200101906001600160a01b031690816001600160a01b0316815250506000826000815181106117f2576117f261403b565b602090810291909101810191909152604080516001600160a01b038c16602482015260448082018c905282518083039091018152606490910190915290810180516001600160e01b0316634c9ae6c760e11b1790528151829060009061185a5761185a61403b565b60200260200101819052505b60008b6001600160a01b031663f7ec6f1061187f612aa0565b60056040518060c00160405280898152602001888152602001878152602001600081526020016000815260200160008152506040518060600160405280600160038111156118cf576118cf613dde565b81526020018e81526020018d8152506040518563ffffffff1660e01b81526004016118fd9493929190614222565b6020604051808303816000875af115801561191c573d6000803e3d6000fd5b505050506040513d601f19601f820116820180604052508101906119409190613df4565b9c9b505050505050505050505050565b600082815260c9602052604081206119689083612bca565b9392505050565b60009182526097602090815260408084206001600160a01b0393909316845291905290205460ff1690565b604051633157293f60e01b8152600260048201526000906001600160a01b03861690633157293f90602401602060405180830381865afa1580156119e2573d6000803e3d6000fd5b505050506040513d601f19601f82011682018060405250810190611a069190613d59565b156040518060600160405280602a81526020016144c0602a913990611a3e5760405162461bcd60e51b81526004016104429190613dcb565b506040516323fb0ead60e21b81526001600160a01b03861690638fec3ab490611a6b9087906004016142e3565b60006040518083038186803b158015611a8357600080fd5b505afa158015611a97573d6000803e3d6000fd5b506000925060019150611aa79050565b604051908082528060200260200182016040528015611ad0578160200160208202803683370190505b5090508581600081518110611ae757611ae761403b565b6001600160a01b039290921660209283029190910190910152604080516001808252818301909252600091816020016020820280368337019050509050600081600081518110611b3957611b3961403b565b6020908102919091010152604080516001808252818301909252600091816020015b6060815260200190600190039081611b5b575050604051909150639198c39360e01b90611b8c9089906024016142e3565b604051602081830303815290604052906001600160e01b0319166020820180516001600160e01b03838183161783525050505081600081518110611bd257611bd261403b565b60200260200101819052506000886001600160a01b031663f7ec6f10611bf6612aa0565b60026040518060c00160405280898152602001888152602001878152602001600081526020016000815260200160008152506040518060600160405280600380811115611c4557611c45613dde565b81526020018d81526020018c8152506040518563ffffffff1660e01b81526004016114c39493929190614222565b6000808551118015611c86575083518551145b6040518060400160405280600d81526020016c494e56414c49445f56414c554560981b81525090611cca5760405162461bcd60e51b81526004016104429190613dcb565b50600085516001600160401b03811115611ce657611ce6613106565b604051908082528060200260200182016040528015611d0f578160200160208202803683370190505b509050600086516001600160401b03811115611d2d57611d2d613106565b604051908082528060200260200182016040528015611d56578160200160208202803683370190505b509050600087516001600160401b03811115611d7457611d74613106565b604051908082528060200260200182016040528015611da757816020015b6060815260200190600190039081611d925790505b50905060005b8851811015611f8a576001600160a01b038a16611e7a57888181518110611dd657611dd661403b565b6020026020010151848281518110611df057611df061403b565b60200260200101906001600160a01b031690816001600160a01b03168152505060405180602001604052806000815250828281518110611e3257611e3261403b565b6020026020010181905250878181518110611e4f57611e4f61403b565b6020026020010151838281518110611e6957611e6961403b565b602002602001018181525050611f78565b89848281518110611e8d57611e8d61403b565b60200260200101906001600160a01b031690816001600160a01b03168152505063a9059cbb60e01b898281518110611ec757611ec761403b565b6020026020010151898381518110611ee157611ee161403b565b60209081029190910101516040516001600160a01b0390921660248301526044820152606401604051602081830303815290604052906001600160e01b0319166020820180516001600160e01b038381831617835250505050828281518110611f4c57611f4c61403b565b60200260200101819052506000838281518110611f6b57611f6b61403b565b6020026020010181815250505b80611f8281614349565b915050611dad565b5060008a6001600160a01b031663f7ec6f10611fa4612aa0565b60006040518060c001604052808981526020018881526020018781526020016000815260200160008152602001600081525060405180606001604052806001600381111561117b5761117b613dde565b600054610100900460ff16158080156120145750600054600160ff909116105b8061202e5750303b15801561202e575060005460ff166001145b6120915760405162461bcd60e51b815260206004820152602e60248201527f496e697469616c697a61626c653a20636f6e747261637420697320616c72656160448201526d191e481a5b9a5d1a585b1a5e995960921b6064820152608401610442565b6000805460ff1916600117905580156120b4576000805461ff0019166101001790555b60fb80546001600160a01b0319166001600160a01b0384161790558015610ec8576000805461ff0019169055604051600181527f7f26b83ff96e1f2b6a682f133852f6798a09c465da95921460cefb38474024989060200160405180910390a15050565b600081815260c96020526040812061037490612bd6565b60fb546040805163d598d4c960e01b815290516000926001600160a01b03169163d598d4c99160048083019260209291908290030181865afa158015612179573d6000803e3d6000fd5b505050506040513d601f19601f8201168201806040525081019061219d9190613e0d565b6001600160a01b031663ce1b815f6040518163ffffffff1660e01b8152600401602060405180830381865afa1580156121da573d6000803e3d6000fd5b505050506040513d601f19601f820116820180604052508101906121fe9190613e0d565b905090565b60008281526097602052604090206001015461221e81612aaa565b610e398383612add565b612230612aff565b6001600160a01b0381166122955760405162461bcd60e51b815260206004820152602660248201527f4f776e61626c653a206e6577206f776e657220697320746865207a65726f206160448201526564647265737360d01b6064820152608401610442565b61229e81612b78565b50565b6000806001600160a01b038a16158061231f575060405163599fbc6560e11b81526001600160a01b038b811660048301528c169063b33f78ca90602401602060405180830381865afa1580156122fb573d6000803e3d6000fd5b505050506040513d601f19601f8201168201806040525081019061231f9190613d59565b6040518060400160405280601381526020017257524f4e475f544f4b454e5f4144445245535360681b815250906123695760405162461bcd60e51b81526004016104429190613dcb565b506001600160a01b038a1615806123e957506040516001623549c760e21b03198152600481018a90526001600160a01b038b169063ff2ad8e490602401602060405180830381865afa1580156123c3573d6000803e3d6000fd5b505050506040513d601f19601f820116820180604052508101906123e79190613df4565b155b806124cf575060006040516365a6887f60e11b8152600481018b90526001600160a01b038c169063cb4d10fe90602401602060405180830381865afa158015612436573d6000803e3d6000fd5b505050506040513d601f19601f8201168201806040525081019061245a9190613e0d565b6001600160a01b031663c19d93fb6040518163ffffffff1660e01b8152600401602060405180830381865afa158015612497573d6000803e3d6000fd5b505050506040513d601f19601f820116820180604052508101906124bb9190614362565b60028111156124cc576124cc613dde565b14155b604051806040016040528060118152602001704143544956455f5447455f45584953545360781b815250906125175760405162461bcd60e51b81526004016104429190613dcb565b506001600160a01b038a161561267c57881580159061259a57506040516314c5238f60e01b8152600481018a90526001600160a01b038b16906314c5238f90602401602060405180830381865afa158015612576573d6000803e3d6000fd5b505050506040513d601f19601f8201168201806040525081019061259a9190613d59565b1561267c576040516001623549c760e21b03198152600481018a90526001600160a01b038b169063ff2ad8e490602401602060405180830381865afa1580156125e7573d6000803e3d6000fd5b505050506040513d601f19601f8201168201806040525081019061260b9190613df4565b60808701526040516356f9f5e360e11b8152600481018a90526001600160a01b038b169063adf3ebc690602401602060405180830381865afa158015612655573d6000803e3d6000fd5b505050506040513d601f19601f820116820180604052508101906126799190613df4565b90505b60fb60009054906101000a90046001600160a01b03166001600160a01b031663d598d4c96040518163ffffffff1660e01b8152600401602060405180830381865afa1580156126cf573d6000803e3d6000fd5b505050506040513d601f19601f820116820180604052508101906126f39190613e0d565b608087015187516040516319caec7360e21b81526001600160a01b03939093169263672bb1cc9261272b928c9287919060040161400d565b60006040518083038186803b15801561274357600080fd5b505afa158015612757573d6000803e3d6000fd5b5060009250600191506127679050565b604051908082528060200260200182016040528015612790578160200160208202803683370190505b50905060fb60009054906101000a90046001600160a01b03166001600160a01b031663d598d4c96040518163ffffffff1660e01b8152600401602060405180830381865afa1580156127e6573d6000803e3d6000fd5b505050506040513d601f19601f8201168201806040525081019061280a9190613e0d565b6001600160a01b031663102c5c016040518163ffffffff1660e01b8152600401602060405180830381865afa158015612847573d6000803e3d6000fd5b505050506040513d601f19601f8201168201806040525081019061286b9190613e0d565b8160008151811061287e5761287e61403b565b6001600160a01b0392909216602092830291909101909101526040805160018082528183019092526000918160200160208202803683370190505090506000816000815181106128d0576128d061403b565b6020908102919091010152604080516001808252818301909252600091816020015b60608152602001906001900390816128f257505060405190915063f7d528a360e01b9061292d908f908f908f908f908f908f9060240161437f565b604051602081830303815290604052906001600160e01b0319166020820180516001600160e01b038381831617835250505050816000815181106129735761297361403b565b602002602001018190525060008e6001600160a01b031663f7ec6f10612997612aa0565b60066040518060c00160405280898152602001888152602001878152602001600081526020016000815260200160008152506040518060600160405280600260038111156129e7576129e7613dde565b81526020018e81526020018d8152506040518563ffffffff1660e01b8152600401612a159493929190614222565b6020604051808303816000875af1158015612a34573d6000803e3d6000fd5b505050506040513d601f19601f82011682018060405250810190612a589190613df4565b9f9e505050505050505050505050505050565b60006001600160e01b03198216637965db0b60e01b148061037457506301ffc9a760e01b6001600160e01b0319831614610374565b60006121fe612be0565b61229e81612ab6612aa0565b612c0f565b612ac58282612c68565b600082815260c960205260409020610e399082612cef565b612ae78282612d04565b600082815260c960205260409020610e399082612d89565b612b07612aa0565b6001600160a01b0316612b226033546001600160a01b031690565b6001600160a01b03161461154a5760405162461bcd60e51b815260206004820181905260248201527f4f776e61626c653a2063616c6c6572206973206e6f7420746865206f776e65726044820152606401610442565b603380546001600160a01b038381166001600160a01b0319831681179093556040519116919082907f8be0079c531659141344cd1fd0a4f28419497f9722a3daafe3b4186f6b6457e090600090a35050565b60006119688383612d9e565b6000610374825490565b6000612beb33611513565b8015612bf8575060143610155b15612c0a575060131936013560601c90565b503390565b612c19828261196f565b610ec857612c2681612dc8565b612c31836020612dda565b604051602001612c429291906143e0565b60408051601f198184030181529082905262461bcd60e51b825261044291600401613dcb565b612c72828261196f565b610ec85760008281526097602090815260408083206001600160a01b03851684529091529020805460ff19166001179055612cab612aa0565b6001600160a01b0316816001600160a01b0316837f2f8788117e7eff1d82e926ec794901d17c78024a50270940304540a733656f0d60405160405180910390a45050565b6000611968836001600160a01b038416612f75565b612d0e828261196f565b15610ec85760008281526097602090815260408083206001600160a01b03851684529091529020805460ff19169055612d45612aa0565b6001600160a01b0316816001600160a01b0316837ff6391f5c32d9c69d2a47ea670b442974b53935d1edc7fd64eb21e047a839171b60405160405180910390a45050565b6000611968836001600160a01b038416612fc4565b6000826000018281548110612db557612db561403b565b9060005260206000200154905092915050565b60606103746001600160a01b03831660145b60606000612de9836002614455565b612df490600261446c565b6001600160401b03811115612e0b57612e0b613106565b6040519080825280601f01601f191660200182016040528015612e35576020820181803683370190505b509050600360fc1b81600081518110612e5057612e5061403b565b60200101906001600160f81b031916908160001a905350600f60fb1b81600181518110612e7f57612e7f61403b565b60200101906001600160f81b031916908160001a9053506000612ea3846002614455565b612eae90600161446c565b90505b6001811115612f26576f181899199a1a9b1b9c1cb0b131b232b360811b85600f1660108110612ee257612ee261403b565b1a60f81b828281518110612ef857612ef861403b565b60200101906001600160f81b031916908160001a90535060049490941c93612f1f8161447f565b9050612eb1565b5083156119685760405162461bcd60e51b815260206004820181905260248201527f537472696e67733a20686578206c656e67746820696e73756666696369656e746044820152606401610442565b6000818152600183016020526040812054612fbc57508154600181810184556000848152602080822090930184905584548482528286019093526040902091909155610374565b506000610374565b600081815260018301602052604081205480156130ad576000612fe8600183614496565b8554909150600090612ffc90600190614496565b905081811461306157600086600001828154811061301c5761301c61403b565b906000526020600020015490508087600001848154811061303f5761303f61403b565b6000918252602080832090910192909255918252600188019052604090208390555b8554869080613072576130726144a9565b600190038181906000526020600020016000905590558560010160008681526020019081526020016000206000905560019350505050610374565b6000915050610374565b6000602082840312156130c957600080fd5b81356001600160e01b03198116811461196857600080fd5b6001600160a01b038116811461229e57600080fd5b8035613101816130e1565b919050565b634e487b7160e01b600052604160045260246000fd5b60405161010081016001600160401b038111828210171561313f5761313f613106565b60405290565b6040516101c081016001600160401b038111828210171561313f5761313f613106565b60405160c081016001600160401b038111828210171561313f5761313f613106565b60405160e081016001600160401b038111828210171561313f5761313f613106565b604051608081016001600160401b038111828210171561313f5761313f613106565b604051601f8201601f191681016001600160401b03811182821017156131f6576131f6613106565b604052919050565b60006001600160401b0382111561321757613217613106565b5060051b60200190565b600082601f83011261323257600080fd5b81356020613247613242836131fe565b6131ce565b82815260059290921b8401810191818101908684111561326657600080fd5b8286015b8481101561328a57803561327d816130e1565b835291830191830161326a565b509695505050505050565b600061010082840312156132a857600080fd5b6132b061311c565b9050813581526020820135602082015260408201356040820152606082013560608201526080820135608082015260a082013560a082015260c082013560c082015260e08201356001600160401b0381111561330b57600080fd5b61331784828501613221565b60e08301525092915050565b600082601f83011261333457600080fd5b81356020613344613242836131fe565b82815260059290921b8401810191818101908684111561336357600080fd5b8286015b8481101561328a5780358352918301918301613367565b60006101c0828403121561339157600080fd5b613399613145565b9050813581526020820135602082015260408201356040820152606082013560608201526080820135608082015260a082013560a082015260c08201356001600160401b03808211156133eb57600080fd5b6133f785838601613295565b60c084015260e084013591508082111561341057600080fd5b61341c85838601613221565b60e08401526101009150818401358181111561343757600080fd5b61344386828701613323565b83850152506101209150818401358181111561345e57600080fd5b61346a86828701613323565b8385015250505061014061347f8184016130f6565b90820152610160828101359082015261018080830135908201526101a06134a78184016130f6565b9082015292915050565b6003811061229e57600080fd5b8035613101816134b1565b60006001600160401b038311156134e2576134e2613106565b6134f5601f8401601f19166020016131ce565b905082815283838301111561350957600080fd5b828260208301376000602084830101529392505050565b600082601f83011261353157600080fd5b611968838335602085016134c9565b803560ff8116811461310157600080fd5b600060c0828403121561356357600080fd5b61356b613168565b9050613576826134be565b815260208201356001600160401b038082111561359257600080fd5b61359e85838601613520565b602084015260408401359150808211156135b757600080fd5b6135c385838601613520565b604084015260608401359150808211156135dc57600080fd5b506135e984828501613520565b6060830152506080820135608082015261360560a08301613540565b60a082015292915050565b600080600080600080600060e0888a03121561362b57600080fd5b613634886130f6565b9650613642602089016130f6565b955060408801356001600160401b038082111561365e57600080fd5b61366a8b838c0161337e565b965060608a013591508082111561368057600080fd5b61368c8b838c01613551565b955060808a01359150808211156136a257600080fd5b6136ae8b838c01613520565b945060a08a01359150808211156136c457600080fd5b6136d08b838c01613520565b935060c08a01359150808211156136e657600080fd5b506136f38a828b01613520565b91505092959891949750929550565b60006020828403121561371457600080fd5b5035919050565b600080600080600080600060e0888a03121561373657600080fd5b8735613741816130e1565b96506020880135613751816130e1565b9550604088013594506060880135613768816130e1565b93506080880135925060a08801356001600160401b03808211156136c457600080fd5b6000806040838503121561379e57600080fd5b8235915060208301356137b0816130e1565b809150509250929050565b600061014082840312156137ce57600080fd5b6137d661318a565b905081358152602080830135818301526040830135604083015260608301356060830152608083013560808301528360bf84011261381357600080fd5b61381b6131ac565b8061012085018681111561382e57600080fd5b60a086015b8181101561384a5780358452928401928401613833565b508160a0860152803560c08601525050505092915050565b6000806000806000806101e0878903121561387c57600080fd5b613885876130f6565b955061389488602089016137bb565b94506101608701356001600160401b03808211156138b157600080fd5b6138bd8a838b01613221565b95506101808901359150808211156138d457600080fd5b6138e08a838b01613221565b94506101a08901359150808211156138f757600080fd5b6139038a838b01613520565b93506101c089013591508082111561391a57600080fd5b5061392789828a01613520565b9150509295509295509295565b600082601f83011261394557600080fd5b81356020613955613242836131fe565b82815260059290921b8401810191818101908684111561397457600080fd5b8286015b8481101561328a5780356001600160401b038111156139975760008081fd5b8701603f810189136139a95760008081fd5b6139ba8986830135604084016134c9565b845250918301918301613978565b60008060008060008060c087890312156139e157600080fd5b6139ea876130f6565b955060208701356001600160401b0380821115613a0657600080fd5b613a128a838b01613221565b96506040890135915080821115613a2857600080fd5b613a348a838b01613323565b95506060890135915080821115613a4a57600080fd5b613a568a838b01613934565b94506080890135915080821115613a6c57600080fd5b613a788a838b01613520565b935060a089013591508082111561391a57600080fd5b600060208284031215613aa057600080fd5b8135611968816130e1565b60008060008060008060c08789031215613ac457600080fd5b8635613acf816130e1565b95506020870135613adf816130e1565b94506040870135613aef816130e1565b93506060870135925060808701356001600160401b0380821115613a6c57600080fd5b60008060408385031215613b2557600080fd5b50508035926020909101359150565b6000806000806101a08587031215613b4b57600080fd5b8435613b56816130e1565b9350613b6586602087016137bb565b92506101608501356001600160401b0380821115613b8257600080fd5b613b8e88838901613520565b9350610180870135915080821115613ba557600080fd5b50613bb287828801613520565b91505092959194509250565b60008060008060008060c08789031215613bd757600080fd5b613be0876130f6565b9550613bee602088016130f6565b945060408701356001600160401b0380821115613c0a57600080fd5b613c168a838b01613221565b95506060890135915080821115613c2c57600080fd5b613a568a838b01613323565b60008060008060008060008060006101208a8c031215613c5757600080fd5b613c608a6130f6565b9850613c6e60208b016130f6565b975060408a0135965060608a01356001600160401b0380821115613c9157600080fd5b613c9d8d838e01613520565b975060808c0135915080821115613cb357600080fd5b613cbf8d838e0161337e565b965060a08c0135915080821115613cd557600080fd5b613ce18d838e01613551565b955060c08c0135915080821115613cf757600080fd5b613d038d838e01613520565b945060e08c0135915080821115613d1957600080fd5b613d258d838e01613520565b93506101008c0135915080821115613d3c57600080fd5b50613d498c828d01613520565b9150509295985092959850929598565b600060208284031215613d6b57600080fd5b8151801515811461196857600080fd5b60005b83811015613d96578181015183820152602001613d7e565b50506000910152565b60008151808452613db7816020860160208601613d7b565b601f01601f19169290920160200192915050565b6020815260006119686020830184613d9f565b634e487b7160e01b600052602160045260246000fd5b600060208284031215613e0657600080fd5b5051919050565b600060208284031215613e1f57600080fd5b8151611968816130e1565b600081518084526020808501945080840160005b83811015613e635781516001600160a01b031687529582019590820190600101613e3e565b509495945050505050565b6000610100825184526020830151602085015260408301516040850152606083015160608501526080830151608085015260a083015160a085015260c083015160c085015260e08301518160e0860152613eca82860182613e2a565b95945050505050565b600081518084526020808501945080840160005b83811015613e6357815187529582019590820190600101613ee7565b60006101c0825184526020830151602085015260408301516040850152606083015160608501526080830151608085015260a083015160a085015260c08301518160c0860152613f5582860182613e6e565b91505060e083015184820360e0860152613f6f8282613e2a565b9150506101008084015185830382870152613f8a8382613ed3565b925050506101208084015185830382870152613fa68382613ed3565b9250505061014080840151613fc5828701826001600160a01b03169052565b5050610160838101519085015261018080840151908501526101a0928301516001600160a01b031692909301919091525090565b6003811061400957614009613dde565b9052565b6080815260006140206080830187613f03565b9050846020830152836040830152613eca6060830184613ff9565b634e487b7160e01b600052603260045260246000fd5b61405c828251613ff9565b6000602082015160c0602085015261407760c0850182613d9f565b9050604083015184820360408601526140908282613d9f565b915050606083015184820360608601526140aa8282613d9f565b9150506080830151608085015260ff60a08401511660a08501528091505092915050565b6001600160a01b03851681526080602082018190526000906140f290830186613f03565b82810360408401526141048186614051565b905082810360608401526141188185613d9f565b979650505050505050565b6000815160c0845261413860c0850182613e2a565b9050602080840151858303828701526141518382613ed3565b925050604084015185830360408701528281518085528385019150838160051b860101848401935060005b828110156141aa57601f19878303018452614198828651613d9f565b9486019493860193915060010161417c565b50606088015160608a0152608088015160808a015260a088015160a08a015280965050505050505092915050565b60008151600481106141ec576141ec613dde565b808452506020820151606060208501526142096060850182613d9f565b905060408301518482036040860152613eca8282613d9f565b60018060a01b03851681528360208201526080604082015260006142496080830185614123565b828103606084015261411881856141d8565b60006020828403121561426d57600080fd5b81516005811061196857600080fd5b805182526020808201518184015260408201516040840152606082015160608401526080820151608084015260a082015160a0840160005b60048110156142d1578251825291830191908301906001016142b4565b5050505060c001516101209190910152565b6101408101610374828461427c565b6000610180614301838761427c565b8061014084015261431481840186613e2a565b90508281036101608401526143298185613e2a565b9695505050505050565b634e487b7160e01b600052601160045260246000fd5b60006001820161435b5761435b614333565b5060010190565b60006020828403121561437457600080fd5b8151611968816134b1565b60018060a01b038716815285602082015260c0604082015260006143a660c0830187613d9f565b82810360608401526143b88187613f03565b905082810360808401526143cc8186614051565b905082810360a08401526115068185613d9f565b7f416363657373436f6e74726f6c3a206163636f756e7420000000000000000000815260008351614418816017850160208801613d7b565b7001034b99036b4b9b9b4b733903937b6329607d1b6017918401918201528351614449816028840160208801613d7b565b01602801949350505050565b808202811582820484141761037457610374614333565b8082018082111561037457610374614333565b60008161448e5761448e614333565b506000190190565b8181038181111561037457610374614333565b634e487b7160e01b600052603160045260246000fdfe4143544956455f474f5645524e414e43455f53455454494e47535f50524f504f53414c5f455849535453a26469706673582212203ef7e27a9fe502cce2dd4d2dc4da18260550364b2d0b570730efd99361e3d0eb64736f6c63430008110033",
  "devdoc": {
    "details": "It is a supporting part of the protocol that takes user input arguments and constructs OZ Governor-compatible structures describing the transactions to be executed upon successful voting on the proposal. It does not store user input, but only passes it on in a transformed format to the specified pool contract.",
    "kind": "dev",
    "methods": {
      "constructor": {
        "custom:oz-upgrades-unsafe-allow": "constructor",
        "details": "This contract uses OpenZeppelin upgrades and has no need for a constructor function. The constructor is replaced with an initializer function. This method disables the initializer feature of the OpenZeppelin upgrades plugin, preventing the initializer methods from being misused."
      },
      "getRoleAdmin(bytes32)": {
        "details": "Returns the admin role that controls `role`. See {grantRole} and {revokeRole}. To change a role's admin, use {_setRoleAdmin}."
      },
      "getRoleMember(bytes32,uint256)": {
        "details": "Returns one of the accounts that have `role`. `index` must be a value between 0 and {getRoleMemberCount}, non-inclusive. Role bearers are not sorted in any particular way, and their ordering may change at any point. WARNING: When using {getRoleMember} and {getRoleMemberCount}, make sure you perform all queries on the same block. See the following https://forum.openzeppelin.com/t/iterating-over-elements-on-enumerableset-in-openzeppelin-contracts/2296[forum post] for more information."
      },
      "getRoleMemberCount(bytes32)": {
        "details": "Returns the number of accounts that have `role`. Can be used together with {getRoleMember} to enumerate all bearers of a role."
      },
      "getTrustedForwarder()": {
        "details": "Returns the address of the trusted forwarder."
      },
      "grantRole(bytes32,address)": {
        "details": "Grants `role` to `account`. If `account` had not been already granted `role`, emits a {RoleGranted} event. Requirements: - the caller must have ``role``'s admin role. May emit a {RoleGranted} event."
      },
      "hasRole(bytes32,address)": {
        "details": "Returns `true` if `account` has been granted `role`."
      },
      "initialize(address)": {
        "details": "This method replaces the constructor for upgradeable contracts."
      },
      "isTrustedForwarder(address)": {
        "details": "Indicates whether any particular address is the trusted forwarder."
      },
      "owner()": {
        "details": "Returns the address of the current owner."
      },
      "proposeCustomTx(address,address[],uint256[],bytes[],string,string)": {
        "details": "This tool can be useful for creating a transaction with arbitrary parameters and putting it to a vote for execution on behalf of the pool.",
        "params": {
          "callDatas": "Raw calldatas.",
          "description": "Proposal description.",
          "metaHash": "Hash value of proposal metadata.",
          "pool": "The address of the pool on behalf of which this proposal will be launched.",
          "targets": "Transfer recipients.",
          "values": "Transfer amounts for payable."
        },
        "returns": {
          "proposalId": "The ID of the created proposal."
        }
      },
      "proposeGovernanceSettings(address,(uint256,uint256,uint256,uint256,uint256,uint256[4],uint256),string,string)": {
        "details": "The main parameter should be a structure of type NewGovernanceSettings, which includes the Governance Threshold, Decision Threshold, Proposal Threshold, and execution delay lists for proposals.",
        "params": {
          "description": "Proposal description.",
          "metaHash": "Hash value of proposal metadata.",
          "pool": "The address of the pool on behalf of which this proposal will be launched and for which the Governance settings will be changed.",
          "settings": "New governance settings."
        },
        "returns": {
          "proposalId": "The ID of the created proposal."
        }
      },
      "proposeGovernanceSettingsWithRoles(address,(uint256,uint256,uint256,uint256,uint256,uint256[4],uint256),address[],address[],string,string)": {
        "details": "The main parameter should be a structure of type NewGovernanceSettings, which includes the Governance Threshold, Decision Threshold, Proposal Threshold, execution delay lists for proposals, as well as two sets of addresses: one for the new list of secretaries and another for the new list of executors.",
        "params": {
          "description": "Proposal description.",
          "executor": "Add a new address to the pool's executor list.",
          "metaHash": "Hash value of the proposal metadata.",
          "pool": "The address of the pool on behalf of which this proposal will be launched and for which the Governance settings will be changed.",
          "secretary": "Add a new address to the pool's secretary list.",
          "settings": "New governance settings."
        },
        "returns": {
          "proposalId": "The ID of the created proposal."
        }
      },
      "proposeTGE(address,address,(uint256,uint256,uint256,uint256,uint256,uint256,(uint256,uint256,uint256,uint256,uint256,uint256,uint256,address[]),address[],uint256[],uint256[],address,uint256,uint256,address),(uint8,string,string,string,uint256,uint8),string,string,string)": {
        "details": "Proposal to launch a new token generation event (TGE). It can only be created if the maximum supply threshold value for an existing token has not been reached or if a new token is being created, in which case a new token contract will be deployed simultaneously with the TGE contract.",
        "params": {
          "description": "Proposal description.",
          "metaHash": "Hash value of proposal metadata.",
          "metadataURI": "TGE metadata URI.",
          "pool": "The address of the pool on behalf of which this proposal will be launched and for which the TGE event will be launched.",
          "tgeInfo": "TGE parameters.",
          "tokenInfo": "Token parameters."
        },
        "returns": {
          "proposalId": "The ID of the created proposal."
        }
      },
      "proposeTGEERC1155(address,address,uint256,string,(uint256,uint256,uint256,uint256,uint256,uint256,(uint256,uint256,uint256,uint256,uint256,uint256,uint256,address[]),address[],uint256[],uint256[],address,uint256,uint256,address),(uint8,string,string,string,uint256,uint8),string,string,string)": {
        "details": "Proposal to launch a new token generation event (TGE) for ERC1155 preference tokens.",
        "params": {
          "description": "Proposal description.",
          "metaHash": "Hash value of proposal metadata.",
          "metadataURI": "TGE metadata URI.",
          "tgeInfo": "TGE parameters.",
          "tokenId": "Token ID.",
          "tokenIdMetadataURI": "Token ID metadata URI.",
          "tokenInfo": "Token parameters."
        },
        "returns": {
          "proposalId": "The ID of the created proposal."
        }
      },
      "proposeTransfer(address,address,address[],uint256[],string,string)": {
        "details": "This function prepares a proposal from the list of recipients and corresponding amounts and submits it to the pool for a vote to transfer those amounts to the specified recipients. The asset type is specified as a separate argument, which is the same for all recipients.",
        "params": {
          "amounts": "Transfer amounts.",
          "asset": "Asset to transfer (address(0) for ETH transfers).",
          "description": "Proposal description.",
          "metaHash": "Hash value of proposal metadata.",
          "pool": "The address of the pool on behalf of which this proposal will be launched and from whose balance the values will be transferred.",
          "recipients": "Transfer recipients."
        },
        "returns": {
          "proposalId": "The ID of the created proposal."
        }
      },
      "renounceOwnership()": {
        "details": "Leaves the contract without owner. It will not be possible to call `onlyOwner` functions anymore. Can only be called by the current owner. NOTE: Renouncing ownership will leave the contract without an owner, thereby removing any functionality that is only available to the owner."
      },
      "renounceRole(bytes32,address)": {
        "details": "Revokes `role` from the calling account. Roles are often managed via {grantRole} and {revokeRole}: this function's purpose is to provide a mechanism for accounts to lose their privileges if they are compromised (such as when a trusted device is misplaced). If the calling account had been revoked `role`, emits a {RoleRevoked} event. Requirements: - the caller must be `account`. May emit a {RoleRevoked} event."
      },
      "revokeRole(bytes32,address)": {
        "details": "Revokes `role` from `account`. If `account` had been granted `role`, emits a {RoleRevoked} event. Requirements: - the caller must have ``role``'s admin role. May emit a {RoleRevoked} event."
      },
      "supportsInterface(bytes4)": {
        "details": "See {IERC165-supportsInterface}."
      },
      "transferOwnership(address)": {
        "details": "Transfers ownership of the contract to a new account (`newOwner`). Can only be called by the current owner."
      }
    },
    "stateVariables": {
      "registry": {
        "details": "The address of the Registry contract."
      }
    },
    "title": "Custom Proposal Contract",
    "version": 1
  },
  "userdoc": {
    "kind": "user",
    "methods": {
      "constructor": {
        "notice": "Contract constructor."
      },
      "initialize(address)": {
        "notice": "Contract initializer"
      },
      "proposeCustomTx(address,address[],uint256[],bytes[],string,string)": {
        "notice": "Creating a custom proposal."
      },
      "proposeGovernanceSettings(address,(uint256,uint256,uint256,uint256,uint256,uint256[4],uint256),string,string)": {
        "notice": "Proposal to replace Governance settings. One of the two methods to change voting parameters."
      },
      "proposeGovernanceSettingsWithRoles(address,(uint256,uint256,uint256,uint256,uint256,uint256[4],uint256),address[],address[],string,string)": {
        "notice": "Proposal to replace Governance settings and change the pool's list of secretaries and executors. One of the two methods to change voting parameters. The only way for a DAO to modify the lists of secretaries and executors."
      },
      "proposeTGE(address,address,(uint256,uint256,uint256,uint256,uint256,uint256,(uint256,uint256,uint256,uint256,uint256,uint256,uint256,address[]),address[],uint256[],uint256[],address,uint256,uint256,address),(uint8,string,string,string,uint256,uint8),string,string,string)": {
        "notice": "This proposal is launched when there is a need to issue additional tokens (both Governance and Preference) for an existing pool. In other words, the issuance of tokens for any DAO is possible only through the creation of such a proposal."
      },
      "proposeTGEERC1155(address,address,uint256,string,(uint256,uint256,uint256,uint256,uint256,uint256,(uint256,uint256,uint256,uint256,uint256,uint256,uint256,address[]),address[],uint256[],uint256[],address,uint256,uint256,address),(uint8,string,string,string,uint256,uint8),string,string,string)": {
        "notice": "This proposal is launched when there is a need to issue ERC1155 Preference tokens, additional collections, and token units in existing collections for an existing ERC1155 token. In other words, the issuance of tokens of this format for any DAO is possible only through the creation of such a proposal."
      },
      "proposeTransfer(address,address,address[],uint256[],string,string)": {
        "notice": "This proposal is the only way to withdraw funds from the pool account."
      }
    },
    "notice": "This contract is designed for constructing proposals from user input. The methods generate calldata from the input arguments and pass it to the specified pool as a proposal.",
    "version": 1
  },
  "storageLayout": {
    "storage": [
      {
        "astId": 1184,
        "contract": "contracts/CustomProposal.sol:CustomProposal",
        "label": "_initialized",
        "offset": 0,
        "slot": "0",
        "type": "t_uint8"
      },
      {
        "astId": 1187,
        "contract": "contracts/CustomProposal.sol:CustomProposal",
        "label": "_initializing",
        "offset": 1,
        "slot": "0",
        "type": "t_bool"
      },
      {
        "astId": 5915,
        "contract": "contracts/CustomProposal.sol:CustomProposal",
        "label": "__gap",
        "offset": 0,
        "slot": "1",
        "type": "t_array(t_uint256)50_storage"
      },
      {
        "astId": 589,
        "contract": "contracts/CustomProposal.sol:CustomProposal",
        "label": "_owner",
        "offset": 0,
        "slot": "51",
        "type": "t_address"
      },
      {
        "astId": 709,
        "contract": "contracts/CustomProposal.sol:CustomProposal",
        "label": "__gap",
        "offset": 0,
        "slot": "52",
        "type": "t_array(t_uint256)49_storage"
      },
      {
        "astId": 6860,
        "contract": "contracts/CustomProposal.sol:CustomProposal",
        "label": "__gap",
        "offset": 0,
        "slot": "101",
        "type": "t_array(t_uint256)50_storage"
      },
      {
        "astId": 184,
        "contract": "contracts/CustomProposal.sol:CustomProposal",
        "label": "_roles",
        "offset": 0,
        "slot": "151",
        "type": "t_mapping(t_bytes32,t_struct(RoleData)179_storage)"
      },
      {
        "astId": 479,
        "contract": "contracts/CustomProposal.sol:CustomProposal",
        "label": "__gap",
        "offset": 0,
        "slot": "152",
        "type": "t_array(t_uint256)49_storage"
      },
      {
        "astId": 33,
        "contract": "contracts/CustomProposal.sol:CustomProposal",
        "label": "_roleMembers",
        "offset": 0,
        "slot": "201",
        "type": "t_mapping(t_bytes32,t_struct(AddressSet)9605_storage)"
      },
      {
        "astId": 143,
        "contract": "contracts/CustomProposal.sol:CustomProposal",
        "label": "__gap",
        "offset": 0,
        "slot": "202",
        "type": "t_array(t_uint256)49_storage"
      },
      {
        "astId": 12505,
        "contract": "contracts/CustomProposal.sol:CustomProposal",
        "label": "registry",
        "offset": 0,
        "slot": "251",
        "type": "t_contract(IRegistry)28973"
      }
    ],
    "types": {
      "t_address": {
        "encoding": "inplace",
        "label": "address",
        "numberOfBytes": "20"
      },
      "t_array(t_bytes32)dyn_storage": {
        "base": "t_bytes32",
        "encoding": "dynamic_array",
        "label": "bytes32[]",
        "numberOfBytes": "32"
      },
      "t_array(t_uint256)49_storage": {
        "base": "t_uint256",
        "encoding": "inplace",
        "label": "uint256[49]",
        "numberOfBytes": "1568"
      },
      "t_array(t_uint256)50_storage": {
        "base": "t_uint256",
        "encoding": "inplace",
        "label": "uint256[50]",
        "numberOfBytes": "1600"
      },
      "t_bool": {
        "encoding": "inplace",
        "label": "bool",
        "numberOfBytes": "1"
      },
      "t_bytes32": {
        "encoding": "inplace",
        "label": "bytes32",
        "numberOfBytes": "32"
      },
      "t_contract(IRegistry)28973": {
        "encoding": "inplace",
        "label": "contract IRegistry",
        "numberOfBytes": "20"
      },
      "t_mapping(t_address,t_bool)": {
        "encoding": "mapping",
        "key": "t_address",
        "label": "mapping(address => bool)",
        "numberOfBytes": "32",
        "value": "t_bool"
      },
      "t_mapping(t_bytes32,t_struct(AddressSet)9605_storage)": {
        "encoding": "mapping",
        "key": "t_bytes32",
        "label": "mapping(bytes32 => struct EnumerableSetUpgradeable.AddressSet)",
        "numberOfBytes": "32",
        "value": "t_struct(AddressSet)9605_storage"
      },
      "t_mapping(t_bytes32,t_struct(RoleData)179_storage)": {
        "encoding": "mapping",
        "key": "t_bytes32",
        "label": "mapping(bytes32 => struct AccessControlUpgradeable.RoleData)",
        "numberOfBytes": "32",
        "value": "t_struct(RoleData)179_storage"
      },
      "t_mapping(t_bytes32,t_uint256)": {
        "encoding": "mapping",
        "key": "t_bytes32",
        "label": "mapping(bytes32 => uint256)",
        "numberOfBytes": "32",
        "value": "t_uint256"
      },
      "t_struct(AddressSet)9605_storage": {
        "encoding": "inplace",
        "label": "struct EnumerableSetUpgradeable.AddressSet",
        "members": [
          {
            "astId": 9604,
            "contract": "contracts/CustomProposal.sol:CustomProposal",
            "label": "_inner",
            "offset": 0,
            "slot": "0",
            "type": "t_struct(Set)9290_storage"
          }
        ],
        "numberOfBytes": "64"
      },
      "t_struct(RoleData)179_storage": {
        "encoding": "inplace",
        "label": "struct AccessControlUpgradeable.RoleData",
        "members": [
          {
            "astId": 176,
            "contract": "contracts/CustomProposal.sol:CustomProposal",
            "label": "members",
            "offset": 0,
            "slot": "0",
            "type": "t_mapping(t_address,t_bool)"
          },
          {
            "astId": 178,
            "contract": "contracts/CustomProposal.sol:CustomProposal",
            "label": "adminRole",
            "offset": 0,
            "slot": "1",
            "type": "t_bytes32"
          }
        ],
        "numberOfBytes": "64"
      },
      "t_struct(Set)9290_storage": {
        "encoding": "inplace",
        "label": "struct EnumerableSetUpgradeable.Set",
        "members": [
          {
            "astId": 9285,
            "contract": "contracts/CustomProposal.sol:CustomProposal",
            "label": "_values",
            "offset": 0,
            "slot": "0",
            "type": "t_array(t_bytes32)dyn_storage"
          },
          {
            "astId": 9289,
            "contract": "contracts/CustomProposal.sol:CustomProposal",
            "label": "_indexes",
            "offset": 0,
            "slot": "1",
            "type": "t_mapping(t_bytes32,t_uint256)"
          }
        ],
        "numberOfBytes": "64"
      },
      "t_uint256": {
        "encoding": "inplace",
        "label": "uint256",
        "numberOfBytes": "32"
      },
      "t_uint8": {
        "encoding": "inplace",
        "label": "uint8",
        "numberOfBytes": "1"
      }
    }
  }
}