{
  "address": "0x05968421B374A56Cb02C41f6E6Ef1ac8003b18D9",
  "abi": [
    {
      "inputs": [],
      "stateMutability": "nonpayable",
      "type": "constructor"
    },
    {
      "anonymous": false,
      "inputs": [
        {
          "indexed": false,
          "internalType": "uint256",
          "name": "proposalThreshold_",
          "type": "uint256"
        },
        {
          "indexed": false,
          "internalType": "uint256",
          "name": "quorumThreshold_",
          "type": "uint256"
        },
        {
          "indexed": false,
          "internalType": "uint256",
          "name": "decisionThreshold_",
          "type": "uint256"
        },
        {
          "indexed": false,
          "internalType": "uint256",
          "name": "votingDuration_",
          "type": "uint256"
        },
        {
          "indexed": false,
          "internalType": "uint256",
          "name": "transferValueForDelay_",
          "type": "uint256"
        },
        {
          "indexed": false,
          "internalType": "uint256[4]",
          "name": "executionDelays_",
          "type": "uint256[4]"
        },
        {
          "indexed": false,
          "internalType": "uint256",
          "name": "votingStartDelay_",
          "type": "uint256"
        }
      ],
      "name": "GovernanceSettingsSet",
      "type": "event"
    },
    {
      "anonymous": false,
      "inputs": [
        {
          "indexed": false,
          "internalType": "uint8",
          "name": "version",
          "type": "uint8"
        }
      ],
      "name": "Initialized",
      "type": "event"
    },
    {
      "anonymous": false,
      "inputs": [
        {
          "indexed": true,
          "internalType": "address",
          "name": "previousOwner",
          "type": "address"
        },
        {
          "indexed": true,
          "internalType": "address",
          "name": "newOwner",
          "type": "address"
        }
      ],
      "name": "OwnershipTransferred",
      "type": "event"
    },
    {
      "anonymous": false,
      "inputs": [
        {
          "indexed": false,
          "internalType": "address",
          "name": "account",
          "type": "address"
        }
      ],
      "name": "Paused",
      "type": "event"
    },
    {
      "anonymous": false,
      "inputs": [
        {
          "indexed": false,
          "internalType": "uint256",
          "name": "proposalId",
          "type": "uint256"
        }
      ],
      "name": "ProposalCancelled",
      "type": "event"
    },
    {
      "anonymous": false,
      "inputs": [
        {
          "indexed": false,
          "internalType": "uint256",
          "name": "proposalId",
          "type": "uint256"
        },
        {
          "components": [
            {
              "internalType": "address[]",
              "name": "targets",
              "type": "address[]"
            },
            {
              "internalType": "uint256[]",
              "name": "values",
              "type": "uint256[]"
            },
            {
              "internalType": "bytes[]",
              "name": "callDatas",
              "type": "bytes[]"
            },
            {
              "internalType": "uint256",
              "name": "quorumThreshold",
              "type": "uint256"
            },
            {
              "internalType": "uint256",
              "name": "decisionThreshold",
              "type": "uint256"
            },
            {
              "internalType": "uint256",
              "name": "executionDelay",
              "type": "uint256"
            }
          ],
          "indexed": false,
          "internalType": "struct IGovernor.ProposalCoreData",
          "name": "core",
          "type": "tuple"
        },
        {
          "components": [
            {
              "internalType": "enum IRecordsRegistry.EventType",
              "name": "proposalType",
              "type": "uint8"
            },
            {
              "internalType": "string",
              "name": "description",
              "type": "string"
            },
            {
              "internalType": "string",
              "name": "metaHash",
              "type": "string"
            }
          ],
          "indexed": false,
          "internalType": "struct IGovernor.ProposalMetaData",
          "name": "meta",
          "type": "tuple"
        }
      ],
      "name": "ProposalCreated",
      "type": "event"
    },
    {
      "anonymous": false,
      "inputs": [
        {
          "indexed": false,
          "internalType": "uint256",
          "name": "proposalId",
          "type": "uint256"
        }
      ],
      "name": "ProposalExecuted",
      "type": "event"
    },
    {
      "anonymous": false,
      "inputs": [
        {
          "indexed": false,
          "internalType": "address",
          "name": "account",
          "type": "address"
        }
      ],
      "name": "Unpaused",
      "type": "event"
    },
    {
      "anonymous": false,
      "inputs": [
        {
          "indexed": false,
          "internalType": "address",
          "name": "voter",
          "type": "address"
        },
        {
          "indexed": false,
          "internalType": "uint256",
          "name": "proposalId",
          "type": "uint256"
        },
        {
          "indexed": false,
          "internalType": "uint256",
          "name": "votes",
          "type": "uint256"
        },
        {
          "indexed": false,
          "internalType": "enum Governor.Ballot",
          "name": "ballot",
          "type": "uint8"
        }
      ],
      "name": "VoteCast",
      "type": "event"
    },
    {
      "inputs": [],
      "name": "OAurl",
      "outputs": [
        {
          "internalType": "string",
          "name": "",
          "type": "string"
        }
      ],
      "stateMutability": "view",
      "type": "function"
    },
    {
      "inputs": [
        {
          "internalType": "uint256",
          "name": "proposalId",
          "type": "uint256"
        }
      ],
      "name": "availableVotesForProposal",
      "outputs": [
        {
          "internalType": "uint256",
          "name": "",
          "type": "uint256"
        }
      ],
      "stateMutability": "view",
      "type": "function"
    },
    {
      "inputs": [
        {
          "internalType": "address",
          "name": "",
          "type": "address"
        },
        {
          "internalType": "uint256",
          "name": "",
          "type": "uint256"
        }
      ],
      "name": "ballots",
      "outputs": [
        {
          "internalType": "enum Governor.Ballot",
          "name": "",
          "type": "uint8"
        }
      ],
      "stateMutability": "view",
      "type": "function"
    },
    {
      "inputs": [
        {
          "internalType": "uint256",
          "name": "proposalId",
          "type": "uint256"
        },
        {
          "internalType": "bool",
          "name": "support",
          "type": "bool"
        }
      ],
      "name": "castVote",
      "outputs": [],
      "stateMutability": "nonpayable",
      "type": "function"
    },
    {
      "inputs": [],
      "name": "companyInfo",
      "outputs": [
        {
          "internalType": "uint256",
          "name": "jurisdiction",
          "type": "uint256"
        },
        {
          "internalType": "uint256",
          "name": "entityType",
          "type": "uint256"
        },
        {
          "internalType": "string",
          "name": "ein",
          "type": "string"
        },
        {
          "internalType": "string",
          "name": "dateOfIncorporation",
          "type": "string"
        },
        {
          "internalType": "uint256",
          "name": "fee",
          "type": "uint256"
        }
      ],
      "stateMutability": "view",
      "type": "function"
    },
    {
      "inputs": [],
      "name": "decisionThreshold",
      "outputs": [
        {
          "internalType": "uint256",
          "name": "",
          "type": "uint256"
        }
      ],
      "stateMutability": "view",
      "type": "function"
    },
    {
      "inputs": [
        {
          "internalType": "uint256",
          "name": "proposalId",
          "type": "uint256"
        }
      ],
      "name": "executeProposal",
      "outputs": [],
      "stateMutability": "nonpayable",
      "type": "function"
    },
    {
      "inputs": [
        {
          "internalType": "enum IRecordsRegistry.EventType",
          "name": "",
          "type": "uint8"
        }
      ],
      "name": "executionDelays",
      "outputs": [
        {
          "internalType": "uint256",
          "name": "",
          "type": "uint256"
        }
      ],
      "stateMutability": "view",
      "type": "function"
    },
    {
      "inputs": [
        {
          "internalType": "address",
          "name": "account",
          "type": "address"
        },
        {
          "internalType": "uint256",
          "name": "proposalId",
          "type": "uint256"
        },
        {
          "internalType": "bool",
          "name": "support",
          "type": "bool"
        }
      ],
      "name": "externalCastVote",
      "outputs": [],
      "stateMutability": "nonpayable",
      "type": "function"
    },
    {
      "inputs": [
        {
          "internalType": "address",
          "name": "to",
          "type": "address"
        },
        {
          "internalType": "uint256",
          "name": "amount",
          "type": "uint256"
        },
        {
          "internalType": "address",
          "name": "unitOfAccount",
          "type": "address"
        }
      ],
      "name": "externalTransferByOwner",
      "outputs": [],
      "stateMutability": "nonpayable",
      "type": "function"
    },
    {
      "inputs": [
        {
          "internalType": "address",
          "name": "account",
          "type": "address"
        },
        {
          "internalType": "uint256",
          "name": "proposalId",
          "type": "uint256"
        }
      ],
      "name": "getBallot",
      "outputs": [
        {
          "internalType": "enum Governor.Ballot",
          "name": "ballot",
          "type": "uint8"
        },
        {
          "internalType": "uint256",
          "name": "votes",
          "type": "uint256"
        }
      ],
      "stateMutability": "view",
      "type": "function"
    },
    {
      "inputs": [],
      "name": "getCompanyFee",
      "outputs": [
        {
          "internalType": "uint256",
          "name": "",
          "type": "uint256"
        }
      ],
      "stateMutability": "view",
      "type": "function"
    },
    {
      "inputs": [],
      "name": "getGovernanceToken",
      "outputs": [
        {
          "internalType": "contract IToken",
          "name": "",
          "type": "address"
        }
      ],
      "stateMutability": "view",
      "type": "function"
    },
    {
      "inputs": [],
      "name": "getPoolExecutor",
      "outputs": [
        {
          "internalType": "address[]",
          "name": "",
          "type": "address[]"
        }
      ],
      "stateMutability": "view",
      "type": "function"
    },
    {
      "inputs": [],
      "name": "getPoolSecretary",
      "outputs": [
        {
          "internalType": "address[]",
          "name": "",
          "type": "address[]"
        }
      ],
      "stateMutability": "view",
      "type": "function"
    },
    {
      "inputs": [
        {
          "internalType": "enum IToken.TokenType",
          "name": "tokenType",
          "type": "uint8"
        }
      ],
      "name": "getTokens",
      "outputs": [
        {
          "internalType": "address[]",
          "name": "",
          "type": "address[]"
        }
      ],
      "stateMutability": "view",
      "type": "function"
    },
    {
      "inputs": [
        {
          "components": [
            {
              "internalType": "uint256",
              "name": "jurisdiction",
              "type": "uint256"
            },
            {
              "internalType": "uint256",
              "name": "entityType",
              "type": "uint256"
            },
            {
              "internalType": "string",
              "name": "ein",
              "type": "string"
            },
            {
              "internalType": "string",
              "name": "dateOfIncorporation",
              "type": "string"
            },
            {
              "internalType": "uint256",
              "name": "fee",
              "type": "uint256"
            }
          ],
          "internalType": "struct ICompaniesRegistry.CompanyInfo",
          "name": "companyInfo_",
          "type": "tuple"
        }
      ],
      "name": "initialize",
      "outputs": [],
      "stateMutability": "nonpayable",
      "type": "function"
    },
    {
      "inputs": [],
      "name": "isDAO",
      "outputs": [
        {
          "internalType": "bool",
          "name": "",
          "type": "bool"
        }
      ],
      "stateMutability": "view",
      "type": "function"
    },
    {
      "inputs": [
        {
          "internalType": "uint256",
          "name": "type_",
          "type": "uint256"
        }
      ],
      "name": "isLastProposalIdByTypeActive",
      "outputs": [
        {
          "internalType": "bool",
          "name": "",
          "type": "bool"
        }
      ],
      "stateMutability": "view",
      "type": "function"
    },
    {
      "inputs": [
        {
          "internalType": "address",
          "name": "account",
          "type": "address"
        }
      ],
      "name": "isPoolExecutor",
      "outputs": [
        {
          "internalType": "bool",
          "name": "",
          "type": "bool"
        }
      ],
      "stateMutability": "view",
      "type": "function"
    },
    {
      "inputs": [
        {
          "internalType": "address",
          "name": "account",
          "type": "address"
        }
      ],
      "name": "isPoolSecretary",
      "outputs": [
        {
          "internalType": "bool",
          "name": "",
          "type": "bool"
        }
      ],
      "stateMutability": "view",
      "type": "function"
    },
    {
      "inputs": [
        {
          "internalType": "address",
          "name": "account",
          "type": "address"
        }
      ],
      "name": "isValidExecutor",
      "outputs": [
        {
          "internalType": "bool",
          "name": "",
          "type": "bool"
        }
      ],
      "stateMutability": "view",
      "type": "function"
    },
    {
      "inputs": [
        {
          "internalType": "address",
          "name": "account",
          "type": "address"
        }
      ],
      "name": "isValidProposer",
      "outputs": [
        {
          "internalType": "bool",
          "name": "",
          "type": "bool"
        }
      ],
      "stateMutability": "view",
      "type": "function"
    },
    {
      "inputs": [],
      "name": "lastExecutedProposalId",
      "outputs": [
        {
          "internalType": "uint256",
          "name": "",
          "type": "uint256"
        }
      ],
      "stateMutability": "view",
      "type": "function"
    },
    {
      "inputs": [],
      "name": "lastProposalId",
      "outputs": [
        {
          "internalType": "uint256",
          "name": "",
          "type": "uint256"
        }
      ],
      "stateMutability": "view",
      "type": "function"
    },
    {
      "inputs": [
        {
          "internalType": "uint256",
          "name": "",
          "type": "uint256"
        }
      ],
      "name": "lastProposalIdByType",
      "outputs": [
        {
          "internalType": "uint256",
          "name": "",
          "type": "uint256"
        }
      ],
      "stateMutability": "view",
      "type": "function"
    },
    {
      "inputs": [
        {
          "internalType": "address",
          "name": "",
          "type": "address"
        }
      ],
      "name": "lastProposalIdForAddress",
      "outputs": [
        {
          "internalType": "uint256",
          "name": "",
          "type": "uint256"
        }
      ],
      "stateMutability": "view",
      "type": "function"
    },
    {
      "inputs": [],
      "name": "owner",
      "outputs": [
        {
          "internalType": "address",
          "name": "",
          "type": "address"
        }
      ],
      "stateMutability": "view",
      "type": "function"
    },
    {
      "inputs": [],
      "name": "paused",
      "outputs": [
        {
          "internalType": "bool",
          "name": "",
          "type": "bool"
        }
      ],
      "stateMutability": "view",
      "type": "function"
    },
    {
      "inputs": [
        {
          "internalType": "uint256",
          "name": "",
          "type": "uint256"
        }
      ],
      "name": "proposalCreatedAt",
      "outputs": [
        {
          "internalType": "uint256",
          "name": "",
          "type": "uint256"
        }
      ],
      "stateMutability": "view",
      "type": "function"
    },
    {
      "inputs": [
        {
          "internalType": "uint256",
          "name": "",
          "type": "uint256"
        }
      ],
      "name": "proposalIdToTGE",
      "outputs": [
        {
          "internalType": "address",
          "name": "",
          "type": "address"
        }
      ],
      "stateMutability": "view",
      "type": "function"
    },
    {
      "inputs": [
        {
          "internalType": "uint256",
          "name": "proposalId",
          "type": "uint256"
        }
      ],
      "name": "proposalState",
      "outputs": [
        {
          "internalType": "enum Governor.ProposalState",
          "name": "",
          "type": "uint8"
        }
      ],
      "stateMutability": "view",
      "type": "function"
    },
    {
      "inputs": [],
      "name": "proposalThreshold",
      "outputs": [
        {
          "internalType": "uint256",
          "name": "",
          "type": "uint256"
        }
      ],
      "stateMutability": "view",
      "type": "function"
    },
    {
      "inputs": [
        {
          "internalType": "uint256",
          "name": "",
          "type": "uint256"
        }
      ],
      "name": "proposals",
      "outputs": [
        {
          "components": [
            {
              "internalType": "address[]",
              "name": "targets",
              "type": "address[]"
            },
            {
              "internalType": "uint256[]",
              "name": "values",
              "type": "uint256[]"
            },
            {
              "internalType": "bytes[]",
              "name": "callDatas",
              "type": "bytes[]"
            },
            {
              "internalType": "uint256",
              "name": "quorumThreshold",
              "type": "uint256"
            },
            {
              "internalType": "uint256",
              "name": "decisionThreshold",
              "type": "uint256"
            },
            {
              "internalType": "uint256",
              "name": "executionDelay",
              "type": "uint256"
            }
          ],
          "internalType": "struct IGovernor.ProposalCoreData",
          "name": "core",
          "type": "tuple"
        },
        {
          "components": [
            {
              "internalType": "uint256",
              "name": "startBlock",
              "type": "uint256"
            },
            {
              "internalType": "uint256",
              "name": "endBlock",
              "type": "uint256"
            },
            {
              "internalType": "uint256",
              "name": "availableVotes",
              "type": "uint256"
            },
            {
              "internalType": "uint256",
              "name": "forVotes",
              "type": "uint256"
            },
            {
              "internalType": "uint256",
              "name": "againstVotes",
              "type": "uint256"
            },
            {
              "internalType": "enum Governor.ProposalState",
              "name": "executionState",
              "type": "uint8"
            }
          ],
          "internalType": "struct Governor.ProposalVotingData",
          "name": "vote",
          "type": "tuple"
        },
        {
          "components": [
            {
              "internalType": "enum IRecordsRegistry.EventType",
              "name": "proposalType",
              "type": "uint8"
            },
            {
              "internalType": "string",
              "name": "description",
              "type": "string"
            },
            {
              "internalType": "string",
              "name": "metaHash",
              "type": "string"
            }
          ],
          "internalType": "struct IGovernor.ProposalMetaData",
          "name": "meta",
          "type": "tuple"
        }
      ],
      "stateMutability": "view",
      "type": "function"
    },
    {
      "inputs": [
        {
          "internalType": "address",
          "name": "proposer",
          "type": "address"
        },
        {
          "internalType": "uint256",
          "name": "proposeType",
          "type": "uint256"
        },
        {
          "components": [
            {
              "internalType": "address[]",
              "name": "targets",
              "type": "address[]"
            },
            {
              "internalType": "uint256[]",
              "name": "values",
              "type": "uint256[]"
            },
            {
              "internalType": "bytes[]",
              "name": "callDatas",
              "type": "bytes[]"
            },
            {
              "internalType": "uint256",
              "name": "quorumThreshold",
              "type": "uint256"
            },
            {
              "internalType": "uint256",
              "name": "decisionThreshold",
              "type": "uint256"
            },
            {
              "internalType": "uint256",
              "name": "executionDelay",
              "type": "uint256"
            }
          ],
          "internalType": "struct IGovernor.ProposalCoreData",
          "name": "core",
          "type": "tuple"
        },
        {
          "components": [
            {
              "internalType": "enum IRecordsRegistry.EventType",
              "name": "proposalType",
              "type": "uint8"
            },
            {
              "internalType": "string",
              "name": "description",
              "type": "string"
            },
            {
              "internalType": "string",
              "name": "metaHash",
              "type": "string"
            }
          ],
          "internalType": "struct IGovernor.ProposalMetaData",
          "name": "meta",
          "type": "tuple"
        }
      ],
      "name": "propose",
      "outputs": [
        {
          "internalType": "uint256",
          "name": "proposalId",
          "type": "uint256"
        }
      ],
      "stateMutability": "nonpayable",
      "type": "function"
    },
    {
      "inputs": [],
      "name": "quorumThreshold",
      "outputs": [
        {
          "internalType": "uint256",
          "name": "",
          "type": "uint256"
        }
      ],
      "stateMutability": "view",
      "type": "function"
    },
    {
      "inputs": [],
      "name": "renounceOwnership",
      "outputs": [],
      "stateMutability": "nonpayable",
      "type": "function"
    },
    {
      "inputs": [],
      "name": "service",
      "outputs": [
        {
          "internalType": "contract IService",
          "name": "",
          "type": "address"
        }
      ],
      "stateMutability": "view",
      "type": "function"
    },
    {
      "inputs": [
        {
          "internalType": "uint256",
          "name": "_fee",
          "type": "uint256"
        },
        {
          "internalType": "uint256",
          "name": "_jurisdiction",
          "type": "uint256"
        },
        {
          "internalType": "uint256",
          "name": "_entityType",
          "type": "uint256"
        },
        {
          "internalType": "string",
          "name": "_ein",
          "type": "string"
        },
        {
          "internalType": "string",
          "name": "_dateOfIncorporation",
          "type": "string"
        },
        {
          "internalType": "string",
          "name": "_OAuri",
          "type": "string"
        }
      ],
      "name": "setCompanyInfo",
      "outputs": [],
      "stateMutability": "nonpayable",
      "type": "function"
    },
    {
      "inputs": [
        {
          "components": [
            {
              "internalType": "uint256",
              "name": "proposalThreshold",
              "type": "uint256"
            },
            {
              "internalType": "uint256",
              "name": "quorumThreshold",
              "type": "uint256"
            },
            {
              "internalType": "uint256",
              "name": "decisionThreshold",
              "type": "uint256"
            },
            {
              "internalType": "uint256",
              "name": "votingDuration",
              "type": "uint256"
            },
            {
              "internalType": "uint256",
              "name": "transferValueForDelay",
              "type": "uint256"
            },
            {
              "internalType": "uint256[4]",
              "name": "executionDelays",
              "type": "uint256[4]"
            },
            {
              "internalType": "uint256",
              "name": "votingStartDelay",
              "type": "uint256"
            }
          ],
          "internalType": "struct IGovernanceSettings.NewGovernanceSettings",
          "name": "settings",
          "type": "tuple"
        }
      ],
      "name": "setGovernanceSettings",
      "outputs": [],
      "stateMutability": "nonpayable",
      "type": "function"
    },
    {
      "inputs": [
        {
          "internalType": "address",
          "name": "newowner",
          "type": "address"
        },
        {
          "internalType": "string",
          "name": "trademark_",
          "type": "string"
        },
        {
          "components": [
            {
              "internalType": "uint256",
              "name": "proposalThreshold",
              "type": "uint256"
            },
            {
              "internalType": "uint256",
              "name": "quorumThreshold",
              "type": "uint256"
            },
            {
              "internalType": "uint256",
              "name": "decisionThreshold",
              "type": "uint256"
            },
            {
              "internalType": "uint256",
              "name": "votingDuration",
              "type": "uint256"
            },
            {
              "internalType": "uint256",
              "name": "transferValueForDelay",
              "type": "uint256"
            },
            {
              "internalType": "uint256[4]",
              "name": "executionDelays",
              "type": "uint256[4]"
            },
            {
              "internalType": "uint256",
              "name": "votingStartDelay",
              "type": "uint256"
            }
          ],
          "internalType": "struct IGovernanceSettings.NewGovernanceSettings",
          "name": "governanceSettings_",
          "type": "tuple"
        }
      ],
      "name": "setNewOwnerWithSettings",
      "outputs": [],
      "stateMutability": "nonpayable",
      "type": "function"
    },
    {
      "inputs": [
        {
          "internalType": "address",
          "name": "tge",
          "type": "address"
        }
      ],
      "name": "setProposalIdToTGE",
      "outputs": [],
      "stateMutability": "nonpayable",
      "type": "function"
    },
    {
      "inputs": [
        {
          "components": [
            {
              "internalType": "uint256",
              "name": "proposalThreshold",
              "type": "uint256"
            },
            {
              "internalType": "uint256",
              "name": "quorumThreshold",
              "type": "uint256"
            },
            {
              "internalType": "uint256",
              "name": "decisionThreshold",
              "type": "uint256"
            },
            {
              "internalType": "uint256",
              "name": "votingDuration",
              "type": "uint256"
            },
            {
              "internalType": "uint256",
              "name": "transferValueForDelay",
              "type": "uint256"
            },
            {
              "internalType": "uint256[4]",
              "name": "executionDelays",
              "type": "uint256[4]"
            },
            {
              "internalType": "uint256",
              "name": "votingStartDelay",
              "type": "uint256"
            }
          ],
          "internalType": "struct IGovernanceSettings.NewGovernanceSettings",
          "name": "governanceSettings_",
          "type": "tuple"
        },
        {
          "internalType": "address[]",
          "name": "secretary",
          "type": "address[]"
        },
        {
          "internalType": "address[]",
          "name": "executor",
          "type": "address[]"
        }
      ],
      "name": "setSettings",
      "outputs": [],
      "stateMutability": "nonpayable",
      "type": "function"
    },
    {
      "inputs": [
        {
          "internalType": "address",
          "name": "token_",
          "type": "address"
        },
        {
          "internalType": "enum IToken.TokenType",
          "name": "tokenType_",
          "type": "uint8"
        }
      ],
      "name": "setToken",
      "outputs": [],
      "stateMutability": "nonpayable",
      "type": "function"
    },
    {
      "inputs": [
        {
          "internalType": "contract IToken",
          "name": "token",
          "type": "address"
        }
      ],
      "name": "tokenExists",
      "outputs": [
        {
          "internalType": "bool",
          "name": "",
          "type": "bool"
        }
      ],
      "stateMutability": "view",
      "type": "function"
    },
    {
      "inputs": [
        {
          "internalType": "address",
          "name": "",
          "type": "address"
        }
      ],
      "name": "tokenTypeByAddress",
      "outputs": [
        {
          "internalType": "enum IToken.TokenType",
          "name": "",
          "type": "uint8"
        }
      ],
      "stateMutability": "view",
      "type": "function"
    },
    {
      "inputs": [
        {
          "internalType": "enum IToken.TokenType",
          "name": "",
          "type": "uint8"
        }
      ],
      "name": "tokens",
      "outputs": [
        {
          "internalType": "address",
          "name": "",
          "type": "address"
        }
      ],
      "stateMutability": "view",
      "type": "function"
    },
    {
      "inputs": [
        {
          "internalType": "enum IToken.TokenType",
          "name": "",
          "type": "uint8"
        },
        {
          "internalType": "uint256",
          "name": "",
          "type": "uint256"
        }
      ],
      "name": "tokensFullList",
      "outputs": [
        {
          "internalType": "address",
          "name": "",
          "type": "address"
        }
      ],
      "stateMutability": "view",
      "type": "function"
    },
    {
      "inputs": [],
      "name": "trademark",
      "outputs": [
        {
          "internalType": "string",
          "name": "",
          "type": "string"
        }
      ],
      "stateMutability": "view",
      "type": "function"
    },
    {
      "inputs": [
        {
          "internalType": "address",
          "name": "to",
          "type": "address"
        },
        {
          "internalType": "uint256",
          "name": "amount",
          "type": "uint256"
        },
        {
          "internalType": "address",
          "name": "unitOfAccount",
          "type": "address"
        }
      ],
      "name": "transferByOwner",
      "outputs": [],
      "stateMutability": "nonpayable",
      "type": "function"
    },
    {
      "inputs": [
        {
          "internalType": "address",
          "name": "newOwner",
          "type": "address"
        }
      ],
      "name": "transferOwnership",
      "outputs": [],
      "stateMutability": "nonpayable",
      "type": "function"
    },
    {
      "inputs": [],
      "name": "transferValueForDelay",
      "outputs": [
        {
          "internalType": "uint256",
          "name": "",
          "type": "uint256"
        }
      ],
      "stateMutability": "view",
      "type": "function"
    },
    {
      "inputs": [
        {
          "components": [
            {
              "internalType": "uint256",
              "name": "proposalThreshold",
              "type": "uint256"
            },
            {
              "internalType": "uint256",
              "name": "quorumThreshold",
              "type": "uint256"
            },
            {
              "internalType": "uint256",
              "name": "decisionThreshold",
              "type": "uint256"
            },
            {
              "internalType": "uint256",
              "name": "votingDuration",
              "type": "uint256"
            },
            {
              "internalType": "uint256",
              "name": "transferValueForDelay",
              "type": "uint256"
            },
            {
              "internalType": "uint256[4]",
              "name": "executionDelays",
              "type": "uint256[4]"
            },
            {
              "internalType": "uint256",
              "name": "votingStartDelay",
              "type": "uint256"
            }
          ],
          "internalType": "struct IGovernanceSettings.NewGovernanceSettings",
          "name": "settings",
          "type": "tuple"
        }
      ],
      "name": "validateGovernanceSettings",
      "outputs": [],
      "stateMutability": "pure",
      "type": "function"
    },
    {
      "inputs": [],
      "name": "votingDuration",
      "outputs": [
        {
          "internalType": "uint256",
          "name": "",
          "type": "uint256"
        }
      ],
      "stateMutability": "view",
      "type": "function"
    },
    {
      "inputs": [],
      "name": "votingStartDelay",
      "outputs": [
        {
          "internalType": "uint256",
          "name": "",
          "type": "uint256"
        }
      ],
      "stateMutability": "view",
      "type": "function"
    },
    {
      "stateMutability": "payable",
      "type": "receive"
    }
  ],
  "transactionHash": "0xbcc6e4ca706d8bca3a87877340165a6a1dadc026436911af00bb225a1007f9fe",
  "args": [],
  "numDeployments": 1,
  "solcInputHash": "cb4f63f6f580008b95d52d1cf6610d76",
  "bytecode": "0x60806040523480156200001157600080fd5b506200001c62000022565b620000e4565b600054610100900460ff16156200008f5760405162461bcd60e51b815260206004820152602760248201527f496e697469616c697a61626c653a20636f6e747261637420697320696e697469604482015266616c697a696e6760c81b606482015260840160405180910390fd5b60005460ff9081161015620000e2576000805460ff191660ff9081179091556040519081527f7f26b83ff96e1f2b6a682f133852f6798a09c465da95921460cefb38474024989060200160405180910390a15b565b615f9480620000f46000396000f3fe6080604052600436106103545760003560e01c80638caf613c116101c6578063c5951291116100f7578063e47bfee811610095578063f2fde38b1161006f578063f2fde38b14610a38578063f7ec6f1014610a58578063f8127cbc14610a78578063fe90266714610a8e57600080fd5b8063e47bfee8146109ee578063e8533e2914610a03578063eab7dfc614610a2357600080fd5b8063ccf88461116100d1578063ccf8846114610952578063d26331d414610972578063d598d4c91461099f578063da4256f5146109c057600080fd5b8063c5951291146108d4578063cb48495c146108ea578063cbd294e41461092157600080fd5b8063aa44b06a11610164578063b77325411161013e578063b773254114610847578063c249e86214610867578063c3a1099214610894578063c4767b95146108b457600080fd5b8063aa44b06a146107fc578063b33f78ca14610811578063b58131b01461083157600080fd5b80639198c393116101a05780639198c39314610778578063964765b01461079857806396a72441146107ae578063974f8554146107ce57600080fd5b80638caf613c146107235780638da5cb5b146107435780638fec3ab41461075857600080fd5b80633157293f116102a057806354b598ec1161023e578063715018a611610218578063715018a6146106ab57806374cb3041146106c05780637b7a91dd146106d65780638856c0d6146106ec57600080fd5b806354b598ec146106205780635c975abb146106685780635f9103b21461067d57600080fd5b806336f281a91161027a57806336f281a9146105a15780633f8a037d146105c7578063450a747a146105dc5780634e6cabee1461060a57600080fd5b80633157293f14610541578063333055a014610561578063365dc7ff1461058157600080fd5b806315373e3d1161030d578063198d12c6116102e7578063198d12c6146104a75780631cc5708b146104d45780631e91254b1461050c5780632fb92cf41461052157600080fd5b806315373e3d1461044e57806316525f1d1461046e578063165610761461048557600080fd5b8063013cf08b146103605780630377aeea146103985780630413a7a2146103ba57806306b14fb4146103e85780630d61b51914610418578063132002fc1461043857600080fd5b3661035b57005b600080fd5b34801561036c57600080fd5b5061038061037b366004614e8d565b610aae565b60405161038f939291906150af565b60405180910390f35b3480156103a457600080fd5b506103b86103b336600461526e565b610e57565b005b3480156103c657600080fd5b506103da6103d5366004614e8d565b610f74565b60405190815260200161038f565b3480156103f457600080fd5b50610408610403366004615326565b610fda565b604051901515815260200161038f565b34801561042457600080fd5b506103b8610433366004614e8d565b6110f8565b34801561044457600080fd5b506103da60cf5481565b34801561045a57600080fd5b506103b8610469366004615351565b611293565b34801561047a57600080fd5b506103da6101445481565b34801561049157600080fd5b5061049a6113e6565b60405161038f9190615381565b3480156104b357600080fd5b506104c76104c23660046153a1565b611475565b60405161038f91906153be565b3480156104e057600080fd5b506104f46104ef36600461540b565b61150d565b6040516001600160a01b03909116815260200161038f565b34801561051857600080fd5b5061049a611546565b34801561052d57600080fd5b506103b861053c366004615326565b611554565b34801561054d57600080fd5b5061040861055c366004614e8d565b61165a565b34801561056d57600080fd5b5061040861057c366004615326565b611695565b34801561058d57600080fd5b506103b861059c366004615437565b6116b6565b3480156105ad57600080fd5b506105b6611715565b60405161038f959493929190615479565b3480156105d357600080fd5b506104f4611847565b3480156105e857600080fd5b506105fc6105f73660046154bd565b611880565b60405161038f9291906154eb565b34801561061657600080fd5b5061013c546103da565b34801561062c57600080fd5b5061065b61063b3660046154bd565b60ca60209081526000928352604080842090915290825290205460ff1681565b60405161038f9190615502565b34801561067457600080fd5b5061040861193b565b34801561068957600080fd5b506103da610698366004614e8d565b61013f6020526000908152604090205481565b3480156106b757600080fd5b506103b861194e565b3480156106cc57600080fd5b506103da60cb5481565b3480156106e257600080fd5b506103da60cd5481565b3480156106f857600080fd5b506104f46107073660046153a1565b61013d602052600090815260409020546001600160a01b031681565b34801561072f57600080fd5b5061040861073e366004615326565b611962565b34801561074f57600080fd5b506104f4611983565b34801561076457600080fd5b506103b86107733660046155bc565b611997565b34801561078457600080fd5b506103b86107933660046155bc565b6119a3565b3480156107a457600080fd5b506103da60ce5481565b3480156107ba57600080fd5b506103b86107c9366004615670565b6119f0565b3480156107da57600080fd5b506103da6107e9366004614e8d565b6101056020526000908152604090205481565b34801561080857600080fd5b506104c7611e38565b34801561081d57600080fd5b5061040861082c366004615326565b611e83565b34801561083d57600080fd5b506103da60cc5481565b34801561085357600080fd5b506103b8610862366004615437565b611ec0565b34801561087357600080fd5b506103da6108823660046156f6565b60d16020526000908152604090205481565b3480156108a057600080fd5b506103b86108af366004615711565b611f18565b3480156108c057600080fd5b506103b86108cf366004615748565b611f7b565b3480156108e057600080fd5b506103da60d05481565b3480156108f657600080fd5b506104f4610905366004614e8d565b610145602052600090815260409020546001600160a01b031681565b34801561092d57600080fd5b5061065b61093c366004615326565b6101416020526000908152604090205460ff1681565b34801561095e57600080fd5b506103b861096d366004615776565b6123af565b34801561097e57600080fd5b5061099261098d366004614e8d565b61252d565b60405161038f9190615827565b3480156109ab57600080fd5b50610104546104f4906001600160a01b031681565b3480156109cc57600080fd5b506103da6109db366004615326565b61013e6020526000908152604090205481565b3480156109fa57600080fd5b50610408612a4d565b348015610a0f57600080fd5b50610408610a1e366004615326565b612ad5565b348015610a2f57600080fd5b506104c7612bfa565b348015610a4457600080fd5b506103b8610a53366004615326565b612c1a565b348015610a6457600080fd5b506103da610a733660046159be565b612c90565b348015610a8457600080fd5b506103da60d25481565b348015610a9a57600080fd5b506103b8610aa9366004615ad3565b612f34565b60c9602090815260009182526040918290208251815460e09381028201840190945260c0810184815291939092849284929091849190840182828015610b1d57602002820191906000526020600020905b81546001600160a01b03168152600190910190602001808311610aff575b5050505050815260200160018201805480602002602001604051908101604052809291908181526020018280548015610b7557602002820191906000526020600020905b815481526020019060010190808311610b61575b5050505050815260200160028201805480602002602001604051908101604052809291908181526020016000905b82821015610c4f578382906000526020600020018054610bc290615b34565b80601f0160208091040260200160405190810160405280929190818152602001828054610bee90615b34565b8015610c3b5780601f10610c1057610100808354040283529160200191610c3b565b820191906000526020600020905b815481529060010190602001808311610c1e57829003601f168201915b505050505081526020019060010190610ba3565b505050508152602001600382015481526020016004820154815260200160058201548152505090806006016040518060c001604052908160008201548152602001600182015481526020016002820154815260200160038201548152602001600482015481526020016005820160009054906101000a900460ff166006811115610cdb57610cdb61502d565b6006811115610cec57610cec61502d565b9052506040805160608101909152600c83018054929392829060ff166003811115610d1957610d1961502d565b6003811115610d2a57610d2a61502d565b8152602001600182018054610d3e90615b34565b80601f0160208091040260200160405190810160405280929190818152602001828054610d6a90615b34565b8015610db75780601f10610d8c57610100808354040283529160200191610db7565b820191906000526020600020905b815481529060010190602001808311610d9a57829003601f168201915b50505050508152602001600282018054610dd090615b34565b80601f0160208091040260200160405190810160405280929190818152602001828054610dfc90615b34565b8015610e495780601f10610e1e57610100808354040283529160200191610e49565b820191906000526020600020905b815481529060010190602001808311610e2c57829003601f168201915b505050505081525050905083565b61010460009054906101000a90046001600160a01b03166001600160a01b0316637b1039996040518163ffffffff1660e01b8152600401602060405180830381865afa158015610eab573d6000803e3d6000fd5b505050506040513d601f19601f82011682018060405250810190610ecf9190615b6e565b6001600160a01b0316336001600160a01b0316146040518060400160405280600c81526020016b4e4f545f524547495354525960a01b81525090610f2f5760405162461bcd60e51b8152600401610f269190615381565b60405180910390fd5b5061013885905561013984905561013a610f498482615bd9565b5061013c86905561013b610f5d8382615bd9565b50610148610f6b8282615bd9565b50505050505050565b600081815260c960205260408120600601544390610f9490600190615cae565b1015610fc757600082815260c96020526040902060060154610fc190610fbc90600190615cae565b612ff5565b92915050565b610fc1610fbc600143615cae565b919050565b6000610fe761014661308f565b1580610ff75750610ff782611695565b806110e35750610104546040805163c979e8a760e01b815290516001600160a01b03909216916391d1485491839163c979e8a7916004808201926020929091908290030181865afa158015611050573d6000803e3d6000fd5b505050506040513d601f19601f820116820180604052508101906110749190615cc1565b6040516001600160e01b031960e084901b16815260048101919091526001600160a01b0385166024820152604401602060405180830381865afa1580156110bf573d6000803e3d6000fd5b505050506040513d601f19601f820116820180604052508101906110e39190615cda565b156110f057506001919050565b506000919050565b611100613099565b61110933610fda565b604051806040016040528060128152602001712727aa2fab20a624a22fa2ac22a1aaaa27a960711b815250906111525760405162461bcd60e51b8152600401610f269190615381565b50610144819055610104546111719082906001600160a01b03166130e1565b61010460009054906101000a90046001600160a01b03166001600160a01b0316637b1039996040518163ffffffff1660e01b8152600401602060405180830381865afa1580156111c5573d6000803e3d6000fd5b505050506040513d601f19601f820116820180604052508101906111e99190615b6e565b6001600160a01b0316634dbb83fd33306000630d61b51960e01b8660405160240161121691815260200190565b60408051601f198184030181529181526020820180516001600160e01b03166001600160e01b03199485161790525160e087901b909216825261125e94939291600401615cf7565b600060405180830381600087803b15801561127857600080fd5b505af115801561128c573d6000803e3d6000fd5b5050505050565b61129b6136e1565b6112a3613099565b6112ae33838361373a565b61010460009054906101000a90046001600160a01b03166001600160a01b0316637b1039996040518163ffffffff1660e01b8152600401602060405180830381865afa158015611302573d6000803e3d6000fd5b505050506040513d601f19601f820116820180604052508101906113269190615b6e565b6001600160a01b0316634dbb83fd333060006315373e3d60e01b878760405160240161135e9291909182521515602082015260400190565b60408051601f198184030181529181526020820180516001600160e01b03166001600160e01b03199485161790525160e087901b90921682526113a694939291600401615cf7565b600060405180830381600087803b1580156113c057600080fd5b505af11580156113d4573d6000803e3d6000fd5b505050506113e26001606555565b5050565b61013780546113f490615b34565b80601f016020809104026020016040519081016040528092919081815260200182805461142090615b34565b801561146d5780601f106114425761010080835404028352916020019161146d565b820191906000526020600020905b81548152906001019060200180831161145057829003601f168201915b505050505081565b6060610140600083600281111561148e5761148e61502d565b600281111561149f5761149f61502d565b815260200190815260200160002080548060200260200160405190810160405280929190818152602001828054801561150157602002820191906000526020600020905b81546001600160a01b031681526001909101906020018083116114e3575b50505050509050919050565b610140602052816000526040600020818154811061152a57600080fd5b6000918252602090912001546001600160a01b03169150829050565b61014880546113f490615b34565b61010460009054906101000a90046001600160a01b03166001600160a01b031663102c5c016040518163ffffffff1660e01b8152600401602060405180830381865afa1580156115a8573d6000803e3d6000fd5b505050506040513d601f19601f820116820180604052508101906115cc9190615b6e565b6001600160a01b0316336001600160a01b0316146040518060400160405280600f81526020016e4e4f545f5447455f464143544f525960881b815250906116265760405162461bcd60e51b8152600401610f269190615381565b506101445460009081526101456020526040902080546001600160a01b0319166001600160a01b0392909216919091179055565b60006001600083815261010560205260409020546116779061252d565b60068111156116885761168861502d565b036110f057506001919050565b600061169f612a4d565b6116aa576000610fc1565b610fc161014683613a09565b6116be613a2e565b6116c6612a4d565b156040518060400160405280600681526020016549535f44414f60d01b815250906117045760405162461bcd60e51b8152600401610f269190615381565b50611710838383613a8d565b505050565b61013880546101395461013a80549293919261173090615b34565b80601f016020809104026020016040519081016040528092919081815260200182805461175c90615b34565b80156117a95780601f1061177e576101008083540402835291602001916117a9565b820191906000526020600020905b81548152906001019060200180831161178c57829003601f168201915b5050505050908060030180546117be90615b34565b80601f01602080910402602001604051908101604052809291908181526020018280546117ea90615b34565b80156118375780601f1061180c57610100808354040283529160200191611837565b820191906000526020600020905b81548152906001019060200180831161181a57829003601f168201915b5050505050908060040154905085565b600160005261013d6020527f629d646ec67bfbeb7c6606ef8cc3b08ea57953ef9e89bc573ebaeb509393412b546001600160a01b031690565b600081815260c96020526040812060060154819043906118a290600190615cae565b10156118fe576001600160a01b038416600090815260ca6020908152604080832086845282528083205460c99092529091206006015460ff909116906118f59086906118f090600190615cae565b613c42565b91509150611934565b6001600160a01b038416600090815260ca6020908152604080832086845290915290205460ff166118f5856118f0600143615cae565b9250929050565b600061194960975460ff1690565b905090565b611956613a2e565b6119606000613cbf565b565b600061196c612a4d565b611977576000610fc1565b610fc161014283613a09565b60006119496033546001600160a01b031690565b6119a081613d11565b50565b60408051808201909152600c81526b24a72b20a624a22faaa9a2a960a11b60208201523330146119e65760405162461bcd60e51b8152600401610f269190615381565b506119a081613dfc565b61010460009054906101000a90046001600160a01b03166001600160a01b031663102c5c016040518163ffffffff1660e01b8152600401602060405180830381865afa158015611a44573d6000803e3d6000fd5b505050506040513d601f19601f82011682018060405250810190611a689190615b6e565b6001600160a01b0316336001600160a01b03161480611a8657503330145b6040518060400160405280600f81526020016e4e4f545f5447455f464143544f525960881b81525090611acc5760405162461bcd60e51b8152600401610f269190615381565b5061010460009054906101000a90046001600160a01b03166001600160a01b031663102c5c016040518163ffffffff1660e01b8152600401602060405180830381865afa158015611b21573d6000803e3d6000fd5b505050506040513d601f19601f82011682018060405250810190611b459190615b6e565b6001600160a01b03163303611cdc576000611b5e611847565b6001600160a01b031614611cdc57611b74612a4d565b156040518060400160405280600681526020016549535f44414f60d01b81525090611bb25760405162461bcd60e51b8152600401610f269190615381565b506000611bbd611847565b6001600160a01b0316633eac99986040518163ffffffff1660e01b8152600401602060405180830381865afa158015611bfa573d6000803e3d6000fd5b505050506040513d601f19601f82011682018060405250810190611c1e9190615b6e565b6001600160a01b031663c19d93fb6040518163ffffffff1660e01b8152600401602060405180830381865afa158015611c5b573d6000803e3d6000fd5b505050506040513d601f19601f82011682018060405250810190611c7f9190615d2a565b6002811115611c9057611c9061502d565b1415604051806040016040528060118152602001704143544956455f5447455f45584953545360781b81525090611cda5760405162461bcd60e51b8152600401610f269190615381565b505b611ce583613dfc565b6000611cf2610142613eed565b905060005b8151811015611d4157611d2e828281518110611d1557611d15615d47565b6020026020010151610142613efa90919063ffffffff16565b5080611d3981615d5d565b915050611cf7565b5060005b8351811015611d8f57611d7c848281518110611d6357611d63615d47565b6020026020010151610142613f0f90919063ffffffff16565b5080611d8781615d5d565b915050611d45565b50611d9b610146613eed565b905060005b8151811015611dea57611dd7828281518110611dbe57611dbe615d47565b6020026020010151610146613efa90919063ffffffff16565b5080611de281615d5d565b915050611da0565b5060005b825181101561128c57611e25848281518110611e0c57611e0c615d47565b6020026020010151610146613f0f90919063ffffffff16565b5080611e3081615d5d565b915050611dee565b6060611e42612a4d565b611e785760005b604051908082528060200260200182016040528015611e72578160200160208202803683370190505b50905090565b611949610142613eed565b6000806001600160a01b0383166000908152610141602052604090205460ff166002811115611eb457611eb461502d565b146110f0576001610fc1565b6101045460408051808201909152600b81526a4e4f545f5345525649434560a81b6020820152906001600160a01b03163314611f0f5760405162461bcd60e51b8152600401610f269190615381565b506116c6612a4d565b611f20613099565b6101045460408051808201909152600b81526a4e4f545f5345525649434560a81b6020820152906001600160a01b03163314611f6f5760405162461bcd60e51b8152600401610f269190615381565b5061171083838361373a565b61010460009054906101000a90046001600160a01b03166001600160a01b031663102c5c016040518163ffffffff1660e01b8152600401602060405180830381865afa158015611fcf573d6000803e3d6000fd5b505050506040513d601f19601f82011682018060405250810190611ff39190615b6e565b6001600160a01b0316336001600160a01b0316146040518060400160405280600f81526020016e4e4f545f5447455f464143544f525960881b8152509061204d5760405162461bcd60e51b8152600401610f269190615381565b5060408051808201909152600c81526b414444524553535f5a45524f60a01b60208201526001600160a01b0383166120985760405162461bcd60e51b8152600401610f269190615381565b506120a282611e83565b6113e25760018160028111156120ba576120ba61502d565b036123175760006120c9611847565b6001600160a01b031614806121d5575060016120e3611847565b6001600160a01b0316620a04ae6040518163ffffffff1660e01b8152600401600060405180830381865afa15801561211f573d6000803e3d6000fd5b505050506040513d6000823e601f3d908101601f191682016040526121479190810190615d76565b60008151811061215957612159615d47565b60200260200101516001600160a01b031663c19d93fb6040518163ffffffff1660e01b8152600401602060405180830381865afa15801561219e573d6000803e3d6000fd5b505050506040513d601f19601f820116820180604052508101906121c29190615d2a565b60028111156121d3576121d361502d565b145b6040518060400160405280601781526020017f474f5645524e414e43455f544f4b454e5f455849535453000000000000000000815250906122295760405162461bcd60e51b8152600401610f269190615381565b506001600090815261013d6020527f629d646ec67bfbeb7c6606ef8cc3b08ea57953ef9e89bc573ebaeb509393412b80546001600160a01b0319166001600160a01b038516179055610140818360028111156122875761228761502d565b60028111156122985761229861502d565b815260208101919091526040016000205411156123175761014060008260028111156122c6576122c661502d565b60028111156122d7576122d761502d565b81526020019081526020016000208054806122f4576122f4615e04565b600082815260209020810160001990810180546001600160a01b03191690550190555b610140600082600281111561232e5761232e61502d565b600281111561233f5761233f61502d565b8152602080820192909252604090810160009081208054600180820183559183528483200180546001600160a01b0319166001600160a01b0388169081179091558252610141909352208054839260ff19909116908360028111156123a6576123a661502d565b02179055505050565b600054610100900460ff16158080156123cf5750600054600160ff909116105b806123e95750303b1580156123e9575060005460ff166001145b61244c5760405162461bcd60e51b815260206004820152602e60248201527f496e697469616c697a61626c653a20636f6e747261637420697320616c72656160448201526d191e481a5b9a5d1a585b1a5e995960921b6064820152608401610f26565b6000805460ff19166001179055801561246f576000805461ff0019166101001790555b612477613f24565b61247f613f53565b612487613f82565b61010480546001600160a01b031916331790558151610138908155602083015161013955604083015183919061013a906124c19082615bd9565b50606082015160038201906124d69082615bd9565b506080820151816004015590505080156113e2576000805461ff0019169055604051600181527f7f26b83ff96e1f2b6a682f133852f6798a09c465da95921460cefb38474024989060200160405180910390a15050565b600081815260c960209081526040808320815181546101409481028201850190935261012081018381528594919384926060840192859284928491908701828280156125a257602002820191906000526020600020905b81546001600160a01b03168152600190910190602001808311612584575b50505050508152602001600182018054806020026020016040519081016040528092919081815260200182805480156125fa57602002820191906000526020600020905b8154815260200190600101908083116125e6575b5050505050815260200160028201805480602002602001604051908101604052809291908181526020016000905b828210156126d457838290600052602060002001805461264790615b34565b80601f016020809104026020016040519081016040528092919081815260200182805461267390615b34565b80156126c05780601f10612695576101008083540402835291602001916126c0565b820191906000526020600020905b8154815290600101906020018083116126a357829003601f168201915b505050505081526020019060010190612628565b50505050815260200160038201548152602001600482015481526020016005820154815250508152602001600682016040518060c001604052908160008201548152602001600182015481526020016002820154815260200160038201548152602001600482015481526020016005820160009054906101000a900460ff1660068111156127645761276461502d565b60068111156127755761277561502d565b90525081526040805160608101909152600c83018054602090930192829060ff1660038111156127a7576127a761502d565b60038111156127b8576127b861502d565b81526020016001820180546127cc90615b34565b80601f01602080910402602001604051908101604052809291908181526020018280546127f890615b34565b80156128455780601f1061281a57610100808354040283529160200191612845565b820191906000526020600020905b81548152906001019060200180831161282857829003601f168201915b5050505050815260200160028201805461285e90615b34565b80601f016020809104026020016040519081016040528092919081815260200182805461288a90615b34565b80156128d75780601f106128ac576101008083540402835291602001916128d7565b820191906000526020600020905b8154815290600101906020018083116128ba57829003601f168201915b505050919092525050509052506020810151519091506000036128fd5750600092915050565b6005816020015160a0015160068111156129195761291961502d565b148061293e57506006816020015160a00151600681111561293c5761293c61502d565b145b15612951576020015160a0015192915050565b60208101515115801590612969575060208101515143105b156129775750600192915050565b60006129916001836020015160000151610fbc9190615cae565b905060008260200151608001518360200151606001516129b19190615e1a565b90508260200151602001514310612a42576129d58183856000015160600151613fb1565b6129e457506002949350505050565b6129ff83602001516060015182856000015160800151613fb1565b612a0e57506002949350505050565b825160a001516020808501510151612a269190615e1a565b4310612a3757506004949350505050565b506003949350505050565b506001949350505050565b600080612a58611847565b6001600160a01b031603612a6c5750600090565b612a74611847565b6001600160a01b031663d04d79b56040518163ffffffff1660e01b8152600401602060405180830381865afa158015612ab1573d6000803e3d6000fd5b505050506040513d601f19601f820116820180604052508101906119499190615cda565b600080612ae183613fd4565b610104546040805163c979e8a760e01b815290519293506000926001600160a01b03909216916391d1485491839163c979e8a7916004808201926020929091908290030181865afa158015612b3a573d6000803e3d6000fd5b505050506040513d601f19601f82011682018060405250810190612b5e9190615cc1565b6040516001600160e01b031960e084901b1681526004810191909152336024820152604401602060405180830381865afa158015612ba0573d6000803e3d6000fd5b505050506040513d601f19601f82011682018060405250810190612bc49190615cda565b80612bd35750612bd384611962565b80612bf257506000612be485613fd4565b118015612bf2575060cc5482115b949350505050565b6060612c04612a4d565b612c0f576000611e49565b611949610146613eed565b612c22613a2e565b6001600160a01b038116612c875760405162461bcd60e51b815260206004820152602660248201527f4f776e61626c653a206e6577206f776e657220697320746865207a65726f206160448201526564647265737360d01b6064820152608401610f26565b6119a081613cbf565b6101045460408051631b089fdd60e01b815290516000926001600160a01b031691631b089fdd9160048083019260209291908290030181865afa158015612cdb573d6000803e3d6000fd5b505050506040513d601f19601f82011682018060405250810190612cff9190615b6e565b6001600160a01b0316336001600160a01b0316148015612d235750612d2385612ad5565b604051806040016040528060128152602001712727aa2fab20a624a22fa82927a827a9a2a960711b81525090612d6c5760405162461bcd60e51b8152600401610f269190615381565b5060cd54606084015260ce546080840152815160d1906000906003811115612d9657612d9661502d565b6003811115612da757612da761502d565b8152602001908152602001600020548360a00181815250506000612dd1848460cf5460d25461400e565b6000868152610105602052604090208190559050612e0786826001600160a01b03909116600090815261013e6020526040902055565b61010460009054906101000a90046001600160a01b03166001600160a01b0316637b1039996040518163ffffffff1660e01b8152600401602060405180830381865afa158015612e5b573d6000803e3d6000fd5b505050506040513d601f19601f82011682018060405250810190612e7f9190615b6e565b6001600160a01b0316634dbb83fd8730600063f7ec6f1060e01b8b8b8b8b604051602401612eb09493929190615e2d565b60408051601f198184030181529181526020820180516001600160e01b03166001600160e01b03199485161790525160e087901b9092168252612ef894939291600401615cf7565b600060405180830381600087803b158015612f1257600080fd5b505af1158015612f26573d6000803e3d6000fd5b509298975050505050505050565b6101045460408051808201909152600b81526a4e4f545f5345525649434560a81b6020820152906001600160a01b03163314612f835760405162461bcd60e51b8152600401610f269190615381565b506101378054612f9290615b34565b60408051808201909152600b81526a1053149150511657d4d15560aa1b6020820152915015612fd45760405162461bcd60e51b8152600401610f269190615381565b50612fde83613cbf565b610137612feb8382615bd9565b5061171081613dfc565b6001600090815261013d6020527f629d646ec67bfbeb7c6606ef8cc3b08ea57953ef9e89bc573ebaeb509393412b54604051632394e7a360e21b8152600481018490526001600160a01b0390911690638e539e8c906024015b602060405180830381865afa15801561306b573d6000803e3d6000fd5b505050506040513d601f19601f82011682018060405250810190610fc19190615cc1565b6000610fc1825490565b6130a161193b565b156119605760405162461bcd60e51b815260206004820152601060248201526f14185d5cd8589b194e881c185d5cd95960821b6044820152606401610f26565b60046130ec8361252d565b60068111156130fd576130fd61502d565b146040518060400160405280600b81526020016a57524f4e475f535441544560a81b815250906131405760405162461bcd60e51b8152600401610f269190615381565b50600082815260c960209081526040808320600b8101805460ff19166005179055815181549384028101610140908101909352610120810184815290939192849260608401928592849284918701828280156131c557602002820191906000526020600020905b81546001600160a01b031681526001909101906020018083116131a7575b505050505081526020016001820180548060200260200160405190810160405280929190818152602001828054801561321d57602002820191906000526020600020905b815481526020019060010190808311613209575b5050505050815260200160028201805480602002602001604051908101604052809291908181526020016000905b828210156132f757838290600052602060002001805461326a90615b34565b80601f016020809104026020016040519081016040528092919081815260200182805461329690615b34565b80156132e35780601f106132b8576101008083540402835291602001916132e3565b820191906000526020600020905b8154815290600101906020018083116132c657829003601f168201915b50505050508152602001906001019061324b565b50505050815260200160038201548152602001600482015481526020016005820154815250508152602001600682016040518060c001604052908160008201548152602001600182015481526020016002820154815260200160038201548152602001600482015481526020016005820160009054906101000a900460ff1660068111156133875761338761502d565b60068111156133985761339861502d565b90525081526040805160608101909152600c83018054602090930192829060ff1660038111156133ca576133ca61502d565b60038111156133db576133db61502d565b81526020016001820180546133ef90615b34565b80601f016020809104026020016040519081016040528092919081815260200182805461341b90615b34565b80156134685780601f1061343d57610100808354040283529160200191613468565b820191906000526020600020905b81548152906001019060200180831161344b57829003601f168201915b5050505050815260200160028201805461348190615b34565b80601f01602080910402602001604051908101604052809291908181526020018280546134ad90615b34565b80156134fa5780601f106134cf576101008083540402835291602001916134fa565b820191906000526020600020905b8154815290600101906020018083116134dd57829003601f168201915b50505050508152505081525050905060005b815151518110156136375781516040015180518290811061352f5761352f615d47565b6020026020010151516000036135a25761359d826000015160200151828151811061355c5761355c615d47565b6020026020010151836000015160000151838151811061357e5761357e615d47565b60200260200101516001600160a01b031661423590919063ffffffff16565b613625565b61362382600001516040015182815181106135bf576135bf615d47565b602002602001015183600001516020015183815181106135e1576135e1615d47565b6020026020010151846000015160000151848151811061360357613603615d47565b60200260200101516001600160a01b031661434e9092919063ffffffff16565b505b8061362f81615d5d565b91505061350c565b50604080820151805190820151915163b677bc6960e01b81526001600160a01b0385169263b677bc69926136719290918891600401615e66565b600060405180830381600087803b15801561368b57600080fd5b505af115801561369f573d6000803e3d6000fd5b505050507f712ae1383f79ac853f8d882153778e0260ef8f03b504e2866e0593e04d2b291f836040516136d491815260200190565b60405180910390a1505050565b6002606554036137335760405162461bcd60e51b815260206004820152601f60248201527f5265656e7472616e637947756172643a207265656e7472616e742063616c6c006044820152606401610f26565b6002606555565b600082815260c96020908152604091829020600601548251808401909352600c83526b1393d517d310555390d2115160a21b918301919091526137905760405162461bcd60e51b8152600401610f269190615381565b504360c960008481526020019081526020016000206006016000015411156040518060400160405280600c81526020016b1393d517d310555390d2115160a21b815250906137f15760405162461bcd60e51b8152600401610f269190615381565b504360c9600084815260200190815260200160002060060160010154116040518060400160405280600f81526020016e1593d5125391d7d192539254d21151608a1b815250906138545760405162461bcd60e51b8152600401610f269190615381565b506001600160a01b038316600090815260ca6020908152604080832085845290915281205460ff16600281111561388d5761388d61502d565b146040518060400160405280600d81526020016c1053149150511657d593d51151609a1b815250906138d25760405162461bcd60e51b8152600401610f269190615381565b50600082815260c960205260408120600601546138f79085906118f090600190615cae565b9050600081116040518060400160405280600a8152602001695a45524f5f564f54455360b01b8152509061393e5760405162461bcd60e51b8152600401610f269190615381565b50811561399e57600083815260c9602052604081206009018054839290613966908490615e1a565b90915550506001600160a01b038416600090815260ca602090815260408083208684529091529020805460ff191660021790556139f3565b600083815260c960205260408120600a0180548392906139bf908490615e1a565b90915550506001600160a01b038416600090815260ca602090815260408083208684529091529020805460ff191660011790555b6139fc83614374565b50505050565b6001606555565b6001600160a01b038116600090815260018301602052604081205415155b9392505050565b33613a37611983565b6001600160a01b0316146119605760405162461bcd60e51b815260206004820181905260248201527f4f776e61626c653a2063616c6c6572206973206e6f7420746865206f776e65726044820152606401610f26565b6001600160a01b038116613b7d57814710156040518060400160405280600c81526020016b15d493d391d7d05353d5539560a21b81525090613ae25760405162461bcd60e51b8152600401610f269190615381565b506000836001600160a01b03168360405160006040518083038185875af1925050503d8060008114613b30576040519150601f19603f3d011682016040523d82523d6000602084013e613b35565b606091505b50509050806040518060400160405280600c81526020016b15d493d391d7d05353d5539560a21b8152509061128c5760405162461bcd60e51b8152600401610f269190615381565b6040516370a0823160e01b815230600482015282906001600160a01b038316906370a0823190602401602060405180830381865afa158015613bc3573d6000803e3d6000fd5b505050506040513d601f19601f82011682018060405250810190613be79190615cc1565b10156040518060400160405280600c81526020016b15d493d391d7d05353d5539560a21b81525090613c2c5760405162461bcd60e51b8152600401610f269190615381565b506117106001600160a01b0382163385856147fb565b6000613c4c611847565b604051630748d63560e31b81526001600160a01b038581166004830152602482018590529190911690633a46b1a890604401602060405180830381865afa158015613c9b573d6000803e3d6000fd5b505050506040513d601f19601f82011682018060405250810190613a279190615cc1565b603380546001600160a01b038381166001600160a01b0319831681179093556040519116919082907f8be0079c531659141344cd1fd0a4f28419497f9722a3daafe3b4186f6b6457e090600090a35050565b620f42408160200151106040518060400160405280600d81526020016c494e56414c49445f56414c554560981b81525090613d5f5760405162461bcd60e51b8152600401610f269190615381565b50620f4240816040015111156040518060400160405280600d81526020016c494e56414c49445f56414c554560981b81525090613daf5760405162461bcd60e51b8152600401610f269190615381565b5060008160600151116040518060400160405280600d81526020016c494e56414c49445f56414c554560981b815250906113e25760405162461bcd60e51b8152600401610f269190615381565b613e0581613d11565b805160cc5560208082015160cd5560408083015160ce5560608084015160cf55608084015160d05560a08401805151600080805260d186527efa5413e7b01fc543d01f0911de573ace463b956369df4472f39030e8d98b7791909155815190940151600185527fb41c81a20ee1317ccb9b438d7e5d59d66d5a6ec10e50c28bfec0bae0f14bf52755805190920151600284527f32ea06fcf2721a86a5d9ed09fff93f12af8d61fae22ffe196961f9320ec53d3f559051015160039091527f507fbfbc4604457cf48784aed8fcaf8ef1e156d984c943cc8583366a2705be5e5560c0015160d255565b60606000613a2783614855565b6000613a27836001600160a01b0384166148b0565b6000613a27836001600160a01b0384166149a3565b600054610100900460ff16613f4b5760405162461bcd60e51b8152600401610f2690615e8c565b6119606149f2565b600054610100900460ff16613f7a5760405162461bcd60e51b8152600401610f2690615e8c565b611960614a22565b600054610100900460ff16613fa95760405162461bcd60e51b8152600401610f2690615e8c565b611960614a49565b6000613fbd8383615ed7565b613fca620f424086615ed7565b1015949350505050565b6000613fde611847565b6040516309ab24eb60e41b81526001600160a01b0384811660048301529190911690639ab24eb09060240161304e565b600060cb6000815461401f90615d5d565b919050819055905060405180606001604052808681526020016040518060c00160405280854361404f9190615e1a565b81526020018661405f8743615e1a565b6140699190615e1a565b8152602001600081526020016000815260200160008152602001600060068111156140965761409661502d565b905281526020908101869052600083815260c98252604090208251805180519293919284926140c9928492910190614d2f565b5060208281015180516140e29260018501920190614d94565b50604082015180516140fe916002840191602090910190614dcf565b50606082015181600301556080820151816004015560a082015181600501555050602082015181600601600082015181600001556020820151816001015560408201518160020155606082015181600301556080820151816004015560a08201518160050160006101000a81548160ff021916908360068111156141845761418461502d565b0217905550505060408201518051600c83018054909190829060ff191660018360038111156141b5576141b561502d565b0217905550602082015160018201906141ce9082615bd9565b50604082015160028201906141e39082615bd9565b5050509050506141f281614a7c565b7f8fd94d78543f5e6b57da702ca98bdb467625b6c4a8d80ea80d5ab4a4ce302b3881868660405161422593929190615eee565b60405180910390a1949350505050565b804710156142855760405162461bcd60e51b815260206004820152601d60248201527f416464726573733a20696e73756666696369656e742062616c616e63650000006044820152606401610f26565b6000826001600160a01b03168260405160006040518083038185875af1925050503d80600081146142d2576040519150601f19603f3d011682016040523d82523d6000602084013e6142d7565b606091505b50509050806117105760405162461bcd60e51b815260206004820152603a60248201527f416464726573733a20756e61626c6520746f2073656e642076616c75652c207260448201527f6563697069656e74206d617920686176652072657665727465640000000000006064820152608401610f26565b6060612bf2848484604051806060016040528060298152602001615f3660299139614aae565b600081815260c960209081526040808320815181546101409481028201850190935261012081018381529093919284926060840192859284928491908701828280156143e957602002820191906000526020600020905b81546001600160a01b031681526001909101906020018083116143cb575b505050505081526020016001820180548060200260200160405190810160405280929190818152602001828054801561444157602002820191906000526020600020905b81548152602001906001019080831161442d575b5050505050815260200160028201805480602002602001604051908101604052809291908181526020016000905b8282101561451b57838290600052602060002001805461448e90615b34565b80601f01602080910402602001604051908101604052809291908181526020018280546144ba90615b34565b80156145075780601f106144dc57610100808354040283529160200191614507565b820191906000526020600020905b8154815290600101906020018083116144ea57829003601f168201915b50505050508152602001906001019061446f565b50505050815260200160038201548152602001600482015481526020016005820154815250508152602001600682016040518060c001604052908160008201548152602001600182015481526020016002820154815260200160038201548152602001600482015481526020016005820160009054906101000a900460ff1660068111156145ab576145ab61502d565b60068111156145bc576145bc61502d565b90525081526040805160608101909152600c83018054602090930192829060ff1660038111156145ee576145ee61502d565b60038111156145ff576145ff61502d565b815260200160018201805461461390615b34565b80601f016020809104026020016040519081016040528092919081815260200182805461463f90615b34565b801561468c5780601f106146615761010080835404028352916020019161468c565b820191906000526020600020905b81548152906001019060200180831161466f57829003601f168201915b505050505081526020016002820180546146a590615b34565b80601f01602080910402602001604051908101604052809291908181526020018280546146d190615b34565b801561471e5780601f106146f35761010080835404028352916020019161471e565b820191906000526020600020905b81548152906001019060200180831161470157829003601f168201915b50505050508152505081525050905060006147476001836020015160000151610fbc9190615cae565b905060008260200151608001518360200151606001516147679190615e1a565b905060006147758284615cae565b905061478a8284866000015160600151613fb1565b614795575050505050565b6147b9818560200151606001516147ac9190615e1a565b8551608001518590614b89565b15806147db57506147db84602001516060015184866000015160800151613fb1565b1561128c5750505060009182525060c96020526040902043600790910155565b604080516001600160a01b0385811660248301528416604482015260648082018490528251808303909101815260849091019091526020810180516001600160e01b03166323b872dd60e01b1790526139fc908590614bab565b60608160000180548060200260200160405190810160405280929190818152602001828054801561150157602002820191906000526020600020905b8154815260200190600101908083116148915750505050509050919050565b600081815260018301602052604081205480156149995760006148d4600183615cae565b85549091506000906148e890600190615cae565b905081811461494d57600086600001828154811061490857614908615d47565b906000526020600020015490508087600001848154811061492b5761492b615d47565b6000918252602080832090910192909255918252600188019052604090208390555b855486908061495e5761495e615e04565b600190038181906000526020600020016000905590558560010160008681526020019081526020016000206000905560019350505050610fc1565b6000915050610fc1565b60008181526001830160205260408120546149ea57508154600181810184556000848152602080822090930184905584548482528286019093526040902091909155610fc1565b506000610fc1565b600054610100900460ff16614a195760405162461bcd60e51b8152600401610f2690615e8c565b61196033613cbf565b600054610100900460ff16613a025760405162461bcd60e51b8152600401610f2690615e8c565b600054610100900460ff16614a705760405162461bcd60e51b8152600401610f2690615e8c565b6097805460ff19169055565b61010454604051630ffb246960e21b8152600481018390526001600160a01b0390911690633fec91a49060240161125e565b606082471015614b0f5760405162461bcd60e51b815260206004820152602660248201527f416464726573733a20696e73756666696369656e742062616c616e636520666f6044820152651c8818d85b1b60d21b6064820152608401610f26565b600080866001600160a01b03168587604051614b2b9190615f19565b60006040518083038185875af1925050503d8060008114614b68576040519150601f19603f3d011682016040523d82523d6000602084013e614b6d565b606091505b5091509150614b7e87838387614c7d565b979650505050505050565b6000614b958383615ed7565b614ba2620f424086615ed7565b11949350505050565b6000614c00826040518060400160405280602081526020017f5361666545524332303a206c6f772d6c6576656c2063616c6c206661696c6564815250856001600160a01b0316614cf69092919063ffffffff16565b8051909150156117105780806020019051810190614c1e9190615cda565b6117105760405162461bcd60e51b815260206004820152602a60248201527f5361666545524332303a204552433230206f7065726174696f6e20646964206e6044820152691bdd081cdd58d8d9595960b21b6064820152608401610f26565b60608315614cec578251600003614ce5576001600160a01b0385163b614ce55760405162461bcd60e51b815260206004820152601d60248201527f416464726573733a2063616c6c20746f206e6f6e2d636f6e74726163740000006044820152606401610f26565b5081612bf2565b612bf28383614d05565b6060612bf28484600085614aae565b815115614d155781518083602001fd5b8060405162461bcd60e51b8152600401610f269190615381565b828054828255906000526020600020908101928215614d84579160200282015b82811115614d8457825182546001600160a01b0319166001600160a01b03909116178255602090920191600190910190614d4f565b50614d90929150614e21565b5090565b828054828255906000526020600020908101928215614d84579160200282015b82811115614d84578251825591602001919060010190614db4565b828054828255906000526020600020908101928215614e15579160200282015b82811115614e155782518290614e059082615bd9565b5091602001919060010190614def565b50614d90929150614e36565b5b80821115614d905760008155600101614e22565b80821115614d90576000614e4a8282614e53565b50600101614e36565b508054614e5f90615b34565b6000825580601f10614e6f575050565b601f0160209004906000526020600020908101906119a09190614e21565b600060208284031215614e9f57600080fd5b5035919050565b600081518084526020808501945080840160005b83811015614ed657815187529582019590820190600101614eba565b509495945050505050565b60005b83811015614efc578181015183820152602001614ee4565b50506000910152565b60008151808452614f1d816020860160208601614ee1565b601f01601f19169290920160200192915050565b600082825180855260208086019550808260051b84010181860160005b84811015614f7c57601f19868403018952614f6a838351614f05565b98840198925090830190600101614f4e565b5090979650505050505050565b805160c080845281519084018190526000916020919082019060e0860190845b81811015614fce5783516001600160a01b031683529284019291840191600101614fa9565b505082850151915085810383870152614fe78183614ea6565b92505050604083015184820360408601526150028282614f31565b915050606083015160608501526080830151608085015260a083015160a08501528091505092915050565b634e487b7160e01b600052602160045260246000fd5b600781106150535761505361502d565b9052565b600481106150535761505361502d565b615072828251615057565b600060208201516060602085015261508d6060850182614f05565b9050604083015184820360408601526150a68282614f05565b95945050505050565b60006101008083526150c381840187614f89565b905084516020840152602085015160408401526040850151606084015260608501516080840152608085015160a084015260a085015161510660c0850182615043565b5082810360e08401526151198185615067565b9695505050505050565b634e487b7160e01b600052604160045260246000fd5b60405160e081016001600160401b038111828210171561515b5761515b615123565b60405290565b604051608081016001600160401b038111828210171561515b5761515b615123565b60405160a081016001600160401b038111828210171561515b5761515b615123565b60405160c081016001600160401b038111828210171561515b5761515b615123565b604051601f8201601f191681016001600160401b03811182821017156151ef576151ef615123565b604052919050565b60006001600160401b0383111561521057615210615123565b615223601f8401601f19166020016151c7565b905082815283838301111561523757600080fd5b828260208301376000602084830101529392505050565b600082601f83011261525f57600080fd5b613a27838335602085016151f7565b60008060008060008060c0878903121561528757600080fd5b86359550602087013594506040870135935060608701356001600160401b03808211156152b357600080fd5b6152bf8a838b0161524e565b945060808901359150808211156152d557600080fd5b6152e18a838b0161524e565b935060a08901359150808211156152f757600080fd5b5061530489828a0161524e565b9150509295509295509295565b6001600160a01b03811681146119a057600080fd5b60006020828403121561533857600080fd5b8135613a2781615311565b80151581146119a057600080fd5b6000806040838503121561536457600080fd5b82359150602083013561537681615343565b809150509250929050565b602081526000613a276020830184614f05565b600381106119a057600080fd5b6000602082840312156153b357600080fd5b8135613a2781615394565b6020808252825182820181905260009190848201906040850190845b818110156153ff5783516001600160a01b0316835292840192918401916001016153da565b50909695505050505050565b6000806040838503121561541e57600080fd5b823561542981615394565b946020939093013593505050565b60008060006060848603121561544c57600080fd5b833561545781615311565b925060208401359150604084013561546e81615311565b809150509250925092565b85815284602082015260a06040820152600061549860a0830186614f05565b82810360608401526154aa8186614f05565b9150508260808301529695505050505050565b600080604083850312156154d057600080fd5b823561542981615311565b600381106119a0576119a061502d565b604081016154f8846154db565b9281526020015290565b6020810161550f836154db565b91905290565b6000610140828403121561552857600080fd5b615530615139565b905081358152602080830135818301526040830135604083015260608301356060830152608083013560808301528360bf84011261556d57600080fd5b615575615161565b8061012085018681111561558857600080fd5b60a086015b818110156155a4578035845292840192840161558d565b508160a0860152803560c08601525050505092915050565b600061014082840312156155cf57600080fd5b613a278383615515565b60006001600160401b038211156155f2576155f2615123565b5060051b60200190565b600082601f83011261560d57600080fd5b8135602061562261561d836155d9565b6151c7565b82815260059290921b8401810191818101908684111561564157600080fd5b8286015b8481101561566557803561565881615311565b8352918301918301615645565b509695505050505050565b6000806000610180848603121561568657600080fd5b6156908585615515565b92506101408401356001600160401b03808211156156ad57600080fd5b6156b9878388016155fc565b93506101608601359150808211156156d057600080fd5b506156dd868287016155fc565b9150509250925092565b803560048110610fd557600080fd5b60006020828403121561570857600080fd5b613a27826156e7565b60008060006060848603121561572657600080fd5b833561573181615311565b925060208401359150604084013561546e81615343565b6000806040838503121561575b57600080fd5b823561576681615311565b9150602083013561537681615394565b60006020828403121561578857600080fd5b81356001600160401b038082111561579f57600080fd5b9083019060a082860312156157b357600080fd5b6157bb615183565b82358152602083013560208201526040830135828111156157db57600080fd5b6157e78782860161524e565b6040830152506060830135828111156157ff57600080fd5b61580b8782860161524e565b6060830152506080830135608082015280935050505092915050565b60208101610fc18284615043565b600082601f83011261584657600080fd5b8135602061585661561d836155d9565b82815260059290921b8401810191818101908684111561587557600080fd5b8286015b848110156156655780358352918301918301615879565b600082601f8301126158a157600080fd5b813560206158b161561d836155d9565b82815260059290921b840181019181810190868411156158d057600080fd5b8286015b848110156156655780356001600160401b038111156158f35760008081fd5b8701603f810189136159055760008081fd5b6159168986830135604084016151f7565b8452509183019183016158d4565b60006060828403121561593657600080fd5b604051606081016001600160401b03828210818311171561595957615959615123565b81604052829350615969856156e7565b8352602085013591508082111561597f57600080fd5b61598b8683870161524e565b602084015260408501359150808211156159a457600080fd5b506159b18582860161524e565b6040830152505092915050565b600080600080608085870312156159d457600080fd5b84356159df81615311565b93506020850135925060408501356001600160401b0380821115615a0257600080fd5b9086019060c08289031215615a1657600080fd5b615a1e6151a5565b823582811115615a2d57600080fd5b615a398a8286016155fc565b825250602083013582811115615a4e57600080fd5b615a5a8a828601615835565b602083015250604083013582811115615a7257600080fd5b615a7e8a828601615890565b604083015250606083013560608201526080830135608082015260a083013560a0820152809450506060870135915080821115615aba57600080fd5b50615ac787828801615924565b91505092959194509250565b60008060006101808486031215615ae957600080fd5b8335615af481615311565b925060208401356001600160401b03811115615b0f57600080fd5b615b1b8682870161524e565b925050615b2b8560408601615515565b90509250925092565b600181811c90821680615b4857607f821691505b602082108103615b6857634e487b7160e01b600052602260045260246000fd5b50919050565b600060208284031215615b8057600080fd5b8151613a2781615311565b601f82111561171057600081815260208120601f850160051c81016020861015615bb25750805b601f850160051c820191505b81811015615bd157828155600101615bbe565b505050505050565b81516001600160401b03811115615bf257615bf2615123565b615c0681615c008454615b34565b84615b8b565b602080601f831160018114615c3b5760008415615c235750858301515b600019600386901b1c1916600185901b178555615bd1565b600085815260208120601f198616915b82811015615c6a57888601518255948401946001909101908401615c4b565b5085821015615c885787850151600019600388901b60f8161c191681555b5050505050600190811b01905550565b634e487b7160e01b600052601160045260246000fd5b81810381811115610fc157610fc1615c98565b600060208284031215615cd357600080fd5b5051919050565b600060208284031215615cec57600080fd5b8151613a2781615343565b6001600160a01b038581168252841660208201526040810183905260806060820181905260009061511990830184614f05565b600060208284031215615d3c57600080fd5b8151613a2781615394565b634e487b7160e01b600052603260045260246000fd5b600060018201615d6f57615d6f615c98565b5060010190565b60006020808385031215615d8957600080fd5b82516001600160401b03811115615d9f57600080fd5b8301601f81018513615db057600080fd5b8051615dbe61561d826155d9565b81815260059190911b82018301908381019087831115615ddd57600080fd5b928401925b82841015614b7e578351615df581615311565b82529284019290840190615de2565b634e487b7160e01b600052603160045260246000fd5b80820180821115610fc157610fc1615c98565b60018060a01b0385168152836020820152608060408201526000615e546080830185614f89565b8281036060840152614b7e8185615067565b615e708185615057565b8260208201526060604082015260006150a66060830184614f05565b6020808252602b908201527f496e697469616c697a61626c653a20636f6e7472616374206973206e6f74206960408201526a6e697469616c697a696e6760a81b606082015260800190565b8082028115828204841417610fc157610fc1615c98565b838152606060208201526000615f076060830185614f89565b82810360408401526151198185615067565b60008251615f2b818460208701614ee1565b919091019291505056fe416464726573733a206c6f772d6c6576656c2063616c6c20776974682076616c7565206661696c6564a2646970667358221220f6c62e7eb5aa7512e7bcec8abef412693c8382387c11da93734e4390eb514eba64736f6c63430008110033",
  "devdoc": {
    "details": "There can be an unlimited number of such contracts, including for one company owner. The contract can be in three states: 1) the company was created by the administrator, a record of it is stored in the Registry, but the contract has not yet been deployed and does not have an owner (buyer)  2) the contract is deployed, the company has an owner, but there is not yet a successful (softcap primary TGE), in this state its owner has the exclusive right to recreate the TGE in case of their failure (only one TGE can be launched at the same time)  3) the primary TGE ended successfully, softcap is assembled - the company has received the status of DAO.  The owner no longer has any exclusive rights, all the actions of the company are carried out through the creation and execution of propousals after voting. In this status, the contract is also a treasury - it stores the company's values in the form of ETH and/or ERC20 tokens.The \"Pool owner\" status is temporary and is assigned to the address that has successfully purchased a company and in which there has not been a single successful TGE Governance Token. The current owner's address of the company can be obtained by referring to the owner method of the Pool contract. If the isDAO method of the same contract returns \"true\", then this status does not grant any privileges or exclusive rights and has more of a historical and reference nature. As long as the pool is not considered a DAO, the address which is having this status can interact with such methods: - TGEFactory.sol:createPrimaryTGE(address poolAddress, IToken.TokenInfo memory tokenInfo, ITGE.TGEInfo memory tgeInfo, string memory metadataURI, IGovernanceSettings.NewGovernanceSettings memory governanceSettings_, address[] memory addSecretary, address[] memory addExecutor) - this method allows you to create a Governance Token compatible with ERC20, with a full set of standard settings, launch a primary TGE for it by deploying the corresponding contract, and also fully configure Governance using the NewGovernanceSettings structure and arrays of addSecretary and addExecutor addresses. The rules set for Governance will become relevant immediately after the successful completion of this primary TGE. - Pool.sol:transferByOwner(address to, uint256 amount, address unitOfAccount) - this method allows you to withdraw ETH or any ERC20 token from the pool contract to any address specified by the owner Moreover, while in this status, the pool owner, who has not yet become a DAO, can create invoices without restrictions using the Invoice:createInvoice(address pool, InvoiceCore memory core) method. In case of a primary TGE failure, the company owner continues to use their unique status, which means they can recreate the token, TGE, and set new Governance settings within a single transaction.",
    "kind": "dev",
    "methods": {
      "availableVotesForProposal(uint256)": {
        "details": "Returns the available votes for a proposal at the current block.",
        "params": {
          "proposalId": "The ID of the proposal."
        },
        "returns": {
          "_0": "The available votes for the proposal."
        }
      },
      "castVote(uint256,bool)": {
        "details": "This method calls the _castVote function defined in the Governor.sol contract.Since proposals in the CompanyDAO protocol can be prematurely finalized, after each successful invocation of this method, a check is performed for the occurrence of such conditions.",
        "params": {
          "proposalId": "Pool proposal ID",
          "support": "\"True\" for voting \"for\", \"False\" for voting \"against\""
        }
      },
      "constructor": {
        "custom:oz-upgrades-unsafe-allow": "constructor"
      },
      "executeProposal(uint256)": {
        "details": "For this method to work, the following conditions must be met: - The transaction sender must be a valid executor (more details in the isValidExecutor function) - The proposal must have the \"Awaiting Execution\" status.",
        "params": {
          "proposalId": "Proposal ID"
        }
      },
      "getBallot(address,uint256)": {
        "details": "This method is used to work with the voting history and returns the vote code according to the Ballot type made by the specified account in the specified proposal. Additionally, using the pastVotes snapshots, it provides information about the number of votes this account had during the specified voting.",
        "params": {
          "account": "Account address.",
          "proposalId": "Proposal identifier."
        },
        "returns": {
          "ballot": "Vote type.",
          "votes": "Number of votes cast."
        }
      },
      "getGovernanceToken()": {
        "details": "Returns the governance token associated with the pool.",
        "returns": {
          "_0": "The governance token address."
        }
      },
      "getPoolExecutor()": {
        "details": "Returns the list of pool executors.",
        "returns": {
          "_0": "The array of pool executor addresses."
        }
      },
      "getPoolSecretary()": {
        "details": "Returns the list of pool secretaries.",
        "returns": {
          "_0": "The array of pool secretary addresses."
        }
      },
      "getTokens(uint8)": {
        "details": "Returns the list of tokens associated with the pool based on the token type.",
        "params": {
          "tokenType": "The type of tokens to retrieve."
        },
        "returns": {
          "_0": "The array of token addresses."
        }
      },
      "initialize((uint256,uint256,string,string,uint256))": {
        "details": "Initialization of a new pool and placement of user settings and data (including legal ones) in it",
        "params": {
          "companyInfo_": "Legal company data"
        }
      },
      "isDAO()": {
        "details": "Checks if the pool has achieved DAO status. A pool achieves DAO status if it has a valid governance token and the primary TGE was successful.",
        "returns": {
          "_0": "isDao True if the pool is a DAO, false otherwise."
        }
      },
      "isLastProposalIdByTypeActive(uint256)": {
        "details": "Checks if the last proposal of a specific type is active.",
        "params": {
          "type_": "The type of proposal."
        },
        "returns": {
          "_0": "True if the last proposal of the given type is active, false otherwise."
        }
      },
      "isPoolExecutor(address)": {
        "details": "Checks if an address is a pool executor.",
        "params": {
          "account": "The address to check."
        },
        "returns": {
          "_0": "True if the address is a pool executor, false otherwise."
        }
      },
      "isPoolSecretary(address)": {
        "details": "Checks if an address is a pool secretary.",
        "params": {
          "account": "The address to check."
        },
        "returns": {
          "_0": "True if the address is a pool secretary, false otherwise."
        }
      },
      "isValidExecutor(address)": {
        "details": "Checks if an address is a valid executor for executing ballot proposals.",
        "params": {
          "account": "The address to check."
        },
        "returns": {
          "_0": "True if the address is a valid executor, false otherwise."
        }
      },
      "isValidProposer(address)": {
        "details": "Checks if an address is a valid proposer for creating proposals.",
        "params": {
          "account": "The address to check."
        },
        "returns": {
          "_0": "True if the address is a valid proposer, false otherwise."
        }
      },
      "owner()": {
        "details": "Returns the owner of the pool.",
        "returns": {
          "_0": "The address of the pool owner."
        }
      },
      "paused()": {
        "details": "Return pool paused status",
        "returns": {
          "_0": "Is pool paused"
        }
      },
      "proposalState(uint256)": {
        "details": "Among the Governance Settings, there is a parameter called votingDuration, which contains the number of blocks for the duration of the vote, and a parameter called votingStartDelay, which contains the number of blocks for the delay of the vote's start relative to the block of the proposal's creation. The start and end blocks of the vote are placed in the Pool:proposals[proposalId] entry as vote.startBlock and vote.endBlock. vote.startBlock = block.number + votingStartDelay vote.endBlock = block.number + votingStartDelay + votingDuration The proposal status can be obtained from the Pool:proposalState(proposalId) method. It is formed by comparing the current block with the end block, as well as from proposals[proposalId].vote.executionState, which can store irreversible state flags \"Canceled\" or \"Executed\". This value is a numerical code for one of the proposal states, with all possible state types listed in Governor.sol:ProposalState. Before the endBlock occurs, the proposal has an Active status, but the ability to vote (using the castVote method in the Pool contract) only appears from the startBlock. This status means that the QuorumThreshold and/or DecisionThreshold have not yet been reached, and there is still a sufficient number of unused votes, the application of which can lead to either of the two results. When the endBlock occurs, the proposal is no longer Active. New votes are not accepted, and the state changes to: - Failed if the QuorumThreshold and/or DecisionThreshold were not met by the voters - Delayed if both thresholds were met. The Failed state is irreversible and means that the decision \"for\" was not made, i.e., the transactions prescribed by the proposal cannot be executed. The Delayed state means that the necessary number of votes has been cast \"for\" the proposal, but the transactions prescribed by the proposal can be executed only after proposals[proposalId].core.executionDelay blocks have passed. The AwaitingExecution state means that the necessary number of votes has been cast \"for\" the proposal, the delay has ended, and the transactions prescribed by the proposal can be executed right now. The Canceled state means that the address assigned the ADMIN role in the Service contract used the cancelProposal method of the Service contract and canceled the execution of the proposal. This method could work only if the proposal had an Active, Delayed, or AwaitingExecution state at the time of cancellation. This state is irreversible; the proposal permanently loses the ability to accept votes, and its transactions will not be executed. The Executed state means that the address assigned the SERVICE_MANAGER role in the Service contract, or the address assigned the Executor role in the Pool contract, or any address if no address was assigned the Executor role in the pool, used the executeProposal method in the Pool contract. This state means that all transactions prescribed by the proposal have been successfully executed.",
        "params": {
          "proposalId": " Proposal."
        },
        "returns": {
          "_0": "The state code using the ProposalState type."
        }
      },
      "propose(address,uint256,(address[],uint256[],bytes[],uint256,uint256,uint256),(uint8,string,string))": {
        "details": "Creating a proposal and assigning it a unique identifier to store in the list of proposals in the Governor contract.",
        "params": {
          "core": "Proposal core data",
          "meta": "Proposal meta data"
        }
      },
      "renounceOwnership()": {
        "details": "Leaves the contract without owner. It will not be possible to call `onlyOwner` functions anymore. Can only be called by the current owner. NOTE: Renouncing ownership will leave the contract without an owner, thereby removing any functionality that is only available to the owner."
      },
      "setCompanyInfo(uint256,uint256,uint256,string,string,string)": {
        "details": "This method is executed as part of the internal transaction in the setCompanyInfoForPool method of the Registry contract",
        "params": {
          "_OAuri": "Operating Agreement URL",
          "_dateOfIncorporation": "Date of incorporation of the company",
          "_ein": "Government registration number of the company",
          "_entityType": "Digital code of the organization type",
          "_jurisdiction": "Digital code of the jurisdiction"
        }
      },
      "setGovernanceSettings((uint256,uint256,uint256,uint256,uint256,uint256[4],uint256))": {
        "params": {
          "settings": "New governance settings"
        }
      },
      "setNewOwnerWithSettings(address,string,(uint256,uint256,uint256,uint256,uint256,uint256[4],uint256))": {
        "details": "This is executed only during a successful execution of purchasePool in the Service contract. The address that is mentioned in the 'newowner' field of the transaction calldata becomes the pool owner.An internal pool role, relevant from the moment of purchasing a company until the first successful TGE. The sole and unchangeable wallet possessing this role is the account that paid the fee for creating the company. Once the pool becomes a DAO, this role no longer has any exclusive powers. The appointment of the Owner's address is done within the call to Pool.sol:setNewOwnerWithSettings(address newowner, string memory trademark_, NewGovernanceSettings memory governanceSettings_), which occurs when a new owner purchases the company.",
        "params": {
          "governanceSettings_": "Governance settings (voting rules, etc.)",
          "newowner": "Address of the new contract owner account",
          "trademark_": "Company trademark"
        }
      },
      "setProposalIdToTGE(address)": {
        "details": "This method adds a record to the proposalIdToTGE mapping indicating that a TGE contract with the specified address was deployed as a result of executing the proposal with the lastExecutedProposalId identifier.",
        "params": {
          "tge": "TGE address"
        }
      },
      "setSettings((uint256,uint256,uint256,uint256,uint256,uint256[4],uint256),address[],address[])": {
        "details": "This method can be called in one of two cases: - The pool has attained DAO status, and a proposal including a transaction calling this method has been executed - The pool has not yet attained DAO status, and the pool owner initiates the initial TGE with new governance settings as arguments",
        "params": {
          "executor": "List of executor addresses",
          "governanceSettings_": "Governance settings",
          "secretary": "List of secretary addresses"
        }
      },
      "setToken(address,uint8)": {
        "details": "Adding a new entry about the deployed token contract to the list of tokens related to the pool.",
        "params": {
          "tokenType_": "Token type",
          "token_": "Token address"
        }
      },
      "tokenExists(address)": {
        "details": "Checks if a token exists in the pool.",
        "params": {
          "token": "The token to check."
        },
        "returns": {
          "_0": "True if the token exists, false otherwise."
        }
      },
      "transferByOwner(address,uint256,address)": {
        "details": "This method can only be called by the pool owner and only during the period before the pool becomes a DAO.",
        "params": {
          "amount": "The transfer amount",
          "to": "The recipient's address",
          "unitOfAccount": "The unit of account (token contract address or address(0) for ETH)"
        }
      },
      "transferOwnership(address)": {
        "details": "Transfers ownership of the contract to a new account (`newOwner`). Can only be called by the current owner."
      },
      "validateGovernanceSettings((uint256,uint256,uint256,uint256,uint256,uint256[4],uint256))": {
        "details": "Validates the governance settings for creating proposals.",
        "params": {
          "settings": "The governance settings to validate."
        }
      }
    },
    "stateVariables": {
      "OAurl": {
        "details": "Operating Agreement Url"
      },
      "companyInfo": {
        "details": "When a buyer acquires a company, its record disappears from the Registry contract, but before that, the company's legal data is copied to this variable."
      },
      "lastExecutedProposalId": {
        "details": "Identifier of the last executed proposal"
      },
      "lastProposalIdForAddress": {
        "details": "last proposal id for address. This method returns the proposal Id for the last proposal created by the specified address."
      },
      "poolExecutor": {
        "details": "Pool Executor is an internal pool role with responsibilities that include executing proposals that have ended with a \"for\" decision in voting and have completed their time in the delayed state."
      },
      "poolSecretary": {
        "details": "Pool secretary is an internal pool role with responsibilities that include working with invoices and creating proposals. This role serves to give authority, similar to a shareholder, to an account that does not have Governance Tokens (e.g., a hired employee)."
      },
      "proposalCreatedAt": {
        "details": "Mapping that stores the blocks of proposal creation for this pool. The main information about the proposal is stored in variables provided by the Governor.sol contract, which is inherited by this contract."
      },
      "proposalIdToTGE": {
        "details": "Mapping that stores the addresses of TGE contracts that have been deployed as part of proposal execution, using the identifiers of those proposals as keys."
      },
      "tokenTypeByAddress": {
        "details": "Mapping that stores information about the type of each token. The mapping key is the address of the token contract, and the value is the digital code of the token type."
      },
      "tokens": {
        "details": "Mapping for Governance Token. There can be only one valid Governance token."
      },
      "tokensFullList": {
        "details": "A list of tokens belonging to this pool. There can be only one valid Governance token and several Preference tokens with different settings. The mapping key is the token type (token type encoding is specified in the IToken.sol interface). The value is an array of token identifiers."
      },
      "trademark": {
        "details": "The company's trade mark, label, brand name. It also acts as the Name of all the Governance tokens created for this pool."
      }
    },
    "title": "Pool Contract",
    "version": 1
  },
  "userdoc": {
    "events": {
      "GovernanceSettingsSet(uint256,uint256,uint256,uint256,uint256,uint256[4],uint256)": {
        "notice": "This event emitted only when the following values (governance settings) are set for a particular pool"
      }
    },
    "kind": "user",
    "methods": {
      "ballots(address,uint256)": {
        "notice": "Mapping with the voting history."
      },
      "castVote(uint256,bool)": {
        "notice": "Method for voting \"for\" or \"against\" a given proposal"
      },
      "decisionThreshold()": {
        "notice": "The minimum amount of votes which are needed to approve the proposal, given as a percentage of all participating votes"
      },
      "executeProposal(uint256)": {
        "notice": "This method is used to initiate the execution of a proposal."
      },
      "executionDelays(uint8)": {
        "notice": "Returns transaction execution delay values for different proposal types"
      },
      "proposalState(uint256)": {
        "notice": "This method returns the state of the specified proposal."
      },
      "proposalThreshold()": {
        "notice": "The minimum amount of votes required to create a proposal"
      },
      "quorumThreshold()": {
        "notice": "The minimum amount of votes which need to participate in the proposal in order for the proposal to be considered valid, given as a percentage of all existing votes"
      },
      "setCompanyInfo(uint256,uint256,uint256,string,string,string)": {
        "notice": "Setting legal data for the corresponding company pool"
      },
      "setGovernanceSettings((uint256,uint256,uint256,uint256,uint256,uint256[4],uint256))": {
        "notice": "Updates governance settings"
      },
      "setNewOwnerWithSettings(address,string,(uint256,uint256,uint256,uint256,uint256,uint256[4],uint256))": {
        "notice": "Actions after purchasing a pool (including ownership transfer and governance settings)"
      },
      "setSettings((uint256,uint256,uint256,uint256,uint256,uint256[4],uint256),address[],address[])": {
        "notice": "Changing the governance settings of the pool as a result of voting or the owner's initial pool setup"
      },
      "transferByOwner(address,uint256,address)": {
        "notice": "Transfers funds from the pool's account to a specified address."
      },
      "transferValueForDelay()": {
        "notice": "The threshold value for a transaction which triggers the transaction execution delay"
      },
      "votingDuration()": {
        "notice": "The amount of time for which the proposal will remain active, given as the number of blocks which have elapsed since the creation of the proposal"
      },
      "votingStartDelay()": {
        "notice": "Delay before voting starts. In blocks"
      }
    },
    "notice": "These contracts are instances of on-chain implementations of user companies. The shareholders of the companies work with them, their addresses are used in the Registry contract as tags that allow obtaining additional legal information (before the purchase of the company by the client). They store legal data (after the purchase of the company by the client). Among other things, the contract is also the owner of the Token and TGE contracts.",
    "version": 1
  },
  "storageLayout": {
    "storage": [
      {
        "astId": 1184,
        "contract": "contracts/Pool.sol:Pool",
        "label": "_initialized",
        "offset": 0,
        "slot": "0",
        "type": "t_uint8"
      },
      {
        "astId": 1187,
        "contract": "contracts/Pool.sol:Pool",
        "label": "_initializing",
        "offset": 1,
        "slot": "0",
        "type": "t_bool"
      },
      {
        "astId": 5915,
        "contract": "contracts/Pool.sol:Pool",
        "label": "__gap",
        "offset": 0,
        "slot": "1",
        "type": "t_array(t_uint256)50_storage"
      },
      {
        "astId": 589,
        "contract": "contracts/Pool.sol:Pool",
        "label": "_owner",
        "offset": 0,
        "slot": "51",
        "type": "t_address"
      },
      {
        "astId": 709,
        "contract": "contracts/Pool.sol:Pool",
        "label": "__gap",
        "offset": 0,
        "slot": "52",
        "type": "t_array(t_uint256)49_storage"
      },
      {
        "astId": 1623,
        "contract": "contracts/Pool.sol:Pool",
        "label": "_status",
        "offset": 0,
        "slot": "101",
        "type": "t_uint256"
      },
      {
        "astId": 1681,
        "contract": "contracts/Pool.sol:Pool",
        "label": "__gap",
        "offset": 0,
        "slot": "102",
        "type": "t_array(t_uint256)49_storage"
      },
      {
        "astId": 1503,
        "contract": "contracts/Pool.sol:Pool",
        "label": "_paused",
        "offset": 0,
        "slot": "151",
        "type": "t_bool"
      },
      {
        "astId": 1608,
        "contract": "contracts/Pool.sol:Pool",
        "label": "__gap",
        "offset": 0,
        "slot": "152",
        "type": "t_array(t_uint256)49_storage"
      },
      {
        "astId": 26644,
        "contract": "contracts/Pool.sol:Pool",
        "label": "proposals",
        "offset": 0,
        "slot": "201",
        "type": "t_mapping(t_uint256,t_struct(Proposal)26638_storage)"
      },
      {
        "astId": 26656,
        "contract": "contracts/Pool.sol:Pool",
        "label": "ballots",
        "offset": 0,
        "slot": "202",
        "type": "t_mapping(t_address,t_mapping(t_uint256,t_enum(Ballot)26648))"
      },
      {
        "astId": 26659,
        "contract": "contracts/Pool.sol:Pool",
        "label": "lastProposalId",
        "offset": 0,
        "slot": "203",
        "type": "t_uint256"
      },
      {
        "astId": 26387,
        "contract": "contracts/Pool.sol:Pool",
        "label": "proposalThreshold",
        "offset": 0,
        "slot": "204",
        "type": "t_uint256"
      },
      {
        "astId": 26390,
        "contract": "contracts/Pool.sol:Pool",
        "label": "quorumThreshold",
        "offset": 0,
        "slot": "205",
        "type": "t_uint256"
      },
      {
        "astId": 26393,
        "contract": "contracts/Pool.sol:Pool",
        "label": "decisionThreshold",
        "offset": 0,
        "slot": "206",
        "type": "t_uint256"
      },
      {
        "astId": 26396,
        "contract": "contracts/Pool.sol:Pool",
        "label": "votingDuration",
        "offset": 0,
        "slot": "207",
        "type": "t_uint256"
      },
      {
        "astId": 26399,
        "contract": "contracts/Pool.sol:Pool",
        "label": "transferValueForDelay",
        "offset": 0,
        "slot": "208",
        "type": "t_uint256"
      },
      {
        "astId": 26405,
        "contract": "contracts/Pool.sol:Pool",
        "label": "executionDelays",
        "offset": 0,
        "slot": "209",
        "type": "t_mapping(t_enum(EventType)28840,t_uint256)"
      },
      {
        "astId": 26408,
        "contract": "contracts/Pool.sol:Pool",
        "label": "votingStartDelay",
        "offset": 0,
        "slot": "210",
        "type": "t_uint256"
      },
      {
        "astId": 26413,
        "contract": "contracts/Pool.sol:Pool",
        "label": "__gap",
        "offset": 0,
        "slot": "211",
        "type": "t_array(t_uint256)49_storage"
      },
      {
        "astId": 27377,
        "contract": "contracts/Pool.sol:Pool",
        "label": "service",
        "offset": 0,
        "slot": "260",
        "type": "t_contract(IService)27899"
      },
      {
        "astId": 27382,
        "contract": "contracts/Pool.sol:Pool",
        "label": "lastProposalIdByType",
        "offset": 0,
        "slot": "261",
        "type": "t_mapping(t_uint256,t_uint256)"
      },
      {
        "astId": 27391,
        "contract": "contracts/Pool.sol:Pool",
        "label": "__gap",
        "offset": 0,
        "slot": "262",
        "type": "t_array(t_uint256)49_storage"
      },
      {
        "astId": 15035,
        "contract": "contracts/Pool.sol:Pool",
        "label": "trademark",
        "offset": 0,
        "slot": "311",
        "type": "t_string_storage"
      },
      {
        "astId": 15039,
        "contract": "contracts/Pool.sol:Pool",
        "label": "companyInfo",
        "offset": 0,
        "slot": "312",
        "type": "t_struct(CompanyInfo)28810_storage"
      },
      {
        "astId": 15045,
        "contract": "contracts/Pool.sol:Pool",
        "label": "tokens",
        "offset": 0,
        "slot": "317",
        "type": "t_mapping(t_enum(TokenType)28233,t_address)"
      },
      {
        "astId": 15050,
        "contract": "contracts/Pool.sol:Pool",
        "label": "lastProposalIdForAddress",
        "offset": 0,
        "slot": "318",
        "type": "t_mapping(t_address,t_uint256)"
      },
      {
        "astId": 15055,
        "contract": "contracts/Pool.sol:Pool",
        "label": "proposalCreatedAt",
        "offset": 0,
        "slot": "319",
        "type": "t_mapping(t_uint256,t_uint256)"
      },
      {
        "astId": 15062,
        "contract": "contracts/Pool.sol:Pool",
        "label": "tokensFullList",
        "offset": 0,
        "slot": "320",
        "type": "t_mapping(t_enum(TokenType)28233,t_array(t_address)dyn_storage)"
      },
      {
        "astId": 15068,
        "contract": "contracts/Pool.sol:Pool",
        "label": "tokenTypeByAddress",
        "offset": 0,
        "slot": "321",
        "type": "t_mapping(t_address,t_enum(TokenType)28233)"
      },
      {
        "astId": 15072,
        "contract": "contracts/Pool.sol:Pool",
        "label": "poolSecretary",
        "offset": 0,
        "slot": "322",
        "type": "t_struct(AddressSet)9605_storage"
      },
      {
        "astId": 15075,
        "contract": "contracts/Pool.sol:Pool",
        "label": "lastExecutedProposalId",
        "offset": 0,
        "slot": "324",
        "type": "t_uint256"
      },
      {
        "astId": 15080,
        "contract": "contracts/Pool.sol:Pool",
        "label": "proposalIdToTGE",
        "offset": 0,
        "slot": "325",
        "type": "t_mapping(t_uint256,t_address)"
      },
      {
        "astId": 15084,
        "contract": "contracts/Pool.sol:Pool",
        "label": "poolExecutor",
        "offset": 0,
        "slot": "326",
        "type": "t_struct(AddressSet)9605_storage"
      },
      {
        "astId": 15087,
        "contract": "contracts/Pool.sol:Pool",
        "label": "OAurl",
        "offset": 0,
        "slot": "328",
        "type": "t_string_storage"
      }
    ],
    "types": {
      "t_address": {
        "encoding": "inplace",
        "label": "address",
        "numberOfBytes": "20"
      },
      "t_array(t_address)dyn_storage": {
        "base": "t_address",
        "encoding": "dynamic_array",
        "label": "address[]",
        "numberOfBytes": "32"
      },
      "t_array(t_bytes32)dyn_storage": {
        "base": "t_bytes32",
        "encoding": "dynamic_array",
        "label": "bytes32[]",
        "numberOfBytes": "32"
      },
      "t_array(t_bytes_storage)dyn_storage": {
        "base": "t_bytes_storage",
        "encoding": "dynamic_array",
        "label": "bytes[]",
        "numberOfBytes": "32"
      },
      "t_array(t_uint256)49_storage": {
        "base": "t_uint256",
        "encoding": "inplace",
        "label": "uint256[49]",
        "numberOfBytes": "1568"
      },
      "t_array(t_uint256)50_storage": {
        "base": "t_uint256",
        "encoding": "inplace",
        "label": "uint256[50]",
        "numberOfBytes": "1600"
      },
      "t_array(t_uint256)dyn_storage": {
        "base": "t_uint256",
        "encoding": "dynamic_array",
        "label": "uint256[]",
        "numberOfBytes": "32"
      },
      "t_bool": {
        "encoding": "inplace",
        "label": "bool",
        "numberOfBytes": "1"
      },
      "t_bytes32": {
        "encoding": "inplace",
        "label": "bytes32",
        "numberOfBytes": "32"
      },
      "t_bytes_storage": {
        "encoding": "bytes",
        "label": "bytes",
        "numberOfBytes": "32"
      },
      "t_contract(IService)27899": {
        "encoding": "inplace",
        "label": "contract IService",
        "numberOfBytes": "20"
      },
      "t_enum(Ballot)26648": {
        "encoding": "inplace",
        "label": "enum Governor.Ballot",
        "numberOfBytes": "1"
      },
      "t_enum(EventType)28840": {
        "encoding": "inplace",
        "label": "enum IRecordsRegistry.EventType",
        "numberOfBytes": "1"
      },
      "t_enum(ProposalState)26614": {
        "encoding": "inplace",
        "label": "enum Governor.ProposalState",
        "numberOfBytes": "1"
      },
      "t_enum(TokenType)28233": {
        "encoding": "inplace",
        "label": "enum IToken.TokenType",
        "numberOfBytes": "1"
      },
      "t_mapping(t_address,t_enum(TokenType)28233)": {
        "encoding": "mapping",
        "key": "t_address",
        "label": "mapping(address => enum IToken.TokenType)",
        "numberOfBytes": "32",
        "value": "t_enum(TokenType)28233"
      },
      "t_mapping(t_address,t_mapping(t_uint256,t_enum(Ballot)26648))": {
        "encoding": "mapping",
        "key": "t_address",
        "label": "mapping(address => mapping(uint256 => enum Governor.Ballot))",
        "numberOfBytes": "32",
        "value": "t_mapping(t_uint256,t_enum(Ballot)26648)"
      },
      "t_mapping(t_address,t_uint256)": {
        "encoding": "mapping",
        "key": "t_address",
        "label": "mapping(address => uint256)",
        "numberOfBytes": "32",
        "value": "t_uint256"
      },
      "t_mapping(t_bytes32,t_uint256)": {
        "encoding": "mapping",
        "key": "t_bytes32",
        "label": "mapping(bytes32 => uint256)",
        "numberOfBytes": "32",
        "value": "t_uint256"
      },
      "t_mapping(t_enum(EventType)28840,t_uint256)": {
        "encoding": "mapping",
        "key": "t_enum(EventType)28840",
        "label": "mapping(enum IRecordsRegistry.EventType => uint256)",
        "numberOfBytes": "32",
        "value": "t_uint256"
      },
      "t_mapping(t_enum(TokenType)28233,t_address)": {
        "encoding": "mapping",
        "key": "t_enum(TokenType)28233",
        "label": "mapping(enum IToken.TokenType => address)",
        "numberOfBytes": "32",
        "value": "t_address"
      },
      "t_mapping(t_enum(TokenType)28233,t_array(t_address)dyn_storage)": {
        "encoding": "mapping",
        "key": "t_enum(TokenType)28233",
        "label": "mapping(enum IToken.TokenType => address[])",
        "numberOfBytes": "32",
        "value": "t_array(t_address)dyn_storage"
      },
      "t_mapping(t_uint256,t_address)": {
        "encoding": "mapping",
        "key": "t_uint256",
        "label": "mapping(uint256 => address)",
        "numberOfBytes": "32",
        "value": "t_address"
      },
      "t_mapping(t_uint256,t_enum(Ballot)26648)": {
        "encoding": "mapping",
        "key": "t_uint256",
        "label": "mapping(uint256 => enum Governor.Ballot)",
        "numberOfBytes": "32",
        "value": "t_enum(Ballot)26648"
      },
      "t_mapping(t_uint256,t_struct(Proposal)26638_storage)": {
        "encoding": "mapping",
        "key": "t_uint256",
        "label": "mapping(uint256 => struct Governor.Proposal)",
        "numberOfBytes": "32",
        "value": "t_struct(Proposal)26638_storage"
      },
      "t_mapping(t_uint256,t_uint256)": {
        "encoding": "mapping",
        "key": "t_uint256",
        "label": "mapping(uint256 => uint256)",
        "numberOfBytes": "32",
        "value": "t_uint256"
      },
      "t_string_storage": {
        "encoding": "bytes",
        "label": "string",
        "numberOfBytes": "32"
      },
      "t_struct(AddressSet)9605_storage": {
        "encoding": "inplace",
        "label": "struct EnumerableSetUpgradeable.AddressSet",
        "members": [
          {
            "astId": 9604,
            "contract": "contracts/Pool.sol:Pool",
            "label": "_inner",
            "offset": 0,
            "slot": "0",
            "type": "t_struct(Set)9290_storage"
          }
        ],
        "numberOfBytes": "64"
      },
      "t_struct(CompanyInfo)28810_storage": {
        "encoding": "inplace",
        "label": "struct ICompaniesRegistry.CompanyInfo",
        "members": [
          {
            "astId": 28801,
            "contract": "contracts/Pool.sol:Pool",
            "label": "jurisdiction",
            "offset": 0,
            "slot": "0",
            "type": "t_uint256"
          },
          {
            "astId": 28803,
            "contract": "contracts/Pool.sol:Pool",
            "label": "entityType",
            "offset": 0,
            "slot": "1",
            "type": "t_uint256"
          },
          {
            "astId": 28805,
            "contract": "contracts/Pool.sol:Pool",
            "label": "ein",
            "offset": 0,
            "slot": "2",
            "type": "t_string_storage"
          },
          {
            "astId": 28807,
            "contract": "contracts/Pool.sol:Pool",
            "label": "dateOfIncorporation",
            "offset": 0,
            "slot": "3",
            "type": "t_string_storage"
          },
          {
            "astId": 28809,
            "contract": "contracts/Pool.sol:Pool",
            "label": "fee",
            "offset": 0,
            "slot": "4",
            "type": "t_uint256"
          }
        ],
        "numberOfBytes": "160"
      },
      "t_struct(Proposal)26638_storage": {
        "encoding": "inplace",
        "label": "struct Governor.Proposal",
        "members": [
          {
            "astId": 26631,
            "contract": "contracts/Pool.sol:Pool",
            "label": "core",
            "offset": 0,
            "slot": "0",
            "type": "t_struct(ProposalCoreData)28769_storage"
          },
          {
            "astId": 26634,
            "contract": "contracts/Pool.sol:Pool",
            "label": "vote",
            "offset": 0,
            "slot": "6",
            "type": "t_struct(ProposalVotingData)26628_storage"
          },
          {
            "astId": 26637,
            "contract": "contracts/Pool.sol:Pool",
            "label": "meta",
            "offset": 0,
            "slot": "12",
            "type": "t_struct(ProposalMetaData)28777_storage"
          }
        ],
        "numberOfBytes": "480"
      },
      "t_struct(ProposalCoreData)28769_storage": {
        "encoding": "inplace",
        "label": "struct IGovernor.ProposalCoreData",
        "members": [
          {
            "astId": 28756,
            "contract": "contracts/Pool.sol:Pool",
            "label": "targets",
            "offset": 0,
            "slot": "0",
            "type": "t_array(t_address)dyn_storage"
          },
          {
            "astId": 28759,
            "contract": "contracts/Pool.sol:Pool",
            "label": "values",
            "offset": 0,
            "slot": "1",
            "type": "t_array(t_uint256)dyn_storage"
          },
          {
            "astId": 28762,
            "contract": "contracts/Pool.sol:Pool",
            "label": "callDatas",
            "offset": 0,
            "slot": "2",
            "type": "t_array(t_bytes_storage)dyn_storage"
          },
          {
            "astId": 28764,
            "contract": "contracts/Pool.sol:Pool",
            "label": "quorumThreshold",
            "offset": 0,
            "slot": "3",
            "type": "t_uint256"
          },
          {
            "astId": 28766,
            "contract": "contracts/Pool.sol:Pool",
            "label": "decisionThreshold",
            "offset": 0,
            "slot": "4",
            "type": "t_uint256"
          },
          {
            "astId": 28768,
            "contract": "contracts/Pool.sol:Pool",
            "label": "executionDelay",
            "offset": 0,
            "slot": "5",
            "type": "t_uint256"
          }
        ],
        "numberOfBytes": "192"
      },
      "t_struct(ProposalMetaData)28777_storage": {
        "encoding": "inplace",
        "label": "struct IGovernor.ProposalMetaData",
        "members": [
          {
            "astId": 28772,
            "contract": "contracts/Pool.sol:Pool",
            "label": "proposalType",
            "offset": 0,
            "slot": "0",
            "type": "t_enum(EventType)28840"
          },
          {
            "astId": 28774,
            "contract": "contracts/Pool.sol:Pool",
            "label": "description",
            "offset": 0,
            "slot": "1",
            "type": "t_string_storage"
          },
          {
            "astId": 28776,
            "contract": "contracts/Pool.sol:Pool",
            "label": "metaHash",
            "offset": 0,
            "slot": "2",
            "type": "t_string_storage"
          }
        ],
        "numberOfBytes": "96"
      },
      "t_struct(ProposalVotingData)26628_storage": {
        "encoding": "inplace",
        "label": "struct Governor.ProposalVotingData",
        "members": [
          {
            "astId": 26616,
            "contract": "contracts/Pool.sol:Pool",
            "label": "startBlock",
            "offset": 0,
            "slot": "0",
            "type": "t_uint256"
          },
          {
            "astId": 26618,
            "contract": "contracts/Pool.sol:Pool",
            "label": "endBlock",
            "offset": 0,
            "slot": "1",
            "type": "t_uint256"
          },
          {
            "astId": 26620,
            "contract": "contracts/Pool.sol:Pool",
            "label": "availableVotes",
            "offset": 0,
            "slot": "2",
            "type": "t_uint256"
          },
          {
            "astId": 26622,
            "contract": "contracts/Pool.sol:Pool",
            "label": "forVotes",
            "offset": 0,
            "slot": "3",
            "type": "t_uint256"
          },
          {
            "astId": 26624,
            "contract": "contracts/Pool.sol:Pool",
            "label": "againstVotes",
            "offset": 0,
            "slot": "4",
            "type": "t_uint256"
          },
          {
            "astId": 26627,
            "contract": "contracts/Pool.sol:Pool",
            "label": "executionState",
            "offset": 0,
            "slot": "5",
            "type": "t_enum(ProposalState)26614"
          }
        ],
        "numberOfBytes": "192"
      },
      "t_struct(Set)9290_storage": {
        "encoding": "inplace",
        "label": "struct EnumerableSetUpgradeable.Set",
        "members": [
          {
            "astId": 9285,
            "contract": "contracts/Pool.sol:Pool",
            "label": "_values",
            "offset": 0,
            "slot": "0",
            "type": "t_array(t_bytes32)dyn_storage"
          },
          {
            "astId": 9289,
            "contract": "contracts/Pool.sol:Pool",
            "label": "_indexes",
            "offset": 0,
            "slot": "1",
            "type": "t_mapping(t_bytes32,t_uint256)"
          }
        ],
        "numberOfBytes": "64"
      },
      "t_uint256": {
        "encoding": "inplace",
        "label": "uint256",
        "numberOfBytes": "32"
      },
      "t_uint8": {
        "encoding": "inplace",
        "label": "uint8",
        "numberOfBytes": "1"
      }
    }
  }
}