{
  "address": "0x9098D80dF21dCc892F0383fc28300e5eFaC95023",
  "abi": [
    {
      "inputs": [],
      "stateMutability": "nonpayable",
      "type": "constructor"
    },
    {
      "anonymous": false,
      "inputs": [
        {
          "indexed": false,
          "internalType": "address",
          "name": "proxy",
          "type": "address"
        }
      ],
      "name": "CustomPropsalChanged",
      "type": "event"
    },
    {
      "anonymous": false,
      "inputs": [
        {
          "indexed": false,
          "internalType": "address",
          "name": "to",
          "type": "address"
        },
        {
          "indexed": false,
          "internalType": "uint256",
          "name": "amount",
          "type": "uint256"
        }
      ],
      "name": "FeesTransferred",
      "type": "event"
    },
    {
      "anonymous": false,
      "inputs": [
        {
          "indexed": false,
          "internalType": "uint8",
          "name": "version",
          "type": "uint8"
        }
      ],
      "name": "Initialized",
      "type": "event"
    },
    {
      "anonymous": false,
      "inputs": [
        {
          "indexed": false,
          "internalType": "address",
          "name": "proxy",
          "type": "address"
        }
      ],
      "name": "InvoiceChanged",
      "type": "event"
    },
    {
      "anonymous": false,
      "inputs": [
        {
          "indexed": false,
          "internalType": "address",
          "name": "account",
          "type": "address"
        }
      ],
      "name": "Paused",
      "type": "event"
    },
    {
      "anonymous": false,
      "inputs": [
        {
          "indexed": false,
          "internalType": "address",
          "name": "beacon",
          "type": "address"
        }
      ],
      "name": "PoolBeaconChanged",
      "type": "event"
    },
    {
      "anonymous": false,
      "inputs": [
        {
          "indexed": false,
          "internalType": "address",
          "name": "pool",
          "type": "address"
        },
        {
          "indexed": false,
          "internalType": "address",
          "name": "token",
          "type": "address"
        },
        {
          "indexed": false,
          "internalType": "address",
          "name": "tge",
          "type": "address"
        }
      ],
      "name": "PoolCreated",
      "type": "event"
    },
    {
      "anonymous": false,
      "inputs": [
        {
          "indexed": false,
          "internalType": "address",
          "name": "pool",
          "type": "address"
        },
        {
          "indexed": false,
          "internalType": "address",
          "name": "token",
          "type": "address"
        },
        {
          "indexed": false,
          "internalType": "address",
          "name": "tge",
          "type": "address"
        }
      ],
      "name": "PoolPurchased",
      "type": "event"
    },
    {
      "anonymous": false,
      "inputs": [
        {
          "indexed": false,
          "internalType": "address",
          "name": "pool",
          "type": "address"
        },
        {
          "indexed": false,
          "internalType": "uint256",
          "name": "proposalId",
          "type": "uint256"
        }
      ],
      "name": "ProposalCancelled",
      "type": "event"
    },
    {
      "anonymous": false,
      "inputs": [
        {
          "indexed": false,
          "internalType": "uint256",
          "name": "protocolTokenFee",
          "type": "uint256"
        }
      ],
      "name": "ProtocolTokenFeeChanged",
      "type": "event"
    },
    {
      "anonymous": false,
      "inputs": [
        {
          "indexed": false,
          "internalType": "address",
          "name": "protocolTreasury",
          "type": "address"
        }
      ],
      "name": "ProtocolTreasuryChanged",
      "type": "event"
    },
    {
      "anonymous": false,
      "inputs": [
        {
          "indexed": false,
          "internalType": "address",
          "name": "proxy",
          "type": "address"
        }
      ],
      "name": "RegistryChanged",
      "type": "event"
    },
    {
      "anonymous": false,
      "inputs": [
        {
          "indexed": true,
          "internalType": "bytes32",
          "name": "role",
          "type": "bytes32"
        },
        {
          "indexed": true,
          "internalType": "bytes32",
          "name": "previousAdminRole",
          "type": "bytes32"
        },
        {
          "indexed": true,
          "internalType": "bytes32",
          "name": "newAdminRole",
          "type": "bytes32"
        }
      ],
      "name": "RoleAdminChanged",
      "type": "event"
    },
    {
      "anonymous": false,
      "inputs": [
        {
          "indexed": true,
          "internalType": "bytes32",
          "name": "role",
          "type": "bytes32"
        },
        {
          "indexed": true,
          "internalType": "address",
          "name": "account",
          "type": "address"
        },
        {
          "indexed": true,
          "internalType": "address",
          "name": "sender",
          "type": "address"
        }
      ],
      "name": "RoleGranted",
      "type": "event"
    },
    {
      "anonymous": false,
      "inputs": [
        {
          "indexed": true,
          "internalType": "bytes32",
          "name": "role",
          "type": "bytes32"
        },
        {
          "indexed": true,
          "internalType": "address",
          "name": "account",
          "type": "address"
        },
        {
          "indexed": true,
          "internalType": "address",
          "name": "sender",
          "type": "address"
        }
      ],
      "name": "RoleRevoked",
      "type": "event"
    },
    {
      "anonymous": false,
      "inputs": [
        {
          "indexed": false,
          "internalType": "address",
          "name": "beacon",
          "type": "address"
        }
      ],
      "name": "TGEBeaconChanged",
      "type": "event"
    },
    {
      "anonymous": false,
      "inputs": [
        {
          "indexed": false,
          "internalType": "address",
          "name": "proxy",
          "type": "address"
        }
      ],
      "name": "TGEFactoryChanged",
      "type": "event"
    },
    {
      "anonymous": false,
      "inputs": [
        {
          "indexed": false,
          "internalType": "address",
          "name": "beacon",
          "type": "address"
        }
      ],
      "name": "TSEBeaconChanged",
      "type": "event"
    },
    {
      "anonymous": false,
      "inputs": [
        {
          "indexed": false,
          "internalType": "address",
          "name": "beacon",
          "type": "address"
        }
      ],
      "name": "TokenBeaconChanged",
      "type": "event"
    },
    {
      "anonymous": false,
      "inputs": [
        {
          "indexed": false,
          "internalType": "address",
          "name": "proxy",
          "type": "address"
        }
      ],
      "name": "TokenFactoryChanged",
      "type": "event"
    },
    {
      "anonymous": false,
      "inputs": [
        {
          "indexed": false,
          "internalType": "address",
          "name": "account",
          "type": "address"
        }
      ],
      "name": "Unpaused",
      "type": "event"
    },
    {
      "anonymous": false,
      "inputs": [
        {
          "indexed": false,
          "internalType": "address",
          "name": "proxy",
          "type": "address"
        }
      ],
      "name": "VestingChanged",
      "type": "event"
    },
    {
      "inputs": [],
      "name": "ADMIN_ROLE",
      "outputs": [
        {
          "internalType": "bytes32",
          "name": "",
          "type": "bytes32"
        }
      ],
      "stateMutability": "view",
      "type": "function"
    },
    {
      "inputs": [],
      "name": "DEFAULT_ADMIN_ROLE",
      "outputs": [
        {
          "internalType": "bytes32",
          "name": "",
          "type": "bytes32"
        }
      ],
      "stateMutability": "view",
      "type": "function"
    },
    {
      "inputs": [],
      "name": "EXECUTOR_ROLE",
      "outputs": [
        {
          "internalType": "bytes32",
          "name": "",
          "type": "bytes32"
        }
      ],
      "stateMutability": "view",
      "type": "function"
    },
    {
      "inputs": [],
      "name": "SERVICE_MANAGER_ROLE",
      "outputs": [
        {
          "internalType": "bytes32",
          "name": "",
          "type": "bytes32"
        }
      ],
      "stateMutability": "view",
      "type": "function"
    },
    {
      "inputs": [],
      "name": "WHITELISTED_USER_ROLE",
      "outputs": [
        {
          "internalType": "bytes32",
          "name": "",
          "type": "bytes32"
        }
      ],
      "stateMutability": "view",
      "type": "function"
    },
    {
      "inputs": [
        {
          "internalType": "enum IRecordsRegistry.EventType",
          "name": "eventType",
          "type": "uint8"
        },
        {
          "internalType": "uint256",
          "name": "proposalId",
          "type": "uint256"
        },
        {
          "internalType": "string",
          "name": "metaHash",
          "type": "string"
        }
      ],
      "name": "addEvent",
      "outputs": [],
      "stateMutability": "nonpayable",
      "type": "function"
    },
    {
      "inputs": [
        {
          "internalType": "address",
          "name": "pool",
          "type": "address"
        },
        {
          "internalType": "uint256",
          "name": "invoiceId",
          "type": "uint256"
        }
      ],
      "name": "addInvoiceEvent",
      "outputs": [
        {
          "internalType": "uint256",
          "name": "",
          "type": "uint256"
        }
      ],
      "stateMutability": "nonpayable",
      "type": "function"
    },
    {
      "inputs": [
        {
          "internalType": "uint256",
          "name": "proposalId",
          "type": "uint256"
        }
      ],
      "name": "addProposal",
      "outputs": [],
      "stateMutability": "nonpayable",
      "type": "function"
    },
    {
      "inputs": [
        {
          "components": [
            {
              "internalType": "uint256",
              "name": "jurisdiction",
              "type": "uint256"
            },
            {
              "internalType": "uint256",
              "name": "entityType",
              "type": "uint256"
            },
            {
              "internalType": "string",
              "name": "ein",
              "type": "string"
            },
            {
              "internalType": "string",
              "name": "dateOfIncorporation",
              "type": "string"
            },
            {
              "internalType": "uint256",
              "name": "fee",
              "type": "uint256"
            }
          ],
          "internalType": "struct ICompaniesRegistry.CompanyInfo",
          "name": "companyInfo",
          "type": "tuple"
        }
      ],
      "name": "createPool",
      "outputs": [
        {
          "internalType": "address",
          "name": "",
          "type": "address"
        }
      ],
      "stateMutability": "nonpayable",
      "type": "function"
    },
    {
      "inputs": [],
      "name": "customProposal",
      "outputs": [
        {
          "internalType": "contract ICustomProposal",
          "name": "",
          "type": "address"
        }
      ],
      "stateMutability": "view",
      "type": "function"
    },
    {
      "inputs": [
        {
          "internalType": "address",
          "name": "pool",
          "type": "address"
        },
        {
          "internalType": "uint256",
          "name": "proposalId",
          "type": "uint256"
        },
        {
          "internalType": "bool",
          "name": "support",
          "type": "bool"
        }
      ],
      "name": "externalCastVote",
      "outputs": [],
      "stateMutability": "nonpayable",
      "type": "function"
    },
    {
      "inputs": [
        {
          "internalType": "address",
          "name": "pool",
          "type": "address"
        },
        {
          "internalType": "address",
          "name": "to",
          "type": "address"
        },
        {
          "internalType": "uint256",
          "name": "amount",
          "type": "uint256"
        },
        {
          "internalType": "address",
          "name": "unitOfAccount",
          "type": "address"
        }
      ],
      "name": "externalTransferByOwner",
      "outputs": [],
      "stateMutability": "nonpayable",
      "type": "function"
    },
    {
      "inputs": [
        {
          "internalType": "address",
          "name": "_pool",
          "type": "address"
        }
      ],
      "name": "getMaxHardCap",
      "outputs": [
        {
          "internalType": "uint256",
          "name": "",
          "type": "uint256"
        }
      ],
      "stateMutability": "view",
      "type": "function"
    },
    {
      "inputs": [],
      "name": "getMinSoftCap",
      "outputs": [
        {
          "internalType": "uint256",
          "name": "",
          "type": "uint256"
        }
      ],
      "stateMutability": "view",
      "type": "function"
    },
    {
      "inputs": [
        {
          "internalType": "address",
          "name": "token_",
          "type": "address"
        }
      ],
      "name": "getProtocolCollectedFee",
      "outputs": [
        {
          "internalType": "uint256",
          "name": "",
          "type": "uint256"
        }
      ],
      "stateMutability": "view",
      "type": "function"
    },
    {
      "inputs": [
        {
          "internalType": "uint256",
          "name": "amount",
          "type": "uint256"
        }
      ],
      "name": "getProtocolTokenFee",
      "outputs": [
        {
          "internalType": "uint256",
          "name": "",
          "type": "uint256"
        }
      ],
      "stateMutability": "view",
      "type": "function"
    },
    {
      "inputs": [
        {
          "internalType": "bytes32",
          "name": "role",
          "type": "bytes32"
        }
      ],
      "name": "getRoleAdmin",
      "outputs": [
        {
          "internalType": "bytes32",
          "name": "",
          "type": "bytes32"
        }
      ],
      "stateMutability": "view",
      "type": "function"
    },
    {
      "inputs": [
        {
          "internalType": "bytes32",
          "name": "role",
          "type": "bytes32"
        },
        {
          "internalType": "uint256",
          "name": "index",
          "type": "uint256"
        }
      ],
      "name": "getRoleMember",
      "outputs": [
        {
          "internalType": "address",
          "name": "",
          "type": "address"
        }
      ],
      "stateMutability": "view",
      "type": "function"
    },
    {
      "inputs": [
        {
          "internalType": "bytes32",
          "name": "role",
          "type": "bytes32"
        }
      ],
      "name": "getRoleMemberCount",
      "outputs": [
        {
          "internalType": "uint256",
          "name": "",
          "type": "uint256"
        }
      ],
      "stateMutability": "view",
      "type": "function"
    },
    {
      "inputs": [],
      "name": "getTrustedForwarder",
      "outputs": [
        {
          "internalType": "address",
          "name": "",
          "type": "address"
        }
      ],
      "stateMutability": "view",
      "type": "function"
    },
    {
      "inputs": [
        {
          "internalType": "bytes32",
          "name": "role",
          "type": "bytes32"
        },
        {
          "internalType": "address",
          "name": "account",
          "type": "address"
        }
      ],
      "name": "grantRole",
      "outputs": [],
      "stateMutability": "nonpayable",
      "type": "function"
    },
    {
      "inputs": [
        {
          "internalType": "bytes32",
          "name": "role",
          "type": "bytes32"
        },
        {
          "internalType": "address",
          "name": "account",
          "type": "address"
        }
      ],
      "name": "hasRole",
      "outputs": [
        {
          "internalType": "bool",
          "name": "",
          "type": "bool"
        }
      ],
      "stateMutability": "view",
      "type": "function"
    },
    {
      "inputs": [],
      "name": "idRegistry",
      "outputs": [
        {
          "internalType": "address",
          "name": "",
          "type": "address"
        }
      ],
      "stateMutability": "view",
      "type": "function"
    },
    {
      "inputs": [
        {
          "internalType": "contract IRegistry",
          "name": "registry_",
          "type": "address"
        },
        {
          "internalType": "contract ICustomProposal",
          "name": "customProposal_",
          "type": "address"
        },
        {
          "internalType": "contract IVesting",
          "name": "vesting_",
          "type": "address"
        },
        {
          "internalType": "address",
          "name": "poolBeacon_",
          "type": "address"
        },
        {
          "internalType": "address",
          "name": "tokenBeacon_",
          "type": "address"
        },
        {
          "internalType": "address",
          "name": "tgeBeacon_",
          "type": "address"
        },
        {
          "internalType": "uint256",
          "name": "protocolTokenFee_",
          "type": "uint256"
        }
      ],
      "name": "initialize",
      "outputs": [],
      "stateMutability": "nonpayable",
      "type": "function"
    },
    {
      "inputs": [],
      "name": "invoice",
      "outputs": [
        {
          "internalType": "contract IInvoice",
          "name": "",
          "type": "address"
        }
      ],
      "stateMutability": "view",
      "type": "function"
    },
    {
      "inputs": [
        {
          "internalType": "address",
          "name": "forwarder",
          "type": "address"
        }
      ],
      "name": "isTrustedForwarder",
      "outputs": [
        {
          "internalType": "bool",
          "name": "",
          "type": "bool"
        }
      ],
      "stateMutability": "view",
      "type": "function"
    },
    {
      "inputs": [],
      "name": "pause",
      "outputs": [],
      "stateMutability": "nonpayable",
      "type": "function"
    },
    {
      "inputs": [],
      "name": "paused",
      "outputs": [
        {
          "internalType": "bool",
          "name": "",
          "type": "bool"
        }
      ],
      "stateMutability": "view",
      "type": "function"
    },
    {
      "inputs": [],
      "name": "poolBeacon",
      "outputs": [
        {
          "internalType": "address",
          "name": "",
          "type": "address"
        }
      ],
      "stateMutability": "view",
      "type": "function"
    },
    {
      "inputs": [],
      "name": "protocolTokenFee",
      "outputs": [
        {
          "internalType": "uint256",
          "name": "",
          "type": "uint256"
        }
      ],
      "stateMutability": "view",
      "type": "function"
    },
    {
      "inputs": [],
      "name": "protocolTreasury",
      "outputs": [
        {
          "internalType": "address",
          "name": "",
          "type": "address"
        }
      ],
      "stateMutability": "view",
      "type": "function"
    },
    {
      "inputs": [
        {
          "internalType": "address",
          "name": "",
          "type": "address"
        }
      ],
      "name": "protolCollectedFee",
      "outputs": [
        {
          "internalType": "uint256",
          "name": "",
          "type": "uint256"
        }
      ],
      "stateMutability": "view",
      "type": "function"
    },
    {
      "inputs": [
        {
          "internalType": "uint256",
          "name": "jurisdiction",
          "type": "uint256"
        },
        {
          "internalType": "uint256",
          "name": "entityType",
          "type": "uint256"
        },
        {
          "internalType": "string",
          "name": "trademark",
          "type": "string"
        },
        {
          "components": [
            {
              "internalType": "uint256",
              "name": "proposalThreshold",
              "type": "uint256"
            },
            {
              "internalType": "uint256",
              "name": "quorumThreshold",
              "type": "uint256"
            },
            {
              "internalType": "uint256",
              "name": "decisionThreshold",
              "type": "uint256"
            },
            {
              "internalType": "uint256",
              "name": "votingDuration",
              "type": "uint256"
            },
            {
              "internalType": "uint256",
              "name": "transferValueForDelay",
              "type": "uint256"
            },
            {
              "internalType": "uint256[4]",
              "name": "executionDelays",
              "type": "uint256[4]"
            },
            {
              "internalType": "uint256",
              "name": "votingStartDelay",
              "type": "uint256"
            }
          ],
          "internalType": "struct IGovernanceSettings.NewGovernanceSettings",
          "name": "governanceSettings",
          "type": "tuple"
        }
      ],
      "name": "purchasePool",
      "outputs": [],
      "stateMutability": "payable",
      "type": "function"
    },
    {
      "inputs": [],
      "name": "registry",
      "outputs": [
        {
          "internalType": "contract IRegistry",
          "name": "",
          "type": "address"
        }
      ],
      "stateMutability": "view",
      "type": "function"
    },
    {
      "inputs": [
        {
          "internalType": "bytes32",
          "name": "role",
          "type": "bytes32"
        },
        {
          "internalType": "address",
          "name": "account",
          "type": "address"
        }
      ],
      "name": "renounceRole",
      "outputs": [],
      "stateMutability": "nonpayable",
      "type": "function"
    },
    {
      "inputs": [
        {
          "internalType": "bytes32",
          "name": "role",
          "type": "bytes32"
        },
        {
          "internalType": "address",
          "name": "account",
          "type": "address"
        }
      ],
      "name": "revokeRole",
      "outputs": [],
      "stateMutability": "nonpayable",
      "type": "function"
    },
    {
      "inputs": [],
      "name": "serviceFee",
      "outputs": [
        {
          "internalType": "uint256",
          "name": "",
          "type": "uint256"
        }
      ],
      "stateMutability": "view",
      "type": "function"
    },
    {
      "inputs": [
        {
          "internalType": "contract ICustomProposal",
          "name": "_customProposal",
          "type": "address"
        }
      ],
      "name": "setCustomProposal",
      "outputs": [],
      "stateMutability": "nonpayable",
      "type": "function"
    },
    {
      "inputs": [
        {
          "internalType": "contract ITokenFactory",
          "name": "tokenFactory_",
          "type": "address"
        },
        {
          "internalType": "contract ITGEFactory",
          "name": "tgeFactory_",
          "type": "address"
        }
      ],
      "name": "setFactories",
      "outputs": [],
      "stateMutability": "nonpayable",
      "type": "function"
    },
    {
      "inputs": [
        {
          "internalType": "address",
          "name": "idRegistry_",
          "type": "address"
        }
      ],
      "name": "setIdRegistry",
      "outputs": [],
      "stateMutability": "nonpayable",
      "type": "function"
    },
    {
      "inputs": [
        {
          "internalType": "contract IInvoice",
          "name": "_invoice",
          "type": "address"
        }
      ],
      "name": "setInvoice",
      "outputs": [],
      "stateMutability": "nonpayable",
      "type": "function"
    },
    {
      "inputs": [
        {
          "internalType": "address",
          "name": "beacon",
          "type": "address"
        }
      ],
      "name": "setPoolBeacon",
      "outputs": [],
      "stateMutability": "nonpayable",
      "type": "function"
    },
    {
      "inputs": [
        {
          "internalType": "address",
          "name": "_token",
          "type": "address"
        },
        {
          "internalType": "uint256",
          "name": "_protocolTokenFee",
          "type": "uint256"
        }
      ],
      "name": "setProtocolCollectedFee",
      "outputs": [],
      "stateMutability": "nonpayable",
      "type": "function"
    },
    {
      "inputs": [
        {
          "internalType": "uint256",
          "name": "_protocolTokenFee",
          "type": "uint256"
        }
      ],
      "name": "setProtocolTokenFee",
      "outputs": [],
      "stateMutability": "nonpayable",
      "type": "function"
    },
    {
      "inputs": [
        {
          "internalType": "address",
          "name": "_protocolTreasury",
          "type": "address"
        }
      ],
      "name": "setProtocolTreasury",
      "outputs": [],
      "stateMutability": "nonpayable",
      "type": "function"
    },
    {
      "inputs": [
        {
          "internalType": "contract IRegistry",
          "name": "_registry",
          "type": "address"
        }
      ],
      "name": "setRegistry",
      "outputs": [],
      "stateMutability": "nonpayable",
      "type": "function"
    },
    {
      "inputs": [
        {
          "internalType": "uint256",
          "name": "_serviceFee",
          "type": "uint256"
        }
      ],
      "name": "setServiceFee",
      "outputs": [],
      "stateMutability": "nonpayable",
      "type": "function"
    },
    {
      "inputs": [
        {
          "internalType": "address",
          "name": "beacon",
          "type": "address"
        }
      ],
      "name": "setTGEBeacon",
      "outputs": [],
      "stateMutability": "nonpayable",
      "type": "function"
    },
    {
      "inputs": [
        {
          "internalType": "address",
          "name": "beacon",
          "type": "address"
        }
      ],
      "name": "setTSEBeacon",
      "outputs": [],
      "stateMutability": "nonpayable",
      "type": "function"
    },
    {
      "inputs": [
        {
          "internalType": "address",
          "name": "beacon",
          "type": "address"
        }
      ],
      "name": "setTokenBeacon",
      "outputs": [],
      "stateMutability": "nonpayable",
      "type": "function"
    },
    {
      "inputs": [
        {
          "internalType": "address",
          "name": "beacon",
          "type": "address"
        }
      ],
      "name": "setTokenERC1155Beacon",
      "outputs": [],
      "stateMutability": "nonpayable",
      "type": "function"
    },
    {
      "inputs": [
        {
          "internalType": "address",
          "name": "_trustedForwarder",
          "type": "address"
        }
      ],
      "name": "setTrustForwarder",
      "outputs": [],
      "stateMutability": "nonpayable",
      "type": "function"
    },
    {
      "inputs": [
        {
          "internalType": "contract IVesting",
          "name": "_vesting",
          "type": "address"
        }
      ],
      "name": "setVesting",
      "outputs": [],
      "stateMutability": "nonpayable",
      "type": "function"
    },
    {
      "inputs": [
        {
          "internalType": "bytes4",
          "name": "interfaceId",
          "type": "bytes4"
        }
      ],
      "name": "supportsInterface",
      "outputs": [
        {
          "internalType": "bool",
          "name": "",
          "type": "bool"
        }
      ],
      "stateMutability": "view",
      "type": "function"
    },
    {
      "inputs": [],
      "name": "tgeBeacon",
      "outputs": [
        {
          "internalType": "address",
          "name": "",
          "type": "address"
        }
      ],
      "stateMutability": "view",
      "type": "function"
    },
    {
      "inputs": [],
      "name": "tgeFactory",
      "outputs": [
        {
          "internalType": "contract ITGEFactory",
          "name": "",
          "type": "address"
        }
      ],
      "stateMutability": "view",
      "type": "function"
    },
    {
      "inputs": [],
      "name": "tokenBeacon",
      "outputs": [
        {
          "internalType": "address",
          "name": "",
          "type": "address"
        }
      ],
      "stateMutability": "view",
      "type": "function"
    },
    {
      "inputs": [],
      "name": "tokenERC1155Beacon",
      "outputs": [
        {
          "internalType": "address",
          "name": "",
          "type": "address"
        }
      ],
      "stateMutability": "view",
      "type": "function"
    },
    {
      "inputs": [],
      "name": "tokenFactory",
      "outputs": [
        {
          "internalType": "contract ITokenFactory",
          "name": "",
          "type": "address"
        }
      ],
      "stateMutability": "view",
      "type": "function"
    },
    {
      "inputs": [
        {
          "internalType": "address",
          "name": "to",
          "type": "address"
        }
      ],
      "name": "transferCollectedFees",
      "outputs": [],
      "stateMutability": "nonpayable",
      "type": "function"
    },
    {
      "inputs": [
        {
          "internalType": "address",
          "name": "newowner",
          "type": "address"
        },
        {
          "internalType": "uint256",
          "name": "jurisdiction",
          "type": "uint256"
        },
        {
          "internalType": "uint256",
          "name": "entityType",
          "type": "uint256"
        },
        {
          "internalType": "string",
          "name": "trademark",
          "type": "string"
        },
        {
          "components": [
            {
              "internalType": "uint256",
              "name": "proposalThreshold",
              "type": "uint256"
            },
            {
              "internalType": "uint256",
              "name": "quorumThreshold",
              "type": "uint256"
            },
            {
              "internalType": "uint256",
              "name": "decisionThreshold",
              "type": "uint256"
            },
            {
              "internalType": "uint256",
              "name": "votingDuration",
              "type": "uint256"
            },
            {
              "internalType": "uint256",
              "name": "transferValueForDelay",
              "type": "uint256"
            },
            {
              "internalType": "uint256[4]",
              "name": "executionDelays",
              "type": "uint256[4]"
            },
            {
              "internalType": "uint256",
              "name": "votingStartDelay",
              "type": "uint256"
            }
          ],
          "internalType": "struct IGovernanceSettings.NewGovernanceSettings",
          "name": "governanceSettings",
          "type": "tuple"
        }
      ],
      "name": "transferPurchasedPoolByService",
      "outputs": [],
      "stateMutability": "nonpayable",
      "type": "function"
    },
    {
      "inputs": [],
      "name": "trustedForwarder",
      "outputs": [
        {
          "internalType": "address",
          "name": "",
          "type": "address"
        }
      ],
      "stateMutability": "view",
      "type": "function"
    },
    {
      "inputs": [],
      "name": "tseBeacon",
      "outputs": [
        {
          "internalType": "address",
          "name": "",
          "type": "address"
        }
      ],
      "stateMutability": "view",
      "type": "function"
    },
    {
      "inputs": [],
      "name": "unpause",
      "outputs": [],
      "stateMutability": "nonpayable",
      "type": "function"
    },
    {
      "inputs": [
        {
          "components": [
            {
              "internalType": "uint256",
              "name": "price",
              "type": "uint256"
            },
            {
              "internalType": "uint256",
              "name": "hardcap",
              "type": "uint256"
            },
            {
              "internalType": "uint256",
              "name": "softcap",
              "type": "uint256"
            },
            {
              "internalType": "uint256",
              "name": "minPurchase",
              "type": "uint256"
            },
            {
              "internalType": "uint256",
              "name": "maxPurchase",
              "type": "uint256"
            },
            {
              "internalType": "uint256",
              "name": "duration",
              "type": "uint256"
            },
            {
              "components": [
                {
                  "internalType": "uint256",
                  "name": "vestedShare",
                  "type": "uint256"
                },
                {
                  "internalType": "uint256",
                  "name": "cliff",
                  "type": "uint256"
                },
                {
                  "internalType": "uint256",
                  "name": "cliffShare",
                  "type": "uint256"
                },
                {
                  "internalType": "uint256",
                  "name": "spans",
                  "type": "uint256"
                },
                {
                  "internalType": "uint256",
                  "name": "spanDuration",
                  "type": "uint256"
                },
                {
                  "internalType": "uint256",
                  "name": "spanShare",
                  "type": "uint256"
                },
                {
                  "internalType": "uint256",
                  "name": "claimTVL",
                  "type": "uint256"
                },
                {
                  "internalType": "address[]",
                  "name": "resolvers",
                  "type": "address[]"
                }
              ],
              "internalType": "struct IVesting.VestingParams",
              "name": "vestingParams",
              "type": "tuple"
            },
            {
              "internalType": "address[]",
              "name": "userWhitelist",
              "type": "address[]"
            },
            {
              "internalType": "uint256[]",
              "name": "userWhitelistMin",
              "type": "uint256[]"
            },
            {
              "internalType": "uint256[]",
              "name": "userWhitelistMax",
              "type": "uint256[]"
            },
            {
              "internalType": "address",
              "name": "unitOfAccount",
              "type": "address"
            },
            {
              "internalType": "uint256",
              "name": "lockupDuration",
              "type": "uint256"
            },
            {
              "internalType": "uint256",
              "name": "lockupTVL",
              "type": "uint256"
            },
            {
              "internalType": "address",
              "name": "whitelistAdmin",
              "type": "address"
            }
          ],
          "internalType": "struct ITGE.TGEInfo",
          "name": "info",
          "type": "tuple"
        },
        {
          "internalType": "uint256",
          "name": "cap",
          "type": "uint256"
        },
        {
          "internalType": "uint256",
          "name": "totalSupplyWithReserves",
          "type": "uint256"
        },
        {
          "internalType": "enum IToken.TokenType",
          "name": "tokenType",
          "type": "uint8"
        }
      ],
      "name": "validateTGEInfo",
      "outputs": [],
      "stateMutability": "view",
      "type": "function"
    },
    {
      "inputs": [],
      "name": "vesting",
      "outputs": [
        {
          "internalType": "contract IVesting",
          "name": "",
          "type": "address"
        }
      ],
      "stateMutability": "view",
      "type": "function"
    },
    {
      "stateMutability": "payable",
      "type": "receive"
    }
  ],
  "transactionHash": "0xf67104737110b749504c18e86a4ab8496c9ca9d9bb98b47d83c52777abe7be46",
  "args": [],
  "numDeployments": 3,
  "solcInputHash": "df8ebf49de524bbbcd8d84df6916dc34",
  "bytecode": "0x60806040523480156200001157600080fd5b506200001c62000022565b620000e4565b600054610100900460ff16156200008f5760405162461bcd60e51b815260206004820152602760248201527f496e697469616c697a61626c653a20636f6e747261637420697320696e697469604482015266616c697a696e6760c81b606482015260840160405180910390fd5b60005460ff9081161015620000e2576000805460ff191660ff9081179091556040519081527f7f26b83ff96e1f2b6a682f133852f6798a09c465da95921460cefb38474024989060200160405180910390a15b565b6155fc80620000f46000396000f3fe6080604052600436106200042f5760003560e01c8063879010f41162000227578063c5a7b2ea116200012f578063db47fbe911620000b9578063e77772fe1162000084578063e77772fe1462000d07578063f2388e7c1462000d2a578063f7f5e5a61462000d4f578063f8ee61eb1462000d74578063f9d75d231462000da657600080fd5b8063db47fbe91462000c6f578063ddf0b3da1462000ca5578063dedcd3071462000cca578063e76829281462000cef57600080fd5b8063ce1b815f11620000fa578063ce1b815f1462000bdf578063cf44d4a91462000c00578063d419f5471462000c25578063d547741f1462000c4a57600080fd5b8063c5a7b2ea1462000b3e578063c979e8a71462000b61578063ca15c8731462000b97578063ccf5a77c1462000bbc57600080fd5b80639ec007c511620001b1578063b02f98fe116200017c578063b02f98fe1462000aac578063b3b42f4b1462000ad1578063b677bc691462000af4578063c3a109921462000b1957600080fd5b80639ec007c51462000a3f578063a217fddf1462000843578063a36894711462000a62578063a91ee0dc1462000a8757600080fd5b806391d1485411620001f257806391d1485414620009ab57806395600de714620009d05780639aa4c2e514620009f55780639d838ad31462000a1a57600080fd5b8063879010f41462000925578063895ae279146200094a5780638abdf5aa146200096d5780639010d07c146200098657600080fd5b80633f9238141162000337578063672bb1cc11620002c15780637c060729116200028c5780637c060729146200087d5780637da0a87714620008a2578063803db96d14620008c55780638174946814620008e85780638456cb59146200090d57600080fd5b8063672bb1cc14620007f95780636f6ff3bc146200081e57806375b238fc14620008435780637b103999146200085a57600080fd5b80635a4c3ceb11620003025780635a4c3ceb146200075c5780635c975abb14620007815780635cdf76f814620007995780635f1b82f314620007be57600080fd5b80633f92381414620006ca5780633fec91a414620006ef57806344c63eec1462000714578063572b6c05146200073757600080fd5b8063102c5c0111620003b9578063283b11d01162000384578063283b11d014620006435780632f2ff15d146200066857806336568abe146200068d5780633f4ba83a14620006b257600080fd5b8063102c5c0114620005a45780631460e39014620005c75780631b089fdd14620005ec578063248a9ca3146200060f57600080fd5b80630aa13b8c11620003fa5780630aa13b8c14620005105780630c5a61f814620005335780630f33d4fd146200055a5780630f842e0c146200057f57600080fd5b806301569ab0146200043c57806301ffc9a7146200047c57806303700be814620004b257806307bd026514620004da57600080fd5b366200043757005b600080fd5b3480156200044957600080fd5b50610130546200045f906001600160a01b031681565b6040516001600160a01b0390911681526020015b60405180910390f35b3480156200048957600080fd5b50620004a16200049b36600462003d9a565b62000dbd565b604051901515815260200162000473565b348015620004bf57600080fd5b50620004cb6101325481565b60405190815260200162000473565b348015620004e757600080fd5b50620004cb7f9cf85f95575c3af1e116e3d37fd41e7f36a8a373623f51ffaaa87fdd032fa76781565b3480156200051d57600080fd5b5061013c546200045f906001600160a01b031681565b3480156200054057600080fd5b50620005586200055236600462003ddc565b62000deb565b005b3480156200056757600080fd5b50620005586200057936600462003ff0565b62000ea6565b3480156200058c57600080fd5b50620005586200059e36600462003ddc565b62001261565b348015620005b157600080fd5b50610138546200045f906001600160a01b031681565b348015620005d457600080fd5b5062000558620005e63660046200406d565b6200130c565b348015620005f957600080fd5b50610134546200045f906001600160a01b031681565b3480156200061c57600080fd5b50620004cb6200062e36600462004107565b60009081526065602052604090206001015490565b3480156200065057600080fd5b506200045f6200066236600462004121565b6200166e565b3480156200067557600080fd5b506200055862000687366004620041dd565b620017a6565b3480156200069a57600080fd5b5062000558620006ac366004620041dd565b620017d4565b348015620006bf57600080fd5b506200055862001868565b348015620006d757600080fd5b5062000558620006e936600462003ddc565b62001882565b348015620006fc57600080fd5b50620005586200070e36600462004107565b6200192d565b3480156200072157600080fd5b50610135546200045f906001600160a01b031681565b3480156200074457600080fd5b50620004a16200075636600462003ddc565b62001a79565b3480156200076957600080fd5b50620004cb6200077b36600462004210565b62001aaa565b3480156200078e57600080fd5b50620004a162001b98565b348015620007a657600080fd5b5062000558620007b836600462004107565b62001bac565b348015620007cb57600080fd5b50620004cb620007dd36600462003ddc565b6001600160a01b03166000908152610133602052604090205490565b3480156200080657600080fd5b5062000558620008183660046200423f565b62001c0c565b3480156200082b57600080fd5b50620005586200083d36600462003ddc565b62001ea5565b3480156200085057600080fd5b50620004cb600081565b3480156200086757600080fd5b5061012d546200045f906001600160a01b031681565b3480156200088a57600080fd5b50620005586200089c36600462003ddc565b62001f50565b348015620008af57600080fd5b5061013a546200045f906001600160a01b031681565b348015620008d257600080fd5b50610131546200045f906001600160a01b031681565b348015620008f557600080fd5b50620005586200090736600462003ddc565b62001ffb565b3480156200091a57600080fd5b50620005586200207a565b3480156200093257600080fd5b50620005586200094436600462003ddc565b62002091565b3480156200095757600080fd5b50610136546200045f906001600160a01b031681565b3480156200097a57600080fd5b50620004cb61013d5481565b3480156200099357600080fd5b506200045f620009a5366004620042af565b620021d9565b348015620009b857600080fd5b50620004a1620009ca366004620041dd565b620021f3565b348015620009dd57600080fd5b5062000558620009ef36600462003ddc565b6200221e565b34801562000a0257600080fd5b506200055862000a14366004620042d2565b620022c9565b34801562000a2757600080fd5b50620004cb62000a3936600462004107565b62002307565b34801562000a4c57600080fd5b5061013b546200045f906001600160a01b031681565b34801562000a6f57600080fd5b50620004cb62000a8136600462003ddc565b62002397565b34801562000a9457600080fd5b506200055862000aa636600462003ddc565b62002652565b34801562000ab957600080fd5b506200055862000acb36600462004210565b620026fd565b34801562000ade57600080fd5b50610139546200045f906001600160a01b031681565b34801562000b0157600080fd5b506200055862000b1336600462004305565b620027fa565b34801562000b2657600080fd5b506200055862000b38366004620043a6565b62002951565b34801562000b4b57600080fd5b5061012e546200045f906001600160a01b031681565b34801562000b6e57600080fd5b50620004cb7f2b1db18cd92cf6947e9bb2f532380e05e806a043d20a65c532268a1d7f4b5e7381565b34801562000ba457600080fd5b50620004cb62000bb636600462004107565b62002a98565b34801562000bc957600080fd5b5061012f546200045f906001600160a01b031681565b34801562000bec57600080fd5b5061013a546001600160a01b03166200045f565b34801562000c0d57600080fd5b506200055862000c1f36600462003ddc565b62002ab1565b34801562000c3257600080fd5b506200055862000c4436600462003ddc565b62002b30565b34801562000c5757600080fd5b506200055862000c69366004620041dd565b62002bdb565b34801562000c7c57600080fd5b50620004cb7fcdb004a2c4b58a687fd075d3ee33590a4807decba9bf65227a1ff25b56b056e981565b34801562000cb257600080fd5b506200055862000cc436600462003ddc565b62002c04565b34801562000cd757600080fd5b506200055862000ce936600462004107565b62002c83565b34801562000cfc57600080fd5b50620004cb62002d13565b34801562000d1457600080fd5b50610137546200045f906001600160a01b031681565b34801562000d3757600080fd5b506200055862000d49366004620043ed565b62002d55565b34801562000d5c57600080fd5b506200055862000d6e36600462003ddc565b62002e92565b34801562000d8157600080fd5b50620004cb62000d9336600462003ddc565b6101336020526000908152604090205481565b6200055862000db73660046200443c565b62002f3d565b60006001600160e01b03198216635a05180f60e01b148062000de5575062000de58262003280565b92915050565b600062000df881620032b7565b60408051808201909152600c81526b414444524553535f5a45524f60a01b60208201526001600160a01b03831662000e4e5760405162461bcd60e51b815260040162000e459190620044f8565b60405180910390fd5b5061013180546001600160a01b0319166001600160a01b0384169081179091556040519081527f48919a8bb9d5ad92fa352adb62046eaabb006b67ba2fcf7566ed0879ab5a27c3906020015b60405180910390a15050565b61012d546040805163e2938db560e01b815290516001600160a01b03909216916391d1485491839163e2938db5916004808201926020929091908290030181865afa15801562000efa573d6000803e3d6000fd5b505050506040513d601f19601f8201168201806040525081019062000f2091906200450d565b6040516001600160e01b031960e084901b1681526004810191909152336024820152604401602060405180830381865afa15801562000f63573d6000803e3d6000fd5b505050506040513d601f19601f8201168201806040525081019062000f89919062004527565b6040518060400160405280600c81526020016b24a72b20a624a22faaa9a2a960a11b8152509062000fcf5760405162461bcd60e51b815260040162000e459190620044f8565b5062000fda620032cc565b62000fe462003327565b61012d5460405163648bbcdf60e01b815260048101869052602481018590526000916001600160a01b03169063648bbcdf90604401602060405180830381865afa15801562001037573d6000803e3d6000fd5b505050506040513d601f19601f820116820180604052508101906200105d919062004547565b60405163fe90266760e01b81529091506001600160a01b0382169063fe902667906200109290899087908790600401620045d0565b600060405180830381600087803b158015620010ad57600080fd5b505af1158015620010c2573d6000803e3d6000fd5b5050604080516001600160a01b03851681526000602082018190528183015290517f4cb11cf112aa532bf5c3d8d07e17a2f5c1acdf658922233b7cf75206b66e55a29350908190036060019150a161012d54604051633b84067560e21b815260048101879052602481018690526001600160a01b039091169063ee1019d4906044016000604051808303816000875af115801562001164573d6000803e3d6000fd5b505050506040513d6000823e601f3d908101601f191682016040526200118e91908101906200465d565b5061012d546040516001600160a01b0390911690634dbb83fd9033903090600090630f33d4fd60e01b90620011d0908d908d908d908d908d9060240162004719565b60408051601f198184030181529181526020820180516001600160e01b03166001600160e01b03199485161790525160e087901b90921682526200121a9493929160040162004765565b600060405180830381600087803b1580156200123557600080fd5b505af11580156200124a573d6000803e3d6000fd5b50505050506200125a600160c955565b5050505050565b60006200126e81620032b7565b60408051808201909152600c81526b414444524553535f5a45524f60a01b60208201526001600160a01b038316620012bb5760405162461bcd60e51b815260040162000e459190620044f8565b5061013080546001600160a01b0319166001600160a01b0384169081179091556040519081527f0923fd3f39944bd6fbad587593b3fb3adf720832d17d32d946e0ddb9070467ee9060200162000e9a565b600054600290610100900460ff161580156200132f575060005460ff8083169116105b620013945760405162461bcd60e51b815260206004820152602e60248201527f496e697469616c697a61626c653a20636f6e747261637420697320616c72656160448201526d191e481a5b9a5d1a585b1a5e995960921b606482015260840162000e45565b6000805461ffff191660ff83161761010017905560408051808201909152600c81526b414444524553535f5a45524f60a01b60208201526001600160a01b038916620013f55760405162461bcd60e51b815260040162000e459190620044f8565b5060408051808201909152600c81526b414444524553535f5a45524f60a01b60208201526001600160a01b038616620014435760405162461bcd60e51b815260040162000e459190620044f8565b5060408051808201909152600c81526b414444524553535f5a45524f60a01b60208201526001600160a01b038516620014915760405162461bcd60e51b815260040162000e459190620044f8565b5060408051808201909152600c81526b414444524553535f5a45524f60a01b60208201526001600160a01b038416620014df5760405162461bcd60e51b815260040162000e459190620044f8565b50620014ea6200337c565b620014f4620033b0565b61012d80546001600160a01b03199081166001600160a01b038b8116919091179092556101358054821689841617905561012e8054821688841617905561012f8054821687841617905561013080548216868416179055610134805490911691891691909117905562001569600033620033e4565b620015957f2b1db18cd92cf6947e9bb2f532380e05e806a043d20a65c532268a1d7f4b5e7333620033e4565b620015c17f9cf85f95575c3af1e116e3d37fd41e7f36a8a373623f51ffaaa87fdd032fa76733620033e4565b6200160d7fcdb004a2c4b58a687fd075d3ee33590a4807decba9bf65227a1ff25b56b056e97f2b1db18cd92cf6947e9bb2f532380e05e806a043d20a65c532268a1d7f4b5e736200340a565b620016183062000deb565b620016238262002c83565b6000805461ff001916905560405160ff821681527f7f26b83ff96e1f2b6a682f133852f6798a09c465da95921460cefb38474024989060200160405180910390a15050505050505050565b61012d5460408051808201909152600c81526b4e4f545f524547495354525960a01b60208201526000916001600160a01b03163314620016c35760405162461bcd60e51b815260040162000e459190620044f8565b50620016ce620032cc565b620016d862003327565b6000620016e58362003455565b60405163ccf8846160e01b81529091506001600160a01b0382169063ccf8846190620017169086906004016200479a565b600060405180830381600087803b1580156200173157600080fd5b505af115801562001746573d6000803e3d6000fd5b5050604080516001600160a01b03851681526000602082018190528183015290517f9c5d829b9b23efc461f9aeef91979ec04bb903feb3bee4f26d22114abfc7335b9350908190036060019150a19050620017a1600160c955565b919050565b600082815260656020526040902060010154620017c381620032b7565b620017cf8383620033e4565b505050565b620017de620034fc565b6001600160a01b0316816001600160a01b031614620018585760405162461bcd60e51b815260206004820152602f60248201527f416363657373436f6e74726f6c3a2063616e206f6e6c792072656e6f756e636560448201526e103937b632b9903337b91039b2b63360891b606482015260840162000e45565b62001864828262003508565b5050565b60006200187581620032b7565b6200187f6200352e565b50565b60006200188f81620032b7565b60408051808201909152600c81526b414444524553535f5a45524f60a01b60208201526001600160a01b038316620018dc5760405162461bcd60e51b815260040162000e459190620044f8565b5061013680546001600160a01b0319166001600160a01b0384169081179091556040519081527f7dfa2703f86aa8eb21b7501c51032278bcee1587d8d2534dcd1a1beb7d7c42059060200162000e9a565b61012d54604051630db9619f60e31b81523360048201526001916001600160a01b031690636dcb0cf890602401602060405180830381865afa15801562001978573d6000803e3d6000fd5b505050506040513d601f19601f820116820180604052508101906200199e919062004818565b6004811115620019b257620019b262004802565b14604051806040016040528060088152602001671393d517d413d3d360c21b81525090620019f55760405162461bcd60e51b815260040162000e459190620044f8565b5062001a0062003327565b61012d5460405163f4be936960e01b8152336004820152602481018390526001600160a01b039091169063f4be9369906044016020604051808303816000875af115801562001a53573d6000803e3d6000fd5b505050506040513d601f19601f820116820180604052508101906200186491906200450d565b600062001a8f61013a546001600160a01b031690565b6001600160a01b0316826001600160a01b0316149050919050565b600062001ab662003327565b610136546040805180820190915260138152722727aa2fa4a72b27a4a1a2afa6a0a720a3a2a960691b6020820152906001600160a01b0316331462001b105760405162461bcd60e51b815260040162000e459190620044f8565b5061012d54604051633c6b770b60e01b81526001600160a01b0390911690633c6b770b9062001b4b9086906001903390889060040162004852565b6020604051808303816000875af115801562001b6b573d6000803e3d6000fd5b505050506040513d601f19601f8201168201806040525081019062001b9191906200450d565b9392505050565b600062001ba760fb5460ff1690565b905090565b600062001bb981620032b7565b60408051808201909152600d81526c494e56414c49445f56414c554560981b6020820152620f424083111562001c045760405162461bcd60e51b815260040162000e459190620044f8565b505061013d55565b600062001c226101608601610140870162003ddc565b6001600160a01b03161462001cf557600062001c476101608601610140870162003ddc565b6001600160a01b03166318160ddd6040518163ffffffff1660e01b8152600401602060405180830381865afa15801562001c85573d6000803e3d6000fd5b505050506040513d601f19601f8201168201806040525081019062001cab91906200450d565b116040518060400160405280600d81526020016c24a72b20a624a22faa27a5a2a760991b8152509062001cf35760405162461bcd60e51b815260040162000e459190620044f8565b505b8360400135846020013510156040518060400160405280600f81526020016e0494e56414c49445f4841524443415608c1b8152509062001d4a5760405162461bcd60e51b815260040162000e459190620044f8565b50610135546001600160a01b031663f7ce305c62001d6c60c08701876200489b565b6040518263ffffffff1660e01b815260040162001d8a919062004909565b602060405180830381865afa15801562001da8573d6000803e3d6000fd5b505050506040513d601f19601f8201168201806040525081019062001dce919062004527565b50600062001ddd8385620049d1565b90508085602001351115604051806060016040528060218152602001620055a6602191399062001e225760405162461bcd60e51b815260040162000e459190620044f8565b50600182600281111562001e3a5762001e3a62004802565b036200125a578062001e50866020013562002307565b62001e60906020880135620049e7565b111560405180606001604052806032815260200162005574603291399062001e9d5760405162461bcd60e51b815260040162000e459190620044f8565b505050505050565b600062001eb281620032b7565b60408051808201909152600c81526b414444524553535f5a45524f60a01b60208201526001600160a01b03831662001eff5760405162461bcd60e51b815260040162000e459190620044f8565b5061013580546001600160a01b0319166001600160a01b0384169081179091556040519081527fa382d6de23230b4513b2ee62dcfa30957a86ccaf67a224d61a08bbff48348e639060200162000e9a565b600062001f5d81620032b7565b60408051808201909152600c81526b414444524553535f5a45524f60a01b60208201526001600160a01b03831662001faa5760405162461bcd60e51b815260040162000e459190620044f8565b5061013480546001600160a01b0319166001600160a01b0384169081179091556040519081527fdde11f4b2682abfdf9c52d46f3333a6d59f63caf74745148fc8e914a86848e069060200162000e9a565b60006200200881620032b7565b60408051808201909152600c81526b414444524553535f5a45524f60a01b60208201526001600160a01b038316620020555760405162461bcd60e51b815260040162000e459190620044f8565b505061013c80546001600160a01b0319166001600160a01b0392909216919091179055565b60006200208781620032b7565b6200187f6200358a565b60006200209e81620032b7565b60408051808201909152600c81526b414444524553535f5a45524f60a01b60208201526001600160a01b038316620020eb5760405162461bcd60e51b815260040162000e459190620044f8565b506040513031906000906001600160a01b0385169083908381818185875af1925050503d80600081146200213c576040519150601f19603f3d011682016040523d82523d6000602084013e62002141565b606091505b50509050806040518060400160405280601081526020016f11561150d5551253d397d1905253115160821b81525090620021905760405162461bcd60e51b815260040162000e459190620044f8565b50604080516001600160a01b0386168152602081018490527fc812aa15be10cc23ff245a12080e7de523f13b7fd4a16277a703c4f8e3113709910160405180910390a150505050565b600082815260976020526040812062001b919083620035cc565b60009182526065602090815260408084206001600160a01b0393909316845291905290205460ff1690565b60006200222b81620032b7565b60408051808201909152600c81526b414444524553535f5a45524f60a01b60208201526001600160a01b038316620022785760405162461bcd60e51b815260040162000e459190620044f8565b5061013b80546001600160a01b0319166001600160a01b0384169081179091556040519081527f9d85c3c335ea07375a6aa993b94b4cd64a0f88359cc5a251aab773358ec5708f9060200162000e9a565b6000620022d681620032b7565b5061013780546001600160a01b039384166001600160a01b0319918216179091556101388054929093169116179055565b60006200231362002d13565b8210156040518060400160405280600d81526020016c494e56414c49445f56414c554560981b815250906200235d5760405162461bcd60e51b815260040162000e459190620044f8565b50620f42406200236f600182620049d1565b610132546200237f9085620049fd565b6200238b9190620049e7565b62000de5919062004a17565b6000600161012d54604051630db9619f60e31b81526001600160a01b03858116600483015290911690636dcb0cf890602401602060405180830381865afa158015620023e7573d6000803e3d6000fd5b505050506040513d601f19601f820116820180604052508101906200240d919062004818565b600481111562002421576200242162004802565b1480156200248f5750816001600160a01b031663e47bfee86040518163ffffffff1660e01b8152600401602060405180830381865afa15801562002469573d6000803e3d6000fd5b505050506040513d601f19601f820116820180604052508101906200248f919062004527565b15620026375762002562826001600160a01b0316633f8a037d6040518163ffffffff1660e01b8152600401602060405180830381865afa158015620024d8573d6000803e3d6000fd5b505050506040513d601f19601f82011682018060405250810190620024fe919062004547565b6001600160a01b031663355274ea6040518163ffffffff1660e01b8152600401602060405180830381865afa1580156200253c573d6000803e3d6000fd5b505050506040513d601f19601f8201168201806040525081019062000a3991906200450d565b826001600160a01b0316633f8a037d6040518163ffffffff1660e01b8152600401602060405180830381865afa158015620025a1573d6000803e3d6000fd5b505050506040513d601f19601f82011682018060405250810190620025c7919062004547565b6001600160a01b031663355274ea6040518163ffffffff1660e01b8152600401602060405180830381865afa15801562002605573d6000803e3d6000fd5b505050506040513d601f19601f820116820180604052508101906200262b91906200450d565b62000de59190620049d1565b6200264460001962002307565b62000de590600019620049d1565b60006200265f81620032b7565b60408051808201909152600c81526b414444524553535f5a45524f60a01b60208201526001600160a01b038316620026ac5760405162461bcd60e51b815260040162000e459190620044f8565b5061012d80546001600160a01b0319166001600160a01b0384169081179091556040519081527fdb0239c63d4033dcdd21bd44f8dd479a03efbae12f6bbe27c0a5f923d26514cc9060200162000e9a565b600461012d54604051630db9619f60e31b81523360048201526001600160a01b0390911690636dcb0cf890602401602060405180830381865afa15801562002749573d6000803e3d6000fd5b505050506040513d601f19601f820116820180604052508101906200276f919062004818565b600481111562002783576200278362004802565b14604051806040016040528060078152602001664e4f545f54474560c81b81525090620027c55760405162461bcd60e51b815260040162000e459190620044f8565b506001600160a01b0382166000908152610133602052604081208054839290620027f1908490620049e7565b90915550505050565b61012d54604051630db9619f60e31b81523360048201526001916001600160a01b031690636dcb0cf890602401602060405180830381865afa15801562002845573d6000803e3d6000fd5b505050506040513d601f19601f820116820180604052508101906200286b919062004818565b60048111156200287f576200287f62004802565b14604051806040016040528060088152602001671393d517d413d3d360c21b81525090620028c25760405162461bcd60e51b815260040162000e459190620044f8565b50620028cd62003327565b61012d54604051633c6b770b60e01b81526001600160a01b0390911690633c6b770b906200290b903390889060009089908990899060040162004a3a565b6020604051808303816000875af11580156200292b573d6000803e3d6000fd5b505050506040513d601f19601f820116820180604052508101906200125a91906200450d565b826001600160a01b031663c3a109926200296a620034fc565b6040516001600160e01b031960e084901b1681526001600160a01b039091166004820152602481018590528315156044820152606401600060405180830381600087803b158015620029bb57600080fd5b505af1158015620029d0573d6000803e3d6000fd5b505061012d546001600160a01b03169150634dbb83fd9050620029f2620034fc565b60405160248101869052841515604482015286906000906315373e3d60e01b9060640160408051601f198184030181529181526020820180516001600160e01b03166001600160e01b03199485161790525160e087901b909216825262002a5f9493929160040162004765565b600060405180830381600087803b15801562002a7a57600080fd5b505af115801562002a8f573d6000803e3d6000fd5b50505050505050565b600081815260976020526040812062000de590620035da565b600062002abe81620032b7565b60408051808201909152600c81526b414444524553535f5a45524f60a01b60208201526001600160a01b03831662002b0b5760405162461bcd60e51b815260040162000e459190620044f8565b505061013980546001600160a01b0319166001600160a01b0392909216919091179055565b600062002b3d81620032b7565b60408051808201909152600c81526b414444524553535f5a45524f60a01b60208201526001600160a01b03831662002b8a5760405162461bcd60e51b815260040162000e459190620044f8565b5061012e80546001600160a01b0319166001600160a01b0384169081179091556040519081527f410f012324589f5cbdba518b0cd6dfaa342d310e019f74ebe41de3986a9400b99060200162000e9a565b60008281526065602052604090206001015462002bf881620032b7565b620017cf838362003508565b600062002c1181620032b7565b60408051808201909152600c81526b414444524553535f5a45524f60a01b60208201526001600160a01b03831662002c5e5760405162461bcd60e51b815260040162000e459190620044f8565b505061013a80546001600160a01b0319166001600160a01b0392909216919091179055565b600062002c9081620032b7565b60408051808201909152600d81526c494e56414c49445f56414c554560981b6020820152620f424083111562002cdb5760405162461bcd60e51b815260040162000e459190620044f8565b506101328290556040518281527f3356e979ac6b186521938f589b0f14ab4bac888ba2f12703da660b1f4ed1119f9060200162000e9a565b610132546000901562002d4d5761013254600162002d3582620f4240620049e7565b62002d419190620049d1565b62001ba7919062004a17565b506101325490565b62002d5f620034fc565b6001600160a01b0316846001600160a01b0316638da5cb5b6040518163ffffffff1660e01b8152600401602060405180830381865afa15801562002da7573d6000803e3d6000fd5b505050506040513d601f19601f8201168201806040525081019062002dcd919062004547565b6001600160a01b0316146040518060400160405280600e81526020016d2727aa2fa827a7a62fa7aba722a960911b8152509062002e1f5760405162461bcd60e51b815260040162000e459190620044f8565b5060405163b773254160e01b81526001600160a01b03848116600483015260248201849052828116604483015285169063b773254190606401600060405180830381600087803b15801562002e7357600080fd5b505af115801562002e88573d6000803e3d6000fd5b5050505050505050565b600062002e9f81620032b7565b60408051808201909152600c81526b414444524553535f5a45524f60a01b60208201526001600160a01b03831662002eec5760405162461bcd60e51b815260040162000e459190620044f8565b5061012f80546001600160a01b0319166001600160a01b0384169081179091556040519081527f9f84344446bcb3626cfbd03f3d3c7cf1d710a1e622ba331edcde44edf1df40049060200162000e9a565b62002f47620032cc565b62002f5162003327565b61012d5460405163648bbcdf60e01b815260048101869052602481018590526000916001600160a01b03169063648bbcdf90604401602060405180830381865afa15801562002fa4573d6000803e3d6000fd5b505050506040513d601f19601f8201168201806040525081019062002fca919062004547565b9050806001600160a01b0316634e6cabee6040518163ffffffff1660e01b81526004016020604051808303816000875af11580156200300d573d6000803e3d6000fd5b505050506040513d601f19601f820116820180604052508101906200303391906200450d565b341460405180604001604052806014815260200173125390d3d4949150d517d1551217d41054d4d15160621b81525090620030835760405162461bcd60e51b815260040162000e459190620044f8565b5060405163fe90266760e01b81526001600160a01b0382169063fe90266790620030b690339087908790600401620045d0565b600060405180830381600087803b158015620030d157600080fd5b505af1158015620030e6573d6000803e3d6000fd5b505061012d54604051633b84067560e21b815260048101899052602481018890526001600160a01b03909116925063ee1019d491506044016000604051808303816000875af11580156200313e573d6000803e3d6000fd5b505050506040513d6000823e601f3d908101601f191682016040526200316891908101906200465d565b50604080516001600160a01b03831681526000602082018190528183015290517f4cb11cf112aa532bf5c3d8d07e17a2f5c1acdf658922233b7cf75206b66e55a29181900360600190a161012d546040516001600160a01b0390911690634dbb83fd9033903090349063f9d75d2360e01b90620031f0908c908c908c908c9060240162004a9f565b60408051601f198184030181529181526020820180516001600160e01b03166001600160e01b03199485161790525160e087901b90921682526200323a9493929160040162004765565b600060405180830381600087803b1580156200325557600080fd5b505af11580156200326a573d6000803e3d6000fd5b50505050506200327a600160c955565b50505050565b60006001600160e01b03198216637965db0b60e01b148062000de557506301ffc9a760e01b6001600160e01b031983161462000de5565b6200187f81620032c6620034fc565b620035e5565b600260c95403620033205760405162461bcd60e51b815260206004820152601f60248201527f5265656e7472616e637947756172643a207265656e7472616e742063616c6c00604482015260640162000e45565b600260c955565b6200333162001b98565b15620033735760405162461bcd60e51b815260206004820152601060248201526f14185d5cd8589b194e881c185d5cd95960821b604482015260640162000e45565b565b600160c955565b600054610100900460ff16620033a65760405162461bcd60e51b815260040162000e459062004ad3565b6200337362003649565b600054610100900460ff16620033da5760405162461bcd60e51b815260040162000e459062004ad3565b620033736200367f565b620033f08282620036a9565b6000828152609760205260409020620017cf908262003735565b600082815260656020526040808220600101805490849055905190918391839186917fbd79b86ffe0ab8e8776151514217cd7cacd52c909f66475c3af44e129f0b00ff9190a4505050565b600080600062003465846200374c565b91509150620034776000838362003810565b61012d54604051631f8b400560e01b81529194506001600160a01b031690631f8b400590620034ae90869060019060040162004b1e565b6020604051808303816000875af1158015620034ce573d6000803e3d6000fd5b505050506040513d601f19601f82011682018060405250810190620034f491906200450d565b505050919050565b600062001ba76200391a565b6200351482826200394d565b6000828152609760205260409020620017cf9082620039d7565b62003538620039ee565b60fb805460ff191690557f5db9ee0a495bf2e6ff9c91a7834c1ba4fdd244a5e8aa4e537bd38aeae4b073aa6200356d620034fc565b6040516001600160a01b03909116815260200160405180910390a1565b6200359462003327565b60fb805460ff191660011790557f62e78cea01bee320cd4e420270b5ea74000d11b0c9f74754ebdbfc544b05a2586200356d620034fc565b600062001b91838362003a3d565b600062000de5825490565b620035f18282620021f3565b6200186457620036018162003a6a565b6200360e83602062003a7d565b6040516020016200362192919062004b60565b60408051601f198184030181529082905262461bcd60e51b825262000e4591600401620044f8565b600054610100900460ff16620036735760405162461bcd60e51b815260040162000e459062004ad3565b60fb805460ff19169055565b600054610100900460ff16620033755760405162461bcd60e51b815260040162000e459062004ad3565b620036b58282620021f3565b620018645760008281526065602090815260408083206001600160a01b03851684529091529020805460ff19166001179055620036f1620034fc565b6001600160a01b0316816001600160a01b0316837f2f8788117e7eff1d82e926ec794901d17c78024a50270940304540a733656f0d60405160405180910390a45050565b600062001b91836001600160a01b03841662003c36565b60006060826000015183602001518460400151604051602001620037739392919062004bd9565b6040516020818303038152906040528051906020012091506000604051806020016200379f9062003d8c565b601f1982820381018352601f90910116604081815261012e546001600160a01b031660208301528082015260006060820152909150819060800160408051601f1981840301815290829052620037f9929160200162004bfa565b604051602081830303815290604052915050915091565b600083471015620038645760405162461bcd60e51b815260206004820152601d60248201527f437265617465323a20696e73756666696369656e742062616c616e6365000000604482015260640162000e45565b8151600003620038b75760405162461bcd60e51b815260206004820181905260248201527f437265617465323a2062797465636f6465206c656e677468206973207a65726f604482015260640162000e45565b8282516020840186f590506001600160a01b03811662001b915760405162461bcd60e51b815260206004820152601960248201527f437265617465323a204661696c6564206f6e206465706c6f7900000000000000604482015260640162000e45565b6000620039273362001a79565b801562003935575060143610155b1562003948575060131936013560601c90565b503390565b620039598282620021f3565b15620018645760008281526065602090815260408083206001600160a01b03851684529091529020805460ff1916905562003993620034fc565b6001600160a01b0316816001600160a01b0316837ff6391f5c32d9c69d2a47ea670b442974b53935d1edc7fd64eb21e047a839171b60405160405180910390a45050565b600062001b91836001600160a01b03841662003c88565b620039f862001b98565b620033735760405162461bcd60e51b815260206004820152601460248201527314185d5cd8589b194e881b9bdd081c185d5cd95960621b604482015260640162000e45565b600082600001828154811062003a575762003a5762004c2d565b9060005260206000200154905092915050565b606062000de56001600160a01b03831660145b6060600062003a8e836002620049fd565b62003a9b906002620049e7565b6001600160401b0381111562003ab55762003ab562003dfc565b6040519080825280601f01601f19166020018201604052801562003ae0576020820181803683370190505b509050600360fc1b8160008151811062003afe5762003afe62004c2d565b60200101906001600160f81b031916908160001a905350600f60fb1b8160018151811062003b305762003b3062004c2d565b60200101906001600160f81b031916908160001a905350600062003b56846002620049fd565b62003b63906001620049e7565b90505b600181111562003be5576f181899199a1a9b1b9c1cb0b131b232b360811b85600f166010811062003b9b5762003b9b62004c2d565b1a60f81b82828151811062003bb45762003bb462004c2d565b60200101906001600160f81b031916908160001a90535060049490941c9362003bdd8162004c43565b905062003b66565b50831562001b915760405162461bcd60e51b815260206004820181905260248201527f537472696e67733a20686578206c656e67746820696e73756666696369656e74604482015260640162000e45565b600081815260018301602052604081205462003c7f5750815460018181018455600084815260208082209093018490558454848252828601909352604090209190915562000de5565b50600062000de5565b6000818152600183016020526040812054801562003d8157600062003caf600183620049d1565b855490915060009062003cc590600190620049d1565b905081811462003d3157600086600001828154811062003ce95762003ce962004c2d565b906000526020600020015490508087600001848154811062003d0f5762003d0f62004c2d565b6000918252602080832090910192909255918252600188019052604090208390555b855486908062003d455762003d4562004c5d565b60019003818190600052602060002001600090559055856001016000868152602001908152602001600020600090556001935050505062000de5565b600091505062000de5565b6109008062004c7483390190565b60006020828403121562003dad57600080fd5b81356001600160e01b03198116811462001b9157600080fd5b6001600160a01b03811681146200187f57600080fd5b60006020828403121562003def57600080fd5b813562001b918162003dc6565b634e487b7160e01b600052604160045260246000fd5b60405160e081016001600160401b038111828210171562003e375762003e3762003dfc565b60405290565b604051608081016001600160401b038111828210171562003e375762003e3762003dfc565b60405160a081016001600160401b038111828210171562003e375762003e3762003dfc565b604051601f8201601f191681016001600160401b038111828210171562003eb25762003eb262003dfc565b604052919050565b60006001600160401b0382111562003ed65762003ed662003dfc565b50601f01601f191660200190565b600082601f83011262003ef657600080fd5b813562003f0d62003f078262003eba565b62003e87565b81815284602083860101111562003f2357600080fd5b816020850160208301376000918101602001919091529392505050565b6000610140828403121562003f5457600080fd5b62003f5e62003e12565b905081358152602080830135818301526040830135604083015260608301356060830152608083013560808301528360bf84011262003f9c57600080fd5b62003fa662003e3d565b8061012085018681111562003fba57600080fd5b60a086015b8181101562003fd8578035845292840192840162003fbf565b508160a0860152803560c08601525050505092915050565b60008060008060006101c086880312156200400a57600080fd5b8535620040178162003dc6565b9450602086013593506040860135925060608601356001600160401b038111156200404157600080fd5b6200404f8882890162003ee4565b92505062004061876080880162003f40565b90509295509295909350565b600080600080600080600060e0888a0312156200408957600080fd5b8735620040968162003dc6565b96506020880135620040a88162003dc6565b95506040880135620040ba8162003dc6565b94506060880135620040cc8162003dc6565b93506080880135620040de8162003dc6565b925060a0880135620040f08162003dc6565b8092505060c0880135905092959891949750929550565b6000602082840312156200411a57600080fd5b5035919050565b6000602082840312156200413457600080fd5b81356001600160401b03808211156200414c57600080fd5b9083019060a082860312156200416157600080fd5b6200416b62003e62565b82358152602083013560208201526040830135828111156200418c57600080fd5b6200419a8782860162003ee4565b604083015250606083013582811115620041b357600080fd5b620041c18782860162003ee4565b6060830152506080830135608082015280935050505092915050565b60008060408385031215620041f157600080fd5b823591506020830135620042058162003dc6565b809150509250929050565b600080604083850312156200422457600080fd5b8235620042318162003dc6565b946020939093013593505050565b600080600080608085870312156200425657600080fd5b84356001600160401b038111156200426d57600080fd5b85016101c081880312156200428157600080fd5b93506020850135925060408501359150606085013560038110620042a457600080fd5b939692955090935050565b60008060408385031215620042c357600080fd5b50508035926020909101359150565b60008060408385031215620042e657600080fd5b8235620042f38162003dc6565b91506020830135620042058162003dc6565b600080600080606085870312156200431c57600080fd5b8435600481106200432c57600080fd5b93506020850135925060408501356001600160401b03808211156200435057600080fd5b818701915087601f8301126200436557600080fd5b8135818111156200437557600080fd5b8860208285010111156200438857600080fd5b95989497505060200194505050565b80151581146200187f57600080fd5b600080600060608486031215620043bc57600080fd5b8335620043c98162003dc6565b9250602084013591506040840135620043e28162004397565b809150509250925092565b600080600080608085870312156200440457600080fd5b8435620044118162003dc6565b93506020850135620044238162003dc6565b9250604085013591506060850135620042a48162003dc6565b6000806000806101a085870312156200445457600080fd5b843593506020850135925060408501356001600160401b038111156200447957600080fd5b620044878782880162003ee4565b92505062004499866060870162003f40565b905092959194509250565b60005b83811015620044c1578181015183820152602001620044a7565b50506000910152565b60008151808452620044e4816020860160208601620044a4565b601f01601f19169290920160200192915050565b60208152600062001b916020830184620044ca565b6000602082840312156200452057600080fd5b5051919050565b6000602082840312156200453a57600080fd5b815162001b918162004397565b6000602082840312156200455a57600080fd5b815162001b918162003dc6565b805182526020808201518184015260408201516040840152606082015160608401526080820151608084015260a082015160a0840160005b6004811015620045be578251825291830191908301906001016200459f565b5050505060c001516101209190910152565b6001600160a01b038416815261018060208201819052600090620045f783820186620044ca565b91505062004609604083018462004567565b949350505050565b600082601f8301126200462357600080fd5b81516200463462003f078262003eba565b8181528460208386010111156200464a57600080fd5b62004609826020830160208701620044a4565b6000602082840312156200467057600080fd5b81516001600160401b03808211156200468857600080fd5b9083019060a082860312156200469d57600080fd5b620046a762003e62565b8251815260208301516020820152604083015182811115620046c857600080fd5b620046d68782860162004611565b604083015250606083015182811115620046ef57600080fd5b620046fd8782860162004611565b6060830152506080830151608082015280935050505092915050565b60006101c060018060a01b03881683528660208401528560408401528060608401526200474981840186620044ca565b9150506200475b608083018462004567565b9695505050505050565b6001600160a01b03858116825284166020820152604081018390526080606082018190526000906200475b90830184620044ca565b6020815281516020820152602082015160408201526000604083015160a06060840152620047cc60c0840182620044ca565b90506060840151601f19848303016080850152620047eb8282620044ca565b915050608084015160a08401528091505092915050565b634e487b7160e01b600052602160045260246000fd5b6000602082840312156200482b57600080fd5b81516005811062001b9157600080fd5b600481106200484e576200484e62004802565b9052565b6001600160a01b0385811682526000906200487160208401876200483b565b939093166040820152606081019190915260a06080820181905260009082015260c0019392505050565b6000823560fe19833603018112620048b257600080fd5b9190910192915050565b8183526000602080850194508260005b85811015620048fe578135620048e28162003dc6565b6001600160a01b031687529582019590820190600101620048cc565b509495945050505050565b6020815281356020820152602082013560408201526040820135606082015260608201356080820152608082013560a082015260a082013560c082015260c082013560e0820152600060e0830135601e198436030181126200496a57600080fd5b83016020810190356001600160401b038111156200498757600080fd5b8060051b36038213156200499a57600080fd5b61010084810152620049b261012085018284620048bc565b95945050505050565b634e487b7160e01b600052601160045260246000fd5b8181038181111562000de55762000de5620049bb565b8082018082111562000de55762000de5620049bb565b808202811582820484141762000de55762000de5620049bb565b60008262004a3557634e487b7160e01b600052601260045260246000fd5b500490565b6001600160a01b03878116825260009062004a5960208401896200483b565b80871660408401525084606083015260a060808301528260a0830152828460c0840137600060c0848401015260c0601f19601f8501168301019050979650505050505050565b60006101a086835285602084015280604084015262004ac181840186620044ca565b915050620049b2606083018462004567565b6020808252602b908201527f496e697469616c697a61626c653a20636f6e7472616374206973206e6f74206960408201526a6e697469616c697a696e6760a81b606082015260800190565b6001600160a01b038316815260006005831062004b3f5762004b3f62004802565b82602083015260606040830152600060608301526080820190509392505050565b7f416363657373436f6e74726f6c3a206163636f756e742000000000000000000081526000835162004b9a816017850160208801620044a4565b7001034b99036b4b9b9b4b733903937b6329607d1b601791840191820152835162004bcd816028840160208801620044a4565b01602801949350505050565b838152826020820152606060408201526000620049b26060830184620044ca565b6000835162004c0e818460208801620044a4565b83519083019062004c24818360208801620044a4565b01949350505050565b634e487b7160e01b600052603260045260246000fd5b60008162004c555762004c55620049bb565b506000190190565b634e487b7160e01b600052603160045260246000fdfe60806040526040516109003803806109008339810160408190526100229161045b565b61002e82826000610035565b5050610585565b61003e83610100565b6040516001600160a01b038416907f1cf3b03a6cf19fa2baba4df148e9dcabedea7f8a5c07840e207e5c089be95d3e90600090a260008251118061007f5750805b156100fb576100f9836001600160a01b0316635c60da1b6040518163ffffffff1660e01b8152600401602060405180830381865afa1580156100c5573d6000803e3d6000fd5b505050506040513d601f19601f820116820180604052508101906100e9919061051b565b836102a360201b6100291760201c565b505b505050565b610113816102cf60201b6100551760201c565b6101725760405162461bcd60e51b815260206004820152602560248201527f455243313936373a206e657720626561636f6e206973206e6f74206120636f6e6044820152641d1c9858dd60da1b60648201526084015b60405180910390fd5b6101e6816001600160a01b0316635c60da1b6040518163ffffffff1660e01b8152600401602060405180830381865afa1580156101b3573d6000803e3d6000fd5b505050506040513d601f19601f820116820180604052508101906101d7919061051b565b6102cf60201b6100551760201c565b61024b5760405162461bcd60e51b815260206004820152603060248201527f455243313936373a20626561636f6e20696d706c656d656e746174696f6e206960448201526f1cc81b9bdd08184818dbdb9d1c9858dd60821b6064820152608401610169565b806102827fa3f0ad74e5423aebfd80d3ef4346578335a9a72aeaee59ff6cb3582b35133d5060001b6102de60201b6100641760201c565b80546001600160a01b0319166001600160a01b039290921691909117905550565b60606102c883836040518060600160405280602781526020016108d9602791396102e1565b9392505050565b6001600160a01b03163b151590565b90565b6060600080856001600160a01b0316856040516102fe9190610536565b600060405180830381855af49150503d8060008114610339576040519150601f19603f3d011682016040523d82523d6000602084013e61033e565b606091505b5090925090506103508683838761035a565b9695505050505050565b606083156103c95782516000036103c2576001600160a01b0385163b6103c25760405162461bcd60e51b815260206004820152601d60248201527f416464726573733a2063616c6c20746f206e6f6e2d636f6e74726163740000006044820152606401610169565b50816103d3565b6103d383836103db565b949350505050565b8151156103eb5781518083602001fd5b8060405162461bcd60e51b81526004016101699190610552565b80516001600160a01b038116811461041c57600080fd5b919050565b634e487b7160e01b600052604160045260246000fd5b60005b8381101561045257818101518382015260200161043a565b50506000910152565b6000806040838503121561046e57600080fd5b61047783610405565b60208401519092506001600160401b038082111561049457600080fd5b818501915085601f8301126104a857600080fd5b8151818111156104ba576104ba610421565b604051601f8201601f19908116603f011681019083821181831017156104e2576104e2610421565b816040528281528860208487010111156104fb57600080fd5b61050c836020830160208801610437565b80955050505050509250929050565b60006020828403121561052d57600080fd5b6102c882610405565b60008251610548818460208701610437565b9190910192915050565b6020815260008251806020840152610571816040850160208701610437565b601f01601f19169190910160400192915050565b610345806105946000396000f3fe60806040523661001357610011610017565b005b6100115b610027610022610067565b610100565b565b606061004e83836040518060600160405280602781526020016102e960279139610124565b9392505050565b6001600160a01b03163b151590565b90565b600061009a7fa3f0ad74e5423aebfd80d3ef4346578335a9a72aeaee59ff6cb3582b35133d50546001600160a01b031690565b6001600160a01b0316635c60da1b6040518163ffffffff1660e01b8152600401602060405180830381865afa1580156100d7573d6000803e3d6000fd5b505050506040513d601f19601f820116820180604052508101906100fb919061024c565b905090565b3660008037600080366000845af43d6000803e80801561011f573d6000f35b3d6000fd5b6060600080856001600160a01b0316856040516101419190610299565b600060405180830381855af49150503d806000811461017c576040519150601f19603f3d011682016040523d82523d6000602084013e610181565b606091505b50915091506101928683838761019c565b9695505050505050565b60608315610210578251600003610209576001600160a01b0385163b6102095760405162461bcd60e51b815260206004820152601d60248201527f416464726573733a2063616c6c20746f206e6f6e2d636f6e747261637400000060448201526064015b60405180910390fd5b508161021a565b61021a8383610222565b949350505050565b8151156102325781518083602001fd5b8060405162461bcd60e51b815260040161020091906102b5565b60006020828403121561025e57600080fd5b81516001600160a01b038116811461004e57600080fd5b60005b83811015610290578181015183820152602001610278565b50506000910152565b600082516102ab818460208701610275565b9190910192915050565b60208152600082518060208401526102d4816040850160208701610275565b601f01601f1916919091016040019291505056fe416464726573733a206c6f772d6c6576656c2064656c65676174652063616c6c206661696c6564a264697066735822122022a6bf5ebbb7518c40e703958b5c8e4d70ca6715c1e1ccf9e9591bfc86e066d164736f6c63430008110033416464726573733a206c6f772d6c6576656c2064656c65676174652063616c6c206661696c6564484152444341505f414e445f50524f544f434f4c5f4645455f4f564552464c4f575f52454d41494e494e475f535550504c59484152444341505f4f564552464c4f575f52454d41494e494e475f535550504c59a2646970667358221220cac36510a686bb7be4b044c14f87ed0448bfa99aa55c266df3a2eccc9090ee8364736f6c63430008110033",
  "devdoc": {
    "details": "This contract deploys the core OZ Access Control model, where the distribution of accounts determines the behavior of most modifiers.The address of this contract is specified in all other contracts, and this contract also stores the addresses of those contracts. The mutual references between contracts implement a system of \"own-foreign\" recognition.This contract is responsible for updating itself and all other protocol contracts, including user contracts.",
    "events": {
      "CustomPropsalChanged(address)": {
        "details": "Event emitted on CustomPropsalProxy change.",
        "params": {
          "proxy": "Proxy address"
        }
      },
      "FeesTransferred(address,uint256)": {
        "details": "Event emitted when the service fees are transferred to another address",
        "params": {
          "amount": "Amount of ETH transferred",
          "to": "Transfer recipient"
        }
      },
      "InvoiceChanged(address)": {
        "details": "Event emitted on InvoiceProxy change.",
        "params": {
          "proxy": "Proxy address"
        }
      },
      "PoolBeaconChanged(address)": {
        "details": "Event emitted on PoolBeacon change.",
        "params": {
          "beacon": "Beacon address"
        }
      },
      "PoolCreated(address,address,address)": {
        "details": "Event emitted upon deployment of a pool contract (i.e., creation of a pool)",
        "params": {
          "pool": "Address of the Pool contract",
          "tge": "Address of the TGE contract (usually 0, as the pool and TGE contracts are deployed separately)",
          "token": "Address of the pool's token contract (usually 0, as the pool and token contracts are deployed separately)"
        }
      },
      "PoolPurchased(address,address,address)": {
        "details": "Event emitted upon the purchase of a pool",
        "params": {
          "pool": "Address of the purchased pool",
          "tge": "Address of the TGE contract (usually 0)",
          "token": "Address of the pool's token contract (usually 0, as the pool does not have any tokens at the time of purchase)"
        }
      },
      "ProposalCancelled(address,uint256)": {
        "details": "Event emitted when a proposal is canceled by an account with the Service Manager role",
        "params": {
          "pool": "Pool address",
          "proposalId": "Pool local proposal id"
        }
      },
      "ProtocolTokenFeeChanged(uint256)": {
        "details": "Event emitted when the protocol changes the token fee collected from pool tokens.",
        "params": {
          "protocolTokenFee": "New protocol token fee"
        }
      },
      "ProtocolTreasuryChanged(address)": {
        "details": "Event emitted when the balance of the Protocol Treasury changes due to transfers of pool tokens collected as protocol fees.",
        "params": {
          "protocolTreasury": "Address of the Protocol Treasury"
        }
      },
      "RegistryChanged(address)": {
        "details": "Event emitted on RegistryProxy change.",
        "params": {
          "proxy": "Proxy address"
        }
      },
      "TGEBeaconChanged(address)": {
        "details": "Event emitted on TGEBeacon change.",
        "params": {
          "beacon": "Beacon address"
        }
      },
      "TGEFactoryChanged(address)": {
        "details": "Event emitted on TGEFactoryProxy change.",
        "params": {
          "proxy": "Proxy address"
        }
      },
      "TSEBeaconChanged(address)": {
        "details": "Event emitted on TSEBeacon change.",
        "params": {
          "beacon": "Beacon address"
        }
      },
      "TokenBeaconChanged(address)": {
        "details": "Event emitted on TokenBeacon change.",
        "params": {
          "beacon": "Beacon address"
        }
      },
      "TokenFactoryChanged(address)": {
        "details": "Event emitted on TokenFactoryProxy change.",
        "params": {
          "proxy": "Proxy address"
        }
      },
      "VestingChanged(address)": {
        "details": "Event emitted on VestingProxy change.",
        "params": {
          "proxy": "Proxy address"
        }
      }
    },
    "kind": "dev",
    "methods": {
      "addEvent(uint8,uint256,string)": {
        "details": "To ensure the security and consistency of the contract architecture, user contracts do not directly interact with the Registry.",
        "params": {
          "eventType": "Event type.",
          "metaHash": "Hash value of event metadata.",
          "proposalId": "Proposal ID."
        }
      },
      "addProposal(uint256)": {
        "details": "To ensure the security and consistency of the contract architecture, user contracts do not directly interact with the Registry.Due to the complexity of the role model for creating proposals, registering a new record is performed from the central contract.",
        "params": {
          "proposalId": "Proposal ID."
        }
      },
      "constructor": {
        "custom:oz-upgrades-unsafe-allow": "constructor",
        "details": "This contract uses OpenZeppelin upgrades and has no need for a constructor function. The constructor is replaced with an initializer function. This method disables the initializer feature of the OpenZeppelin upgrades plugin, preventing the initializer methods from being misused."
      },
      "createPool((uint256,uint256,string,string,uint256))": {
        "details": "When working with the Registry contract, the address that has the COMPANIES_MANAGER role in that contract can deploy the pool contract by sending a transaction with the company's legal data as an argument.",
        "params": {
          "companyInfo": "Company info."
        }
      },
      "externalCastVote(address,uint256,bool)": {
        "details": "This method is used for emergency cancellation of any proposal by an address with the ADMIN role in this contract. It is used to prevent the execution of transactions prescribed by the proposal if there are doubts about their safety.",
        "params": {
          "pool": "The address of the pool contract.",
          "proposalId": "The ID of the proposal."
        }
      },
      "getMaxHardCap(address)": {
        "details": "Due to the protocol fee mechanism, which involves minting new token units as a protocol fee, calculating this maximum can be more complex than it seems at first glance. This method takes into account reserved and potential token units and calculates the hardcap accordingly.",
        "params": {
          "_pool": "The address of the pool contract for which the calculation is required."
        },
        "returns": {
          "_0": "The maximum hardcap value."
        }
      },
      "getMinSoftCap()": {
        "details": "Due to the fact that each issuance of Governance tokens involves collecting a portion of the tokens as a fee, this calculation is used to avoid conflicts related to rounding.",
        "returns": {
          "_0": "The minimum soft cap."
        }
      },
      "getProtocolCollectedFee(address)": {
        "params": {
          "token_": "The address of the token contract."
        },
        "returns": {
          "_0": "The amount of collected protocol fee."
        }
      },
      "getProtocolTokenFee(uint256)": {
        "details": "The calculation is based on DENOM and the current fee rate, allowing the fee to be calculated for any amount of tokens planned for distribution.",
        "params": {
          "amount": "The token amount."
        },
        "returns": {
          "_0": "The size of the fee in tokens."
        }
      },
      "getRoleAdmin(bytes32)": {
        "details": "Returns the admin role that controls `role`. See {grantRole} and {revokeRole}. To change a role's admin, use {_setRoleAdmin}."
      },
      "getRoleMember(bytes32,uint256)": {
        "details": "Returns one of the accounts that have `role`. `index` must be a value between 0 and {getRoleMemberCount}, non-inclusive. Role bearers are not sorted in any particular way, and their ordering may change at any point. WARNING: When using {getRoleMember} and {getRoleMemberCount}, make sure you perform all queries on the same block. See the following https://forum.openzeppelin.com/t/iterating-over-elements-on-enumerableset-in-openzeppelin-contracts/2296[forum post] for more information."
      },
      "getRoleMemberCount(bytes32)": {
        "details": "Returns the number of accounts that have `role`. Can be used together with {getRoleMember} to enumerate all bearers of a role."
      },
      "grantRole(bytes32,address)": {
        "details": "Grants `role` to `account`. If `account` had not been already granted `role`, emits a {RoleGranted} event. Requirements: - the caller must have ``role``'s admin role. May emit a {RoleGranted} event."
      },
      "hasRole(bytes32,address)": {
        "details": "Returns `true` if `account` has been granted `role`."
      },
      "initialize(address,address,address,address,address,address,uint256)": {
        "details": "Initializer function, can only be called once",
        "params": {
          "customProposal_": "Custom proposals address",
          "poolBeacon_": "Pool beacon",
          "protocolTokenFee_": "Protocol token fee",
          "registry_": "Registry address",
          "tgeBeacon_": "TGE beacon",
          "tokenBeacon_": "Governance token beacon",
          "vesting_": "Vesting address"
        }
      },
      "isTrustedForwarder(address)": {
        "details": "Indicates whether any particular address is the trusted forwarder."
      },
      "pause()": {
        "details": "Pause service"
      },
      "paused()": {
        "details": "Returns true if the contract is paused, and false otherwise."
      },
      "purchasePool(uint256,uint256,string,(uint256,uint256,uint256,uint256,uint256,uint256[4],uint256))": {
        "details": "The user refers to the Service protocol's purchasePool method, in which arguments indicate the digital jurisdiction code and the digital organizational type code of the company (as well as Governance settings provided by the NewGovernanceSettings interface, and a string record that will serve as the company's trademark). If there is at least one unoccupied and available company for purchase in the Registry contract (queue record with keys in the form of user-transmitted jurisdiction and organizational type codes), the following actions occur: -    reserving the company for the user (removing it from the list of available ones) -    debiting the commission in ETH (in fact, the company's price) from the user's balance, which is equal to the fee field in the CompanyInfo structure stored in the companies of the Registry contract -    making changes to the contract through an internal transaction using the setNewOwnerWithSettings method, which includes changing the company's trademark, its owner, and Governance settings. From this point on, the user is considered the Owner of the company.",
        "params": {
          "entityType": "Digital code of the entity type.",
          "governanceSettings": "Initial Governance settings.",
          "jurisdiction": "Digital code of the jurisdiction.",
          "trademark": "Company's trademark."
        }
      },
      "renounceRole(bytes32,address)": {
        "details": "Revokes `role` from the calling account. Roles are often managed via {grantRole} and {revokeRole}: this function's purpose is to provide a mechanism for accounts to lose their privileges if they are compromised (such as when a trusted device is misplaced). If the calling account had been revoked `role`, emits a {RoleRevoked} event. Requirements: - the caller must be `account`. May emit a {RoleRevoked} event."
      },
      "revokeRole(bytes32,address)": {
        "details": "Revokes `role` from `account`. If `account` had been granted `role`, emits a {RoleRevoked} event. Requirements: - the caller must have ``role``'s admin role. May emit a {RoleRevoked} event."
      },
      "setCustomProposal(address)": {
        "details": "Sets new customProposal contract",
        "params": {
          "_customProposal": "customProposal address"
        }
      },
      "setFactories(address,address)": {
        "details": "Sets factories for previously deployed service",
        "params": {
          "tgeFactory_": "TGEFactory address",
          "tokenFactory_": "TokenFactory address"
        }
      },
      "setInvoice(address)": {
        "details": "Sets new invoice contract",
        "params": {
          "_invoice": "invoice address"
        }
      },
      "setPoolBeacon(address)": {
        "details": "Sets new pool beacon",
        "params": {
          "beacon": "Beacon address"
        }
      },
      "setProtocolCollectedFee(address,uint256)": {
        "details": "This method is called after each successful Governance Token Generation Event (TGE) and increases the record of the collected Governance Tokens for this pool.",
        "params": {
          "_protocolTokenFee": "The amount of tokens collected as protocol fees.",
          "_token": "The address of the token contract."
        }
      },
      "setProtocolTokenFee(uint256)": {
        "details": "Set a new value for the protocol token fee percentage.",
        "params": {
          "_protocolTokenFee": "The new protocol token fee percentage value with 4 decimals. Examples: 1% = 10000, 100% = 1000000, 0.1% = 1000."
        }
      },
      "setProtocolTreasury(address)": {
        "details": "Set a new address for the protocol treasury, where the Governance tokens collected as protocol fees will be transferred.",
        "params": {
          "_protocolTreasury": "The new address of the protocol treasury."
        }
      },
      "setRegistry(address)": {
        "details": "Sets new Registry contract",
        "params": {
          "_registry": "registry address"
        }
      },
      "setTGEBeacon(address)": {
        "details": "Sets new TGE beacon",
        "params": {
          "beacon": "Beacon address"
        }
      },
      "setTokenBeacon(address)": {
        "details": "Sets new token beacon",
        "params": {
          "beacon": "Beacon address"
        }
      },
      "setTokenERC1155Beacon(address)": {
        "details": "Sets new tokenERC1155 beacon",
        "params": {
          "beacon": "Beacon address"
        }
      },
      "setVesting(address)": {
        "details": "Sets new vesting",
        "params": {
          "_vesting": "vesting address"
        }
      },
      "supportsInterface(bytes4)": {
        "details": "See {IERC165-supportsInterface}."
      },
      "transferCollectedFees(address)": {
        "details": "Transfer the collected protocol fees obtained from the sale of pools to the specified address.",
        "params": {
          "to": "The transfer recipient."
        }
      },
      "transferPurchasedPoolByService(address,uint256,uint256,string,(uint256,uint256,uint256,uint256,uint256,uint256[4],uint256))": {
        "details": "This method can be used when paying for the company's cost (protocol fee) through any other means (off-chain payment).",
        "params": {
          "entityType": "Digital code of the entity type.",
          "governanceSettings": "Initial Governance settings.",
          "jurisdiction": "Digital code of the jurisdiction.",
          "trademark": "Company's trademark."
        }
      },
      "unpause()": {
        "details": "Unpause service"
      },
      "validateTGEInfo((uint256,uint256,uint256,uint256,uint256,uint256,(uint256,uint256,uint256,uint256,uint256,uint256,uint256,address[]),address[],uint256[],uint256[],address,uint256,uint256,address),uint256,uint256,uint8)": {
        "details": "This method is used for formal validation of user-defined parameters for the conducted TGE."
      }
    },
    "stateVariables": {
      "ADMIN_ROLE": {
        "details": "The main role of the entire ecosystem, the protocol owner. The address assigned to this role can perform all actions related to updating contract implementations or interacting with or configuring the protocol's Treasury. The administrator can cancel suspicious proposals awaiting execution, pause the operation of protocol contracts and pools. In addition, the administrator can perform all actions provided for the SERVICE_MANAGER role. The holder of this role can assign the roles of ADMIN, WHITELISTED_USER, and SERVICE_MANAGER to other accounts. Storage, assignment, and revocation of the role are carried out using the standard methods of the AccessControl model from OpenZeppelin: grantRole, revokeRole, setRole."
      },
      "DENOM": {
        "details": "The constant Service.sol:DENOM is used to work with percentage values of QuorumThreshold and DecisionThreshold thresholds, as well as for calculating the ProtocolTokenFee. In this version, it is equal to 1,000,000, for clarity stored as 100 * 10 ^ 4. 10^4 corresponds to one percent, and 100 * 10^4 corresponds to one hundred percent. The value of 12.3456% will be written as 123,456, and 78.9% as 789,000. This notation allows specifying ratios with an accuracy of up to four decimal places in percentage notation (six decimal places in decimal notation). When working with the CompanyDAO frontend, the application scripts automatically convert the familiar percentage notation into the required format. When using the contracts independently, this feature of value notation should be taken into account."
      },
      "SERVICE_MANAGER_ROLE": {
        "details": "The administrator can delegate some of their powers to the owners of addresses assigned the SERVICE_MANAGER role. The administrator can also perform all the methods listed below. This role is assigned and removed by the administrator and was created for assigning addresses managed by worker scripts (automatic backend modules whose task is to constantly track changes in the states of all ecosystem components and initiate transactions that make actual changes and involve necessary scenarios for certain contracts at the moment). In addition, the holder of this role has the same powers as the holders of the Secretary and Executor roles in any pool, assigned by its shareholders. The holder of this role can assign the WHITELISTED_USER role to other accounts. Storage, assignment, and revocation of the role are carried out using the standard methods of the AccessControl model from OpenZeppelin: grantRole, revokeRole, setRole."
      },
      "customProposal": {
        "details": "Address of the Proposal beacon contract"
      },
      "invoice": {
        "details": "Address of the Invoice contract"
      },
      "poolBeacon": {
        "details": "Address of the Pool beacon contract"
      },
      "protocolTokenFee": {
        "details": "Protocol token fee percentage value with 4 decimals. Examples: 1% = 10000, 100% = 1000000, 0.1% = 1000"
      },
      "protocolTreasury": {
        "details": "0.1% (can be changed by the admin) of all Governance tokens from successful TGE are held here"
      },
      "protolCollectedFee": {
        "details": "Protocol token fee claimed for tokens"
      },
      "registry": {
        "details": "Address of the Registry contract"
      },
      "serviceFee": {
        "details": "Service fee percentage value with 4 decimals. Examples: 1% = 10000, 100% = 1000000, 0.1% = 1000"
      },
      "tgeBeacon": {
        "details": "Address of the TGE beacon contract"
      },
      "tgeFactory": {
        "details": "Address of the TGEFactory contract"
      },
      "tokenBeacon": {
        "details": "Address of the Token beacon contract"
      },
      "tokenERC1155Beacon": {
        "details": "Address of the Token beacon contract (for ERC1155 tokens)"
      },
      "tokenFactory": {
        "details": "Address of the TokenFactory contract"
      },
      "vesting": {
        "details": "Address of the Vesting contract"
      }
    },
    "title": "Service Contract",
    "version": 1
  },
  "userdoc": {
    "kind": "user",
    "methods": {
      "ADMIN_ROLE()": {
        "notice": "Hash code of the ADMIN role for the OZ Access Control model"
      },
      "EXECUTOR_ROLE()": {
        "notice": "Hash code of the EXECUTOR role for the OZ Access Control model"
      },
      "SERVICE_MANAGER_ROLE()": {
        "notice": "Hash code of the MANAGER role for the OZ Access Control model"
      },
      "WHITELISTED_USER_ROLE()": {
        "notice": "Legacy hash code of users added to the whitelist. Currently unused role."
      },
      "addEvent(uint8,uint256,string)": {
        "notice": "Adding a new record of an event to the Registry."
      },
      "addProposal(uint256)": {
        "notice": "Adding a new record of a proposal to the Registry."
      },
      "constructor": {
        "notice": "Contract constructor."
      },
      "createPool((uint256,uint256,string,string,uint256))": {
        "notice": "Method for deploying a pool contract."
      },
      "externalCastVote(address,uint256,bool)": {
        "notice": "Cancel a proposal by the administrator."
      },
      "getMaxHardCap(address)": {
        "notice": "This method returns the maximum number of Governance tokens that can be issued in all subsequent TGEs for the pool."
      },
      "getMinSoftCap()": {
        "notice": "This method returns the minimum soft cap accepted in the protocol."
      },
      "getProtocolCollectedFee(address)": {
        "notice": "This method returns the amount of Governance tokens collected as a protocol fee for each pool."
      },
      "getProtocolTokenFee(uint256)": {
        "notice": "This method returns the size of the protocol fee charged for issuing Governance tokens."
      },
      "protocolTokenFee()": {
        "notice": "The fee size that the protocol charges in tokens from each successful TGE (only for Governance Tokens)"
      },
      "protocolTreasury()": {
        "notice": "Address to hold the commission from TGE in distributed tokens"
      },
      "protolCollectedFee(address)": {
        "notice": "Total fees collected from TGE in Governance tokens for each pool"
      },
      "purchasePool(uint256,uint256,string,(uint256,uint256,uint256,uint256,uint256,uint256[4],uint256))": {
        "notice": "Method for purchasing a pool by the user. Among the data submitted for input, there are jurisdiction and Entity Type"
      },
      "serviceFee()": {
        "notice": "The fee size that the protocol charges in stables from each successful TGE "
      },
      "setProtocolCollectedFee(address,uint256)": {
        "notice": "Method to account for the collected protocol fees."
      },
      "transferPurchasedPoolByService(address,uint256,uint256,string,(uint256,uint256,uint256,uint256,uint256,uint256[4],uint256))": {
        "notice": "Method for manually transferring the company to a new owner."
      }
    },
    "notice": "The main contract of the protocol, the starting point of interaction for new clients.",
    "version": 1
  },
  "storageLayout": {
    "storage": [
      {
        "astId": 663,
        "contract": "contracts/Service.sol:Service",
        "label": "_initialized",
        "offset": 0,
        "slot": "0",
        "type": "t_uint8"
      },
      {
        "astId": 666,
        "contract": "contracts/Service.sol:Service",
        "label": "_initializing",
        "offset": 1,
        "slot": "0",
        "type": "t_bool"
      },
      {
        "astId": 1550,
        "contract": "contracts/Service.sol:Service",
        "label": "__gap",
        "offset": 0,
        "slot": "1",
        "type": "t_array(t_uint256)50_storage"
      },
      {
        "astId": 1850,
        "contract": "contracts/Service.sol:Service",
        "label": "__gap",
        "offset": 0,
        "slot": "51",
        "type": "t_array(t_uint256)50_storage"
      },
      {
        "astId": 184,
        "contract": "contracts/Service.sol:Service",
        "label": "_roles",
        "offset": 0,
        "slot": "101",
        "type": "t_mapping(t_bytes32,t_struct(RoleData)179_storage)"
      },
      {
        "astId": 479,
        "contract": "contracts/Service.sol:Service",
        "label": "__gap",
        "offset": 0,
        "slot": "102",
        "type": "t_array(t_uint256)49_storage"
      },
      {
        "astId": 33,
        "contract": "contracts/Service.sol:Service",
        "label": "_roleMembers",
        "offset": 0,
        "slot": "151",
        "type": "t_mapping(t_bytes32,t_struct(AddressSet)3054_storage)"
      },
      {
        "astId": 143,
        "contract": "contracts/Service.sol:Service",
        "label": "__gap",
        "offset": 0,
        "slot": "152",
        "type": "t_array(t_uint256)49_storage"
      },
      {
        "astId": 966,
        "contract": "contracts/Service.sol:Service",
        "label": "_status",
        "offset": 0,
        "slot": "201",
        "type": "t_uint256"
      },
      {
        "astId": 1024,
        "contract": "contracts/Service.sol:Service",
        "label": "__gap",
        "offset": 0,
        "slot": "202",
        "type": "t_array(t_uint256)49_storage"
      },
      {
        "astId": 846,
        "contract": "contracts/Service.sol:Service",
        "label": "_paused",
        "offset": 0,
        "slot": "251",
        "type": "t_bool"
      },
      {
        "astId": 951,
        "contract": "contracts/Service.sol:Service",
        "label": "__gap",
        "offset": 0,
        "slot": "252",
        "type": "t_array(t_uint256)49_storage"
      },
      {
        "astId": 4263,
        "contract": "contracts/Service.sol:Service",
        "label": "registry",
        "offset": 0,
        "slot": "301",
        "type": "t_contract(IRegistry)7464"
      },
      {
        "astId": 4266,
        "contract": "contracts/Service.sol:Service",
        "label": "poolBeacon",
        "offset": 0,
        "slot": "302",
        "type": "t_address"
      },
      {
        "astId": 4269,
        "contract": "contracts/Service.sol:Service",
        "label": "tokenBeacon",
        "offset": 0,
        "slot": "303",
        "type": "t_address"
      },
      {
        "astId": 4272,
        "contract": "contracts/Service.sol:Service",
        "label": "tgeBeacon",
        "offset": 0,
        "slot": "304",
        "type": "t_address"
      },
      {
        "astId": 4275,
        "contract": "contracts/Service.sol:Service",
        "label": "protocolTreasury",
        "offset": 0,
        "slot": "305",
        "type": "t_address"
      },
      {
        "astId": 4278,
        "contract": "contracts/Service.sol:Service",
        "label": "protocolTokenFee",
        "offset": 0,
        "slot": "306",
        "type": "t_uint256"
      },
      {
        "astId": 4283,
        "contract": "contracts/Service.sol:Service",
        "label": "protolCollectedFee",
        "offset": 0,
        "slot": "307",
        "type": "t_mapping(t_address,t_uint256)"
      },
      {
        "astId": 4287,
        "contract": "contracts/Service.sol:Service",
        "label": "customProposal",
        "offset": 0,
        "slot": "308",
        "type": "t_contract(ICustomProposal)5908"
      },
      {
        "astId": 4291,
        "contract": "contracts/Service.sol:Service",
        "label": "vesting",
        "offset": 0,
        "slot": "309",
        "type": "t_contract(IVesting)7215"
      },
      {
        "astId": 4295,
        "contract": "contracts/Service.sol:Service",
        "label": "invoice",
        "offset": 0,
        "slot": "310",
        "type": "t_contract(IInvoice)5971"
      },
      {
        "astId": 4299,
        "contract": "contracts/Service.sol:Service",
        "label": "tokenFactory",
        "offset": 0,
        "slot": "311",
        "type": "t_contract(ITokenFactory)7142"
      },
      {
        "astId": 4303,
        "contract": "contracts/Service.sol:Service",
        "label": "tgeFactory",
        "offset": 0,
        "slot": "312",
        "type": "t_contract(ITGEFactory)6605"
      },
      {
        "astId": 4306,
        "contract": "contracts/Service.sol:Service",
        "label": "tokenERC1155Beacon",
        "offset": 0,
        "slot": "313",
        "type": "t_address"
      },
      {
        "astId": 4308,
        "contract": "contracts/Service.sol:Service",
        "label": "trustedForwarder",
        "offset": 0,
        "slot": "314",
        "type": "t_address"
      },
      {
        "astId": 4310,
        "contract": "contracts/Service.sol:Service",
        "label": "tseBeacon",
        "offset": 0,
        "slot": "315",
        "type": "t_address"
      },
      {
        "astId": 4312,
        "contract": "contracts/Service.sol:Service",
        "label": "idRegistry",
        "offset": 0,
        "slot": "316",
        "type": "t_address"
      },
      {
        "astId": 4315,
        "contract": "contracts/Service.sol:Service",
        "label": "serviceFee",
        "offset": 0,
        "slot": "317",
        "type": "t_uint256"
      }
    ],
    "types": {
      "t_address": {
        "encoding": "inplace",
        "label": "address",
        "numberOfBytes": "20"
      },
      "t_array(t_bytes32)dyn_storage": {
        "base": "t_bytes32",
        "encoding": "dynamic_array",
        "label": "bytes32[]",
        "numberOfBytes": "32"
      },
      "t_array(t_uint256)49_storage": {
        "base": "t_uint256",
        "encoding": "inplace",
        "label": "uint256[49]",
        "numberOfBytes": "1568"
      },
      "t_array(t_uint256)50_storage": {
        "base": "t_uint256",
        "encoding": "inplace",
        "label": "uint256[50]",
        "numberOfBytes": "1600"
      },
      "t_bool": {
        "encoding": "inplace",
        "label": "bool",
        "numberOfBytes": "1"
      },
      "t_bytes32": {
        "encoding": "inplace",
        "label": "bytes32",
        "numberOfBytes": "32"
      },
      "t_contract(ICustomProposal)5908": {
        "encoding": "inplace",
        "label": "contract ICustomProposal",
        "numberOfBytes": "20"
      },
      "t_contract(IInvoice)5971": {
        "encoding": "inplace",
        "label": "contract IInvoice",
        "numberOfBytes": "20"
      },
      "t_contract(IRegistry)7464": {
        "encoding": "inplace",
        "label": "contract IRegistry",
        "numberOfBytes": "20"
      },
      "t_contract(ITGEFactory)6605": {
        "encoding": "inplace",
        "label": "contract ITGEFactory",
        "numberOfBytes": "20"
      },
      "t_contract(ITokenFactory)7142": {
        "encoding": "inplace",
        "label": "contract ITokenFactory",
        "numberOfBytes": "20"
      },
      "t_contract(IVesting)7215": {
        "encoding": "inplace",
        "label": "contract IVesting",
        "numberOfBytes": "20"
      },
      "t_mapping(t_address,t_bool)": {
        "encoding": "mapping",
        "key": "t_address",
        "label": "mapping(address => bool)",
        "numberOfBytes": "32",
        "value": "t_bool"
      },
      "t_mapping(t_address,t_uint256)": {
        "encoding": "mapping",
        "key": "t_address",
        "label": "mapping(address => uint256)",
        "numberOfBytes": "32",
        "value": "t_uint256"
      },
      "t_mapping(t_bytes32,t_struct(AddressSet)3054_storage)": {
        "encoding": "mapping",
        "key": "t_bytes32",
        "label": "mapping(bytes32 => struct EnumerableSetUpgradeable.AddressSet)",
        "numberOfBytes": "32",
        "value": "t_struct(AddressSet)3054_storage"
      },
      "t_mapping(t_bytes32,t_struct(RoleData)179_storage)": {
        "encoding": "mapping",
        "key": "t_bytes32",
        "label": "mapping(bytes32 => struct AccessControlUpgradeable.RoleData)",
        "numberOfBytes": "32",
        "value": "t_struct(RoleData)179_storage"
      },
      "t_mapping(t_bytes32,t_uint256)": {
        "encoding": "mapping",
        "key": "t_bytes32",
        "label": "mapping(bytes32 => uint256)",
        "numberOfBytes": "32",
        "value": "t_uint256"
      },
      "t_struct(AddressSet)3054_storage": {
        "encoding": "inplace",
        "label": "struct EnumerableSetUpgradeable.AddressSet",
        "members": [
          {
            "astId": 3053,
            "contract": "contracts/Service.sol:Service",
            "label": "_inner",
            "offset": 0,
            "slot": "0",
            "type": "t_struct(Set)2739_storage"
          }
        ],
        "numberOfBytes": "64"
      },
      "t_struct(RoleData)179_storage": {
        "encoding": "inplace",
        "label": "struct AccessControlUpgradeable.RoleData",
        "members": [
          {
            "astId": 176,
            "contract": "contracts/Service.sol:Service",
            "label": "members",
            "offset": 0,
            "slot": "0",
            "type": "t_mapping(t_address,t_bool)"
          },
          {
            "astId": 178,
            "contract": "contracts/Service.sol:Service",
            "label": "adminRole",
            "offset": 0,
            "slot": "1",
            "type": "t_bytes32"
          }
        ],
        "numberOfBytes": "64"
      },
      "t_struct(Set)2739_storage": {
        "encoding": "inplace",
        "label": "struct EnumerableSetUpgradeable.Set",
        "members": [
          {
            "astId": 2734,
            "contract": "contracts/Service.sol:Service",
            "label": "_values",
            "offset": 0,
            "slot": "0",
            "type": "t_array(t_bytes32)dyn_storage"
          },
          {
            "astId": 2738,
            "contract": "contracts/Service.sol:Service",
            "label": "_indexes",
            "offset": 0,
            "slot": "1",
            "type": "t_mapping(t_bytes32,t_uint256)"
          }
        ],
        "numberOfBytes": "64"
      },
      "t_uint256": {
        "encoding": "inplace",
        "label": "uint256",
        "numberOfBytes": "32"
      },
      "t_uint8": {
        "encoding": "inplace",
        "label": "uint8",
        "numberOfBytes": "1"
      }
    }
  }
}