{
  "address": "0x1aB456B9C609F3799C2535572f2038Eb14c61f0D",
  "abi": [
    {
      "inputs": [],
      "stateMutability": "nonpayable",
      "type": "constructor"
    },
    {
      "anonymous": false,
      "inputs": [
        {
          "indexed": true,
          "internalType": "address",
          "name": "account",
          "type": "address"
        },
        {
          "indexed": true,
          "internalType": "address",
          "name": "operator",
          "type": "address"
        },
        {
          "indexed": false,
          "internalType": "bool",
          "name": "approved",
          "type": "bool"
        }
      ],
      "name": "ApprovalForAll",
      "type": "event"
    },
    {
      "anonymous": false,
      "inputs": [
        {
          "indexed": true,
          "internalType": "address",
          "name": "claimant",
          "type": "address"
        },
        {
          "indexed": false,
          "internalType": "uint256",
          "name": "amount",
          "type": "uint256"
        },
        {
          "indexed": false,
          "internalType": "uint256",
          "name": "tokenId",
          "type": "uint256"
        }
      ],
      "name": "DividendsClaimed",
      "type": "event"
    },
    {
      "anonymous": false,
      "inputs": [
        {
          "indexed": true,
          "internalType": "address",
          "name": "depositor",
          "type": "address"
        },
        {
          "indexed": false,
          "internalType": "uint256",
          "name": "amount",
          "type": "uint256"
        },
        {
          "indexed": false,
          "internalType": "address",
          "name": "tokenAddress",
          "type": "address"
        },
        {
          "indexed": false,
          "internalType": "uint256",
          "name": "tokenId",
          "type": "uint256"
        }
      ],
      "name": "DividendsDeposited",
      "type": "event"
    },
    {
      "anonymous": false,
      "inputs": [
        {
          "indexed": false,
          "internalType": "uint8",
          "name": "version",
          "type": "uint8"
        }
      ],
      "name": "Initialized",
      "type": "event"
    },
    {
      "anonymous": false,
      "inputs": [
        {
          "indexed": false,
          "internalType": "uint256",
          "name": "id",
          "type": "uint256"
        }
      ],
      "name": "Snapshot",
      "type": "event"
    },
    {
      "anonymous": false,
      "inputs": [
        {
          "indexed": true,
          "internalType": "address",
          "name": "operator",
          "type": "address"
        },
        {
          "indexed": true,
          "internalType": "address",
          "name": "from",
          "type": "address"
        },
        {
          "indexed": true,
          "internalType": "address",
          "name": "to",
          "type": "address"
        },
        {
          "indexed": false,
          "internalType": "uint256[]",
          "name": "ids",
          "type": "uint256[]"
        },
        {
          "indexed": false,
          "internalType": "uint256[]",
          "name": "values",
          "type": "uint256[]"
        }
      ],
      "name": "TransferBatch",
      "type": "event"
    },
    {
      "anonymous": false,
      "inputs": [
        {
          "indexed": true,
          "internalType": "address",
          "name": "operator",
          "type": "address"
        },
        {
          "indexed": true,
          "internalType": "address",
          "name": "from",
          "type": "address"
        },
        {
          "indexed": true,
          "internalType": "address",
          "name": "to",
          "type": "address"
        },
        {
          "indexed": false,
          "internalType": "uint256",
          "name": "id",
          "type": "uint256"
        },
        {
          "indexed": false,
          "internalType": "uint256",
          "name": "value",
          "type": "uint256"
        }
      ],
      "name": "TransferSingle",
      "type": "event"
    },
    {
      "anonymous": false,
      "inputs": [
        {
          "indexed": false,
          "internalType": "string",
          "name": "value",
          "type": "string"
        },
        {
          "indexed": true,
          "internalType": "uint256",
          "name": "id",
          "type": "uint256"
        }
      ],
      "name": "URI",
      "type": "event"
    },
    {
      "inputs": [
        {
          "internalType": "address",
          "name": "tge",
          "type": "address"
        },
        {
          "internalType": "uint256",
          "name": "tokenId",
          "type": "uint256"
        }
      ],
      "name": "addTGE",
      "outputs": [],
      "stateMutability": "nonpayable",
      "type": "function"
    },
    {
      "inputs": [
        {
          "internalType": "address",
          "name": "account",
          "type": "address"
        },
        {
          "internalType": "uint256",
          "name": "tokenId",
          "type": "uint256"
        },
        {
          "internalType": "address",
          "name": "tse",
          "type": "address"
        }
      ],
      "name": "addTSE",
      "outputs": [],
      "stateMutability": "nonpayable",
      "type": "function"
    },
    {
      "inputs": [
        {
          "internalType": "address",
          "name": "account",
          "type": "address"
        },
        {
          "internalType": "uint256",
          "name": "id",
          "type": "uint256"
        }
      ],
      "name": "balanceOf",
      "outputs": [
        {
          "internalType": "uint256",
          "name": "",
          "type": "uint256"
        }
      ],
      "stateMutability": "view",
      "type": "function"
    },
    {
      "inputs": [
        {
          "internalType": "address",
          "name": "account",
          "type": "address"
        },
        {
          "internalType": "uint256",
          "name": "tokenId",
          "type": "uint256"
        },
        {
          "internalType": "uint256",
          "name": "snapshotId",
          "type": "uint256"
        }
      ],
      "name": "balanceOfAt",
      "outputs": [
        {
          "internalType": "uint256",
          "name": "",
          "type": "uint256"
        }
      ],
      "stateMutability": "view",
      "type": "function"
    },
    {
      "inputs": [
        {
          "internalType": "address[]",
          "name": "accounts",
          "type": "address[]"
        },
        {
          "internalType": "uint256[]",
          "name": "ids",
          "type": "uint256[]"
        }
      ],
      "name": "balanceOfBatch",
      "outputs": [
        {
          "internalType": "uint256[]",
          "name": "",
          "type": "uint256[]"
        }
      ],
      "stateMutability": "view",
      "type": "function"
    },
    {
      "inputs": [
        {
          "internalType": "address",
          "name": "from",
          "type": "address"
        },
        {
          "internalType": "uint256",
          "name": "tokenId",
          "type": "uint256"
        },
        {
          "internalType": "uint256",
          "name": "amount",
          "type": "uint256"
        }
      ],
      "name": "burn",
      "outputs": [],
      "stateMutability": "nonpayable",
      "type": "function"
    },
    {
      "inputs": [
        {
          "internalType": "uint256",
          "name": "",
          "type": "uint256"
        }
      ],
      "name": "cap",
      "outputs": [
        {
          "internalType": "uint256",
          "name": "",
          "type": "uint256"
        }
      ],
      "stateMutability": "view",
      "type": "function"
    },
    {
      "inputs": [
        {
          "internalType": "uint256",
          "name": "tokenId",
          "type": "uint256"
        }
      ],
      "name": "claimDividendsERC1155",
      "outputs": [],
      "stateMutability": "nonpayable",
      "type": "function"
    },
    {
      "inputs": [],
      "name": "compliance",
      "outputs": [
        {
          "internalType": "bytes32",
          "name": "",
          "type": "bytes32"
        }
      ],
      "stateMutability": "view",
      "type": "function"
    },
    {
      "inputs": [],
      "name": "decimals",
      "outputs": [
        {
          "internalType": "uint8",
          "name": "",
          "type": "uint8"
        }
      ],
      "stateMutability": "pure",
      "type": "function"
    },
    {
      "inputs": [
        {
          "internalType": "uint256",
          "name": "tokenId",
          "type": "uint256"
        },
        {
          "internalType": "address",
          "name": "tokenAddress",
          "type": "address"
        },
        {
          "internalType": "uint256",
          "name": "amount",
          "type": "uint256"
        }
      ],
      "name": "depositDividendsERC1155",
      "outputs": [],
      "stateMutability": "payable",
      "type": "function"
    },
    {
      "inputs": [],
      "name": "description",
      "outputs": [
        {
          "internalType": "string",
          "name": "",
          "type": "string"
        }
      ],
      "stateMutability": "view",
      "type": "function"
    },
    {
      "inputs": [
        {
          "internalType": "uint256",
          "name": "",
          "type": "uint256"
        }
      ],
      "name": "dividends",
      "outputs": [
        {
          "internalType": "uint256",
          "name": "tokenId",
          "type": "uint256"
        },
        {
          "internalType": "uint256",
          "name": "amount",
          "type": "uint256"
        },
        {
          "internalType": "uint256",
          "name": "snapshotId",
          "type": "uint256"
        },
        {
          "internalType": "address",
          "name": "tokenAddress",
          "type": "address"
        }
      ],
      "stateMutability": "view",
      "type": "function"
    },
    {
      "inputs": [
        {
          "internalType": "uint256",
          "name": "id",
          "type": "uint256"
        }
      ],
      "name": "exists",
      "outputs": [
        {
          "internalType": "bool",
          "name": "",
          "type": "bool"
        }
      ],
      "stateMutability": "view",
      "type": "function"
    },
    {
      "inputs": [
        {
          "internalType": "uint256",
          "name": "",
          "type": "uint256"
        },
        {
          "internalType": "address",
          "name": "",
          "type": "address"
        },
        {
          "internalType": "address",
          "name": "",
          "type": "address"
        }
      ],
      "name": "failedERC1155Transfers",
      "outputs": [
        {
          "internalType": "uint256",
          "name": "",
          "type": "uint256"
        }
      ],
      "stateMutability": "view",
      "type": "function"
    },
    {
      "inputs": [
        {
          "internalType": "address",
          "name": "shareholder",
          "type": "address"
        },
        {
          "internalType": "uint256",
          "name": "tokenId",
          "type": "uint256"
        }
      ],
      "name": "getOwedDividends",
      "outputs": [
        {
          "internalType": "uint256",
          "name": "",
          "type": "uint256"
        }
      ],
      "stateMutability": "view",
      "type": "function"
    },
    {
      "inputs": [
        {
          "internalType": "uint256",
          "name": "tokenId",
          "type": "uint256"
        }
      ],
      "name": "getTGEList",
      "outputs": [
        {
          "internalType": "address[]",
          "name": "",
          "type": "address[]"
        }
      ],
      "stateMutability": "view",
      "type": "function"
    },
    {
      "inputs": [
        {
          "internalType": "uint256",
          "name": "tokenId",
          "type": "uint256"
        }
      ],
      "name": "getTgeWithLockedTokensList",
      "outputs": [
        {
          "internalType": "address[]",
          "name": "",
          "type": "address[]"
        }
      ],
      "stateMutability": "view",
      "type": "function"
    },
    {
      "inputs": [
        {
          "internalType": "uint256",
          "name": "tokenId",
          "type": "uint256"
        }
      ],
      "name": "getTotalProtocolFeeReserved",
      "outputs": [
        {
          "internalType": "uint256",
          "name": "",
          "type": "uint256"
        }
      ],
      "stateMutability": "view",
      "type": "function"
    },
    {
      "inputs": [
        {
          "internalType": "uint256",
          "name": "tokenId",
          "type": "uint256"
        }
      ],
      "name": "getTotalTGEVestedTokens",
      "outputs": [
        {
          "internalType": "uint256",
          "name": "",
          "type": "uint256"
        }
      ],
      "stateMutability": "view",
      "type": "function"
    },
    {
      "inputs": [
        {
          "internalType": "uint256",
          "name": "limit",
          "type": "uint256"
        },
        {
          "internalType": "uint256",
          "name": "offset",
          "type": "uint256"
        }
      ],
      "name": "getURIList",
      "outputs": [
        {
          "internalType": "string[]",
          "name": "",
          "type": "string[]"
        }
      ],
      "stateMutability": "view",
      "type": "function"
    },
    {
      "inputs": [
        {
          "internalType": "contract IService",
          "name": "_service",
          "type": "address"
        },
        {
          "internalType": "address",
          "name": "_pool",
          "type": "address"
        },
        {
          "components": [
            {
              "internalType": "enum IToken.TokenType",
              "name": "tokenType",
              "type": "uint8"
            },
            {
              "internalType": "string",
              "name": "name",
              "type": "string"
            },
            {
              "internalType": "string",
              "name": "symbol",
              "type": "string"
            },
            {
              "internalType": "string",
              "name": "description",
              "type": "string"
            },
            {
              "internalType": "uint256",
              "name": "cap",
              "type": "uint256"
            },
            {
              "internalType": "uint8",
              "name": "decimals",
              "type": "uint8"
            }
          ],
          "internalType": "struct IToken.TokenInfo",
          "name": "_info",
          "type": "tuple"
        },
        {
          "internalType": "address",
          "name": "_primaryTGE",
          "type": "address"
        }
      ],
      "name": "initialize",
      "outputs": [],
      "stateMutability": "nonpayable",
      "type": "function"
    },
    {
      "inputs": [
        {
          "internalType": "address",
          "name": "account",
          "type": "address"
        },
        {
          "internalType": "address",
          "name": "operator",
          "type": "address"
        }
      ],
      "name": "isApprovedForAll",
      "outputs": [
        {
          "internalType": "bool",
          "name": "",
          "type": "bool"
        }
      ],
      "stateMutability": "view",
      "type": "function"
    },
    {
      "inputs": [],
      "name": "isERC1155",
      "outputs": [
        {
          "internalType": "bool",
          "name": "",
          "type": "bool"
        }
      ],
      "stateMutability": "pure",
      "type": "function"
    },
    {
      "inputs": [
        {
          "internalType": "uint256",
          "name": "_tokenId",
          "type": "uint256"
        }
      ],
      "name": "isPrimaryTGESuccessful",
      "outputs": [
        {
          "internalType": "bool",
          "name": "",
          "type": "bool"
        }
      ],
      "stateMutability": "view",
      "type": "function"
    },
    {
      "inputs": [
        {
          "internalType": "address",
          "name": "",
          "type": "address"
        },
        {
          "internalType": "uint256",
          "name": "",
          "type": "uint256"
        }
      ],
      "name": "lastDividendsClaimedIndex",
      "outputs": [
        {
          "internalType": "uint256",
          "name": "",
          "type": "uint256"
        }
      ],
      "stateMutability": "view",
      "type": "function"
    },
    {
      "inputs": [
        {
          "internalType": "uint256",
          "name": "tokenId",
          "type": "uint256"
        }
      ],
      "name": "lastTGE",
      "outputs": [
        {
          "internalType": "address",
          "name": "",
          "type": "address"
        }
      ],
      "stateMutability": "view",
      "type": "function"
    },
    {
      "inputs": [],
      "name": "lastTokenId",
      "outputs": [
        {
          "internalType": "uint256",
          "name": "",
          "type": "uint256"
        }
      ],
      "stateMutability": "view",
      "type": "function"
    },
    {
      "inputs": [
        {
          "internalType": "address",
          "name": "to",
          "type": "address"
        },
        {
          "internalType": "uint256",
          "name": "tokenId",
          "type": "uint256"
        },
        {
          "internalType": "uint256",
          "name": "amount",
          "type": "uint256"
        }
      ],
      "name": "mint",
      "outputs": [],
      "stateMutability": "nonpayable",
      "type": "function"
    },
    {
      "inputs": [],
      "name": "name",
      "outputs": [
        {
          "internalType": "string",
          "name": "",
          "type": "string"
        }
      ],
      "stateMutability": "view",
      "type": "function"
    },
    {
      "inputs": [],
      "name": "partnerAddress",
      "outputs": [
        {
          "internalType": "address",
          "name": "",
          "type": "address"
        }
      ],
      "stateMutability": "view",
      "type": "function"
    },
    {
      "inputs": [],
      "name": "partnerFee",
      "outputs": [
        {
          "internalType": "uint256",
          "name": "",
          "type": "uint256"
        }
      ],
      "stateMutability": "view",
      "type": "function"
    },
    {
      "inputs": [],
      "name": "pool",
      "outputs": [
        {
          "internalType": "address",
          "name": "",
          "type": "address"
        }
      ],
      "stateMutability": "view",
      "type": "function"
    },
    {
      "inputs": [
        {
          "internalType": "uint256",
          "name": "tokenId",
          "type": "uint256"
        },
        {
          "internalType": "address",
          "name": "tokenAddress",
          "type": "address"
        }
      ],
      "name": "retryFailedERC1155Transfers",
      "outputs": [],
      "stateMutability": "nonpayable",
      "type": "function"
    },
    {
      "inputs": [
        {
          "internalType": "address",
          "name": "from",
          "type": "address"
        },
        {
          "internalType": "address",
          "name": "to",
          "type": "address"
        },
        {
          "internalType": "uint256[]",
          "name": "ids",
          "type": "uint256[]"
        },
        {
          "internalType": "uint256[]",
          "name": "amounts",
          "type": "uint256[]"
        },
        {
          "internalType": "bytes",
          "name": "data",
          "type": "bytes"
        }
      ],
      "name": "safeBatchTransferFrom",
      "outputs": [],
      "stateMutability": "nonpayable",
      "type": "function"
    },
    {
      "inputs": [
        {
          "internalType": "address",
          "name": "from",
          "type": "address"
        },
        {
          "internalType": "address",
          "name": "to",
          "type": "address"
        },
        {
          "internalType": "uint256",
          "name": "id",
          "type": "uint256"
        },
        {
          "internalType": "uint256",
          "name": "amount",
          "type": "uint256"
        },
        {
          "internalType": "bytes",
          "name": "data",
          "type": "bytes"
        }
      ],
      "name": "safeTransferFrom",
      "outputs": [],
      "stateMutability": "nonpayable",
      "type": "function"
    },
    {
      "inputs": [],
      "name": "service",
      "outputs": [
        {
          "internalType": "contract IService",
          "name": "",
          "type": "address"
        }
      ],
      "stateMutability": "view",
      "type": "function"
    },
    {
      "inputs": [
        {
          "internalType": "address",
          "name": "operator",
          "type": "address"
        },
        {
          "internalType": "bool",
          "name": "approved",
          "type": "bool"
        }
      ],
      "name": "setApprovalForAll",
      "outputs": [],
      "stateMutability": "nonpayable",
      "type": "function"
    },
    {
      "inputs": [
        {
          "internalType": "bytes32",
          "name": "compliance_",
          "type": "bytes32"
        }
      ],
      "name": "setCompliance",
      "outputs": [],
      "stateMutability": "nonpayable",
      "type": "function"
    },
    {
      "inputs": [
        {
          "internalType": "uint256",
          "name": "tokenId",
          "type": "uint256"
        }
      ],
      "name": "setLastTokenId",
      "outputs": [],
      "stateMutability": "nonpayable",
      "type": "function"
    },
    {
      "inputs": [
        {
          "internalType": "address",
          "name": "_partnerAddress",
          "type": "address"
        },
        {
          "internalType": "uint256",
          "name": "_partnerFee",
          "type": "uint256"
        }
      ],
      "name": "setPartnerFee",
      "outputs": [],
      "stateMutability": "nonpayable",
      "type": "function"
    },
    {
      "inputs": [
        {
          "internalType": "uint256",
          "name": "amount",
          "type": "uint256"
        },
        {
          "internalType": "uint256",
          "name": "tokenId",
          "type": "uint256"
        }
      ],
      "name": "setProtocolFeeReserved",
      "outputs": [],
      "stateMutability": "nonpayable",
      "type": "function"
    },
    {
      "inputs": [
        {
          "internalType": "uint256",
          "name": "amount",
          "type": "uint256"
        },
        {
          "internalType": "uint256",
          "name": "tokenId",
          "type": "uint256"
        }
      ],
      "name": "setTGEVestedTokens",
      "outputs": [],
      "stateMutability": "nonpayable",
      "type": "function"
    },
    {
      "inputs": [
        {
          "internalType": "uint256",
          "name": "_tokenId",
          "type": "uint256"
        },
        {
          "internalType": "uint256",
          "name": "_cap",
          "type": "uint256"
        }
      ],
      "name": "setTokenIdCap",
      "outputs": [],
      "stateMutability": "nonpayable",
      "type": "function"
    },
    {
      "inputs": [
        {
          "internalType": "uint256",
          "name": "tokenId",
          "type": "uint256"
        },
        {
          "internalType": "string",
          "name": "tokenURI",
          "type": "string"
        }
      ],
      "name": "setURI",
      "outputs": [],
      "stateMutability": "nonpayable",
      "type": "function"
    },
    {
      "inputs": [
        {
          "internalType": "bytes4",
          "name": "interfaceId",
          "type": "bytes4"
        }
      ],
      "name": "supportsInterface",
      "outputs": [
        {
          "internalType": "bool",
          "name": "",
          "type": "bool"
        }
      ],
      "stateMutability": "view",
      "type": "function"
    },
    {
      "inputs": [],
      "name": "symbol",
      "outputs": [
        {
          "internalType": "string",
          "name": "",
          "type": "string"
        }
      ],
      "stateMutability": "view",
      "type": "function"
    },
    {
      "inputs": [
        {
          "internalType": "uint256",
          "name": "",
          "type": "uint256"
        },
        {
          "internalType": "uint256",
          "name": "",
          "type": "uint256"
        }
      ],
      "name": "tgeList",
      "outputs": [
        {
          "internalType": "address",
          "name": "",
          "type": "address"
        }
      ],
      "stateMutability": "view",
      "type": "function"
    },
    {
      "inputs": [],
      "name": "tokenType",
      "outputs": [
        {
          "internalType": "enum IToken.TokenType",
          "name": "",
          "type": "uint8"
        }
      ],
      "stateMutability": "view",
      "type": "function"
    },
    {
      "inputs": [
        {
          "internalType": "uint256",
          "name": "id",
          "type": "uint256"
        }
      ],
      "name": "totalSupply",
      "outputs": [
        {
          "internalType": "uint256",
          "name": "",
          "type": "uint256"
        }
      ],
      "stateMutability": "view",
      "type": "function"
    },
    {
      "inputs": [
        {
          "internalType": "uint256",
          "name": "tokenId",
          "type": "uint256"
        },
        {
          "internalType": "uint256",
          "name": "snapshotId",
          "type": "uint256"
        }
      ],
      "name": "totalSupplyAt",
      "outputs": [
        {
          "internalType": "uint256",
          "name": "",
          "type": "uint256"
        }
      ],
      "stateMutability": "view",
      "type": "function"
    },
    {
      "inputs": [
        {
          "internalType": "uint256",
          "name": "tokenId",
          "type": "uint256"
        }
      ],
      "name": "totalSupplyWithReserves",
      "outputs": [
        {
          "internalType": "uint256",
          "name": "",
          "type": "uint256"
        }
      ],
      "stateMutability": "view",
      "type": "function"
    },
    {
      "inputs": [
        {
          "internalType": "address",
          "name": "from",
          "type": "address"
        },
        {
          "internalType": "address",
          "name": "to",
          "type": "address"
        },
        {
          "internalType": "uint256",
          "name": "tokenId",
          "type": "uint256"
        },
        {
          "internalType": "uint256",
          "name": "amount",
          "type": "uint256"
        }
      ],
      "name": "transfer",
      "outputs": [],
      "stateMutability": "nonpayable",
      "type": "function"
    },
    {
      "inputs": [
        {
          "internalType": "uint256",
          "name": "",
          "type": "uint256"
        },
        {
          "internalType": "address",
          "name": "",
          "type": "address"
        },
        {
          "internalType": "uint256",
          "name": "",
          "type": "uint256"
        }
      ],
      "name": "tseList",
      "outputs": [
        {
          "internalType": "address",
          "name": "",
          "type": "address"
        }
      ],
      "stateMutability": "view",
      "type": "function"
    },
    {
      "inputs": [
        {
          "internalType": "address",
          "name": "account",
          "type": "address"
        },
        {
          "internalType": "uint256",
          "name": "tokenId",
          "type": "uint256"
        }
      ],
      "name": "unlockedBalanceOf",
      "outputs": [
        {
          "internalType": "uint256",
          "name": "",
          "type": "uint256"
        }
      ],
      "stateMutability": "view",
      "type": "function"
    },
    {
      "inputs": [
        {
          "internalType": "uint256",
          "name": "tokenId",
          "type": "uint256"
        }
      ],
      "name": "uri",
      "outputs": [
        {
          "internalType": "string",
          "name": "",
          "type": "string"
        }
      ],
      "stateMutability": "view",
      "type": "function"
    },
    {
      "stateMutability": "payable",
      "type": "receive"
    }
  ],
  "transactionHash": "0xf81e6dc5385131228300b9821b22618b682dff9da64ecb372bedbc11805bbe88",
  "args": [],
  "numDeployments": 5,
  "solcInputHash": "473adc00f3960c769aceca8ae8cbef7e",
  "bytecode": "0x60806040523480156200001157600080fd5b506200001c62000022565b620000e4565b600054610100900460ff16156200008f5760405162461bcd60e51b815260206004820152602760248201527f496e697469616c697a61626c653a20636f6e747261637420697320696e697469604482015266616c697a696e6760c81b606482015260840160405180910390fd5b60005460ff9081161015620000e2576000805460ff191660ff9081179091556040519081527f7f26b83ff96e1f2b6a682f133852f6798a09c465da95921460cefb38474024989060200160405180910390a15b565b615bf880620000f46000396000f3fe60806040526004361061036e5760003560e01c8063626da068116101c6578063bd85b039116100f7578063da7b5f5311610095578063f242432a1161006f578063f242432a14610aef578063f5298aca14610b0f578063f84ddf0b14610b2f578063ff2ad8e414610b4657600080fd5b8063da7b5f5314610a66578063e81f35fd14610a86578063e985e9c514610aa657600080fd5b8063c9a6d8c8116100d1578063c9a6d8c8146109d7578063cb4d10fe146109f7578063d3489a9e14610a17578063d598d4c914610a4557600080fd5b8063bd85b0391461094b578063c08056ea14610978578063c856e7d11461099857600080fd5b80638aa7a8b011610164578063a22cb4651161013e578063a22cb465146108cb578063ac5e23c3146108eb578063adf3ebc61461090b578063bbb859d51461092b57600080fd5b80638aa7a8b0146108765780638eeaaed91461089657806395d89b41146108b657600080fd5b80636edfd7c2116101a05780636edfd7c2146107d85780637284e416146107f8578063814b3fe01461080d578063862440e21461085657600080fd5b8063626da068146107815780636290865d146107a15780636329c796146107b857600080fd5b80632eb2c2d6116102a05780634e1273f41161023e5780635ab73849116102185780635ab73849146106f15780635ac9902a1461072a5780635b67aec61461074a5780635b99176c1461076a57600080fd5b80634e1273f4146106745780634f558e79146106a1578063576168fc146106d057600080fd5b806337a4dba51161027a57806337a4dba5146105da578063455dd188146105fa578063468b3b33146106275780634a2ef42f1461064757600080fd5b80632eb2c2d61461056f57806330fa738c1461058f578063313ce567146105be57600080fd5b806316f0115b1161030d5780631d7a63ae116102e75780631d7a63ae146104ee57806328a477bf1461050e5780632e6907a31461053c5780632e7864be1461055c57600080fd5b806316f0115b14610481578063188ada3d146104ba5780631bd0b616146104da57600080fd5b806306fdde031161034957806306fdde03146103ff5780630e89341c1461042157806314c5238f14610441578063156e29f61461046157600080fd5b8062fdd58e1461037a57806301ffc9a7146103ad5780630411b252146103dd57600080fd5b3661037557005b600080fd5b34801561038657600080fd5b5061039a610395366004614d49565b610b74565b6040519081526020015b60405180910390f35b3480156103b957600080fd5b506103cd6103c8366004614d8b565b610c0f565b60405190151581526020016103a4565b3480156103e957600080fd5b506103fd6103f8366004614da8565b610c5f565b005b34801561040b57600080fd5b50610414610d30565b6040516103a49190614e34565b34801561042d57600080fd5b5061041461043c366004614e47565b610dbf565b34801561044d57600080fd5b506103cd61045c366004614e47565b610e62565b34801561046d57600080fd5b506103fd61047c366004614e60565b610f22565b34801561048d57600080fd5b50610135546104a2906001600160a01b031681565b6040516001600160a01b0390911681526020016103a4565b3480156104c657600080fd5b506103fd6104d5366004614e95565b61110b565b3480156104e657600080fd5b5060016103cd565b3480156104fa57600080fd5b506103fd610509366004614e95565b6112e6565b34801561051a57600080fd5b5061039a610529366004614e47565b6000908152610139602052604090205490565b34801561054857600080fd5b506104a2610557366004614e95565b611420565b6103fd61056a366004614eb7565b611459565b34801561057b57600080fd5b506103fd61058a366004615060565b61193c565b34801561059b57600080fd5b50610135546105b190600160a01b900460ff1681565b6040516103a49190615123565b3480156105ca57600080fd5b50604051600081526020016103a4565b3480156105e657600080fd5b506103fd6105f5366004614d49565b611981565b34801561060657600080fd5b5061061a610615366004614e47565b611c3d565b6040516103a4919061514b565b34801561063357600080fd5b5061039a610642366004614d49565b611ca9565b34801561065357600080fd5b50610667610662366004614e95565b611de9565b6040516103a49190615198565b34801561068057600080fd5b5061069461068f3660046151fa565b611f3e565b6040516103a49190615301565b3480156106ad57600080fd5b506103cd6106bc366004614e47565b600090815260976020526040902054151590565b3480156106dc57600080fd5b5061013f546104a2906001600160a01b031681565b3480156106fd57600080fd5b5061039a61070c366004614d49565b61014160209081526000928352604080842090915290825290205481565b34801561073657600080fd5b5061061a610745366004614e47565b61205f565b34801561075657600080fd5b506103fd610765366004614e95565b6120ca565b34801561077657600080fd5b5061039a61013e5481565b34801561078d57600080fd5b5061039a61079c366004614e60565b6121b0565b3480156107ad57600080fd5b5061039a61013d5481565b3480156107c457600080fd5b506103fd6107d3366004615314565b612202565b3480156107e457600080fd5b506103fd6107f3366004614e47565b612347565b34801561080457600080fd5b50610414612592565b34801561081957600080fd5b5061082d610828366004614e47565b6125a0565b604080519485526020850193909352918301526001600160a01b031660608201526080016103a4565b34801561086257600080fd5b506103fd610871366004615344565b6125e4565b34801561088257600080fd5b5061039a610891366004614e95565b612716565b3480156108a257600080fd5b506103fd6108b1366004614d49565b612758565b3480156108c257600080fd5b5061041461288c565b3480156108d757600080fd5b506103fd6108e636600461538e565b61289a565b3480156108f757600080fd5b506103fd6109063660046153e5565b6128a5565b34801561091757600080fd5b5061039a610926366004614e47565b612af4565b34801561093757600080fd5b506103fd6109463660046154fc565b612b35565b34801561095757600080fd5b5061039a610966366004614e47565b60009081526097602052604090205490565b34801561098457600080fd5b5061039a610993366004614d49565b612c50565b3480156109a457600080fd5b5061039a6109b336600461553e565b61014260209081526000938452604080852082529284528284209052825290205481565b3480156109e357600080fd5b506103fd6109f2366004614e47565b612d5e565b348015610a0357600080fd5b506104a2610a12366004614e47565b613028565b348015610a2357600080fd5b5061039a610a32366004614e47565b600090815261013b602052604090205490565b348015610a5157600080fd5b50610130546104a2906001600160a01b031681565b348015610a7257600080fd5b506104a2610a81366004614eb7565b613070565b348015610a9257600080fd5b506103fd610aa1366004614e47565b6130b6565b348015610ab257600080fd5b506103cd610ac1366004615575565b6001600160a01b03918216600090815260666020908152604080832093909416825291909152205460ff1690565b348015610afb57600080fd5b506103fd610b0a3660046155a3565b6131ef565b348015610b1b57600080fd5b506103fd610b2a366004614e60565b613234565b348015610b3b57600080fd5b5061039a6101345481565b348015610b5257600080fd5b5061039a610b61366004614e47565b6101336020526000908152604090205481565b60006001600160a01b038316610be45760405162461bcd60e51b815260206004820152602a60248201527f455243313135353a2061646472657373207a65726f206973206e6f742061207660448201526930b634b21037bbb732b960b11b60648201526084015b60405180910390fd5b5060008181526065602090815260408083206001600160a01b03861684529091529020545b92915050565b60006001600160e01b03198216636cdb3d1360e11b1480610c4057506001600160e01b031982166303a24d0760e21b145b80610c0957506301ffc9a760e01b6001600160e01b0319831614610c09565b61013560009054906101000a90046001600160a01b03166001600160a01b0316635c975abb6040518163ffffffff1660e01b8152600401602060405180830381865afa158015610cb3573d6000803e3d6000fd5b505050506040513d601f19601f82011682018060405250810190610cd7919061560b565b156040518060400160405280600e81526020016d14d154959250d157d4105554d15160921b81525090610d1d5760405162461bcd60e51b8152600401610bdb9190614e34565b50610d2a84848484613605565b50505050565b6101368054610d3e90615628565b80601f0160208091040260200160405190810160405280929190818152602001828054610d6a90615628565b8015610db75780601f10610d8c57610100808354040283529160200191610db7565b820191906000526020600020905b815481529060010190602001808311610d9a57829003601f168201915b505050505081565b600081815261013260205260409020805460609190610ddd90615628565b80601f0160208091040260200160405190810160405280929190818152602001828054610e0990615628565b8015610e565780601f10610e2b57610100808354040283529160200191610e56565b820191906000526020600020905b815481529060010190602001808311610e3957829003601f168201915b50505050509050919050565b600061013454821115610e7757506000919050565b600082815261013860205260408120805460029290610e9857610e98615662565b600091825260209182902001546040805163c19d93fb60e01b815290516001600160a01b039092169263c19d93fb926004808401938290030181865afa158015610ee6573d6000803e3d6000fd5b505050506040513d601f19601f82011682018060405250810190610f0a9190615678565b6002811115610f1b57610f1b61510d565b1492915050565b6101305460408051637b10399960e01b815290516000926004926001600160a01b0390911691637b1039999180850191602091819003860181865afa158015610f6f573d6000803e3d6000fd5b505050506040513d601f19601f82011682018060405250810190610f939190615695565b604051630db9619f60e31b81523360048201526001600160a01b039190911690636dcb0cf890602401602060405180830381865afa158015610fd9573d6000803e3d6000fd5b505050506040513d601f19601f82011682018060405250810190610ffd91906156b2565b600481111561100e5761100e61510d565b1490506000336001600160a01b031661013060009054906101000a90046001600160a01b03166001600160a01b03166344c63eec6040518163ffffffff1660e01b8152600401602060405180830381865afa158015611071573d6000803e3d6000fd5b505050506040513d601f19601f820116820180604052508101906110959190615695565b6001600160a01b031614905081806110aa5750805b604051806040016040528060078152602001664e4f545f54474560c81b815250906110e85760405162461bcd60e51b8152600401610bdb9190614e34565b50611104858585604051806020016040528060008152506136e0565b5050505050565b6101305460408051637b10399960e01b815290516000926004926001600160a01b0390911691637b1039999180850191602091819003860181865afa158015611158573d6000803e3d6000fd5b505050506040513d601f19601f8201168201806040525081019061117c9190615695565b604051630db9619f60e31b81523360048201526001600160a01b039190911690636dcb0cf890602401602060405180830381865afa1580156111c2573d6000803e3d6000fd5b505050506040513d601f19601f820116820180604052508101906111e691906156b2565b60048111156111f7576111f761510d565b1490506000336001600160a01b031661013060009054906101000a90046001600160a01b03166001600160a01b03166344c63eec6040518163ffffffff1660e01b8152600401602060405180830381865afa15801561125a573d6000803e3d6000fd5b505050506040513d601f19601f8201168201806040525081019061127e9190615695565b6001600160a01b031614905081806112935750805b604051806040016040528060078152602001664e4f545f54474560c81b815250906112d15760405162461bcd60e51b8152600401610bdb9190614e34565b50505060009081526101396020526040902055565b6101305460408051637b10399960e01b815290516004926001600160a01b031691637b103999918185019160209190819003860181865afa15801561132f573d6000803e3d6000fd5b505050506040513d601f19601f820116820180604052508101906113539190615695565b604051630db9619f60e31b81523360048201526001600160a01b039190911690636dcb0cf890602401602060405180830381865afa158015611399573d6000803e3d6000fd5b505050506040513d601f19601f820116820180604052508101906113bd91906156b2565b60048111156113ce576113ce61510d565b14604051806040016040528060078152602001664e4f545f54474560c81b8152509061140d5760405162461bcd60e51b8152600401610bdb9190614e34565b50600090815261013b6020526040902055565b610138602052816000526040600020818154811061143d57600080fd5b6000918252602090912001546001600160a01b03169150829050565b611461613805565b60006001600160a01b0383166114be57600034116114b75760405162461bcd60e51b8152602060048201526013602482015272139bc8115d1a195c881d1bc819195c1bdcda5d606a1b6044820152606401610bdb565b50346116bf565b6000821161150e5760405162461bcd60e51b815260206004820152601d60248201527f416d6f756e74206d7573742062652067726561746572207468616e20300000006044820152606401610bdb565b6040516370a0823160e01b81523060048201526000906001600160a01b038516906370a0823190602401602060405180830381865afa158015611555573d6000803e3d6000fd5b505050506040513d601f19601f8201168201806040525081019061157991906156d3565b6040516323b872dd60e01b8152336004820152306024820152604481018590529091506001600160a01b038516906323b872dd906064016020604051808303816000875af11580156115cf573d6000803e3d6000fd5b505050506040513d601f19601f820116820180604052508101906115f3919061560b565b506040516370a0823160e01b81523060048201526000906001600160a01b038616906370a0823190602401602060405180830381865afa15801561163b573d6000803e3d6000fd5b505050506040513d601f19601f8201168201806040525081019061165f91906156d3565b905061166b8282615702565b92508383146116bc5760405162461bcd60e51b815260206004820152601760248201527f4465706f73697420616d6f756e74206d69736d617463680000000000000000006044820152606401610bdb565b50505b60006116c961385e565b6040805160808101825287815260208082018681528284018581526001600160a01b038a811660608601908152610140805460018101825560009190915295517f36eddf535f8049bd44c95b98fba53efacad21cb65d066f50b4d05adad523e77c60049788029081019190915593517f36eddf535f8049bd44c95b98fba53efacad21cb65d066f50b4d05adad523e77d85015591517f36eddf535f8049bd44c95b98fba53efacad21cb65d066f50b4d05adad523e77e84015590517f36eddf535f8049bd44c95b98fba53efacad21cb65d066f50b4d05adad523e77f90920180546001600160a01b03191692821692909217909155610130548451637b10399960e01b815294519596501693637b1039999380840193908290030181865afa1580156117f9573d6000803e3d6000fd5b505050506040513d601f19601f8201168201806040525081019061181d9190615695565b6001600160a01b0316634dbb83fd33306000632e7864be60e01b8a8a8a604051602401611866939291909283526001600160a01b03919091166020830152604082015260600190565b60408051601f198184030181529181526020820180516001600160e01b03166001600160e01b03199485161790525160e087901b90921682526118ae94939291600401615715565b600060405180830381600087803b1580156118c857600080fd5b505af11580156118dc573d6000803e3d6000fd5b5050604080518581526001600160a01b03881660208201529081018890523392507fe87a7f6bbd2ce42cec2065fb4160996ac8263da13d2847932aea77569047981f915060600160405180910390a25050611937600160fe55565b505050565b6001600160a01b03851633148061195857506119588533610ac1565b6119745760405162461bcd60e51b8152600401610bdb90615748565b61110485858585856138c0565b61013060009054906101000a90046001600160a01b03166001600160a01b031663102c5c016040518163ffffffff1660e01b8152600401602060405180830381865afa1580156119d5573d6000803e3d6000fd5b505050506040513d601f19601f820116820180604052508101906119f99190615695565b6001600160a01b0316336001600160a01b03161480611af057506101305460408051631d6c8e3f60e21b815290516001600160a01b03909216916391d148549183916375b238fc916004808201926020929091908290030181865afa158015611a66573d6000803e3d6000fd5b505050506040513d601f19601f82011682018060405250810190611a8a91906156d3565b6040516001600160e01b031960e084901b1681526004810191909152336024820152604401602060405180830381865afa158015611acc573d6000803e3d6000fd5b505050506040513d601f19601f82011682018060405250810190611af0919061560b565b80611bd35750610130546040805163c979e8a760e01b815290516001600160a01b03909216916391d1485491839163c979e8a7916004808201926020929091908290030181865afa158015611b49573d6000803e3d6000fd5b505050506040513d601f19601f82011682018060405250810190611b6d91906156d3565b6040516001600160e01b031960e084901b1681526004810191909152336024820152604401602060405180830381865afa158015611baf573d6000803e3d6000fd5b505050506040513d601f19601f82011682018060405250810190611bd3919061560b565b6040518060400160405280600b81526020016a4e4f545f5345525649434560a81b81525090611c155760405162461bcd60e51b8152600401610bdb9190614e34565b5061013e5561013f80546001600160a01b0319166001600160a01b0392909216919091179055565b600081815261013a6020908152604091829020805483518184028101840190945280845260609392830182828015610e5657602002820191906000526020600020905b81546001600160a01b03168152600190910190602001808311611c805750505050509050919050565b600080611cb68484610b74565b600084815261013a6020908152604080832080548251818502810185019093528083529495509293909291830182828015611d1a57602002820191906000526020600020905b81546001600160a01b03168152600190910190602001808311611cfc575b505050505090506000805b8251811015611dd457828181518110611d4057611d40615662565b6020908102919091010151604051632c9aab9b60e11b81526001600160a01b03898116600483015290911690635935573690602401602060405180830381865afa158015611d92573d6000803e3d6000fd5b505050506040513d601f19601f82011682018060405250810190611db691906156d3565b611dc09083615796565b915080611dcc816157a9565b915050611d25565b50611ddf8184615702565b9695505050505050565b60606000836001600160401b03811115611e0557611e05614eef565b604051908082528060200260200182016040528015611e3857816020015b6060815260200190600190039081611e235790505b50905060005b8481108015611e505750610134548111155b15611f36576101326000611e648387615796565b611e6f906001615796565b81526020019081526020016000208054611e8890615628565b80601f0160208091040260200160405190810160405280929190818152602001828054611eb490615628565b8015611f015780601f10611ed657610100808354040283529160200191611f01565b820191906000526020600020905b815481529060010190602001808311611ee457829003601f168201915b5050505050828281518110611f1857611f18615662565b60200260200101819052508080611f2e906157a9565b915050611e3e565b509392505050565b60608151835114611fa35760405162461bcd60e51b815260206004820152602960248201527f455243313135353a206163636f756e747320616e6420696473206c656e677468604482015268040dad2e6dac2e8c6d60bb1b6064820152608401610bdb565b600083516001600160401b03811115611fbe57611fbe614eef565b604051908082528060200260200182016040528015611fe7578160200160208202803683370190505b50905060005b8451811015611f365761203285828151811061200b5761200b615662565b602002602001015185838151811061202557612025615662565b6020026020010151610b74565b82828151811061204457612044615662565b6020908102919091010152612058816157a9565b9050611fed565b60008181526101386020908152604091829020805483518184028101840190945280845260609392830182828015610e56576020028201919060005260206000209081546001600160a01b03168152600190910190602001808311611c805750505050509050919050565b61013060009054906101000a90046001600160a01b03166001600160a01b031663102c5c016040518163ffffffff1660e01b8152600401602060405180830381865afa15801561211e573d6000803e3d6000fd5b505050506040513d601f19601f820116820180604052508101906121429190615695565b6001600160a01b0316336001600160a01b0316146040518060400160405280600f81526020016e4e4f545f5447455f464143544f525960881b8152509061219c5760405162461bcd60e51b8152600401610bdb9190614e34565b506000918252610133602052604090912055565b600082815260c9602090815260408083206001600160a01b03871684529091528120819081906121e1908590613aae565b91509150816121f9576121f48686610b74565b611ddf565b95945050505050565b61220a613805565b60008281526101426020908152604080832033845282528083206001600160a01b03851684529091529020548061229a5760405162461bcd60e51b815260206004820152602e60248201527f4e6f206661696c6564207472616e736665727320666f72207468697320746f6b60448201526d195b88185b99081d1bdad95b925960921b6064820152608401610bdb565b60405163a9059cbb60e01b8152336004820152602481018290526001600160a01b0383169063a9059cbb906044016020604051808303816000875af11580156122e7573d6000803e3d6000fd5b505050506040513d601f19601f8201168201806040525081019061230b919061560b565b505060008281526101426020908152604080832033845282528083206001600160a01b0385168452909152812055612343600160fe55565b5050565b61234f613805565b33600090815261014160209081526040808320848452909152812054805b61014054811015612547576000610140828154811061238e5761238e615662565b90600052602060002090600402019050848160000154146123af5750612535565b60006123c0338784600201546121b0565b905060006123d2878460020154612716565b60018401546123e190846157c2565b6123eb91906157d9565b60038401549091506001600160a01b031661243f57604051339082156108fc029083906000818181858888f1935050505015801561242d573d6000803e3d6000fd5b506124388187615796565b955061250a565b600383015460405163a9059cbb60e01b8152336004820152602481018390526001600160a01b039091169063a9059cbb906044016020604051808303816000875af19250505080156124ae575060408051601f3d908101601f191682019092526124ab9181019061560b565b60015b6124fc57600087815261014260209081526040808320338452825280832060038701546001600160a01b03168452909152812080548392906124f1908490615796565b9091555061250a9050565b506125078187615796565b95505b612515846001615796565b336000908152610141602090815260408083208b84529091529020555050505b8061253f816157a9565b91505061236d565b50604080518381526020810185905233917f4564c5b058f69e7dcd0937715686b0e7e519875481b651ebfab2eef281268f23910160405180910390a2505061258f600160fe55565b50565b6101378054610d3e90615628565b61014081815481106125b157600080fd5b6000918252602090912060049091020180546001820154600283015460039093015491935091906001600160a01b031684565b6101305460408051637b10399960e01b815290516004926001600160a01b031691637b103999918185019160209190819003860181865afa15801561262d573d6000803e3d6000fd5b505050506040513d601f19601f820116820180604052508101906126519190615695565b604051630db9619f60e31b81523360048201526001600160a01b039190911690636dcb0cf890602401602060405180830381865afa158015612697573d6000803e3d6000fd5b505050506040513d601f19601f820116820180604052508101906126bb91906156b2565b60048111156126cc576126cc61510d565b14604051806040016040528060078152602001664e4f545f54474560c81b8152509061270b5760405162461bcd60e51b8152600401610bdb9190614e34565b506123438282613ba6565b600082815260ca6020526040812081908190612733908590613aae565b9150915081612750576000858152609760205260409020546121f9565b949350505050565b61013060009054906101000a90046001600160a01b03166001600160a01b031663102c5c016040518163ffffffff1660e01b8152600401602060405180830381865afa1580156127ac573d6000803e3d6000fd5b505050506040513d601f19601f820116820180604052508101906127d09190615695565b6001600160a01b0316336001600160a01b0316146040518060400160405280600f81526020016e4e4f545f5447455f464143544f525960881b8152509061282a5760405162461bcd60e51b8152600401610bdb9190614e34565b506000818152610138602090815260408083208054600181810183559185528385200180546001600160a01b039097166001600160a01b0319978816811790915594845261013a83529083208054918201815583529120018054909216179055565b6101318054610d3e90615628565b612343338383613c04565b600054610100900460ff16158080156128c55750600054600160ff909116105b806128df5750303b1580156128df575060005460ff166001145b6129425760405162461bcd60e51b815260206004820152602e60248201527f496e697469616c697a61626c653a20636f6e747261637420697320616c72656160448201526d191e481a5b9a5d1a585b1a5e995960921b6064820152608401610bdb565b6000805460ff191660011790558015612965576000805461ff0019166101001790555b61296d613ce4565b612975613d15565b6020830151610136906129889082615841565b5060408301516101319061299c9082615841565b506060830151610137906129b09082615841565b5060016101348181557fb0eddd8865910728a90337cb025204a1a4e1d4c254f617ee98edd09c6b3128b380548084019091557f62ec97217202319b017591bc200776f8d013dcb58afb63f0f194f9fde30eb0ca0180546001600160a01b0386166001600160a01b031991821681179092559154600090815261013a6020908152604082208054958601815582529020909201805490911690911790558251610135805460ff60a01b1916600160a01b836002811115612a7157612a7161510d565b021790555061013080546001600160a01b038088166001600160a01b0319928316179092556101358054928716929091169190911790558015611104576000805461ff0019169055604051600181527f7f26b83ff96e1f2b6a682f133852f6798a09c465da95921460cefb38474024989060200160405180910390a15050505050565b600081815261013b60209081526040808320546101398352818420546097909352908320548392612b2491615796565b612b2e9190615796565b9392505050565b61013060009054906101000a90046001600160a01b03166001600160a01b031663102c5c016040518163ffffffff1660e01b8152600401602060405180830381865afa158015612b89573d6000803e3d6000fd5b505050506040513d601f19601f82011682018060405250810190612bad9190615695565b6001600160a01b0316336001600160a01b0316146040518060400160405280600f81526020016e4e4f545f5447455f464143544f525960881b81525090612c075760405162461bcd60e51b8152600401610bdb9190614e34565b50600091825261013c602090815260408084206001600160a01b039586168552825283208054600181018255908452922090910180546001600160a01b03191691909216179055565b6001600160a01b0382166000908152610141602090815260408083208484529091528120548190805b61014054811015612d545760006101408281548110612c9a57612c9a615662565b60009182526020918290206040805160808101825260049093029091018054808452600182015494840194909452600281015491830191909152600301546001600160a01b0316606082015291508614612cf45750612d42565b6000612d05888884604001516121b0565b90506000612d17888460400151612716565b6020840151612d2690846157c2565b612d3091906157d9565b9050612d3c8187615796565b95505050505b80612d4c816157a9565b915050612c79565b5090949350505050565b61013060009054906101000a90046001600160a01b03166001600160a01b031663102c5c016040518163ffffffff1660e01b8152600401602060405180830381865afa158015612db2573d6000803e3d6000fd5b505050506040513d601f19601f82011682018060405250810190612dd69190615695565b6001600160a01b0316336001600160a01b03161480612ecd57506101305460408051631d6c8e3f60e21b815290516001600160a01b03909216916391d148549183916375b238fc916004808201926020929091908290030181865afa158015612e43573d6000803e3d6000fd5b505050506040513d601f19601f82011682018060405250810190612e6791906156d3565b6040516001600160e01b031960e084901b1681526004810191909152336024820152604401602060405180830381865afa158015612ea9573d6000803e3d6000fd5b505050506040513d601f19601f82011682018060405250810190612ecd919061560b565b6040518060400160405280600b81526020016a4e4f545f5345525649434560a81b81525090612f0f5760405162461bcd60e51b8152600401610bdb9190614e34565b5061013d8190556101305460408051637b10399960e01b815290516001600160a01b0390921691637b103999916004808201926020929091908290030181865afa158015612f61573d6000803e3d6000fd5b505050506040513d601f19601f82011682018060405250810190612f859190615695565b6001600160a01b0316634dbb83fd3330600063c9a6d8c860e01b86604051602401612fb291815260200190565b60408051601f198184030181529181526020820180516001600160e01b03166001600160e01b03199485161790525160e087901b9092168252612ffa94939291600401615715565b600060405180830381600087803b15801561301457600080fd5b505af1158015611104573d6000803e3d6000fd5b600081815261013860205260408120805461304590600190615702565b8154811061305557613055615662565b6000918252602090912001546001600160a01b031692915050565b61013c602052826000526040600020602052816000526040600020818154811061309957600080fd5b6000918252602090912001546001600160a01b0316925083915050565b6101305460408051637b10399960e01b815290516004926001600160a01b031691637b103999918185019160209190819003860181865afa1580156130ff573d6000803e3d6000fd5b505050506040513d601f19601f820116820180604052508101906131239190615695565b604051630db9619f60e31b81523360048201526001600160a01b039190911690636dcb0cf890602401602060405180830381865afa158015613169573d6000803e3d6000fd5b505050506040513d601f19601f8201168201806040525081019061318d91906156b2565b600481111561319e5761319e61510d565b14604051806040016040528060078152602001664e4f545f54474560c81b815250906131dd5760405162461bcd60e51b8152600401610bdb9190614e34565b506101345481111561258f5761013455565b6001600160a01b03851633148061320b575061320b8533610ac1565b6132275760405162461bcd60e51b8152600401610bdb90615748565b6111048585858585613d3c565b61013560009054906101000a90046001600160a01b03166001600160a01b0316635c975abb6040518163ffffffff1660e01b8152600401602060405180830381865afa158015613288573d6000803e3d6000fd5b505050506040513d601f19601f820116820180604052508101906132ac919061560b565b156040518060400160405280600e81526020016d14d154959250d157d4105554d15160921b815250906132f25760405162461bcd60e51b8152600401610bdb9190614e34565b506101305460408051637b10399960e01b815290516000926004926001600160a01b0390911691637b1039999180850191602091819003860181865afa158015613340573d6000803e3d6000fd5b505050506040513d601f19601f820116820180604052508101906133649190615695565b604051630db9619f60e31b81523360048201526001600160a01b039190911690636dcb0cf890602401602060405180830381865afa1580156133aa573d6000803e3d6000fd5b505050506040513d601f19601f820116820180604052508101906133ce91906156b2565b60048111156133df576133df61510d565b1490506000336001600160a01b031661013060009054906101000a90046001600160a01b03166001600160a01b03166344c63eec6040518163ffffffff1660e01b8152600401602060405180830381865afa158015613442573d6000803e3d6000fd5b505050506040513d601f19601f820116820180604052508101906134669190615695565b6001600160a01b0316149050818061347b5750805b604051806040016040528060078152602001664e4f545f54474560c81b815250906134b95760405162461bcd60e51b8152600401610bdb9190614e34565b506101305460408051637b10399960e01b815290516004926001600160a01b031691637b103999918185019160209190819003860181865afa158015613503573d6000803e3d6000fd5b505050506040513d601f19601f820116820180604052508101906135279190615695565b604051630db9619f60e31b81523360048201526001600160a01b039190911690636dcb0cf890602401602060405180830381865afa15801561356d573d6000803e3d6000fd5b505050506040513d601f19601f8201168201806040525081019061359191906156b2565b60048111156135a2576135a261510d565b14806135b65750336001600160a01b038616145b6040518060400160405280600c81526020016b24a72b20a624a22faaa9a2a960a11b815250906135f95760405162461bcd60e51b8152600401610bdb9190614e34565b50611104858585613e78565b61013560009054906101000a90046001600160a01b03166001600160a01b0316635c975abb6040518163ffffffff1660e01b8152600401602060405180830381865afa158015613659573d6000803e3d6000fd5b505050506040513d601f19601f8201168201806040525081019061367d919061560b565b156040518060400160405280600e81526020016d14d154959250d157d4105554d15160921b815250906136c35760405162461bcd60e51b8152600401610bdb9190614e34565b50610d2a8484848460405180602001604052806000815250613d3c565b6001600160a01b0384166137405760405162461bcd60e51b815260206004820152602160248201527f455243313135353a206d696e7420746f20746865207a65726f206164647265736044820152607360f81b6064820152608401610bdb565b33600061374c8561400c565b905060006137598561400c565b905061376a83600089858589614057565b60008681526065602090815260408083206001600160a01b038b1684529091528120805487929061379c908490615796565b909155505060408051878152602081018790526001600160a01b03808a1692600092918716917fc3d58168c5ae7397731d063d5bbf3d657854427343f4c083240f7aacaa2d0f62910160405180910390a46137fc83600089898989614516565b50505050505050565b600260fe54036138575760405162461bcd60e51b815260206004820152601f60248201527f5265656e7472616e637947756172643a207265656e7472616e742063616c6c006044820152606401610bdb565b600260fe55565b600061386e60cb80546001019055565b600061387960cb5490565b90507f8030e83b04d87bef53480e26263266d6ca66863aa8506aca6f2559d18aa1cb67816040516138ac91815260200190565b60405180910390a1919050565b600160fe55565b81518351146139225760405162461bcd60e51b815260206004820152602860248201527f455243313135353a2069647320616e6420616d6f756e7473206c656e677468206044820152670dad2e6dac2e8c6d60c31b6064820152608401610bdb565b6001600160a01b0384166139485760405162461bcd60e51b8152600401610bdb90615900565b33613957818787878787614057565b60005b8451811015613a4057600085828151811061397757613977615662565b60200260200101519050600085838151811061399557613995615662565b60209081029190910181015160008481526065835260408082206001600160a01b038e1683529093529190912054909150818110156139e65760405162461bcd60e51b8152600401610bdb90615945565b60008381526065602090815260408083206001600160a01b038e8116855292528083208585039055908b16825281208054849290613a25908490615796565b9250508190555050505080613a39906157a9565b905061395a565b50846001600160a01b0316866001600160a01b0316826001600160a01b03167f4a39dc06d4c0dbc64b70af90fd698a233a518aa5d07e595d983b8c0526c8f7fb8787604051613a9092919061598f565b60405180910390a4613aa6818787878787614671565b505050505050565b60008060008411613b015760405162461bcd60e51b815260206004820152601860248201527f45524331313535536e617073686f743a206964206973203000000000000000006044820152606401610bdb565b60cb54841115613b535760405162461bcd60e51b815260206004820152601f60248201527f45524331313535536e617073686f743a206e6f6e6578697374656e74206964006044820152606401610bdb565b6000613b5f848661472c565b84549091508103613b77576000809250925050613b9f565b6001846001018281548110613b8e57613b8e615662565b906000526020600020015492509250505b9250929050565b600082815261013260205260409020613bbf8282615841565b50817f6bb7ff708619ba0610cba295a58592e0451dee2622938c8755667688daf3529b613beb84610dbf565b604051613bf89190614e34565b60405180910390a25050565b816001600160a01b0316836001600160a01b031603613c775760405162461bcd60e51b815260206004820152602960248201527f455243313135353a2073657474696e6720617070726f76616c20737461747573604482015268103337b91039b2b63360b91b6064820152608401610bdb565b6001600160a01b03838116600081815260666020908152604080832094871680845294825291829020805460ff191686151590811790915591519182527f17307eab39ab6107e8899845ad3d59bd9653f200f220920489ca2b5937696c31910160405180910390a3505050565b600054610100900460ff16613d0b5760405162461bcd60e51b8152600401610bdb906159b4565b613d136147d9565b565b600054610100900460ff16613d135760405162461bcd60e51b8152600401610bdb906159b4565b6001600160a01b038416613d625760405162461bcd60e51b8152600401610bdb90615900565b336000613d6e8561400c565b90506000613d7b8561400c565b9050613d8b838989858589614057565b60008681526065602090815260408083206001600160a01b038c16845290915290205485811015613dce5760405162461bcd60e51b8152600401610bdb90615945565b60008781526065602090815260408083206001600160a01b038d8116855292528083208985039055908a16825281208054889290613e0d908490615796565b909155505060408051888152602081018890526001600160a01b03808b16928c821692918816917fc3d58168c5ae7397731d063d5bbf3d657854427343f4c083240f7aacaa2d0f62910160405180910390a4613e6d848a8a8a8a8a614516565b505050505050505050565b6001600160a01b038316613eda5760405162461bcd60e51b815260206004820152602360248201527f455243313135353a206275726e2066726f6d20746865207a65726f206164647260448201526265737360e81b6064820152608401610bdb565b336000613ee68461400c565b90506000613ef38461400c565b9050613f1383876000858560405180602001604052806000815250614057565b60008581526065602090815260408083206001600160a01b038a16845290915290205484811015613f925760405162461bcd60e51b8152602060048201526024808201527f455243313135353a206275726e20616d6f756e7420657863656564732062616c604482015263616e636560e01b6064820152608401610bdb565b60008681526065602090815260408083206001600160a01b038b81168086529184528285208a8703905582518b81529384018a90529092908816917fc3d58168c5ae7397731d063d5bbf3d657854427343f4c083240f7aacaa2d0f62910160405180910390a46040805160208101909152600090526137fc565b6040805160018082528183019092526060916000919060208083019080368337019050509050828160008151811061404657614046615662565b602090810291909101015292915050565b614065868686868686614800565b61013060009054906101000a90046001600160a01b03166001600160a01b0316630aa13b8c6040518163ffffffff1660e01b8152600401602060405180830381865afa1580156140b9573d6000803e3d6000fd5b505050506040513d601f19601f820116820180604052508101906140dd9190615695565b61013d54604051633734a14760e11b81526001600160a01b0388811660048301526024820192909252911690636e69428e90604401602060405180830381865afa15801561412f573d6000803e3d6000fd5b505050506040513d601f19601f82011682018060405250810190614153919061560b565b6040518060400160405280600f81526020016e1393d517d5d2125511531254d51151608a1b815250906141995760405162461bcd60e51b8152600401610bdb9190614e34565b5061013060009054906101000a90046001600160a01b03166001600160a01b0316630aa13b8c6040518163ffffffff1660e01b8152600401602060405180830381865afa1580156141ee573d6000803e3d6000fd5b505050506040513d601f19601f820116820180604052508101906142129190615695565b61013d54604051633734a14760e11b81526001600160a01b0387811660048301526024820192909252911690636e69428e90604401602060405180830381865afa158015614264573d6000803e3d6000fd5b505050506040513d601f19601f82011682018060405250810190614288919061560b565b6040518060400160405280600f81526020016e1393d517d5d2125511531254d51151608a1b815250906142ce5760405162461bcd60e51b8152600401610bdb9190614e34565b506001600160a01b03851615613aa65760005b83518110156137fc5761430c8482815181106142ff576142ff615662565b60200260200101516148d2565b61432f8685838151811061432257614322615662565b6020026020010151611ca9565b83828151811061434157614341615662565b60200260200101511115604051806040016040528060148152602001734c4f575f554e4c4f434b45445f42414c414e434560601b815250906143965760405162461bcd60e51b8152600401610bdb9190614e34565b5061013060009054906101000a90046001600160a01b03166001600160a01b0316637b1039996040518163ffffffff1660e01b8152600401602060405180830381865afa1580156143eb573d6000803e3d6000fd5b505050506040513d601f19601f8201168201806040525081019061440f9190615695565b6001600160a01b0316634dbb83fd33306000630411b25260e01b8b8b8b898151811061443d5761443d615662565b60200260200101518b8a8151811061445757614457615662565b60209081029190910101516040516001600160a01b0394851660248201529390921660448401526064830152608482015260a40160408051601f198184030181529181526020820180516001600160e01b03166001600160e01b03199485161790525160e087901b90921682526144d394939291600401615715565b600060405180830381600087803b1580156144ed57600080fd5b505af1158015614501573d6000803e3d6000fd5b505050508061450f906157a9565b90506142e1565b6001600160a01b0384163b15613aa65760405163f23a6e6160e01b81526001600160a01b0385169063f23a6e619061455a90899089908890889088906004016159ff565b6020604051808303816000875af1925050508015614595575060408051601f3d908101601f1916820190925261459291810190615a44565b60015b614641576145a1615a61565b806308c379a0036145da57506145b5615a7d565b806145c057506145dc565b8060405162461bcd60e51b8152600401610bdb9190614e34565b505b60405162461bcd60e51b815260206004820152603460248201527f455243313135353a207472616e7366657220746f206e6f6e2d455243313135356044820152732932b1b2b4bb32b91034b6b83632b6b2b73a32b960611b6064820152608401610bdb565b6001600160e01b0319811663f23a6e6160e01b146137fc5760405162461bcd60e51b8152600401610bdb90615b06565b6001600160a01b0384163b15613aa65760405163bc197c8160e01b81526001600160a01b0385169063bc197c81906146b59089908990889088908890600401615b4e565b6020604051808303816000875af19250505080156146f0575060408051601f3d908101601f191682019092526146ed91810190615a44565b60015b6146fc576145a1615a61565b6001600160e01b0319811663bc197c8160e01b146137fc5760405162461bcd60e51b8152600401610bdb90615b06565b8154600090810361473f57506000610c09565b82546000905b8082101561478c5760006147598383614aab565b6000878152602090209091508590820154111561477857809150614786565b614783816001615796565b92505b50614745565b6000821180156147b85750836147b5866147a7600186615702565b600091825260209091200190565b54145b156147d1576147c8600183615702565b92505050610c09565b509050610c09565b600054610100900460ff166138b95760405162461bcd60e51b8152600401610bdb906159b4565b61480e868686868686614ac6565b60005b83518110156137fc576001600160a01b0386166148725761484b8585838151811061483e5761483e615662565b6020026020010151614c3f565b61486d84828151811061486057614860615662565b6020026020010151614c74565b6148c2565b6001600160a01b0385166148965761484b8685838151811061483e5761483e615662565b6148ac8685838151811061483e5761483e615662565b6148c28585838151811061483e5761483e615662565b6148cb816157a9565b9050614811565b600081815261013a602090815260408083208054825181850281018501909352808352919290919083018282801561493357602002820191906000526020600020905b81546001600160a01b03168152600190910190602001808311614915575b5050505050905060005b81518110156119375781818151811061495857614958615662565b60200260200101516001600160a01b031663df60fa406040518163ffffffff1660e01b8152600401602060405180830381865afa15801561499d573d6000803e3d6000fd5b505050506040513d601f19601f820116820180604052508101906149c1919061560b565b15614a9957600083815261013a6020526040902080546149e390600190615702565b815481106149f3576149f3615662565b600091825260208083209091015485835261013a909152604090912080546001600160a01b039092169183908110614a2d57614a2d615662565b600091825260208083209190910180546001600160a01b0319166001600160a01b03949094169390931790925584815261013a90915260409020805480614a7657614a76615bac565b600082815260209020810160001990810180546001600160a01b03191690550190555b80614aa3816157a9565b91505061493d565b6000614aba60028484186157d9565b612b2e90848416615796565b6001600160a01b038516614b4d5760005b8351811015614b4b57828181518110614af257614af2615662565b602002602001015160976000868481518110614b1057614b10615662565b602002602001015181526020019081526020016000206000828254614b359190615796565b90915550614b449050816157a9565b9050614ad7565b505b6001600160a01b038416613aa65760005b83518110156137fc576000848281518110614b7b57614b7b615662565b602002602001015190506000848381518110614b9957614b99615662565b6020026020010151905060006097600084815260200190815260200160002054905081811015614c1c5760405162461bcd60e51b815260206004820152602860248201527f455243313135353a206275726e20616d6f756e74206578636565647320746f74604482015267616c537570706c7960c01b6064820152608401610bdb565b60009283526097602052604090922091039055614c38816157a9565b9050614b5e565b600081815260c9602090815260408083206001600160a01b0386168452909152902061234390614c6f8484610b74565b614c94565b600081815260ca6020908152604080832060979092529091205461258f91905b6000614c9f60cb5490565b905080614cab84614cdf565b1015611937578254600180820185556000858152602080822090930193909355938401805494850181558252902090910155565b80546000908103614cf257506000919050565b81548290614d0290600190615702565b81548110614d1257614d12615662565b90600052602060002001549050919050565b919050565b6001600160a01b038116811461258f57600080fd5b8035614d2481614d29565b60008060408385031215614d5c57600080fd5b8235614d6781614d29565b946020939093013593505050565b6001600160e01b03198116811461258f57600080fd5b600060208284031215614d9d57600080fd5b8135612b2e81614d75565b60008060008060808587031215614dbe57600080fd5b8435614dc981614d29565b93506020850135614dd981614d29565b93969395505050506040820135916060013590565b6000815180845260005b81811015614e1457602081850181015186830182015201614df8565b506000602082860101526020601f19601f83011685010191505092915050565b602081526000612b2e6020830184614dee565b600060208284031215614e5957600080fd5b5035919050565b600080600060608486031215614e7557600080fd5b8335614e8081614d29565b95602085013595506040909401359392505050565b60008060408385031215614ea857600080fd5b50508035926020909101359150565b600080600060608486031215614ecc57600080fd5b833592506020840135614ede81614d29565b929592945050506040919091013590565b634e487b7160e01b600052604160045260246000fd5b601f8201601f191681016001600160401b0381118282101715614f2a57614f2a614eef565b6040525050565b60405160c081016001600160401b0381118282101715614f5357614f53614eef565b60405290565b60006001600160401b03821115614f7257614f72614eef565b5060051b60200190565b600082601f830112614f8d57600080fd5b81356020614f9a82614f59565b604051614fa78282614f05565b83815260059390931b8501820192828101915086841115614fc757600080fd5b8286015b84811015614fe25780358352918301918301614fcb565b509695505050505050565b600082601f830112614ffe57600080fd5b81356001600160401b0381111561501757615017614eef565b60405161502e601f8301601f191660200182614f05565b81815284602083860101111561504357600080fd5b816020850160208301376000918101602001919091529392505050565b600080600080600060a0868803121561507857600080fd5b853561508381614d29565b9450602086013561509381614d29565b935060408601356001600160401b03808211156150af57600080fd5b6150bb89838a01614f7c565b945060608801359150808211156150d157600080fd5b6150dd89838a01614f7c565b935060808801359150808211156150f357600080fd5b5061510088828901614fed565b9150509295509295909350565b634e487b7160e01b600052602160045260246000fd5b602081016003831061514557634e487b7160e01b600052602160045260246000fd5b91905290565b6020808252825182820181905260009190848201906040850190845b8181101561518c5783516001600160a01b031683529284019291840191600101615167565b50909695505050505050565b6000602080830181845280855180835260408601915060408160051b870101925083870160005b828110156151ed57603f198886030184526151db858351614dee565b945092850192908501906001016151bf565b5092979650505050505050565b6000806040838503121561520d57600080fd5b82356001600160401b038082111561522457600080fd5b818501915085601f83011261523857600080fd5b8135602061524582614f59565b6040516152528282614f05565b83815260059390931b850182019282810191508984111561527257600080fd5b948201945b8386101561529957853561528a81614d29565b82529482019490820190615277565b965050860135925050808211156152af57600080fd5b506152bc85828601614f7c565b9150509250929050565b600081518084526020808501945080840160005b838110156152f6578151875295820195908201906001016152da565b509495945050505050565b602081526000612b2e60208301846152c6565b6000806040838503121561532757600080fd5b82359150602083013561533981614d29565b809150509250929050565b6000806040838503121561535757600080fd5b8235915060208301356001600160401b0381111561537457600080fd5b6152bc85828601614fed565b801515811461258f57600080fd5b600080604083850312156153a157600080fd5b82356153ac81614d29565b9150602083013561533981615380565b6003811061258f57600080fd5b8035614d24816153bc565b803560ff81168114614d2457600080fd5b600080600080608085870312156153fb57600080fd5b843561540681614d29565b9350602085013561541681614d29565b925060408501356001600160401b038082111561543257600080fd5b9086019060c0828903121561544657600080fd5b61544e614f31565b615457836153c9565b815260208301358281111561546b57600080fd5b6154778a828601614fed565b60208301525060408301358281111561548f57600080fd5b61549b8a828601614fed565b6040830152506060830135828111156154b357600080fd5b6154bf8a828601614fed565b606083015250608083013560808201526154db60a084016153d4565b60a082015293506154f191505060608601614d3e565b905092959194509250565b60008060006060848603121561551157600080fd5b833561551c81614d29565b925060208401359150604084013561553381614d29565b809150509250925092565b60008060006060848603121561555357600080fd5b83359250602084013561556581614d29565b9150604084013561553381614d29565b6000806040838503121561558857600080fd5b823561559381614d29565b9150602083013561533981614d29565b600080600080600060a086880312156155bb57600080fd5b85356155c681614d29565b945060208601356155d681614d29565b9350604086013592506060860135915060808601356001600160401b038111156155ff57600080fd5b61510088828901614fed565b60006020828403121561561d57600080fd5b8151612b2e81615380565b600181811c9082168061563c57607f821691505b60208210810361565c57634e487b7160e01b600052602260045260246000fd5b50919050565b634e487b7160e01b600052603260045260246000fd5b60006020828403121561568a57600080fd5b8151612b2e816153bc565b6000602082840312156156a757600080fd5b8151612b2e81614d29565b6000602082840312156156c457600080fd5b815160058110612b2e57600080fd5b6000602082840312156156e557600080fd5b5051919050565b634e487b7160e01b600052601160045260246000fd5b81810381811115610c0957610c096156ec565b6001600160a01b0385811682528416602082015260408101839052608060608201819052600090611ddf90830184614dee565b6020808252602e908201527f455243313135353a2063616c6c6572206973206e6f7420746f6b656e206f776e60408201526d195c881bdc88185c1c1c9bdd995960921b606082015260800190565b80820180821115610c0957610c096156ec565b6000600182016157bb576157bb6156ec565b5060010190565b8082028115828204841417610c0957610c096156ec565b6000826157f657634e487b7160e01b600052601260045260246000fd5b500490565b601f82111561193757600081815260208120601f850160051c810160208610156158225750805b601f850160051c820191505b81811015613aa65782815560010161582e565b81516001600160401b0381111561585a5761585a614eef565b61586e816158688454615628565b846157fb565b602080601f8311600181146158a3576000841561588b5750858301515b600019600386901b1c1916600185901b178555613aa6565b600085815260208120601f198616915b828110156158d2578886015182559484019460019091019084016158b3565b50858210156158f05787850151600019600388901b60f8161c191681555b5050505050600190811b01905550565b60208082526025908201527f455243313135353a207472616e7366657220746f20746865207a65726f206164604082015264647265737360d81b606082015260800190565b6020808252602a908201527f455243313135353a20696e73756666696369656e742062616c616e636520666f60408201526939103a3930b739b332b960b11b606082015260800190565b6040815260006159a260408301856152c6565b82810360208401526121f981856152c6565b6020808252602b908201527f496e697469616c697a61626c653a20636f6e7472616374206973206e6f74206960408201526a6e697469616c697a696e6760a81b606082015260800190565b6001600160a01b03868116825285166020820152604081018490526060810183905260a060808201819052600090615a3990830184614dee565b979650505050505050565b600060208284031215615a5657600080fd5b8151612b2e81614d75565b600060033d1115615a7a5760046000803e5060005160e01c5b90565b600060443d1015615a8b5790565b6040516003193d81016004833e81513d6001600160401b038160248401118184111715615aba57505050505090565b8285019150815181811115615ad25750505050505090565b843d8701016020828501011115615aec5750505050505090565b615afb60208286010187614f05565b509095945050505050565b60208082526028908201527f455243313135353a204552433131353552656365697665722072656a656374656040820152676420746f6b656e7360c01b606082015260800190565b6001600160a01b0386811682528516602082015260a060408201819052600090615b7a908301866152c6565b8281036060840152615b8c81866152c6565b90508281036080840152615ba08185614dee565b98975050505050505050565b634e487b7160e01b600052603160045260246000fdfea26469706673582212206bb85418700cec9e000e3554963b84c6a59bc00b341376267dc3ef6d77ba787964736f6c63430008110033",
  "devdoc": {
    "details": "An expanded ERC20 contract, based on which tokens of various types are issued. At the moment, the protocol provides for 2 types of tokens: Governance, which must be created simultaneously with the pool, existing for the pool only in the singular and participating in voting, and Preference, which may be several for one pool and which do not participate in voting in any way.",
    "kind": "dev",
    "methods": {
      "addTGE(address,uint256)": {
        "details": "This method adds the TGE contract address to the TGEList of the specified token collection.",
        "params": {
          "tge": "The TGE address.",
          "tokenId": "The token collection of the ERC1155 contract."
        }
      },
      "balanceOf(address,uint256)": {
        "details": "See {IERC1155-balanceOf}. Requirements: - `account` cannot be the zero address."
      },
      "balanceOfAt(address,uint256,uint256)": {
        "details": "Retrieves the balance of an account for a specific token ID at a given snapshot ID.",
        "params": {
          "account": "Address whose balance to retrieve.",
          "snapshotId": "Snapshot ID to retrieve the balance at.",
          "tokenId": "Token ID for which to retrieve the balance."
        },
        "returns": {
          "_0": "The balance of the account at the given snapshot ID."
        }
      },
      "balanceOfBatch(address[],uint256[])": {
        "details": "See {IERC1155-balanceOfBatch}. Requirements: - `accounts` and `ids` must have the same length."
      },
      "burn(address,uint256,uint256)": {
        "details": "Method for burning tokens. It can be called by both token owners and TGE contracts to burn the returned tokens during redeeming.",
        "params": {
          "amount": "The amount of tokens being burned.",
          "from": "The account address.",
          "tokenId": "The token collection of the ERC1155 contract."
        }
      },
      "claimDividendsERC1155(uint256)": {
        "params": {
          "tokenId": "The ERC1155 token ID for which dividends are being claimed."
        }
      },
      "constructor": {
        "custom:oz-upgrades-unsafe-allow": "constructor",
        "details": "This contract uses OpenZeppelin upgrades and has no need for a constructor function. The constructor is replaced with an initializer function. This method disables the initializer feature of the OpenZeppelin upgrades plugin, preventing the initializer methods from being misused."
      },
      "decimals()": {
        "details": "This method is needed for compatibility with other protocol contracts to optimize algorithms. It always returns 0.",
        "returns": {
          "_0": "uint8 Decimals (always 0)"
        }
      },
      "depositDividendsERC1155(uint256,address,uint256)": {
        "params": {
          "amount": "The amount of ERC20 tokens to deposit. For Ether deposits, this is ignored.",
          "tokenAddress": "The address of the ERC20 token, or address(0) for Ether.",
          "tokenId": "The ERC1155 token ID for which dividends are being deposited."
        }
      },
      "exists(uint256)": {
        "details": "Indicates whether any token exist with a given id, or not."
      },
      "getOwedDividends(address,uint256)": {
        "params": {
          "shareholder": "The address of the shareholder.",
          "tokenId": "The ERC1155 token ID."
        },
        "returns": {
          "_0": "totalOwed The total amount of dividends owed to the shareholder for the specified token ID."
        }
      },
      "getTGEList(uint256)": {
        "details": "This method returns the list of addresses of all TGE contracts that have ever been deployed for the specified token collection.",
        "params": {
          "tokenId": "The token collection of the ERC1155 contract."
        },
        "returns": {
          "_0": "array An array of contract addresses."
        }
      },
      "getTgeWithLockedTokensList(uint256)": {
        "details": "This method returns the list of addresses of all TGE contracts that have ever been deployed for the specified token collection and have active transfer restrictions.",
        "params": {
          "tokenId": "The token collection of the ERC1155 contract."
        },
        "returns": {
          "_0": "array An array of contract addresses."
        }
      },
      "getTotalProtocolFeeReserved(uint256)": {
        "details": "This method calculates the total supply for the token, taking into account the reserved but not yet minted token units (for vesting and protocol fee).",
        "params": {
          "tokenId": "The token collection of the ERC1155 contract."
        },
        "returns": {
          "_0": "uint256 The total supply with reserves."
        }
      },
      "getTotalTGEVestedTokens(uint256)": {
        "details": "This method returns the accumulated value stored in the contract's memory, which represents the number of token units from the specified collection that are vested at the time of the request.",
        "params": {
          "tokenId": "The token collection of the ERC1155 contract."
        },
        "returns": {
          "_0": "uint256 The total number of vested tokens."
        }
      },
      "initialize(address,address,(uint8,string,string,string,uint256,uint8),address)": {
        "details": "Token creation, can only be started once. At the same time, the TGE contract, which sells the created token, is necessarily simultaneously deployed and receives an entry in the Registry. For Preference tokens, you can set an arbitrary value of the Name field.",
        "params": {
          "_info": "The parameters of the token, including its type, in the form of a structure described in the TokenInfo method.",
          "_pool": "The address of the pool contract.",
          "_primaryTGE": "The address of the primary TGE for this token.",
          "_service": "The address of the Service contract."
        }
      },
      "isApprovedForAll(address,address)": {
        "details": "See {IERC1155-isApprovedForAll}."
      },
      "isPrimaryTGESuccessful(uint256)": {
        "details": "This method indicates whether a successful TGE has been conducted for the given token collection. It is sufficient to check the first event from the list of all TGEs.",
        "params": {
          "_tokenId": "The token collection of the ERC1155 contract."
        },
        "returns": {
          "_0": "bool Whether any TGE is successful."
        }
      },
      "lastTGE(uint256)": {
        "details": "This method returns the address of the latest TGE contract for the given token collection. Sorting is based on the block of the TGE start, not the end block (i.e., even if an earlier TGE contract is still active while the latest one by creation time has already ended, this method will return the address of the latest contract).",
        "params": {
          "tokenId": "The token collection of the ERC1155 contract."
        },
        "returns": {
          "_0": "address The TGE contract address."
        }
      },
      "mint(address,uint256,uint256)": {
        "details": "Minting of new tokens. Only the TGE or Vesting contract can mint tokens, there is no other way to get an additional issue. If the user who is being minted does not have tokens, they are sent to delegation on his behalf.",
        "params": {
          "amount": "The amount of tokens being minted.",
          "to": "The address of the account for which new token units are being minted.",
          "tokenId": "The token collection of the ERC1155 contract."
        }
      },
      "retryFailedERC1155Transfers(uint256,address)": {
        "params": {
          "tokenAddress": "The address of the token for which to claim failed transfers.",
          "tokenId": "The ERC1155 token ID."
        }
      },
      "safeBatchTransferFrom(address,address,uint256[],uint256[],bytes)": {
        "details": "See {IERC1155-safeBatchTransferFrom}."
      },
      "safeTransferFrom(address,address,uint256,uint256,bytes)": {
        "details": "See {IERC1155-safeTransferFrom}."
      },
      "setApprovalForAll(address,bool)": {
        "details": "See {IERC1155-setApprovalForAll}."
      },
      "setProtocolFeeReserved(uint256,uint256)": {
        "details": "This method modifies the number of token units that should be used as protocol fees.",
        "params": {
          "amount": "The amount of tokens.",
          "tokenId": "The token collection of the ERC1155 contract."
        }
      },
      "setTGEVestedTokens(uint256,uint256)": {
        "details": "This method modifies the number of token units that are vested and reserved for claiming by users.",
        "params": {
          "amount": "The amount of tokens.",
          "tokenId": "The token collection of the ERC1155 contract."
        }
      },
      "setTokenIdCap(uint256,uint256)": {
        "details": "This method irreversibly sets the emission cap for each of the created token collections.",
        "params": {
          "_cap": "The maximum emission cap in token units.",
          "_tokenId": "The token collection of the ERC1155 contract."
        }
      },
      "setURI(uint256,string)": {
        "details": "This method sets the metadata URI for each of the token collections.",
        "params": {
          "tokenId": "The token collection of the ERC1155 contract.",
          "tokenURI": "The metadata URI."
        }
      },
      "supportsInterface(bytes4)": {
        "details": "See {IERC165-supportsInterface}."
      },
      "totalSupply(uint256)": {
        "details": "Total amount of tokens in with a given id."
      },
      "totalSupplyAt(uint256,uint256)": {
        "details": "Retrieves the total supply of a specific token ID at a given snapshot ID.",
        "params": {
          "snapshotId": "Snapshot ID to retrieve the total supply at.",
          "tokenId": "Token ID for which to retrieve the total supply."
        },
        "returns": {
          "_0": "The total supply of the token at the given snapshot ID."
        }
      },
      "totalSupplyWithReserves(uint256)": {
        "details": "This method calculates the total supply for an ERC1155 token collection, taking into account the reserved but not yet minted token units (for vesting and protocol fee).",
        "params": {
          "tokenId": "The token collection of the ERC1155 contract."
        },
        "returns": {
          "_0": "uint256 The total supply of the token collection with reserves."
        }
      },
      "unlockedBalanceOf(address,uint256)": {
        "details": "The given getter returns the total balance of the address that is not locked for transfer, taking into account all the TGEs with which this token collection was distributed.It calculates the difference between the actual balance of the account and its locked portion. The calculation is performed for the specified token collection.",
        "params": {
          "account": "The account address.",
          "tokenId": "The token collection of the ERC1155 contract."
        },
        "returns": {
          "_0": "uint256 The unlocked balance of the account."
        }
      },
      "uri(uint256)": {
        "details": "This getter allows retrieving the stored metadata URI for the specified ERC1155 token collection in the contract.",
        "params": {
          "tokenId": "The token collection of the ERC1155 contract."
        },
        "returns": {
          "_0": "uint256 The metadata URI for the collection."
        }
      }
    },
    "stateVariables": {
      "_tokenURIs": {
        "details": "Mapping storing the URI metadata for each collection of the token"
      },
      "cap": {
        "details": "Mapping storing the maximum caps for each collection of ERC1155 token"
      },
      "description": {
        "details": "Preference token description, allows up to 5000 characters, for others - \"\""
      },
      "lastTokenId": {
        "details": "The identifier (sequential number) of the token collection that was created last"
      },
      "name": {
        "details": "Preference token name"
      },
      "pool": {
        "details": "The address of the pool contract that owns the token"
      },
      "service": {
        "details": "The address of the Service contract"
      },
      "symbol": {
        "details": "The token symbol or ticker for listing"
      },
      "tgeList": {
        "details": "A list of TGE contract addresses that have been launched to distribute collections of this token. The collection ID serves as the key for this mapping."
      },
      "tgeWithLockedTokensList": {
        "details": "Mapping storing lists of TGEs with active token lockups for each collection of this token"
      },
      "tokenType": {
        "details": "In the current version, ERC1155 tokens can only have the code \"2\", which corresponds to the Preference token type."
      },
      "totalProtocolFeeReserved": {
        "details": "Mapping storing the amounts of tokens reserved as protocol fees for each collection of this token"
      },
      "totalVested": {
        "details": "Mapping storing the amounts of tokens in vesting for each collection of this token"
      }
    },
    "title": "Company (Pool) Token",
    "version": 1
  },
  "userdoc": {
    "kind": "user",
    "methods": {
      "claimDividendsERC1155(uint256)": {
        "notice": "Claims any dividends owed to the caller for a specific ERC1155 token ID."
      },
      "constructor": {
        "notice": "Contract constructor."
      },
      "depositDividendsERC1155(uint256,address,uint256)": {
        "notice": "Deposits dividends for a specific ERC1155 token ID."
      },
      "getOwedDividends(address,uint256)": {
        "notice": "Retrieves the total dividends owed to a shareholder for a specific ERC1155 token ID."
      },
      "partnerFee()": {
        "notice": "Examples: 1% = 10000, 100% = 1000000, 0.1% = 1000"
      },
      "retryFailedERC1155Transfers(uint256,address)": {
        "notice": "Allows a user to retry claiming dividends for a specific ERC1155 token ID that previously failed to transfer."
      },
      "tgeList(uint256,uint256)": {
        "notice": "All TGEs associated with this token"
      },
      "tokenType()": {
        "notice": "The digital code of the token type"
      }
    },
    "version": 1
  },
  "storageLayout": {
    "storage": [
      {
        "astId": 314,
        "contract": "contracts/TokenERC1155.sol:TokenERC1155",
        "label": "_initialized",
        "offset": 0,
        "slot": "0",
        "type": "t_uint8"
      },
      {
        "astId": 317,
        "contract": "contracts/TokenERC1155.sol:TokenERC1155",
        "label": "_initializing",
        "offset": 1,
        "slot": "0",
        "type": "t_bool"
      },
      {
        "astId": 4376,
        "contract": "contracts/TokenERC1155.sol:TokenERC1155",
        "label": "__gap",
        "offset": 0,
        "slot": "1",
        "type": "t_array(t_uint256)50_storage"
      },
      {
        "astId": 5240,
        "contract": "contracts/TokenERC1155.sol:TokenERC1155",
        "label": "__gap",
        "offset": 0,
        "slot": "51",
        "type": "t_array(t_uint256)50_storage"
      },
      {
        "astId": 578,
        "contract": "contracts/TokenERC1155.sol:TokenERC1155",
        "label": "_balances",
        "offset": 0,
        "slot": "101",
        "type": "t_mapping(t_uint256,t_mapping(t_address,t_uint256))"
      },
      {
        "astId": 584,
        "contract": "contracts/TokenERC1155.sol:TokenERC1155",
        "label": "_operatorApprovals",
        "offset": 0,
        "slot": "102",
        "type": "t_mapping(t_address,t_mapping(t_address,t_bool))"
      },
      {
        "astId": 586,
        "contract": "contracts/TokenERC1155.sol:TokenERC1155",
        "label": "_uri",
        "offset": 0,
        "slot": "103",
        "type": "t_string_storage"
      },
      {
        "astId": 1793,
        "contract": "contracts/TokenERC1155.sol:TokenERC1155",
        "label": "__gap",
        "offset": 0,
        "slot": "104",
        "type": "t_array(t_uint256)47_storage"
      },
      {
        "astId": 1982,
        "contract": "contracts/TokenERC1155.sol:TokenERC1155",
        "label": "_totalSupply",
        "offset": 0,
        "slot": "151",
        "type": "t_mapping(t_uint256,t_uint256)"
      },
      {
        "astId": 2133,
        "contract": "contracts/TokenERC1155.sol:TokenERC1155",
        "label": "__gap",
        "offset": 0,
        "slot": "152",
        "type": "t_array(t_uint256)49_storage"
      },
      {
        "astId": 14379,
        "contract": "contracts/TokenERC1155.sol:TokenERC1155",
        "label": "_accountBalanceSnapshots",
        "offset": 0,
        "slot": "201",
        "type": "t_mapping(t_uint256,t_mapping(t_address,t_struct(Snapshots)14372_storage))"
      },
      {
        "astId": 14384,
        "contract": "contracts/TokenERC1155.sol:TokenERC1155",
        "label": "_totalSupplySnapshots",
        "offset": 0,
        "slot": "202",
        "type": "t_mapping(t_uint256,t_struct(Snapshots)14372_storage)"
      },
      {
        "astId": 14387,
        "contract": "contracts/TokenERC1155.sol:TokenERC1155",
        "label": "_currentSnapshotId",
        "offset": 0,
        "slot": "203",
        "type": "t_struct(Counter)4383_storage"
      },
      {
        "astId": 14760,
        "contract": "contracts/TokenERC1155.sol:TokenERC1155",
        "label": "__gap",
        "offset": 0,
        "slot": "204",
        "type": "t_array(t_uint256)50_storage"
      },
      {
        "astId": 490,
        "contract": "contracts/TokenERC1155.sol:TokenERC1155",
        "label": "_status",
        "offset": 0,
        "slot": "254",
        "type": "t_uint256"
      },
      {
        "astId": 548,
        "contract": "contracts/TokenERC1155.sol:TokenERC1155",
        "label": "__gap",
        "offset": 0,
        "slot": "255",
        "type": "t_array(t_uint256)49_storage"
      },
      {
        "astId": 11001,
        "contract": "contracts/TokenERC1155.sol:TokenERC1155",
        "label": "service",
        "offset": 0,
        "slot": "304",
        "type": "t_contract(IService)13054"
      },
      {
        "astId": 11004,
        "contract": "contracts/TokenERC1155.sol:TokenERC1155",
        "label": "symbol",
        "offset": 0,
        "slot": "305",
        "type": "t_string_storage"
      },
      {
        "astId": 11009,
        "contract": "contracts/TokenERC1155.sol:TokenERC1155",
        "label": "_tokenURIs",
        "offset": 0,
        "slot": "306",
        "type": "t_mapping(t_uint256,t_string_storage)"
      },
      {
        "astId": 11014,
        "contract": "contracts/TokenERC1155.sol:TokenERC1155",
        "label": "cap",
        "offset": 0,
        "slot": "307",
        "type": "t_mapping(t_uint256,t_uint256)"
      },
      {
        "astId": 11017,
        "contract": "contracts/TokenERC1155.sol:TokenERC1155",
        "label": "lastTokenId",
        "offset": 0,
        "slot": "308",
        "type": "t_uint256"
      },
      {
        "astId": 11020,
        "contract": "contracts/TokenERC1155.sol:TokenERC1155",
        "label": "pool",
        "offset": 0,
        "slot": "309",
        "type": "t_address"
      },
      {
        "astId": 11024,
        "contract": "contracts/TokenERC1155.sol:TokenERC1155",
        "label": "tokenType",
        "offset": 20,
        "slot": "309",
        "type": "t_enum(TokenType)13388"
      },
      {
        "astId": 11027,
        "contract": "contracts/TokenERC1155.sol:TokenERC1155",
        "label": "name",
        "offset": 0,
        "slot": "310",
        "type": "t_string_storage"
      },
      {
        "astId": 11030,
        "contract": "contracts/TokenERC1155.sol:TokenERC1155",
        "label": "description",
        "offset": 0,
        "slot": "311",
        "type": "t_string_storage"
      },
      {
        "astId": 11036,
        "contract": "contracts/TokenERC1155.sol:TokenERC1155",
        "label": "tgeList",
        "offset": 0,
        "slot": "312",
        "type": "t_mapping(t_uint256,t_array(t_address)dyn_storage)"
      },
      {
        "astId": 11041,
        "contract": "contracts/TokenERC1155.sol:TokenERC1155",
        "label": "totalVested",
        "offset": 0,
        "slot": "313",
        "type": "t_mapping(t_uint256,t_uint256)"
      },
      {
        "astId": 11047,
        "contract": "contracts/TokenERC1155.sol:TokenERC1155",
        "label": "tgeWithLockedTokensList",
        "offset": 0,
        "slot": "314",
        "type": "t_mapping(t_uint256,t_array(t_address)dyn_storage)"
      },
      {
        "astId": 11052,
        "contract": "contracts/TokenERC1155.sol:TokenERC1155",
        "label": "totalProtocolFeeReserved",
        "offset": 0,
        "slot": "315",
        "type": "t_mapping(t_uint256,t_uint256)"
      },
      {
        "astId": 11059,
        "contract": "contracts/TokenERC1155.sol:TokenERC1155",
        "label": "tseList",
        "offset": 0,
        "slot": "316",
        "type": "t_mapping(t_uint256,t_mapping(t_address,t_array(t_address)dyn_storage))"
      },
      {
        "astId": 11061,
        "contract": "contracts/TokenERC1155.sol:TokenERC1155",
        "label": "compliance",
        "offset": 0,
        "slot": "317",
        "type": "t_bytes32"
      },
      {
        "astId": 11064,
        "contract": "contracts/TokenERC1155.sol:TokenERC1155",
        "label": "partnerFee",
        "offset": 0,
        "slot": "318",
        "type": "t_uint256"
      },
      {
        "astId": 11066,
        "contract": "contracts/TokenERC1155.sol:TokenERC1155",
        "label": "partnerAddress",
        "offset": 0,
        "slot": "319",
        "type": "t_address"
      },
      {
        "astId": 11079,
        "contract": "contracts/TokenERC1155.sol:TokenERC1155",
        "label": "dividends",
        "offset": 0,
        "slot": "320",
        "type": "t_array(t_struct(Dividend)11075_storage)dyn_storage"
      },
      {
        "astId": 11085,
        "contract": "contracts/TokenERC1155.sol:TokenERC1155",
        "label": "lastDividendsClaimedIndex",
        "offset": 0,
        "slot": "321",
        "type": "t_mapping(t_address,t_mapping(t_uint256,t_uint256))"
      },
      {
        "astId": 11093,
        "contract": "contracts/TokenERC1155.sol:TokenERC1155",
        "label": "failedERC1155Transfers",
        "offset": 0,
        "slot": "322",
        "type": "t_mapping(t_uint256,t_mapping(t_address,t_mapping(t_address,t_uint256)))"
      }
    ],
    "types": {
      "t_address": {
        "encoding": "inplace",
        "label": "address",
        "numberOfBytes": "20"
      },
      "t_array(t_address)dyn_storage": {
        "base": "t_address",
        "encoding": "dynamic_array",
        "label": "address[]",
        "numberOfBytes": "32"
      },
      "t_array(t_struct(Dividend)11075_storage)dyn_storage": {
        "base": "t_struct(Dividend)11075_storage",
        "encoding": "dynamic_array",
        "label": "struct TokenERC1155.Dividend[]",
        "numberOfBytes": "32"
      },
      "t_array(t_uint256)47_storage": {
        "base": "t_uint256",
        "encoding": "inplace",
        "label": "uint256[47]",
        "numberOfBytes": "1504"
      },
      "t_array(t_uint256)49_storage": {
        "base": "t_uint256",
        "encoding": "inplace",
        "label": "uint256[49]",
        "numberOfBytes": "1568"
      },
      "t_array(t_uint256)50_storage": {
        "base": "t_uint256",
        "encoding": "inplace",
        "label": "uint256[50]",
        "numberOfBytes": "1600"
      },
      "t_array(t_uint256)dyn_storage": {
        "base": "t_uint256",
        "encoding": "dynamic_array",
        "label": "uint256[]",
        "numberOfBytes": "32"
      },
      "t_bool": {
        "encoding": "inplace",
        "label": "bool",
        "numberOfBytes": "1"
      },
      "t_bytes32": {
        "encoding": "inplace",
        "label": "bytes32",
        "numberOfBytes": "32"
      },
      "t_contract(IService)13054": {
        "encoding": "inplace",
        "label": "contract IService",
        "numberOfBytes": "20"
      },
      "t_enum(TokenType)13388": {
        "encoding": "inplace",
        "label": "enum IToken.TokenType",
        "numberOfBytes": "1"
      },
      "t_mapping(t_address,t_array(t_address)dyn_storage)": {
        "encoding": "mapping",
        "key": "t_address",
        "label": "mapping(address => address[])",
        "numberOfBytes": "32",
        "value": "t_array(t_address)dyn_storage"
      },
      "t_mapping(t_address,t_bool)": {
        "encoding": "mapping",
        "key": "t_address",
        "label": "mapping(address => bool)",
        "numberOfBytes": "32",
        "value": "t_bool"
      },
      "t_mapping(t_address,t_mapping(t_address,t_bool))": {
        "encoding": "mapping",
        "key": "t_address",
        "label": "mapping(address => mapping(address => bool))",
        "numberOfBytes": "32",
        "value": "t_mapping(t_address,t_bool)"
      },
      "t_mapping(t_address,t_mapping(t_address,t_uint256))": {
        "encoding": "mapping",
        "key": "t_address",
        "label": "mapping(address => mapping(address => uint256))",
        "numberOfBytes": "32",
        "value": "t_mapping(t_address,t_uint256)"
      },
      "t_mapping(t_address,t_mapping(t_uint256,t_uint256))": {
        "encoding": "mapping",
        "key": "t_address",
        "label": "mapping(address => mapping(uint256 => uint256))",
        "numberOfBytes": "32",
        "value": "t_mapping(t_uint256,t_uint256)"
      },
      "t_mapping(t_address,t_struct(Snapshots)14372_storage)": {
        "encoding": "mapping",
        "key": "t_address",
        "label": "mapping(address => struct ERC1155SnapshotUpgradeable.Snapshots)",
        "numberOfBytes": "32",
        "value": "t_struct(Snapshots)14372_storage"
      },
      "t_mapping(t_address,t_uint256)": {
        "encoding": "mapping",
        "key": "t_address",
        "label": "mapping(address => uint256)",
        "numberOfBytes": "32",
        "value": "t_uint256"
      },
      "t_mapping(t_uint256,t_array(t_address)dyn_storage)": {
        "encoding": "mapping",
        "key": "t_uint256",
        "label": "mapping(uint256 => address[])",
        "numberOfBytes": "32",
        "value": "t_array(t_address)dyn_storage"
      },
      "t_mapping(t_uint256,t_mapping(t_address,t_array(t_address)dyn_storage))": {
        "encoding": "mapping",
        "key": "t_uint256",
        "label": "mapping(uint256 => mapping(address => address[]))",
        "numberOfBytes": "32",
        "value": "t_mapping(t_address,t_array(t_address)dyn_storage)"
      },
      "t_mapping(t_uint256,t_mapping(t_address,t_mapping(t_address,t_uint256)))": {
        "encoding": "mapping",
        "key": "t_uint256",
        "label": "mapping(uint256 => mapping(address => mapping(address => uint256)))",
        "numberOfBytes": "32",
        "value": "t_mapping(t_address,t_mapping(t_address,t_uint256))"
      },
      "t_mapping(t_uint256,t_mapping(t_address,t_struct(Snapshots)14372_storage))": {
        "encoding": "mapping",
        "key": "t_uint256",
        "label": "mapping(uint256 => mapping(address => struct ERC1155SnapshotUpgradeable.Snapshots))",
        "numberOfBytes": "32",
        "value": "t_mapping(t_address,t_struct(Snapshots)14372_storage)"
      },
      "t_mapping(t_uint256,t_mapping(t_address,t_uint256))": {
        "encoding": "mapping",
        "key": "t_uint256",
        "label": "mapping(uint256 => mapping(address => uint256))",
        "numberOfBytes": "32",
        "value": "t_mapping(t_address,t_uint256)"
      },
      "t_mapping(t_uint256,t_string_storage)": {
        "encoding": "mapping",
        "key": "t_uint256",
        "label": "mapping(uint256 => string)",
        "numberOfBytes": "32",
        "value": "t_string_storage"
      },
      "t_mapping(t_uint256,t_struct(Snapshots)14372_storage)": {
        "encoding": "mapping",
        "key": "t_uint256",
        "label": "mapping(uint256 => struct ERC1155SnapshotUpgradeable.Snapshots)",
        "numberOfBytes": "32",
        "value": "t_struct(Snapshots)14372_storage"
      },
      "t_mapping(t_uint256,t_uint256)": {
        "encoding": "mapping",
        "key": "t_uint256",
        "label": "mapping(uint256 => uint256)",
        "numberOfBytes": "32",
        "value": "t_uint256"
      },
      "t_string_storage": {
        "encoding": "bytes",
        "label": "string",
        "numberOfBytes": "32"
      },
      "t_struct(Counter)4383_storage": {
        "encoding": "inplace",
        "label": "struct CountersUpgradeable.Counter",
        "members": [
          {
            "astId": 4382,
            "contract": "contracts/TokenERC1155.sol:TokenERC1155",
            "label": "_value",
            "offset": 0,
            "slot": "0",
            "type": "t_uint256"
          }
        ],
        "numberOfBytes": "32"
      },
      "t_struct(Dividend)11075_storage": {
        "encoding": "inplace",
        "label": "struct TokenERC1155.Dividend",
        "members": [
          {
            "astId": 11068,
            "contract": "contracts/TokenERC1155.sol:TokenERC1155",
            "label": "tokenId",
            "offset": 0,
            "slot": "0",
            "type": "t_uint256"
          },
          {
            "astId": 11070,
            "contract": "contracts/TokenERC1155.sol:TokenERC1155",
            "label": "amount",
            "offset": 0,
            "slot": "1",
            "type": "t_uint256"
          },
          {
            "astId": 11072,
            "contract": "contracts/TokenERC1155.sol:TokenERC1155",
            "label": "snapshotId",
            "offset": 0,
            "slot": "2",
            "type": "t_uint256"
          },
          {
            "astId": 11074,
            "contract": "contracts/TokenERC1155.sol:TokenERC1155",
            "label": "tokenAddress",
            "offset": 0,
            "slot": "3",
            "type": "t_address"
          }
        ],
        "numberOfBytes": "128"
      },
      "t_struct(Snapshots)14372_storage": {
        "encoding": "inplace",
        "label": "struct ERC1155SnapshotUpgradeable.Snapshots",
        "members": [
          {
            "astId": 14368,
            "contract": "contracts/TokenERC1155.sol:TokenERC1155",
            "label": "ids",
            "offset": 0,
            "slot": "0",
            "type": "t_array(t_uint256)dyn_storage"
          },
          {
            "astId": 14371,
            "contract": "contracts/TokenERC1155.sol:TokenERC1155",
            "label": "values",
            "offset": 0,
            "slot": "1",
            "type": "t_array(t_uint256)dyn_storage"
          }
        ],
        "numberOfBytes": "64"
      },
      "t_uint256": {
        "encoding": "inplace",
        "label": "uint256",
        "numberOfBytes": "32"
      },
      "t_uint8": {
        "encoding": "inplace",
        "label": "uint8",
        "numberOfBytes": "1"
      }
    }
  }
}